{
  "_format": "hh-sol-artifact-1",
  "contractName": "GamificationContract",
  "sourceName": "contracts/features/GamificationContract.sol",
  "abi": [
    {
      "inputs": [
        {
          "internalType": "address",
          "name": "_studentRegistry",
          "type": "address"
        },
        {
          "internalType": "address payable",
          "name": "_pointEconomy",
          "type": "address"
        }
      ],
      "stateMutability": "nonpayable",
      "type": "constructor"
    },
    {
      "inputs": [],
      "name": "AccessControlBadConfirmation",
      "type": "error"
    },
    {
      "inputs": [
        {
          "internalType": "address",
          "name": "account",
          "type": "address"
        },
        {
          "internalType": "bytes32",
          "name": "neededRole",
          "type": "bytes32"
        }
      ],
      "name": "AccessControlUnauthorizedAccount",
      "type": "error"
    },
    {
      "inputs": [],
      "name": "ReentrancyGuardReentrantCall",
      "type": "error"
    },
    {
      "anonymous": false,
      "inputs": [
        {
          "indexed": false,
          "internalType": "enum GamificationContract.BadgeType",
          "name": "badgeType",
          "type": "uint8"
        },
        {
          "indexed": false,
          "internalType": "string",
          "name": "name",
          "type": "string"
        },
        {
          "indexed": false,
          "internalType": "uint256",
          "name": "pointReward",
          "type": "uint256"
        }
      ],
      "name": "BadgeCreated",
      "type": "event"
    },
    {
      "anonymous": false,
      "inputs": [
        {
          "indexed": true,
          "internalType": "address",
          "name": "user",
          "type": "address"
        },
        {
          "indexed": false,
          "internalType": "enum GamificationContract.BadgeType",
          "name": "badgeType",
          "type": "uint8"
        },
        {
          "indexed": false,
          "internalType": "enum GamificationContract.AchievementTier",
          "name": "tier",
          "type": "uint8"
        },
        {
          "indexed": false,
          "internalType": "uint256",
          "name": "pointsAwarded",
          "type": "uint256"
        },
        {
          "indexed": false,
          "internalType": "uint256",
          "name": "timestamp",
          "type": "uint256"
        }
      ],
      "name": "BadgeEarned",
      "type": "event"
    },
    {
      "anonymous": false,
      "inputs": [
        {
          "indexed": true,
          "internalType": "address",
          "name": "user",
          "type": "address"
        },
        {
          "indexed": false,
          "internalType": "uint256",
          "name": "newRank",
          "type": "uint256"
        }
      ],
      "name": "LeaderboardUpdated",
      "type": "event"
    },
    {
      "anonymous": false,
      "inputs": [
        {
          "indexed": true,
          "internalType": "address",
          "name": "user",
          "type": "address"
        },
        {
          "indexed": true,
          "internalType": "uint256",
          "name": "milestoneId",
          "type": "uint256"
        },
        {
          "indexed": false,
          "internalType": "uint256",
          "name": "pointsAwarded",
          "type": "uint256"
        },
        {
          "indexed": false,
          "internalType": "uint256",
          "name": "timestamp",
          "type": "uint256"
        }
      ],
      "name": "MilestoneAchieved",
      "type": "event"
    },
    {
      "anonymous": false,
      "inputs": [
        {
          "indexed": true,
          "internalType": "bytes32",
          "name": "role",
          "type": "bytes32"
        },
        {
          "indexed": true,
          "internalType": "bytes32",
          "name": "previousAdminRole",
          "type": "bytes32"
        },
        {
          "indexed": true,
          "internalType": "bytes32",
          "name": "newAdminRole",
          "type": "bytes32"
        }
      ],
      "name": "RoleAdminChanged",
      "type": "event"
    },
    {
      "anonymous": false,
      "inputs": [
        {
          "indexed": true,
          "internalType": "bytes32",
          "name": "role",
          "type": "bytes32"
        },
        {
          "indexed": true,
          "internalType": "address",
          "name": "account",
          "type": "address"
        },
        {
          "indexed": true,
          "internalType": "address",
          "name": "sender",
          "type": "address"
        }
      ],
      "name": "RoleGranted",
      "type": "event"
    },
    {
      "anonymous": false,
      "inputs": [
        {
          "indexed": true,
          "internalType": "bytes32",
          "name": "role",
          "type": "bytes32"
        },
        {
          "indexed": true,
          "internalType": "address",
          "name": "account",
          "type": "address"
        },
        {
          "indexed": true,
          "internalType": "address",
          "name": "sender",
          "type": "address"
        }
      ],
      "name": "RoleRevoked",
      "type": "event"
    },
    {
      "inputs": [],
      "name": "ADMIN_ROLE",
      "outputs": [
        {
          "internalType": "bytes32",
          "name": "",
          "type": "bytes32"
        }
      ],
      "stateMutability": "view",
      "type": "function"
    },
    {
      "inputs": [],
      "name": "DEFAULT_ADMIN_ROLE",
      "outputs": [
        {
          "internalType": "bytes32",
          "name": "",
          "type": "bytes32"
        }
      ],
      "stateMutability": "view",
      "type": "function"
    },
    {
      "inputs": [],
      "name": "GAME_MANAGER_ROLE",
      "outputs": [
        {
          "internalType": "bytes32",
          "name": "",
          "type": "bytes32"
        }
      ],
      "stateMutability": "view",
      "type": "function"
    },
    {
      "inputs": [
        {
          "internalType": "uint256",
          "name": "",
          "type": "uint256"
        }
      ],
      "name": "activeUsers",
      "outputs": [
        {
          "internalType": "address",
          "name": "",
          "type": "address"
        }
      ],
      "stateMutability": "view",
      "type": "function"
    },
    {
      "inputs": [
        {
          "internalType": "enum GamificationContract.BadgeType",
          "name": "",
          "type": "uint8"
        }
      ],
      "name": "badges",
      "outputs": [
        {
          "internalType": "enum GamificationContract.BadgeType",
          "name": "badgeType",
          "type": "uint8"
        },
        {
          "internalType": "string",
          "name": "name",
          "type": "string"
        },
        {
          "internalType": "string",
          "name": "description",
          "type": "string"
        },
        {
          "internalType": "uint256",
          "name": "pointReward",
          "type": "uint256"
        },
        {
          "internalType": "uint256",
          "name": "requirement",
          "type": "uint256"
        },
        {
          "internalType": "bool",
          "name": "isActive",
          "type": "bool"
        }
      ],
      "stateMutability": "view",
      "type": "function"
    },
    {
      "inputs": [
        {
          "internalType": "address",
          "name": "",
          "type": "address"
        }
      ],
      "name": "consecutiveDaysActive",
      "outputs": [
        {
          "internalType": "uint256",
          "name": "",
          "type": "uint256"
        }
      ],
      "stateMutability": "view",
      "type": "function"
    },
    {
      "inputs": [
        {
          "internalType": "address",
          "name": "",
          "type": "address"
        }
      ],
      "name": "feedbackCount",
      "outputs": [
        {
          "internalType": "uint256",
          "name": "",
          "type": "uint256"
        }
      ],
      "stateMutability": "view",
      "type": "function"
    },
    {
      "inputs": [
        {
          "internalType": "uint256",
          "name": "limit",
          "type": "uint256"
        }
      ],
      "name": "getLeaderboard",
      "outputs": [
        {
          "components": [
            {
              "internalType": "address",
              "name": "user",
              "type": "address"
            },
            {
              "internalType": "uint256",
              "name": "totalPoints",
              "type": "uint256"
            },
            {
              "internalType": "uint256",
              "name": "totalFeedbacks",
              "type": "uint256"
            },
            {
              "internalType": "uint256",
              "name": "badgeCount",
              "type": "uint256"
            },
            {
              "internalType": "uint256",
              "name": "rank",
              "type": "uint256"
            }
          ],
          "internalType": "struct GamificationContract.LeaderboardEntry[]",
          "name": "",
          "type": "tuple[]"
        }
      ],
      "stateMutability": "view",
      "type": "function"
    },
    {
      "inputs": [
        {
          "internalType": "bytes32",
          "name": "role",
          "type": "bytes32"
        }
      ],
      "name": "getRoleAdmin",
      "outputs": [
        {
          "internalType": "bytes32",
          "name": "",
          "type": "bytes32"
        }
      ],
      "stateMutability": "view",
      "type": "function"
    },
    {
      "inputs": [
        {
          "internalType": "address",
          "name": "user",
          "type": "address"
        }
      ],
      "name": "getUserAchievements",
      "outputs": [
        {
          "components": [
            {
              "internalType": "address",
              "name": "user",
              "type": "address"
            },
            {
              "internalType": "enum GamificationContract.BadgeType",
              "name": "badgeType",
              "type": "uint8"
            },
            {
              "internalType": "enum GamificationContract.AchievementTier",
              "name": "tier",
              "type": "uint8"
            },
            {
              "internalType": "uint256",
              "name": "earnedAt",
              "type": "uint256"
            },
            {
              "internalType": "uint256",
              "name": "pointsAwarded",
              "type": "uint256"
            }
          ],
          "internalType": "struct GamificationContract.UserAchievement[]",
          "name": "",
          "type": "tuple[]"
        }
      ],
      "stateMutability": "view",
      "type": "function"
    },
    {
      "inputs": [
        {
          "internalType": "address",
          "name": "user",
          "type": "address"
        }
      ],
      "name": "getUserStats",
      "outputs": [
        {
          "internalType": "uint256",
          "name": "feedbacks",
          "type": "uint256"
        },
        {
          "internalType": "uint256",
          "name": "qualityFeedbacks",
          "type": "uint256"
        },
        {
          "internalType": "uint256",
          "name": "badgeCount",
          "type": "uint256"
        },
        {
          "internalType": "uint256",
          "name": "consecutiveDays",
          "type": "uint256"
        }
      ],
      "stateMutability": "view",
      "type": "function"
    },
    {
      "inputs": [
        {
          "internalType": "address",
          "name": "manager",
          "type": "address"
        }
      ],
      "name": "grantGameManagerRole",
      "outputs": [],
      "stateMutability": "nonpayable",
      "type": "function"
    },
    {
      "inputs": [
        {
          "internalType": "bytes32",
          "name": "role",
          "type": "bytes32"
        },
        {
          "internalType": "address",
          "name": "account",
          "type": "address"
        }
      ],
      "name": "grantRole",
      "outputs": [],
      "stateMutability": "nonpayable",
      "type": "function"
    },
    {
      "inputs": [
        {
          "internalType": "address",
          "name": "user",
          "type": "address"
        },
        {
          "internalType": "enum GamificationContract.BadgeType",
          "name": "badgeType",
          "type": "uint8"
        }
      ],
      "name": "hasBadge",
      "outputs": [
        {
          "internalType": "bool",
          "name": "",
          "type": "bool"
        }
      ],
      "stateMutability": "view",
      "type": "function"
    },
    {
      "inputs": [
        {
          "internalType": "bytes32",
          "name": "role",
          "type": "bytes32"
        },
        {
          "internalType": "address",
          "name": "account",
          "type": "address"
        }
      ],
      "name": "hasRole",
      "outputs": [
        {
          "internalType": "bool",
          "name": "",
          "type": "bool"
        }
      ],
      "stateMutability": "view",
      "type": "function"
    },
    {
      "inputs": [],
      "name": "milestoneCounter",
      "outputs": [
        {
          "internalType": "uint256",
          "name": "",
          "type": "uint256"
        }
      ],
      "stateMutability": "view",
      "type": "function"
    },
    {
      "inputs": [
        {
          "internalType": "uint256",
          "name": "",
          "type": "uint256"
        }
      ],
      "name": "milestones",
      "outputs": [
        {
          "internalType": "uint256",
          "name": "id",
          "type": "uint256"
        },
        {
          "internalType": "string",
          "name": "name",
          "type": "string"
        },
        {
          "internalType": "string",
          "name": "description",
          "type": "string"
        },
        {
          "internalType": "uint256",
          "name": "targetValue",
          "type": "uint256"
        },
        {
          "internalType": "uint256",
          "name": "pointReward",
          "type": "uint256"
        },
        {
          "internalType": "bool",
          "name": "isActive",
          "type": "bool"
        }
      ],
      "stateMutability": "view",
      "type": "function"
    },
    {
      "inputs": [],
      "name": "pointEconomy",
      "outputs": [
        {
          "internalType": "contract PointEconomyContract",
          "name": "",
          "type": "address"
        }
      ],
      "stateMutability": "view",
      "type": "function"
    },
    {
      "inputs": [
        {
          "internalType": "address",
          "name": "",
          "type": "address"
        }
      ],
      "name": "qualityFeedbackCount",
      "outputs": [
        {
          "internalType": "uint256",
          "name": "",
          "type": "uint256"
        }
      ],
      "stateMutability": "view",
      "type": "function"
    },
    {
      "inputs": [
        {
          "internalType": "address",
          "name": "user",
          "type": "address"
        },
        {
          "internalType": "bool",
          "name": "isQuality",
          "type": "bool"
        }
      ],
      "name": "recordFeedback",
      "outputs": [],
      "stateMutability": "nonpayable",
      "type": "function"
    },
    {
      "inputs": [
        {
          "internalType": "bytes32",
          "name": "role",
          "type": "bytes32"
        },
        {
          "internalType": "address",
          "name": "callerConfirmation",
          "type": "address"
        }
      ],
      "name": "renounceRole",
      "outputs": [],
      "stateMutability": "nonpayable",
      "type": "function"
    },
    {
      "inputs": [
        {
          "internalType": "bytes32",
          "name": "role",
          "type": "bytes32"
        },
        {
          "internalType": "address",
          "name": "account",
          "type": "address"
        }
      ],
      "name": "revokeRole",
      "outputs": [],
      "stateMutability": "nonpayable",
      "type": "function"
    },
    {
      "inputs": [],
      "name": "studentRegistry",
      "outputs": [
        {
          "internalType": "contract StudentRegistryContract",
          "name": "",
          "type": "address"
        }
      ],
      "stateMutability": "view",
      "type": "function"
    },
    {
      "inputs": [
        {
          "internalType": "bytes4",
          "name": "interfaceId",
          "type": "bytes4"
        }
      ],
      "name": "supportsInterface",
      "outputs": [
        {
          "internalType": "bool",
          "name": "",
          "type": "bool"
        }
      ],
      "stateMutability": "view",
      "type": "function"
    },
    {
      "inputs": [],
      "name": "totalBadgesEarned",
      "outputs": [
        {
          "internalType": "uint256",
          "name": "",
          "type": "uint256"
        }
      ],
      "stateMutability": "view",
      "type": "function"
    },
    {
      "inputs": [
        {
          "internalType": "address",
          "name": "user",
          "type": "address"
        },
        {
          "internalType": "uint256",
          "name": "consecutiveDays",
          "type": "uint256"
        }
      ],
      "name": "updateConsecutiveDays",
      "outputs": [],
      "stateMutability": "nonpayable",
      "type": "function"
    },
    {
      "inputs": [
        {
          "internalType": "address",
          "name": "",
          "type": "address"
        },
        {
          "internalType": "uint256",
          "name": "",
          "type": "uint256"
        }
      ],
      "name": "userAchievements",
      "outputs": [
        {
          "internalType": "address",
          "name": "user",
          "type": "address"
        },
        {
          "internalType": "enum GamificationContract.BadgeType",
          "name": "badgeType",
          "type": "uint8"
        },
        {
          "internalType": "enum GamificationContract.AchievementTier",
          "name": "tier",
          "type": "uint8"
        },
        {
          "internalType": "uint256",
          "name": "earnedAt",
          "type": "uint256"
        },
        {
          "internalType": "uint256",
          "name": "pointsAwarded",
          "type": "uint256"
        }
      ],
      "stateMutability": "view",
      "type": "function"
    },
    {
      "inputs": [
        {
          "internalType": "address",
          "name": "",
          "type": "address"
        }
      ],
      "name": "userBadgeCount",
      "outputs": [
        {
          "internalType": "uint256",
          "name": "",
          "type": "uint256"
        }
      ],
      "stateMutability": "view",
      "type": "function"
    },
    {
      "inputs": [
        {
          "internalType": "address",
          "name": "",
          "type": "address"
        },
        {
          "internalType": "enum GamificationContract.BadgeType",
          "name": "",
          "type": "uint8"
        }
      ],
      "name": "userBadges",
      "outputs": [
        {
          "internalType": "bool",
          "name": "",
          "type": "bool"
        }
      ],
      "stateMutability": "view",
      "type": "function"
    },
    {
      "inputs": [
        {
          "internalType": "address",
          "name": "",
          "type": "address"
        },
        {
          "internalType": "uint256",
          "name": "",
          "type": "uint256"
        }
      ],
      "name": "userMilestones",
      "outputs": [
        {
          "internalType": "bool",
          "name": "",
          "type": "bool"
        }
      ],
      "stateMutability": "view",
      "type": "function"
    }
  ],
  "bytecode": "0x608034620022ef57601f6200429e38819003918201601f19168301916001600160401b038311848410176200133d578084926040948552833981010312620022ef5780516001600160a01b039182821691829003620022ef5760200151918216809203620022ef57600180558015620022aa578115620022655760018060a01b03199081600254161760025560035416176003556200009e3362002334565b50620000aa33620023b4565b50620000b63362002456565b50620000c1620022f4565b60008152620000cf62002314565b90600b82526a466972737420537465707360a81b602083015260208101918252620000f962002314565b601a81527f5375626d697420796f757220666972737420666565646261636b000000000000602082015260408201526032606082015260016080820152600160a08201526000805260046020526040600020918151600881101562001c0f5760ff801985541691161783555191825160018060401b0381116200133d576001820154600181811c911680156200225a575b60208210146200131c57601f81116200220e575b506020601f82116001146200219b57819293946000926200218f575b50508160011b916000199060031b1c19161760018201555b60408201518051906001600160401b0382116200133d576002830154600181811c9116801562002184575b60208210146200131c57601f811162002138575b50602090601f8311600114620020d557938260059360a0936200027a9760009262001246575b50508160011b916000199060031b1c19161760028501555b60608101516003850155608081015160048501550151151591019060ff801983541691151516179055565b62000284620022f4565b600181526200029262002314565b90600f82526e2332b2b23130b1b59026b0b9ba32b960891b602083015260208101918252620002c062002314565b601381527f5375626d697420353020666565646261636b7300000000000000000000000000602082015260408201526101f4606082015260326080820152600160a0820152600160005260046020526040600020918151600881101562001c0f5760ff801985541691161783555191825160018060401b0381116200133d576001820154600181811c91168015620020ca575b60208210146200131c57601f81116200207e575b506020601f82116001146200200b578192939460009262001fff575b50508160011b916000199060031b1c19161760018201555b60408201518051906001600160401b0382116200133d576002830154600181811c9116801562001ff4575b60208210146200131c57601f811162001fa8575b50602090601f831160011462001f4557938260059360a0936200044197600092620012465750508160011b916000199060031b1c191617600285015560608101516003850155608081015160048501550151151591019060ff801983541691151516179055565b6200044b620022f4565b600281526200045962002314565b90601382527f5175616c69747920436f6e7472696275746f72000000000000000000000000006020830152602081019182526200049562002314565b602081527f5375626d697420313020686967682d7175616c69747920666565646261636b736020820152604082015261012c6060820152600a6080820152600160a0820152600260005260046020526040600020918151600881101562001c0f5760ff801985541691161783555191825160018060401b0381116200133d576001820154600181811c9116801562001f3a575b60208210146200131c57601f811162001eee575b506020601f821160011462001e7b578192939460009262001e6f575b50508160011b916000199060031b1c19161760018201555b60408201518051906001600160401b0382116200133d576002830154600181811c9116801562001e64575b60208210146200131c57601f811162001e18575b50602090601f831160011462001db557938260059360a0936200061697600092620012465750508160011b916000199060031b1c191617600285015560608101516003850155608081015160048501550151151591019060ff801983541691151516179055565b62000620620022f4565b600381526200062e62002314565b90601482527f436f6e73697374656e6379204368616d70696f6e0000000000000000000000006020830152602081019182526200066a62002314565b601e81527f41637469766520666f7220333020636f6e736563757469766520646179730000602082015260408201526101906060820152601e6080820152600160a0820152600360005260046020526040600020918151600881101562001c0f5760ff801985541691161783555191825160018060401b0381116200133d576001820154600181811c9116801562001daa575b60208210146200131c57601f811162001d5e575b506020601f821160011462001ceb578192939460009262001cdf575b50508160011b916000199060031b1c19161760018201555b60408201518051906001600160401b0382116200133d576002830154600181811c9116801562001cd4575b60208210146200131c57601f811162001c88575b50602090601f831160011462001c2557938260059360a093620007eb97600092620012465750508160011b916000199060031b1c191617600285015560608101516003850155608081015160048501550151151591019060ff801983541691151516179055565b620007f5620022f4565b600481526200080362002314565b90601082526f21b7b6b6bab734ba3c902432b63832b960811b6020830152602081019182526200083262002314565b601d81527f48656c7020766572696679203230207065657220666565646261636b730000006020820152604082015260fa606082015260146080820152600160a0820152600460005260046020526040600020918151600881101562001c0f5760ff801985541691161783555191825160018060401b0381116200133d576001820154600181811c9116801562001c04575b60208210146200131c57601f811162001bb8575b506020601f821160011462001b45578192939460009262001b39575b50508160011b916000199060031b1c19161760018201555b60408201518051906001600160401b0382116200133d576002830154600181811c9116801562001b2e575b60208210146200131c57601f811162001ae2575b50602090601f831160011462001a7f57938260059360a093620009b297600092620012465750508160011b916000199060031b1c191617600285015560608101516003850155608081015160048501550151151591019060ff801983541691151516179055565b620009bc62002314565b60068152654e6f7669636560d01b6020820152620009d962002314565b601081526f4561726e203130303020706f696e747360801b6020820152600e5460001981146200142957600191828201600e5562000a16620022f4565b938383018552602085015260408401526103e86060840152606460808401528160a084015201600052600860205260406000209080518255602081015191825160018060401b0381116200133d576001820154600181811c9116801562001a74575b60208210146200131c57601f811162001a28575b506020601f8211600114620019b55781929394600092620019a9575b50508160011b916000199060031b1c19161760018201555b60408201518051906001600160401b0382116200133d576002830154600181811c911680156200199e575b60208210146200131c57601f811162001952575b50602090601f8311600114620018ef57938260059360a09362000b6697600092620012465750508160011b916000199060031b1c191617600285015560608101516003850155608081015160048501550151151591019060ff801983541691151516179055565b62000b7062002314565b600b81526a21b7b73a3934b13aba37b960a91b602082015262000b9262002314565b601081526f4561726e203530303020706f696e747360801b6020820152600e5460001981146200142957600191828201600e5562000bcf620022f4565b9383830185526020850152604084015261138860608401526101f460808401528160a084015201600052600860205260406000209080518255602081015191825160018060401b0381116200133d576001820154600181811c91168015620018e4575b60208210146200131c57601f811162001898575b506020601f821160011462001825578192939460009262001819575b50508160011b916000199060031b1c19161760018201555b60408201518051906001600160401b0382116200133d576002830154600181811c911680156200180e575b60208210146200131c57601f8111620017c2575b50602090601f83116001146200175f57938260059360a09362000d2097600092620012465750508160011b916000199060031b1c191617600285015560608101516003850155608081015160048501550151151591019060ff801983541691151516179055565b62000d2a62002314565b6006815265115e1c195c9d60d21b602082015262000d4762002314565b60118152704561726e20313030303020706f696e747360781b6020820152600e546000198114620014295760010180600e5562000d83620022f4565b9181835260208301938452604083015261271060608301526103e86080830152600160a08301526000526008602052604060002091815183555191825160018060401b0381116200133d576001820154600181811c9116801562001754575b60208210146200131c57601f811162001708575b506020601f821160011462001695578192939460009262001689575b50508160011b916000199060031b1c19161760018201555b60408201518051906001600160401b0382116200133d576002830154600181811c911680156200167e575b60208210146200131c57601f811162001632575b50602090601f8311600114620015cf57938260059360a09362000ed097600092620012465750508160011b916000199060031b1c191617600285015560608101516003850155608081015160048501550151151591019060ff801983541691151516179055565b62000eda62002314565b600681526526b0b9ba32b960d11b602082015262000ef762002314565b60118152704561726e20323530303020706f696e747360781b6020820152600e546000198114620014295760010180600e5562000f33620022f4565b918183526020830193845260408301526161a860608301526109c46080830152600160a08301526000526008602052604060002091815183555191825160018060401b0381116200133d576001820154600181811c91168015620015c4575b60208210146200131c57601f811162001578575b506020601f8211600114620015055781929394600092620014f9575b50508160011b916000199060031b1c19161760018201555b60408201518051906001600160401b0382116200133d576002830154600181811c91168015620014ee575b60208210146200131c57601f8111620014a2575b50602090601f83116001146200143f57938260059360a0936200108097600092620012465750508160011b916000199060031b1c191617600285015560608101516003850155608081015160048501550151151591019060ff801983541691151516179055565b6200108a62002314565b6006815265131959d95b9960d21b6020820152620010a762002314565b60118152704561726e20353030303020706f696e747360781b6020820152600e5460001981146200142957600191828201600e55620010e5620022f4565b9383830185526020850152604084015261c350606084015261138860808401528160a084015201600052600860205260406000209080518255602081015191825160018060401b0381116200133d576001820154600181811c911680156200141e575b60208210146200131c57601f8111620013d2575b506020601f82116001146200135f578192939460009262001353575b50508160011b916000199060031b1c19161760018201555b60408201518051906001600160401b0382116200133d576002830154600181811c9116801562001332575b60208210146200131c57601f8111620012d0575b50602090601f83116001146200125257938260059360a0936200123697600092620012465750508160011b916000199060031b1c191617600285015560608101516003850155608081015160048501550151151591019060ff801983541691151516179055565b604051611d8a9081620024f48239f35b01519050388062000237565b906002840160005260206000209160005b601f1985168110620012b757508360a093620012369793600193600597601f198116106200129d575b505050811b0160028501556200024f565b015160001960f88460031b161c191690553880806200128c565b9192602060018192868501518155019401920162001263565b600284016000526020600020601f840160051c81016020851062001314575b601f830160051c8201811062001307575050620011cf565b60008155600101620012ef565b5080620012ef565b634e487b7160e01b600052602260045260246000fd5b90607f1690620011bb565b634e487b7160e01b600052604160045260246000fd5b01519050388062001178565b6001830160005260206000209060005b601f1984168110620013b95750600193949583601f198116106200139f575b505050811b01600182015562001190565b015160001960f88460031b161c191690553880806200138e565b9091602060018192858a0151815501930191016200136f565b600183016000526020600020601f830160051c81016020841062001416575b601f830160051c82018110620014095750506200115c565b60008155600101620013f1565b5080620013f1565b90607f169062001148565b634e487b7160e01b600052601160045260246000fd5b906002840160005260206000209160005b601f19851681106200148957508360a093620010809793600193600597601f198116106200129d57505050811b0160028501556200024f565b9192602060018192868501518155019401920162001450565b600284016000526020600020601f840160051c810160208510620014e6575b601f830160051c82018110620014d957505062001019565b60008155600101620014c1565b5080620014c1565b90607f169062001005565b01519050388062000fc2565b6001830160005260206000209060005b601f19841681106200155f5750600193949583601f1981161062001545575b505050811b01600182015562000fda565b015160001960f88460031b161c1916905538808062001534565b9091602060018192858a01518155019301910162001515565b600183016000526020600020601f830160051c810160208410620015bc575b601f830160051c82018110620015af57505062000fa6565b6000815560010162001597565b508062001597565b90607f169062000f92565b906002840160005260206000209160005b601f19851681106200161957508360a09362000ed09793600193600597601f198116106200129d57505050811b0160028501556200024f565b91926020600181928685015181550194019201620015e0565b600284016000526020600020601f840160051c81016020851062001676575b601f830160051c820181106200166957505062000e69565b6000815560010162001651565b508062001651565b90607f169062000e55565b01519050388062000e12565b6001830160005260206000209060005b601f1984168110620016ef5750600193949583601f19811610620016d5575b505050811b01600182015562000e2a565b015160001960f88460031b161c19169055388080620016c4565b9091602060018192858a015181550193019101620016a5565b600183016000526020600020601f830160051c8101602084106200174c575b601f830160051c820181106200173f57505062000df6565b6000815560010162001727565b508062001727565b90607f169062000de2565b906002840160005260206000209160005b601f1985168110620017a957508360a09362000d209793600193600597601f198116106200129d57505050811b0160028501556200024f565b9192602060018192868501518155019401920162001770565b600284016000526020600020601f840160051c81016020851062001806575b601f830160051c82018110620017f957505062000cb9565b60008155600101620017e1565b5080620017e1565b90607f169062000ca5565b01519050388062000c62565b6001830160005260206000209060005b601f19841681106200187f5750600193949583601f1981161062001865575b505050811b01600182015562000c7a565b015160001960f88460031b161c1916905538808062001854565b9091602060018192858a01518155019301910162001835565b600183016000526020600020601f830160051c810160208410620018dc575b601f830160051c82018110620018cf57505062000c46565b60008155600101620018b7565b5080620018b7565b90607f169062000c32565b906002840160005260206000209160005b601f19851681106200193957508360a09362000b669793600193600597601f198116106200129d57505050811b0160028501556200024f565b9192602060018192868501518155019401920162001900565b600284016000526020600020601f840160051c81016020851062001996575b601f830160051c820181106200198957505062000aff565b6000815560010162001971565b508062001971565b90607f169062000aeb565b01519050388062000aa8565b6001830160005260206000209060005b601f198416811062001a0f5750600193949583601f19811610620019f5575b505050811b01600182015562000ac0565b015160001960f88460031b161c19169055388080620019e4565b9091602060018192858a015181550193019101620019c5565b600183016000526020600020601f830160051c81016020841062001a6c575b601f830160051c8201811062001a5f57505062000a8c565b6000815560010162001a47565b508062001a47565b90607f169062000a78565b906002840160005260206000209160005b601f198516811062001ac957508360a093620009b29793600193600597601f198116106200129d57505050811b0160028501556200024f565b9192602060018192868501518155019401920162001a90565b600284016000526020600020601f840160051c81016020851062001b26575b601f830160051c8201811062001b195750506200094b565b6000815560010162001b01565b508062001b01565b90607f169062000937565b015190503880620008f4565b6001830160005260206000209060005b601f198416811062001b9f5750600193949583601f1981161062001b85575b505050811b0160018201556200090c565b015160001960f88460031b161c1916905538808062001b74565b9091602060018192858a01518155019301910162001b55565b600183016000526020600020601f830160051c81016020841062001bfc575b601f830160051c8201811062001bef575050620008d8565b6000815560010162001bd7565b508062001bd7565b90607f1690620008c4565b634e487b7160e01b600052602160045260246000fd5b906002840160005260206000209160005b601f198516811062001c6f57508360a093620007eb9793600193600597601f198116106200129d57505050811b0160028501556200024f565b9192602060018192868501518155019401920162001c36565b600284016000526020600020601f840160051c81016020851062001ccc575b601f830160051c8201811062001cbf57505062000784565b6000815560010162001ca7565b508062001ca7565b90607f169062000770565b0151905038806200072d565b6001830160005260206000209060005b601f198416811062001d455750600193949583601f1981161062001d2b575b505050811b01600182015562000745565b015160001960f88460031b161c1916905538808062001d1a565b9091602060018192858a01518155019301910162001cfb565b600183016000526020600020601f830160051c81016020841062001da2575b601f830160051c8201811062001d9557505062000711565b6000815560010162001d7d565b508062001d7d565b90607f1690620006fd565b906002840160005260206000209160005b601f198516811062001dff57508360a093620006169793600193600597601f198116106200129d57505050811b0160028501556200024f565b9192602060018192868501518155019401920162001dc6565b600284016000526020600020601f840160051c81016020851062001e5c575b601f830160051c8201811062001e4f575050620005af565b6000815560010162001e37565b508062001e37565b90607f16906200059b565b01519050388062000558565b6001830160005260206000209060005b601f198416811062001ed55750600193949583601f1981161062001ebb575b505050811b01600182015562000570565b015160001960f88460031b161c1916905538808062001eaa565b9091602060018192858a01518155019301910162001e8b565b600183016000526020600020601f830160051c81016020841062001f32575b601f830160051c8201811062001f255750506200053c565b6000815560010162001f0d565b508062001f0d565b90607f169062000528565b906002840160005260206000209160005b601f198516811062001f8f57508360a093620004419793600193600597601f198116106200129d57505050811b0160028501556200024f565b9192602060018192868501518155019401920162001f56565b600284016000526020600020601f840160051c81016020851062001fec575b601f830160051c8201811062001fdf575050620003da565b6000815560010162001fc7565b508062001fc7565b90607f1690620003c6565b01519050388062000383565b6001830160005260206000209060005b601f1984168110620020655750600193949583601f198116106200204b575b505050811b0160018201556200039b565b015160001960f88460031b161c191690553880806200203a565b9091602060018192858a0151815501930191016200201b565b600183016000526020600020601f830160051c810160208410620020c2575b601f830160051c82018110620020b557505062000367565b600081556001016200209d565b50806200209d565b90607f169062000353565b906002840160005260206000209160005b601f19851681106200211f57508360a0936200027a9793600193600597601f198116106200129d57505050811b0160028501556200024f565b91926020600181928685015181550194019201620020e6565b600284016000526020600020601f840160051c8101602085106200217c575b601f830160051c820181106200216f57505062000211565b6000815560010162002157565b508062002157565b90607f1690620001fd565b015190503880620001ba565b6001830160005260206000209060005b601f1984168110620021f55750600193949583601f19811610620021db575b505050811b016001820155620001d2565b015160001960f88460031b161c19169055388080620021ca565b9091602060018192858a015181550193019101620021ab565b600183016000526020600020601f830160051c81016020841062002252575b601f830160051c82018110620022455750506200019e565b600081556001016200222d565b50806200222d565b90607f16906200018a565b60405162461bcd60e51b815260206004820152601560248201527f496e76616c696420706f696e742065636f6e6f6d7900000000000000000000006044820152606490fd5b60405162461bcd60e51b815260206004820152601860248201527f496e76616c69642073747564656e7420726567697374727900000000000000006044820152606490fd5b600080fd5b6040519060c082016001600160401b038111838210176200133d57604052565b60408051919082016001600160401b038111838210176200133d57604052565b6001600160a01b031660008181527fad3228b676f7d3cd4284a5443f17f1962b36e491b30a40b2405849e597ba5fb5602052604081205490919060ff16620023b057818052816020526040822081835260205260408220600160ff1982541617905533916000805160206200427e8339815191528180a4600190565b5090565b6001600160a01b031660008181527f7d7ffb7a348e1c6a02869081a26547b49160dd3df72d1d75a570eb9b698292ec60205260408120549091907fa49807205ce4d355092ef5a8a18f56e8913cf4a201fbe287825b095693c217759060ff166200245157808352826020526040832082845260205260408320600160ff198254161790556000805160206200427e833981519152339380a4600190565b505090565b6001600160a01b031660008181527ff11d5cd6172e4d486247e8873a157a5cbd86d37171bf6cd250fc0a75f26713f960205260408120549091907fef17b1f3c5a412f9c8e887e3abd186802afec7dc657fd3b7002bf87b128dd0b19060ff166200245157808352826020526040832082845260205260408320600160ff198254161790556000805160206200427e833981519152339380a460019056fe608060408181526004918236101561001657600080fd5b600092833560e01c9182630112f749146117c55750816301ffc9a71461176f57816324548c60146116df578163248a9ca3146116b55781632f2ff15d1461168b57816336568abe146116455781633af0c688146113a65781634e43603a146115e75781635bbff7ca146115425781635df79ea91461150a57816374643b68146114e157816375b238fc146114a65781637f1ca8dd14611423578163803ae518146113e25781638b93bf18146113a657816391d148541461136057816392c16fb514611337578163a217fddf1461131c578163a34b46fe14611102578163a4da426714610e05578163b4d2fef014610de6578163bc7fa09814610dae578163c7bdcce514610459578163d547741f14610416578163da1b3fe2146103de578163da976710146103a6578163e89e4ed614610316578163f09153c4146101b857508063f6baaec71461019a5763ff6fcdbd1461016f57600080fd5b3461019657816003193601126101965760209051600080516020611d358339815191528152f35b5080fd5b5034610196578160031936011261019657602090600e549051908152f35b905082346103135760209182600319360112610196576001600160a01b03929190836101e2611809565b16825260068352848220928354916101f983611ce8565b9261020688519485611931565b8084528284018096865283862086915b83831061029857505050505085519481860192828752518093528686019493905b8382106102445786860387f35b90919293948360a06001928851858151168252610267848201518584019061186c565b6102778c8201518d84019061188f565b60608181015190830152608090810151908201520196019493920190610237565b8a97959697516102a7816118e3565b82548b8116825260ff906102c2828260a01c168b8501611cdc565b60a81c16600581101561030057600192828a928f60039501528486015460608201526002860154608082015281520192019201919096959496610216565b634e487b7160e01b885260218752602488fd5b80fd5b828434610313576020366003190112610313578190833581526008602052209182549161034560018501611953565b9361039061035560028301611953565b9260ff600560038501549685015494015416936103838251988998895260c060208a015260c0890190611a24565b9187830390880152611a24565b9260608501526080840152151560a08301520390f35b5050346101965760203660031901126101965760209181906001600160a01b036103ce611809565b168152600b845220549051908152f35b5050346101965760203660031901126101965760209181906001600160a01b03610406611809565b168152600a845220549051908152f35b91905034610455578060031936011261045557610451913561044c600161043b611824565b938387528660205286200154611b03565b611c42565b5080f35b8280fd5b91905034610455578060031936011261045557610474611809565b9060248035938415158503610daa5761048b611a9b565b60018060a01b0391829160029683885416968651958691631eb30aeb60e01b835216978884830152818560209889935afa908115610da0578a91610d66575b5015610d2e57868952600a85528589206104e48154611cb7565b9055610d13575b858852600a845260019687868a20541480610cf9575b610b35575b868952600a85526032868a2054101580610b1b575b610958575b868952600b8552600a868a205410158061093e575b6106d3575b846003948554168751948580926317d0944f60e21b82528b878301525afa9283156106c95790889392918a93610693575b50835b610576578980f35b600e54841161068f5761060b848a958c5260088852808a8d8b8a8c60a08c6005858720946105b48751936105a985611915565b875485528701611953565b858401526105c38d8701611953565b8784015285015491606081019283528d860154956080820196875260ff9283910154161515938491015282610672575b5081610666575b50610611575b505050505050611cb7565b9361056e565b838391867f8ab103bf8b651015742cb95eee57481e58e7d8cf13a9e85f4d609605f2c325119652600981528282209088835252208b60ff19825416179055518151908152428d820152a3808a8d8b388c610600565b9050518b1015386105fa565b8787526009845285872089885284528587205416159150386105f3565b8980f35b935091508483813d81116106c2575b6106ac8183611931565b810103126106be57879251913861056b565b8880fd5b503d6106a2565b86513d8b823e3d90fd5b80895281855285892086516106e781611915565b6106f560ff83541682611cdc565b6107008a8301611953565b8782015261070f838301611953565b8882015260ff600560038401549360608401948552868101546080850152015416159060a0821591015261090957878a5260058652868a20828b52865260ff878b2054166108d057878a5260058652868a20828b528652868a208960ff19825416179055878a5260078652868a206107878154611cb7565b9055610794600d54611cb7565b600d55878a5260068652868a2081518851916107af836118e3565b8a83528883018581528a84018d8152606085019242845260808601948552805490600160401b8210156108bc578f820181556107eb919061183a565b9590956108aa575185546001600160a01b03198116918c169182178755925160088110156108965760ff60a01b60a09190911b166001600160a81b0319841682178117875591516005811015610896576001600160b01b0319909316171760a89190911b60ff60a81b1617835551828c015551908301555186518281528681018a9052808801919091524260608201528790600080516020611d1583398151915290608090a261053a565b5050634e487b7160e01b8f5260218852888ffd5b50634e487b7160e01b8f528e8852888ffd5b5050634e487b7160e01b8f5260418852888ffd5b865162461bcd60e51b81528084018790526014818601527310985919d948185b1c9958591e4819585c9b995960621b6044820152606490fd5b865162461bcd60e51b81528084018790526010818601526f4261646765206e6f742061637469766560801b6044820152606490fd5b5060058552858920818a52855260ff868a20541615610535565b878952818552858920865161096c81611915565b61097a60ff83541682611cdc565b6109858a8301611953565b87820152610994838301611953565b8882015260ff600560038401549360608401948552868101546080850152015416159060a0821591015261090957878a5260058652868a20898b52865260ff878b2054166108d057878a5260058652868a20898b528652868a208960ff19825416179055878a5260078652868a20610a0c8154611cb7565b9055610a19600d54611cb7565b600d55878a5260068652868a208151885191610a34836118e3565b8a83528883018c81528a8401868152606085019242845260808601948552805490600160401b8210156108bc578f82018155610a70919061183a565b9590956108aa575185546001600160a01b03198116918c169182178755925160088110156108965760ff60a01b60a09190911b166001600160a81b0319841682178117875591516005811015610896576001600160b01b0319909316171760a89190911b60ff60a81b1617835551828c01555190830155518651898152868101839052808801919091524260608201528790600080516020611d1583398151915290608090a2610520565b5060058552858920888a52855260ff868a2054161561051b565b8880528185528589208651610b4981611915565b610b5760ff83541682611cdc565b610b628a8301611953565b87820152610b71838301611953565b8882015260ff600560038401549360608401948552868101546080850152015416159060a0821591015261090957878a5260058652868a208a8052865260ff878b2054166108d057878a5260058652868a208a80528652868a208960ff19825416179055878a5260078652868a20610be98154611cb7565b9055610bf6600d54611cb7565b600d55878a5260068652868a208151885191610c11836118e3565b8a83528883018d81528d8b8501908152606085019242845260808601948552805490600160401b8210156108bc578f82018155610c4e919061183a565b9590956108aa575185546001600160a01b03198116918c169182178755925160088110156108965760ff60a01b60a09190911b166001600160a81b0319841682178117875591516005811015610896576001600160b01b0319909316171760a89190911b60ff60a81b1617835551828c015551908301555186518a81528681018b9052808801919091524260608201528790600080516020611d1583398151915290608090a2610506565b5060058552858920898052855260ff868a20541615610501565b858852600b8452848820610d278154611cb7565b90556104eb565b5060146064928587519362461bcd60e51b855284015282015273139bdd081d995c9a599a5959081cdd1d59195b9d60621b6044820152fd5b90508581813d8311610d99575b610d7d8183611931565b81010312610d9557518015158103610d9557386104ca565b8980fd5b503d610d73565b87513d8c823e3d90fd5b8580fd5b5050346101965760203660031901126101965760209181906001600160a01b03610dd6611809565b168152600c845220549051908152f35b505034610196578160031936011261019657602090600d549051908152f35b905034610455578160031936011261045557610e1f611809565b90602492833591610e2e611a9b565b60018060a01b0380941694858752601e602094600c865280858a20551015806110e7575b610e5a578680f35b600394858852828552838820928451610e7281611915565b610e8060ff86541682611cdc565b610e8c60018601611953565b87820152610e9c60028601611953565b8682015260ff6005898701549660608401978852848101546080850152015416159060a082159101526110b25787895260058652848920878a52865260ff858a2054166110795787895260058652848920878a528652848920600160ff1982541617905587895260078652848920610f148154611cb7565b9055610f21600d54611cb7565b600d558789526006865284892090845192865194610f3e866118e3565b8a8652888601928a84528887019260028452606088019542875260808901978852805490600160401b8210156110665790610f7e9160018201815561183a565b98909861105557511691875494836bffffffffffffffffffffffff60a01b87161789555160088110156110435760ff60a01b60a09190911b166001600160a81b0319861684178117895593519160058310156110325750506001600160b01b0319909316171760a89190911b60ff60a81b16178355516001830155516002918201559051825194855292840152820152426060820152600080516020611d1583398151915290608090a23880808080808680f35b634e487b7160e01b8f52602190528dfd5b50634e487b7160e01b8e52602182528dfd5b634e487b7160e01b8f528e8352838ffd5b50634e487b7160e01b8f5260418352838ffd5b845162461bcd60e51b81529081018690526014818401527310985919d948185b1c9958591e4819585c9b995960621b6044820152606490fd5b845162461bcd60e51b81529081018690526010818401526f4261646765206e6f742061637469766560801b6044820152606490fd5b506005845282872060038852845260ff838820541615610e52565b83915034610196576020908160031936011261045557600f5481358181111561131257509192905b61113383611ce8565b9261114086519485611931565b808452601f1961114f82611ce8565b01835b8181106112d9575050600380546001600160a01b039390841691855b8481106111e057505050505084519380850191818652845180935281878701950193905b83821061119f5786860387f35b845180518216875280840151878501528881015189880152606080820151908801526080908101519087015260a09095019493820193600190910190611192565b856111ee829a97989a611a64565b905490841b1c168a516317d0944f60e21b81528185820152602490888183818a5afa9081156112cf578c9161129e575b50828c52600a89528c8c205460078a528d8d205491600186019384871161128d5750908e6112849695949392815195611256876118e3565b86528c86015284015260608301526080820152611273828b611d00565b5261127e818a611d00565b50611cb7565b9795949761116e565b634e487b7160e01b8f52601189528efd5b90508881813d83116112c8575b6112b58183611931565b810103126112c457518d61121e565b8b80fd5b503d6112ab565b8d513d8e823e3d90fd5b958093949688516112e9816118e3565b8881528883820152888a8201528860608201528860808201528282890101520195939295611152565b905091929061112a565b50503461019657816003193601126101965751908152602090f35b50503461019657816003193601126101965760025490516001600160a01b039091168152602090f35b9050346104555781600319360112610455578160209360ff92611381611824565b903582528186528282206001600160a01b039091168252855220549151911615158152f35b5050346101965760ff6113d7602093836113bf3661189c565b6001600160a01b0390911683526005875291206118cb565b541690519015158152f35b905034610455576020366003190112610455573591600f54831015610313575061140d602092611a64565b905491519160018060a01b039160031b1c168152f35b90503461045557602036600319011261045557803560088110156114a257838391611491955282602052209160ff8354169261039061146460018301611953565b9261147160028401611953565b61038360ff600560038701549887015496015416958351998a809a61186c565b60c060208a015260c0890190611a24565b8380fd5b505034610196578160031936011261019657602090517fa49807205ce4d355092ef5a8a18f56e8913cf4a201fbe287825b095693c217758152f35b50503461019657816003193601126101965760035490516001600160a01b039091168152602090f35b5050346101965760203660031901126101965760209181906001600160a01b03611532611809565b1681526007845220549051908152f35b839150346101965760203660031901126101965761155e611809565b907fa49807205ce4d355092ef5a8a18f56e8913cf4a201fbe287825b095693c217758084528360205284842033855260205260ff8585205416156115ca5783610451846115c5600189600080516020611d3583398151915286528560205285200154611b03565b611b29565b6044925084519163e2517d3f60e01b835233908301526024820152fd5b50503461019657602080600319360112610455576080926001600160a01b0361160e611809565b168152600a82528281205492600b83528082205460078452818084205493600c865220549382519586528501528301526060820152f35b83833461019657806003193601126101965761165f611824565b90336001600160a01b0383160361167c5750610451919235611c42565b5163334bd91960e11b81528390fd5b9190503461045557806003193601126104555761045191356116b0600161043b611824565b611bc9565b90503461045557602036600319011261045557816020936001923581528085522001549051908152f35b5050346101965780600319360112610196576116f9611809565b6001600160a01b039081168352600660205281832080546024359492939290851015610313575060a09361172c9161183a565b50611763815460ff6002600185015494015494805196831687526117576020880183858b1c1661186c565b86019160a81c1661188f565b60608301526080820152f35b90503461045557602036600319011261045557359063ffffffff60e01b82168092036104555760209250637965db0b60e01b82149182156117b4575b50519015158152f35b6301ffc9a760e01b149150386117ab565b8490843461045557806003193601126104555760209260ff91906001600160a01b036117ef611809565b168152600985528181206024358252855220541615158152f35b600435906001600160a01b038216820361181f57565b600080fd5b602435906001600160a01b038216820361181f57565b8054821015611856576000526003602060002091020190600090565b634e487b7160e01b600052603260045260246000fd5b9060088210156118795752565b634e487b7160e01b600052602160045260246000fd5b9060058210156118795752565b604090600319011261181f576004356001600160a01b038116810361181f5790602435600881101561181f5790565b90600881101561187957600052602052604060002090565b60a0810190811067ffffffffffffffff8211176118ff57604052565b634e487b7160e01b600052604160045260246000fd5b60c0810190811067ffffffffffffffff8211176118ff57604052565b90601f8019910116810190811067ffffffffffffffff8211176118ff57604052565b90604051906000835490600182811c90808416968715611a1a575b6020948584108914611a0657879884899798995290816000146119e457506001146119a5575b5050506119a392500383611931565b565b600090815285812095935091905b8183106119cc5750506119a39350820101388080611994565b855488840185015294850194879450918301916119b3565b925050506119a394925060ff191682840152151560051b820101388080611994565b634e487b7160e01b85526022600452602485fd5b91607f169161196e565b919082519283825260005b848110611a50575050826000602080949584010152601f8019910116010190565b602081830181015184830182015201611a2f565b600f5481101561185657600f6000527f8d1108e10bcb7c27dddfc02ed9d693a074039d026cf4ea4240b40f7d581ac8020190600090565b3360009081527ff11d5cd6172e4d486247e8873a157a5cbd86d37171bf6cd250fc0a75f26713f96020526040902054600080516020611d358339815191529060ff1615611ae55750565b6044906040519063e2517d3f60e01b82523360048301526024820152fd5b80600052600060205260406000203360005260205260ff6040600020541615611ae55750565b6001600160a01b031660008181527ff11d5cd6172e4d486247e8873a157a5cbd86d37171bf6cd250fc0a75f26713f96020526040812054909190600080516020611d358339815191529060ff16611bc457808352826020526040832082845260205260408320600160ff198254161790557f2f8788117e7eff1d82e926ec794901d17c78024a50270940304540a733656f0d339380a4600190565b505090565b9060009180835282602052604083209160018060a01b03169182845260205260ff60408420541615600014611bc457808352826020526040832082845260205260408320600160ff198254161790557f2f8788117e7eff1d82e926ec794901d17c78024a50270940304540a733656f0d339380a4600190565b9060009180835282602052604083209160018060a01b03169182845260205260ff604084205416600014611bc45780835282602052604083208284526020526040832060ff1981541690557ff6391f5c32d9c69d2a47ea670b442974b53935d1edc7fd64eb21e047a839171b339380a4600190565b6000198114611cc65760010190565b634e487b7160e01b600052601160045260246000fd5b60088210156118795752565b67ffffffffffffffff81116118ff5760051b60200190565b80518210156118565760209160051b01019056fe5a0aea77dbb19681cf1560693d4b1a5d53bab702cd2a6b7bc0e46c4d3c3b29d4ef17b1f3c5a412f9c8e887e3abd186802afec7dc657fd3b7002bf87b128dd0b1a2646970667358221220a7d6f1946e1336d8f2f8a5a37451c79cf0206cf408cc42d68d5eaebe70a71cfe64736f6c634300081400332f8788117e7eff1d82e926ec794901d17c78024a50270940304540a733656f0d",
  "linkReferences": {},
  "deployedLinkReferences": {}
}