{
  "_format": "hh-sol-artifact-1",
  "contractName": "PrivacyContract",
  "sourceName": "contracts/privacy/PrivacyContract.sol",
  "abi": [
    {
      "inputs": [],
      "stateMutability": "nonpayable",
      "type": "constructor"
    },
    {
      "inputs": [],
      "name": "AccessControlBadConfirmation",
      "type": "error"
    },
    {
      "inputs": [
        {
          "internalType": "address",
          "name": "account",
          "type": "address"
        },
        {
          "internalType": "bytes32",
          "name": "neededRole",
          "type": "bytes32"
        }
      ],
      "name": "AccessControlUnauthorizedAccount",
      "type": "error"
    },
    {
      "inputs": [],
      "name": "ReentrancyGuardReentrantCall",
      "type": "error"
    },
    {
      "anonymous": false,
      "inputs": [
        {
          "indexed": true,
          "internalType": "uint256",
          "name": "contentId",
          "type": "uint256"
        },
        {
          "indexed": false,
          "internalType": "uint256",
          "name": "timestamp",
          "type": "uint256"
        }
      ],
      "name": "ContentAnonymized",
      "type": "event"
    },
    {
      "anonymous": false,
      "inputs": [
        {
          "indexed": true,
          "internalType": "address",
          "name": "accessor",
          "type": "address"
        },
        {
          "indexed": true,
          "internalType": "address",
          "name": "subject",
          "type": "address"
        },
        {
          "indexed": false,
          "internalType": "uint256",
          "name": "timestamp",
          "type": "uint256"
        }
      ],
      "name": "DataAccessLogged",
      "type": "event"
    },
    {
      "anonymous": false,
      "inputs": [
        {
          "indexed": true,
          "internalType": "address",
          "name": "user",
          "type": "address"
        },
        {
          "indexed": false,
          "internalType": "bool",
          "name": "approved",
          "type": "bool"
        },
        {
          "indexed": false,
          "internalType": "uint256",
          "name": "timestamp",
          "type": "uint256"
        }
      ],
      "name": "DeletionProcessed",
      "type": "event"
    },
    {
      "anonymous": false,
      "inputs": [
        {
          "indexed": true,
          "internalType": "address",
          "name": "user",
          "type": "address"
        },
        {
          "indexed": false,
          "internalType": "uint256",
          "name": "timestamp",
          "type": "uint256"
        }
      ],
      "name": "DeletionRequested",
      "type": "event"
    },
    {
      "anonymous": false,
      "inputs": [
        {
          "indexed": true,
          "internalType": "address",
          "name": "user",
          "type": "address"
        },
        {
          "indexed": false,
          "internalType": "bool",
          "name": "isAnonymous",
          "type": "bool"
        },
        {
          "indexed": false,
          "internalType": "uint256",
          "name": "timestamp",
          "type": "uint256"
        }
      ],
      "name": "PrivacySettingsUpdated",
      "type": "event"
    },
    {
      "anonymous": false,
      "inputs": [
        {
          "indexed": true,
          "internalType": "bytes32",
          "name": "proofHash",
          "type": "bytes32"
        },
        {
          "indexed": false,
          "internalType": "bool",
          "name": "valid",
          "type": "bool"
        },
        {
          "indexed": false,
          "internalType": "uint256",
          "name": "timestamp",
          "type": "uint256"
        }
      ],
      "name": "ProofVerified",
      "type": "event"
    },
    {
      "anonymous": false,
      "inputs": [
        {
          "indexed": true,
          "internalType": "bytes32",
          "name": "role",
          "type": "bytes32"
        },
        {
          "indexed": true,
          "internalType": "bytes32",
          "name": "previousAdminRole",
          "type": "bytes32"
        },
        {
          "indexed": true,
          "internalType": "bytes32",
          "name": "newAdminRole",
          "type": "bytes32"
        }
      ],
      "name": "RoleAdminChanged",
      "type": "event"
    },
    {
      "anonymous": false,
      "inputs": [
        {
          "indexed": true,
          "internalType": "bytes32",
          "name": "role",
          "type": "bytes32"
        },
        {
          "indexed": true,
          "internalType": "address",
          "name": "account",
          "type": "address"
        },
        {
          "indexed": true,
          "internalType": "address",
          "name": "sender",
          "type": "address"
        }
      ],
      "name": "RoleGranted",
      "type": "event"
    },
    {
      "anonymous": false,
      "inputs": [
        {
          "indexed": true,
          "internalType": "bytes32",
          "name": "role",
          "type": "bytes32"
        },
        {
          "indexed": true,
          "internalType": "address",
          "name": "account",
          "type": "address"
        },
        {
          "indexed": true,
          "internalType": "address",
          "name": "sender",
          "type": "address"
        }
      ],
      "name": "RoleRevoked",
      "type": "event"
    },
    {
      "inputs": [],
      "name": "ADMIN_ROLE",
      "outputs": [
        {
          "internalType": "bytes32",
          "name": "",
          "type": "bytes32"
        }
      ],
      "stateMutability": "view",
      "type": "function"
    },
    {
      "inputs": [],
      "name": "DEFAULT_ADMIN_ROLE",
      "outputs": [
        {
          "internalType": "bytes32",
          "name": "",
          "type": "bytes32"
        }
      ],
      "stateMutability": "view",
      "type": "function"
    },
    {
      "inputs": [],
      "name": "MODERATOR_ROLE",
      "outputs": [
        {
          "internalType": "bytes32",
          "name": "",
          "type": "bytes32"
        }
      ],
      "stateMutability": "view",
      "type": "function"
    },
    {
      "inputs": [
        {
          "internalType": "uint256",
          "name": "contentId",
          "type": "uint256"
        }
      ],
      "name": "anonymizeContent",
      "outputs": [],
      "stateMutability": "nonpayable",
      "type": "function"
    },
    {
      "inputs": [
        {
          "internalType": "uint256",
          "name": "",
          "type": "uint256"
        }
      ],
      "name": "anonymizedContent",
      "outputs": [
        {
          "internalType": "bool",
          "name": "",
          "type": "bool"
        }
      ],
      "stateMutability": "view",
      "type": "function"
    },
    {
      "inputs": [
        {
          "internalType": "address",
          "name": "",
          "type": "address"
        }
      ],
      "name": "deletionRequests",
      "outputs": [
        {
          "internalType": "address",
          "name": "requester",
          "type": "address"
        },
        {
          "internalType": "uint256",
          "name": "requestTime",
          "type": "uint256"
        },
        {
          "internalType": "bool",
          "name": "processed",
          "type": "bool"
        },
        {
          "internalType": "bool",
          "name": "approved",
          "type": "bool"
        },
        {
          "internalType": "string",
          "name": "reason",
          "type": "string"
        }
      ],
      "stateMutability": "view",
      "type": "function"
    },
    {
      "inputs": [
        {
          "internalType": "address",
          "name": "user",
          "type": "address"
        }
      ],
      "name": "getPrivacySettings",
      "outputs": [
        {
          "components": [
            {
              "internalType": "bool",
              "name": "isAnonymous",
              "type": "bool"
            },
            {
              "internalType": "bool",
              "name": "allowDataCollection",
              "type": "bool"
            },
            {
              "internalType": "uint256",
              "name": "dataRetentionPeriod",
              "type": "uint256"
            },
            {
              "internalType": "uint256",
              "name": "lastUpdated",
              "type": "uint256"
            }
          ],
          "internalType": "struct PrivacyContract.PrivacySettings",
          "name": "",
          "type": "tuple"
        }
      ],
      "stateMutability": "view",
      "type": "function"
    },
    {
      "inputs": [
        {
          "internalType": "bytes32",
          "name": "role",
          "type": "bytes32"
        }
      ],
      "name": "getRoleAdmin",
      "outputs": [
        {
          "internalType": "bytes32",
          "name": "",
          "type": "bytes32"
        }
      ],
      "stateMutability": "view",
      "type": "function"
    },
    {
      "inputs": [
        {
          "internalType": "address",
          "name": "moderator",
          "type": "address"
        }
      ],
      "name": "grantModeratorRole",
      "outputs": [],
      "stateMutability": "nonpayable",
      "type": "function"
    },
    {
      "inputs": [
        {
          "internalType": "bytes32",
          "name": "role",
          "type": "bytes32"
        },
        {
          "internalType": "address",
          "name": "account",
          "type": "address"
        }
      ],
      "name": "grantRole",
      "outputs": [],
      "stateMutability": "nonpayable",
      "type": "function"
    },
    {
      "inputs": [
        {
          "internalType": "bytes32",
          "name": "role",
          "type": "bytes32"
        },
        {
          "internalType": "address",
          "name": "account",
          "type": "address"
        }
      ],
      "name": "hasRole",
      "outputs": [
        {
          "internalType": "bool",
          "name": "",
          "type": "bool"
        }
      ],
      "stateMutability": "view",
      "type": "function"
    },
    {
      "inputs": [
        {
          "internalType": "address",
          "name": "user",
          "type": "address"
        }
      ],
      "name": "isAnonymousUser",
      "outputs": [
        {
          "internalType": "bool",
          "name": "",
          "type": "bool"
        }
      ],
      "stateMutability": "view",
      "type": "function"
    },
    {
      "inputs": [
        {
          "internalType": "uint256",
          "name": "contentId",
          "type": "uint256"
        }
      ],
      "name": "isContentAnonymized",
      "outputs": [
        {
          "internalType": "bool",
          "name": "",
          "type": "bool"
        }
      ],
      "stateMutability": "view",
      "type": "function"
    },
    {
      "inputs": [
        {
          "internalType": "address",
          "name": "subject",
          "type": "address"
        }
      ],
      "name": "logDataAccess",
      "outputs": [],
      "stateMutability": "nonpayable",
      "type": "function"
    },
    {
      "inputs": [
        {
          "internalType": "address",
          "name": "user",
          "type": "address"
        },
        {
          "internalType": "bool",
          "name": "approved",
          "type": "bool"
        }
      ],
      "name": "processDeletionRequest",
      "outputs": [],
      "stateMutability": "nonpayable",
      "type": "function"
    },
    {
      "inputs": [
        {
          "internalType": "bytes32",
          "name": "role",
          "type": "bytes32"
        },
        {
          "internalType": "address",
          "name": "callerConfirmation",
          "type": "address"
        }
      ],
      "name": "renounceRole",
      "outputs": [],
      "stateMutability": "nonpayable",
      "type": "function"
    },
    {
      "inputs": [
        {
          "internalType": "string",
          "name": "reason",
          "type": "string"
        }
      ],
      "name": "requestDataDeletion",
      "outputs": [],
      "stateMutability": "nonpayable",
      "type": "function"
    },
    {
      "inputs": [
        {
          "internalType": "address",
          "name": "moderator",
          "type": "address"
        }
      ],
      "name": "revokeModeratorRole",
      "outputs": [],
      "stateMutability": "nonpayable",
      "type": "function"
    },
    {
      "inputs": [
        {
          "internalType": "bytes32",
          "name": "role",
          "type": "bytes32"
        },
        {
          "internalType": "address",
          "name": "account",
          "type": "address"
        }
      ],
      "name": "revokeRole",
      "outputs": [],
      "stateMutability": "nonpayable",
      "type": "function"
    },
    {
      "inputs": [
        {
          "internalType": "address",
          "name": "user",
          "type": "address"
        }
      ],
      "name": "shouldDeleteData",
      "outputs": [
        {
          "internalType": "bool",
          "name": "",
          "type": "bool"
        }
      ],
      "stateMutability": "view",
      "type": "function"
    },
    {
      "inputs": [
        {
          "internalType": "bytes4",
          "name": "interfaceId",
          "type": "bytes4"
        }
      ],
      "name": "supportsInterface",
      "outputs": [
        {
          "internalType": "bool",
          "name": "",
          "type": "bool"
        }
      ],
      "stateMutability": "view",
      "type": "function"
    },
    {
      "inputs": [
        {
          "internalType": "bool",
          "name": "isAnonymous",
          "type": "bool"
        },
        {
          "internalType": "bool",
          "name": "allowDataCollection",
          "type": "bool"
        },
        {
          "internalType": "uint256",
          "name": "retentionDays",
          "type": "uint256"
        }
      ],
      "name": "updatePrivacySettings",
      "outputs": [],
      "stateMutability": "nonpayable",
      "type": "function"
    },
    {
      "inputs": [
        {
          "internalType": "address",
          "name": "",
          "type": "address"
        }
      ],
      "name": "userPrivacySettings",
      "outputs": [
        {
          "internalType": "bool",
          "name": "isAnonymous",
          "type": "bool"
        },
        {
          "internalType": "bool",
          "name": "allowDataCollection",
          "type": "bool"
        },
        {
          "internalType": "uint256",
          "name": "dataRetentionPeriod",
          "type": "uint256"
        },
        {
          "internalType": "uint256",
          "name": "lastUpdated",
          "type": "uint256"
        }
      ],
      "stateMutability": "view",
      "type": "function"
    },
    {
      "inputs": [
        {
          "internalType": "bytes32",
          "name": "",
          "type": "bytes32"
        }
      ],
      "name": "verifiedProofs",
      "outputs": [
        {
          "internalType": "bool",
          "name": "",
          "type": "bool"
        }
      ],
      "stateMutability": "view",
      "type": "function"
    },
    {
      "inputs": [
        {
          "internalType": "bytes",
          "name": "proof",
          "type": "bytes"
        },
        {
          "internalType": "bytes32",
          "name": "publicInput",
          "type": "bytes32"
        }
      ],
      "name": "verifyZKProof",
      "outputs": [
        {
          "internalType": "bool",
          "name": "",
          "type": "bool"
        }
      ],
      "stateMutability": "nonpayable",
      "type": "function"
    }
  ],
  "bytecode": "0x608060405234610030576001805561001633610035565b50610020336100b3565b5060405161132e90816101548239f35b600080fd5b6001600160a01b031660008181527fad3228b676f7d3cd4284a5443f17f1962b36e491b30a40b2405849e597ba5fb5602052604081205490919060ff166100af57818052816020526040822081835260205260408220600160ff1982541617905533916000805160206114828339815191528180a4600190565b5090565b6001600160a01b031660008181527f7d7ffb7a348e1c6a02869081a26547b49160dd3df72d1d75a570eb9b698292ec60205260408120549091907fa49807205ce4d355092ef5a8a18f56e8913cf4a201fbe287825b095693c217759060ff1661014e57808352826020526040832082845260205260408320600160ff19825416179055600080516020611482833981519152339380a4600190565b50509056fe608060408181526004918236101561001657600080fd5b600092833560e01c91826301ffc9a714610dd9575081630c3f530f14610b11578163176d80c414610ae55781631f43e16014610a09578163248a9ca3146109df5781632f2ff15d146109b557816336568abe1461096f5781634ccf970614610940578163517fcb89146108995781635bba8f681461059657816363c813ce1461085b5781636681b8231461071d57816375b238fc146106e2578163797669c9146106b95781637be98b91146105c35781638abcfce01461059657816391d148541461055057816392b908b2146105275781639d53dcc8146103d8578163a217fddf146103bd578163aa232dc21461036d578163aea9452514610316578163bb59ce40146101de578163d547741f1461019b575063fb18f5551461013857600080fd5b346101975760203660031901126101975760809181906001600160a01b0361015e610ee2565b16815260026020522090815491600260018201549101549160ff8151948181161515865260081c16151560208501528301526060820152f35b5080fd5b919050346101da57806003193601126101da576101d691356101d160016101c0610ecc565b938387528660205286200154610fde565b6111b6565b5080f35b8280fd5b8284346103135760209182600319360112610197576001600160a01b039182610205610ee2565b16815260038452818120928354169160019384810154916003600283015492019281519388869882549761023889610f07565b938489528389019983811690816000146102f157506001146102b6575b50505050509160ff9184936102716102a89660c09a0386610e5e565b8151998a98895288015282821615159087015260081c161515606085015260a060808501525180928160a086015285850190610f41565b601f01601f19168101030190f35b908094939b50528983205b8284106102de5750505084019096019581886102718660c0610255565b80548885018c0152928a019281016102c1565b60ff19168b525050505090151560051b850101965081886102718660c0610255565b80fd5b50503461019757602036600319011261019757610331610ee2565b90514281526001600160a01b039091169033907f43ddb99e2e28694aa67d9182a3cfbf4048d230a701b38644cfb598fd739f724d90602090a380f35b505034610197576020366003190112610197576101d6906103b86001610391610ee2565b9261039a610f64565b6000805160206112d983398151915286528560205285200154610fde565b611004565b50503461019757816003193601126101975751908152602090f35b919050346101da57806003193601126101da576103f3610ee2565b906103fc610ef8565b91610405610f64565b6001600160a01b0316808552600360205281852060010154909390156104e557838552600360205260ff60028387200154166104a357508284526003602052808420600201805461ffff191683151560081b61ff00161760011790557f9f4d9e08fd1ea62985e6403389e9f517f3c2c5037e4371131471cdc134433c179161049d915190151581524260208201529081906040820190565b0390a280f35b6020606492519162461bcd60e51b8352820152601960248201527f5265717565737420616c72656164792070726f636573736564000000000000006044820152fd5b6020606492519162461bcd60e51b8352820152601960248201527f4e6f2064656c6574696f6e207265717565737420666f756e64000000000000006044820152fd5b505034610197576020366003190112610197576101d69061054b6001610391610ee2565b61111d565b9050346101da57816003193601126101da578160209360ff92610571610ecc565b903582528186528282206001600160a01b039091168252855220549151911615158152f35b9050346101da5760203660031901126101da578160209360ff923581526005855220541690519015158152f35b919050346101da57602090816003193601126106b5578235926000805160206112d9833981519152808652858452828620338752845260ff83872054161561069a57508385526005835260ff8286205416610659575082845260058252808420805460ff19166001179055514281527fea886eb2a9f3d4e86580774696b480e5c8ace847d8614884cca12f3e0f55b6e19190a280f35b82606492519162461bcd60e51b8352820152601a60248201527f436f6e74656e7420616c726561647920616e6f6e796d697a65640000000000006044820152fd5b604492519163e2517d3f60e01b835233908301526024820152fd5b8380fd5b505034610197578160031936011261019757602090516000805160206112d98339815191528152f35b505034610197578160031936011261019757602090517fa49807205ce4d355092ef5a8a18f56e8913cf4a201fbe287825b095693c217758152f35b919050346101da5760603660031901126101da578135918215159081840361085757610747610ef8565b9060443590601e8210158061084b575b1561080857508392916002917f35131a3e2698d3105ff90b9f528bb16706c3b02e702c9ccb6999c7a35d3f90c295519361079085610e2c565b84526020840191151582528484019081526107e66060850192428452338a52846020526107cf878b2096511515879060ff801983541691151516179055565b51855461ff00191690151560081b61ff0016178555565b516001840155519101555191151582524260208301523391806040810161049d565b606490602086519162461bcd60e51b8352820152601860248201527f496e76616c696420726574656e74696f6e20706572696f6400000000000000006044820152fd5b50610e42821115610757565b8480fd5b5050346101975760203660031901126101975760209160ff9082906001600160a01b03610886610ee2565b1681526002855220541690519015158152f35b50503461019757602036600319011261019757806080926108b8610ee2565b81606084516108c681610e2c565b8281528260208201528286820152015260018060a01b03168152600260205220908051906108f382610e2c565b82549260ff841615159384845260ff602085019160081c16151581526060600260018401549385870194855201549401938452825194855251151560208501525190830152516060820152f35b50503461019757602036600319011261019757602090610966610961610ee2565b61122b565b90519015158152f35b838334610197578060031936011261019757610989610ecc565b90336001600160a01b038316036109a657506101d69192356111b6565b5163334bd91960e11b81528390fd5b919050346101da57806003193601126101da576101d691356109da60016101c0610ecc565b6110a4565b9050346101da5760203660031901126101da57816020936001923581528085522001549051908152f35b919050346101da57806003193601126101da57813567ffffffffffffffff81116106b557366023820112156106b557610a4c829136906024818701359101610e80565b93815194602095610a82848289610a6c8183019687815193849201610f41565b81016024358b8201520389810184520182610e5e565b519020938482528552209182549260ff8416159384610aa5575b50505051908152f35b60019060ff19161790557f0c0afd2d440ecce8f50a3a8fb8c422b4bb32611b01094a5041d71f88dd21c6a9828051600181524287820152a2388080610a9c565b9050346101da5760203660031901126101da57816020938260ff93358252855220541690519015158152f35b83833461019757602090816003193601126101da5767ffffffffffffffff938035858111610857573660238201121561085757610b579036906024818501359101610e80565b9033855260038452828520906001918281015415908115610dca575b5015610d8757835160a0810181811089821117610d7457906003918652338152610c15878201428152878301908a825260608401908b825260808501988952338c52858b52898c209460018060a01b039051166bffffffffffffffffffffffff60a01b8654161785555187850155610bfe6002850192511515839060ff801983541691151516179055565b51815461ff00191690151560081b61ff0016179055565b019251908151978811610d615750610c2d8354610f07565b601f8111610d1b575b508490601f8811600114610c9c57968092819288997f2de2bf92ac2bdd4cb3f75b65c2dee33e2d3eb589ebef868f88fc50b0967bd677989994610c91575b50501b916000199060031b1c19161790555b51914283523392a280f35b015192508980610c74565b838752858720909791601f198316885b818110610d06575098837f2de2bf92ac2bdd4cb3f75b65c2dee33e2d3eb589ebef868f88fc50b0967bd67798999a10610ced575b505050811b019055610c86565b015160001960f88460031b161c19169055878080610ce0565b8a830151845592850192918801918801610cac565b838752858720601f890160051c810191878a10610d57575b601f0160051c019083905b828110610d4c575050610c36565b888155018390610d3e565b9091508190610d33565b634e487b7160e01b875260419052602486fd5b634e487b7160e01b885260418352602488fd5b835162461bcd60e51b8152908101859052601f60248201527f50656e64696e672064656c6574696f6e207265717565737420657869737473006044820152606490fd5b60ff9150600201541688610b73565b8491346101da5760203660031901126101da573563ffffffff60e01b81168091036101da5760209250637965db0b60e01b8114908115610e1b575b5015158152f35b6301ffc9a760e01b14905083610e14565b6080810190811067ffffffffffffffff821117610e4857604052565b634e487b7160e01b600052604160045260246000fd5b90601f8019910116810190811067ffffffffffffffff821117610e4857604052565b92919267ffffffffffffffff8211610e485760405191610eaa601f8201601f191660200184610e5e565b829481845281830111610ec7578281602093846000960137010152565b600080fd5b602435906001600160a01b0382168203610ec757565b600435906001600160a01b0382168203610ec757565b602435908115158203610ec757565b90600182811c92168015610f37575b6020831014610f2157565b634e487b7160e01b600052602260045260246000fd5b91607f1691610f16565b60005b838110610f545750506000910152565b8181015183820152602001610f44565b3360009081527f7d7ffb7a348e1c6a02869081a26547b49160dd3df72d1d75a570eb9b698292ec60205260409020547fa49807205ce4d355092ef5a8a18f56e8913cf4a201fbe287825b095693c217759060ff1615610fc05750565b6044906040519063e2517d3f60e01b82523360048301526024820152fd5b80600052600060205260406000203360005260205260ff6040600020541615610fc05750565b6001600160a01b031660008181527ff179aafcc4ff8137fca1ef3b9ec4d165f87016ba123e7973fba770bc55e240e360205260408120549091906000805160206112d98339815191529060ff1661109f57808352826020526040832082845260205260408320600160ff198254161790557f2f8788117e7eff1d82e926ec794901d17c78024a50270940304540a733656f0d339380a4600190565b505090565b9060009180835282602052604083209160018060a01b03169182845260205260ff6040842054161560001461109f57808352826020526040832082845260205260408320600160ff198254161790557f2f8788117e7eff1d82e926ec794901d17c78024a50270940304540a733656f0d339380a4600190565b6001600160a01b031660008181527ff179aafcc4ff8137fca1ef3b9ec4d165f87016ba123e7973fba770bc55e240e360205260408120549091906000805160206112d98339815191529060ff161561109f5780835282602052604083208284526020526040832060ff1981541690557ff6391f5c32d9c69d2a47ea670b442974b53935d1edc7fd64eb21e047a839171b339380a4600190565b9060009180835282602052604083209160018060a01b03169182845260205260ff60408420541660001461109f5780835282602052604083208284526020526040832060ff1981541690557ff6391f5c32d9c69d2a47ea670b442974b53935d1edc7fd64eb21e047a839171b339380a4600190565b6001600160a01b0316600090815260026020526040808220905190919061125181610e2c565b60ff83548181161515835260081c1615156020820152606060026001850154948560408501520154910190808252156112d25762015180928381029381850414901517156112be57519182018092116112aa5750421190565b634e487b7160e01b81526011600452602490fd5b634e487b7160e01b82526011600452602482fd5b5090509056fe71f3d55856e4058ed06ee057d79ada615f65cdf5f9ee88181b914225088f834fa26469706673582212208c60fedbcc310af8eac1ad0bd4b02aa2cc4e050befc32efa70b7add7eb0f69ad64736f6c634300081400332f8788117e7eff1d82e926ec794901d17c78024a50270940304540a733656f0d",
  "linkReferences": {},
  "deployedLinkReferences": {}
}