{"contracts/features/GamificationContract.sol":{"GamificationContract":{"abi":[{"inputs":[{"internalType":"address","name":"_studentRegistry","type":"address"},{"internalType":"address payable","name":"_pointEconomy","type":"address"}],"stateMutability":"nonpayable","type":"constructor"},{"inputs":[],"name":"AccessControlBadConfirmation","type":"error"},{"inputs":[{"internalType":"address","name":"account","type":"address"},{"internalType":"bytes32","name":"neededRole","type":"bytes32"}],"name":"AccessControlUnauthorizedAccount","type":"error"},{"inputs":[],"name":"ReentrancyGuardReentrantCall","type":"error"},{"anonymous":false,"inputs":[{"indexed":false,"internalType":"enum GamificationContract.BadgeType","name":"badgeType","type":"uint8"},{"indexed":false,"internalType":"string","name":"name","type":"string"},{"indexed":false,"internalType":"uint256","name":"pointReward","type":"uint256"}],"name":"BadgeCreated","type":"event"},{"anonymous":false,"inputs":[{"indexed":true,"internalType":"address","name":"user","type":"address"},{"indexed":false,"internalType":"enum GamificationContract.BadgeType","name":"badgeType","type":"uint8"},{"indexed":false,"internalType":"enum GamificationContract.AchievementTier","name":"tier","type":"uint8"},{"indexed":false,"internalType":"uint256","name":"pointsAwarded","type":"uint256"},{"indexed":false,"internalType":"uint256","name":"timestamp","type":"uint256"}],"name":"BadgeEarned","type":"event"},{"anonymous":false,"inputs":[{"indexed":true,"internalType":"address","name":"user","type":"address"},{"indexed":false,"internalType":"uint256","name":"newRank","type":"uint256"}],"name":"LeaderboardUpdated","type":"event"},{"anonymous":false,"inputs":[{"indexed":true,"internalType":"address","name":"user","type":"address"},{"indexed":true,"internalType":"uint256","name":"milestoneId","type":"uint256"},{"indexed":false,"internalType":"uint256","name":"pointsAwarded","type":"uint256"},{"indexed":false,"internalType":"uint256","name":"timestamp","type":"uint256"}],"name":"MilestoneAchieved","type":"event"},{"anonymous":false,"inputs":[{"indexed":true,"internalType":"bytes32","name":"role","type":"bytes32"},{"indexed":true,"internalType":"bytes32","name":"previousAdminRole","type":"bytes32"},{"indexed":true,"internalType":"bytes32","name":"newAdminRole","type":"bytes32"}],"name":"RoleAdminChanged","type":"event"},{"anonymous":false,"inputs":[{"indexed":true,"internalType":"bytes32","name":"role","type":"bytes32"},{"indexed":true,"internalType":"address","name":"account","type":"address"},{"indexed":true,"internalType":"address","name":"sender","type":"address"}],"name":"RoleGranted","type":"event"},{"anonymous":false,"inputs":[{"indexed":true,"internalType":"bytes32","name":"role","type":"bytes32"},{"indexed":true,"internalType":"address","name":"account","type":"address"},{"indexed":true,"internalType":"address","name":"sender","type":"address"}],"name":"RoleRevoked","type":"event"},{"inputs":[],"name":"ADMIN_ROLE","outputs":[{"internalType":"bytes32","name":"","type":"bytes32"}],"stateMutability":"view","type":"function"},{"inputs":[],"name":"DEFAULT_ADMIN_ROLE","outputs":[{"internalType":"bytes32","name":"","type":"bytes32"}],"stateMutability":"view","type":"function"},{"inputs":[],"name":"GAME_MANAGER_ROLE","outputs":[{"internalType":"bytes32","name":"","type":"bytes32"}],"stateMutability":"view","type":"function"},{"inputs":[{"internalType":"uint256","name":"","type":"uint256"}],"name":"activeUsers","outputs":[{"internalType":"address","name":"","type":"address"}],"stateMutability":"view","type":"function"},{"inputs":[{"internalType":"enum GamificationContract.BadgeType","name":"","type":"uint8"}],"name":"badges","outputs":[{"internalType":"enum GamificationContract.BadgeType","name":"badgeType","type":"uint8"},{"internalType":"string","name":"name","type":"string"},{"internalType":"string","name":"description","type":"string"},{"internalType":"uint256","name":"pointReward","type":"uint256"},{"internalType":"uint256","name":"requirement","type":"uint256"},{"internalType":"bool","name":"isActive","type":"bool"}],"stateMutability":"view","type":"function"},{"inputs":[{"internalType":"address","name":"","type":"address"}],"name":"consecutiveDaysActive","outputs":[{"internalType":"uint256","name":"","type":"uint256"}],"stateMutability":"view","type":"function"},{"inputs":[{"internalType":"address","name":"","type":"address"}],"name":"feedbackCount","outputs":[{"internalType":"uint256","name":"","type":"uint256"}],"stateMutability":"view","type":"function"},{"inputs":[{"internalType":"uint256","name":"limit","type":"uint256"}],"name":"getLeaderboard","outputs":[{"components":[{"internalType":"address","name":"user","type":"address"},{"internalType":"uint256","name":"totalPoints","type":"uint256"},{"internalType":"uint256","name":"totalFeedbacks","type":"uint256"},{"internalType":"uint256","name":"badgeCount","type":"uint256"},{"internalType":"uint256","name":"rank","type":"uint256"}],"internalType":"struct GamificationContract.LeaderboardEntry[]","name":"","type":"tuple[]"}],"stateMutability":"view","type":"function"},{"inputs":[{"internalType":"bytes32","name":"role","type":"bytes32"}],"name":"getRoleAdmin","outputs":[{"internalType":"bytes32","name":"","type":"bytes32"}],"stateMutability":"view","type":"function"},{"inputs":[{"internalType":"address","name":"user","type":"address"}],"name":"getUserAchievements","outputs":[{"components":[{"internalType":"address","name":"user","type":"address"},{"internalType":"enum GamificationContract.BadgeType","name":"badgeType","type":"uint8"},{"internalType":"enum GamificationContract.AchievementTier","name":"tier","type":"uint8"},{"internalType":"uint256","name":"earnedAt","type":"uint256"},{"internalType":"uint256","name":"pointsAwarded","type":"uint256"}],"internalType":"struct GamificationContract.UserAchievement[]","name":"","type":"tuple[]"}],"stateMutability":"view","type":"function"},{"inputs":[{"internalType":"address","name":"user","type":"address"}],"name":"getUserStats","outputs":[{"internalType":"uint256","name":"feedbacks","type":"uint256"},{"internalType":"uint256","name":"qualityFeedbacks","type":"uint256"},{"internalType":"uint256","name":"badgeCount","type":"uint256"},{"internalType":"uint256","name":"consecutiveDays","type":"uint256"}],"stateMutability":"view","type":"function"},{"inputs":[{"internalType":"address","name":"manager","type":"address"}],"name":"grantGameManagerRole","outputs":[],"stateMutability":"nonpayable","type":"function"},{"inputs":[{"internalType":"bytes32","name":"role","type":"bytes32"},{"internalType":"address","name":"account","type":"address"}],"name":"grantRole","outputs":[],"stateMutability":"nonpayable","type":"function"},{"inputs":[{"internalType":"address","name":"user","type":"address"},{"internalType":"enum GamificationContract.BadgeType","name":"badgeType","type":"uint8"}],"name":"hasBadge","outputs":[{"internalType":"bool","name":"","type":"bool"}],"stateMutability":"view","type":"function"},{"inputs":[{"internalType":"bytes32","name":"role","type":"bytes32"},{"internalType":"address","name":"account","type":"address"}],"name":"hasRole","outputs":[{"internalType":"bool","name":"","type":"bool"}],"stateMutability":"view","type":"function"},{"inputs":[],"name":"milestoneCounter","outputs":[{"internalType":"uint256","name":"","type":"uint256"}],"stateMutability":"view","type":"function"},{"inputs":[{"internalType":"uint256","name":"","type":"uint256"}],"name":"milestones","outputs":[{"internalType":"uint256","name":"id","type":"uint256"},{"internalType":"string","name":"name","type":"string"},{"internalType":"string","name":"description","type":"string"},{"internalType":"uint256","name":"targetValue","type":"uint256"},{"internalType":"uint256","name":"pointReward","type":"uint256"},{"internalType":"bool","name":"isActive","type":"bool"}],"stateMutability":"view","type":"function"},{"inputs":[],"name":"pointEconomy","outputs":[{"internalType":"contract PointEconomyContract","name":"","type":"address"}],"stateMutability":"view","type":"function"},{"inputs":[{"internalType":"address","name":"","type":"address"}],"name":"qualityFeedbackCount","outputs":[{"internalType":"uint256","name":"","type":"uint256"}],"stateMutability":"view","type":"function"},{"inputs":[{"internalType":"address","name":"user","type":"address"},{"internalType":"bool","name":"isQuality","type":"bool"}],"name":"recordFeedback","outputs":[],"stateMutability":"nonpayable","type":"function"},{"inputs":[{"internalType":"bytes32","name":"role","type":"bytes32"},{"internalType":"address","name":"callerConfirmation","type":"address"}],"name":"renounceRole","outputs":[],"stateMutability":"nonpayable","type":"function"},{"inputs":[{"internalType":"bytes32","name":"role","type":"bytes32"},{"internalType":"address","name":"account","type":"address"}],"name":"revokeRole","outputs":[],"stateMutability":"nonpayable","type":"function"},{"inputs":[],"name":"studentRegistry","outputs":[{"internalType":"contract StudentRegistryContract","name":"","type":"address"}],"stateMutability":"view","type":"function"},{"inputs":[{"internalType":"bytes4","name":"interfaceId","type":"bytes4"}],"name":"supportsInterface","outputs":[{"internalType":"bool","name":"","type":"bool"}],"stateMutability":"view","type":"function"},{"inputs":[],"name":"totalBadgesEarned","outputs":[{"internalType":"uint256","name":"","type":"uint256"}],"stateMutability":"view","type":"function"},{"inputs":[{"internalType":"address","name":"user","type":"address"},{"internalType":"uint256","name":"consecutiveDays","type":"uint256"}],"name":"updateConsecutiveDays","outputs":[],"stateMutability":"nonpayable","type":"function"},{"inputs":[{"internalType":"address","name":"","type":"address"},{"internalType":"uint256","name":"","type":"uint256"}],"name":"userAchievements","outputs":[{"internalType":"address","name":"user","type":"address"},{"internalType":"enum GamificationContract.BadgeType","name":"badgeType","type":"uint8"},{"internalType":"enum GamificationContract.AchievementTier","name":"tier","type":"uint8"},{"internalType":"uint256","name":"earnedAt","type":"uint256"},{"internalType":"uint256","name":"pointsAwarded","type":"uint256"}],"stateMutability":"view","type":"function"},{"inputs":[{"internalType":"address","name":"","type":"address"}],"name":"userBadgeCount","outputs":[{"internalType":"uint256","name":"","type":"uint256"}],"stateMutability":"view","type":"function"},{"inputs":[{"internalType":"address","name":"","type":"address"},{"internalType":"enum GamificationContract.BadgeType","name":"","type":"uint8"}],"name":"userBadges","outputs":[{"internalType":"bool","name":"","type":"bool"}],"stateMutability":"view","type":"function"},{"inputs":[{"internalType":"address","name":"","type":"address"},{"internalType":"uint256","name":"","type":"uint256"}],"name":"userMilestones","outputs":[{"internalType":"bool","name":"","type":"bool"}],"stateMutability":"view","type":"function"}],"evm":{"bytecode":{"linkReferences":{},"object":"608034620022ef57601f6200429e38819003918201601f19168301916001600160401b038311848410176200133d578084926040948552833981010312620022ef5780516001600160a01b039182821691829003620022ef5760200151918216809203620022ef57600180558015620022aa578115620022655760018060a01b03199081600254161760025560035416176003556200009e3362002334565b50620000aa33620023b4565b50620000b63362002456565b50620000c1620022f4565b60008152620000cf62002314565b90600b82526a466972737420537465707360a81b602083015260208101918252620000f962002314565b601a81527f5375626d697420796f757220666972737420666565646261636b000000000000602082015260408201526032606082015260016080820152600160a08201526000805260046020526040600020918151600881101562001c0f5760ff801985541691161783555191825160018060401b0381116200133d576001820154600181811c911680156200225a575b60208210146200131c57601f81116200220e575b506020601f82116001146200219b57819293946000926200218f575b50508160011b916000199060031b1c19161760018201555b60408201518051906001600160401b0382116200133d576002830154600181811c9116801562002184575b60208210146200131c57601f811162002138575b50602090601f8311600114620020d557938260059360a0936200027a9760009262001246575b50508160011b916000199060031b1c19161760028501555b60608101516003850155608081015160048501550151151591019060ff801983541691151516179055565b62000284620022f4565b600181526200029262002314565b90600f82526e2332b2b23130b1b59026b0b9ba32b960891b602083015260208101918252620002c062002314565b601381527f5375626d697420353020666565646261636b7300000000000000000000000000602082015260408201526101f4606082015260326080820152600160a0820152600160005260046020526040600020918151600881101562001c0f5760ff801985541691161783555191825160018060401b0381116200133d576001820154600181811c91168015620020ca575b60208210146200131c57601f81116200207e575b506020601f82116001146200200b578192939460009262001fff575b50508160011b916000199060031b1c19161760018201555b60408201518051906001600160401b0382116200133d576002830154600181811c9116801562001ff4575b60208210146200131c57601f811162001fa8575b50602090601f831160011462001f4557938260059360a0936200044197600092620012465750508160011b916000199060031b1c191617600285015560608101516003850155608081015160048501550151151591019060ff801983541691151516179055565b6200044b620022f4565b600281526200045962002314565b90601382527f5175616c69747920436f6e7472696275746f72000000000000000000000000006020830152602081019182526200049562002314565b602081527f5375626d697420313020686967682d7175616c69747920666565646261636b736020820152604082015261012c6060820152600a6080820152600160a0820152600260005260046020526040600020918151600881101562001c0f5760ff801985541691161783555191825160018060401b0381116200133d576001820154600181811c9116801562001f3a575b60208210146200131c57601f811162001eee575b506020601f821160011462001e7b578192939460009262001e6f575b50508160011b916000199060031b1c19161760018201555b60408201518051906001600160401b0382116200133d576002830154600181811c9116801562001e64575b60208210146200131c57601f811162001e18575b50602090601f831160011462001db557938260059360a0936200061697600092620012465750508160011b916000199060031b1c191617600285015560608101516003850155608081015160048501550151151591019060ff801983541691151516179055565b62000620620022f4565b600381526200062e62002314565b90601482527f436f6e73697374656e6379204368616d70696f6e0000000000000000000000006020830152602081019182526200066a62002314565b601e81527f41637469766520666f7220333020636f6e736563757469766520646179730000602082015260408201526101906060820152601e6080820152600160a0820152600360005260046020526040600020918151600881101562001c0f5760ff801985541691161783555191825160018060401b0381116200133d576001820154600181811c9116801562001daa575b60208210146200131c57601f811162001d5e575b506020601f821160011462001ceb578192939460009262001cdf575b50508160011b916000199060031b1c19161760018201555b60408201518051906001600160401b0382116200133d576002830154600181811c9116801562001cd4575b60208210146200131c57601f811162001c88575b50602090601f831160011462001c2557938260059360a093620007eb97600092620012465750508160011b916000199060031b1c191617600285015560608101516003850155608081015160048501550151151591019060ff801983541691151516179055565b620007f5620022f4565b600481526200080362002314565b90601082526f21b7b6b6bab734ba3c902432b63832b960811b6020830152602081019182526200083262002314565b601d81527f48656c7020766572696679203230207065657220666565646261636b730000006020820152604082015260fa606082015260146080820152600160a0820152600460005260046020526040600020918151600881101562001c0f5760ff801985541691161783555191825160018060401b0381116200133d576001820154600181811c9116801562001c04575b60208210146200131c57601f811162001bb8575b506020601f821160011462001b45578192939460009262001b39575b50508160011b916000199060031b1c19161760018201555b60408201518051906001600160401b0382116200133d576002830154600181811c9116801562001b2e575b60208210146200131c57601f811162001ae2575b50602090601f831160011462001a7f57938260059360a093620009b297600092620012465750508160011b916000199060031b1c191617600285015560608101516003850155608081015160048501550151151591019060ff801983541691151516179055565b620009bc62002314565b60068152654e6f7669636560d01b6020820152620009d962002314565b601081526f4561726e203130303020706f696e747360801b6020820152600e5460001981146200142957600191828201600e5562000a16620022f4565b938383018552602085015260408401526103e86060840152606460808401528160a084015201600052600860205260406000209080518255602081015191825160018060401b0381116200133d576001820154600181811c9116801562001a74575b60208210146200131c57601f811162001a28575b506020601f8211600114620019b55781929394600092620019a9575b50508160011b916000199060031b1c19161760018201555b60408201518051906001600160401b0382116200133d576002830154600181811c911680156200199e575b60208210146200131c57601f811162001952575b50602090601f8311600114620018ef57938260059360a09362000b6697600092620012465750508160011b916000199060031b1c191617600285015560608101516003850155608081015160048501550151151591019060ff801983541691151516179055565b62000b7062002314565b600b81526a21b7b73a3934b13aba37b960a91b602082015262000b9262002314565b601081526f4561726e203530303020706f696e747360801b6020820152600e5460001981146200142957600191828201600e5562000bcf620022f4565b9383830185526020850152604084015261138860608401526101f460808401528160a084015201600052600860205260406000209080518255602081015191825160018060401b0381116200133d576001820154600181811c91168015620018e4575b60208210146200131c57601f811162001898575b506020601f821160011462001825578192939460009262001819575b50508160011b916000199060031b1c19161760018201555b60408201518051906001600160401b0382116200133d576002830154600181811c911680156200180e575b60208210146200131c57601f8111620017c2575b50602090601f83116001146200175f57938260059360a09362000d2097600092620012465750508160011b916000199060031b1c191617600285015560608101516003850155608081015160048501550151151591019060ff801983541691151516179055565b62000d2a62002314565b6006815265115e1c195c9d60d21b602082015262000d4762002314565b60118152704561726e20313030303020706f696e747360781b6020820152600e546000198114620014295760010180600e5562000d83620022f4565b9181835260208301938452604083015261271060608301526103e86080830152600160a08301526000526008602052604060002091815183555191825160018060401b0381116200133d576001820154600181811c9116801562001754575b60208210146200131c57601f811162001708575b506020601f821160011462001695578192939460009262001689575b50508160011b916000199060031b1c19161760018201555b60408201518051906001600160401b0382116200133d576002830154600181811c911680156200167e575b60208210146200131c57601f811162001632575b50602090601f8311600114620015cf57938260059360a09362000ed097600092620012465750508160011b916000199060031b1c191617600285015560608101516003850155608081015160048501550151151591019060ff801983541691151516179055565b62000eda62002314565b600681526526b0b9ba32b960d11b602082015262000ef762002314565b60118152704561726e20323530303020706f696e747360781b6020820152600e546000198114620014295760010180600e5562000f33620022f4565b918183526020830193845260408301526161a860608301526109c46080830152600160a08301526000526008602052604060002091815183555191825160018060401b0381116200133d576001820154600181811c91168015620015c4575b60208210146200131c57601f811162001578575b506020601f8211600114620015055781929394600092620014f9575b50508160011b916000199060031b1c19161760018201555b60408201518051906001600160401b0382116200133d576002830154600181811c91168015620014ee575b60208210146200131c57601f8111620014a2575b50602090601f83116001146200143f57938260059360a0936200108097600092620012465750508160011b916000199060031b1c191617600285015560608101516003850155608081015160048501550151151591019060ff801983541691151516179055565b6200108a62002314565b6006815265131959d95b9960d21b6020820152620010a762002314565b60118152704561726e20353030303020706f696e747360781b6020820152600e5460001981146200142957600191828201600e55620010e5620022f4565b9383830185526020850152604084015261c350606084015261138860808401528160a084015201600052600860205260406000209080518255602081015191825160018060401b0381116200133d576001820154600181811c911680156200141e575b60208210146200131c57601f8111620013d2575b506020601f82116001146200135f578192939460009262001353575b50508160011b916000199060031b1c19161760018201555b60408201518051906001600160401b0382116200133d576002830154600181811c9116801562001332575b60208210146200131c57601f8111620012d0575b50602090601f83116001146200125257938260059360a0936200123697600092620012465750508160011b916000199060031b1c191617600285015560608101516003850155608081015160048501550151151591019060ff801983541691151516179055565b604051611d8a9081620024f48239f35b01519050388062000237565b906002840160005260206000209160005b601f1985168110620012b757508360a093620012369793600193600597601f198116106200129d575b505050811b0160028501556200024f565b015160001960f88460031b161c191690553880806200128c565b9192602060018192868501518155019401920162001263565b600284016000526020600020601f840160051c81016020851062001314575b601f830160051c8201811062001307575050620011cf565b60008155600101620012ef565b5080620012ef565b634e487b7160e01b600052602260045260246000fd5b90607f1690620011bb565b634e487b7160e01b600052604160045260246000fd5b01519050388062001178565b6001830160005260206000209060005b601f1984168110620013b95750600193949583601f198116106200139f575b505050811b01600182015562001190565b015160001960f88460031b161c191690553880806200138e565b9091602060018192858a0151815501930191016200136f565b600183016000526020600020601f830160051c81016020841062001416575b601f830160051c82018110620014095750506200115c565b60008155600101620013f1565b5080620013f1565b90607f169062001148565b634e487b7160e01b600052601160045260246000fd5b906002840160005260206000209160005b601f19851681106200148957508360a093620010809793600193600597601f198116106200129d57505050811b0160028501556200024f565b9192602060018192868501518155019401920162001450565b600284016000526020600020601f840160051c810160208510620014e6575b601f830160051c82018110620014d957505062001019565b60008155600101620014c1565b5080620014c1565b90607f169062001005565b01519050388062000fc2565b6001830160005260206000209060005b601f19841681106200155f5750600193949583601f1981161062001545575b505050811b01600182015562000fda565b015160001960f88460031b161c1916905538808062001534565b9091602060018192858a01518155019301910162001515565b600183016000526020600020601f830160051c810160208410620015bc575b601f830160051c82018110620015af57505062000fa6565b6000815560010162001597565b508062001597565b90607f169062000f92565b906002840160005260206000209160005b601f19851681106200161957508360a09362000ed09793600193600597601f198116106200129d57505050811b0160028501556200024f565b91926020600181928685015181550194019201620015e0565b600284016000526020600020601f840160051c81016020851062001676575b601f830160051c820181106200166957505062000e69565b6000815560010162001651565b508062001651565b90607f169062000e55565b01519050388062000e12565b6001830160005260206000209060005b601f1984168110620016ef5750600193949583601f19811610620016d5575b505050811b01600182015562000e2a565b015160001960f88460031b161c19169055388080620016c4565b9091602060018192858a015181550193019101620016a5565b600183016000526020600020601f830160051c8101602084106200174c575b601f830160051c820181106200173f57505062000df6565b6000815560010162001727565b508062001727565b90607f169062000de2565b906002840160005260206000209160005b601f1985168110620017a957508360a09362000d209793600193600597601f198116106200129d57505050811b0160028501556200024f565b9192602060018192868501518155019401920162001770565b600284016000526020600020601f840160051c81016020851062001806575b601f830160051c82018110620017f957505062000cb9565b60008155600101620017e1565b5080620017e1565b90607f169062000ca5565b01519050388062000c62565b6001830160005260206000209060005b601f19841681106200187f5750600193949583601f1981161062001865575b505050811b01600182015562000c7a565b015160001960f88460031b161c1916905538808062001854565b9091602060018192858a01518155019301910162001835565b600183016000526020600020601f830160051c810160208410620018dc575b601f830160051c82018110620018cf57505062000c46565b60008155600101620018b7565b5080620018b7565b90607f169062000c32565b906002840160005260206000209160005b601f19851681106200193957508360a09362000b669793600193600597601f198116106200129d57505050811b0160028501556200024f565b9192602060018192868501518155019401920162001900565b600284016000526020600020601f840160051c81016020851062001996575b601f830160051c820181106200198957505062000aff565b6000815560010162001971565b508062001971565b90607f169062000aeb565b01519050388062000aa8565b6001830160005260206000209060005b601f198416811062001a0f5750600193949583601f19811610620019f5575b505050811b01600182015562000ac0565b015160001960f88460031b161c19169055388080620019e4565b9091602060018192858a015181550193019101620019c5565b600183016000526020600020601f830160051c81016020841062001a6c575b601f830160051c8201811062001a5f57505062000a8c565b6000815560010162001a47565b508062001a47565b90607f169062000a78565b906002840160005260206000209160005b601f198516811062001ac957508360a093620009b29793600193600597601f198116106200129d57505050811b0160028501556200024f565b9192602060018192868501518155019401920162001a90565b600284016000526020600020601f840160051c81016020851062001b26575b601f830160051c8201811062001b195750506200094b565b6000815560010162001b01565b508062001b01565b90607f169062000937565b015190503880620008f4565b6001830160005260206000209060005b601f198416811062001b9f5750600193949583601f1981161062001b85575b505050811b0160018201556200090c565b015160001960f88460031b161c1916905538808062001b74565b9091602060018192858a01518155019301910162001b55565b600183016000526020600020601f830160051c81016020841062001bfc575b601f830160051c8201811062001bef575050620008d8565b6000815560010162001bd7565b508062001bd7565b90607f1690620008c4565b634e487b7160e01b600052602160045260246000fd5b906002840160005260206000209160005b601f198516811062001c6f57508360a093620007eb9793600193600597601f198116106200129d57505050811b0160028501556200024f565b9192602060018192868501518155019401920162001c36565b600284016000526020600020601f840160051c81016020851062001ccc575b601f830160051c8201811062001cbf57505062000784565b6000815560010162001ca7565b508062001ca7565b90607f169062000770565b0151905038806200072d565b6001830160005260206000209060005b601f198416811062001d455750600193949583601f1981161062001d2b575b505050811b01600182015562000745565b015160001960f88460031b161c1916905538808062001d1a565b9091602060018192858a01518155019301910162001cfb565b600183016000526020600020601f830160051c81016020841062001da2575b601f830160051c8201811062001d9557505062000711565b6000815560010162001d7d565b508062001d7d565b90607f1690620006fd565b906002840160005260206000209160005b601f198516811062001dff57508360a093620006169793600193600597601f198116106200129d57505050811b0160028501556200024f565b9192602060018192868501518155019401920162001dc6565b600284016000526020600020601f840160051c81016020851062001e5c575b601f830160051c8201811062001e4f575050620005af565b6000815560010162001e37565b508062001e37565b90607f16906200059b565b01519050388062000558565b6001830160005260206000209060005b601f198416811062001ed55750600193949583601f1981161062001ebb575b505050811b01600182015562000570565b015160001960f88460031b161c1916905538808062001eaa565b9091602060018192858a01518155019301910162001e8b565b600183016000526020600020601f830160051c81016020841062001f32575b601f830160051c8201811062001f255750506200053c565b6000815560010162001f0d565b508062001f0d565b90607f169062000528565b906002840160005260206000209160005b601f198516811062001f8f57508360a093620004419793600193600597601f198116106200129d57505050811b0160028501556200024f565b9192602060018192868501518155019401920162001f56565b600284016000526020600020601f840160051c81016020851062001fec575b601f830160051c8201811062001fdf575050620003da565b6000815560010162001fc7565b508062001fc7565b90607f1690620003c6565b01519050388062000383565b6001830160005260206000209060005b601f1984168110620020655750600193949583601f198116106200204b575b505050811b0160018201556200039b565b015160001960f88460031b161c191690553880806200203a565b9091602060018192858a0151815501930191016200201b565b600183016000526020600020601f830160051c810160208410620020c2575b601f830160051c82018110620020b557505062000367565b600081556001016200209d565b50806200209d565b90607f169062000353565b906002840160005260206000209160005b601f19851681106200211f57508360a0936200027a9793600193600597601f198116106200129d57505050811b0160028501556200024f565b91926020600181928685015181550194019201620020e6565b600284016000526020600020601f840160051c8101602085106200217c575b601f830160051c820181106200216f57505062000211565b6000815560010162002157565b508062002157565b90607f1690620001fd565b015190503880620001ba565b6001830160005260206000209060005b601f1984168110620021f55750600193949583601f19811610620021db575b505050811b016001820155620001d2565b015160001960f88460031b161c19169055388080620021ca565b9091602060018192858a015181550193019101620021ab565b600183016000526020600020601f830160051c81016020841062002252575b601f830160051c82018110620022455750506200019e565b600081556001016200222d565b50806200222d565b90607f16906200018a565b60405162461bcd60e51b815260206004820152601560248201527f496e76616c696420706f696e742065636f6e6f6d7900000000000000000000006044820152606490fd5b60405162461bcd60e51b815260206004820152601860248201527f496e76616c69642073747564656e7420726567697374727900000000000000006044820152606490fd5b600080fd5b6040519060c082016001600160401b038111838210176200133d57604052565b60408051919082016001600160401b038111838210176200133d57604052565b6001600160a01b031660008181527fad3228b676f7d3cd4284a5443f17f1962b36e491b30a40b2405849e597ba5fb5602052604081205490919060ff16620023b057818052816020526040822081835260205260408220600160ff1982541617905533916000805160206200427e8339815191528180a4600190565b5090565b6001600160a01b031660008181527f7d7ffb7a348e1c6a02869081a26547b49160dd3df72d1d75a570eb9b698292ec60205260408120549091907fa49807205ce4d355092ef5a8a18f56e8913cf4a201fbe287825b095693c217759060ff166200245157808352826020526040832082845260205260408320600160ff198254161790556000805160206200427e833981519152339380a4600190565b505090565b6001600160a01b031660008181527ff11d5cd6172e4d486247e8873a157a5cbd86d37171bf6cd250fc0a75f26713f960205260408120549091907fef17b1f3c5a412f9c8e887e3abd186802afec7dc657fd3b7002bf87b128dd0b19060ff166200245157808352826020526040832082845260205260408320600160ff198254161790556000805160206200427e833981519152339380a460019056fe608060408181526004918236101561001657600080fd5b600092833560e01c9182630112f749146117c55750816301ffc9a71461176f57816324548c60146116df578163248a9ca3146116b55781632f2ff15d1461168b57816336568abe146116455781633af0c688146113a65781634e43603a146115e75781635bbff7ca146115425781635df79ea91461150a57816374643b68146114e157816375b238fc146114a65781637f1ca8dd14611423578163803ae518146113e25781638b93bf18146113a657816391d148541461136057816392c16fb514611337578163a217fddf1461131c578163a34b46fe14611102578163a4da426714610e05578163b4d2fef014610de6578163bc7fa09814610dae578163c7bdcce514610459578163d547741f14610416578163da1b3fe2146103de578163da976710146103a6578163e89e4ed614610316578163f09153c4146101b857508063f6baaec71461019a5763ff6fcdbd1461016f57600080fd5b3461019657816003193601126101965760209051600080516020611d358339815191528152f35b5080fd5b5034610196578160031936011261019657602090600e549051908152f35b905082346103135760209182600319360112610196576001600160a01b03929190836101e2611809565b16825260068352848220928354916101f983611ce8565b9261020688519485611931565b8084528284018096865283862086915b83831061029857505050505085519481860192828752518093528686019493905b8382106102445786860387f35b90919293948360a06001928851858151168252610267848201518584019061186c565b6102778c8201518d84019061188f565b60608181015190830152608090810151908201520196019493920190610237565b8a97959697516102a7816118e3565b82548b8116825260ff906102c2828260a01c168b8501611cdc565b60a81c16600581101561030057600192828a928f60039501528486015460608201526002860154608082015281520192019201919096959496610216565b634e487b7160e01b885260218752602488fd5b80fd5b828434610313576020366003190112610313578190833581526008602052209182549161034560018501611953565b9361039061035560028301611953565b9260ff600560038501549685015494015416936103838251988998895260c060208a015260c0890190611a24565b9187830390880152611a24565b9260608501526080840152151560a08301520390f35b5050346101965760203660031901126101965760209181906001600160a01b036103ce611809565b168152600b845220549051908152f35b5050346101965760203660031901126101965760209181906001600160a01b03610406611809565b168152600a845220549051908152f35b91905034610455578060031936011261045557610451913561044c600161043b611824565b938387528660205286200154611b03565b611c42565b5080f35b8280fd5b91905034610455578060031936011261045557610474611809565b9060248035938415158503610daa5761048b611a9b565b60018060a01b0391829160029683885416968651958691631eb30aeb60e01b835216978884830152818560209889935afa908115610da0578a91610d66575b5015610d2e57868952600a85528589206104e48154611cb7565b9055610d13575b858852600a845260019687868a20541480610cf9575b610b35575b868952600a85526032868a2054101580610b1b575b610958575b868952600b8552600a868a205410158061093e575b6106d3575b846003948554168751948580926317d0944f60e21b82528b878301525afa9283156106c95790889392918a93610693575b50835b610576578980f35b600e54841161068f5761060b848a958c5260088852808a8d8b8a8c60a08c6005858720946105b48751936105a985611915565b875485528701611953565b858401526105c38d8701611953565b8784015285015491606081019283528d860154956080820196875260ff9283910154161515938491015282610672575b5081610666575b50610611575b505050505050611cb7565b9361056e565b838391867f8ab103bf8b651015742cb95eee57481e58e7d8cf13a9e85f4d609605f2c325119652600981528282209088835252208b60ff19825416179055518151908152428d820152a3808a8d8b388c610600565b9050518b1015386105fa565b8787526009845285872089885284528587205416159150386105f3565b8980f35b935091508483813d81116106c2575b6106ac8183611931565b810103126106be57879251913861056b565b8880fd5b503d6106a2565b86513d8b823e3d90fd5b80895281855285892086516106e781611915565b6106f560ff83541682611cdc565b6107008a8301611953565b8782015261070f838301611953565b8882015260ff600560038401549360608401948552868101546080850152015416159060a0821591015261090957878a5260058652868a20828b52865260ff878b2054166108d057878a5260058652868a20828b528652868a208960ff19825416179055878a5260078652868a206107878154611cb7565b9055610794600d54611cb7565b600d55878a5260068652868a2081518851916107af836118e3565b8a83528883018581528a84018d8152606085019242845260808601948552805490600160401b8210156108bc578f820181556107eb919061183a565b9590956108aa575185546001600160a01b03198116918c169182178755925160088110156108965760ff60a01b60a09190911b166001600160a81b0319841682178117875591516005811015610896576001600160b01b0319909316171760a89190911b60ff60a81b1617835551828c015551908301555186518281528681018a9052808801919091524260608201528790600080516020611d1583398151915290608090a261053a565b5050634e487b7160e01b8f5260218852888ffd5b50634e487b7160e01b8f528e8852888ffd5b5050634e487b7160e01b8f5260418852888ffd5b865162461bcd60e51b81528084018790526014818601527310985919d948185b1c9958591e4819585c9b995960621b6044820152606490fd5b865162461bcd60e51b81528084018790526010818601526f4261646765206e6f742061637469766560801b6044820152606490fd5b5060058552858920818a52855260ff868a20541615610535565b878952818552858920865161096c81611915565b61097a60ff83541682611cdc565b6109858a8301611953565b87820152610994838301611953565b8882015260ff600560038401549360608401948552868101546080850152015416159060a0821591015261090957878a5260058652868a20898b52865260ff878b2054166108d057878a5260058652868a20898b528652868a208960ff19825416179055878a5260078652868a20610a0c8154611cb7565b9055610a19600d54611cb7565b600d55878a5260068652868a208151885191610a34836118e3565b8a83528883018c81528a8401868152606085019242845260808601948552805490600160401b8210156108bc578f82018155610a70919061183a565b9590956108aa575185546001600160a01b03198116918c169182178755925160088110156108965760ff60a01b60a09190911b166001600160a81b0319841682178117875591516005811015610896576001600160b01b0319909316171760a89190911b60ff60a81b1617835551828c01555190830155518651898152868101839052808801919091524260608201528790600080516020611d1583398151915290608090a2610520565b5060058552858920888a52855260ff868a2054161561051b565b8880528185528589208651610b4981611915565b610b5760ff83541682611cdc565b610b628a8301611953565b87820152610b71838301611953565b8882015260ff600560038401549360608401948552868101546080850152015416159060a0821591015261090957878a5260058652868a208a8052865260ff878b2054166108d057878a5260058652868a208a80528652868a208960ff19825416179055878a5260078652868a20610be98154611cb7565b9055610bf6600d54611cb7565b600d55878a5260068652868a208151885191610c11836118e3565b8a83528883018d81528d8b8501908152606085019242845260808601948552805490600160401b8210156108bc578f82018155610c4e919061183a565b9590956108aa575185546001600160a01b03198116918c169182178755925160088110156108965760ff60a01b60a09190911b166001600160a81b0319841682178117875591516005811015610896576001600160b01b0319909316171760a89190911b60ff60a81b1617835551828c015551908301555186518a81528681018b9052808801919091524260608201528790600080516020611d1583398151915290608090a2610506565b5060058552858920898052855260ff868a20541615610501565b858852600b8452848820610d278154611cb7565b90556104eb565b5060146064928587519362461bcd60e51b855284015282015273139bdd081d995c9a599a5959081cdd1d59195b9d60621b6044820152fd5b90508581813d8311610d99575b610d7d8183611931565b81010312610d9557518015158103610d9557386104ca565b8980fd5b503d610d73565b87513d8c823e3d90fd5b8580fd5b5050346101965760203660031901126101965760209181906001600160a01b03610dd6611809565b168152600c845220549051908152f35b505034610196578160031936011261019657602090600d549051908152f35b905034610455578160031936011261045557610e1f611809565b90602492833591610e2e611a9b565b60018060a01b0380941694858752601e602094600c865280858a20551015806110e7575b610e5a578680f35b600394858852828552838820928451610e7281611915565b610e8060ff86541682611cdc565b610e8c60018601611953565b87820152610e9c60028601611953565b8682015260ff6005898701549660608401978852848101546080850152015416159060a082159101526110b25787895260058652848920878a52865260ff858a2054166110795787895260058652848920878a528652848920600160ff1982541617905587895260078652848920610f148154611cb7565b9055610f21600d54611cb7565b600d558789526006865284892090845192865194610f3e866118e3565b8a8652888601928a84528887019260028452606088019542875260808901978852805490600160401b8210156110665790610f7e9160018201815561183a565b98909861105557511691875494836bffffffffffffffffffffffff60a01b87161789555160088110156110435760ff60a01b60a09190911b166001600160a81b0319861684178117895593519160058310156110325750506001600160b01b0319909316171760a89190911b60ff60a81b16178355516001830155516002918201559051825194855292840152820152426060820152600080516020611d1583398151915290608090a23880808080808680f35b634e487b7160e01b8f52602190528dfd5b50634e487b7160e01b8e52602182528dfd5b634e487b7160e01b8f528e8352838ffd5b50634e487b7160e01b8f5260418352838ffd5b845162461bcd60e51b81529081018690526014818401527310985919d948185b1c9958591e4819585c9b995960621b6044820152606490fd5b845162461bcd60e51b81529081018690526010818401526f4261646765206e6f742061637469766560801b6044820152606490fd5b506005845282872060038852845260ff838820541615610e52565b83915034610196576020908160031936011261045557600f5481358181111561131257509192905b61113383611ce8565b9261114086519485611931565b808452601f1961114f82611ce8565b01835b8181106112d9575050600380546001600160a01b039390841691855b8481106111e057505050505084519380850191818652845180935281878701950193905b83821061119f5786860387f35b845180518216875280840151878501528881015189880152606080820151908801526080908101519087015260a09095019493820193600190910190611192565b856111ee829a97989a611a64565b905490841b1c168a516317d0944f60e21b81528185820152602490888183818a5afa9081156112cf578c9161129e575b50828c52600a89528c8c205460078a528d8d205491600186019384871161128d5750908e6112849695949392815195611256876118e3565b86528c86015284015260608301526080820152611273828b611d00565b5261127e818a611d00565b50611cb7565b9795949761116e565b634e487b7160e01b8f52601189528efd5b90508881813d83116112c8575b6112b58183611931565b810103126112c457518d61121e565b8b80fd5b503d6112ab565b8d513d8e823e3d90fd5b958093949688516112e9816118e3565b8881528883820152888a8201528860608201528860808201528282890101520195939295611152565b905091929061112a565b50503461019657816003193601126101965751908152602090f35b50503461019657816003193601126101965760025490516001600160a01b039091168152602090f35b9050346104555781600319360112610455578160209360ff92611381611824565b903582528186528282206001600160a01b039091168252855220549151911615158152f35b5050346101965760ff6113d7602093836113bf3661189c565b6001600160a01b0390911683526005875291206118cb565b541690519015158152f35b905034610455576020366003190112610455573591600f54831015610313575061140d602092611a64565b905491519160018060a01b039160031b1c168152f35b90503461045557602036600319011261045557803560088110156114a257838391611491955282602052209160ff8354169261039061146460018301611953565b9261147160028401611953565b61038360ff600560038701549887015496015416958351998a809a61186c565b60c060208a015260c0890190611a24565b8380fd5b505034610196578160031936011261019657602090517fa49807205ce4d355092ef5a8a18f56e8913cf4a201fbe287825b095693c217758152f35b50503461019657816003193601126101965760035490516001600160a01b039091168152602090f35b5050346101965760203660031901126101965760209181906001600160a01b03611532611809565b1681526007845220549051908152f35b839150346101965760203660031901126101965761155e611809565b907fa49807205ce4d355092ef5a8a18f56e8913cf4a201fbe287825b095693c217758084528360205284842033855260205260ff8585205416156115ca5783610451846115c5600189600080516020611d3583398151915286528560205285200154611b03565b611b29565b6044925084519163e2517d3f60e01b835233908301526024820152fd5b50503461019657602080600319360112610455576080926001600160a01b0361160e611809565b168152600a82528281205492600b83528082205460078452818084205493600c865220549382519586528501528301526060820152f35b83833461019657806003193601126101965761165f611824565b90336001600160a01b0383160361167c5750610451919235611c42565b5163334bd91960e11b81528390fd5b9190503461045557806003193601126104555761045191356116b0600161043b611824565b611bc9565b90503461045557602036600319011261045557816020936001923581528085522001549051908152f35b5050346101965780600319360112610196576116f9611809565b6001600160a01b039081168352600660205281832080546024359492939290851015610313575060a09361172c9161183a565b50611763815460ff6002600185015494015494805196831687526117576020880183858b1c1661186c565b86019160a81c1661188f565b60608301526080820152f35b90503461045557602036600319011261045557359063ffffffff60e01b82168092036104555760209250637965db0b60e01b82149182156117b4575b50519015158152f35b6301ffc9a760e01b149150386117ab565b8490843461045557806003193601126104555760209260ff91906001600160a01b036117ef611809565b168152600985528181206024358252855220541615158152f35b600435906001600160a01b038216820361181f57565b600080fd5b602435906001600160a01b038216820361181f57565b8054821015611856576000526003602060002091020190600090565b634e487b7160e01b600052603260045260246000fd5b9060088210156118795752565b634e487b7160e01b600052602160045260246000fd5b9060058210156118795752565b604090600319011261181f576004356001600160a01b038116810361181f5790602435600881101561181f5790565b90600881101561187957600052602052604060002090565b60a0810190811067ffffffffffffffff8211176118ff57604052565b634e487b7160e01b600052604160045260246000fd5b60c0810190811067ffffffffffffffff8211176118ff57604052565b90601f8019910116810190811067ffffffffffffffff8211176118ff57604052565b90604051906000835490600182811c90808416968715611a1a575b6020948584108914611a0657879884899798995290816000146119e457506001146119a5575b5050506119a392500383611931565b565b600090815285812095935091905b8183106119cc5750506119a39350820101388080611994565b855488840185015294850194879450918301916119b3565b925050506119a394925060ff191682840152151560051b820101388080611994565b634e487b7160e01b85526022600452602485fd5b91607f169161196e565b919082519283825260005b848110611a50575050826000602080949584010152601f8019910116010190565b602081830181015184830182015201611a2f565b600f5481101561185657600f6000527f8d1108e10bcb7c27dddfc02ed9d693a074039d026cf4ea4240b40f7d581ac8020190600090565b3360009081527ff11d5cd6172e4d486247e8873a157a5cbd86d37171bf6cd250fc0a75f26713f96020526040902054600080516020611d358339815191529060ff1615611ae55750565b6044906040519063e2517d3f60e01b82523360048301526024820152fd5b80600052600060205260406000203360005260205260ff6040600020541615611ae55750565b6001600160a01b031660008181527ff11d5cd6172e4d486247e8873a157a5cbd86d37171bf6cd250fc0a75f26713f96020526040812054909190600080516020611d358339815191529060ff16611bc457808352826020526040832082845260205260408320600160ff198254161790557f2f8788117e7eff1d82e926ec794901d17c78024a50270940304540a733656f0d339380a4600190565b505090565b9060009180835282602052604083209160018060a01b03169182845260205260ff60408420541615600014611bc457808352826020526040832082845260205260408320600160ff198254161790557f2f8788117e7eff1d82e926ec794901d17c78024a50270940304540a733656f0d339380a4600190565b9060009180835282602052604083209160018060a01b03169182845260205260ff604084205416600014611bc45780835282602052604083208284526020526040832060ff1981541690557ff6391f5c32d9c69d2a47ea670b442974b53935d1edc7fd64eb21e047a839171b339380a4600190565b6000198114611cc65760010190565b634e487b7160e01b600052601160045260246000fd5b60088210156118795752565b67ffffffffffffffff81116118ff5760051b60200190565b80518210156118565760209160051b01019056fe5a0aea77dbb19681cf1560693d4b1a5d53bab702cd2a6b7bc0e46c4d3c3b29d4ef17b1f3c5a412f9c8e887e3abd186802afec7dc657fd3b7002bf87b128dd0b1a2646970667358221220a7d6f1946e1336d8f2f8a5a37451c79cf0206cf408cc42d68d5eaebe70a71cfe64736f6c634300081400332f8788117e7eff1d82e926ec794901d17c78024a50270940304540a733656f0d","opcodes":"PUSH1 0x80 CALLVALUE PUSH3 0x22EF JUMPI PUSH1 0x1F PUSH3 0x429E CODESIZE DUP2 SWAP1 SUB SWAP2 DUP3 ADD PUSH1 0x1F NOT AND DUP4 ADD SWAP2 PUSH1 0x1 PUSH1 0x1 PUSH1 0x40 SHL SUB DUP4 GT DUP5 DUP5 LT OR PUSH3 0x133D JUMPI DUP1 DUP5 SWAP3 PUSH1 0x40 SWAP5 DUP6 MSTORE DUP4 CODECOPY DUP2 ADD SUB SLT PUSH3 0x22EF JUMPI DUP1 MLOAD PUSH1 0x1 PUSH1 0x1 PUSH1 0xA0 SHL SUB SWAP2 DUP3 DUP3 AND SWAP2 DUP3 SWAP1 SUB PUSH3 0x22EF JUMPI PUSH1 0x20 ADD MLOAD SWAP2 DUP3 AND DUP1 SWAP3 SUB PUSH3 0x22EF JUMPI PUSH1 0x1 DUP1 SSTORE DUP1 ISZERO PUSH3 0x22AA JUMPI DUP2 ISZERO PUSH3 0x2265 JUMPI PUSH1 0x1 DUP1 PUSH1 0xA0 SHL SUB NOT SWAP1 DUP2 PUSH1 0x2 SLOAD AND OR PUSH1 0x2 SSTORE PUSH1 0x3 SLOAD AND OR PUSH1 0x3 SSTORE PUSH3 0x9E CALLER PUSH3 0x2334 JUMP JUMPDEST POP PUSH3 0xAA CALLER PUSH3 0x23B4 JUMP JUMPDEST POP PUSH3 0xB6 CALLER PUSH3 0x2456 JUMP JUMPDEST POP PUSH3 0xC1 PUSH3 0x22F4 JUMP JUMPDEST PUSH1 0x0 DUP2 MSTORE PUSH3 0xCF PUSH3 0x2314 JUMP JUMPDEST SWAP1 PUSH1 0xB DUP3 MSTORE PUSH11 0x4669727374205374657073 PUSH1 0xA8 SHL PUSH1 0x20 DUP4 ADD MSTORE PUSH1 0x20 DUP2 ADD SWAP2 DUP3 MSTORE PUSH3 0xF9 PUSH3 0x2314 JUMP JUMPDEST PUSH1 0x1A DUP2 MSTORE PUSH32 0x5375626D697420796F757220666972737420666565646261636B000000000000 PUSH1 0x20 DUP3 ADD MSTORE PUSH1 0x40 DUP3 ADD MSTORE PUSH1 0x32 PUSH1 0x60 DUP3 ADD MSTORE PUSH1 0x1 PUSH1 0x80 DUP3 ADD MSTORE PUSH1 0x1 PUSH1 0xA0 DUP3 ADD MSTORE PUSH1 0x0 DUP1 MSTORE PUSH1 0x4 PUSH1 0x20 MSTORE PUSH1 0x40 PUSH1 0x0 KECCAK256 SWAP2 DUP2 MLOAD PUSH1 0x8 DUP2 LT ISZERO PUSH3 0x1C0F JUMPI PUSH1 0xFF DUP1 NOT DUP6 SLOAD AND SWAP2 AND OR DUP4 SSTORE MLOAD SWAP2 DUP3 MLOAD PUSH1 0x1 DUP1 PUSH1 0x40 SHL SUB DUP2 GT PUSH3 0x133D JUMPI PUSH1 0x1 DUP3 ADD SLOAD PUSH1 0x1 DUP2 DUP2 SHR SWAP2 AND DUP1 ISZERO PUSH3 0x225A JUMPI JUMPDEST PUSH1 0x20 DUP3 LT EQ PUSH3 0x131C JUMPI PUSH1 0x1F DUP2 GT PUSH3 0x220E JUMPI JUMPDEST POP PUSH1 0x20 PUSH1 0x1F DUP3 GT PUSH1 0x1 EQ PUSH3 0x219B JUMPI DUP2 SWAP3 SWAP4 SWAP5 PUSH1 0x0 SWAP3 PUSH3 0x218F JUMPI JUMPDEST POP POP DUP2 PUSH1 0x1 SHL SWAP2 PUSH1 0x0 NOT SWAP1 PUSH1 0x3 SHL SHR NOT AND OR PUSH1 0x1 DUP3 ADD SSTORE JUMPDEST PUSH1 0x40 DUP3 ADD MLOAD DUP1 MLOAD SWAP1 PUSH1 0x1 PUSH1 0x1 PUSH1 0x40 SHL SUB DUP3 GT PUSH3 0x133D JUMPI PUSH1 0x2 DUP4 ADD SLOAD PUSH1 0x1 DUP2 DUP2 SHR SWAP2 AND DUP1 ISZERO PUSH3 0x2184 JUMPI JUMPDEST PUSH1 0x20 DUP3 LT EQ PUSH3 0x131C JUMPI PUSH1 0x1F DUP2 GT PUSH3 0x2138 JUMPI JUMPDEST POP PUSH1 0x20 SWAP1 PUSH1 0x1F DUP4 GT PUSH1 0x1 EQ PUSH3 0x20D5 JUMPI SWAP4 DUP3 PUSH1 0x5 SWAP4 PUSH1 0xA0 SWAP4 PUSH3 0x27A SWAP8 PUSH1 0x0 SWAP3 PUSH3 0x1246 JUMPI JUMPDEST POP POP DUP2 PUSH1 0x1 SHL SWAP2 PUSH1 0x0 NOT SWAP1 PUSH1 0x3 SHL SHR NOT AND OR PUSH1 0x2 DUP6 ADD SSTORE JUMPDEST PUSH1 0x60 DUP2 ADD MLOAD PUSH1 0x3 DUP6 ADD SSTORE PUSH1 0x80 DUP2 ADD MLOAD PUSH1 0x4 DUP6 ADD SSTORE ADD MLOAD ISZERO ISZERO SWAP2 ADD SWAP1 PUSH1 0xFF DUP1 NOT DUP4 SLOAD AND SWAP2 ISZERO ISZERO AND OR SWAP1 SSTORE JUMP JUMPDEST PUSH3 0x284 PUSH3 0x22F4 JUMP JUMPDEST PUSH1 0x1 DUP2 MSTORE PUSH3 0x292 PUSH3 0x2314 JUMP JUMPDEST SWAP1 PUSH1 0xF DUP3 MSTORE PUSH15 0x2332B2B23130B1B59026B0B9BA32B9 PUSH1 0x89 SHL PUSH1 0x20 DUP4 ADD MSTORE PUSH1 0x20 DUP2 ADD SWAP2 DUP3 MSTORE PUSH3 0x2C0 PUSH3 0x2314 JUMP JUMPDEST PUSH1 0x13 DUP2 MSTORE PUSH32 0x5375626D697420353020666565646261636B7300000000000000000000000000 PUSH1 0x20 DUP3 ADD MSTORE PUSH1 0x40 DUP3 ADD MSTORE PUSH2 0x1F4 PUSH1 0x60 DUP3 ADD MSTORE PUSH1 0x32 PUSH1 0x80 DUP3 ADD MSTORE PUSH1 0x1 PUSH1 0xA0 DUP3 ADD MSTORE PUSH1 0x1 PUSH1 0x0 MSTORE PUSH1 0x4 PUSH1 0x20 MSTORE PUSH1 0x40 PUSH1 0x0 KECCAK256 SWAP2 DUP2 MLOAD PUSH1 0x8 DUP2 LT ISZERO PUSH3 0x1C0F JUMPI PUSH1 0xFF DUP1 NOT DUP6 SLOAD AND SWAP2 AND OR DUP4 SSTORE MLOAD SWAP2 DUP3 MLOAD PUSH1 0x1 DUP1 PUSH1 0x40 SHL SUB DUP2 GT PUSH3 0x133D JUMPI PUSH1 0x1 DUP3 ADD SLOAD PUSH1 0x1 DUP2 DUP2 SHR SWAP2 AND DUP1 ISZERO PUSH3 0x20CA JUMPI JUMPDEST PUSH1 0x20 DUP3 LT EQ PUSH3 0x131C JUMPI PUSH1 0x1F DUP2 GT PUSH3 0x207E JUMPI JUMPDEST POP PUSH1 0x20 PUSH1 0x1F DUP3 GT PUSH1 0x1 EQ PUSH3 0x200B JUMPI DUP2 SWAP3 SWAP4 SWAP5 PUSH1 0x0 SWAP3 PUSH3 0x1FFF JUMPI JUMPDEST POP POP DUP2 PUSH1 0x1 SHL SWAP2 PUSH1 0x0 NOT SWAP1 PUSH1 0x3 SHL SHR NOT AND OR PUSH1 0x1 DUP3 ADD SSTORE JUMPDEST PUSH1 0x40 DUP3 ADD MLOAD DUP1 MLOAD SWAP1 PUSH1 0x1 PUSH1 0x1 PUSH1 0x40 SHL SUB DUP3 GT PUSH3 0x133D JUMPI PUSH1 0x2 DUP4 ADD SLOAD PUSH1 0x1 DUP2 DUP2 SHR SWAP2 AND DUP1 ISZERO PUSH3 0x1FF4 JUMPI JUMPDEST PUSH1 0x20 DUP3 LT EQ PUSH3 0x131C JUMPI PUSH1 0x1F DUP2 GT PUSH3 0x1FA8 JUMPI JUMPDEST POP PUSH1 0x20 SWAP1 PUSH1 0x1F DUP4 GT PUSH1 0x1 EQ PUSH3 0x1F45 JUMPI SWAP4 DUP3 PUSH1 0x5 SWAP4 PUSH1 0xA0 SWAP4 PUSH3 0x441 SWAP8 PUSH1 0x0 SWAP3 PUSH3 0x1246 JUMPI POP POP DUP2 PUSH1 0x1 SHL SWAP2 PUSH1 0x0 NOT SWAP1 PUSH1 0x3 SHL SHR NOT AND OR PUSH1 0x2 DUP6 ADD SSTORE PUSH1 0x60 DUP2 ADD MLOAD PUSH1 0x3 DUP6 ADD SSTORE PUSH1 0x80 DUP2 ADD MLOAD PUSH1 0x4 DUP6 ADD SSTORE ADD MLOAD ISZERO ISZERO SWAP2 ADD SWAP1 PUSH1 0xFF DUP1 NOT DUP4 SLOAD AND SWAP2 ISZERO ISZERO AND OR SWAP1 SSTORE JUMP JUMPDEST PUSH3 0x44B PUSH3 0x22F4 JUMP JUMPDEST PUSH1 0x2 DUP2 MSTORE PUSH3 0x459 PUSH3 0x2314 JUMP JUMPDEST SWAP1 PUSH1 0x13 DUP3 MSTORE PUSH32 0x5175616C69747920436F6E7472696275746F7200000000000000000000000000 PUSH1 0x20 DUP4 ADD MSTORE PUSH1 0x20 DUP2 ADD SWAP2 DUP3 MSTORE PUSH3 0x495 PUSH3 0x2314 JUMP JUMPDEST PUSH1 0x20 DUP2 MSTORE PUSH32 0x5375626D697420313020686967682D7175616C69747920666565646261636B73 PUSH1 0x20 DUP3 ADD MSTORE PUSH1 0x40 DUP3 ADD MSTORE PUSH2 0x12C PUSH1 0x60 DUP3 ADD MSTORE PUSH1 0xA PUSH1 0x80 DUP3 ADD MSTORE PUSH1 0x1 PUSH1 0xA0 DUP3 ADD MSTORE PUSH1 0x2 PUSH1 0x0 MSTORE PUSH1 0x4 PUSH1 0x20 MSTORE PUSH1 0x40 PUSH1 0x0 KECCAK256 SWAP2 DUP2 MLOAD PUSH1 0x8 DUP2 LT ISZERO PUSH3 0x1C0F JUMPI PUSH1 0xFF DUP1 NOT DUP6 SLOAD AND SWAP2 AND OR DUP4 SSTORE MLOAD SWAP2 DUP3 MLOAD PUSH1 0x1 DUP1 PUSH1 0x40 SHL SUB DUP2 GT PUSH3 0x133D JUMPI PUSH1 0x1 DUP3 ADD SLOAD PUSH1 0x1 DUP2 DUP2 SHR SWAP2 AND DUP1 ISZERO PUSH3 0x1F3A JUMPI JUMPDEST PUSH1 0x20 DUP3 LT EQ PUSH3 0x131C JUMPI PUSH1 0x1F DUP2 GT PUSH3 0x1EEE JUMPI JUMPDEST POP PUSH1 0x20 PUSH1 0x1F DUP3 GT PUSH1 0x1 EQ PUSH3 0x1E7B JUMPI DUP2 SWAP3 SWAP4 SWAP5 PUSH1 0x0 SWAP3 PUSH3 0x1E6F JUMPI JUMPDEST POP POP DUP2 PUSH1 0x1 SHL SWAP2 PUSH1 0x0 NOT SWAP1 PUSH1 0x3 SHL SHR NOT AND OR PUSH1 0x1 DUP3 ADD SSTORE JUMPDEST PUSH1 0x40 DUP3 ADD MLOAD DUP1 MLOAD SWAP1 PUSH1 0x1 PUSH1 0x1 PUSH1 0x40 SHL SUB DUP3 GT PUSH3 0x133D JUMPI PUSH1 0x2 DUP4 ADD SLOAD PUSH1 0x1 DUP2 DUP2 SHR SWAP2 AND DUP1 ISZERO PUSH3 0x1E64 JUMPI JUMPDEST PUSH1 0x20 DUP3 LT EQ PUSH3 0x131C JUMPI PUSH1 0x1F DUP2 GT PUSH3 0x1E18 JUMPI JUMPDEST POP PUSH1 0x20 SWAP1 PUSH1 0x1F DUP4 GT PUSH1 0x1 EQ PUSH3 0x1DB5 JUMPI SWAP4 DUP3 PUSH1 0x5 SWAP4 PUSH1 0xA0 SWAP4 PUSH3 0x616 SWAP8 PUSH1 0x0 SWAP3 PUSH3 0x1246 JUMPI POP POP DUP2 PUSH1 0x1 SHL SWAP2 PUSH1 0x0 NOT SWAP1 PUSH1 0x3 SHL SHR NOT AND OR PUSH1 0x2 DUP6 ADD SSTORE PUSH1 0x60 DUP2 ADD MLOAD PUSH1 0x3 DUP6 ADD SSTORE PUSH1 0x80 DUP2 ADD MLOAD PUSH1 0x4 DUP6 ADD SSTORE ADD MLOAD ISZERO ISZERO SWAP2 ADD SWAP1 PUSH1 0xFF DUP1 NOT DUP4 SLOAD AND SWAP2 ISZERO ISZERO AND OR SWAP1 SSTORE JUMP JUMPDEST PUSH3 0x620 PUSH3 0x22F4 JUMP JUMPDEST PUSH1 0x3 DUP2 MSTORE PUSH3 0x62E PUSH3 0x2314 JUMP JUMPDEST SWAP1 PUSH1 0x14 DUP3 MSTORE PUSH32 0x436F6E73697374656E6379204368616D70696F6E000000000000000000000000 PUSH1 0x20 DUP4 ADD MSTORE PUSH1 0x20 DUP2 ADD SWAP2 DUP3 MSTORE PUSH3 0x66A PUSH3 0x2314 JUMP JUMPDEST PUSH1 0x1E DUP2 MSTORE PUSH32 0x41637469766520666F7220333020636F6E736563757469766520646179730000 PUSH1 0x20 DUP3 ADD MSTORE PUSH1 0x40 DUP3 ADD MSTORE PUSH2 0x190 PUSH1 0x60 DUP3 ADD MSTORE PUSH1 0x1E PUSH1 0x80 DUP3 ADD MSTORE PUSH1 0x1 PUSH1 0xA0 DUP3 ADD MSTORE PUSH1 0x3 PUSH1 0x0 MSTORE PUSH1 0x4 PUSH1 0x20 MSTORE PUSH1 0x40 PUSH1 0x0 KECCAK256 SWAP2 DUP2 MLOAD PUSH1 0x8 DUP2 LT ISZERO PUSH3 0x1C0F JUMPI PUSH1 0xFF DUP1 NOT DUP6 SLOAD AND SWAP2 AND OR DUP4 SSTORE MLOAD SWAP2 DUP3 MLOAD PUSH1 0x1 DUP1 PUSH1 0x40 SHL SUB DUP2 GT PUSH3 0x133D JUMPI PUSH1 0x1 DUP3 ADD SLOAD PUSH1 0x1 DUP2 DUP2 SHR SWAP2 AND DUP1 ISZERO PUSH3 0x1DAA JUMPI JUMPDEST PUSH1 0x20 DUP3 LT EQ PUSH3 0x131C JUMPI PUSH1 0x1F DUP2 GT PUSH3 0x1D5E JUMPI JUMPDEST POP PUSH1 0x20 PUSH1 0x1F DUP3 GT PUSH1 0x1 EQ PUSH3 0x1CEB JUMPI DUP2 SWAP3 SWAP4 SWAP5 PUSH1 0x0 SWAP3 PUSH3 0x1CDF JUMPI JUMPDEST POP POP DUP2 PUSH1 0x1 SHL SWAP2 PUSH1 0x0 NOT SWAP1 PUSH1 0x3 SHL SHR NOT AND OR PUSH1 0x1 DUP3 ADD SSTORE JUMPDEST PUSH1 0x40 DUP3 ADD MLOAD DUP1 MLOAD SWAP1 PUSH1 0x1 PUSH1 0x1 PUSH1 0x40 SHL SUB DUP3 GT PUSH3 0x133D JUMPI PUSH1 0x2 DUP4 ADD SLOAD PUSH1 0x1 DUP2 DUP2 SHR SWAP2 AND DUP1 ISZERO PUSH3 0x1CD4 JUMPI JUMPDEST PUSH1 0x20 DUP3 LT EQ PUSH3 0x131C JUMPI PUSH1 0x1F DUP2 GT PUSH3 0x1C88 JUMPI JUMPDEST POP PUSH1 0x20 SWAP1 PUSH1 0x1F DUP4 GT PUSH1 0x1 EQ PUSH3 0x1C25 JUMPI SWAP4 DUP3 PUSH1 0x5 SWAP4 PUSH1 0xA0 SWAP4 PUSH3 0x7EB SWAP8 PUSH1 0x0 SWAP3 PUSH3 0x1246 JUMPI POP POP DUP2 PUSH1 0x1 SHL SWAP2 PUSH1 0x0 NOT SWAP1 PUSH1 0x3 SHL SHR NOT AND OR PUSH1 0x2 DUP6 ADD SSTORE PUSH1 0x60 DUP2 ADD MLOAD PUSH1 0x3 DUP6 ADD SSTORE PUSH1 0x80 DUP2 ADD MLOAD PUSH1 0x4 DUP6 ADD SSTORE ADD MLOAD ISZERO ISZERO SWAP2 ADD SWAP1 PUSH1 0xFF DUP1 NOT DUP4 SLOAD AND SWAP2 ISZERO ISZERO AND OR SWAP1 SSTORE JUMP JUMPDEST PUSH3 0x7F5 PUSH3 0x22F4 JUMP JUMPDEST PUSH1 0x4 DUP2 MSTORE PUSH3 0x803 PUSH3 0x2314 JUMP JUMPDEST SWAP1 PUSH1 0x10 DUP3 MSTORE PUSH16 0x21B7B6B6BAB734BA3C902432B63832B9 PUSH1 0x81 SHL PUSH1 0x20 DUP4 ADD MSTORE PUSH1 0x20 DUP2 ADD SWAP2 DUP3 MSTORE PUSH3 0x832 PUSH3 0x2314 JUMP JUMPDEST PUSH1 0x1D DUP2 MSTORE PUSH32 0x48656C7020766572696679203230207065657220666565646261636B73000000 PUSH1 0x20 DUP3 ADD MSTORE PUSH1 0x40 DUP3 ADD MSTORE PUSH1 0xFA PUSH1 0x60 DUP3 ADD MSTORE PUSH1 0x14 PUSH1 0x80 DUP3 ADD MSTORE PUSH1 0x1 PUSH1 0xA0 DUP3 ADD MSTORE PUSH1 0x4 PUSH1 0x0 MSTORE PUSH1 0x4 PUSH1 0x20 MSTORE PUSH1 0x40 PUSH1 0x0 KECCAK256 SWAP2 DUP2 MLOAD PUSH1 0x8 DUP2 LT ISZERO PUSH3 0x1C0F JUMPI PUSH1 0xFF DUP1 NOT DUP6 SLOAD AND SWAP2 AND OR DUP4 SSTORE MLOAD SWAP2 DUP3 MLOAD PUSH1 0x1 DUP1 PUSH1 0x40 SHL SUB DUP2 GT PUSH3 0x133D JUMPI PUSH1 0x1 DUP3 ADD SLOAD PUSH1 0x1 DUP2 DUP2 SHR SWAP2 AND DUP1 ISZERO PUSH3 0x1C04 JUMPI JUMPDEST PUSH1 0x20 DUP3 LT EQ PUSH3 0x131C JUMPI PUSH1 0x1F DUP2 GT PUSH3 0x1BB8 JUMPI JUMPDEST POP PUSH1 0x20 PUSH1 0x1F DUP3 GT PUSH1 0x1 EQ PUSH3 0x1B45 JUMPI DUP2 SWAP3 SWAP4 SWAP5 PUSH1 0x0 SWAP3 PUSH3 0x1B39 JUMPI JUMPDEST POP POP DUP2 PUSH1 0x1 SHL SWAP2 PUSH1 0x0 NOT SWAP1 PUSH1 0x3 SHL SHR NOT AND OR PUSH1 0x1 DUP3 ADD SSTORE JUMPDEST PUSH1 0x40 DUP3 ADD MLOAD DUP1 MLOAD SWAP1 PUSH1 0x1 PUSH1 0x1 PUSH1 0x40 SHL SUB DUP3 GT PUSH3 0x133D JUMPI PUSH1 0x2 DUP4 ADD SLOAD PUSH1 0x1 DUP2 DUP2 SHR SWAP2 AND DUP1 ISZERO PUSH3 0x1B2E JUMPI JUMPDEST PUSH1 0x20 DUP3 LT EQ PUSH3 0x131C JUMPI PUSH1 0x1F DUP2 GT PUSH3 0x1AE2 JUMPI JUMPDEST POP PUSH1 0x20 SWAP1 PUSH1 0x1F DUP4 GT PUSH1 0x1 EQ PUSH3 0x1A7F JUMPI SWAP4 DUP3 PUSH1 0x5 SWAP4 PUSH1 0xA0 SWAP4 PUSH3 0x9B2 SWAP8 PUSH1 0x0 SWAP3 PUSH3 0x1246 JUMPI POP POP DUP2 PUSH1 0x1 SHL SWAP2 PUSH1 0x0 NOT SWAP1 PUSH1 0x3 SHL SHR NOT AND OR PUSH1 0x2 DUP6 ADD SSTORE PUSH1 0x60 DUP2 ADD MLOAD PUSH1 0x3 DUP6 ADD SSTORE PUSH1 0x80 DUP2 ADD MLOAD PUSH1 0x4 DUP6 ADD SSTORE ADD MLOAD ISZERO ISZERO SWAP2 ADD SWAP1 PUSH1 0xFF DUP1 NOT DUP4 SLOAD AND SWAP2 ISZERO ISZERO AND OR SWAP1 SSTORE JUMP JUMPDEST PUSH3 0x9BC PUSH3 0x2314 JUMP JUMPDEST PUSH1 0x6 DUP2 MSTORE PUSH6 0x4E6F76696365 PUSH1 0xD0 SHL PUSH1 0x20 DUP3 ADD MSTORE PUSH3 0x9D9 PUSH3 0x2314 JUMP JUMPDEST PUSH1 0x10 DUP2 MSTORE PUSH16 0x4561726E203130303020706F696E7473 PUSH1 0x80 SHL PUSH1 0x20 DUP3 ADD MSTORE PUSH1 0xE SLOAD PUSH1 0x0 NOT DUP2 EQ PUSH3 0x1429 JUMPI PUSH1 0x1 SWAP2 DUP3 DUP3 ADD PUSH1 0xE SSTORE PUSH3 0xA16 PUSH3 0x22F4 JUMP JUMPDEST SWAP4 DUP4 DUP4 ADD DUP6 MSTORE PUSH1 0x20 DUP6 ADD MSTORE PUSH1 0x40 DUP5 ADD MSTORE PUSH2 0x3E8 PUSH1 0x60 DUP5 ADD MSTORE PUSH1 0x64 PUSH1 0x80 DUP5 ADD MSTORE DUP2 PUSH1 0xA0 DUP5 ADD MSTORE ADD PUSH1 0x0 MSTORE PUSH1 0x8 PUSH1 0x20 MSTORE PUSH1 0x40 PUSH1 0x0 KECCAK256 SWAP1 DUP1 MLOAD DUP3 SSTORE PUSH1 0x20 DUP2 ADD MLOAD SWAP2 DUP3 MLOAD PUSH1 0x1 DUP1 PUSH1 0x40 SHL SUB DUP2 GT PUSH3 0x133D JUMPI PUSH1 0x1 DUP3 ADD SLOAD PUSH1 0x1 DUP2 DUP2 SHR SWAP2 AND DUP1 ISZERO PUSH3 0x1A74 JUMPI JUMPDEST PUSH1 0x20 DUP3 LT EQ PUSH3 0x131C JUMPI PUSH1 0x1F DUP2 GT PUSH3 0x1A28 JUMPI JUMPDEST POP PUSH1 0x20 PUSH1 0x1F DUP3 GT PUSH1 0x1 EQ PUSH3 0x19B5 JUMPI DUP2 SWAP3 SWAP4 SWAP5 PUSH1 0x0 SWAP3 PUSH3 0x19A9 JUMPI JUMPDEST POP POP DUP2 PUSH1 0x1 SHL SWAP2 PUSH1 0x0 NOT SWAP1 PUSH1 0x3 SHL SHR NOT AND OR PUSH1 0x1 DUP3 ADD SSTORE JUMPDEST PUSH1 0x40 DUP3 ADD MLOAD DUP1 MLOAD SWAP1 PUSH1 0x1 PUSH1 0x1 PUSH1 0x40 SHL SUB DUP3 GT PUSH3 0x133D JUMPI PUSH1 0x2 DUP4 ADD SLOAD PUSH1 0x1 DUP2 DUP2 SHR SWAP2 AND DUP1 ISZERO PUSH3 0x199E JUMPI JUMPDEST PUSH1 0x20 DUP3 LT EQ PUSH3 0x131C JUMPI PUSH1 0x1F DUP2 GT PUSH3 0x1952 JUMPI JUMPDEST POP PUSH1 0x20 SWAP1 PUSH1 0x1F DUP4 GT PUSH1 0x1 EQ PUSH3 0x18EF JUMPI SWAP4 DUP3 PUSH1 0x5 SWAP4 PUSH1 0xA0 SWAP4 PUSH3 0xB66 SWAP8 PUSH1 0x0 SWAP3 PUSH3 0x1246 JUMPI POP POP DUP2 PUSH1 0x1 SHL SWAP2 PUSH1 0x0 NOT SWAP1 PUSH1 0x3 SHL SHR NOT AND OR PUSH1 0x2 DUP6 ADD SSTORE PUSH1 0x60 DUP2 ADD MLOAD PUSH1 0x3 DUP6 ADD SSTORE PUSH1 0x80 DUP2 ADD MLOAD PUSH1 0x4 DUP6 ADD SSTORE ADD MLOAD ISZERO ISZERO SWAP2 ADD SWAP1 PUSH1 0xFF DUP1 NOT DUP4 SLOAD AND SWAP2 ISZERO ISZERO AND OR SWAP1 SSTORE JUMP JUMPDEST PUSH3 0xB70 PUSH3 0x2314 JUMP JUMPDEST PUSH1 0xB DUP2 MSTORE PUSH11 0x21B7B73A3934B13ABA37B9 PUSH1 0xA9 SHL PUSH1 0x20 DUP3 ADD MSTORE PUSH3 0xB92 PUSH3 0x2314 JUMP JUMPDEST PUSH1 0x10 DUP2 MSTORE PUSH16 0x4561726E203530303020706F696E7473 PUSH1 0x80 SHL PUSH1 0x20 DUP3 ADD MSTORE PUSH1 0xE SLOAD PUSH1 0x0 NOT DUP2 EQ PUSH3 0x1429 JUMPI PUSH1 0x1 SWAP2 DUP3 DUP3 ADD PUSH1 0xE SSTORE PUSH3 0xBCF PUSH3 0x22F4 JUMP JUMPDEST SWAP4 DUP4 DUP4 ADD DUP6 MSTORE PUSH1 0x20 DUP6 ADD MSTORE PUSH1 0x40 DUP5 ADD MSTORE PUSH2 0x1388 PUSH1 0x60 DUP5 ADD MSTORE PUSH2 0x1F4 PUSH1 0x80 DUP5 ADD MSTORE DUP2 PUSH1 0xA0 DUP5 ADD MSTORE ADD PUSH1 0x0 MSTORE PUSH1 0x8 PUSH1 0x20 MSTORE PUSH1 0x40 PUSH1 0x0 KECCAK256 SWAP1 DUP1 MLOAD DUP3 SSTORE PUSH1 0x20 DUP2 ADD MLOAD SWAP2 DUP3 MLOAD PUSH1 0x1 DUP1 PUSH1 0x40 SHL SUB DUP2 GT PUSH3 0x133D JUMPI PUSH1 0x1 DUP3 ADD SLOAD PUSH1 0x1 DUP2 DUP2 SHR SWAP2 AND DUP1 ISZERO PUSH3 0x18E4 JUMPI JUMPDEST PUSH1 0x20 DUP3 LT EQ PUSH3 0x131C JUMPI PUSH1 0x1F DUP2 GT PUSH3 0x1898 JUMPI JUMPDEST POP PUSH1 0x20 PUSH1 0x1F DUP3 GT PUSH1 0x1 EQ PUSH3 0x1825 JUMPI DUP2 SWAP3 SWAP4 SWAP5 PUSH1 0x0 SWAP3 PUSH3 0x1819 JUMPI JUMPDEST POP POP DUP2 PUSH1 0x1 SHL SWAP2 PUSH1 0x0 NOT SWAP1 PUSH1 0x3 SHL SHR NOT AND OR PUSH1 0x1 DUP3 ADD SSTORE JUMPDEST PUSH1 0x40 DUP3 ADD MLOAD DUP1 MLOAD SWAP1 PUSH1 0x1 PUSH1 0x1 PUSH1 0x40 SHL SUB DUP3 GT PUSH3 0x133D JUMPI PUSH1 0x2 DUP4 ADD SLOAD PUSH1 0x1 DUP2 DUP2 SHR SWAP2 AND DUP1 ISZERO PUSH3 0x180E JUMPI JUMPDEST PUSH1 0x20 DUP3 LT EQ PUSH3 0x131C JUMPI PUSH1 0x1F DUP2 GT PUSH3 0x17C2 JUMPI JUMPDEST POP PUSH1 0x20 SWAP1 PUSH1 0x1F DUP4 GT PUSH1 0x1 EQ PUSH3 0x175F JUMPI SWAP4 DUP3 PUSH1 0x5 SWAP4 PUSH1 0xA0 SWAP4 PUSH3 0xD20 SWAP8 PUSH1 0x0 SWAP3 PUSH3 0x1246 JUMPI POP POP DUP2 PUSH1 0x1 SHL SWAP2 PUSH1 0x0 NOT SWAP1 PUSH1 0x3 SHL SHR NOT AND OR PUSH1 0x2 DUP6 ADD SSTORE PUSH1 0x60 DUP2 ADD MLOAD PUSH1 0x3 DUP6 ADD SSTORE PUSH1 0x80 DUP2 ADD MLOAD PUSH1 0x4 DUP6 ADD SSTORE ADD MLOAD ISZERO ISZERO SWAP2 ADD SWAP1 PUSH1 0xFF DUP1 NOT DUP4 SLOAD AND SWAP2 ISZERO ISZERO AND OR SWAP1 SSTORE JUMP JUMPDEST PUSH3 0xD2A PUSH3 0x2314 JUMP JUMPDEST PUSH1 0x6 DUP2 MSTORE PUSH6 0x115E1C195C9D PUSH1 0xD2 SHL PUSH1 0x20 DUP3 ADD MSTORE PUSH3 0xD47 PUSH3 0x2314 JUMP JUMPDEST PUSH1 0x11 DUP2 MSTORE PUSH17 0x4561726E20313030303020706F696E7473 PUSH1 0x78 SHL PUSH1 0x20 DUP3 ADD MSTORE PUSH1 0xE SLOAD PUSH1 0x0 NOT DUP2 EQ PUSH3 0x1429 JUMPI PUSH1 0x1 ADD DUP1 PUSH1 0xE SSTORE PUSH3 0xD83 PUSH3 0x22F4 JUMP JUMPDEST SWAP2 DUP2 DUP4 MSTORE PUSH1 0x20 DUP4 ADD SWAP4 DUP5 MSTORE PUSH1 0x40 DUP4 ADD MSTORE PUSH2 0x2710 PUSH1 0x60 DUP4 ADD MSTORE PUSH2 0x3E8 PUSH1 0x80 DUP4 ADD MSTORE PUSH1 0x1 PUSH1 0xA0 DUP4 ADD MSTORE PUSH1 0x0 MSTORE PUSH1 0x8 PUSH1 0x20 MSTORE PUSH1 0x40 PUSH1 0x0 KECCAK256 SWAP2 DUP2 MLOAD DUP4 SSTORE MLOAD SWAP2 DUP3 MLOAD PUSH1 0x1 DUP1 PUSH1 0x40 SHL SUB DUP2 GT PUSH3 0x133D JUMPI PUSH1 0x1 DUP3 ADD SLOAD PUSH1 0x1 DUP2 DUP2 SHR SWAP2 AND DUP1 ISZERO PUSH3 0x1754 JUMPI JUMPDEST PUSH1 0x20 DUP3 LT EQ PUSH3 0x131C JUMPI PUSH1 0x1F DUP2 GT PUSH3 0x1708 JUMPI JUMPDEST POP PUSH1 0x20 PUSH1 0x1F DUP3 GT PUSH1 0x1 EQ PUSH3 0x1695 JUMPI DUP2 SWAP3 SWAP4 SWAP5 PUSH1 0x0 SWAP3 PUSH3 0x1689 JUMPI JUMPDEST POP POP DUP2 PUSH1 0x1 SHL SWAP2 PUSH1 0x0 NOT SWAP1 PUSH1 0x3 SHL SHR NOT AND OR PUSH1 0x1 DUP3 ADD SSTORE JUMPDEST PUSH1 0x40 DUP3 ADD MLOAD DUP1 MLOAD SWAP1 PUSH1 0x1 PUSH1 0x1 PUSH1 0x40 SHL SUB DUP3 GT PUSH3 0x133D JUMPI PUSH1 0x2 DUP4 ADD SLOAD PUSH1 0x1 DUP2 DUP2 SHR SWAP2 AND DUP1 ISZERO PUSH3 0x167E JUMPI JUMPDEST PUSH1 0x20 DUP3 LT EQ PUSH3 0x131C JUMPI PUSH1 0x1F DUP2 GT PUSH3 0x1632 JUMPI JUMPDEST POP PUSH1 0x20 SWAP1 PUSH1 0x1F DUP4 GT PUSH1 0x1 EQ PUSH3 0x15CF JUMPI SWAP4 DUP3 PUSH1 0x5 SWAP4 PUSH1 0xA0 SWAP4 PUSH3 0xED0 SWAP8 PUSH1 0x0 SWAP3 PUSH3 0x1246 JUMPI POP POP DUP2 PUSH1 0x1 SHL SWAP2 PUSH1 0x0 NOT SWAP1 PUSH1 0x3 SHL SHR NOT AND OR PUSH1 0x2 DUP6 ADD SSTORE PUSH1 0x60 DUP2 ADD MLOAD PUSH1 0x3 DUP6 ADD SSTORE PUSH1 0x80 DUP2 ADD MLOAD PUSH1 0x4 DUP6 ADD SSTORE ADD MLOAD ISZERO ISZERO SWAP2 ADD SWAP1 PUSH1 0xFF DUP1 NOT DUP4 SLOAD AND SWAP2 ISZERO ISZERO AND OR SWAP1 SSTORE JUMP JUMPDEST PUSH3 0xEDA PUSH3 0x2314 JUMP JUMPDEST PUSH1 0x6 DUP2 MSTORE PUSH6 0x26B0B9BA32B9 PUSH1 0xD1 SHL PUSH1 0x20 DUP3 ADD MSTORE PUSH3 0xEF7 PUSH3 0x2314 JUMP JUMPDEST PUSH1 0x11 DUP2 MSTORE PUSH17 0x4561726E20323530303020706F696E7473 PUSH1 0x78 SHL PUSH1 0x20 DUP3 ADD MSTORE PUSH1 0xE SLOAD PUSH1 0x0 NOT DUP2 EQ PUSH3 0x1429 JUMPI PUSH1 0x1 ADD DUP1 PUSH1 0xE SSTORE PUSH3 0xF33 PUSH3 0x22F4 JUMP JUMPDEST SWAP2 DUP2 DUP4 MSTORE PUSH1 0x20 DUP4 ADD SWAP4 DUP5 MSTORE PUSH1 0x40 DUP4 ADD MSTORE PUSH2 0x61A8 PUSH1 0x60 DUP4 ADD MSTORE PUSH2 0x9C4 PUSH1 0x80 DUP4 ADD MSTORE PUSH1 0x1 PUSH1 0xA0 DUP4 ADD MSTORE PUSH1 0x0 MSTORE PUSH1 0x8 PUSH1 0x20 MSTORE PUSH1 0x40 PUSH1 0x0 KECCAK256 SWAP2 DUP2 MLOAD DUP4 SSTORE MLOAD SWAP2 DUP3 MLOAD PUSH1 0x1 DUP1 PUSH1 0x40 SHL SUB DUP2 GT PUSH3 0x133D JUMPI PUSH1 0x1 DUP3 ADD SLOAD PUSH1 0x1 DUP2 DUP2 SHR SWAP2 AND DUP1 ISZERO PUSH3 0x15C4 JUMPI JUMPDEST PUSH1 0x20 DUP3 LT EQ PUSH3 0x131C JUMPI PUSH1 0x1F DUP2 GT PUSH3 0x1578 JUMPI JUMPDEST POP PUSH1 0x20 PUSH1 0x1F DUP3 GT PUSH1 0x1 EQ PUSH3 0x1505 JUMPI DUP2 SWAP3 SWAP4 SWAP5 PUSH1 0x0 SWAP3 PUSH3 0x14F9 JUMPI JUMPDEST POP POP DUP2 PUSH1 0x1 SHL SWAP2 PUSH1 0x0 NOT SWAP1 PUSH1 0x3 SHL SHR NOT AND OR PUSH1 0x1 DUP3 ADD SSTORE JUMPDEST PUSH1 0x40 DUP3 ADD MLOAD DUP1 MLOAD SWAP1 PUSH1 0x1 PUSH1 0x1 PUSH1 0x40 SHL SUB DUP3 GT PUSH3 0x133D JUMPI PUSH1 0x2 DUP4 ADD SLOAD PUSH1 0x1 DUP2 DUP2 SHR SWAP2 AND DUP1 ISZERO PUSH3 0x14EE JUMPI JUMPDEST PUSH1 0x20 DUP3 LT EQ PUSH3 0x131C JUMPI PUSH1 0x1F DUP2 GT PUSH3 0x14A2 JUMPI JUMPDEST POP PUSH1 0x20 SWAP1 PUSH1 0x1F DUP4 GT PUSH1 0x1 EQ PUSH3 0x143F JUMPI SWAP4 DUP3 PUSH1 0x5 SWAP4 PUSH1 0xA0 SWAP4 PUSH3 0x1080 SWAP8 PUSH1 0x0 SWAP3 PUSH3 0x1246 JUMPI POP POP DUP2 PUSH1 0x1 SHL SWAP2 PUSH1 0x0 NOT SWAP1 PUSH1 0x3 SHL SHR NOT AND OR PUSH1 0x2 DUP6 ADD SSTORE PUSH1 0x60 DUP2 ADD MLOAD PUSH1 0x3 DUP6 ADD SSTORE PUSH1 0x80 DUP2 ADD MLOAD PUSH1 0x4 DUP6 ADD SSTORE ADD MLOAD ISZERO ISZERO SWAP2 ADD SWAP1 PUSH1 0xFF DUP1 NOT DUP4 SLOAD AND SWAP2 ISZERO ISZERO AND OR SWAP1 SSTORE JUMP JUMPDEST PUSH3 0x108A PUSH3 0x2314 JUMP JUMPDEST PUSH1 0x6 DUP2 MSTORE PUSH6 0x131959D95B99 PUSH1 0xD2 SHL PUSH1 0x20 DUP3 ADD MSTORE PUSH3 0x10A7 PUSH3 0x2314 JUMP JUMPDEST PUSH1 0x11 DUP2 MSTORE PUSH17 0x4561726E20353030303020706F696E7473 PUSH1 0x78 SHL PUSH1 0x20 DUP3 ADD MSTORE PUSH1 0xE SLOAD PUSH1 0x0 NOT DUP2 EQ PUSH3 0x1429 JUMPI PUSH1 0x1 SWAP2 DUP3 DUP3 ADD PUSH1 0xE SSTORE PUSH3 0x10E5 PUSH3 0x22F4 JUMP JUMPDEST SWAP4 DUP4 DUP4 ADD DUP6 MSTORE PUSH1 0x20 DUP6 ADD MSTORE PUSH1 0x40 DUP5 ADD MSTORE PUSH2 0xC350 PUSH1 0x60 DUP5 ADD MSTORE PUSH2 0x1388 PUSH1 0x80 DUP5 ADD MSTORE DUP2 PUSH1 0xA0 DUP5 ADD MSTORE ADD PUSH1 0x0 MSTORE PUSH1 0x8 PUSH1 0x20 MSTORE PUSH1 0x40 PUSH1 0x0 KECCAK256 SWAP1 DUP1 MLOAD DUP3 SSTORE PUSH1 0x20 DUP2 ADD MLOAD SWAP2 DUP3 MLOAD PUSH1 0x1 DUP1 PUSH1 0x40 SHL SUB DUP2 GT PUSH3 0x133D JUMPI PUSH1 0x1 DUP3 ADD SLOAD PUSH1 0x1 DUP2 DUP2 SHR SWAP2 AND DUP1 ISZERO PUSH3 0x141E JUMPI JUMPDEST PUSH1 0x20 DUP3 LT EQ PUSH3 0x131C JUMPI PUSH1 0x1F DUP2 GT PUSH3 0x13D2 JUMPI JUMPDEST POP PUSH1 0x20 PUSH1 0x1F DUP3 GT PUSH1 0x1 EQ PUSH3 0x135F JUMPI DUP2 SWAP3 SWAP4 SWAP5 PUSH1 0x0 SWAP3 PUSH3 0x1353 JUMPI JUMPDEST POP POP DUP2 PUSH1 0x1 SHL SWAP2 PUSH1 0x0 NOT SWAP1 PUSH1 0x3 SHL SHR NOT AND OR PUSH1 0x1 DUP3 ADD SSTORE JUMPDEST PUSH1 0x40 DUP3 ADD MLOAD DUP1 MLOAD SWAP1 PUSH1 0x1 PUSH1 0x1 PUSH1 0x40 SHL SUB DUP3 GT PUSH3 0x133D JUMPI PUSH1 0x2 DUP4 ADD SLOAD PUSH1 0x1 DUP2 DUP2 SHR SWAP2 AND DUP1 ISZERO PUSH3 0x1332 JUMPI JUMPDEST PUSH1 0x20 DUP3 LT EQ PUSH3 0x131C JUMPI PUSH1 0x1F DUP2 GT PUSH3 0x12D0 JUMPI JUMPDEST POP PUSH1 0x20 SWAP1 PUSH1 0x1F DUP4 GT PUSH1 0x1 EQ PUSH3 0x1252 JUMPI SWAP4 DUP3 PUSH1 0x5 SWAP4 PUSH1 0xA0 SWAP4 PUSH3 0x1236 SWAP8 PUSH1 0x0 SWAP3 PUSH3 0x1246 JUMPI POP POP DUP2 PUSH1 0x1 SHL SWAP2 PUSH1 0x0 NOT SWAP1 PUSH1 0x3 SHL SHR NOT AND OR PUSH1 0x2 DUP6 ADD SSTORE PUSH1 0x60 DUP2 ADD MLOAD PUSH1 0x3 DUP6 ADD SSTORE PUSH1 0x80 DUP2 ADD MLOAD PUSH1 0x4 DUP6 ADD SSTORE ADD MLOAD ISZERO ISZERO SWAP2 ADD SWAP1 PUSH1 0xFF DUP1 NOT DUP4 SLOAD AND SWAP2 ISZERO ISZERO AND OR SWAP1 SSTORE JUMP JUMPDEST PUSH1 0x40 MLOAD PUSH2 0x1D8A SWAP1 DUP2 PUSH3 0x24F4 DUP3 CODECOPY RETURN JUMPDEST ADD MLOAD SWAP1 POP CODESIZE DUP1 PUSH3 0x237 JUMP JUMPDEST SWAP1 PUSH1 0x2 DUP5 ADD PUSH1 0x0 MSTORE PUSH1 0x20 PUSH1 0x0 KECCAK256 SWAP2 PUSH1 0x0 JUMPDEST PUSH1 0x1F NOT DUP6 AND DUP2 LT PUSH3 0x12B7 JUMPI POP DUP4 PUSH1 0xA0 SWAP4 PUSH3 0x1236 SWAP8 SWAP4 PUSH1 0x1 SWAP4 PUSH1 0x5 SWAP8 PUSH1 0x1F NOT DUP2 AND LT PUSH3 0x129D JUMPI JUMPDEST POP POP POP DUP2 SHL ADD PUSH1 0x2 DUP6 ADD SSTORE PUSH3 0x24F JUMP JUMPDEST ADD MLOAD PUSH1 0x0 NOT PUSH1 0xF8 DUP5 PUSH1 0x3 SHL AND SHR NOT AND SWAP1 SSTORE CODESIZE DUP1 DUP1 PUSH3 0x128C JUMP JUMPDEST SWAP2 SWAP3 PUSH1 0x20 PUSH1 0x1 DUP2 SWAP3 DUP7 DUP6 ADD MLOAD DUP2 SSTORE ADD SWAP5 ADD SWAP3 ADD PUSH3 0x1263 JUMP JUMPDEST PUSH1 0x2 DUP5 ADD PUSH1 0x0 MSTORE PUSH1 0x20 PUSH1 0x0 KECCAK256 PUSH1 0x1F DUP5 ADD PUSH1 0x5 SHR DUP2 ADD PUSH1 0x20 DUP6 LT PUSH3 0x1314 JUMPI JUMPDEST PUSH1 0x1F DUP4 ADD PUSH1 0x5 SHR DUP3 ADD DUP2 LT PUSH3 0x1307 JUMPI POP POP PUSH3 0x11CF JUMP JUMPDEST PUSH1 0x0 DUP2 SSTORE PUSH1 0x1 ADD PUSH3 0x12EF JUMP JUMPDEST POP DUP1 PUSH3 0x12EF JUMP JUMPDEST PUSH4 0x4E487B71 PUSH1 0xE0 SHL PUSH1 0x0 MSTORE PUSH1 0x22 PUSH1 0x4 MSTORE PUSH1 0x24 PUSH1 0x0 REVERT JUMPDEST SWAP1 PUSH1 0x7F AND SWAP1 PUSH3 0x11BB JUMP JUMPDEST PUSH4 0x4E487B71 PUSH1 0xE0 SHL PUSH1 0x0 MSTORE PUSH1 0x41 PUSH1 0x4 MSTORE PUSH1 0x24 PUSH1 0x0 REVERT JUMPDEST ADD MLOAD SWAP1 POP CODESIZE DUP1 PUSH3 0x1178 JUMP JUMPDEST PUSH1 0x1 DUP4 ADD PUSH1 0x0 MSTORE PUSH1 0x20 PUSH1 0x0 KECCAK256 SWAP1 PUSH1 0x0 JUMPDEST PUSH1 0x1F NOT DUP5 AND DUP2 LT PUSH3 0x13B9 JUMPI POP PUSH1 0x1 SWAP4 SWAP5 SWAP6 DUP4 PUSH1 0x1F NOT DUP2 AND LT PUSH3 0x139F JUMPI JUMPDEST POP POP POP DUP2 SHL ADD PUSH1 0x1 DUP3 ADD SSTORE PUSH3 0x1190 JUMP JUMPDEST ADD MLOAD PUSH1 0x0 NOT PUSH1 0xF8 DUP5 PUSH1 0x3 SHL AND SHR NOT AND SWAP1 SSTORE CODESIZE DUP1 DUP1 PUSH3 0x138E JUMP JUMPDEST SWAP1 SWAP2 PUSH1 0x20 PUSH1 0x1 DUP2 SWAP3 DUP6 DUP11 ADD MLOAD DUP2 SSTORE ADD SWAP4 ADD SWAP2 ADD PUSH3 0x136F JUMP JUMPDEST PUSH1 0x1 DUP4 ADD PUSH1 0x0 MSTORE PUSH1 0x20 PUSH1 0x0 KECCAK256 PUSH1 0x1F DUP4 ADD PUSH1 0x5 SHR DUP2 ADD PUSH1 0x20 DUP5 LT PUSH3 0x1416 JUMPI JUMPDEST PUSH1 0x1F DUP4 ADD PUSH1 0x5 SHR DUP3 ADD DUP2 LT PUSH3 0x1409 JUMPI POP POP PUSH3 0x115C JUMP JUMPDEST PUSH1 0x0 DUP2 SSTORE PUSH1 0x1 ADD PUSH3 0x13F1 JUMP JUMPDEST POP DUP1 PUSH3 0x13F1 JUMP JUMPDEST SWAP1 PUSH1 0x7F AND SWAP1 PUSH3 0x1148 JUMP JUMPDEST PUSH4 0x4E487B71 PUSH1 0xE0 SHL PUSH1 0x0 MSTORE PUSH1 0x11 PUSH1 0x4 MSTORE PUSH1 0x24 PUSH1 0x0 REVERT JUMPDEST SWAP1 PUSH1 0x2 DUP5 ADD PUSH1 0x0 MSTORE PUSH1 0x20 PUSH1 0x0 KECCAK256 SWAP2 PUSH1 0x0 JUMPDEST PUSH1 0x1F NOT DUP6 AND DUP2 LT PUSH3 0x1489 JUMPI POP DUP4 PUSH1 0xA0 SWAP4 PUSH3 0x1080 SWAP8 SWAP4 PUSH1 0x1 SWAP4 PUSH1 0x5 SWAP8 PUSH1 0x1F NOT DUP2 AND LT PUSH3 0x129D JUMPI POP POP POP DUP2 SHL ADD PUSH1 0x2 DUP6 ADD SSTORE PUSH3 0x24F JUMP JUMPDEST SWAP2 SWAP3 PUSH1 0x20 PUSH1 0x1 DUP2 SWAP3 DUP7 DUP6 ADD MLOAD DUP2 SSTORE ADD SWAP5 ADD SWAP3 ADD PUSH3 0x1450 JUMP JUMPDEST PUSH1 0x2 DUP5 ADD PUSH1 0x0 MSTORE PUSH1 0x20 PUSH1 0x0 KECCAK256 PUSH1 0x1F DUP5 ADD PUSH1 0x5 SHR DUP2 ADD PUSH1 0x20 DUP6 LT PUSH3 0x14E6 JUMPI JUMPDEST PUSH1 0x1F DUP4 ADD PUSH1 0x5 SHR DUP3 ADD DUP2 LT PUSH3 0x14D9 JUMPI POP POP PUSH3 0x1019 JUMP JUMPDEST PUSH1 0x0 DUP2 SSTORE PUSH1 0x1 ADD PUSH3 0x14C1 JUMP JUMPDEST POP DUP1 PUSH3 0x14C1 JUMP JUMPDEST SWAP1 PUSH1 0x7F AND SWAP1 PUSH3 0x1005 JUMP JUMPDEST ADD MLOAD SWAP1 POP CODESIZE DUP1 PUSH3 0xFC2 JUMP JUMPDEST PUSH1 0x1 DUP4 ADD PUSH1 0x0 MSTORE PUSH1 0x20 PUSH1 0x0 KECCAK256 SWAP1 PUSH1 0x0 JUMPDEST PUSH1 0x1F NOT DUP5 AND DUP2 LT PUSH3 0x155F JUMPI POP PUSH1 0x1 SWAP4 SWAP5 SWAP6 DUP4 PUSH1 0x1F NOT DUP2 AND LT PUSH3 0x1545 JUMPI JUMPDEST POP POP POP DUP2 SHL ADD PUSH1 0x1 DUP3 ADD SSTORE PUSH3 0xFDA JUMP JUMPDEST ADD MLOAD PUSH1 0x0 NOT PUSH1 0xF8 DUP5 PUSH1 0x3 SHL AND SHR NOT AND SWAP1 SSTORE CODESIZE DUP1 DUP1 PUSH3 0x1534 JUMP JUMPDEST SWAP1 SWAP2 PUSH1 0x20 PUSH1 0x1 DUP2 SWAP3 DUP6 DUP11 ADD MLOAD DUP2 SSTORE ADD SWAP4 ADD SWAP2 ADD PUSH3 0x1515 JUMP JUMPDEST PUSH1 0x1 DUP4 ADD PUSH1 0x0 MSTORE PUSH1 0x20 PUSH1 0x0 KECCAK256 PUSH1 0x1F DUP4 ADD PUSH1 0x5 SHR DUP2 ADD PUSH1 0x20 DUP5 LT PUSH3 0x15BC JUMPI JUMPDEST PUSH1 0x1F DUP4 ADD PUSH1 0x5 SHR DUP3 ADD DUP2 LT PUSH3 0x15AF JUMPI POP POP PUSH3 0xFA6 JUMP JUMPDEST PUSH1 0x0 DUP2 SSTORE PUSH1 0x1 ADD PUSH3 0x1597 JUMP JUMPDEST POP DUP1 PUSH3 0x1597 JUMP JUMPDEST SWAP1 PUSH1 0x7F AND SWAP1 PUSH3 0xF92 JUMP JUMPDEST SWAP1 PUSH1 0x2 DUP5 ADD PUSH1 0x0 MSTORE PUSH1 0x20 PUSH1 0x0 KECCAK256 SWAP2 PUSH1 0x0 JUMPDEST PUSH1 0x1F NOT DUP6 AND DUP2 LT PUSH3 0x1619 JUMPI POP DUP4 PUSH1 0xA0 SWAP4 PUSH3 0xED0 SWAP8 SWAP4 PUSH1 0x1 SWAP4 PUSH1 0x5 SWAP8 PUSH1 0x1F NOT DUP2 AND LT PUSH3 0x129D JUMPI POP POP POP DUP2 SHL ADD PUSH1 0x2 DUP6 ADD SSTORE PUSH3 0x24F JUMP JUMPDEST SWAP2 SWAP3 PUSH1 0x20 PUSH1 0x1 DUP2 SWAP3 DUP7 DUP6 ADD MLOAD DUP2 SSTORE ADD SWAP5 ADD SWAP3 ADD PUSH3 0x15E0 JUMP JUMPDEST PUSH1 0x2 DUP5 ADD PUSH1 0x0 MSTORE PUSH1 0x20 PUSH1 0x0 KECCAK256 PUSH1 0x1F DUP5 ADD PUSH1 0x5 SHR DUP2 ADD PUSH1 0x20 DUP6 LT PUSH3 0x1676 JUMPI JUMPDEST PUSH1 0x1F DUP4 ADD PUSH1 0x5 SHR DUP3 ADD DUP2 LT PUSH3 0x1669 JUMPI POP POP PUSH3 0xE69 JUMP JUMPDEST PUSH1 0x0 DUP2 SSTORE PUSH1 0x1 ADD PUSH3 0x1651 JUMP JUMPDEST POP DUP1 PUSH3 0x1651 JUMP JUMPDEST SWAP1 PUSH1 0x7F AND SWAP1 PUSH3 0xE55 JUMP JUMPDEST ADD MLOAD SWAP1 POP CODESIZE DUP1 PUSH3 0xE12 JUMP JUMPDEST PUSH1 0x1 DUP4 ADD PUSH1 0x0 MSTORE PUSH1 0x20 PUSH1 0x0 KECCAK256 SWAP1 PUSH1 0x0 JUMPDEST PUSH1 0x1F NOT DUP5 AND DUP2 LT PUSH3 0x16EF JUMPI POP PUSH1 0x1 SWAP4 SWAP5 SWAP6 DUP4 PUSH1 0x1F NOT DUP2 AND LT PUSH3 0x16D5 JUMPI JUMPDEST POP POP POP DUP2 SHL ADD PUSH1 0x1 DUP3 ADD SSTORE PUSH3 0xE2A JUMP JUMPDEST ADD MLOAD PUSH1 0x0 NOT PUSH1 0xF8 DUP5 PUSH1 0x3 SHL AND SHR NOT AND SWAP1 SSTORE CODESIZE DUP1 DUP1 PUSH3 0x16C4 JUMP JUMPDEST SWAP1 SWAP2 PUSH1 0x20 PUSH1 0x1 DUP2 SWAP3 DUP6 DUP11 ADD MLOAD DUP2 SSTORE ADD SWAP4 ADD SWAP2 ADD PUSH3 0x16A5 JUMP JUMPDEST PUSH1 0x1 DUP4 ADD PUSH1 0x0 MSTORE PUSH1 0x20 PUSH1 0x0 KECCAK256 PUSH1 0x1F DUP4 ADD PUSH1 0x5 SHR DUP2 ADD PUSH1 0x20 DUP5 LT PUSH3 0x174C JUMPI JUMPDEST PUSH1 0x1F DUP4 ADD PUSH1 0x5 SHR DUP3 ADD DUP2 LT PUSH3 0x173F JUMPI POP POP PUSH3 0xDF6 JUMP JUMPDEST PUSH1 0x0 DUP2 SSTORE PUSH1 0x1 ADD PUSH3 0x1727 JUMP JUMPDEST POP DUP1 PUSH3 0x1727 JUMP JUMPDEST SWAP1 PUSH1 0x7F AND SWAP1 PUSH3 0xDE2 JUMP JUMPDEST SWAP1 PUSH1 0x2 DUP5 ADD PUSH1 0x0 MSTORE PUSH1 0x20 PUSH1 0x0 KECCAK256 SWAP2 PUSH1 0x0 JUMPDEST PUSH1 0x1F NOT DUP6 AND DUP2 LT PUSH3 0x17A9 JUMPI POP DUP4 PUSH1 0xA0 SWAP4 PUSH3 0xD20 SWAP8 SWAP4 PUSH1 0x1 SWAP4 PUSH1 0x5 SWAP8 PUSH1 0x1F NOT DUP2 AND LT PUSH3 0x129D JUMPI POP POP POP DUP2 SHL ADD PUSH1 0x2 DUP6 ADD SSTORE PUSH3 0x24F JUMP JUMPDEST SWAP2 SWAP3 PUSH1 0x20 PUSH1 0x1 DUP2 SWAP3 DUP7 DUP6 ADD MLOAD DUP2 SSTORE ADD SWAP5 ADD SWAP3 ADD PUSH3 0x1770 JUMP JUMPDEST PUSH1 0x2 DUP5 ADD PUSH1 0x0 MSTORE PUSH1 0x20 PUSH1 0x0 KECCAK256 PUSH1 0x1F DUP5 ADD PUSH1 0x5 SHR DUP2 ADD PUSH1 0x20 DUP6 LT PUSH3 0x1806 JUMPI JUMPDEST PUSH1 0x1F DUP4 ADD PUSH1 0x5 SHR DUP3 ADD DUP2 LT PUSH3 0x17F9 JUMPI POP POP PUSH3 0xCB9 JUMP JUMPDEST PUSH1 0x0 DUP2 SSTORE PUSH1 0x1 ADD PUSH3 0x17E1 JUMP JUMPDEST POP DUP1 PUSH3 0x17E1 JUMP JUMPDEST SWAP1 PUSH1 0x7F AND SWAP1 PUSH3 0xCA5 JUMP JUMPDEST ADD MLOAD SWAP1 POP CODESIZE DUP1 PUSH3 0xC62 JUMP JUMPDEST PUSH1 0x1 DUP4 ADD PUSH1 0x0 MSTORE PUSH1 0x20 PUSH1 0x0 KECCAK256 SWAP1 PUSH1 0x0 JUMPDEST PUSH1 0x1F NOT DUP5 AND DUP2 LT PUSH3 0x187F JUMPI POP PUSH1 0x1 SWAP4 SWAP5 SWAP6 DUP4 PUSH1 0x1F NOT DUP2 AND LT PUSH3 0x1865 JUMPI JUMPDEST POP POP POP DUP2 SHL ADD PUSH1 0x1 DUP3 ADD SSTORE PUSH3 0xC7A JUMP JUMPDEST ADD MLOAD PUSH1 0x0 NOT PUSH1 0xF8 DUP5 PUSH1 0x3 SHL AND SHR NOT AND SWAP1 SSTORE CODESIZE DUP1 DUP1 PUSH3 0x1854 JUMP JUMPDEST SWAP1 SWAP2 PUSH1 0x20 PUSH1 0x1 DUP2 SWAP3 DUP6 DUP11 ADD MLOAD DUP2 SSTORE ADD SWAP4 ADD SWAP2 ADD PUSH3 0x1835 JUMP JUMPDEST PUSH1 0x1 DUP4 ADD PUSH1 0x0 MSTORE PUSH1 0x20 PUSH1 0x0 KECCAK256 PUSH1 0x1F DUP4 ADD PUSH1 0x5 SHR DUP2 ADD PUSH1 0x20 DUP5 LT PUSH3 0x18DC JUMPI JUMPDEST PUSH1 0x1F DUP4 ADD PUSH1 0x5 SHR DUP3 ADD DUP2 LT PUSH3 0x18CF JUMPI POP POP PUSH3 0xC46 JUMP JUMPDEST PUSH1 0x0 DUP2 SSTORE PUSH1 0x1 ADD PUSH3 0x18B7 JUMP JUMPDEST POP DUP1 PUSH3 0x18B7 JUMP JUMPDEST SWAP1 PUSH1 0x7F AND SWAP1 PUSH3 0xC32 JUMP JUMPDEST SWAP1 PUSH1 0x2 DUP5 ADD PUSH1 0x0 MSTORE PUSH1 0x20 PUSH1 0x0 KECCAK256 SWAP2 PUSH1 0x0 JUMPDEST PUSH1 0x1F NOT DUP6 AND DUP2 LT PUSH3 0x1939 JUMPI POP DUP4 PUSH1 0xA0 SWAP4 PUSH3 0xB66 SWAP8 SWAP4 PUSH1 0x1 SWAP4 PUSH1 0x5 SWAP8 PUSH1 0x1F NOT DUP2 AND LT PUSH3 0x129D JUMPI POP POP POP DUP2 SHL ADD PUSH1 0x2 DUP6 ADD SSTORE PUSH3 0x24F JUMP JUMPDEST SWAP2 SWAP3 PUSH1 0x20 PUSH1 0x1 DUP2 SWAP3 DUP7 DUP6 ADD MLOAD DUP2 SSTORE ADD SWAP5 ADD SWAP3 ADD PUSH3 0x1900 JUMP JUMPDEST PUSH1 0x2 DUP5 ADD PUSH1 0x0 MSTORE PUSH1 0x20 PUSH1 0x0 KECCAK256 PUSH1 0x1F DUP5 ADD PUSH1 0x5 SHR DUP2 ADD PUSH1 0x20 DUP6 LT PUSH3 0x1996 JUMPI JUMPDEST PUSH1 0x1F DUP4 ADD PUSH1 0x5 SHR DUP3 ADD DUP2 LT PUSH3 0x1989 JUMPI POP POP PUSH3 0xAFF JUMP JUMPDEST PUSH1 0x0 DUP2 SSTORE PUSH1 0x1 ADD PUSH3 0x1971 JUMP JUMPDEST POP DUP1 PUSH3 0x1971 JUMP JUMPDEST SWAP1 PUSH1 0x7F AND SWAP1 PUSH3 0xAEB JUMP JUMPDEST ADD MLOAD SWAP1 POP CODESIZE DUP1 PUSH3 0xAA8 JUMP JUMPDEST PUSH1 0x1 DUP4 ADD PUSH1 0x0 MSTORE PUSH1 0x20 PUSH1 0x0 KECCAK256 SWAP1 PUSH1 0x0 JUMPDEST PUSH1 0x1F NOT DUP5 AND DUP2 LT PUSH3 0x1A0F JUMPI POP PUSH1 0x1 SWAP4 SWAP5 SWAP6 DUP4 PUSH1 0x1F NOT DUP2 AND LT PUSH3 0x19F5 JUMPI JUMPDEST POP POP POP DUP2 SHL ADD PUSH1 0x1 DUP3 ADD SSTORE PUSH3 0xAC0 JUMP JUMPDEST ADD MLOAD PUSH1 0x0 NOT PUSH1 0xF8 DUP5 PUSH1 0x3 SHL AND SHR NOT AND SWAP1 SSTORE CODESIZE DUP1 DUP1 PUSH3 0x19E4 JUMP JUMPDEST SWAP1 SWAP2 PUSH1 0x20 PUSH1 0x1 DUP2 SWAP3 DUP6 DUP11 ADD MLOAD DUP2 SSTORE ADD SWAP4 ADD SWAP2 ADD PUSH3 0x19C5 JUMP JUMPDEST PUSH1 0x1 DUP4 ADD PUSH1 0x0 MSTORE PUSH1 0x20 PUSH1 0x0 KECCAK256 PUSH1 0x1F DUP4 ADD PUSH1 0x5 SHR DUP2 ADD PUSH1 0x20 DUP5 LT PUSH3 0x1A6C JUMPI JUMPDEST PUSH1 0x1F DUP4 ADD PUSH1 0x5 SHR DUP3 ADD DUP2 LT PUSH3 0x1A5F JUMPI POP POP PUSH3 0xA8C JUMP JUMPDEST PUSH1 0x0 DUP2 SSTORE PUSH1 0x1 ADD PUSH3 0x1A47 JUMP JUMPDEST POP DUP1 PUSH3 0x1A47 JUMP JUMPDEST SWAP1 PUSH1 0x7F AND SWAP1 PUSH3 0xA78 JUMP JUMPDEST SWAP1 PUSH1 0x2 DUP5 ADD PUSH1 0x0 MSTORE PUSH1 0x20 PUSH1 0x0 KECCAK256 SWAP2 PUSH1 0x0 JUMPDEST PUSH1 0x1F NOT DUP6 AND DUP2 LT PUSH3 0x1AC9 JUMPI POP DUP4 PUSH1 0xA0 SWAP4 PUSH3 0x9B2 SWAP8 SWAP4 PUSH1 0x1 SWAP4 PUSH1 0x5 SWAP8 PUSH1 0x1F NOT DUP2 AND LT PUSH3 0x129D JUMPI POP POP POP DUP2 SHL ADD PUSH1 0x2 DUP6 ADD SSTORE PUSH3 0x24F JUMP JUMPDEST SWAP2 SWAP3 PUSH1 0x20 PUSH1 0x1 DUP2 SWAP3 DUP7 DUP6 ADD MLOAD DUP2 SSTORE ADD SWAP5 ADD SWAP3 ADD PUSH3 0x1A90 JUMP JUMPDEST PUSH1 0x2 DUP5 ADD PUSH1 0x0 MSTORE PUSH1 0x20 PUSH1 0x0 KECCAK256 PUSH1 0x1F DUP5 ADD PUSH1 0x5 SHR DUP2 ADD PUSH1 0x20 DUP6 LT PUSH3 0x1B26 JUMPI JUMPDEST PUSH1 0x1F DUP4 ADD PUSH1 0x5 SHR DUP3 ADD DUP2 LT PUSH3 0x1B19 JUMPI POP POP PUSH3 0x94B JUMP JUMPDEST PUSH1 0x0 DUP2 SSTORE PUSH1 0x1 ADD PUSH3 0x1B01 JUMP JUMPDEST POP DUP1 PUSH3 0x1B01 JUMP JUMPDEST SWAP1 PUSH1 0x7F AND SWAP1 PUSH3 0x937 JUMP JUMPDEST ADD MLOAD SWAP1 POP CODESIZE DUP1 PUSH3 0x8F4 JUMP JUMPDEST PUSH1 0x1 DUP4 ADD PUSH1 0x0 MSTORE PUSH1 0x20 PUSH1 0x0 KECCAK256 SWAP1 PUSH1 0x0 JUMPDEST PUSH1 0x1F NOT DUP5 AND DUP2 LT PUSH3 0x1B9F JUMPI POP PUSH1 0x1 SWAP4 SWAP5 SWAP6 DUP4 PUSH1 0x1F NOT DUP2 AND LT PUSH3 0x1B85 JUMPI JUMPDEST POP POP POP DUP2 SHL ADD PUSH1 0x1 DUP3 ADD SSTORE PUSH3 0x90C JUMP JUMPDEST ADD MLOAD PUSH1 0x0 NOT PUSH1 0xF8 DUP5 PUSH1 0x3 SHL AND SHR NOT AND SWAP1 SSTORE CODESIZE DUP1 DUP1 PUSH3 0x1B74 JUMP JUMPDEST SWAP1 SWAP2 PUSH1 0x20 PUSH1 0x1 DUP2 SWAP3 DUP6 DUP11 ADD MLOAD DUP2 SSTORE ADD SWAP4 ADD SWAP2 ADD PUSH3 0x1B55 JUMP JUMPDEST PUSH1 0x1 DUP4 ADD PUSH1 0x0 MSTORE PUSH1 0x20 PUSH1 0x0 KECCAK256 PUSH1 0x1F DUP4 ADD PUSH1 0x5 SHR DUP2 ADD PUSH1 0x20 DUP5 LT PUSH3 0x1BFC JUMPI JUMPDEST PUSH1 0x1F DUP4 ADD PUSH1 0x5 SHR DUP3 ADD DUP2 LT PUSH3 0x1BEF JUMPI POP POP PUSH3 0x8D8 JUMP JUMPDEST PUSH1 0x0 DUP2 SSTORE PUSH1 0x1 ADD PUSH3 0x1BD7 JUMP JUMPDEST POP DUP1 PUSH3 0x1BD7 JUMP JUMPDEST SWAP1 PUSH1 0x7F AND SWAP1 PUSH3 0x8C4 JUMP JUMPDEST PUSH4 0x4E487B71 PUSH1 0xE0 SHL PUSH1 0x0 MSTORE PUSH1 0x21 PUSH1 0x4 MSTORE PUSH1 0x24 PUSH1 0x0 REVERT JUMPDEST SWAP1 PUSH1 0x2 DUP5 ADD PUSH1 0x0 MSTORE PUSH1 0x20 PUSH1 0x0 KECCAK256 SWAP2 PUSH1 0x0 JUMPDEST PUSH1 0x1F NOT DUP6 AND DUP2 LT PUSH3 0x1C6F JUMPI POP DUP4 PUSH1 0xA0 SWAP4 PUSH3 0x7EB SWAP8 SWAP4 PUSH1 0x1 SWAP4 PUSH1 0x5 SWAP8 PUSH1 0x1F NOT DUP2 AND LT PUSH3 0x129D JUMPI POP POP POP DUP2 SHL ADD PUSH1 0x2 DUP6 ADD SSTORE PUSH3 0x24F JUMP JUMPDEST SWAP2 SWAP3 PUSH1 0x20 PUSH1 0x1 DUP2 SWAP3 DUP7 DUP6 ADD MLOAD DUP2 SSTORE ADD SWAP5 ADD SWAP3 ADD PUSH3 0x1C36 JUMP JUMPDEST PUSH1 0x2 DUP5 ADD PUSH1 0x0 MSTORE PUSH1 0x20 PUSH1 0x0 KECCAK256 PUSH1 0x1F DUP5 ADD PUSH1 0x5 SHR DUP2 ADD PUSH1 0x20 DUP6 LT PUSH3 0x1CCC JUMPI JUMPDEST PUSH1 0x1F DUP4 ADD PUSH1 0x5 SHR DUP3 ADD DUP2 LT PUSH3 0x1CBF JUMPI POP POP PUSH3 0x784 JUMP JUMPDEST PUSH1 0x0 DUP2 SSTORE PUSH1 0x1 ADD PUSH3 0x1CA7 JUMP JUMPDEST POP DUP1 PUSH3 0x1CA7 JUMP JUMPDEST SWAP1 PUSH1 0x7F AND SWAP1 PUSH3 0x770 JUMP JUMPDEST ADD MLOAD SWAP1 POP CODESIZE DUP1 PUSH3 0x72D JUMP JUMPDEST PUSH1 0x1 DUP4 ADD PUSH1 0x0 MSTORE PUSH1 0x20 PUSH1 0x0 KECCAK256 SWAP1 PUSH1 0x0 JUMPDEST PUSH1 0x1F NOT DUP5 AND DUP2 LT PUSH3 0x1D45 JUMPI POP PUSH1 0x1 SWAP4 SWAP5 SWAP6 DUP4 PUSH1 0x1F NOT DUP2 AND LT PUSH3 0x1D2B JUMPI JUMPDEST POP POP POP DUP2 SHL ADD PUSH1 0x1 DUP3 ADD SSTORE PUSH3 0x745 JUMP JUMPDEST ADD MLOAD PUSH1 0x0 NOT PUSH1 0xF8 DUP5 PUSH1 0x3 SHL AND SHR NOT AND SWAP1 SSTORE CODESIZE DUP1 DUP1 PUSH3 0x1D1A JUMP JUMPDEST SWAP1 SWAP2 PUSH1 0x20 PUSH1 0x1 DUP2 SWAP3 DUP6 DUP11 ADD MLOAD DUP2 SSTORE ADD SWAP4 ADD SWAP2 ADD PUSH3 0x1CFB JUMP JUMPDEST PUSH1 0x1 DUP4 ADD PUSH1 0x0 MSTORE PUSH1 0x20 PUSH1 0x0 KECCAK256 PUSH1 0x1F DUP4 ADD PUSH1 0x5 SHR DUP2 ADD PUSH1 0x20 DUP5 LT PUSH3 0x1DA2 JUMPI JUMPDEST PUSH1 0x1F DUP4 ADD PUSH1 0x5 SHR DUP3 ADD DUP2 LT PUSH3 0x1D95 JUMPI POP POP PUSH3 0x711 JUMP JUMPDEST PUSH1 0x0 DUP2 SSTORE PUSH1 0x1 ADD PUSH3 0x1D7D JUMP JUMPDEST POP DUP1 PUSH3 0x1D7D JUMP JUMPDEST SWAP1 PUSH1 0x7F AND SWAP1 PUSH3 0x6FD JUMP JUMPDEST SWAP1 PUSH1 0x2 DUP5 ADD PUSH1 0x0 MSTORE PUSH1 0x20 PUSH1 0x0 KECCAK256 SWAP2 PUSH1 0x0 JUMPDEST PUSH1 0x1F NOT DUP6 AND DUP2 LT PUSH3 0x1DFF JUMPI POP DUP4 PUSH1 0xA0 SWAP4 PUSH3 0x616 SWAP8 SWAP4 PUSH1 0x1 SWAP4 PUSH1 0x5 SWAP8 PUSH1 0x1F NOT DUP2 AND LT PUSH3 0x129D JUMPI POP POP POP DUP2 SHL ADD PUSH1 0x2 DUP6 ADD SSTORE PUSH3 0x24F JUMP JUMPDEST SWAP2 SWAP3 PUSH1 0x20 PUSH1 0x1 DUP2 SWAP3 DUP7 DUP6 ADD MLOAD DUP2 SSTORE ADD SWAP5 ADD SWAP3 ADD PUSH3 0x1DC6 JUMP JUMPDEST PUSH1 0x2 DUP5 ADD PUSH1 0x0 MSTORE PUSH1 0x20 PUSH1 0x0 KECCAK256 PUSH1 0x1F DUP5 ADD PUSH1 0x5 SHR DUP2 ADD PUSH1 0x20 DUP6 LT PUSH3 0x1E5C JUMPI JUMPDEST PUSH1 0x1F DUP4 ADD PUSH1 0x5 SHR DUP3 ADD DUP2 LT PUSH3 0x1E4F JUMPI POP POP PUSH3 0x5AF JUMP JUMPDEST PUSH1 0x0 DUP2 SSTORE PUSH1 0x1 ADD PUSH3 0x1E37 JUMP JUMPDEST POP DUP1 PUSH3 0x1E37 JUMP JUMPDEST SWAP1 PUSH1 0x7F AND SWAP1 PUSH3 0x59B JUMP JUMPDEST ADD MLOAD SWAP1 POP CODESIZE DUP1 PUSH3 0x558 JUMP JUMPDEST PUSH1 0x1 DUP4 ADD PUSH1 0x0 MSTORE PUSH1 0x20 PUSH1 0x0 KECCAK256 SWAP1 PUSH1 0x0 JUMPDEST PUSH1 0x1F NOT DUP5 AND DUP2 LT PUSH3 0x1ED5 JUMPI POP PUSH1 0x1 SWAP4 SWAP5 SWAP6 DUP4 PUSH1 0x1F NOT DUP2 AND LT PUSH3 0x1EBB JUMPI JUMPDEST POP POP POP DUP2 SHL ADD PUSH1 0x1 DUP3 ADD SSTORE PUSH3 0x570 JUMP JUMPDEST ADD MLOAD PUSH1 0x0 NOT PUSH1 0xF8 DUP5 PUSH1 0x3 SHL AND SHR NOT AND SWAP1 SSTORE CODESIZE DUP1 DUP1 PUSH3 0x1EAA JUMP JUMPDEST SWAP1 SWAP2 PUSH1 0x20 PUSH1 0x1 DUP2 SWAP3 DUP6 DUP11 ADD MLOAD DUP2 SSTORE ADD SWAP4 ADD SWAP2 ADD PUSH3 0x1E8B JUMP JUMPDEST PUSH1 0x1 DUP4 ADD PUSH1 0x0 MSTORE PUSH1 0x20 PUSH1 0x0 KECCAK256 PUSH1 0x1F DUP4 ADD PUSH1 0x5 SHR DUP2 ADD PUSH1 0x20 DUP5 LT PUSH3 0x1F32 JUMPI JUMPDEST PUSH1 0x1F DUP4 ADD PUSH1 0x5 SHR DUP3 ADD DUP2 LT PUSH3 0x1F25 JUMPI POP POP PUSH3 0x53C JUMP JUMPDEST PUSH1 0x0 DUP2 SSTORE PUSH1 0x1 ADD PUSH3 0x1F0D JUMP JUMPDEST POP DUP1 PUSH3 0x1F0D JUMP JUMPDEST SWAP1 PUSH1 0x7F AND SWAP1 PUSH3 0x528 JUMP JUMPDEST SWAP1 PUSH1 0x2 DUP5 ADD PUSH1 0x0 MSTORE PUSH1 0x20 PUSH1 0x0 KECCAK256 SWAP2 PUSH1 0x0 JUMPDEST PUSH1 0x1F NOT DUP6 AND DUP2 LT PUSH3 0x1F8F JUMPI POP DUP4 PUSH1 0xA0 SWAP4 PUSH3 0x441 SWAP8 SWAP4 PUSH1 0x1 SWAP4 PUSH1 0x5 SWAP8 PUSH1 0x1F NOT DUP2 AND LT PUSH3 0x129D JUMPI POP POP POP DUP2 SHL ADD PUSH1 0x2 DUP6 ADD SSTORE PUSH3 0x24F JUMP JUMPDEST SWAP2 SWAP3 PUSH1 0x20 PUSH1 0x1 DUP2 SWAP3 DUP7 DUP6 ADD MLOAD DUP2 SSTORE ADD SWAP5 ADD SWAP3 ADD PUSH3 0x1F56 JUMP JUMPDEST PUSH1 0x2 DUP5 ADD PUSH1 0x0 MSTORE PUSH1 0x20 PUSH1 0x0 KECCAK256 PUSH1 0x1F DUP5 ADD PUSH1 0x5 SHR DUP2 ADD PUSH1 0x20 DUP6 LT PUSH3 0x1FEC JUMPI JUMPDEST PUSH1 0x1F DUP4 ADD PUSH1 0x5 SHR DUP3 ADD DUP2 LT PUSH3 0x1FDF JUMPI POP POP PUSH3 0x3DA JUMP JUMPDEST PUSH1 0x0 DUP2 SSTORE PUSH1 0x1 ADD PUSH3 0x1FC7 JUMP JUMPDEST POP DUP1 PUSH3 0x1FC7 JUMP JUMPDEST SWAP1 PUSH1 0x7F AND SWAP1 PUSH3 0x3C6 JUMP JUMPDEST ADD MLOAD SWAP1 POP CODESIZE DUP1 PUSH3 0x383 JUMP JUMPDEST PUSH1 0x1 DUP4 ADD PUSH1 0x0 MSTORE PUSH1 0x20 PUSH1 0x0 KECCAK256 SWAP1 PUSH1 0x0 JUMPDEST PUSH1 0x1F NOT DUP5 AND DUP2 LT PUSH3 0x2065 JUMPI POP PUSH1 0x1 SWAP4 SWAP5 SWAP6 DUP4 PUSH1 0x1F NOT DUP2 AND LT PUSH3 0x204B JUMPI JUMPDEST POP POP POP DUP2 SHL ADD PUSH1 0x1 DUP3 ADD SSTORE PUSH3 0x39B JUMP JUMPDEST ADD MLOAD PUSH1 0x0 NOT PUSH1 0xF8 DUP5 PUSH1 0x3 SHL AND SHR NOT AND SWAP1 SSTORE CODESIZE DUP1 DUP1 PUSH3 0x203A JUMP JUMPDEST SWAP1 SWAP2 PUSH1 0x20 PUSH1 0x1 DUP2 SWAP3 DUP6 DUP11 ADD MLOAD DUP2 SSTORE ADD SWAP4 ADD SWAP2 ADD PUSH3 0x201B JUMP JUMPDEST PUSH1 0x1 DUP4 ADD PUSH1 0x0 MSTORE PUSH1 0x20 PUSH1 0x0 KECCAK256 PUSH1 0x1F DUP4 ADD PUSH1 0x5 SHR DUP2 ADD PUSH1 0x20 DUP5 LT PUSH3 0x20C2 JUMPI JUMPDEST PUSH1 0x1F DUP4 ADD PUSH1 0x5 SHR DUP3 ADD DUP2 LT PUSH3 0x20B5 JUMPI POP POP PUSH3 0x367 JUMP JUMPDEST PUSH1 0x0 DUP2 SSTORE PUSH1 0x1 ADD PUSH3 0x209D JUMP JUMPDEST POP DUP1 PUSH3 0x209D JUMP JUMPDEST SWAP1 PUSH1 0x7F AND SWAP1 PUSH3 0x353 JUMP JUMPDEST SWAP1 PUSH1 0x2 DUP5 ADD PUSH1 0x0 MSTORE PUSH1 0x20 PUSH1 0x0 KECCAK256 SWAP2 PUSH1 0x0 JUMPDEST PUSH1 0x1F NOT DUP6 AND DUP2 LT PUSH3 0x211F JUMPI POP DUP4 PUSH1 0xA0 SWAP4 PUSH3 0x27A SWAP8 SWAP4 PUSH1 0x1 SWAP4 PUSH1 0x5 SWAP8 PUSH1 0x1F NOT DUP2 AND LT PUSH3 0x129D JUMPI POP POP POP DUP2 SHL ADD PUSH1 0x2 DUP6 ADD SSTORE PUSH3 0x24F JUMP JUMPDEST SWAP2 SWAP3 PUSH1 0x20 PUSH1 0x1 DUP2 SWAP3 DUP7 DUP6 ADD MLOAD DUP2 SSTORE ADD SWAP5 ADD SWAP3 ADD PUSH3 0x20E6 JUMP JUMPDEST PUSH1 0x2 DUP5 ADD PUSH1 0x0 MSTORE PUSH1 0x20 PUSH1 0x0 KECCAK256 PUSH1 0x1F DUP5 ADD PUSH1 0x5 SHR DUP2 ADD PUSH1 0x20 DUP6 LT PUSH3 0x217C JUMPI JUMPDEST PUSH1 0x1F DUP4 ADD PUSH1 0x5 SHR DUP3 ADD DUP2 LT PUSH3 0x216F JUMPI POP POP PUSH3 0x211 JUMP JUMPDEST PUSH1 0x0 DUP2 SSTORE PUSH1 0x1 ADD PUSH3 0x2157 JUMP JUMPDEST POP DUP1 PUSH3 0x2157 JUMP JUMPDEST SWAP1 PUSH1 0x7F AND SWAP1 PUSH3 0x1FD JUMP JUMPDEST ADD MLOAD SWAP1 POP CODESIZE DUP1 PUSH3 0x1BA JUMP JUMPDEST PUSH1 0x1 DUP4 ADD PUSH1 0x0 MSTORE PUSH1 0x20 PUSH1 0x0 KECCAK256 SWAP1 PUSH1 0x0 JUMPDEST PUSH1 0x1F NOT DUP5 AND DUP2 LT PUSH3 0x21F5 JUMPI POP PUSH1 0x1 SWAP4 SWAP5 SWAP6 DUP4 PUSH1 0x1F NOT DUP2 AND LT PUSH3 0x21DB JUMPI JUMPDEST POP POP POP DUP2 SHL ADD PUSH1 0x1 DUP3 ADD SSTORE PUSH3 0x1D2 JUMP JUMPDEST ADD MLOAD PUSH1 0x0 NOT PUSH1 0xF8 DUP5 PUSH1 0x3 SHL AND SHR NOT AND SWAP1 SSTORE CODESIZE DUP1 DUP1 PUSH3 0x21CA JUMP JUMPDEST SWAP1 SWAP2 PUSH1 0x20 PUSH1 0x1 DUP2 SWAP3 DUP6 DUP11 ADD MLOAD DUP2 SSTORE ADD SWAP4 ADD SWAP2 ADD PUSH3 0x21AB JUMP JUMPDEST PUSH1 0x1 DUP4 ADD PUSH1 0x0 MSTORE PUSH1 0x20 PUSH1 0x0 KECCAK256 PUSH1 0x1F DUP4 ADD PUSH1 0x5 SHR DUP2 ADD PUSH1 0x20 DUP5 LT PUSH3 0x2252 JUMPI JUMPDEST PUSH1 0x1F DUP4 ADD PUSH1 0x5 SHR DUP3 ADD DUP2 LT PUSH3 0x2245 JUMPI POP POP PUSH3 0x19E JUMP JUMPDEST PUSH1 0x0 DUP2 SSTORE PUSH1 0x1 ADD PUSH3 0x222D JUMP JUMPDEST POP DUP1 PUSH3 0x222D JUMP JUMPDEST SWAP1 PUSH1 0x7F AND SWAP1 PUSH3 0x18A JUMP JUMPDEST PUSH1 0x40 MLOAD PUSH3 0x461BCD PUSH1 0xE5 SHL DUP2 MSTORE PUSH1 0x20 PUSH1 0x4 DUP3 ADD MSTORE PUSH1 0x15 PUSH1 0x24 DUP3 ADD MSTORE PUSH32 0x496E76616C696420706F696E742065636F6E6F6D790000000000000000000000 PUSH1 0x44 DUP3 ADD MSTORE PUSH1 0x64 SWAP1 REVERT JUMPDEST PUSH1 0x40 MLOAD PUSH3 0x461BCD PUSH1 0xE5 SHL DUP2 MSTORE PUSH1 0x20 PUSH1 0x4 DUP3 ADD MSTORE PUSH1 0x18 PUSH1 0x24 DUP3 ADD MSTORE PUSH32 0x496E76616C69642073747564656E742072656769737472790000000000000000 PUSH1 0x44 DUP3 ADD MSTORE PUSH1 0x64 SWAP1 REVERT JUMPDEST PUSH1 0x0 DUP1 REVERT JUMPDEST PUSH1 0x40 MLOAD SWAP1 PUSH1 0xC0 DUP3 ADD PUSH1 0x1 PUSH1 0x1 PUSH1 0x40 SHL SUB DUP2 GT DUP4 DUP3 LT OR PUSH3 0x133D JUMPI PUSH1 0x40 MSTORE JUMP JUMPDEST PUSH1 0x40 DUP1 MLOAD SWAP2 SWAP1 DUP3 ADD PUSH1 0x1 PUSH1 0x1 PUSH1 0x40 SHL SUB DUP2 GT DUP4 DUP3 LT OR PUSH3 0x133D JUMPI PUSH1 0x40 MSTORE JUMP JUMPDEST PUSH1 0x1 PUSH1 0x1 PUSH1 0xA0 SHL SUB AND PUSH1 0x0 DUP2 DUP2 MSTORE PUSH32 0xAD3228B676F7D3CD4284A5443F17F1962B36E491B30A40B2405849E597BA5FB5 PUSH1 0x20 MSTORE PUSH1 0x40 DUP2 KECCAK256 SLOAD SWAP1 SWAP2 SWAP1 PUSH1 0xFF AND PUSH3 0x23B0 JUMPI DUP2 DUP1 MSTORE DUP2 PUSH1 0x20 MSTORE PUSH1 0x40 DUP3 KECCAK256 DUP2 DUP4 MSTORE PUSH1 0x20 MSTORE PUSH1 0x40 DUP3 KECCAK256 PUSH1 0x1 PUSH1 0xFF NOT DUP3 SLOAD AND OR SWAP1 SSTORE CALLER SWAP2 PUSH1 0x0 DUP1 MLOAD PUSH1 0x20 PUSH3 0x427E DUP4 CODECOPY DUP2 MLOAD SWAP2 MSTORE DUP2 DUP1 LOG4 PUSH1 0x1 SWAP1 JUMP JUMPDEST POP SWAP1 JUMP JUMPDEST PUSH1 0x1 PUSH1 0x1 PUSH1 0xA0 SHL SUB AND PUSH1 0x0 DUP2 DUP2 MSTORE PUSH32 0x7D7FFB7A348E1C6A02869081A26547B49160DD3DF72D1D75A570EB9B698292EC PUSH1 0x20 MSTORE PUSH1 0x40 DUP2 KECCAK256 SLOAD SWAP1 SWAP2 SWAP1 PUSH32 0xA49807205CE4D355092EF5A8A18F56E8913CF4A201FBE287825B095693C21775 SWAP1 PUSH1 0xFF AND PUSH3 0x2451 JUMPI DUP1 DUP4 MSTORE DUP3 PUSH1 0x20 MSTORE PUSH1 0x40 DUP4 KECCAK256 DUP3 DUP5 MSTORE PUSH1 0x20 MSTORE PUSH1 0x40 DUP4 KECCAK256 PUSH1 0x1 PUSH1 0xFF NOT DUP3 SLOAD AND OR SWAP1 SSTORE PUSH1 0x0 DUP1 MLOAD PUSH1 0x20 PUSH3 0x427E DUP4 CODECOPY DUP2 MLOAD SWAP2 MSTORE CALLER SWAP4 DUP1 LOG4 PUSH1 0x1 SWAP1 JUMP JUMPDEST POP POP SWAP1 JUMP JUMPDEST PUSH1 0x1 PUSH1 0x1 PUSH1 0xA0 SHL SUB AND PUSH1 0x0 DUP2 DUP2 MSTORE PUSH32 0xF11D5CD6172E4D486247E8873A157A5CBD86D37171BF6CD250FC0A75F26713F9 PUSH1 0x20 MSTORE PUSH1 0x40 DUP2 KECCAK256 SLOAD SWAP1 SWAP2 SWAP1 PUSH32 0xEF17B1F3C5A412F9C8E887E3ABD186802AFEC7DC657FD3B7002BF87B128DD0B1 SWAP1 PUSH1 0xFF AND PUSH3 0x2451 JUMPI DUP1 DUP4 MSTORE DUP3 PUSH1 0x20 MSTORE PUSH1 0x40 DUP4 KECCAK256 DUP3 DUP5 MSTORE PUSH1 0x20 MSTORE PUSH1 0x40 DUP4 KECCAK256 PUSH1 0x1 PUSH1 0xFF NOT DUP3 SLOAD AND OR SWAP1 SSTORE PUSH1 0x0 DUP1 MLOAD PUSH1 0x20 PUSH3 0x427E DUP4 CODECOPY DUP2 MLOAD SWAP2 MSTORE CALLER SWAP4 DUP1 LOG4 PUSH1 0x1 SWAP1 JUMP INVALID PUSH1 0x80 PUSH1 0x40 DUP2 DUP2 MSTORE PUSH1 0x4 SWAP2 DUP3 CALLDATASIZE LT ISZERO PUSH2 0x16 JUMPI PUSH1 0x0 DUP1 REVERT JUMPDEST PUSH1 0x0 SWAP3 DUP4 CALLDATALOAD PUSH1 0xE0 SHR SWAP2 DUP3 PUSH4 0x112F749 EQ PUSH2 0x17C5 JUMPI POP DUP2 PUSH4 0x1FFC9A7 EQ PUSH2 0x176F JUMPI DUP2 PUSH4 0x24548C60 EQ PUSH2 0x16DF JUMPI DUP2 PUSH4 0x248A9CA3 EQ PUSH2 0x16B5 JUMPI DUP2 PUSH4 0x2F2FF15D EQ PUSH2 0x168B JUMPI DUP2 PUSH4 0x36568ABE EQ PUSH2 0x1645 JUMPI DUP2 PUSH4 0x3AF0C688 EQ PUSH2 0x13A6 JUMPI DUP2 PUSH4 0x4E43603A EQ PUSH2 0x15E7 JUMPI DUP2 PUSH4 0x5BBFF7CA EQ PUSH2 0x1542 JUMPI DUP2 PUSH4 0x5DF79EA9 EQ PUSH2 0x150A JUMPI DUP2 PUSH4 0x74643B68 EQ PUSH2 0x14E1 JUMPI DUP2 PUSH4 0x75B238FC EQ PUSH2 0x14A6 JUMPI DUP2 PUSH4 0x7F1CA8DD EQ PUSH2 0x1423 JUMPI DUP2 PUSH4 0x803AE518 EQ PUSH2 0x13E2 JUMPI DUP2 PUSH4 0x8B93BF18 EQ PUSH2 0x13A6 JUMPI DUP2 PUSH4 0x91D14854 EQ PUSH2 0x1360 JUMPI DUP2 PUSH4 0x92C16FB5 EQ PUSH2 0x1337 JUMPI DUP2 PUSH4 0xA217FDDF EQ PUSH2 0x131C JUMPI DUP2 PUSH4 0xA34B46FE EQ PUSH2 0x1102 JUMPI DUP2 PUSH4 0xA4DA4267 EQ PUSH2 0xE05 JUMPI DUP2 PUSH4 0xB4D2FEF0 EQ PUSH2 0xDE6 JUMPI DUP2 PUSH4 0xBC7FA098 EQ PUSH2 0xDAE JUMPI DUP2 PUSH4 0xC7BDCCE5 EQ PUSH2 0x459 JUMPI DUP2 PUSH4 0xD547741F EQ PUSH2 0x416 JUMPI DUP2 PUSH4 0xDA1B3FE2 EQ PUSH2 0x3DE JUMPI DUP2 PUSH4 0xDA976710 EQ PUSH2 0x3A6 JUMPI DUP2 PUSH4 0xE89E4ED6 EQ PUSH2 0x316 JUMPI DUP2 PUSH4 0xF09153C4 EQ PUSH2 0x1B8 JUMPI POP DUP1 PUSH4 0xF6BAAEC7 EQ PUSH2 0x19A JUMPI PUSH4 0xFF6FCDBD EQ PUSH2 0x16F JUMPI PUSH1 0x0 DUP1 REVERT JUMPDEST CALLVALUE PUSH2 0x196 JUMPI DUP2 PUSH1 0x3 NOT CALLDATASIZE ADD SLT PUSH2 0x196 JUMPI PUSH1 0x20 SWAP1 MLOAD PUSH1 0x0 DUP1 MLOAD PUSH1 0x20 PUSH2 0x1D35 DUP4 CODECOPY DUP2 MLOAD SWAP2 MSTORE DUP2 MSTORE RETURN JUMPDEST POP DUP1 REVERT JUMPDEST POP CALLVALUE PUSH2 0x196 JUMPI DUP2 PUSH1 0x3 NOT CALLDATASIZE ADD SLT PUSH2 0x196 JUMPI PUSH1 0x20 SWAP1 PUSH1 0xE SLOAD SWAP1 MLOAD SWAP1 DUP2 MSTORE RETURN JUMPDEST SWAP1 POP DUP3 CALLVALUE PUSH2 0x313 JUMPI PUSH1 0x20 SWAP2 DUP3 PUSH1 0x3 NOT CALLDATASIZE ADD SLT PUSH2 0x196 JUMPI PUSH1 0x1 PUSH1 0x1 PUSH1 0xA0 SHL SUB SWAP3 SWAP2 SWAP1 DUP4 PUSH2 0x1E2 PUSH2 0x1809 JUMP JUMPDEST AND DUP3 MSTORE PUSH1 0x6 DUP4 MSTORE DUP5 DUP3 KECCAK256 SWAP3 DUP4 SLOAD SWAP2 PUSH2 0x1F9 DUP4 PUSH2 0x1CE8 JUMP JUMPDEST SWAP3 PUSH2 0x206 DUP9 MLOAD SWAP5 DUP6 PUSH2 0x1931 JUMP JUMPDEST DUP1 DUP5 MSTORE DUP3 DUP5 ADD DUP1 SWAP7 DUP7 MSTORE DUP4 DUP7 KECCAK256 DUP7 SWAP2 JUMPDEST DUP4 DUP4 LT PUSH2 0x298 JUMPI POP POP POP POP POP DUP6 MLOAD SWAP5 DUP2 DUP7 ADD SWAP3 DUP3 DUP8 MSTORE MLOAD DUP1 SWAP4 MSTORE DUP7 DUP7 ADD SWAP5 SWAP4 SWAP1 JUMPDEST DUP4 DUP3 LT PUSH2 0x244 JUMPI DUP7 DUP7 SUB DUP8 RETURN JUMPDEST SWAP1 SWAP2 SWAP3 SWAP4 SWAP5 DUP4 PUSH1 0xA0 PUSH1 0x1 SWAP3 DUP9 MLOAD DUP6 DUP2 MLOAD AND DUP3 MSTORE PUSH2 0x267 DUP5 DUP3 ADD MLOAD DUP6 DUP5 ADD SWAP1 PUSH2 0x186C JUMP JUMPDEST PUSH2 0x277 DUP13 DUP3 ADD MLOAD DUP14 DUP5 ADD SWAP1 PUSH2 0x188F JUMP JUMPDEST PUSH1 0x60 DUP2 DUP2 ADD MLOAD SWAP1 DUP4 ADD MSTORE PUSH1 0x80 SWAP1 DUP2 ADD MLOAD SWAP1 DUP3 ADD MSTORE ADD SWAP7 ADD SWAP5 SWAP4 SWAP3 ADD SWAP1 PUSH2 0x237 JUMP JUMPDEST DUP11 SWAP8 SWAP6 SWAP7 SWAP8 MLOAD PUSH2 0x2A7 DUP2 PUSH2 0x18E3 JUMP JUMPDEST DUP3 SLOAD DUP12 DUP2 AND DUP3 MSTORE PUSH1 0xFF SWAP1 PUSH2 0x2C2 DUP3 DUP3 PUSH1 0xA0 SHR AND DUP12 DUP6 ADD PUSH2 0x1CDC JUMP JUMPDEST PUSH1 0xA8 SHR AND PUSH1 0x5 DUP2 LT ISZERO PUSH2 0x300 JUMPI PUSH1 0x1 SWAP3 DUP3 DUP11 SWAP3 DUP16 PUSH1 0x3 SWAP6 ADD MSTORE DUP5 DUP7 ADD SLOAD PUSH1 0x60 DUP3 ADD MSTORE PUSH1 0x2 DUP7 ADD SLOAD PUSH1 0x80 DUP3 ADD MSTORE DUP2 MSTORE ADD SWAP3 ADD SWAP3 ADD SWAP2 SWAP1 SWAP7 SWAP6 SWAP5 SWAP7 PUSH2 0x216 JUMP JUMPDEST PUSH4 0x4E487B71 PUSH1 0xE0 SHL DUP9 MSTORE PUSH1 0x21 DUP8 MSTORE PUSH1 0x24 DUP9 REVERT JUMPDEST DUP1 REVERT JUMPDEST DUP3 DUP5 CALLVALUE PUSH2 0x313 JUMPI PUSH1 0x20 CALLDATASIZE PUSH1 0x3 NOT ADD SLT PUSH2 0x313 JUMPI DUP2 SWAP1 DUP4 CALLDATALOAD DUP2 MSTORE PUSH1 0x8 PUSH1 0x20 MSTORE KECCAK256 SWAP2 DUP3 SLOAD SWAP2 PUSH2 0x345 PUSH1 0x1 DUP6 ADD PUSH2 0x1953 JUMP JUMPDEST SWAP4 PUSH2 0x390 PUSH2 0x355 PUSH1 0x2 DUP4 ADD PUSH2 0x1953 JUMP JUMPDEST SWAP3 PUSH1 0xFF PUSH1 0x5 PUSH1 0x3 DUP6 ADD SLOAD SWAP7 DUP6 ADD SLOAD SWAP5 ADD SLOAD AND SWAP4 PUSH2 0x383 DUP3 MLOAD SWAP9 DUP10 SWAP9 DUP10 MSTORE PUSH1 0xC0 PUSH1 0x20 DUP11 ADD MSTORE PUSH1 0xC0 DUP10 ADD SWAP1 PUSH2 0x1A24 JUMP JUMPDEST SWAP2 DUP8 DUP4 SUB SWAP1 DUP9 ADD MSTORE PUSH2 0x1A24 JUMP JUMPDEST SWAP3 PUSH1 0x60 DUP6 ADD MSTORE PUSH1 0x80 DUP5 ADD MSTORE ISZERO ISZERO PUSH1 0xA0 DUP4 ADD MSTORE SUB SWAP1 RETURN JUMPDEST POP POP CALLVALUE PUSH2 0x196 JUMPI PUSH1 0x20 CALLDATASIZE PUSH1 0x3 NOT ADD SLT PUSH2 0x196 JUMPI PUSH1 0x20 SWAP2 DUP2 SWAP1 PUSH1 0x1 PUSH1 0x1 PUSH1 0xA0 SHL SUB PUSH2 0x3CE PUSH2 0x1809 JUMP JUMPDEST AND DUP2 MSTORE PUSH1 0xB DUP5 MSTORE KECCAK256 SLOAD SWAP1 MLOAD SWAP1 DUP2 MSTORE RETURN JUMPDEST POP POP CALLVALUE PUSH2 0x196 JUMPI PUSH1 0x20 CALLDATASIZE PUSH1 0x3 NOT ADD SLT PUSH2 0x196 JUMPI PUSH1 0x20 SWAP2 DUP2 SWAP1 PUSH1 0x1 PUSH1 0x1 PUSH1 0xA0 SHL SUB PUSH2 0x406 PUSH2 0x1809 JUMP JUMPDEST AND DUP2 MSTORE PUSH1 0xA DUP5 MSTORE KECCAK256 SLOAD SWAP1 MLOAD SWAP1 DUP2 MSTORE RETURN JUMPDEST SWAP2 SWAP1 POP CALLVALUE PUSH2 0x455 JUMPI DUP1 PUSH1 0x3 NOT CALLDATASIZE ADD SLT PUSH2 0x455 JUMPI PUSH2 0x451 SWAP2 CALLDATALOAD PUSH2 0x44C PUSH1 0x1 PUSH2 0x43B PUSH2 0x1824 JUMP JUMPDEST SWAP4 DUP4 DUP8 MSTORE DUP7 PUSH1 0x20 MSTORE DUP7 KECCAK256 ADD SLOAD PUSH2 0x1B03 JUMP JUMPDEST PUSH2 0x1C42 JUMP JUMPDEST POP DUP1 RETURN JUMPDEST DUP3 DUP1 REVERT JUMPDEST SWAP2 SWAP1 POP CALLVALUE PUSH2 0x455 JUMPI DUP1 PUSH1 0x3 NOT CALLDATASIZE ADD SLT PUSH2 0x455 JUMPI PUSH2 0x474 PUSH2 0x1809 JUMP JUMPDEST SWAP1 PUSH1 0x24 DUP1 CALLDATALOAD SWAP4 DUP5 ISZERO ISZERO DUP6 SUB PUSH2 0xDAA JUMPI PUSH2 0x48B PUSH2 0x1A9B JUMP JUMPDEST PUSH1 0x1 DUP1 PUSH1 0xA0 SHL SUB SWAP2 DUP3 SWAP2 PUSH1 0x2 SWAP7 DUP4 DUP9 SLOAD AND SWAP7 DUP7 MLOAD SWAP6 DUP7 SWAP2 PUSH4 0x1EB30AEB PUSH1 0xE0 SHL DUP4 MSTORE AND SWAP8 DUP9 DUP5 DUP4 ADD MSTORE DUP2 DUP6 PUSH1 0x20 SWAP9 DUP10 SWAP4 GAS STATICCALL SWAP1 DUP2 ISZERO PUSH2 0xDA0 JUMPI DUP11 SWAP2 PUSH2 0xD66 JUMPI JUMPDEST POP ISZERO PUSH2 0xD2E JUMPI DUP7 DUP10 MSTORE PUSH1 0xA DUP6 MSTORE DUP6 DUP10 KECCAK256 PUSH2 0x4E4 DUP2 SLOAD PUSH2 0x1CB7 JUMP JUMPDEST SWAP1 SSTORE PUSH2 0xD13 JUMPI JUMPDEST DUP6 DUP9 MSTORE PUSH1 0xA DUP5 MSTORE PUSH1 0x1 SWAP7 DUP8 DUP7 DUP11 KECCAK256 SLOAD EQ DUP1 PUSH2 0xCF9 JUMPI JUMPDEST PUSH2 0xB35 JUMPI JUMPDEST DUP7 DUP10 MSTORE PUSH1 0xA DUP6 MSTORE PUSH1 0x32 DUP7 DUP11 KECCAK256 SLOAD LT ISZERO DUP1 PUSH2 0xB1B JUMPI JUMPDEST PUSH2 0x958 JUMPI JUMPDEST DUP7 DUP10 MSTORE PUSH1 0xB DUP6 MSTORE PUSH1 0xA DUP7 DUP11 KECCAK256 SLOAD LT ISZERO DUP1 PUSH2 0x93E JUMPI JUMPDEST PUSH2 0x6D3 JUMPI JUMPDEST DUP5 PUSH1 0x3 SWAP5 DUP6 SLOAD AND DUP8 MLOAD SWAP5 DUP6 DUP1 SWAP3 PUSH4 0x17D0944F PUSH1 0xE2 SHL DUP3 MSTORE DUP12 DUP8 DUP4 ADD MSTORE GAS STATICCALL SWAP3 DUP4 ISZERO PUSH2 0x6C9 JUMPI SWAP1 DUP9 SWAP4 SWAP3 SWAP2 DUP11 SWAP4 PUSH2 0x693 JUMPI JUMPDEST POP DUP4 JUMPDEST PUSH2 0x576 JUMPI DUP10 DUP1 RETURN JUMPDEST PUSH1 0xE SLOAD DUP5 GT PUSH2 0x68F JUMPI PUSH2 0x60B DUP5 DUP11 SWAP6 DUP13 MSTORE PUSH1 0x8 DUP9 MSTORE DUP1 DUP11 DUP14 DUP12 DUP11 DUP13 PUSH1 0xA0 DUP13 PUSH1 0x5 DUP6 DUP8 KECCAK256 SWAP5 PUSH2 0x5B4 DUP8 MLOAD SWAP4 PUSH2 0x5A9 DUP6 PUSH2 0x1915 JUMP JUMPDEST DUP8 SLOAD DUP6 MSTORE DUP8 ADD PUSH2 0x1953 JUMP JUMPDEST DUP6 DUP5 ADD MSTORE PUSH2 0x5C3 DUP14 DUP8 ADD PUSH2 0x1953 JUMP JUMPDEST DUP8 DUP5 ADD MSTORE DUP6 ADD SLOAD SWAP2 PUSH1 0x60 DUP2 ADD SWAP3 DUP4 MSTORE DUP14 DUP7 ADD SLOAD SWAP6 PUSH1 0x80 DUP3 ADD SWAP7 DUP8 MSTORE PUSH1 0xFF SWAP3 DUP4 SWAP2 ADD SLOAD AND ISZERO ISZERO SWAP4 DUP5 SWAP2 ADD MSTORE DUP3 PUSH2 0x672 JUMPI JUMPDEST POP DUP2 PUSH2 0x666 JUMPI JUMPDEST POP PUSH2 0x611 JUMPI JUMPDEST POP POP POP POP POP POP PUSH2 0x1CB7 JUMP JUMPDEST SWAP4 PUSH2 0x56E JUMP JUMPDEST DUP4 DUP4 SWAP2 DUP7 PUSH32 0x8AB103BF8B651015742CB95EEE57481E58E7D8CF13A9E85F4D609605F2C32511 SWAP7 MSTORE PUSH1 0x9 DUP2 MSTORE DUP3 DUP3 KECCAK256 SWAP1 DUP9 DUP4 MSTORE MSTORE KECCAK256 DUP12 PUSH1 0xFF NOT DUP3 SLOAD AND OR SWAP1 SSTORE MLOAD DUP2 MLOAD SWAP1 DUP2 MSTORE TIMESTAMP DUP14 DUP3 ADD MSTORE LOG3 DUP1 DUP11 DUP14 DUP12 CODESIZE DUP13 PUSH2 0x600 JUMP JUMPDEST SWAP1 POP MLOAD DUP12 LT ISZERO CODESIZE PUSH2 0x5FA JUMP JUMPDEST DUP8 DUP8 MSTORE PUSH1 0x9 DUP5 MSTORE DUP6 DUP8 KECCAK256 DUP10 DUP9 MSTORE DUP5 MSTORE DUP6 DUP8 KECCAK256 SLOAD AND ISZERO SWAP2 POP CODESIZE PUSH2 0x5F3 JUMP JUMPDEST DUP10 DUP1 RETURN JUMPDEST SWAP4 POP SWAP2 POP DUP5 DUP4 DUP2 RETURNDATASIZE DUP2 GT PUSH2 0x6C2 JUMPI JUMPDEST PUSH2 0x6AC DUP2 DUP4 PUSH2 0x1931 JUMP JUMPDEST DUP2 ADD SUB SLT PUSH2 0x6BE JUMPI DUP8 SWAP3 MLOAD SWAP2 CODESIZE PUSH2 0x56B JUMP JUMPDEST DUP9 DUP1 REVERT JUMPDEST POP RETURNDATASIZE PUSH2 0x6A2 JUMP JUMPDEST DUP7 MLOAD RETURNDATASIZE DUP12 DUP3 RETURNDATACOPY RETURNDATASIZE SWAP1 REVERT JUMPDEST DUP1 DUP10 MSTORE DUP2 DUP6 MSTORE DUP6 DUP10 KECCAK256 DUP7 MLOAD PUSH2 0x6E7 DUP2 PUSH2 0x1915 JUMP JUMPDEST PUSH2 0x6F5 PUSH1 0xFF DUP4 SLOAD AND DUP3 PUSH2 0x1CDC JUMP JUMPDEST PUSH2 0x700 DUP11 DUP4 ADD PUSH2 0x1953 JUMP JUMPDEST DUP8 DUP3 ADD MSTORE PUSH2 0x70F DUP4 DUP4 ADD PUSH2 0x1953 JUMP JUMPDEST DUP9 DUP3 ADD MSTORE PUSH1 0xFF PUSH1 0x5 PUSH1 0x3 DUP5 ADD SLOAD SWAP4 PUSH1 0x60 DUP5 ADD SWAP5 DUP6 MSTORE DUP7 DUP2 ADD SLOAD PUSH1 0x80 DUP6 ADD MSTORE ADD SLOAD AND ISZERO SWAP1 PUSH1 0xA0 DUP3 ISZERO SWAP2 ADD MSTORE PUSH2 0x909 JUMPI DUP8 DUP11 MSTORE PUSH1 0x5 DUP7 MSTORE DUP7 DUP11 KECCAK256 DUP3 DUP12 MSTORE DUP7 MSTORE PUSH1 0xFF DUP8 DUP12 KECCAK256 SLOAD AND PUSH2 0x8D0 JUMPI DUP8 DUP11 MSTORE PUSH1 0x5 DUP7 MSTORE DUP7 DUP11 KECCAK256 DUP3 DUP12 MSTORE DUP7 MSTORE DUP7 DUP11 KECCAK256 DUP10 PUSH1 0xFF NOT DUP3 SLOAD AND OR SWAP1 SSTORE DUP8 DUP11 MSTORE PUSH1 0x7 DUP7 MSTORE DUP7 DUP11 KECCAK256 PUSH2 0x787 DUP2 SLOAD PUSH2 0x1CB7 JUMP JUMPDEST SWAP1 SSTORE PUSH2 0x794 PUSH1 0xD SLOAD PUSH2 0x1CB7 JUMP JUMPDEST PUSH1 0xD SSTORE DUP8 DUP11 MSTORE PUSH1 0x6 DUP7 MSTORE DUP7 DUP11 KECCAK256 DUP2 MLOAD DUP9 MLOAD SWAP2 PUSH2 0x7AF DUP4 PUSH2 0x18E3 JUMP JUMPDEST DUP11 DUP4 MSTORE DUP9 DUP4 ADD DUP6 DUP2 MSTORE DUP11 DUP5 ADD DUP14 DUP2 MSTORE PUSH1 0x60 DUP6 ADD SWAP3 TIMESTAMP DUP5 MSTORE PUSH1 0x80 DUP7 ADD SWAP5 DUP6 MSTORE DUP1 SLOAD SWAP1 PUSH1 0x1 PUSH1 0x40 SHL DUP3 LT ISZERO PUSH2 0x8BC JUMPI DUP16 DUP3 ADD DUP2 SSTORE PUSH2 0x7EB SWAP2 SWAP1 PUSH2 0x183A JUMP JUMPDEST SWAP6 SWAP1 SWAP6 PUSH2 0x8AA JUMPI MLOAD DUP6 SLOAD PUSH1 0x1 PUSH1 0x1 PUSH1 0xA0 SHL SUB NOT DUP2 AND SWAP2 DUP13 AND SWAP2 DUP3 OR DUP8 SSTORE SWAP3 MLOAD PUSH1 0x8 DUP2 LT ISZERO PUSH2 0x896 JUMPI PUSH1 0xFF PUSH1 0xA0 SHL PUSH1 0xA0 SWAP2 SWAP1 SWAP2 SHL AND PUSH1 0x1 PUSH1 0x1 PUSH1 0xA8 SHL SUB NOT DUP5 AND DUP3 OR DUP2 OR DUP8 SSTORE SWAP2 MLOAD PUSH1 0x5 DUP2 LT ISZERO PUSH2 0x896 JUMPI PUSH1 0x1 PUSH1 0x1 PUSH1 0xB0 SHL SUB NOT SWAP1 SWAP4 AND OR OR PUSH1 0xA8 SWAP2 SWAP1 SWAP2 SHL PUSH1 0xFF PUSH1 0xA8 SHL AND OR DUP4 SSTORE MLOAD DUP3 DUP13 ADD SSTORE MLOAD SWAP1 DUP4 ADD SSTORE MLOAD DUP7 MLOAD DUP3 DUP2 MSTORE DUP7 DUP2 ADD DUP11 SWAP1 MSTORE DUP1 DUP9 ADD SWAP2 SWAP1 SWAP2 MSTORE TIMESTAMP PUSH1 0x60 DUP3 ADD MSTORE DUP8 SWAP1 PUSH1 0x0 DUP1 MLOAD PUSH1 0x20 PUSH2 0x1D15 DUP4 CODECOPY DUP2 MLOAD SWAP2 MSTORE SWAP1 PUSH1 0x80 SWAP1 LOG2 PUSH2 0x53A JUMP JUMPDEST POP POP PUSH4 0x4E487B71 PUSH1 0xE0 SHL DUP16 MSTORE PUSH1 0x21 DUP9 MSTORE DUP9 DUP16 REVERT JUMPDEST POP PUSH4 0x4E487B71 PUSH1 0xE0 SHL DUP16 MSTORE DUP15 DUP9 MSTORE DUP9 DUP16 REVERT JUMPDEST POP POP PUSH4 0x4E487B71 PUSH1 0xE0 SHL DUP16 MSTORE PUSH1 0x41 DUP9 MSTORE DUP9 DUP16 REVERT JUMPDEST DUP7 MLOAD PUSH3 0x461BCD PUSH1 0xE5 SHL DUP2 MSTORE DUP1 DUP5 ADD DUP8 SWAP1 MSTORE PUSH1 0x14 DUP2 DUP7 ADD MSTORE PUSH20 0x10985919D948185B1C9958591E4819585C9B9959 PUSH1 0x62 SHL PUSH1 0x44 DUP3 ADD MSTORE PUSH1 0x64 SWAP1 REVERT JUMPDEST DUP7 MLOAD PUSH3 0x461BCD PUSH1 0xE5 SHL DUP2 MSTORE DUP1 DUP5 ADD DUP8 SWAP1 MSTORE PUSH1 0x10 DUP2 DUP7 ADD MSTORE PUSH16 0x4261646765206E6F7420616374697665 PUSH1 0x80 SHL PUSH1 0x44 DUP3 ADD MSTORE PUSH1 0x64 SWAP1 REVERT JUMPDEST POP PUSH1 0x5 DUP6 MSTORE DUP6 DUP10 KECCAK256 DUP2 DUP11 MSTORE DUP6 MSTORE PUSH1 0xFF DUP7 DUP11 KECCAK256 SLOAD AND ISZERO PUSH2 0x535 JUMP JUMPDEST DUP8 DUP10 MSTORE DUP2 DUP6 MSTORE DUP6 DUP10 KECCAK256 DUP7 MLOAD PUSH2 0x96C DUP2 PUSH2 0x1915 JUMP JUMPDEST PUSH2 0x97A PUSH1 0xFF DUP4 SLOAD AND DUP3 PUSH2 0x1CDC JUMP JUMPDEST PUSH2 0x985 DUP11 DUP4 ADD PUSH2 0x1953 JUMP JUMPDEST DUP8 DUP3 ADD MSTORE PUSH2 0x994 DUP4 DUP4 ADD PUSH2 0x1953 JUMP JUMPDEST DUP9 DUP3 ADD MSTORE PUSH1 0xFF PUSH1 0x5 PUSH1 0x3 DUP5 ADD SLOAD SWAP4 PUSH1 0x60 DUP5 ADD SWAP5 DUP6 MSTORE DUP7 DUP2 ADD SLOAD PUSH1 0x80 DUP6 ADD MSTORE ADD SLOAD AND ISZERO SWAP1 PUSH1 0xA0 DUP3 ISZERO SWAP2 ADD MSTORE PUSH2 0x909 JUMPI DUP8 DUP11 MSTORE PUSH1 0x5 DUP7 MSTORE DUP7 DUP11 KECCAK256 DUP10 DUP12 MSTORE DUP7 MSTORE PUSH1 0xFF DUP8 DUP12 KECCAK256 SLOAD AND PUSH2 0x8D0 JUMPI DUP8 DUP11 MSTORE PUSH1 0x5 DUP7 MSTORE DUP7 DUP11 KECCAK256 DUP10 DUP12 MSTORE DUP7 MSTORE DUP7 DUP11 KECCAK256 DUP10 PUSH1 0xFF NOT DUP3 SLOAD AND OR SWAP1 SSTORE DUP8 DUP11 MSTORE PUSH1 0x7 DUP7 MSTORE DUP7 DUP11 KECCAK256 PUSH2 0xA0C DUP2 SLOAD PUSH2 0x1CB7 JUMP JUMPDEST SWAP1 SSTORE PUSH2 0xA19 PUSH1 0xD SLOAD PUSH2 0x1CB7 JUMP JUMPDEST PUSH1 0xD SSTORE DUP8 DUP11 MSTORE PUSH1 0x6 DUP7 MSTORE DUP7 DUP11 KECCAK256 DUP2 MLOAD DUP9 MLOAD SWAP2 PUSH2 0xA34 DUP4 PUSH2 0x18E3 JUMP JUMPDEST DUP11 DUP4 MSTORE DUP9 DUP4 ADD DUP13 DUP2 MSTORE DUP11 DUP5 ADD DUP7 DUP2 MSTORE PUSH1 0x60 DUP6 ADD SWAP3 TIMESTAMP DUP5 MSTORE PUSH1 0x80 DUP7 ADD SWAP5 DUP6 MSTORE DUP1 SLOAD SWAP1 PUSH1 0x1 PUSH1 0x40 SHL DUP3 LT ISZERO PUSH2 0x8BC JUMPI DUP16 DUP3 ADD DUP2 SSTORE PUSH2 0xA70 SWAP2 SWAP1 PUSH2 0x183A JUMP JUMPDEST SWAP6 SWAP1 SWAP6 PUSH2 0x8AA JUMPI MLOAD DUP6 SLOAD PUSH1 0x1 PUSH1 0x1 PUSH1 0xA0 SHL SUB NOT DUP2 AND SWAP2 DUP13 AND SWAP2 DUP3 OR DUP8 SSTORE SWAP3 MLOAD PUSH1 0x8 DUP2 LT ISZERO PUSH2 0x896 JUMPI PUSH1 0xFF PUSH1 0xA0 SHL PUSH1 0xA0 SWAP2 SWAP1 SWAP2 SHL AND PUSH1 0x1 PUSH1 0x1 PUSH1 0xA8 SHL SUB NOT DUP5 AND DUP3 OR DUP2 OR DUP8 SSTORE SWAP2 MLOAD PUSH1 0x5 DUP2 LT ISZERO PUSH2 0x896 JUMPI PUSH1 0x1 PUSH1 0x1 PUSH1 0xB0 SHL SUB NOT SWAP1 SWAP4 AND OR OR PUSH1 0xA8 SWAP2 SWAP1 SWAP2 SHL PUSH1 0xFF PUSH1 0xA8 SHL AND OR DUP4 SSTORE MLOAD DUP3 DUP13 ADD SSTORE MLOAD SWAP1 DUP4 ADD SSTORE MLOAD DUP7 MLOAD DUP10 DUP2 MSTORE DUP7 DUP2 ADD DUP4 SWAP1 MSTORE DUP1 DUP9 ADD SWAP2 SWAP1 SWAP2 MSTORE TIMESTAMP PUSH1 0x60 DUP3 ADD MSTORE DUP8 SWAP1 PUSH1 0x0 DUP1 MLOAD PUSH1 0x20 PUSH2 0x1D15 DUP4 CODECOPY DUP2 MLOAD SWAP2 MSTORE SWAP1 PUSH1 0x80 SWAP1 LOG2 PUSH2 0x520 JUMP JUMPDEST POP PUSH1 0x5 DUP6 MSTORE DUP6 DUP10 KECCAK256 DUP9 DUP11 MSTORE DUP6 MSTORE PUSH1 0xFF DUP7 DUP11 KECCAK256 SLOAD AND ISZERO PUSH2 0x51B JUMP JUMPDEST DUP9 DUP1 MSTORE DUP2 DUP6 MSTORE DUP6 DUP10 KECCAK256 DUP7 MLOAD PUSH2 0xB49 DUP2 PUSH2 0x1915 JUMP JUMPDEST PUSH2 0xB57 PUSH1 0xFF DUP4 SLOAD AND DUP3 PUSH2 0x1CDC JUMP JUMPDEST PUSH2 0xB62 DUP11 DUP4 ADD PUSH2 0x1953 JUMP JUMPDEST DUP8 DUP3 ADD MSTORE PUSH2 0xB71 DUP4 DUP4 ADD PUSH2 0x1953 JUMP JUMPDEST DUP9 DUP3 ADD MSTORE PUSH1 0xFF PUSH1 0x5 PUSH1 0x3 DUP5 ADD SLOAD SWAP4 PUSH1 0x60 DUP5 ADD SWAP5 DUP6 MSTORE DUP7 DUP2 ADD SLOAD PUSH1 0x80 DUP6 ADD MSTORE ADD SLOAD AND ISZERO SWAP1 PUSH1 0xA0 DUP3 ISZERO SWAP2 ADD MSTORE PUSH2 0x909 JUMPI DUP8 DUP11 MSTORE PUSH1 0x5 DUP7 MSTORE DUP7 DUP11 KECCAK256 DUP11 DUP1 MSTORE DUP7 MSTORE PUSH1 0xFF DUP8 DUP12 KECCAK256 SLOAD AND PUSH2 0x8D0 JUMPI DUP8 DUP11 MSTORE PUSH1 0x5 DUP7 MSTORE DUP7 DUP11 KECCAK256 DUP11 DUP1 MSTORE DUP7 MSTORE DUP7 DUP11 KECCAK256 DUP10 PUSH1 0xFF NOT DUP3 SLOAD AND OR SWAP1 SSTORE DUP8 DUP11 MSTORE PUSH1 0x7 DUP7 MSTORE DUP7 DUP11 KECCAK256 PUSH2 0xBE9 DUP2 SLOAD PUSH2 0x1CB7 JUMP JUMPDEST SWAP1 SSTORE PUSH2 0xBF6 PUSH1 0xD SLOAD PUSH2 0x1CB7 JUMP JUMPDEST PUSH1 0xD SSTORE DUP8 DUP11 MSTORE PUSH1 0x6 DUP7 MSTORE DUP7 DUP11 KECCAK256 DUP2 MLOAD DUP9 MLOAD SWAP2 PUSH2 0xC11 DUP4 PUSH2 0x18E3 JUMP JUMPDEST DUP11 DUP4 MSTORE DUP9 DUP4 ADD DUP14 DUP2 MSTORE DUP14 DUP12 DUP6 ADD SWAP1 DUP2 MSTORE PUSH1 0x60 DUP6 ADD SWAP3 TIMESTAMP DUP5 MSTORE PUSH1 0x80 DUP7 ADD SWAP5 DUP6 MSTORE DUP1 SLOAD SWAP1 PUSH1 0x1 PUSH1 0x40 SHL DUP3 LT ISZERO PUSH2 0x8BC JUMPI DUP16 DUP3 ADD DUP2 SSTORE PUSH2 0xC4E SWAP2 SWAP1 PUSH2 0x183A JUMP JUMPDEST SWAP6 SWAP1 SWAP6 PUSH2 0x8AA JUMPI MLOAD DUP6 SLOAD PUSH1 0x1 PUSH1 0x1 PUSH1 0xA0 SHL SUB NOT DUP2 AND SWAP2 DUP13 AND SWAP2 DUP3 OR DUP8 SSTORE SWAP3 MLOAD PUSH1 0x8 DUP2 LT ISZERO PUSH2 0x896 JUMPI PUSH1 0xFF PUSH1 0xA0 SHL PUSH1 0xA0 SWAP2 SWAP1 SWAP2 SHL AND PUSH1 0x1 PUSH1 0x1 PUSH1 0xA8 SHL SUB NOT DUP5 AND DUP3 OR DUP2 OR DUP8 SSTORE SWAP2 MLOAD PUSH1 0x5 DUP2 LT ISZERO PUSH2 0x896 JUMPI PUSH1 0x1 PUSH1 0x1 PUSH1 0xB0 SHL SUB NOT SWAP1 SWAP4 AND OR OR PUSH1 0xA8 SWAP2 SWAP1 SWAP2 SHL PUSH1 0xFF PUSH1 0xA8 SHL AND OR DUP4 SSTORE MLOAD DUP3 DUP13 ADD SSTORE MLOAD SWAP1 DUP4 ADD SSTORE MLOAD DUP7 MLOAD DUP11 DUP2 MSTORE DUP7 DUP2 ADD DUP12 SWAP1 MSTORE DUP1 DUP9 ADD SWAP2 SWAP1 SWAP2 MSTORE TIMESTAMP PUSH1 0x60 DUP3 ADD MSTORE DUP8 SWAP1 PUSH1 0x0 DUP1 MLOAD PUSH1 0x20 PUSH2 0x1D15 DUP4 CODECOPY DUP2 MLOAD SWAP2 MSTORE SWAP1 PUSH1 0x80 SWAP1 LOG2 PUSH2 0x506 JUMP JUMPDEST POP PUSH1 0x5 DUP6 MSTORE DUP6 DUP10 KECCAK256 DUP10 DUP1 MSTORE DUP6 MSTORE PUSH1 0xFF DUP7 DUP11 KECCAK256 SLOAD AND ISZERO PUSH2 0x501 JUMP JUMPDEST DUP6 DUP9 MSTORE PUSH1 0xB DUP5 MSTORE DUP5 DUP9 KECCAK256 PUSH2 0xD27 DUP2 SLOAD PUSH2 0x1CB7 JUMP JUMPDEST SWAP1 SSTORE PUSH2 0x4EB JUMP JUMPDEST POP PUSH1 0x14 PUSH1 0x64 SWAP3 DUP6 DUP8 MLOAD SWAP4 PUSH3 0x461BCD PUSH1 0xE5 SHL DUP6 MSTORE DUP5 ADD MSTORE DUP3 ADD MSTORE PUSH20 0x139BDD081D995C9A599A5959081CDD1D59195B9D PUSH1 0x62 SHL PUSH1 0x44 DUP3 ADD MSTORE REVERT JUMPDEST SWAP1 POP DUP6 DUP2 DUP2 RETURNDATASIZE DUP4 GT PUSH2 0xD99 JUMPI JUMPDEST PUSH2 0xD7D DUP2 DUP4 PUSH2 0x1931 JUMP JUMPDEST DUP2 ADD SUB SLT PUSH2 0xD95 JUMPI MLOAD DUP1 ISZERO ISZERO DUP2 SUB PUSH2 0xD95 JUMPI CODESIZE PUSH2 0x4CA JUMP JUMPDEST DUP10 DUP1 REVERT JUMPDEST POP RETURNDATASIZE PUSH2 0xD73 JUMP JUMPDEST DUP8 MLOAD RETURNDATASIZE DUP13 DUP3 RETURNDATACOPY RETURNDATASIZE SWAP1 REVERT JUMPDEST DUP6 DUP1 REVERT JUMPDEST POP POP CALLVALUE PUSH2 0x196 JUMPI PUSH1 0x20 CALLDATASIZE PUSH1 0x3 NOT ADD SLT PUSH2 0x196 JUMPI PUSH1 0x20 SWAP2 DUP2 SWAP1 PUSH1 0x1 PUSH1 0x1 PUSH1 0xA0 SHL SUB PUSH2 0xDD6 PUSH2 0x1809 JUMP JUMPDEST AND DUP2 MSTORE PUSH1 0xC DUP5 MSTORE KECCAK256 SLOAD SWAP1 MLOAD SWAP1 DUP2 MSTORE RETURN JUMPDEST POP POP CALLVALUE PUSH2 0x196 JUMPI DUP2 PUSH1 0x3 NOT CALLDATASIZE ADD SLT PUSH2 0x196 JUMPI PUSH1 0x20 SWAP1 PUSH1 0xD SLOAD SWAP1 MLOAD SWAP1 DUP2 MSTORE RETURN JUMPDEST SWAP1 POP CALLVALUE PUSH2 0x455 JUMPI DUP2 PUSH1 0x3 NOT CALLDATASIZE ADD SLT PUSH2 0x455 JUMPI PUSH2 0xE1F PUSH2 0x1809 JUMP JUMPDEST SWAP1 PUSH1 0x24 SWAP3 DUP4 CALLDATALOAD SWAP2 PUSH2 0xE2E PUSH2 0x1A9B JUMP JUMPDEST PUSH1 0x1 DUP1 PUSH1 0xA0 SHL SUB DUP1 SWAP5 AND SWAP5 DUP6 DUP8 MSTORE PUSH1 0x1E PUSH1 0x20 SWAP5 PUSH1 0xC DUP7 MSTORE DUP1 DUP6 DUP11 KECCAK256 SSTORE LT ISZERO DUP1 PUSH2 0x10E7 JUMPI JUMPDEST PUSH2 0xE5A JUMPI DUP7 DUP1 RETURN JUMPDEST PUSH1 0x3 SWAP5 DUP6 DUP9 MSTORE DUP3 DUP6 MSTORE DUP4 DUP9 KECCAK256 SWAP3 DUP5 MLOAD PUSH2 0xE72 DUP2 PUSH2 0x1915 JUMP JUMPDEST PUSH2 0xE80 PUSH1 0xFF DUP7 SLOAD AND DUP3 PUSH2 0x1CDC JUMP JUMPDEST PUSH2 0xE8C PUSH1 0x1 DUP7 ADD PUSH2 0x1953 JUMP JUMPDEST DUP8 DUP3 ADD MSTORE PUSH2 0xE9C PUSH1 0x2 DUP7 ADD PUSH2 0x1953 JUMP JUMPDEST DUP7 DUP3 ADD MSTORE PUSH1 0xFF PUSH1 0x5 DUP10 DUP8 ADD SLOAD SWAP7 PUSH1 0x60 DUP5 ADD SWAP8 DUP9 MSTORE DUP5 DUP2 ADD SLOAD PUSH1 0x80 DUP6 ADD MSTORE ADD SLOAD AND ISZERO SWAP1 PUSH1 0xA0 DUP3 ISZERO SWAP2 ADD MSTORE PUSH2 0x10B2 JUMPI DUP8 DUP10 MSTORE PUSH1 0x5 DUP7 MSTORE DUP5 DUP10 KECCAK256 DUP8 DUP11 MSTORE DUP7 MSTORE PUSH1 0xFF DUP6 DUP11 KECCAK256 SLOAD AND PUSH2 0x1079 JUMPI DUP8 DUP10 MSTORE PUSH1 0x5 DUP7 MSTORE DUP5 DUP10 KECCAK256 DUP8 DUP11 MSTORE DUP7 MSTORE DUP5 DUP10 KECCAK256 PUSH1 0x1 PUSH1 0xFF NOT DUP3 SLOAD AND OR SWAP1 SSTORE DUP8 DUP10 MSTORE PUSH1 0x7 DUP7 MSTORE DUP5 DUP10 KECCAK256 PUSH2 0xF14 DUP2 SLOAD PUSH2 0x1CB7 JUMP JUMPDEST SWAP1 SSTORE PUSH2 0xF21 PUSH1 0xD SLOAD PUSH2 0x1CB7 JUMP JUMPDEST PUSH1 0xD SSTORE DUP8 DUP10 MSTORE PUSH1 0x6 DUP7 MSTORE DUP5 DUP10 KECCAK256 SWAP1 DUP5 MLOAD SWAP3 DUP7 MLOAD SWAP5 PUSH2 0xF3E DUP7 PUSH2 0x18E3 JUMP JUMPDEST DUP11 DUP7 MSTORE DUP9 DUP7 ADD SWAP3 DUP11 DUP5 MSTORE DUP9 DUP8 ADD SWAP3 PUSH1 0x2 DUP5 MSTORE PUSH1 0x60 DUP9 ADD SWAP6 TIMESTAMP DUP8 MSTORE PUSH1 0x80 DUP10 ADD SWAP8 DUP9 MSTORE DUP1 SLOAD SWAP1 PUSH1 0x1 PUSH1 0x40 SHL DUP3 LT ISZERO PUSH2 0x1066 JUMPI SWAP1 PUSH2 0xF7E SWAP2 PUSH1 0x1 DUP3 ADD DUP2 SSTORE PUSH2 0x183A JUMP JUMPDEST SWAP9 SWAP1 SWAP9 PUSH2 0x1055 JUMPI MLOAD AND SWAP2 DUP8 SLOAD SWAP5 DUP4 PUSH12 0xFFFFFFFFFFFFFFFFFFFFFFFF PUSH1 0xA0 SHL DUP8 AND OR DUP10 SSTORE MLOAD PUSH1 0x8 DUP2 LT ISZERO PUSH2 0x1043 JUMPI PUSH1 0xFF PUSH1 0xA0 SHL PUSH1 0xA0 SWAP2 SWAP1 SWAP2 SHL AND PUSH1 0x1 PUSH1 0x1 PUSH1 0xA8 SHL SUB NOT DUP7 AND DUP5 OR DUP2 OR DUP10 SSTORE SWAP4 MLOAD SWAP2 PUSH1 0x5 DUP4 LT ISZERO PUSH2 0x1032 JUMPI POP POP PUSH1 0x1 PUSH1 0x1 PUSH1 0xB0 SHL SUB NOT SWAP1 SWAP4 AND OR OR PUSH1 0xA8 SWAP2 SWAP1 SWAP2 SHL PUSH1 0xFF PUSH1 0xA8 SHL AND OR DUP4 SSTORE MLOAD PUSH1 0x1 DUP4 ADD SSTORE MLOAD PUSH1 0x2 SWAP2 DUP3 ADD SSTORE SWAP1 MLOAD DUP3 MLOAD SWAP5 DUP6 MSTORE SWAP3 DUP5 ADD MSTORE DUP3 ADD MSTORE TIMESTAMP PUSH1 0x60 DUP3 ADD MSTORE PUSH1 0x0 DUP1 MLOAD PUSH1 0x20 PUSH2 0x1D15 DUP4 CODECOPY DUP2 MLOAD SWAP2 MSTORE SWAP1 PUSH1 0x80 SWAP1 LOG2 CODESIZE DUP1 DUP1 DUP1 DUP1 DUP1 DUP7 DUP1 RETURN JUMPDEST PUSH4 0x4E487B71 PUSH1 0xE0 SHL DUP16 MSTORE PUSH1 0x21 SWAP1 MSTORE DUP14 REVERT JUMPDEST POP PUSH4 0x4E487B71 PUSH1 0xE0 SHL DUP15 MSTORE PUSH1 0x21 DUP3 MSTORE DUP14 REVERT JUMPDEST PUSH4 0x4E487B71 PUSH1 0xE0 SHL DUP16 MSTORE DUP15 DUP4 MSTORE DUP4 DUP16 REVERT JUMPDEST POP PUSH4 0x4E487B71 PUSH1 0xE0 SHL DUP16 MSTORE PUSH1 0x41 DUP4 MSTORE DUP4 DUP16 REVERT JUMPDEST DUP5 MLOAD PUSH3 0x461BCD PUSH1 0xE5 SHL DUP2 MSTORE SWAP1 DUP2 ADD DUP7 SWAP1 MSTORE PUSH1 0x14 DUP2 DUP5 ADD MSTORE PUSH20 0x10985919D948185B1C9958591E4819585C9B9959 PUSH1 0x62 SHL PUSH1 0x44 DUP3 ADD MSTORE PUSH1 0x64 SWAP1 REVERT JUMPDEST DUP5 MLOAD PUSH3 0x461BCD PUSH1 0xE5 SHL DUP2 MSTORE SWAP1 DUP2 ADD DUP7 SWAP1 MSTORE PUSH1 0x10 DUP2 DUP5 ADD MSTORE PUSH16 0x4261646765206E6F7420616374697665 PUSH1 0x80 SHL PUSH1 0x44 DUP3 ADD MSTORE PUSH1 0x64 SWAP1 REVERT JUMPDEST POP PUSH1 0x5 DUP5 MSTORE DUP3 DUP8 KECCAK256 PUSH1 0x3 DUP9 MSTORE DUP5 MSTORE PUSH1 0xFF DUP4 DUP9 KECCAK256 SLOAD AND ISZERO PUSH2 0xE52 JUMP JUMPDEST DUP4 SWAP2 POP CALLVALUE PUSH2 0x196 JUMPI PUSH1 0x20 SWAP1 DUP2 PUSH1 0x3 NOT CALLDATASIZE ADD SLT PUSH2 0x455 JUMPI PUSH1 0xF SLOAD DUP2 CALLDATALOAD DUP2 DUP2 GT ISZERO PUSH2 0x1312 JUMPI POP SWAP2 SWAP3 SWAP1 JUMPDEST PUSH2 0x1133 DUP4 PUSH2 0x1CE8 JUMP JUMPDEST SWAP3 PUSH2 0x1140 DUP7 MLOAD SWAP5 DUP6 PUSH2 0x1931 JUMP JUMPDEST DUP1 DUP5 MSTORE PUSH1 0x1F NOT PUSH2 0x114F DUP3 PUSH2 0x1CE8 JUMP JUMPDEST ADD DUP4 JUMPDEST DUP2 DUP2 LT PUSH2 0x12D9 JUMPI POP POP PUSH1 0x3 DUP1 SLOAD PUSH1 0x1 PUSH1 0x1 PUSH1 0xA0 SHL SUB SWAP4 SWAP1 DUP5 AND SWAP2 DUP6 JUMPDEST DUP5 DUP2 LT PUSH2 0x11E0 JUMPI POP POP POP POP POP DUP5 MLOAD SWAP4 DUP1 DUP6 ADD SWAP2 DUP2 DUP7 MSTORE DUP5 MLOAD DUP1 SWAP4 MSTORE DUP2 DUP8 DUP8 ADD SWAP6 ADD SWAP4 SWAP1 JUMPDEST DUP4 DUP3 LT PUSH2 0x119F JUMPI DUP7 DUP7 SUB DUP8 RETURN JUMPDEST DUP5 MLOAD DUP1 MLOAD DUP3 AND DUP8 MSTORE DUP1 DUP5 ADD MLOAD DUP8 DUP6 ADD MSTORE DUP9 DUP2 ADD MLOAD DUP10 DUP9 ADD MSTORE PUSH1 0x60 DUP1 DUP3 ADD MLOAD SWAP1 DUP9 ADD MSTORE PUSH1 0x80 SWAP1 DUP2 ADD MLOAD SWAP1 DUP8 ADD MSTORE PUSH1 0xA0 SWAP1 SWAP6 ADD SWAP5 SWAP4 DUP3 ADD SWAP4 PUSH1 0x1 SWAP1 SWAP2 ADD SWAP1 PUSH2 0x1192 JUMP JUMPDEST DUP6 PUSH2 0x11EE DUP3 SWAP11 SWAP8 SWAP9 SWAP11 PUSH2 0x1A64 JUMP JUMPDEST SWAP1 SLOAD SWAP1 DUP5 SHL SHR AND DUP11 MLOAD PUSH4 0x17D0944F PUSH1 0xE2 SHL DUP2 MSTORE DUP2 DUP6 DUP3 ADD MSTORE PUSH1 0x24 SWAP1 DUP9 DUP2 DUP4 DUP2 DUP11 GAS STATICCALL SWAP1 DUP2 ISZERO PUSH2 0x12CF JUMPI DUP13 SWAP2 PUSH2 0x129E JUMPI JUMPDEST POP DUP3 DUP13 MSTORE PUSH1 0xA DUP10 MSTORE DUP13 DUP13 KECCAK256 SLOAD PUSH1 0x7 DUP11 MSTORE DUP14 DUP14 KECCAK256 SLOAD SWAP2 PUSH1 0x1 DUP7 ADD SWAP4 DUP5 DUP8 GT PUSH2 0x128D JUMPI POP SWAP1 DUP15 PUSH2 0x1284 SWAP7 SWAP6 SWAP5 SWAP4 SWAP3 DUP2 MLOAD SWAP6 PUSH2 0x1256 DUP8 PUSH2 0x18E3 JUMP JUMPDEST DUP7 MSTORE DUP13 DUP7 ADD MSTORE DUP5 ADD MSTORE PUSH1 0x60 DUP4 ADD MSTORE PUSH1 0x80 DUP3 ADD MSTORE PUSH2 0x1273 DUP3 DUP12 PUSH2 0x1D00 JUMP JUMPDEST MSTORE PUSH2 0x127E DUP2 DUP11 PUSH2 0x1D00 JUMP JUMPDEST POP PUSH2 0x1CB7 JUMP JUMPDEST SWAP8 SWAP6 SWAP5 SWAP8 PUSH2 0x116E JUMP JUMPDEST PUSH4 0x4E487B71 PUSH1 0xE0 SHL DUP16 MSTORE PUSH1 0x11 DUP10 MSTORE DUP15 REVERT JUMPDEST SWAP1 POP DUP9 DUP2 DUP2 RETURNDATASIZE DUP4 GT PUSH2 0x12C8 JUMPI JUMPDEST PUSH2 0x12B5 DUP2 DUP4 PUSH2 0x1931 JUMP JUMPDEST DUP2 ADD SUB SLT PUSH2 0x12C4 JUMPI MLOAD DUP14 PUSH2 0x121E JUMP JUMPDEST DUP12 DUP1 REVERT JUMPDEST POP RETURNDATASIZE PUSH2 0x12AB JUMP JUMPDEST DUP14 MLOAD RETURNDATASIZE DUP15 DUP3 RETURNDATACOPY RETURNDATASIZE SWAP1 REVERT JUMPDEST SWAP6 DUP1 SWAP4 SWAP5 SWAP7 DUP9 MLOAD PUSH2 0x12E9 DUP2 PUSH2 0x18E3 JUMP JUMPDEST DUP9 DUP2 MSTORE DUP9 DUP4 DUP3 ADD MSTORE DUP9 DUP11 DUP3 ADD MSTORE DUP9 PUSH1 0x60 DUP3 ADD MSTORE DUP9 PUSH1 0x80 DUP3 ADD MSTORE DUP3 DUP3 DUP10 ADD ADD MSTORE ADD SWAP6 SWAP4 SWAP3 SWAP6 PUSH2 0x1152 JUMP JUMPDEST SWAP1 POP SWAP2 SWAP3 SWAP1 PUSH2 0x112A JUMP JUMPDEST POP POP CALLVALUE PUSH2 0x196 JUMPI DUP2 PUSH1 0x3 NOT CALLDATASIZE ADD SLT PUSH2 0x196 JUMPI MLOAD SWAP1 DUP2 MSTORE PUSH1 0x20 SWAP1 RETURN JUMPDEST POP POP CALLVALUE PUSH2 0x196 JUMPI DUP2 PUSH1 0x3 NOT CALLDATASIZE ADD SLT PUSH2 0x196 JUMPI PUSH1 0x2 SLOAD SWAP1 MLOAD PUSH1 0x1 PUSH1 0x1 PUSH1 0xA0 SHL SUB SWAP1 SWAP2 AND DUP2 MSTORE PUSH1 0x20 SWAP1 RETURN JUMPDEST SWAP1 POP CALLVALUE PUSH2 0x455 JUMPI DUP2 PUSH1 0x3 NOT CALLDATASIZE ADD SLT PUSH2 0x455 JUMPI DUP2 PUSH1 0x20 SWAP4 PUSH1 0xFF SWAP3 PUSH2 0x1381 PUSH2 0x1824 JUMP JUMPDEST SWAP1 CALLDATALOAD DUP3 MSTORE DUP2 DUP7 MSTORE DUP3 DUP3 KECCAK256 PUSH1 0x1 PUSH1 0x1 PUSH1 0xA0 SHL SUB SWAP1 SWAP2 AND DUP3 MSTORE DUP6 MSTORE KECCAK256 SLOAD SWAP2 MLOAD SWAP2 AND ISZERO ISZERO DUP2 MSTORE RETURN JUMPDEST POP POP CALLVALUE PUSH2 0x196 JUMPI PUSH1 0xFF PUSH2 0x13D7 PUSH1 0x20 SWAP4 DUP4 PUSH2 0x13BF CALLDATASIZE PUSH2 0x189C JUMP JUMPDEST PUSH1 0x1 PUSH1 0x1 PUSH1 0xA0 SHL SUB SWAP1 SWAP2 AND DUP4 MSTORE PUSH1 0x5 DUP8 MSTORE SWAP2 KECCAK256 PUSH2 0x18CB JUMP JUMPDEST SLOAD AND SWAP1 MLOAD SWAP1 ISZERO ISZERO DUP2 MSTORE RETURN JUMPDEST SWAP1 POP CALLVALUE PUSH2 0x455 JUMPI PUSH1 0x20 CALLDATASIZE PUSH1 0x3 NOT ADD SLT PUSH2 0x455 JUMPI CALLDATALOAD SWAP2 PUSH1 0xF SLOAD DUP4 LT ISZERO PUSH2 0x313 JUMPI POP PUSH2 0x140D PUSH1 0x20 SWAP3 PUSH2 0x1A64 JUMP JUMPDEST SWAP1 SLOAD SWAP2 MLOAD SWAP2 PUSH1 0x1 DUP1 PUSH1 0xA0 SHL SUB SWAP2 PUSH1 0x3 SHL SHR AND DUP2 MSTORE RETURN JUMPDEST SWAP1 POP CALLVALUE PUSH2 0x455 JUMPI PUSH1 0x20 CALLDATASIZE PUSH1 0x3 NOT ADD SLT PUSH2 0x455 JUMPI DUP1 CALLDATALOAD PUSH1 0x8 DUP2 LT ISZERO PUSH2 0x14A2 JUMPI DUP4 DUP4 SWAP2 PUSH2 0x1491 SWAP6 MSTORE DUP3 PUSH1 0x20 MSTORE KECCAK256 SWAP2 PUSH1 0xFF DUP4 SLOAD AND SWAP3 PUSH2 0x390 PUSH2 0x1464 PUSH1 0x1 DUP4 ADD PUSH2 0x1953 JUMP JUMPDEST SWAP3 PUSH2 0x1471 PUSH1 0x2 DUP5 ADD PUSH2 0x1953 JUMP JUMPDEST PUSH2 0x383 PUSH1 0xFF PUSH1 0x5 PUSH1 0x3 DUP8 ADD SLOAD SWAP9 DUP8 ADD SLOAD SWAP7 ADD SLOAD AND SWAP6 DUP4 MLOAD SWAP10 DUP11 DUP1 SWAP11 PUSH2 0x186C JUMP JUMPDEST PUSH1 0xC0 PUSH1 0x20 DUP11 ADD MSTORE PUSH1 0xC0 DUP10 ADD SWAP1 PUSH2 0x1A24 JUMP JUMPDEST DUP4 DUP1 REVERT JUMPDEST POP POP CALLVALUE PUSH2 0x196 JUMPI DUP2 PUSH1 0x3 NOT CALLDATASIZE ADD SLT PUSH2 0x196 JUMPI PUSH1 0x20 SWAP1 MLOAD PUSH32 0xA49807205CE4D355092EF5A8A18F56E8913CF4A201FBE287825B095693C21775 DUP2 MSTORE RETURN JUMPDEST POP POP CALLVALUE PUSH2 0x196 JUMPI DUP2 PUSH1 0x3 NOT CALLDATASIZE ADD SLT PUSH2 0x196 JUMPI PUSH1 0x3 SLOAD SWAP1 MLOAD PUSH1 0x1 PUSH1 0x1 PUSH1 0xA0 SHL SUB SWAP1 SWAP2 AND DUP2 MSTORE PUSH1 0x20 SWAP1 RETURN JUMPDEST POP POP CALLVALUE PUSH2 0x196 JUMPI PUSH1 0x20 CALLDATASIZE PUSH1 0x3 NOT ADD SLT PUSH2 0x196 JUMPI PUSH1 0x20 SWAP2 DUP2 SWAP1 PUSH1 0x1 PUSH1 0x1 PUSH1 0xA0 SHL SUB PUSH2 0x1532 PUSH2 0x1809 JUMP JUMPDEST AND DUP2 MSTORE PUSH1 0x7 DUP5 MSTORE KECCAK256 SLOAD SWAP1 MLOAD SWAP1 DUP2 MSTORE RETURN JUMPDEST DUP4 SWAP2 POP CALLVALUE PUSH2 0x196 JUMPI PUSH1 0x20 CALLDATASIZE PUSH1 0x3 NOT ADD SLT PUSH2 0x196 JUMPI PUSH2 0x155E PUSH2 0x1809 JUMP JUMPDEST SWAP1 PUSH32 0xA49807205CE4D355092EF5A8A18F56E8913CF4A201FBE287825B095693C21775 DUP1 DUP5 MSTORE DUP4 PUSH1 0x20 MSTORE DUP5 DUP5 KECCAK256 CALLER DUP6 MSTORE PUSH1 0x20 MSTORE PUSH1 0xFF DUP6 DUP6 KECCAK256 SLOAD AND ISZERO PUSH2 0x15CA JUMPI DUP4 PUSH2 0x451 DUP5 PUSH2 0x15C5 PUSH1 0x1 DUP10 PUSH1 0x0 DUP1 MLOAD PUSH1 0x20 PUSH2 0x1D35 DUP4 CODECOPY DUP2 MLOAD SWAP2 MSTORE DUP7 MSTORE DUP6 PUSH1 0x20 MSTORE DUP6 KECCAK256 ADD SLOAD PUSH2 0x1B03 JUMP JUMPDEST PUSH2 0x1B29 JUMP JUMPDEST PUSH1 0x44 SWAP3 POP DUP5 MLOAD SWAP2 PUSH4 0xE2517D3F PUSH1 0xE0 SHL DUP4 MSTORE CALLER SWAP1 DUP4 ADD MSTORE PUSH1 0x24 DUP3 ADD MSTORE REVERT JUMPDEST POP POP CALLVALUE PUSH2 0x196 JUMPI PUSH1 0x20 DUP1 PUSH1 0x3 NOT CALLDATASIZE ADD SLT PUSH2 0x455 JUMPI PUSH1 0x80 SWAP3 PUSH1 0x1 PUSH1 0x1 PUSH1 0xA0 SHL SUB PUSH2 0x160E PUSH2 0x1809 JUMP JUMPDEST AND DUP2 MSTORE PUSH1 0xA DUP3 MSTORE DUP3 DUP2 KECCAK256 SLOAD SWAP3 PUSH1 0xB DUP4 MSTORE DUP1 DUP3 KECCAK256 SLOAD PUSH1 0x7 DUP5 MSTORE DUP2 DUP1 DUP5 KECCAK256 SLOAD SWAP4 PUSH1 0xC DUP7 MSTORE KECCAK256 SLOAD SWAP4 DUP3 MLOAD SWAP6 DUP7 MSTORE DUP6 ADD MSTORE DUP4 ADD MSTORE PUSH1 0x60 DUP3 ADD MSTORE RETURN JUMPDEST DUP4 DUP4 CALLVALUE PUSH2 0x196 JUMPI DUP1 PUSH1 0x3 NOT CALLDATASIZE ADD SLT PUSH2 0x196 JUMPI PUSH2 0x165F PUSH2 0x1824 JUMP JUMPDEST SWAP1 CALLER PUSH1 0x1 PUSH1 0x1 PUSH1 0xA0 SHL SUB DUP4 AND SUB PUSH2 0x167C JUMPI POP PUSH2 0x451 SWAP2 SWAP3 CALLDATALOAD PUSH2 0x1C42 JUMP JUMPDEST MLOAD PUSH4 0x334BD919 PUSH1 0xE1 SHL DUP2 MSTORE DUP4 SWAP1 REVERT JUMPDEST SWAP2 SWAP1 POP CALLVALUE PUSH2 0x455 JUMPI DUP1 PUSH1 0x3 NOT CALLDATASIZE ADD SLT PUSH2 0x455 JUMPI PUSH2 0x451 SWAP2 CALLDATALOAD PUSH2 0x16B0 PUSH1 0x1 PUSH2 0x43B PUSH2 0x1824 JUMP JUMPDEST PUSH2 0x1BC9 JUMP JUMPDEST SWAP1 POP CALLVALUE PUSH2 0x455 JUMPI PUSH1 0x20 CALLDATASIZE PUSH1 0x3 NOT ADD SLT PUSH2 0x455 JUMPI DUP2 PUSH1 0x20 SWAP4 PUSH1 0x1 SWAP3 CALLDATALOAD DUP2 MSTORE DUP1 DUP6 MSTORE KECCAK256 ADD SLOAD SWAP1 MLOAD SWAP1 DUP2 MSTORE RETURN JUMPDEST POP POP CALLVALUE PUSH2 0x196 JUMPI DUP1 PUSH1 0x3 NOT CALLDATASIZE ADD SLT PUSH2 0x196 JUMPI PUSH2 0x16F9 PUSH2 0x1809 JUMP JUMPDEST PUSH1 0x1 PUSH1 0x1 PUSH1 0xA0 SHL SUB SWAP1 DUP2 AND DUP4 MSTORE PUSH1 0x6 PUSH1 0x20 MSTORE DUP2 DUP4 KECCAK256 DUP1 SLOAD PUSH1 0x24 CALLDATALOAD SWAP5 SWAP3 SWAP4 SWAP3 SWAP1 DUP6 LT ISZERO PUSH2 0x313 JUMPI POP PUSH1 0xA0 SWAP4 PUSH2 0x172C SWAP2 PUSH2 0x183A JUMP JUMPDEST POP PUSH2 0x1763 DUP2 SLOAD PUSH1 0xFF PUSH1 0x2 PUSH1 0x1 DUP6 ADD SLOAD SWAP5 ADD SLOAD SWAP5 DUP1 MLOAD SWAP7 DUP4 AND DUP8 MSTORE PUSH2 0x1757 PUSH1 0x20 DUP9 ADD DUP4 DUP6 DUP12 SHR AND PUSH2 0x186C JUMP JUMPDEST DUP7 ADD SWAP2 PUSH1 0xA8 SHR AND PUSH2 0x188F JUMP JUMPDEST PUSH1 0x60 DUP4 ADD MSTORE PUSH1 0x80 DUP3 ADD MSTORE RETURN JUMPDEST SWAP1 POP CALLVALUE PUSH2 0x455 JUMPI PUSH1 0x20 CALLDATASIZE PUSH1 0x3 NOT ADD SLT PUSH2 0x455 JUMPI CALLDATALOAD SWAP1 PUSH4 0xFFFFFFFF PUSH1 0xE0 SHL DUP3 AND DUP1 SWAP3 SUB PUSH2 0x455 JUMPI PUSH1 0x20 SWAP3 POP PUSH4 0x7965DB0B PUSH1 0xE0 SHL DUP3 EQ SWAP2 DUP3 ISZERO PUSH2 0x17B4 JUMPI JUMPDEST POP MLOAD SWAP1 ISZERO ISZERO DUP2 MSTORE RETURN JUMPDEST PUSH4 0x1FFC9A7 PUSH1 0xE0 SHL EQ SWAP2 POP CODESIZE PUSH2 0x17AB JUMP JUMPDEST DUP5 SWAP1 DUP5 CALLVALUE PUSH2 0x455 JUMPI DUP1 PUSH1 0x3 NOT CALLDATASIZE ADD SLT PUSH2 0x455 JUMPI PUSH1 0x20 SWAP3 PUSH1 0xFF SWAP2 SWAP1 PUSH1 0x1 PUSH1 0x1 PUSH1 0xA0 SHL SUB PUSH2 0x17EF PUSH2 0x1809 JUMP JUMPDEST AND DUP2 MSTORE PUSH1 0x9 DUP6 MSTORE DUP2 DUP2 KECCAK256 PUSH1 0x24 CALLDATALOAD DUP3 MSTORE DUP6 MSTORE KECCAK256 SLOAD AND ISZERO ISZERO DUP2 MSTORE RETURN JUMPDEST PUSH1 0x4 CALLDATALOAD SWAP1 PUSH1 0x1 PUSH1 0x1 PUSH1 0xA0 SHL SUB DUP3 AND DUP3 SUB PUSH2 0x181F JUMPI JUMP JUMPDEST PUSH1 0x0 DUP1 REVERT JUMPDEST PUSH1 0x24 CALLDATALOAD SWAP1 PUSH1 0x1 PUSH1 0x1 PUSH1 0xA0 SHL SUB DUP3 AND DUP3 SUB PUSH2 0x181F JUMPI JUMP JUMPDEST DUP1 SLOAD DUP3 LT ISZERO PUSH2 0x1856 JUMPI PUSH1 0x0 MSTORE PUSH1 0x3 PUSH1 0x20 PUSH1 0x0 KECCAK256 SWAP2 MUL ADD SWAP1 PUSH1 0x0 SWAP1 JUMP JUMPDEST PUSH4 0x4E487B71 PUSH1 0xE0 SHL PUSH1 0x0 MSTORE PUSH1 0x32 PUSH1 0x4 MSTORE PUSH1 0x24 PUSH1 0x0 REVERT JUMPDEST SWAP1 PUSH1 0x8 DUP3 LT ISZERO PUSH2 0x1879 JUMPI MSTORE JUMP JUMPDEST PUSH4 0x4E487B71 PUSH1 0xE0 SHL PUSH1 0x0 MSTORE PUSH1 0x21 PUSH1 0x4 MSTORE PUSH1 0x24 PUSH1 0x0 REVERT JUMPDEST SWAP1 PUSH1 0x5 DUP3 LT ISZERO PUSH2 0x1879 JUMPI MSTORE JUMP JUMPDEST PUSH1 0x40 SWAP1 PUSH1 0x3 NOT ADD SLT PUSH2 0x181F JUMPI PUSH1 0x4 CALLDATALOAD PUSH1 0x1 PUSH1 0x1 PUSH1 0xA0 SHL SUB DUP2 AND DUP2 SUB PUSH2 0x181F JUMPI SWAP1 PUSH1 0x24 CALLDATALOAD PUSH1 0x8 DUP2 LT ISZERO PUSH2 0x181F JUMPI SWAP1 JUMP JUMPDEST SWAP1 PUSH1 0x8 DUP2 LT ISZERO PUSH2 0x1879 JUMPI PUSH1 0x0 MSTORE PUSH1 0x20 MSTORE PUSH1 0x40 PUSH1 0x0 KECCAK256 SWAP1 JUMP JUMPDEST PUSH1 0xA0 DUP2 ADD SWAP1 DUP2 LT PUSH8 0xFFFFFFFFFFFFFFFF DUP3 GT OR PUSH2 0x18FF JUMPI PUSH1 0x40 MSTORE JUMP JUMPDEST PUSH4 0x4E487B71 PUSH1 0xE0 SHL PUSH1 0x0 MSTORE PUSH1 0x41 PUSH1 0x4 MSTORE PUSH1 0x24 PUSH1 0x0 REVERT JUMPDEST PUSH1 0xC0 DUP2 ADD SWAP1 DUP2 LT PUSH8 0xFFFFFFFFFFFFFFFF DUP3 GT OR PUSH2 0x18FF JUMPI PUSH1 0x40 MSTORE JUMP JUMPDEST SWAP1 PUSH1 0x1F DUP1 NOT SWAP2 ADD AND DUP2 ADD SWAP1 DUP2 LT PUSH8 0xFFFFFFFFFFFFFFFF DUP3 GT OR PUSH2 0x18FF JUMPI PUSH1 0x40 MSTORE JUMP JUMPDEST SWAP1 PUSH1 0x40 MLOAD SWAP1 PUSH1 0x0 DUP4 SLOAD SWAP1 PUSH1 0x1 DUP3 DUP2 SHR SWAP1 DUP1 DUP5 AND SWAP7 DUP8 ISZERO PUSH2 0x1A1A JUMPI JUMPDEST PUSH1 0x20 SWAP5 DUP6 DUP5 LT DUP10 EQ PUSH2 0x1A06 JUMPI DUP8 SWAP9 DUP5 DUP10 SWAP8 SWAP9 SWAP10 MSTORE SWAP1 DUP2 PUSH1 0x0 EQ PUSH2 0x19E4 JUMPI POP PUSH1 0x1 EQ PUSH2 0x19A5 JUMPI JUMPDEST POP POP POP PUSH2 0x19A3 SWAP3 POP SUB DUP4 PUSH2 0x1931 JUMP JUMPDEST JUMP JUMPDEST PUSH1 0x0 SWAP1 DUP2 MSTORE DUP6 DUP2 KECCAK256 SWAP6 SWAP4 POP SWAP2 SWAP1 JUMPDEST DUP2 DUP4 LT PUSH2 0x19CC JUMPI POP POP PUSH2 0x19A3 SWAP4 POP DUP3 ADD ADD CODESIZE DUP1 DUP1 PUSH2 0x1994 JUMP JUMPDEST DUP6 SLOAD DUP9 DUP5 ADD DUP6 ADD MSTORE SWAP5 DUP6 ADD SWAP5 DUP8 SWAP5 POP SWAP2 DUP4 ADD SWAP2 PUSH2 0x19B3 JUMP JUMPDEST SWAP3 POP POP POP PUSH2 0x19A3 SWAP5 SWAP3 POP PUSH1 0xFF NOT AND DUP3 DUP5 ADD MSTORE ISZERO ISZERO PUSH1 0x5 SHL DUP3 ADD ADD CODESIZE DUP1 DUP1 PUSH2 0x1994 JUMP JUMPDEST PUSH4 0x4E487B71 PUSH1 0xE0 SHL DUP6 MSTORE PUSH1 0x22 PUSH1 0x4 MSTORE PUSH1 0x24 DUP6 REVERT JUMPDEST SWAP2 PUSH1 0x7F AND SWAP2 PUSH2 0x196E JUMP JUMPDEST SWAP2 SWAP1 DUP3 MLOAD SWAP3 DUP4 DUP3 MSTORE PUSH1 0x0 JUMPDEST DUP5 DUP2 LT PUSH2 0x1A50 JUMPI POP POP DUP3 PUSH1 0x0 PUSH1 0x20 DUP1 SWAP5 SWAP6 DUP5 ADD ADD MSTORE PUSH1 0x1F DUP1 NOT SWAP2 ADD AND ADD ADD SWAP1 JUMP JUMPDEST PUSH1 0x20 DUP2 DUP4 ADD DUP2 ADD MLOAD DUP5 DUP4 ADD DUP3 ADD MSTORE ADD PUSH2 0x1A2F JUMP JUMPDEST PUSH1 0xF SLOAD DUP2 LT ISZERO PUSH2 0x1856 JUMPI PUSH1 0xF PUSH1 0x0 MSTORE PUSH32 0x8D1108E10BCB7C27DDDFC02ED9D693A074039D026CF4EA4240B40F7D581AC802 ADD SWAP1 PUSH1 0x0 SWAP1 JUMP JUMPDEST CALLER PUSH1 0x0 SWAP1 DUP2 MSTORE PUSH32 0xF11D5CD6172E4D486247E8873A157A5CBD86D37171BF6CD250FC0A75F26713F9 PUSH1 0x20 MSTORE PUSH1 0x40 SWAP1 KECCAK256 SLOAD PUSH1 0x0 DUP1 MLOAD PUSH1 0x20 PUSH2 0x1D35 DUP4 CODECOPY DUP2 MLOAD SWAP2 MSTORE SWAP1 PUSH1 0xFF AND ISZERO PUSH2 0x1AE5 JUMPI POP JUMP JUMPDEST PUSH1 0x44 SWAP1 PUSH1 0x40 MLOAD SWAP1 PUSH4 0xE2517D3F PUSH1 0xE0 SHL DUP3 MSTORE CALLER PUSH1 0x4 DUP4 ADD MSTORE PUSH1 0x24 DUP3 ADD MSTORE REVERT JUMPDEST DUP1 PUSH1 0x0 MSTORE PUSH1 0x0 PUSH1 0x20 MSTORE PUSH1 0x40 PUSH1 0x0 KECCAK256 CALLER PUSH1 0x0 MSTORE PUSH1 0x20 MSTORE PUSH1 0xFF PUSH1 0x40 PUSH1 0x0 KECCAK256 SLOAD AND ISZERO PUSH2 0x1AE5 JUMPI POP JUMP JUMPDEST PUSH1 0x1 PUSH1 0x1 PUSH1 0xA0 SHL SUB AND PUSH1 0x0 DUP2 DUP2 MSTORE PUSH32 0xF11D5CD6172E4D486247E8873A157A5CBD86D37171BF6CD250FC0A75F26713F9 PUSH1 0x20 MSTORE PUSH1 0x40 DUP2 KECCAK256 SLOAD SWAP1 SWAP2 SWAP1 PUSH1 0x0 DUP1 MLOAD PUSH1 0x20 PUSH2 0x1D35 DUP4 CODECOPY DUP2 MLOAD SWAP2 MSTORE SWAP1 PUSH1 0xFF AND PUSH2 0x1BC4 JUMPI DUP1 DUP4 MSTORE DUP3 PUSH1 0x20 MSTORE PUSH1 0x40 DUP4 KECCAK256 DUP3 DUP5 MSTORE PUSH1 0x20 MSTORE PUSH1 0x40 DUP4 KECCAK256 PUSH1 0x1 PUSH1 0xFF NOT DUP3 SLOAD AND OR SWAP1 SSTORE PUSH32 0x2F8788117E7EFF1D82E926EC794901D17C78024A50270940304540A733656F0D CALLER SWAP4 DUP1 LOG4 PUSH1 0x1 SWAP1 JUMP JUMPDEST POP POP SWAP1 JUMP JUMPDEST SWAP1 PUSH1 0x0 SWAP2 DUP1 DUP4 MSTORE DUP3 PUSH1 0x20 MSTORE PUSH1 0x40 DUP4 KECCAK256 SWAP2 PUSH1 0x1 DUP1 PUSH1 0xA0 SHL SUB AND SWAP2 DUP3 DUP5 MSTORE PUSH1 0x20 MSTORE PUSH1 0xFF PUSH1 0x40 DUP5 KECCAK256 SLOAD AND ISZERO PUSH1 0x0 EQ PUSH2 0x1BC4 JUMPI DUP1 DUP4 MSTORE DUP3 PUSH1 0x20 MSTORE PUSH1 0x40 DUP4 KECCAK256 DUP3 DUP5 MSTORE PUSH1 0x20 MSTORE PUSH1 0x40 DUP4 KECCAK256 PUSH1 0x1 PUSH1 0xFF NOT DUP3 SLOAD AND OR SWAP1 SSTORE PUSH32 0x2F8788117E7EFF1D82E926EC794901D17C78024A50270940304540A733656F0D CALLER SWAP4 DUP1 LOG4 PUSH1 0x1 SWAP1 JUMP JUMPDEST SWAP1 PUSH1 0x0 SWAP2 DUP1 DUP4 MSTORE DUP3 PUSH1 0x20 MSTORE PUSH1 0x40 DUP4 KECCAK256 SWAP2 PUSH1 0x1 DUP1 PUSH1 0xA0 SHL SUB AND SWAP2 DUP3 DUP5 MSTORE PUSH1 0x20 MSTORE PUSH1 0xFF PUSH1 0x40 DUP5 KECCAK256 SLOAD AND PUSH1 0x0 EQ PUSH2 0x1BC4 JUMPI DUP1 DUP4 MSTORE DUP3 PUSH1 0x20 MSTORE PUSH1 0x40 DUP4 KECCAK256 DUP3 DUP5 MSTORE PUSH1 0x20 MSTORE PUSH1 0x40 DUP4 KECCAK256 PUSH1 0xFF NOT DUP2 SLOAD AND SWAP1 SSTORE PUSH32 0xF6391F5C32D9C69D2A47EA670B442974B53935D1EDC7FD64EB21E047A839171B CALLER SWAP4 DUP1 LOG4 PUSH1 0x1 SWAP1 JUMP JUMPDEST PUSH1 0x0 NOT DUP2 EQ PUSH2 0x1CC6 JUMPI PUSH1 0x1 ADD SWAP1 JUMP JUMPDEST PUSH4 0x4E487B71 PUSH1 0xE0 SHL PUSH1 0x0 MSTORE PUSH1 0x11 PUSH1 0x4 MSTORE PUSH1 0x24 PUSH1 0x0 REVERT JUMPDEST PUSH1 0x8 DUP3 LT ISZERO PUSH2 0x1879 JUMPI MSTORE JUMP JUMPDEST PUSH8 0xFFFFFFFFFFFFFFFF DUP2 GT PUSH2 0x18FF JUMPI PUSH1 0x5 SHL PUSH1 0x20 ADD SWAP1 JUMP JUMPDEST DUP1 MLOAD DUP3 LT ISZERO PUSH2 0x1856 JUMPI PUSH1 0x20 SWAP2 PUSH1 0x5 SHL ADD ADD SWAP1 JUMP INVALID GAS EXP 0xEA PUSH24 0xDBB19681CF1560693D4B1A5D53BAB702CD2A6B7BC0E46C4D EXTCODECOPY EXTCODESIZE 0x29 0xD4 0xEF OR 0xB1 RETURN 0xC5 LOG4 SLT 0xF9 0xC8 0xE8 DUP8 0xE3 0xAB 0xD1 DUP7 DUP1 0x2A INVALID 0xC7 0xDC PUSH6 0x7FD3B7002BF8 PUSH28 0x128DD0B1A2646970667358221220A7D6F1946E1336D8F2F8A5A37451 0xC7 SWAP13 CREATE KECCAK256 PUSH13 0xF408CC42D68D5EAEBE70A71CFE PUSH5 0x736F6C6343 STOP ADDMOD EQ STOP CALLER 0x2F DUP8 DUP9 GT PUSH31 0x7EFF1D82E926EC794901D17C78024A50270940304540A733656F0D00000000 "},"methodIdentifiers":{"ADMIN_ROLE()":"75b238fc","DEFAULT_ADMIN_ROLE()":"a217fddf","GAME_MANAGER_ROLE()":"ff6fcdbd","activeUsers(uint256)":"803ae518","badges(uint8)":"7f1ca8dd","consecutiveDaysActive(address)":"bc7fa098","feedbackCount(address)":"da1b3fe2","getLeaderboard(uint256)":"a34b46fe","getRoleAdmin(bytes32)":"248a9ca3","getUserAchievements(address)":"f09153c4","getUserStats(address)":"4e43603a","grantGameManagerRole(address)":"5bbff7ca","grantRole(bytes32,address)":"2f2ff15d","hasBadge(address,uint8)":"3af0c688","hasRole(bytes32,address)":"91d14854","milestoneCounter()":"f6baaec7","milestones(uint256)":"e89e4ed6","pointEconomy()":"74643b68","qualityFeedbackCount(address)":"da976710","recordFeedback(address,bool)":"c7bdcce5","renounceRole(bytes32,address)":"36568abe","revokeRole(bytes32,address)":"d547741f","studentRegistry()":"92c16fb5","supportsInterface(bytes4)":"01ffc9a7","totalBadgesEarned()":"b4d2fef0","updateConsecutiveDays(address,uint256)":"a4da4267","userAchievements(address,uint256)":"24548c60","userBadgeCount(address)":"5df79ea9","userBadges(address,uint8)":"8b93bf18","userMilestones(address,uint256)":"0112f749"}}}}}