{"contracts/features/SocialNetworkContract.sol":{"SocialNetworkContract":{"abi":[{"inputs":[{"internalType":"address","name":"_studentRegistry","type":"address"}],"stateMutability":"nonpayable","type":"constructor"},{"inputs":[],"name":"AccessControlBadConfirmation","type":"error"},{"inputs":[{"internalType":"address","name":"account","type":"address"},{"internalType":"bytes32","name":"neededRole","type":"bytes32"}],"name":"AccessControlUnauthorizedAccount","type":"error"},{"inputs":[],"name":"ReentrancyGuardReentrantCall","type":"error"},{"anonymous":false,"inputs":[{"indexed":true,"internalType":"uint256","name":"communityId","type":"uint256"},{"indexed":false,"internalType":"string","name":"name","type":"string"},{"indexed":true,"internalType":"address","name":"creator","type":"address"}],"name":"CommunityCreated","type":"event"},{"anonymous":false,"inputs":[{"indexed":true,"internalType":"uint256","name":"communityId","type":"uint256"},{"indexed":true,"internalType":"address","name":"member","type":"address"}],"name":"CommunityJoined","type":"event"},{"anonymous":false,"inputs":[{"indexed":true,"internalType":"uint256","name":"communityId","type":"uint256"},{"indexed":true,"internalType":"address","name":"member","type":"address"}],"name":"CommunityLeft","type":"event"},{"anonymous":false,"inputs":[{"indexed":true,"internalType":"address","name":"user","type":"address"},{"indexed":false,"internalType":"string","name":"bio","type":"string"}],"name":"ProfileUpdated","type":"event"},{"anonymous":false,"inputs":[{"indexed":true,"internalType":"bytes32","name":"role","type":"bytes32"},{"indexed":true,"internalType":"bytes32","name":"previousAdminRole","type":"bytes32"},{"indexed":true,"internalType":"bytes32","name":"newAdminRole","type":"bytes32"}],"name":"RoleAdminChanged","type":"event"},{"anonymous":false,"inputs":[{"indexed":true,"internalType":"bytes32","name":"role","type":"bytes32"},{"indexed":true,"internalType":"address","name":"account","type":"address"},{"indexed":true,"internalType":"address","name":"sender","type":"address"}],"name":"RoleGranted","type":"event"},{"anonymous":false,"inputs":[{"indexed":true,"internalType":"bytes32","name":"role","type":"bytes32"},{"indexed":true,"internalType":"address","name":"account","type":"address"},{"indexed":true,"internalType":"address","name":"sender","type":"address"}],"name":"RoleRevoked","type":"event"},{"anonymous":false,"inputs":[{"indexed":true,"internalType":"address","name":"follower","type":"address"},{"indexed":true,"internalType":"address","name":"followed","type":"address"},{"indexed":false,"internalType":"uint256","name":"timestamp","type":"uint256"}],"name":"UserFollowed","type":"event"},{"anonymous":false,"inputs":[{"indexed":true,"internalType":"address","name":"follower","type":"address"},{"indexed":true,"internalType":"address","name":"unfollowed","type":"address"},{"indexed":false,"internalType":"uint256","name":"timestamp","type":"uint256"}],"name":"UserUnfollowed","type":"event"},{"inputs":[],"name":"ADMIN_ROLE","outputs":[{"internalType":"bytes32","name":"","type":"bytes32"}],"stateMutability":"view","type":"function"},{"inputs":[],"name":"DEFAULT_ADMIN_ROLE","outputs":[{"internalType":"bytes32","name":"","type":"bytes32"}],"stateMutability":"view","type":"function"},{"inputs":[],"name":"MODERATOR_ROLE","outputs":[{"internalType":"bytes32","name":"","type":"bytes32"}],"stateMutability":"view","type":"function"},{"inputs":[{"internalType":"uint256","name":"","type":"uint256"}],"name":"communities","outputs":[{"internalType":"uint256","name":"id","type":"uint256"},{"internalType":"string","name":"name","type":"string"},{"internalType":"string","name":"description","type":"string"},{"internalType":"address","name":"creator","type":"address"},{"internalType":"uint256","name":"createdAt","type":"uint256"},{"internalType":"uint256","name":"memberCount","type":"uint256"},{"internalType":"bool","name":"isActive","type":"bool"}],"stateMutability":"view","type":"function"},{"inputs":[],"name":"communityCounter","outputs":[{"internalType":"uint256","name":"","type":"uint256"}],"stateMutability":"view","type":"function"},{"inputs":[{"internalType":"uint256","name":"","type":"uint256"},{"internalType":"uint256","name":"","type":"uint256"}],"name":"communityMembers","outputs":[{"internalType":"address","name":"","type":"address"}],"stateMutability":"view","type":"function"},{"inputs":[{"internalType":"string","name":"name","type":"string"},{"internalType":"string","name":"description","type":"string"}],"name":"createCommunity","outputs":[{"internalType":"uint256","name":"","type":"uint256"}],"stateMutability":"nonpayable","type":"function"},{"inputs":[{"internalType":"address","name":"userToFollow","type":"address"}],"name":"followUser","outputs":[],"stateMutability":"nonpayable","type":"function"},{"inputs":[{"internalType":"address","name":"","type":"address"},{"internalType":"uint256","name":"","type":"uint256"}],"name":"followers","outputs":[{"internalType":"address","name":"","type":"address"}],"stateMutability":"view","type":"function"},{"inputs":[{"internalType":"address","name":"","type":"address"},{"internalType":"uint256","name":"","type":"uint256"}],"name":"following","outputs":[{"internalType":"address","name":"","type":"address"}],"stateMutability":"view","type":"function"},{"inputs":[{"internalType":"uint256","name":"communityId","type":"uint256"}],"name":"getCommunityMembers","outputs":[{"internalType":"address[]","name":"","type":"address[]"}],"stateMutability":"view","type":"function"},{"inputs":[{"internalType":"address","name":"user","type":"address"}],"name":"getFollowers","outputs":[{"internalType":"address[]","name":"","type":"address[]"}],"stateMutability":"view","type":"function"},{"inputs":[{"internalType":"address","name":"user","type":"address"}],"name":"getFollowing","outputs":[{"internalType":"address[]","name":"","type":"address[]"}],"stateMutability":"view","type":"function"},{"inputs":[{"internalType":"bytes32","name":"role","type":"bytes32"}],"name":"getRoleAdmin","outputs":[{"internalType":"bytes32","name":"","type":"bytes32"}],"stateMutability":"view","type":"function"},{"inputs":[{"internalType":"address","name":"user","type":"address"}],"name":"getUserCommunities","outputs":[{"internalType":"uint256[]","name":"","type":"uint256[]"}],"stateMutability":"view","type":"function"},{"inputs":[{"internalType":"address","name":"user","type":"address"}],"name":"getUserProfile","outputs":[{"components":[{"internalType":"address","name":"userAddress","type":"address"},{"internalType":"string","name":"bio","type":"string"},{"internalType":"uint256","name":"followerCount","type":"uint256"},{"internalType":"uint256","name":"followingCount","type":"uint256"},{"internalType":"uint256","name":"communityCount","type":"uint256"},{"internalType":"bool","name":"isPublic","type":"bool"}],"internalType":"struct SocialNetworkContract.UserProfile","name":"","type":"tuple"}],"stateMutability":"view","type":"function"},{"inputs":[{"internalType":"address","name":"moderator","type":"address"}],"name":"grantModeratorRole","outputs":[],"stateMutability":"nonpayable","type":"function"},{"inputs":[{"internalType":"bytes32","name":"role","type":"bytes32"},{"internalType":"address","name":"account","type":"address"}],"name":"grantRole","outputs":[],"stateMutability":"nonpayable","type":"function"},{"inputs":[{"internalType":"bytes32","name":"role","type":"bytes32"},{"internalType":"address","name":"account","type":"address"}],"name":"hasRole","outputs":[{"internalType":"bool","name":"","type":"bool"}],"stateMutability":"view","type":"function"},{"inputs":[{"internalType":"uint256","name":"","type":"uint256"},{"internalType":"address","name":"","type":"address"}],"name":"isCommunityMember","outputs":[{"internalType":"bool","name":"","type":"bool"}],"stateMutability":"view","type":"function"},{"inputs":[{"internalType":"address","name":"","type":"address"},{"internalType":"address","name":"","type":"address"}],"name":"isFollowing","outputs":[{"internalType":"bool","name":"","type":"bool"}],"stateMutability":"view","type":"function"},{"inputs":[{"internalType":"uint256","name":"communityId","type":"uint256"}],"name":"joinCommunity","outputs":[],"stateMutability":"nonpayable","type":"function"},{"inputs":[{"internalType":"uint256","name":"communityId","type":"uint256"}],"name":"leaveCommunity","outputs":[],"stateMutability":"nonpayable","type":"function"},{"inputs":[{"internalType":"bytes32","name":"role","type":"bytes32"},{"internalType":"address","name":"callerConfirmation","type":"address"}],"name":"renounceRole","outputs":[],"stateMutability":"nonpayable","type":"function"},{"inputs":[{"internalType":"bytes32","name":"role","type":"bytes32"},{"internalType":"address","name":"account","type":"address"}],"name":"revokeRole","outputs":[],"stateMutability":"nonpayable","type":"function"},{"inputs":[],"name":"studentRegistry","outputs":[{"internalType":"contract StudentRegistryContract","name":"","type":"address"}],"stateMutability":"view","type":"function"},{"inputs":[{"internalType":"bytes4","name":"interfaceId","type":"bytes4"}],"name":"supportsInterface","outputs":[{"internalType":"bool","name":"","type":"bool"}],"stateMutability":"view","type":"function"},{"inputs":[],"name":"totalConnections","outputs":[{"internalType":"uint256","name":"","type":"uint256"}],"stateMutability":"view","type":"function"},{"inputs":[{"internalType":"address","name":"userToUnfollow","type":"address"}],"name":"unfollowUser","outputs":[],"stateMutability":"nonpayable","type":"function"},{"inputs":[{"internalType":"string","name":"bio","type":"string"},{"internalType":"bool","name":"isPublic","type":"bool"}],"name":"updateProfile","outputs":[],"stateMutability":"nonpayable","type":"function"},{"inputs":[{"internalType":"address","name":"","type":"address"},{"internalType":"uint256","name":"","type":"uint256"}],"name":"userCommunities","outputs":[{"internalType":"uint256","name":"","type":"uint256"}],"stateMutability":"view","type":"function"},{"inputs":[{"internalType":"address","name":"","type":"address"}],"name":"userProfiles","outputs":[{"internalType":"address","name":"userAddress","type":"address"},{"internalType":"string","name":"bio","type":"string"},{"internalType":"uint256","name":"followerCount","type":"uint256"},{"internalType":"uint256","name":"followingCount","type":"uint256"},{"internalType":"uint256","name":"communityCount","type":"uint256"},{"internalType":"bool","name":"isPublic","type":"bool"}],"stateMutability":"view","type":"function"}],"evm":{"bytecode":{"linkReferences":{},"object":"608034620000e257601f6200224938819003918201601f19168301916001600160401b03831184841017620000e757808492602094604052833981010312620000e257516001600160a01b03811690819003620000e2576001805580156200009d57600280546001600160a01b0319169190911790556200008033620000fd565b506200008c336200017d565b506040516120099081620002208239f35b60405162461bcd60e51b815260206004820152601860248201527f496e76616c69642073747564656e7420726567697374727900000000000000006044820152606490fd5b600080fd5b634e487b7160e01b600052604160045260246000fd5b6001600160a01b031660008181527fad3228b676f7d3cd4284a5443f17f1962b36e491b30a40b2405849e597ba5fb5602052604081205490919060ff166200017957818052816020526040822081835260205260408220600160ff198254161790553391600080516020620022298339815191528180a4600190565b5090565b6001600160a01b031660008181527f7d7ffb7a348e1c6a02869081a26547b49160dd3df72d1d75a570eb9b698292ec60205260408120549091907fa49807205ce4d355092ef5a8a18f56e8913cf4a201fbe287825b095693c217759060ff166200021a57808352826020526040832082845260205260408320600160ff1982541617905560008051602062002229833981519152339380a4600190565b50509056fe608080604052600436101561001357600080fd5b60003560e01c90816301ffc9a7146119e75750806303b28c331461150d578063122afc04146112cf578063248a9ca3146112a05780632f2ff15d14611261578063332d56d7146111cf578063337d9367146111b157806336568abe1461116a5780634520748d14610efd57806354d00c0414610eab5780636543286f14610df75780637199ee4814610d8457806375b238fc14610d49578063797669c914610d0e5780637a5b730b14610cf05780639139cda514610ca757806391d1485414610c5a57806392c16fb514610c31578063987ee15614610b3257806399ec3a4214610adc578063a217fddf14610ac0578063a70806f714610861578063aa232dc21461078e578063b122a0ef146105a5578063c2fe20221461052a578063d547741f146104e9578063d8236dff1461045e578063dd44600114610406578063e590b56a14610361578063e95a390514610314578063ebd009d3146102bb5763f107cfcb1461017f57600080fd5b346102b6576020806003193601126102b657610199611ae5565b90336000526004815260406000209160018060a01b0381169283600052825260ff60406000205416156102815761020e9033600052600483526040600020846000528352604060002060ff198154169055600583526101fc336040600020611f2f565b33600052600683526040600020611f2f565b336000526003815260036040600020016102288154611eff565b9055816000526003815260026040600020016102448154611eff565b9055610251600c54611eff565b600c557f594a48474c36e0d85b16b86393fc3d3a2ed770e7b4f0915b2972d5fbdaa99329604051914283523392a3005b60405162461bcd60e51b815260048101839052600d60248201526c4e6f7420666f6c6c6f77696e6760981b6044820152606490fd5b600080fd5b346102b65760403660031901126102b6576102d4611ae5565b6024359060018060a01b038091166000526005602052604060002080548310156102b65760209261030491611c1b565b9190546040519260031b1c168152f35b346102b65760403660031901126102b65761032d611acf565b600435600052600960205260406000209060018060a01b0316600052602052602060ff604060002054166040519015158152f35b346102b65760203660031901126102b65760043560005260076020526040600020805461039060018301611b35565b9161039d60028201611b35565b60018060a01b036003830154169160048101546103eb60ff6006600585015494015416936103dd604051988998895260e060208a015260e0890190611bdb565b908782036040890152611bdb565b936060860152608085015260a0840152151560c08301520390f35b346102b65760403660031901126102b65761041f611ae5565b6001600160a01b03166000908152600a60205260409020805460243591908210156102b65760209161045091611c1b565b90546040519160031b1c8152f35b346102b6576020806003193601126102b6576001600160a01b0380610481611ae5565b1660005260068252604060002091604051809282855492838152019460005282600020926000915b8383106104d0576104cc866104c0818a0382611a56565b60405191829182611c49565b0390f35b84548116875295810195600194850194909201916104a9565b346102b65760403660031901126102b657610528600435610508611acf565b90806000526000602052610523600160406000200154611c8d565b611dde565b005b346102b6576020806003193601126102b6576001600160a01b038061054d611ae5565b1660005260058252604060002091604051809282855492838152019460005282600020926000915b83831061058c576104cc866104c0818a0382611a56565b8454811687529581019560019485019490920191610575565b346102b6576020806003193601126102b6576004359060248160018060a01b036002541660405192838092631eb30aeb60e01b82523360048301525afa8015610782576105fa91600091610755575b50611e6b565b816000526007815260ff600660406000200154161561071a578160005260098152604060002033600052815260ff604060002054166106e357600390826000526009815260406000203360005281526040600020600160ff19825416179055826000526008815261066f336040600020611eae565b33600052600a8152610685836040600020611f0c565b8260005260078152600560406000200161069f8154611ef0565b9055336000525260046040600020016106b88154611ef0565b905533907fd873197dfe57397eab48d3c120c62ed968cac2a00b06b67ab9b66fc80d63dfd1600080a3005b6064906040519062461bcd60e51b82526004820152601060248201526f20b63932b0b23c90309036b2b6b132b960811b6044820152fd5b6064906040519062461bcd60e51b825260048201526014602482015273436f6d6d756e697479206e6f742061637469766560601b6044820152fd5b6107759150833d851161077b575b61076d8183611a56565b810190611e53565b846105f4565b503d610763565b6040513d6000823e3d90fd5b346102b65760203660031901126102b6576107a7611ae5565b3360009081527f7d7ffb7a348e1c6a02869081a26547b49160dd3df72d1d75a570eb9b698292ec60205260409020547fa49807205ce4d355092ef5a8a18f56e8913cf4a201fbe287825b095693c217759060ff161561084357610528827f71f3d55856e4058ed06ee057d79ada615f65cdf5f9ee88181b914225088f834f600052600060205261083e600160406000200154611c8d565b611cb3565b6044906040519063e2517d3f60e01b82523360048301526024820152fd5b346102b6576020806003193601126102b65761087b611ae5565b600254604051631eb30aeb60e01b8082523360048301526001600160a01b0392831694939291908482602481895afa9182156107825785926108c491600091610aa35750611e6b565b60246040518094819382528616978860048301525afa90811561078257600091610a86575b5015610a4b57823314610a0d573360005260048252604060002083600052825260ff604060002054166109d45761096190336000526004835260406000208460005283526040600020600160ff198254161790556005835261094f336040600020611eae565b33600052600683526040600020611eae565b3360005260038152600360406000200161097b8154611ef0565b9055816000526003815260026040600020016109978154611ef0565b90556109a4600c54611ef0565b600c557f53e62c84b456cda6228f6c0acd671088271c8bb9627a72d3f8c3d631c8473724604051914283523392a3005b60405162461bcd60e51b8152600481018390526011602482015270416c726561647920666f6c6c6f77696e6760781b6044820152606490fd5b60405162461bcd60e51b815260048101839052601660248201527521b0b73737ba103337b63637bb903cb7bab939b2b63360511b6044820152606490fd5b60405162461bcd60e51b815260048101839052601360248201527215185c99d95d081b9bdd081d995c9a599a5959606a1b6044820152606490fd5b610a9d9150833d851161077b5761076d8183611a56565b846108e9565b610aba9150843d861161077b5761076d8183611a56565b886105f4565b346102b65760003660031901126102b657602060405160008152f35b346102b65760403660031901126102b657610af5611ae5565b610afd611acf565b9060018060a01b03809116600052600460205260406000209116600052602052602060ff604060002054166040519015158152f35b346102b6576020806003193601126102b657610b4c611ae5565b90600060a0604051610b5d81611a3a565b828152606084820152826040820152826060820152826080820152015260018060a01b0380921660005260038152604060002060405191610b9d83611a3a565b838254168352610baf60018301611b35565b9181840192835260028101549260408501938452610c126003830154916060870192835260ff600560048601549560808a019687520154169460a088019515158652604051988998828a525116908801525160c0604088015260e0870190611bdb565b935160608601525160808501525160a084015251151560c08301520390f35b346102b65760003660031901126102b6576002546040516001600160a01b039091168152602090f35b346102b65760403660031901126102b657610c73611acf565b600435600052600060205260406000209060018060a01b0316600052602052602060ff604060002054166040519015158152f35b346102b65760403660031901126102b657610cc0611ae5565b6024359060018060a01b038091166000526006602052604060002080548310156102b65760209261030491611c1b565b346102b65760003660031901126102b6576020600b54604051908152f35b346102b65760003660031901126102b65760206040517f71f3d55856e4058ed06ee057d79ada615f65cdf5f9ee88181b914225088f834f8152f35b346102b65760003660031901126102b65760206040517fa49807205ce4d355092ef5a8a18f56e8913cf4a201fbe287825b095693c217758152f35b346102b6576020806003193601126102b65760043560005260088152604060002090604051908181845491828152019360005281600020916000905b828210610dd7576104cc856104c081890382611a56565b83546001600160a01b031686529485019460019384019390910190610dc0565b346102b6576020806003193601126102b6576001600160a01b03610e19611ae5565b16600052600a8152604060002060405190818382549182815201908192600052846000209060005b86828210610e97578686610e5782880383611a56565b604051928392818401908285525180915260408401929160005b828110610e8057505050500390f35b835185528695509381019392810192600101610e71565b835485529093019260019283019201610e41565b346102b65760403660031901126102b6576024356004356000526008602052604060002080548210156102b657602091610ee491611c1b565b905460405160039290921b1c6001600160a01b03168152f35b346102b65760403660031901126102b65767ffffffffffffffff6004358181116102b657610f2f903690600401611a78565b60243580151581036102b657600254604051631eb30aeb60e01b8152336004820152602094918590829060249082906001600160a01b03165afa801561078257610f809160009161114d5750611e6b565b3360005260038452604060002090336bffffffffffffffffffffffff60a01b835416178255600180920191845191821161113757610fbe8354611afb565b601f81116110ee575b5085601f83116001146110605792828061103d9461105097947fdd635a4cd84864e37e4479dbfc2ec667acfa473c83c8422a8ac9d9d07599b01c9997600093611055575b501b916000199060031b1c19161790555b336000526003865260056040600020019060ff801983541691151516179055565b6040519182918583523395830190611bdb565b0390a2005b88015192508b61100b565b601f9291921982169084600052876000209160005b898282106110da575050927fdd635a4cd84864e37e4479dbfc2ec667acfa473c83c8422a8ac9d9d07599b01c97959261103d9592826110509996106110c1575b5050811b01905561101c565b87015160001960f88460031b161c1916905589806110b5565b898401518555938601939283019201611075565b8360005286600020601f840160051c81019188851061112d575b601f0160051c019082905b828110611121575050610fc7565b60008155018290611113565b9091508190611108565b634e487b7160e01b600052604160045260246000fd5b6111649150863d881161077b5761076d8183611a56565b866105f4565b346102b65760403660031901126102b657611183611acf565b336001600160a01b0382160361119f5761052890600435611dde565b60405163334bd91960e11b8152600490fd5b346102b65760003660031901126102b6576020600c54604051908152f35b346102b65760203660031901126102b6576001600160a01b03806111f1611ae5565b16600052600360205260406000209081541661120f60018301611b35565b9160028101549060038101549060ff600560048301549201541691611246604051968796875260c0602088015260c0870190611bdb565b93604086015260608501526080840152151560a08301520390f35b346102b65760403660031901126102b657610528600435611280611acf565b9080600052600060205261129b600160406000200154611c8d565b611d65565b346102b65760203660031901126102b65760043560005260006020526020600160406000200154604051908152f35b346102b6576020806003193601126102b657600435908160005260098152604060002033600052815260ff60406000205416156114da57600082815260078252604090206003908101546001600160a01b0316331461149e5782600052600982526040600020336000528252604060002060ff198154169055826000526008825261135e336040600020611f2f565b33600052600a825260406000209160005b83548082101561149457856113848387611c1b565b905490861b1c1461139e575061139990611ef0565b61136f565b92939192600019929181840191821161147e576113ce6113c16113e79385611c1b565b905490881b1c9184611c1b565b90919082549060031b91821b91600019901b1916179055565b80548015611468578201916113fc8383611c1b565b9091825491871b1b19169055555b826000526007815260056040600020016114248154611eff565b90553360005252600460406000200161143d8154611eff565b905533907fb4fed4d84fd49c06522e8199e83f6f3c24ec553d522ee5f4d534a9f5ad46fe98600080a3005b634e487b7160e01b600052603160045260246000fd5b634e487b7160e01b600052601160045260246000fd5b505090915061140a565b60405162461bcd60e51b815260048101839052601460248201527343726561746f722063616e6e6f74206c6561766560601b6044820152606490fd5b6064906040519062461bcd60e51b82526004820152600c60248201526b2737ba10309036b2b6b132b960a11b6044820152fd5b346102b65760403660031901126102b65760043567ffffffffffffffff81116102b65761153e903690600401611a78565b60243567ffffffffffffffff81116102b65761155e903690600401611a78565b600254604051631eb30aeb60e01b815233600482015291929190602090829060249082906001600160a01b03165afa8015610782576115a4916000916119ce5750611e6b565b805115611999576115b6600b54611ef0565b9081600b556040519260e0840184811067ffffffffffffffff8211176111375760405282845260208401908282526040850152336060850152426080850152600160a0850152600160c0850152826000526007602052604060002090845182555180519067ffffffffffffffff82116111375781906116386001850154611afb565b601f8111611946575b50602090601f83116001146118d4576000926118c9575b50508160011b916000199060031b1c19161760018201555b604084015193845167ffffffffffffffff8111611137576116946002840154611afb565b95601f8711611882575b602096508690601f831160011461180d57928260069360c09361172e9796600092611802575b50508160011b916000199060031b1c19161760028501555b6003840160018060a01b036060830151166bffffffffffffffffffffffff60a01b8254161790556080810151600485015560a081015160058501550151151591019060ff801983541691151516179055565b816000526009835260406000203360005283526040600020600160ff198254161790558160005260088352611767336040600020611eae565b33600052600a835261177d826040600020611f0c565b336000526003835260046040600020016117978154611ef0565b9055817f4df3410150bc135fb5a7782051351442aaa4dc2b49b9180723c871b74e0a2201604051858152806117d0339588830190611bdb565b0390a36040519033817fd873197dfe57397eab48d3c120c62ed968cac2a00b06b67ab9b66fc80d63dfd1600080a38152f35b015190508a806116c4565b90601f1983169160028601600052886000209260005b81811061186b57509360c09361172e9796936001938360069810611852575b505050811b0160028501556116dc565b015160001960f88460031b161c191690558a8080611842565b92938a600181928786015181550195019301611823565b600284016000526020600020601f830160051c8101602084106118c2575b601f890160051c820181106118b657505061169e565b600081556001016118a0565b50806118a0565b015190508680611658565b9250600184016000526020600020906000935b601f198416851061192b576001945083601f19811610611912575b505050811b016001820155611670565b015160001960f88460031b161c19169055868080611902565b818101518355602094850194600190930192909101906118e7565b909150600184016000526020600020601f840160051c810160208510611992575b90849392915b601f830160051c82018110611983575050611641565b6000815585945060010161196d565b5080611967565b60405162461bcd60e51b815260206004820152600d60248201526c13985b59481c995c5d5a5c9959609a1b6044820152606490fd5b610775915060203d60201161077b5761076d8183611a56565b346102b65760203660031901126102b6576004359063ffffffff60e01b82168092036102b657602091637965db0b60e01b8114908115611a29575b5015158152f35b6301ffc9a760e01b14905083611a22565b60c0810190811067ffffffffffffffff82111761113757604052565b90601f8019910116810190811067ffffffffffffffff82111761113757604052565b81601f820112156102b65780359067ffffffffffffffff82116111375760405192611aad601f8401601f191660200185611a56565b828452602083830101116102b657816000926020809301838601378301015290565b602435906001600160a01b03821682036102b657565b600435906001600160a01b03821682036102b657565b90600182811c92168015611b2b575b6020831014611b1557565b634e487b7160e01b600052602260045260246000fd5b91607f1691611b0a565b9060405191826000825492611b4984611afb565b908184526001948581169081600014611bb85750600114611b75575b5050611b7392500383611a56565b565b9093915060005260209081600020936000915b818310611ba0575050611b7393508201013880611b65565b85548884018501529485019487945091830191611b88565b915050611b7394506020925060ff191682840152151560051b8201013880611b65565b919082519283825260005b848110611c07575050826000602080949584010152601f8019910116010190565b602081830181015184830182015201611be6565b8054821015611c335760005260206000200190600090565b634e487b7160e01b600052603260045260246000fd5b6020908160408183019282815285518094520193019160005b828110611c70575050505090565b83516001600160a01b031685529381019392810192600101611c62565b80600052600060205260406000203360005260205260ff60406000205416156108435750565b6001600160a01b031660008181527ff179aafcc4ff8137fca1ef3b9ec4d165f87016ba123e7973fba770bc55e240e360205260408120549091907f71f3d55856e4058ed06ee057d79ada615f65cdf5f9ee88181b914225088f834f9060ff16611d6057808352826020526040832082845260205260408320600160ff198254161790557f2f8788117e7eff1d82e926ec794901d17c78024a50270940304540a733656f0d339380a4600190565b505090565b9060009180835282602052604083209160018060a01b03169182845260205260ff60408420541615600014611d6057808352826020526040832082845260205260408320600160ff198254161790557f2f8788117e7eff1d82e926ec794901d17c78024a50270940304540a733656f0d339380a4600190565b9060009180835282602052604083209160018060a01b03169182845260205260ff604084205416600014611d605780835282602052604083208284526020526040832060ff1981541690557ff6391f5c32d9c69d2a47ea670b442974b53935d1edc7fd64eb21e047a839171b339380a4600190565b908160209103126102b6575180151581036102b65790565b15611e7257565b60405162461bcd60e51b8152602060048201526014602482015273139bdd081d995c9a599a5959081cdd1d59195b9d60621b6044820152606490fd5b90815491600160401b8310156111375782611ed1916001611b7395018155611c1b565b90919082549060031b9160018060a01b03809116831b921b1916179055565b600019811461147e5760010190565b801561147e576000190190565b90815491600160401b83101561113757826113ce916001611b7395018155611c1b565b6000915b81549283811015611fcd57611f488184611c1b565b90546003956001600160a01b0392909190871b1c821684831614611f7b575050611f7491929350611ef0565b9190611f33565b9092506000199182820191821161147e57611ed184611f9d611fab9488611c1b565b905490891b1c169186611c1b565b82548015611468570192611fbf8484611c1b565b81939154921b1b1916905555565b5050505056fea264697066735822122073a659863c297377d2a50452fa9a36cdc3019b65646e5f2dc803daab58558f1d64736f6c634300081400332f8788117e7eff1d82e926ec794901d17c78024a50270940304540a733656f0d","opcodes":"PUSH1 0x80 CALLVALUE PUSH3 0xE2 JUMPI PUSH1 0x1F PUSH3 0x2249 CODESIZE DUP2 SWAP1 SUB SWAP2 DUP3 ADD PUSH1 0x1F NOT AND DUP4 ADD SWAP2 PUSH1 0x1 PUSH1 0x1 PUSH1 0x40 SHL SUB DUP4 GT DUP5 DUP5 LT OR PUSH3 0xE7 JUMPI DUP1 DUP5 SWAP3 PUSH1 0x20 SWAP5 PUSH1 0x40 MSTORE DUP4 CODECOPY DUP2 ADD SUB SLT PUSH3 0xE2 JUMPI MLOAD PUSH1 0x1 PUSH1 0x1 PUSH1 0xA0 SHL SUB DUP2 AND SWAP1 DUP2 SWAP1 SUB PUSH3 0xE2 JUMPI PUSH1 0x1 DUP1 SSTORE DUP1 ISZERO PUSH3 0x9D JUMPI PUSH1 0x2 DUP1 SLOAD PUSH1 0x1 PUSH1 0x1 PUSH1 0xA0 SHL SUB NOT AND SWAP2 SWAP1 SWAP2 OR SWAP1 SSTORE PUSH3 0x80 CALLER PUSH3 0xFD JUMP JUMPDEST POP PUSH3 0x8C CALLER PUSH3 0x17D JUMP JUMPDEST POP PUSH1 0x40 MLOAD PUSH2 0x2009 SWAP1 DUP2 PUSH3 0x220 DUP3 CODECOPY RETURN JUMPDEST PUSH1 0x40 MLOAD PUSH3 0x461BCD PUSH1 0xE5 SHL DUP2 MSTORE PUSH1 0x20 PUSH1 0x4 DUP3 ADD MSTORE PUSH1 0x18 PUSH1 0x24 DUP3 ADD MSTORE PUSH32 0x496E76616C69642073747564656E742072656769737472790000000000000000 PUSH1 0x44 DUP3 ADD MSTORE PUSH1 0x64 SWAP1 REVERT JUMPDEST PUSH1 0x0 DUP1 REVERT JUMPDEST PUSH4 0x4E487B71 PUSH1 0xE0 SHL PUSH1 0x0 MSTORE PUSH1 0x41 PUSH1 0x4 MSTORE PUSH1 0x24 PUSH1 0x0 REVERT JUMPDEST PUSH1 0x1 PUSH1 0x1 PUSH1 0xA0 SHL SUB AND PUSH1 0x0 DUP2 DUP2 MSTORE PUSH32 0xAD3228B676F7D3CD4284A5443F17F1962B36E491B30A40B2405849E597BA5FB5 PUSH1 0x20 MSTORE PUSH1 0x40 DUP2 KECCAK256 SLOAD SWAP1 SWAP2 SWAP1 PUSH1 0xFF AND PUSH3 0x179 JUMPI DUP2 DUP1 MSTORE DUP2 PUSH1 0x20 MSTORE PUSH1 0x40 DUP3 KECCAK256 DUP2 DUP4 MSTORE PUSH1 0x20 MSTORE PUSH1 0x40 DUP3 KECCAK256 PUSH1 0x1 PUSH1 0xFF NOT DUP3 SLOAD AND OR SWAP1 SSTORE CALLER SWAP2 PUSH1 0x0 DUP1 MLOAD PUSH1 0x20 PUSH3 0x2229 DUP4 CODECOPY DUP2 MLOAD SWAP2 MSTORE DUP2 DUP1 LOG4 PUSH1 0x1 SWAP1 JUMP JUMPDEST POP SWAP1 JUMP JUMPDEST PUSH1 0x1 PUSH1 0x1 PUSH1 0xA0 SHL SUB AND PUSH1 0x0 DUP2 DUP2 MSTORE PUSH32 0x7D7FFB7A348E1C6A02869081A26547B49160DD3DF72D1D75A570EB9B698292EC PUSH1 0x20 MSTORE PUSH1 0x40 DUP2 KECCAK256 SLOAD SWAP1 SWAP2 SWAP1 PUSH32 0xA49807205CE4D355092EF5A8A18F56E8913CF4A201FBE287825B095693C21775 SWAP1 PUSH1 0xFF AND PUSH3 0x21A JUMPI DUP1 DUP4 MSTORE DUP3 PUSH1 0x20 MSTORE PUSH1 0x40 DUP4 KECCAK256 DUP3 DUP5 MSTORE PUSH1 0x20 MSTORE PUSH1 0x40 DUP4 KECCAK256 PUSH1 0x1 PUSH1 0xFF NOT DUP3 SLOAD AND OR SWAP1 SSTORE PUSH1 0x0 DUP1 MLOAD PUSH1 0x20 PUSH3 0x2229 DUP4 CODECOPY DUP2 MLOAD SWAP2 MSTORE CALLER SWAP4 DUP1 LOG4 PUSH1 0x1 SWAP1 JUMP JUMPDEST POP POP SWAP1 JUMP INVALID PUSH1 0x80 DUP1 PUSH1 0x40 MSTORE PUSH1 0x4 CALLDATASIZE LT ISZERO PUSH2 0x13 JUMPI PUSH1 0x0 DUP1 REVERT JUMPDEST PUSH1 0x0 CALLDATALOAD PUSH1 0xE0 SHR SWAP1 DUP2 PUSH4 0x1FFC9A7 EQ PUSH2 0x19E7 JUMPI POP DUP1 PUSH4 0x3B28C33 EQ PUSH2 0x150D JUMPI DUP1 PUSH4 0x122AFC04 EQ PUSH2 0x12CF JUMPI DUP1 PUSH4 0x248A9CA3 EQ PUSH2 0x12A0 JUMPI DUP1 PUSH4 0x2F2FF15D EQ PUSH2 0x1261 JUMPI DUP1 PUSH4 0x332D56D7 EQ PUSH2 0x11CF JUMPI DUP1 PUSH4 0x337D9367 EQ PUSH2 0x11B1 JUMPI DUP1 PUSH4 0x36568ABE EQ PUSH2 0x116A JUMPI DUP1 PUSH4 0x4520748D EQ PUSH2 0xEFD JUMPI DUP1 PUSH4 0x54D00C04 EQ PUSH2 0xEAB JUMPI DUP1 PUSH4 0x6543286F EQ PUSH2 0xDF7 JUMPI DUP1 PUSH4 0x7199EE48 EQ PUSH2 0xD84 JUMPI DUP1 PUSH4 0x75B238FC EQ PUSH2 0xD49 JUMPI DUP1 PUSH4 0x797669C9 EQ PUSH2 0xD0E JUMPI DUP1 PUSH4 0x7A5B730B EQ PUSH2 0xCF0 JUMPI DUP1 PUSH4 0x9139CDA5 EQ PUSH2 0xCA7 JUMPI DUP1 PUSH4 0x91D14854 EQ PUSH2 0xC5A JUMPI DUP1 PUSH4 0x92C16FB5 EQ PUSH2 0xC31 JUMPI DUP1 PUSH4 0x987EE156 EQ PUSH2 0xB32 JUMPI DUP1 PUSH4 0x99EC3A42 EQ PUSH2 0xADC JUMPI DUP1 PUSH4 0xA217FDDF EQ PUSH2 0xAC0 JUMPI DUP1 PUSH4 0xA70806F7 EQ PUSH2 0x861 JUMPI DUP1 PUSH4 0xAA232DC2 EQ PUSH2 0x78E JUMPI DUP1 PUSH4 0xB122A0EF EQ PUSH2 0x5A5 JUMPI DUP1 PUSH4 0xC2FE2022 EQ PUSH2 0x52A JUMPI DUP1 PUSH4 0xD547741F EQ PUSH2 0x4E9 JUMPI DUP1 PUSH4 0xD8236DFF EQ PUSH2 0x45E JUMPI DUP1 PUSH4 0xDD446001 EQ PUSH2 0x406 JUMPI DUP1 PUSH4 0xE590B56A EQ PUSH2 0x361 JUMPI DUP1 PUSH4 0xE95A3905 EQ PUSH2 0x314 JUMPI DUP1 PUSH4 0xEBD009D3 EQ PUSH2 0x2BB JUMPI PUSH4 0xF107CFCB EQ PUSH2 0x17F JUMPI PUSH1 0x0 DUP1 REVERT JUMPDEST CALLVALUE PUSH2 0x2B6 JUMPI PUSH1 0x20 DUP1 PUSH1 0x3 NOT CALLDATASIZE ADD SLT PUSH2 0x2B6 JUMPI PUSH2 0x199 PUSH2 0x1AE5 JUMP JUMPDEST SWAP1 CALLER PUSH1 0x0 MSTORE PUSH1 0x4 DUP2 MSTORE PUSH1 0x40 PUSH1 0x0 KECCAK256 SWAP2 PUSH1 0x1 DUP1 PUSH1 0xA0 SHL SUB DUP2 AND SWAP3 DUP4 PUSH1 0x0 MSTORE DUP3 MSTORE PUSH1 0xFF PUSH1 0x40 PUSH1 0x0 KECCAK256 SLOAD AND ISZERO PUSH2 0x281 JUMPI PUSH2 0x20E SWAP1 CALLER PUSH1 0x0 MSTORE PUSH1 0x4 DUP4 MSTORE PUSH1 0x40 PUSH1 0x0 KECCAK256 DUP5 PUSH1 0x0 MSTORE DUP4 MSTORE PUSH1 0x40 PUSH1 0x0 KECCAK256 PUSH1 0xFF NOT DUP2 SLOAD AND SWAP1 SSTORE PUSH1 0x5 DUP4 MSTORE PUSH2 0x1FC CALLER PUSH1 0x40 PUSH1 0x0 KECCAK256 PUSH2 0x1F2F JUMP JUMPDEST CALLER PUSH1 0x0 MSTORE PUSH1 0x6 DUP4 MSTORE PUSH1 0x40 PUSH1 0x0 KECCAK256 PUSH2 0x1F2F JUMP JUMPDEST CALLER PUSH1 0x0 MSTORE PUSH1 0x3 DUP2 MSTORE PUSH1 0x3 PUSH1 0x40 PUSH1 0x0 KECCAK256 ADD PUSH2 0x228 DUP2 SLOAD PUSH2 0x1EFF JUMP JUMPDEST SWAP1 SSTORE DUP2 PUSH1 0x0 MSTORE PUSH1 0x3 DUP2 MSTORE PUSH1 0x2 PUSH1 0x40 PUSH1 0x0 KECCAK256 ADD PUSH2 0x244 DUP2 SLOAD PUSH2 0x1EFF JUMP JUMPDEST SWAP1 SSTORE PUSH2 0x251 PUSH1 0xC SLOAD PUSH2 0x1EFF JUMP JUMPDEST PUSH1 0xC SSTORE PUSH32 0x594A48474C36E0D85B16B86393FC3D3A2ED770E7B4F0915B2972D5FBDAA99329 PUSH1 0x40 MLOAD SWAP2 TIMESTAMP DUP4 MSTORE CALLER SWAP3 LOG3 STOP JUMPDEST PUSH1 0x40 MLOAD PUSH3 0x461BCD PUSH1 0xE5 SHL DUP2 MSTORE PUSH1 0x4 DUP2 ADD DUP4 SWAP1 MSTORE PUSH1 0xD PUSH1 0x24 DUP3 ADD MSTORE PUSH13 0x4E6F7420666F6C6C6F77696E67 PUSH1 0x98 SHL PUSH1 0x44 DUP3 ADD MSTORE PUSH1 0x64 SWAP1 REVERT JUMPDEST PUSH1 0x0 DUP1 REVERT JUMPDEST CALLVALUE PUSH2 0x2B6 JUMPI PUSH1 0x40 CALLDATASIZE PUSH1 0x3 NOT ADD SLT PUSH2 0x2B6 JUMPI PUSH2 0x2D4 PUSH2 0x1AE5 JUMP JUMPDEST PUSH1 0x24 CALLDATALOAD SWAP1 PUSH1 0x1 DUP1 PUSH1 0xA0 SHL SUB DUP1 SWAP2 AND PUSH1 0x0 MSTORE PUSH1 0x5 PUSH1 0x20 MSTORE PUSH1 0x40 PUSH1 0x0 KECCAK256 DUP1 SLOAD DUP4 LT ISZERO PUSH2 0x2B6 JUMPI PUSH1 0x20 SWAP3 PUSH2 0x304 SWAP2 PUSH2 0x1C1B JUMP JUMPDEST SWAP2 SWAP1 SLOAD PUSH1 0x40 MLOAD SWAP3 PUSH1 0x3 SHL SHR AND DUP2 MSTORE RETURN JUMPDEST CALLVALUE PUSH2 0x2B6 JUMPI PUSH1 0x40 CALLDATASIZE PUSH1 0x3 NOT ADD SLT PUSH2 0x2B6 JUMPI PUSH2 0x32D PUSH2 0x1ACF JUMP JUMPDEST PUSH1 0x4 CALLDATALOAD PUSH1 0x0 MSTORE PUSH1 0x9 PUSH1 0x20 MSTORE PUSH1 0x40 PUSH1 0x0 KECCAK256 SWAP1 PUSH1 0x1 DUP1 PUSH1 0xA0 SHL SUB AND PUSH1 0x0 MSTORE PUSH1 0x20 MSTORE PUSH1 0x20 PUSH1 0xFF PUSH1 0x40 PUSH1 0x0 KECCAK256 SLOAD AND PUSH1 0x40 MLOAD SWAP1 ISZERO ISZERO DUP2 MSTORE RETURN JUMPDEST CALLVALUE PUSH2 0x2B6 JUMPI PUSH1 0x20 CALLDATASIZE PUSH1 0x3 NOT ADD SLT PUSH2 0x2B6 JUMPI PUSH1 0x4 CALLDATALOAD PUSH1 0x0 MSTORE PUSH1 0x7 PUSH1 0x20 MSTORE PUSH1 0x40 PUSH1 0x0 KECCAK256 DUP1 SLOAD PUSH2 0x390 PUSH1 0x1 DUP4 ADD PUSH2 0x1B35 JUMP JUMPDEST SWAP2 PUSH2 0x39D PUSH1 0x2 DUP3 ADD PUSH2 0x1B35 JUMP JUMPDEST PUSH1 0x1 DUP1 PUSH1 0xA0 SHL SUB PUSH1 0x3 DUP4 ADD SLOAD AND SWAP2 PUSH1 0x4 DUP2 ADD SLOAD PUSH2 0x3EB PUSH1 0xFF PUSH1 0x6 PUSH1 0x5 DUP6 ADD SLOAD SWAP5 ADD SLOAD AND SWAP4 PUSH2 0x3DD PUSH1 0x40 MLOAD SWAP9 DUP10 SWAP9 DUP10 MSTORE PUSH1 0xE0 PUSH1 0x20 DUP11 ADD MSTORE PUSH1 0xE0 DUP10 ADD SWAP1 PUSH2 0x1BDB JUMP JUMPDEST SWAP1 DUP8 DUP3 SUB PUSH1 0x40 DUP10 ADD MSTORE PUSH2 0x1BDB JUMP JUMPDEST SWAP4 PUSH1 0x60 DUP7 ADD MSTORE PUSH1 0x80 DUP6 ADD MSTORE PUSH1 0xA0 DUP5 ADD MSTORE ISZERO ISZERO PUSH1 0xC0 DUP4 ADD MSTORE SUB SWAP1 RETURN JUMPDEST CALLVALUE PUSH2 0x2B6 JUMPI PUSH1 0x40 CALLDATASIZE PUSH1 0x3 NOT ADD SLT PUSH2 0x2B6 JUMPI PUSH2 0x41F PUSH2 0x1AE5 JUMP JUMPDEST PUSH1 0x1 PUSH1 0x1 PUSH1 0xA0 SHL SUB AND PUSH1 0x0 SWAP1 DUP2 MSTORE PUSH1 0xA PUSH1 0x20 MSTORE PUSH1 0x40 SWAP1 KECCAK256 DUP1 SLOAD PUSH1 0x24 CALLDATALOAD SWAP2 SWAP1 DUP3 LT ISZERO PUSH2 0x2B6 JUMPI PUSH1 0x20 SWAP2 PUSH2 0x450 SWAP2 PUSH2 0x1C1B JUMP JUMPDEST SWAP1 SLOAD PUSH1 0x40 MLOAD SWAP2 PUSH1 0x3 SHL SHR DUP2 MSTORE RETURN JUMPDEST CALLVALUE PUSH2 0x2B6 JUMPI PUSH1 0x20 DUP1 PUSH1 0x3 NOT CALLDATASIZE ADD SLT PUSH2 0x2B6 JUMPI PUSH1 0x1 PUSH1 0x1 PUSH1 0xA0 SHL SUB DUP1 PUSH2 0x481 PUSH2 0x1AE5 JUMP JUMPDEST AND PUSH1 0x0 MSTORE PUSH1 0x6 DUP3 MSTORE PUSH1 0x40 PUSH1 0x0 KECCAK256 SWAP2 PUSH1 0x40 MLOAD DUP1 SWAP3 DUP3 DUP6 SLOAD SWAP3 DUP4 DUP2 MSTORE ADD SWAP5 PUSH1 0x0 MSTORE DUP3 PUSH1 0x0 KECCAK256 SWAP3 PUSH1 0x0 SWAP2 JUMPDEST DUP4 DUP4 LT PUSH2 0x4D0 JUMPI PUSH2 0x4CC DUP7 PUSH2 0x4C0 DUP2 DUP11 SUB DUP3 PUSH2 0x1A56 JUMP JUMPDEST PUSH1 0x40 MLOAD SWAP2 DUP3 SWAP2 DUP3 PUSH2 0x1C49 JUMP JUMPDEST SUB SWAP1 RETURN JUMPDEST DUP5 SLOAD DUP2 AND DUP8 MSTORE SWAP6 DUP2 ADD SWAP6 PUSH1 0x1 SWAP5 DUP6 ADD SWAP5 SWAP1 SWAP3 ADD SWAP2 PUSH2 0x4A9 JUMP JUMPDEST CALLVALUE PUSH2 0x2B6 JUMPI PUSH1 0x40 CALLDATASIZE PUSH1 0x3 NOT ADD SLT PUSH2 0x2B6 JUMPI PUSH2 0x528 PUSH1 0x4 CALLDATALOAD PUSH2 0x508 PUSH2 0x1ACF JUMP JUMPDEST SWAP1 DUP1 PUSH1 0x0 MSTORE PUSH1 0x0 PUSH1 0x20 MSTORE PUSH2 0x523 PUSH1 0x1 PUSH1 0x40 PUSH1 0x0 KECCAK256 ADD SLOAD PUSH2 0x1C8D JUMP JUMPDEST PUSH2 0x1DDE JUMP JUMPDEST STOP JUMPDEST CALLVALUE PUSH2 0x2B6 JUMPI PUSH1 0x20 DUP1 PUSH1 0x3 NOT CALLDATASIZE ADD SLT PUSH2 0x2B6 JUMPI PUSH1 0x1 PUSH1 0x1 PUSH1 0xA0 SHL SUB DUP1 PUSH2 0x54D PUSH2 0x1AE5 JUMP JUMPDEST AND PUSH1 0x0 MSTORE PUSH1 0x5 DUP3 MSTORE PUSH1 0x40 PUSH1 0x0 KECCAK256 SWAP2 PUSH1 0x40 MLOAD DUP1 SWAP3 DUP3 DUP6 SLOAD SWAP3 DUP4 DUP2 MSTORE ADD SWAP5 PUSH1 0x0 MSTORE DUP3 PUSH1 0x0 KECCAK256 SWAP3 PUSH1 0x0 SWAP2 JUMPDEST DUP4 DUP4 LT PUSH2 0x58C JUMPI PUSH2 0x4CC DUP7 PUSH2 0x4C0 DUP2 DUP11 SUB DUP3 PUSH2 0x1A56 JUMP JUMPDEST DUP5 SLOAD DUP2 AND DUP8 MSTORE SWAP6 DUP2 ADD SWAP6 PUSH1 0x1 SWAP5 DUP6 ADD SWAP5 SWAP1 SWAP3 ADD SWAP2 PUSH2 0x575 JUMP JUMPDEST CALLVALUE PUSH2 0x2B6 JUMPI PUSH1 0x20 DUP1 PUSH1 0x3 NOT CALLDATASIZE ADD SLT PUSH2 0x2B6 JUMPI PUSH1 0x4 CALLDATALOAD SWAP1 PUSH1 0x24 DUP2 PUSH1 0x1 DUP1 PUSH1 0xA0 SHL SUB PUSH1 0x2 SLOAD AND PUSH1 0x40 MLOAD SWAP3 DUP4 DUP1 SWAP3 PUSH4 0x1EB30AEB PUSH1 0xE0 SHL DUP3 MSTORE CALLER PUSH1 0x4 DUP4 ADD MSTORE GAS STATICCALL DUP1 ISZERO PUSH2 0x782 JUMPI PUSH2 0x5FA SWAP2 PUSH1 0x0 SWAP2 PUSH2 0x755 JUMPI JUMPDEST POP PUSH2 0x1E6B JUMP JUMPDEST DUP2 PUSH1 0x0 MSTORE PUSH1 0x7 DUP2 MSTORE PUSH1 0xFF PUSH1 0x6 PUSH1 0x40 PUSH1 0x0 KECCAK256 ADD SLOAD AND ISZERO PUSH2 0x71A JUMPI DUP2 PUSH1 0x0 MSTORE PUSH1 0x9 DUP2 MSTORE PUSH1 0x40 PUSH1 0x0 KECCAK256 CALLER PUSH1 0x0 MSTORE DUP2 MSTORE PUSH1 0xFF PUSH1 0x40 PUSH1 0x0 KECCAK256 SLOAD AND PUSH2 0x6E3 JUMPI PUSH1 0x3 SWAP1 DUP3 PUSH1 0x0 MSTORE PUSH1 0x9 DUP2 MSTORE PUSH1 0x40 PUSH1 0x0 KECCAK256 CALLER PUSH1 0x0 MSTORE DUP2 MSTORE PUSH1 0x40 PUSH1 0x0 KECCAK256 PUSH1 0x1 PUSH1 0xFF NOT DUP3 SLOAD AND OR SWAP1 SSTORE DUP3 PUSH1 0x0 MSTORE PUSH1 0x8 DUP2 MSTORE PUSH2 0x66F CALLER PUSH1 0x40 PUSH1 0x0 KECCAK256 PUSH2 0x1EAE JUMP JUMPDEST CALLER PUSH1 0x0 MSTORE PUSH1 0xA DUP2 MSTORE PUSH2 0x685 DUP4 PUSH1 0x40 PUSH1 0x0 KECCAK256 PUSH2 0x1F0C JUMP JUMPDEST DUP3 PUSH1 0x0 MSTORE PUSH1 0x7 DUP2 MSTORE PUSH1 0x5 PUSH1 0x40 PUSH1 0x0 KECCAK256 ADD PUSH2 0x69F DUP2 SLOAD PUSH2 0x1EF0 JUMP JUMPDEST SWAP1 SSTORE CALLER PUSH1 0x0 MSTORE MSTORE PUSH1 0x4 PUSH1 0x40 PUSH1 0x0 KECCAK256 ADD PUSH2 0x6B8 DUP2 SLOAD PUSH2 0x1EF0 JUMP JUMPDEST SWAP1 SSTORE CALLER SWAP1 PUSH32 0xD873197DFE57397EAB48D3C120C62ED968CAC2A00B06B67AB9B66FC80D63DFD1 PUSH1 0x0 DUP1 LOG3 STOP JUMPDEST PUSH1 0x64 SWAP1 PUSH1 0x40 MLOAD SWAP1 PUSH3 0x461BCD PUSH1 0xE5 SHL DUP3 MSTORE PUSH1 0x4 DUP3 ADD MSTORE PUSH1 0x10 PUSH1 0x24 DUP3 ADD MSTORE PUSH16 0x20B63932B0B23C90309036B2B6B132B9 PUSH1 0x81 SHL PUSH1 0x44 DUP3 ADD MSTORE REVERT JUMPDEST PUSH1 0x64 SWAP1 PUSH1 0x40 MLOAD SWAP1 PUSH3 0x461BCD PUSH1 0xE5 SHL DUP3 MSTORE PUSH1 0x4 DUP3 ADD MSTORE PUSH1 0x14 PUSH1 0x24 DUP3 ADD MSTORE PUSH20 0x436F6D6D756E697479206E6F7420616374697665 PUSH1 0x60 SHL PUSH1 0x44 DUP3 ADD MSTORE REVERT JUMPDEST PUSH2 0x775 SWAP2 POP DUP4 RETURNDATASIZE DUP6 GT PUSH2 0x77B JUMPI JUMPDEST PUSH2 0x76D DUP2 DUP4 PUSH2 0x1A56 JUMP JUMPDEST DUP2 ADD SWAP1 PUSH2 0x1E53 JUMP JUMPDEST DUP5 PUSH2 0x5F4 JUMP JUMPDEST POP RETURNDATASIZE PUSH2 0x763 JUMP JUMPDEST PUSH1 0x40 MLOAD RETURNDATASIZE PUSH1 0x0 DUP3 RETURNDATACOPY RETURNDATASIZE SWAP1 REVERT JUMPDEST CALLVALUE PUSH2 0x2B6 JUMPI PUSH1 0x20 CALLDATASIZE PUSH1 0x3 NOT ADD SLT PUSH2 0x2B6 JUMPI PUSH2 0x7A7 PUSH2 0x1AE5 JUMP JUMPDEST CALLER PUSH1 0x0 SWAP1 DUP2 MSTORE PUSH32 0x7D7FFB7A348E1C6A02869081A26547B49160DD3DF72D1D75A570EB9B698292EC PUSH1 0x20 MSTORE PUSH1 0x40 SWAP1 KECCAK256 SLOAD PUSH32 0xA49807205CE4D355092EF5A8A18F56E8913CF4A201FBE287825B095693C21775 SWAP1 PUSH1 0xFF AND ISZERO PUSH2 0x843 JUMPI PUSH2 0x528 DUP3 PUSH32 0x71F3D55856E4058ED06EE057D79ADA615F65CDF5F9EE88181B914225088F834F PUSH1 0x0 MSTORE PUSH1 0x0 PUSH1 0x20 MSTORE PUSH2 0x83E PUSH1 0x1 PUSH1 0x40 PUSH1 0x0 KECCAK256 ADD SLOAD PUSH2 0x1C8D JUMP JUMPDEST PUSH2 0x1CB3 JUMP JUMPDEST PUSH1 0x44 SWAP1 PUSH1 0x40 MLOAD SWAP1 PUSH4 0xE2517D3F PUSH1 0xE0 SHL DUP3 MSTORE CALLER PUSH1 0x4 DUP4 ADD MSTORE PUSH1 0x24 DUP3 ADD MSTORE REVERT JUMPDEST CALLVALUE PUSH2 0x2B6 JUMPI PUSH1 0x20 DUP1 PUSH1 0x3 NOT CALLDATASIZE ADD SLT PUSH2 0x2B6 JUMPI PUSH2 0x87B PUSH2 0x1AE5 JUMP JUMPDEST PUSH1 0x2 SLOAD PUSH1 0x40 MLOAD PUSH4 0x1EB30AEB PUSH1 0xE0 SHL DUP1 DUP3 MSTORE CALLER PUSH1 0x4 DUP4 ADD MSTORE PUSH1 0x1 PUSH1 0x1 PUSH1 0xA0 SHL SUB SWAP3 DUP4 AND SWAP5 SWAP4 SWAP3 SWAP2 SWAP1 DUP5 DUP3 PUSH1 0x24 DUP2 DUP10 GAS STATICCALL SWAP2 DUP3 ISZERO PUSH2 0x782 JUMPI DUP6 SWAP3 PUSH2 0x8C4 SWAP2 PUSH1 0x0 SWAP2 PUSH2 0xAA3 JUMPI POP PUSH2 0x1E6B JUMP JUMPDEST PUSH1 0x24 PUSH1 0x40 MLOAD DUP1 SWAP5 DUP2 SWAP4 DUP3 MSTORE DUP7 AND SWAP8 DUP9 PUSH1 0x4 DUP4 ADD MSTORE GAS STATICCALL SWAP1 DUP2 ISZERO PUSH2 0x782 JUMPI PUSH1 0x0 SWAP2 PUSH2 0xA86 JUMPI JUMPDEST POP ISZERO PUSH2 0xA4B JUMPI DUP3 CALLER EQ PUSH2 0xA0D JUMPI CALLER PUSH1 0x0 MSTORE PUSH1 0x4 DUP3 MSTORE PUSH1 0x40 PUSH1 0x0 KECCAK256 DUP4 PUSH1 0x0 MSTORE DUP3 MSTORE PUSH1 0xFF PUSH1 0x40 PUSH1 0x0 KECCAK256 SLOAD AND PUSH2 0x9D4 JUMPI PUSH2 0x961 SWAP1 CALLER PUSH1 0x0 MSTORE PUSH1 0x4 DUP4 MSTORE PUSH1 0x40 PUSH1 0x0 KECCAK256 DUP5 PUSH1 0x0 MSTORE DUP4 MSTORE PUSH1 0x40 PUSH1 0x0 KECCAK256 PUSH1 0x1 PUSH1 0xFF NOT DUP3 SLOAD AND OR SWAP1 SSTORE PUSH1 0x5 DUP4 MSTORE PUSH2 0x94F CALLER PUSH1 0x40 PUSH1 0x0 KECCAK256 PUSH2 0x1EAE JUMP JUMPDEST CALLER PUSH1 0x0 MSTORE PUSH1 0x6 DUP4 MSTORE PUSH1 0x40 PUSH1 0x0 KECCAK256 PUSH2 0x1EAE JUMP JUMPDEST CALLER PUSH1 0x0 MSTORE PUSH1 0x3 DUP2 MSTORE PUSH1 0x3 PUSH1 0x40 PUSH1 0x0 KECCAK256 ADD PUSH2 0x97B DUP2 SLOAD PUSH2 0x1EF0 JUMP JUMPDEST SWAP1 SSTORE DUP2 PUSH1 0x0 MSTORE PUSH1 0x3 DUP2 MSTORE PUSH1 0x2 PUSH1 0x40 PUSH1 0x0 KECCAK256 ADD PUSH2 0x997 DUP2 SLOAD PUSH2 0x1EF0 JUMP JUMPDEST SWAP1 SSTORE PUSH2 0x9A4 PUSH1 0xC SLOAD PUSH2 0x1EF0 JUMP JUMPDEST PUSH1 0xC SSTORE PUSH32 0x53E62C84B456CDA6228F6C0ACD671088271C8BB9627A72D3F8C3D631C8473724 PUSH1 0x40 MLOAD SWAP2 TIMESTAMP DUP4 MSTORE CALLER SWAP3 LOG3 STOP JUMPDEST PUSH1 0x40 MLOAD PUSH3 0x461BCD PUSH1 0xE5 SHL DUP2 MSTORE PUSH1 0x4 DUP2 ADD DUP4 SWAP1 MSTORE PUSH1 0x11 PUSH1 0x24 DUP3 ADD MSTORE PUSH17 0x416C726561647920666F6C6C6F77696E67 PUSH1 0x78 SHL PUSH1 0x44 DUP3 ADD MSTORE PUSH1 0x64 SWAP1 REVERT JUMPDEST PUSH1 0x40 MLOAD PUSH3 0x461BCD PUSH1 0xE5 SHL DUP2 MSTORE PUSH1 0x4 DUP2 ADD DUP4 SWAP1 MSTORE PUSH1 0x16 PUSH1 0x24 DUP3 ADD MSTORE PUSH22 0x21B0B73737BA103337B63637BB903CB7BAB939B2B633 PUSH1 0x51 SHL PUSH1 0x44 DUP3 ADD MSTORE PUSH1 0x64 SWAP1 REVERT JUMPDEST PUSH1 0x40 MLOAD PUSH3 0x461BCD PUSH1 0xE5 SHL DUP2 MSTORE PUSH1 0x4 DUP2 ADD DUP4 SWAP1 MSTORE PUSH1 0x13 PUSH1 0x24 DUP3 ADD MSTORE PUSH19 0x15185C99D95D081B9BDD081D995C9A599A5959 PUSH1 0x6A SHL PUSH1 0x44 DUP3 ADD MSTORE PUSH1 0x64 SWAP1 REVERT JUMPDEST PUSH2 0xA9D SWAP2 POP DUP4 RETURNDATASIZE DUP6 GT PUSH2 0x77B JUMPI PUSH2 0x76D DUP2 DUP4 PUSH2 0x1A56 JUMP JUMPDEST DUP5 PUSH2 0x8E9 JUMP JUMPDEST PUSH2 0xABA SWAP2 POP DUP5 RETURNDATASIZE DUP7 GT PUSH2 0x77B JUMPI PUSH2 0x76D DUP2 DUP4 PUSH2 0x1A56 JUMP JUMPDEST DUP9 PUSH2 0x5F4 JUMP JUMPDEST CALLVALUE PUSH2 0x2B6 JUMPI PUSH1 0x0 CALLDATASIZE PUSH1 0x3 NOT ADD SLT PUSH2 0x2B6 JUMPI PUSH1 0x20 PUSH1 0x40 MLOAD PUSH1 0x0 DUP2 MSTORE RETURN JUMPDEST CALLVALUE PUSH2 0x2B6 JUMPI PUSH1 0x40 CALLDATASIZE PUSH1 0x3 NOT ADD SLT PUSH2 0x2B6 JUMPI PUSH2 0xAF5 PUSH2 0x1AE5 JUMP JUMPDEST PUSH2 0xAFD PUSH2 0x1ACF JUMP JUMPDEST SWAP1 PUSH1 0x1 DUP1 PUSH1 0xA0 SHL SUB DUP1 SWAP2 AND PUSH1 0x0 MSTORE PUSH1 0x4 PUSH1 0x20 MSTORE PUSH1 0x40 PUSH1 0x0 KECCAK256 SWAP2 AND PUSH1 0x0 MSTORE PUSH1 0x20 MSTORE PUSH1 0x20 PUSH1 0xFF PUSH1 0x40 PUSH1 0x0 KECCAK256 SLOAD AND PUSH1 0x40 MLOAD SWAP1 ISZERO ISZERO DUP2 MSTORE RETURN JUMPDEST CALLVALUE PUSH2 0x2B6 JUMPI PUSH1 0x20 DUP1 PUSH1 0x3 NOT CALLDATASIZE ADD SLT PUSH2 0x2B6 JUMPI PUSH2 0xB4C PUSH2 0x1AE5 JUMP JUMPDEST SWAP1 PUSH1 0x0 PUSH1 0xA0 PUSH1 0x40 MLOAD PUSH2 0xB5D DUP2 PUSH2 0x1A3A JUMP JUMPDEST DUP3 DUP2 MSTORE PUSH1 0x60 DUP5 DUP3 ADD MSTORE DUP3 PUSH1 0x40 DUP3 ADD MSTORE DUP3 PUSH1 0x60 DUP3 ADD MSTORE DUP3 PUSH1 0x80 DUP3 ADD MSTORE ADD MSTORE PUSH1 0x1 DUP1 PUSH1 0xA0 SHL SUB DUP1 SWAP3 AND PUSH1 0x0 MSTORE PUSH1 0x3 DUP2 MSTORE PUSH1 0x40 PUSH1 0x0 KECCAK256 PUSH1 0x40 MLOAD SWAP2 PUSH2 0xB9D DUP4 PUSH2 0x1A3A JUMP JUMPDEST DUP4 DUP3 SLOAD AND DUP4 MSTORE PUSH2 0xBAF PUSH1 0x1 DUP4 ADD PUSH2 0x1B35 JUMP JUMPDEST SWAP2 DUP2 DUP5 ADD SWAP3 DUP4 MSTORE PUSH1 0x2 DUP2 ADD SLOAD SWAP3 PUSH1 0x40 DUP6 ADD SWAP4 DUP5 MSTORE PUSH2 0xC12 PUSH1 0x3 DUP4 ADD SLOAD SWAP2 PUSH1 0x60 DUP8 ADD SWAP3 DUP4 MSTORE PUSH1 0xFF PUSH1 0x5 PUSH1 0x4 DUP7 ADD SLOAD SWAP6 PUSH1 0x80 DUP11 ADD SWAP7 DUP8 MSTORE ADD SLOAD AND SWAP5 PUSH1 0xA0 DUP9 ADD SWAP6 ISZERO ISZERO DUP7 MSTORE PUSH1 0x40 MLOAD SWAP9 DUP10 SWAP9 DUP3 DUP11 MSTORE MLOAD AND SWAP1 DUP9 ADD MSTORE MLOAD PUSH1 0xC0 PUSH1 0x40 DUP9 ADD MSTORE PUSH1 0xE0 DUP8 ADD SWAP1 PUSH2 0x1BDB JUMP JUMPDEST SWAP4 MLOAD PUSH1 0x60 DUP7 ADD MSTORE MLOAD PUSH1 0x80 DUP6 ADD MSTORE MLOAD PUSH1 0xA0 DUP5 ADD MSTORE MLOAD ISZERO ISZERO PUSH1 0xC0 DUP4 ADD MSTORE SUB SWAP1 RETURN JUMPDEST CALLVALUE PUSH2 0x2B6 JUMPI PUSH1 0x0 CALLDATASIZE PUSH1 0x3 NOT ADD SLT PUSH2 0x2B6 JUMPI PUSH1 0x2 SLOAD PUSH1 0x40 MLOAD PUSH1 0x1 PUSH1 0x1 PUSH1 0xA0 SHL SUB SWAP1 SWAP2 AND DUP2 MSTORE PUSH1 0x20 SWAP1 RETURN JUMPDEST CALLVALUE PUSH2 0x2B6 JUMPI PUSH1 0x40 CALLDATASIZE PUSH1 0x3 NOT ADD SLT PUSH2 0x2B6 JUMPI PUSH2 0xC73 PUSH2 0x1ACF JUMP JUMPDEST PUSH1 0x4 CALLDATALOAD PUSH1 0x0 MSTORE PUSH1 0x0 PUSH1 0x20 MSTORE PUSH1 0x40 PUSH1 0x0 KECCAK256 SWAP1 PUSH1 0x1 DUP1 PUSH1 0xA0 SHL SUB AND PUSH1 0x0 MSTORE PUSH1 0x20 MSTORE PUSH1 0x20 PUSH1 0xFF PUSH1 0x40 PUSH1 0x0 KECCAK256 SLOAD AND PUSH1 0x40 MLOAD SWAP1 ISZERO ISZERO DUP2 MSTORE RETURN JUMPDEST CALLVALUE PUSH2 0x2B6 JUMPI PUSH1 0x40 CALLDATASIZE PUSH1 0x3 NOT ADD SLT PUSH2 0x2B6 JUMPI PUSH2 0xCC0 PUSH2 0x1AE5 JUMP JUMPDEST PUSH1 0x24 CALLDATALOAD SWAP1 PUSH1 0x1 DUP1 PUSH1 0xA0 SHL SUB DUP1 SWAP2 AND PUSH1 0x0 MSTORE PUSH1 0x6 PUSH1 0x20 MSTORE PUSH1 0x40 PUSH1 0x0 KECCAK256 DUP1 SLOAD DUP4 LT ISZERO PUSH2 0x2B6 JUMPI PUSH1 0x20 SWAP3 PUSH2 0x304 SWAP2 PUSH2 0x1C1B JUMP JUMPDEST CALLVALUE PUSH2 0x2B6 JUMPI PUSH1 0x0 CALLDATASIZE PUSH1 0x3 NOT ADD SLT PUSH2 0x2B6 JUMPI PUSH1 0x20 PUSH1 0xB SLOAD PUSH1 0x40 MLOAD SWAP1 DUP2 MSTORE RETURN JUMPDEST CALLVALUE PUSH2 0x2B6 JUMPI PUSH1 0x0 CALLDATASIZE PUSH1 0x3 NOT ADD SLT PUSH2 0x2B6 JUMPI PUSH1 0x20 PUSH1 0x40 MLOAD PUSH32 0x71F3D55856E4058ED06EE057D79ADA615F65CDF5F9EE88181B914225088F834F DUP2 MSTORE RETURN JUMPDEST CALLVALUE PUSH2 0x2B6 JUMPI PUSH1 0x0 CALLDATASIZE PUSH1 0x3 NOT ADD SLT PUSH2 0x2B6 JUMPI PUSH1 0x20 PUSH1 0x40 MLOAD PUSH32 0xA49807205CE4D355092EF5A8A18F56E8913CF4A201FBE287825B095693C21775 DUP2 MSTORE RETURN JUMPDEST CALLVALUE PUSH2 0x2B6 JUMPI PUSH1 0x20 DUP1 PUSH1 0x3 NOT CALLDATASIZE ADD SLT PUSH2 0x2B6 JUMPI PUSH1 0x4 CALLDATALOAD PUSH1 0x0 MSTORE PUSH1 0x8 DUP2 MSTORE PUSH1 0x40 PUSH1 0x0 KECCAK256 SWAP1 PUSH1 0x40 MLOAD SWAP1 DUP2 DUP2 DUP5 SLOAD SWAP2 DUP3 DUP2 MSTORE ADD SWAP4 PUSH1 0x0 MSTORE DUP2 PUSH1 0x0 KECCAK256 SWAP2 PUSH1 0x0 SWAP1 JUMPDEST DUP3 DUP3 LT PUSH2 0xDD7 JUMPI PUSH2 0x4CC DUP6 PUSH2 0x4C0 DUP2 DUP10 SUB DUP3 PUSH2 0x1A56 JUMP JUMPDEST DUP4 SLOAD PUSH1 0x1 PUSH1 0x1 PUSH1 0xA0 SHL SUB AND DUP7 MSTORE SWAP5 DUP6 ADD SWAP5 PUSH1 0x1 SWAP4 DUP5 ADD SWAP4 SWAP1 SWAP2 ADD SWAP1 PUSH2 0xDC0 JUMP JUMPDEST CALLVALUE PUSH2 0x2B6 JUMPI PUSH1 0x20 DUP1 PUSH1 0x3 NOT CALLDATASIZE ADD SLT PUSH2 0x2B6 JUMPI PUSH1 0x1 PUSH1 0x1 PUSH1 0xA0 SHL SUB PUSH2 0xE19 PUSH2 0x1AE5 JUMP JUMPDEST AND PUSH1 0x0 MSTORE PUSH1 0xA DUP2 MSTORE PUSH1 0x40 PUSH1 0x0 KECCAK256 PUSH1 0x40 MLOAD SWAP1 DUP2 DUP4 DUP3 SLOAD SWAP2 DUP3 DUP2 MSTORE ADD SWAP1 DUP2 SWAP3 PUSH1 0x0 MSTORE DUP5 PUSH1 0x0 KECCAK256 SWAP1 PUSH1 0x0 JUMPDEST DUP7 DUP3 DUP3 LT PUSH2 0xE97 JUMPI DUP7 DUP7 PUSH2 0xE57 DUP3 DUP9 SUB DUP4 PUSH2 0x1A56 JUMP JUMPDEST PUSH1 0x40 MLOAD SWAP3 DUP4 SWAP3 DUP2 DUP5 ADD SWAP1 DUP3 DUP6 MSTORE MLOAD DUP1 SWAP2 MSTORE PUSH1 0x40 DUP5 ADD SWAP3 SWAP2 PUSH1 0x0 JUMPDEST DUP3 DUP2 LT PUSH2 0xE80 JUMPI POP POP POP POP SUB SWAP1 RETURN JUMPDEST DUP4 MLOAD DUP6 MSTORE DUP7 SWAP6 POP SWAP4 DUP2 ADD SWAP4 SWAP3 DUP2 ADD SWAP3 PUSH1 0x1 ADD PUSH2 0xE71 JUMP JUMPDEST DUP4 SLOAD DUP6 MSTORE SWAP1 SWAP4 ADD SWAP3 PUSH1 0x1 SWAP3 DUP4 ADD SWAP3 ADD PUSH2 0xE41 JUMP JUMPDEST CALLVALUE PUSH2 0x2B6 JUMPI PUSH1 0x40 CALLDATASIZE PUSH1 0x3 NOT ADD SLT PUSH2 0x2B6 JUMPI PUSH1 0x24 CALLDATALOAD PUSH1 0x4 CALLDATALOAD PUSH1 0x0 MSTORE PUSH1 0x8 PUSH1 0x20 MSTORE PUSH1 0x40 PUSH1 0x0 KECCAK256 DUP1 SLOAD DUP3 LT ISZERO PUSH2 0x2B6 JUMPI PUSH1 0x20 SWAP2 PUSH2 0xEE4 SWAP2 PUSH2 0x1C1B JUMP JUMPDEST SWAP1 SLOAD PUSH1 0x40 MLOAD PUSH1 0x3 SWAP3 SWAP1 SWAP3 SHL SHR PUSH1 0x1 PUSH1 0x1 PUSH1 0xA0 SHL SUB AND DUP2 MSTORE RETURN JUMPDEST CALLVALUE PUSH2 0x2B6 JUMPI PUSH1 0x40 CALLDATASIZE PUSH1 0x3 NOT ADD SLT PUSH2 0x2B6 JUMPI PUSH8 0xFFFFFFFFFFFFFFFF PUSH1 0x4 CALLDATALOAD DUP2 DUP2 GT PUSH2 0x2B6 JUMPI PUSH2 0xF2F SWAP1 CALLDATASIZE SWAP1 PUSH1 0x4 ADD PUSH2 0x1A78 JUMP JUMPDEST PUSH1 0x24 CALLDATALOAD DUP1 ISZERO ISZERO DUP2 SUB PUSH2 0x2B6 JUMPI PUSH1 0x2 SLOAD PUSH1 0x40 MLOAD PUSH4 0x1EB30AEB PUSH1 0xE0 SHL DUP2 MSTORE CALLER PUSH1 0x4 DUP3 ADD MSTORE PUSH1 0x20 SWAP5 SWAP2 DUP6 SWAP1 DUP3 SWAP1 PUSH1 0x24 SWAP1 DUP3 SWAP1 PUSH1 0x1 PUSH1 0x1 PUSH1 0xA0 SHL SUB AND GAS STATICCALL DUP1 ISZERO PUSH2 0x782 JUMPI PUSH2 0xF80 SWAP2 PUSH1 0x0 SWAP2 PUSH2 0x114D JUMPI POP PUSH2 0x1E6B JUMP JUMPDEST CALLER PUSH1 0x0 MSTORE PUSH1 0x3 DUP5 MSTORE PUSH1 0x40 PUSH1 0x0 KECCAK256 SWAP1 CALLER PUSH12 0xFFFFFFFFFFFFFFFFFFFFFFFF PUSH1 0xA0 SHL DUP4 SLOAD AND OR DUP3 SSTORE PUSH1 0x1 DUP1 SWAP3 ADD SWAP2 DUP5 MLOAD SWAP2 DUP3 GT PUSH2 0x1137 JUMPI PUSH2 0xFBE DUP4 SLOAD PUSH2 0x1AFB JUMP JUMPDEST PUSH1 0x1F DUP2 GT PUSH2 0x10EE JUMPI JUMPDEST POP DUP6 PUSH1 0x1F DUP4 GT PUSH1 0x1 EQ PUSH2 0x1060 JUMPI SWAP3 DUP3 DUP1 PUSH2 0x103D SWAP5 PUSH2 0x1050 SWAP8 SWAP5 PUSH32 0xDD635A4CD84864E37E4479DBFC2EC667ACFA473C83C8422A8AC9D9D07599B01C SWAP10 SWAP8 PUSH1 0x0 SWAP4 PUSH2 0x1055 JUMPI JUMPDEST POP SHL SWAP2 PUSH1 0x0 NOT SWAP1 PUSH1 0x3 SHL SHR NOT AND OR SWAP1 SSTORE JUMPDEST CALLER PUSH1 0x0 MSTORE PUSH1 0x3 DUP7 MSTORE PUSH1 0x5 PUSH1 0x40 PUSH1 0x0 KECCAK256 ADD SWAP1 PUSH1 0xFF DUP1 NOT DUP4 SLOAD AND SWAP2 ISZERO ISZERO AND OR SWAP1 SSTORE JUMP JUMPDEST PUSH1 0x40 MLOAD SWAP2 DUP3 SWAP2 DUP6 DUP4 MSTORE CALLER SWAP6 DUP4 ADD SWAP1 PUSH2 0x1BDB JUMP JUMPDEST SUB SWAP1 LOG2 STOP JUMPDEST DUP9 ADD MLOAD SWAP3 POP DUP12 PUSH2 0x100B JUMP JUMPDEST PUSH1 0x1F SWAP3 SWAP2 SWAP3 NOT DUP3 AND SWAP1 DUP5 PUSH1 0x0 MSTORE DUP8 PUSH1 0x0 KECCAK256 SWAP2 PUSH1 0x0 JUMPDEST DUP10 DUP3 DUP3 LT PUSH2 0x10DA JUMPI POP POP SWAP3 PUSH32 0xDD635A4CD84864E37E4479DBFC2EC667ACFA473C83C8422A8AC9D9D07599B01C SWAP8 SWAP6 SWAP3 PUSH2 0x103D SWAP6 SWAP3 DUP3 PUSH2 0x1050 SWAP10 SWAP7 LT PUSH2 0x10C1 JUMPI JUMPDEST POP POP DUP2 SHL ADD SWAP1 SSTORE PUSH2 0x101C JUMP JUMPDEST DUP8 ADD MLOAD PUSH1 0x0 NOT PUSH1 0xF8 DUP5 PUSH1 0x3 SHL AND SHR NOT AND SWAP1 SSTORE DUP10 DUP1 PUSH2 0x10B5 JUMP JUMPDEST DUP10 DUP5 ADD MLOAD DUP6 SSTORE SWAP4 DUP7 ADD SWAP4 SWAP3 DUP4 ADD SWAP3 ADD PUSH2 0x1075 JUMP JUMPDEST DUP4 PUSH1 0x0 MSTORE DUP7 PUSH1 0x0 KECCAK256 PUSH1 0x1F DUP5 ADD PUSH1 0x5 SHR DUP2 ADD SWAP2 DUP9 DUP6 LT PUSH2 0x112D JUMPI JUMPDEST PUSH1 0x1F ADD PUSH1 0x5 SHR ADD SWAP1 DUP3 SWAP1 JUMPDEST DUP3 DUP2 LT PUSH2 0x1121 JUMPI POP POP PUSH2 0xFC7 JUMP JUMPDEST PUSH1 0x0 DUP2 SSTORE ADD DUP3 SWAP1 PUSH2 0x1113 JUMP JUMPDEST SWAP1 SWAP2 POP DUP2 SWAP1 PUSH2 0x1108 JUMP JUMPDEST PUSH4 0x4E487B71 PUSH1 0xE0 SHL PUSH1 0x0 MSTORE PUSH1 0x41 PUSH1 0x4 MSTORE PUSH1 0x24 PUSH1 0x0 REVERT JUMPDEST PUSH2 0x1164 SWAP2 POP DUP7 RETURNDATASIZE DUP9 GT PUSH2 0x77B JUMPI PUSH2 0x76D DUP2 DUP4 PUSH2 0x1A56 JUMP JUMPDEST DUP7 PUSH2 0x5F4 JUMP JUMPDEST CALLVALUE PUSH2 0x2B6 JUMPI PUSH1 0x40 CALLDATASIZE PUSH1 0x3 NOT ADD SLT PUSH2 0x2B6 JUMPI PUSH2 0x1183 PUSH2 0x1ACF JUMP JUMPDEST CALLER PUSH1 0x1 PUSH1 0x1 PUSH1 0xA0 SHL SUB DUP3 AND SUB PUSH2 0x119F JUMPI PUSH2 0x528 SWAP1 PUSH1 0x4 CALLDATALOAD PUSH2 0x1DDE JUMP JUMPDEST PUSH1 0x40 MLOAD PUSH4 0x334BD919 PUSH1 0xE1 SHL DUP2 MSTORE PUSH1 0x4 SWAP1 REVERT JUMPDEST CALLVALUE PUSH2 0x2B6 JUMPI PUSH1 0x0 CALLDATASIZE PUSH1 0x3 NOT ADD SLT PUSH2 0x2B6 JUMPI PUSH1 0x20 PUSH1 0xC SLOAD PUSH1 0x40 MLOAD SWAP1 DUP2 MSTORE RETURN JUMPDEST CALLVALUE PUSH2 0x2B6 JUMPI PUSH1 0x20 CALLDATASIZE PUSH1 0x3 NOT ADD SLT PUSH2 0x2B6 JUMPI PUSH1 0x1 PUSH1 0x1 PUSH1 0xA0 SHL SUB DUP1 PUSH2 0x11F1 PUSH2 0x1AE5 JUMP JUMPDEST AND PUSH1 0x0 MSTORE PUSH1 0x3 PUSH1 0x20 MSTORE PUSH1 0x40 PUSH1 0x0 KECCAK256 SWAP1 DUP2 SLOAD AND PUSH2 0x120F PUSH1 0x1 DUP4 ADD PUSH2 0x1B35 JUMP JUMPDEST SWAP2 PUSH1 0x2 DUP2 ADD SLOAD SWAP1 PUSH1 0x3 DUP2 ADD SLOAD SWAP1 PUSH1 0xFF PUSH1 0x5 PUSH1 0x4 DUP4 ADD SLOAD SWAP3 ADD SLOAD AND SWAP2 PUSH2 0x1246 PUSH1 0x40 MLOAD SWAP7 DUP8 SWAP7 DUP8 MSTORE PUSH1 0xC0 PUSH1 0x20 DUP9 ADD MSTORE PUSH1 0xC0 DUP8 ADD SWAP1 PUSH2 0x1BDB JUMP JUMPDEST SWAP4 PUSH1 0x40 DUP7 ADD MSTORE PUSH1 0x60 DUP6 ADD MSTORE PUSH1 0x80 DUP5 ADD MSTORE ISZERO ISZERO PUSH1 0xA0 DUP4 ADD MSTORE SUB SWAP1 RETURN JUMPDEST CALLVALUE PUSH2 0x2B6 JUMPI PUSH1 0x40 CALLDATASIZE PUSH1 0x3 NOT ADD SLT PUSH2 0x2B6 JUMPI PUSH2 0x528 PUSH1 0x4 CALLDATALOAD PUSH2 0x1280 PUSH2 0x1ACF JUMP JUMPDEST SWAP1 DUP1 PUSH1 0x0 MSTORE PUSH1 0x0 PUSH1 0x20 MSTORE PUSH2 0x129B PUSH1 0x1 PUSH1 0x40 PUSH1 0x0 KECCAK256 ADD SLOAD PUSH2 0x1C8D JUMP JUMPDEST PUSH2 0x1D65 JUMP JUMPDEST CALLVALUE PUSH2 0x2B6 JUMPI PUSH1 0x20 CALLDATASIZE PUSH1 0x3 NOT ADD SLT PUSH2 0x2B6 JUMPI PUSH1 0x4 CALLDATALOAD PUSH1 0x0 MSTORE PUSH1 0x0 PUSH1 0x20 MSTORE PUSH1 0x20 PUSH1 0x1 PUSH1 0x40 PUSH1 0x0 KECCAK256 ADD SLOAD PUSH1 0x40 MLOAD SWAP1 DUP2 MSTORE RETURN JUMPDEST CALLVALUE PUSH2 0x2B6 JUMPI PUSH1 0x20 DUP1 PUSH1 0x3 NOT CALLDATASIZE ADD SLT PUSH2 0x2B6 JUMPI PUSH1 0x4 CALLDATALOAD SWAP1 DUP2 PUSH1 0x0 MSTORE PUSH1 0x9 DUP2 MSTORE PUSH1 0x40 PUSH1 0x0 KECCAK256 CALLER PUSH1 0x0 MSTORE DUP2 MSTORE PUSH1 0xFF PUSH1 0x40 PUSH1 0x0 KECCAK256 SLOAD AND ISZERO PUSH2 0x14DA JUMPI PUSH1 0x0 DUP3 DUP2 MSTORE PUSH1 0x7 DUP3 MSTORE PUSH1 0x40 SWAP1 KECCAK256 PUSH1 0x3 SWAP1 DUP2 ADD SLOAD PUSH1 0x1 PUSH1 0x1 PUSH1 0xA0 SHL SUB AND CALLER EQ PUSH2 0x149E JUMPI DUP3 PUSH1 0x0 MSTORE PUSH1 0x9 DUP3 MSTORE PUSH1 0x40 PUSH1 0x0 KECCAK256 CALLER PUSH1 0x0 MSTORE DUP3 MSTORE PUSH1 0x40 PUSH1 0x0 KECCAK256 PUSH1 0xFF NOT DUP2 SLOAD AND SWAP1 SSTORE DUP3 PUSH1 0x0 MSTORE PUSH1 0x8 DUP3 MSTORE PUSH2 0x135E CALLER PUSH1 0x40 PUSH1 0x0 KECCAK256 PUSH2 0x1F2F JUMP JUMPDEST CALLER PUSH1 0x0 MSTORE PUSH1 0xA DUP3 MSTORE PUSH1 0x40 PUSH1 0x0 KECCAK256 SWAP2 PUSH1 0x0 JUMPDEST DUP4 SLOAD DUP1 DUP3 LT ISZERO PUSH2 0x1494 JUMPI DUP6 PUSH2 0x1384 DUP4 DUP8 PUSH2 0x1C1B JUMP JUMPDEST SWAP1 SLOAD SWAP1 DUP7 SHL SHR EQ PUSH2 0x139E JUMPI POP PUSH2 0x1399 SWAP1 PUSH2 0x1EF0 JUMP JUMPDEST PUSH2 0x136F JUMP JUMPDEST SWAP3 SWAP4 SWAP2 SWAP3 PUSH1 0x0 NOT SWAP3 SWAP2 DUP2 DUP5 ADD SWAP2 DUP3 GT PUSH2 0x147E JUMPI PUSH2 0x13CE PUSH2 0x13C1 PUSH2 0x13E7 SWAP4 DUP6 PUSH2 0x1C1B JUMP JUMPDEST SWAP1 SLOAD SWAP1 DUP9 SHL SHR SWAP2 DUP5 PUSH2 0x1C1B JUMP JUMPDEST SWAP1 SWAP2 SWAP1 DUP3 SLOAD SWAP1 PUSH1 0x3 SHL SWAP2 DUP3 SHL SWAP2 PUSH1 0x0 NOT SWAP1 SHL NOT AND OR SWAP1 SSTORE JUMP JUMPDEST DUP1 SLOAD DUP1 ISZERO PUSH2 0x1468 JUMPI DUP3 ADD SWAP2 PUSH2 0x13FC DUP4 DUP4 PUSH2 0x1C1B JUMP JUMPDEST SWAP1 SWAP2 DUP3 SLOAD SWAP2 DUP8 SHL SHL NOT AND SWAP1 SSTORE SSTORE JUMPDEST DUP3 PUSH1 0x0 MSTORE PUSH1 0x7 DUP2 MSTORE PUSH1 0x5 PUSH1 0x40 PUSH1 0x0 KECCAK256 ADD PUSH2 0x1424 DUP2 SLOAD PUSH2 0x1EFF JUMP JUMPDEST SWAP1 SSTORE CALLER PUSH1 0x0 MSTORE MSTORE PUSH1 0x4 PUSH1 0x40 PUSH1 0x0 KECCAK256 ADD PUSH2 0x143D DUP2 SLOAD PUSH2 0x1EFF JUMP JUMPDEST SWAP1 SSTORE CALLER SWAP1 PUSH32 0xB4FED4D84FD49C06522E8199E83F6F3C24EC553D522EE5F4D534A9F5AD46FE98 PUSH1 0x0 DUP1 LOG3 STOP JUMPDEST PUSH4 0x4E487B71 PUSH1 0xE0 SHL PUSH1 0x0 MSTORE PUSH1 0x31 PUSH1 0x4 MSTORE PUSH1 0x24 PUSH1 0x0 REVERT JUMPDEST PUSH4 0x4E487B71 PUSH1 0xE0 SHL PUSH1 0x0 MSTORE PUSH1 0x11 PUSH1 0x4 MSTORE PUSH1 0x24 PUSH1 0x0 REVERT JUMPDEST POP POP SWAP1 SWAP2 POP PUSH2 0x140A JUMP JUMPDEST PUSH1 0x40 MLOAD PUSH3 0x461BCD PUSH1 0xE5 SHL DUP2 MSTORE PUSH1 0x4 DUP2 ADD DUP4 SWAP1 MSTORE PUSH1 0x14 PUSH1 0x24 DUP3 ADD MSTORE PUSH20 0x43726561746F722063616E6E6F74206C65617665 PUSH1 0x60 SHL PUSH1 0x44 DUP3 ADD MSTORE PUSH1 0x64 SWAP1 REVERT JUMPDEST PUSH1 0x64 SWAP1 PUSH1 0x40 MLOAD SWAP1 PUSH3 0x461BCD PUSH1 0xE5 SHL DUP3 MSTORE PUSH1 0x4 DUP3 ADD MSTORE PUSH1 0xC PUSH1 0x24 DUP3 ADD MSTORE PUSH12 0x2737BA10309036B2B6B132B9 PUSH1 0xA1 SHL PUSH1 0x44 DUP3 ADD MSTORE REVERT JUMPDEST CALLVALUE PUSH2 0x2B6 JUMPI PUSH1 0x40 CALLDATASIZE PUSH1 0x3 NOT ADD SLT PUSH2 0x2B6 JUMPI PUSH1 0x4 CALLDATALOAD PUSH8 0xFFFFFFFFFFFFFFFF DUP2 GT PUSH2 0x2B6 JUMPI PUSH2 0x153E SWAP1 CALLDATASIZE SWAP1 PUSH1 0x4 ADD PUSH2 0x1A78 JUMP JUMPDEST PUSH1 0x24 CALLDATALOAD PUSH8 0xFFFFFFFFFFFFFFFF DUP2 GT PUSH2 0x2B6 JUMPI PUSH2 0x155E SWAP1 CALLDATASIZE SWAP1 PUSH1 0x4 ADD PUSH2 0x1A78 JUMP JUMPDEST PUSH1 0x2 SLOAD PUSH1 0x40 MLOAD PUSH4 0x1EB30AEB PUSH1 0xE0 SHL DUP2 MSTORE CALLER PUSH1 0x4 DUP3 ADD MSTORE SWAP2 SWAP3 SWAP2 SWAP1 PUSH1 0x20 SWAP1 DUP3 SWAP1 PUSH1 0x24 SWAP1 DUP3 SWAP1 PUSH1 0x1 PUSH1 0x1 PUSH1 0xA0 SHL SUB AND GAS STATICCALL DUP1 ISZERO PUSH2 0x782 JUMPI PUSH2 0x15A4 SWAP2 PUSH1 0x0 SWAP2 PUSH2 0x19CE JUMPI POP PUSH2 0x1E6B JUMP JUMPDEST DUP1 MLOAD ISZERO PUSH2 0x1999 JUMPI PUSH2 0x15B6 PUSH1 0xB SLOAD PUSH2 0x1EF0 JUMP JUMPDEST SWAP1 DUP2 PUSH1 0xB SSTORE PUSH1 0x40 MLOAD SWAP3 PUSH1 0xE0 DUP5 ADD DUP5 DUP2 LT PUSH8 0xFFFFFFFFFFFFFFFF DUP3 GT OR PUSH2 0x1137 JUMPI PUSH1 0x40 MSTORE DUP3 DUP5 MSTORE PUSH1 0x20 DUP5 ADD SWAP1 DUP3 DUP3 MSTORE PUSH1 0x40 DUP6 ADD MSTORE CALLER PUSH1 0x60 DUP6 ADD MSTORE TIMESTAMP PUSH1 0x80 DUP6 ADD MSTORE PUSH1 0x1 PUSH1 0xA0 DUP6 ADD MSTORE PUSH1 0x1 PUSH1 0xC0 DUP6 ADD MSTORE DUP3 PUSH1 0x0 MSTORE PUSH1 0x7 PUSH1 0x20 MSTORE PUSH1 0x40 PUSH1 0x0 KECCAK256 SWAP1 DUP5 MLOAD DUP3 SSTORE MLOAD DUP1 MLOAD SWAP1 PUSH8 0xFFFFFFFFFFFFFFFF DUP3 GT PUSH2 0x1137 JUMPI DUP2 SWAP1 PUSH2 0x1638 PUSH1 0x1 DUP6 ADD SLOAD PUSH2 0x1AFB JUMP JUMPDEST PUSH1 0x1F DUP2 GT PUSH2 0x1946 JUMPI JUMPDEST POP PUSH1 0x20 SWAP1 PUSH1 0x1F DUP4 GT PUSH1 0x1 EQ PUSH2 0x18D4 JUMPI PUSH1 0x0 SWAP3 PUSH2 0x18C9 JUMPI JUMPDEST POP POP DUP2 PUSH1 0x1 SHL SWAP2 PUSH1 0x0 NOT SWAP1 PUSH1 0x3 SHL SHR NOT AND OR PUSH1 0x1 DUP3 ADD SSTORE JUMPDEST PUSH1 0x40 DUP5 ADD MLOAD SWAP4 DUP5 MLOAD PUSH8 0xFFFFFFFFFFFFFFFF DUP2 GT PUSH2 0x1137 JUMPI PUSH2 0x1694 PUSH1 0x2 DUP5 ADD SLOAD PUSH2 0x1AFB JUMP JUMPDEST SWAP6 PUSH1 0x1F DUP8 GT PUSH2 0x1882 JUMPI JUMPDEST PUSH1 0x20 SWAP7 POP DUP7 SWAP1 PUSH1 0x1F DUP4 GT PUSH1 0x1 EQ PUSH2 0x180D JUMPI SWAP3 DUP3 PUSH1 0x6 SWAP4 PUSH1 0xC0 SWAP4 PUSH2 0x172E SWAP8 SWAP7 PUSH1 0x0 SWAP3 PUSH2 0x1802 JUMPI JUMPDEST POP POP DUP2 PUSH1 0x1 SHL SWAP2 PUSH1 0x0 NOT SWAP1 PUSH1 0x3 SHL SHR NOT AND OR PUSH1 0x2 DUP6 ADD SSTORE JUMPDEST PUSH1 0x3 DUP5 ADD PUSH1 0x1 DUP1 PUSH1 0xA0 SHL SUB PUSH1 0x60 DUP4 ADD MLOAD AND PUSH12 0xFFFFFFFFFFFFFFFFFFFFFFFF PUSH1 0xA0 SHL DUP3 SLOAD AND OR SWAP1 SSTORE PUSH1 0x80 DUP2 ADD MLOAD PUSH1 0x4 DUP6 ADD SSTORE PUSH1 0xA0 DUP2 ADD MLOAD PUSH1 0x5 DUP6 ADD SSTORE ADD MLOAD ISZERO ISZERO SWAP2 ADD SWAP1 PUSH1 0xFF DUP1 NOT DUP4 SLOAD AND SWAP2 ISZERO ISZERO AND OR SWAP1 SSTORE JUMP JUMPDEST DUP2 PUSH1 0x0 MSTORE PUSH1 0x9 DUP4 MSTORE PUSH1 0x40 PUSH1 0x0 KECCAK256 CALLER PUSH1 0x0 MSTORE DUP4 MSTORE PUSH1 0x40 PUSH1 0x0 KECCAK256 PUSH1 0x1 PUSH1 0xFF NOT DUP3 SLOAD AND OR SWAP1 SSTORE DUP2 PUSH1 0x0 MSTORE PUSH1 0x8 DUP4 MSTORE PUSH2 0x1767 CALLER PUSH1 0x40 PUSH1 0x0 KECCAK256 PUSH2 0x1EAE JUMP JUMPDEST CALLER PUSH1 0x0 MSTORE PUSH1 0xA DUP4 MSTORE PUSH2 0x177D DUP3 PUSH1 0x40 PUSH1 0x0 KECCAK256 PUSH2 0x1F0C JUMP JUMPDEST CALLER PUSH1 0x0 MSTORE PUSH1 0x3 DUP4 MSTORE PUSH1 0x4 PUSH1 0x40 PUSH1 0x0 KECCAK256 ADD PUSH2 0x1797 DUP2 SLOAD PUSH2 0x1EF0 JUMP JUMPDEST SWAP1 SSTORE DUP2 PUSH32 0x4DF3410150BC135FB5A7782051351442AAA4DC2B49B9180723C871B74E0A2201 PUSH1 0x40 MLOAD DUP6 DUP2 MSTORE DUP1 PUSH2 0x17D0 CALLER SWAP6 DUP9 DUP4 ADD SWAP1 PUSH2 0x1BDB JUMP JUMPDEST SUB SWAP1 LOG3 PUSH1 0x40 MLOAD SWAP1 CALLER DUP2 PUSH32 0xD873197DFE57397EAB48D3C120C62ED968CAC2A00B06B67AB9B66FC80D63DFD1 PUSH1 0x0 DUP1 LOG3 DUP2 MSTORE RETURN JUMPDEST ADD MLOAD SWAP1 POP DUP11 DUP1 PUSH2 0x16C4 JUMP JUMPDEST SWAP1 PUSH1 0x1F NOT DUP4 AND SWAP2 PUSH1 0x2 DUP7 ADD PUSH1 0x0 MSTORE DUP9 PUSH1 0x0 KECCAK256 SWAP3 PUSH1 0x0 JUMPDEST DUP2 DUP2 LT PUSH2 0x186B JUMPI POP SWAP4 PUSH1 0xC0 SWAP4 PUSH2 0x172E SWAP8 SWAP7 SWAP4 PUSH1 0x1 SWAP4 DUP4 PUSH1 0x6 SWAP9 LT PUSH2 0x1852 JUMPI JUMPDEST POP POP POP DUP2 SHL ADD PUSH1 0x2 DUP6 ADD SSTORE PUSH2 0x16DC JUMP JUMPDEST ADD MLOAD PUSH1 0x0 NOT PUSH1 0xF8 DUP5 PUSH1 0x3 SHL AND SHR NOT AND SWAP1 SSTORE DUP11 DUP1 DUP1 PUSH2 0x1842 JUMP JUMPDEST SWAP3 SWAP4 DUP11 PUSH1 0x1 DUP2 SWAP3 DUP8 DUP7 ADD MLOAD DUP2 SSTORE ADD SWAP6 ADD SWAP4 ADD PUSH2 0x1823 JUMP JUMPDEST PUSH1 0x2 DUP5 ADD PUSH1 0x0 MSTORE PUSH1 0x20 PUSH1 0x0 KECCAK256 PUSH1 0x1F DUP4 ADD PUSH1 0x5 SHR DUP2 ADD PUSH1 0x20 DUP5 LT PUSH2 0x18C2 JUMPI JUMPDEST PUSH1 0x1F DUP10 ADD PUSH1 0x5 SHR DUP3 ADD DUP2 LT PUSH2 0x18B6 JUMPI POP POP PUSH2 0x169E JUMP JUMPDEST PUSH1 0x0 DUP2 SSTORE PUSH1 0x1 ADD PUSH2 0x18A0 JUMP JUMPDEST POP DUP1 PUSH2 0x18A0 JUMP JUMPDEST ADD MLOAD SWAP1 POP DUP7 DUP1 PUSH2 0x1658 JUMP JUMPDEST SWAP3 POP PUSH1 0x1 DUP5 ADD PUSH1 0x0 MSTORE PUSH1 0x20 PUSH1 0x0 KECCAK256 SWAP1 PUSH1 0x0 SWAP4 JUMPDEST PUSH1 0x1F NOT DUP5 AND DUP6 LT PUSH2 0x192B JUMPI PUSH1 0x1 SWAP5 POP DUP4 PUSH1 0x1F NOT DUP2 AND LT PUSH2 0x1912 JUMPI JUMPDEST POP POP POP DUP2 SHL ADD PUSH1 0x1 DUP3 ADD SSTORE PUSH2 0x1670 JUMP JUMPDEST ADD MLOAD PUSH1 0x0 NOT PUSH1 0xF8 DUP5 PUSH1 0x3 SHL AND SHR NOT AND SWAP1 SSTORE DUP7 DUP1 DUP1 PUSH2 0x1902 JUMP JUMPDEST DUP2 DUP2 ADD MLOAD DUP4 SSTORE PUSH1 0x20 SWAP5 DUP6 ADD SWAP5 PUSH1 0x1 SWAP1 SWAP4 ADD SWAP3 SWAP1 SWAP2 ADD SWAP1 PUSH2 0x18E7 JUMP JUMPDEST SWAP1 SWAP2 POP PUSH1 0x1 DUP5 ADD PUSH1 0x0 MSTORE PUSH1 0x20 PUSH1 0x0 KECCAK256 PUSH1 0x1F DUP5 ADD PUSH1 0x5 SHR DUP2 ADD PUSH1 0x20 DUP6 LT PUSH2 0x1992 JUMPI JUMPDEST SWAP1 DUP5 SWAP4 SWAP3 SWAP2 JUMPDEST PUSH1 0x1F DUP4 ADD PUSH1 0x5 SHR DUP3 ADD DUP2 LT PUSH2 0x1983 JUMPI POP POP PUSH2 0x1641 JUMP JUMPDEST PUSH1 0x0 DUP2 SSTORE DUP6 SWAP5 POP PUSH1 0x1 ADD PUSH2 0x196D JUMP JUMPDEST POP DUP1 PUSH2 0x1967 JUMP JUMPDEST PUSH1 0x40 MLOAD PUSH3 0x461BCD PUSH1 0xE5 SHL DUP2 MSTORE PUSH1 0x20 PUSH1 0x4 DUP3 ADD MSTORE PUSH1 0xD PUSH1 0x24 DUP3 ADD MSTORE PUSH13 0x13985B59481C995C5D5A5C9959 PUSH1 0x9A SHL PUSH1 0x44 DUP3 ADD MSTORE PUSH1 0x64 SWAP1 REVERT JUMPDEST PUSH2 0x775 SWAP2 POP PUSH1 0x20 RETURNDATASIZE PUSH1 0x20 GT PUSH2 0x77B JUMPI PUSH2 0x76D DUP2 DUP4 PUSH2 0x1A56 JUMP JUMPDEST CALLVALUE PUSH2 0x2B6 JUMPI PUSH1 0x20 CALLDATASIZE PUSH1 0x3 NOT ADD SLT PUSH2 0x2B6 JUMPI PUSH1 0x4 CALLDATALOAD SWAP1 PUSH4 0xFFFFFFFF PUSH1 0xE0 SHL DUP3 AND DUP1 SWAP3 SUB PUSH2 0x2B6 JUMPI PUSH1 0x20 SWAP2 PUSH4 0x7965DB0B PUSH1 0xE0 SHL DUP2 EQ SWAP1 DUP2 ISZERO PUSH2 0x1A29 JUMPI JUMPDEST POP ISZERO ISZERO DUP2 MSTORE RETURN JUMPDEST PUSH4 0x1FFC9A7 PUSH1 0xE0 SHL EQ SWAP1 POP DUP4 PUSH2 0x1A22 JUMP JUMPDEST PUSH1 0xC0 DUP2 ADD SWAP1 DUP2 LT PUSH8 0xFFFFFFFFFFFFFFFF DUP3 GT OR PUSH2 0x1137 JUMPI PUSH1 0x40 MSTORE JUMP JUMPDEST SWAP1 PUSH1 0x1F DUP1 NOT SWAP2 ADD AND DUP2 ADD SWAP1 DUP2 LT PUSH8 0xFFFFFFFFFFFFFFFF DUP3 GT OR PUSH2 0x1137 JUMPI PUSH1 0x40 MSTORE JUMP JUMPDEST DUP2 PUSH1 0x1F DUP3 ADD SLT ISZERO PUSH2 0x2B6 JUMPI DUP1 CALLDATALOAD SWAP1 PUSH8 0xFFFFFFFFFFFFFFFF DUP3 GT PUSH2 0x1137 JUMPI PUSH1 0x40 MLOAD SWAP3 PUSH2 0x1AAD PUSH1 0x1F DUP5 ADD PUSH1 0x1F NOT AND PUSH1 0x20 ADD DUP6 PUSH2 0x1A56 JUMP JUMPDEST DUP3 DUP5 MSTORE PUSH1 0x20 DUP4 DUP4 ADD ADD GT PUSH2 0x2B6 JUMPI DUP2 PUSH1 0x0 SWAP3 PUSH1 0x20 DUP1 SWAP4 ADD DUP4 DUP7 ADD CALLDATACOPY DUP4 ADD ADD MSTORE SWAP1 JUMP JUMPDEST PUSH1 0x24 CALLDATALOAD SWAP1 PUSH1 0x1 PUSH1 0x1 PUSH1 0xA0 SHL SUB DUP3 AND DUP3 SUB PUSH2 0x2B6 JUMPI JUMP JUMPDEST PUSH1 0x4 CALLDATALOAD SWAP1 PUSH1 0x1 PUSH1 0x1 PUSH1 0xA0 SHL SUB DUP3 AND DUP3 SUB PUSH2 0x2B6 JUMPI JUMP JUMPDEST SWAP1 PUSH1 0x1 DUP3 DUP2 SHR SWAP3 AND DUP1 ISZERO PUSH2 0x1B2B JUMPI JUMPDEST PUSH1 0x20 DUP4 LT EQ PUSH2 0x1B15 JUMPI JUMP JUMPDEST PUSH4 0x4E487B71 PUSH1 0xE0 SHL PUSH1 0x0 MSTORE PUSH1 0x22 PUSH1 0x4 MSTORE PUSH1 0x24 PUSH1 0x0 REVERT JUMPDEST SWAP2 PUSH1 0x7F AND SWAP2 PUSH2 0x1B0A JUMP JUMPDEST SWAP1 PUSH1 0x40 MLOAD SWAP2 DUP3 PUSH1 0x0 DUP3 SLOAD SWAP3 PUSH2 0x1B49 DUP5 PUSH2 0x1AFB JUMP JUMPDEST SWAP1 DUP2 DUP5 MSTORE PUSH1 0x1 SWAP5 DUP6 DUP2 AND SWAP1 DUP2 PUSH1 0x0 EQ PUSH2 0x1BB8 JUMPI POP PUSH1 0x1 EQ PUSH2 0x1B75 JUMPI JUMPDEST POP POP PUSH2 0x1B73 SWAP3 POP SUB DUP4 PUSH2 0x1A56 JUMP JUMPDEST JUMP JUMPDEST SWAP1 SWAP4 SWAP2 POP PUSH1 0x0 MSTORE PUSH1 0x20 SWAP1 DUP2 PUSH1 0x0 KECCAK256 SWAP4 PUSH1 0x0 SWAP2 JUMPDEST DUP2 DUP4 LT PUSH2 0x1BA0 JUMPI POP POP PUSH2 0x1B73 SWAP4 POP DUP3 ADD ADD CODESIZE DUP1 PUSH2 0x1B65 JUMP JUMPDEST DUP6 SLOAD DUP9 DUP5 ADD DUP6 ADD MSTORE SWAP5 DUP6 ADD SWAP5 DUP8 SWAP5 POP SWAP2 DUP4 ADD SWAP2 PUSH2 0x1B88 JUMP JUMPDEST SWAP2 POP POP PUSH2 0x1B73 SWAP5 POP PUSH1 0x20 SWAP3 POP PUSH1 0xFF NOT AND DUP3 DUP5 ADD MSTORE ISZERO ISZERO PUSH1 0x5 SHL DUP3 ADD ADD CODESIZE DUP1 PUSH2 0x1B65 JUMP JUMPDEST SWAP2 SWAP1 DUP3 MLOAD SWAP3 DUP4 DUP3 MSTORE PUSH1 0x0 JUMPDEST DUP5 DUP2 LT PUSH2 0x1C07 JUMPI POP POP DUP3 PUSH1 0x0 PUSH1 0x20 DUP1 SWAP5 SWAP6 DUP5 ADD ADD MSTORE PUSH1 0x1F DUP1 NOT SWAP2 ADD AND ADD ADD SWAP1 JUMP JUMPDEST PUSH1 0x20 DUP2 DUP4 ADD DUP2 ADD MLOAD DUP5 DUP4 ADD DUP3 ADD MSTORE ADD PUSH2 0x1BE6 JUMP JUMPDEST DUP1 SLOAD DUP3 LT ISZERO PUSH2 0x1C33 JUMPI PUSH1 0x0 MSTORE PUSH1 0x20 PUSH1 0x0 KECCAK256 ADD SWAP1 PUSH1 0x0 SWAP1 JUMP JUMPDEST PUSH4 0x4E487B71 PUSH1 0xE0 SHL PUSH1 0x0 MSTORE PUSH1 0x32 PUSH1 0x4 MSTORE PUSH1 0x24 PUSH1 0x0 REVERT JUMPDEST PUSH1 0x20 SWAP1 DUP2 PUSH1 0x40 DUP2 DUP4 ADD SWAP3 DUP3 DUP2 MSTORE DUP6 MLOAD DUP1 SWAP5 MSTORE ADD SWAP4 ADD SWAP2 PUSH1 0x0 JUMPDEST DUP3 DUP2 LT PUSH2 0x1C70 JUMPI POP POP POP POP SWAP1 JUMP JUMPDEST DUP4 MLOAD PUSH1 0x1 PUSH1 0x1 PUSH1 0xA0 SHL SUB AND DUP6 MSTORE SWAP4 DUP2 ADD SWAP4 SWAP3 DUP2 ADD SWAP3 PUSH1 0x1 ADD PUSH2 0x1C62 JUMP JUMPDEST DUP1 PUSH1 0x0 MSTORE PUSH1 0x0 PUSH1 0x20 MSTORE PUSH1 0x40 PUSH1 0x0 KECCAK256 CALLER PUSH1 0x0 MSTORE PUSH1 0x20 MSTORE PUSH1 0xFF PUSH1 0x40 PUSH1 0x0 KECCAK256 SLOAD AND ISZERO PUSH2 0x843 JUMPI POP JUMP JUMPDEST PUSH1 0x1 PUSH1 0x1 PUSH1 0xA0 SHL SUB AND PUSH1 0x0 DUP2 DUP2 MSTORE PUSH32 0xF179AAFCC4FF8137FCA1EF3B9EC4D165F87016BA123E7973FBA770BC55E240E3 PUSH1 0x20 MSTORE PUSH1 0x40 DUP2 KECCAK256 SLOAD SWAP1 SWAP2 SWAP1 PUSH32 0x71F3D55856E4058ED06EE057D79ADA615F65CDF5F9EE88181B914225088F834F SWAP1 PUSH1 0xFF AND PUSH2 0x1D60 JUMPI DUP1 DUP4 MSTORE DUP3 PUSH1 0x20 MSTORE PUSH1 0x40 DUP4 KECCAK256 DUP3 DUP5 MSTORE PUSH1 0x20 MSTORE PUSH1 0x40 DUP4 KECCAK256 PUSH1 0x1 PUSH1 0xFF NOT DUP3 SLOAD AND OR SWAP1 SSTORE PUSH32 0x2F8788117E7EFF1D82E926EC794901D17C78024A50270940304540A733656F0D CALLER SWAP4 DUP1 LOG4 PUSH1 0x1 SWAP1 JUMP JUMPDEST POP POP SWAP1 JUMP JUMPDEST SWAP1 PUSH1 0x0 SWAP2 DUP1 DUP4 MSTORE DUP3 PUSH1 0x20 MSTORE PUSH1 0x40 DUP4 KECCAK256 SWAP2 PUSH1 0x1 DUP1 PUSH1 0xA0 SHL SUB AND SWAP2 DUP3 DUP5 MSTORE PUSH1 0x20 MSTORE PUSH1 0xFF PUSH1 0x40 DUP5 KECCAK256 SLOAD AND ISZERO PUSH1 0x0 EQ PUSH2 0x1D60 JUMPI DUP1 DUP4 MSTORE DUP3 PUSH1 0x20 MSTORE PUSH1 0x40 DUP4 KECCAK256 DUP3 DUP5 MSTORE PUSH1 0x20 MSTORE PUSH1 0x40 DUP4 KECCAK256 PUSH1 0x1 PUSH1 0xFF NOT DUP3 SLOAD AND OR SWAP1 SSTORE PUSH32 0x2F8788117E7EFF1D82E926EC794901D17C78024A50270940304540A733656F0D CALLER SWAP4 DUP1 LOG4 PUSH1 0x1 SWAP1 JUMP JUMPDEST SWAP1 PUSH1 0x0 SWAP2 DUP1 DUP4 MSTORE DUP3 PUSH1 0x20 MSTORE PUSH1 0x40 DUP4 KECCAK256 SWAP2 PUSH1 0x1 DUP1 PUSH1 0xA0 SHL SUB AND SWAP2 DUP3 DUP5 MSTORE PUSH1 0x20 MSTORE PUSH1 0xFF PUSH1 0x40 DUP5 KECCAK256 SLOAD AND PUSH1 0x0 EQ PUSH2 0x1D60 JUMPI DUP1 DUP4 MSTORE DUP3 PUSH1 0x20 MSTORE PUSH1 0x40 DUP4 KECCAK256 DUP3 DUP5 MSTORE PUSH1 0x20 MSTORE PUSH1 0x40 DUP4 KECCAK256 PUSH1 0xFF NOT DUP2 SLOAD AND SWAP1 SSTORE PUSH32 0xF6391F5C32D9C69D2A47EA670B442974B53935D1EDC7FD64EB21E047A839171B CALLER SWAP4 DUP1 LOG4 PUSH1 0x1 SWAP1 JUMP JUMPDEST SWAP1 DUP2 PUSH1 0x20 SWAP2 SUB SLT PUSH2 0x2B6 JUMPI MLOAD DUP1 ISZERO ISZERO DUP2 SUB PUSH2 0x2B6 JUMPI SWAP1 JUMP JUMPDEST ISZERO PUSH2 0x1E72 JUMPI JUMP JUMPDEST PUSH1 0x40 MLOAD PUSH3 0x461BCD PUSH1 0xE5 SHL DUP2 MSTORE PUSH1 0x20 PUSH1 0x4 DUP3 ADD MSTORE PUSH1 0x14 PUSH1 0x24 DUP3 ADD MSTORE PUSH20 0x139BDD081D995C9A599A5959081CDD1D59195B9D PUSH1 0x62 SHL PUSH1 0x44 DUP3 ADD MSTORE PUSH1 0x64 SWAP1 REVERT JUMPDEST SWAP1 DUP2 SLOAD SWAP2 PUSH1 0x1 PUSH1 0x40 SHL DUP4 LT ISZERO PUSH2 0x1137 JUMPI DUP3 PUSH2 0x1ED1 SWAP2 PUSH1 0x1 PUSH2 0x1B73 SWAP6 ADD DUP2 SSTORE PUSH2 0x1C1B JUMP JUMPDEST SWAP1 SWAP2 SWAP1 DUP3 SLOAD SWAP1 PUSH1 0x3 SHL SWAP2 PUSH1 0x1 DUP1 PUSH1 0xA0 SHL SUB DUP1 SWAP2 AND DUP4 SHL SWAP3 SHL NOT AND OR SWAP1 SSTORE JUMP JUMPDEST PUSH1 0x0 NOT DUP2 EQ PUSH2 0x147E JUMPI PUSH1 0x1 ADD SWAP1 JUMP JUMPDEST DUP1 ISZERO PUSH2 0x147E JUMPI PUSH1 0x0 NOT ADD SWAP1 JUMP JUMPDEST SWAP1 DUP2 SLOAD SWAP2 PUSH1 0x1 PUSH1 0x40 SHL DUP4 LT ISZERO PUSH2 0x1137 JUMPI DUP3 PUSH2 0x13CE SWAP2 PUSH1 0x1 PUSH2 0x1B73 SWAP6 ADD DUP2 SSTORE PUSH2 0x1C1B JUMP JUMPDEST PUSH1 0x0 SWAP2 JUMPDEST DUP2 SLOAD SWAP3 DUP4 DUP2 LT ISZERO PUSH2 0x1FCD JUMPI PUSH2 0x1F48 DUP2 DUP5 PUSH2 0x1C1B JUMP JUMPDEST SWAP1 SLOAD PUSH1 0x3 SWAP6 PUSH1 0x1 PUSH1 0x1 PUSH1 0xA0 SHL SUB SWAP3 SWAP1 SWAP2 SWAP1 DUP8 SHL SHR DUP3 AND DUP5 DUP4 AND EQ PUSH2 0x1F7B JUMPI POP POP PUSH2 0x1F74 SWAP2 SWAP3 SWAP4 POP PUSH2 0x1EF0 JUMP JUMPDEST SWAP2 SWAP1 PUSH2 0x1F33 JUMP JUMPDEST SWAP1 SWAP3 POP PUSH1 0x0 NOT SWAP2 DUP3 DUP3 ADD SWAP2 DUP3 GT PUSH2 0x147E JUMPI PUSH2 0x1ED1 DUP5 PUSH2 0x1F9D PUSH2 0x1FAB SWAP5 DUP9 PUSH2 0x1C1B JUMP JUMPDEST SWAP1 SLOAD SWAP1 DUP10 SHL SHR AND SWAP2 DUP7 PUSH2 0x1C1B JUMP JUMPDEST DUP3 SLOAD DUP1 ISZERO PUSH2 0x1468 JUMPI ADD SWAP3 PUSH2 0x1FBF DUP5 DUP5 PUSH2 0x1C1B JUMP JUMPDEST DUP2 SWAP4 SWAP2 SLOAD SWAP3 SHL SHL NOT AND SWAP1 SSTORE SSTORE JUMP JUMPDEST POP POP POP POP JUMP INVALID LOG2 PUSH5 0x6970667358 0x22 SLT KECCAK256 PUSH20 0xA659863C297377D2A50452FA9A36CDC3019B6564 PUSH15 0x5F2DC803DAAB58558F1D64736F6C63 NUMBER STOP ADDMOD EQ STOP CALLER 0x2F DUP8 DUP9 GT PUSH31 0x7EFF1D82E926EC794901D17C78024A50270940304540A733656F0D00000000 "},"methodIdentifiers":{"ADMIN_ROLE()":"75b238fc","DEFAULT_ADMIN_ROLE()":"a217fddf","MODERATOR_ROLE()":"797669c9","communities(uint256)":"e590b56a","communityCounter()":"7a5b730b","communityMembers(uint256,uint256)":"54d00c04","createCommunity(string,string)":"03b28c33","followUser(address)":"a70806f7","followers(address,uint256)":"ebd009d3","following(address,uint256)":"9139cda5","getCommunityMembers(uint256)":"7199ee48","getFollowers(address)":"c2fe2022","getFollowing(address)":"d8236dff","getRoleAdmin(bytes32)":"248a9ca3","getUserCommunities(address)":"6543286f","getUserProfile(address)":"987ee156","grantModeratorRole(address)":"aa232dc2","grantRole(bytes32,address)":"2f2ff15d","hasRole(bytes32,address)":"91d14854","isCommunityMember(uint256,address)":"e95a3905","isFollowing(address,address)":"99ec3a42","joinCommunity(uint256)":"b122a0ef","leaveCommunity(uint256)":"122afc04","renounceRole(bytes32,address)":"36568abe","revokeRole(bytes32,address)":"d547741f","studentRegistry()":"92c16fb5","supportsInterface(bytes4)":"01ffc9a7","totalConnections()":"337d9367","unfollowUser(address)":"f107cfcb","updateProfile(string,bool)":"4520748d","userCommunities(address,uint256)":"dd446001","userProfiles(address)":"332d56d7"}}}}}