{"contracts/features/GovernanceContract.sol":{"GovernanceContract":{"abi":[{"inputs":[{"internalType":"address","name":"_studentRegistry","type":"address"},{"internalType":"address","name":"_reputationContract","type":"address"}],"stateMutability":"nonpayable","type":"constructor"},{"inputs":[],"name":"AccessControlBadConfirmation","type":"error"},{"inputs":[{"internalType":"address","name":"account","type":"address"},{"internalType":"bytes32","name":"neededRole","type":"bytes32"}],"name":"AccessControlUnauthorizedAccount","type":"error"},{"inputs":[],"name":"ReentrancyGuardReentrantCall","type":"error"},{"anonymous":false,"inputs":[{"indexed":true,"internalType":"uint256","name":"proposalId","type":"uint256"},{"indexed":false,"internalType":"string","name":"reason","type":"string"}],"name":"ProposalCancelled","type":"event"},{"anonymous":false,"inputs":[{"indexed":true,"internalType":"uint256","name":"proposalId","type":"uint256"},{"indexed":false,"internalType":"enum GovernanceContract.ProposalType","name":"proposalType","type":"uint8"},{"indexed":false,"internalType":"string","name":"title","type":"string"},{"indexed":true,"internalType":"address","name":"proposer","type":"address"},{"indexed":false,"internalType":"uint256","name":"votingEndsAt","type":"uint256"}],"name":"ProposalCreated","type":"event"},{"anonymous":false,"inputs":[{"indexed":true,"internalType":"uint256","name":"proposalId","type":"uint256"},{"indexed":false,"internalType":"uint256","name":"timestamp","type":"uint256"}],"name":"ProposalExecuted","type":"event"},{"anonymous":false,"inputs":[{"indexed":true,"internalType":"uint256","name":"proposalId","type":"uint256"},{"indexed":false,"internalType":"enum GovernanceContract.ProposalStatus","name":"newStatus","type":"uint8"}],"name":"ProposalStatusChanged","type":"event"},{"anonymous":false,"inputs":[{"indexed":true,"internalType":"bytes32","name":"role","type":"bytes32"},{"indexed":true,"internalType":"bytes32","name":"previousAdminRole","type":"bytes32"},{"indexed":true,"internalType":"bytes32","name":"newAdminRole","type":"bytes32"}],"name":"RoleAdminChanged","type":"event"},{"anonymous":false,"inputs":[{"indexed":true,"internalType":"bytes32","name":"role","type":"bytes32"},{"indexed":true,"internalType":"address","name":"account","type":"address"},{"indexed":true,"internalType":"address","name":"sender","type":"address"}],"name":"RoleGranted","type":"event"},{"anonymous":false,"inputs":[{"indexed":true,"internalType":"bytes32","name":"role","type":"bytes32"},{"indexed":true,"internalType":"address","name":"account","type":"address"},{"indexed":true,"internalType":"address","name":"sender","type":"address"}],"name":"RoleRevoked","type":"event"},{"anonymous":false,"inputs":[{"indexed":true,"internalType":"uint256","name":"proposalId","type":"uint256"},{"indexed":true,"internalType":"address","name":"voter","type":"address"},{"indexed":false,"internalType":"bool","name":"support","type":"bool"},{"indexed":false,"internalType":"uint256","name":"weight","type":"uint256"},{"indexed":false,"internalType":"string","name":"reason","type":"string"}],"name":"VoteCast","type":"event"},{"inputs":[],"name":"ADMIN_ROLE","outputs":[{"internalType":"bytes32","name":"","type":"bytes32"}],"stateMutability":"view","type":"function"},{"inputs":[],"name":"DEFAULT_ADMIN_ROLE","outputs":[{"internalType":"bytes32","name":"","type":"bytes32"}],"stateMutability":"view","type":"function"},{"inputs":[],"name":"EXECUTION_DELAY","outputs":[{"internalType":"uint256","name":"","type":"uint256"}],"stateMutability":"view","type":"function"},{"inputs":[],"name":"PROPOSAL_THRESHOLD","outputs":[{"internalType":"uint256","name":"","type":"uint256"}],"stateMutability":"view","type":"function"},{"inputs":[],"name":"PROPOSER_ROLE","outputs":[{"internalType":"bytes32","name":"","type":"bytes32"}],"stateMutability":"view","type":"function"},{"inputs":[],"name":"QUORUM_PERCENTAGE","outputs":[{"internalType":"uint256","name":"","type":"uint256"}],"stateMutability":"view","type":"function"},{"inputs":[],"name":"VOTING_PERIOD","outputs":[{"internalType":"uint256","name":"","type":"uint256"}],"stateMutability":"view","type":"function"},{"inputs":[{"internalType":"uint256","name":"proposalId","type":"uint256"},{"internalType":"string","name":"reason","type":"string"}],"name":"cancelProposal","outputs":[],"stateMutability":"nonpayable","type":"function"},{"inputs":[{"internalType":"uint256","name":"proposalId","type":"uint256"},{"internalType":"bool","name":"support","type":"bool"},{"internalType":"string","name":"reason","type":"string"}],"name":"castVote","outputs":[],"stateMutability":"nonpayable","type":"function"},{"inputs":[{"internalType":"enum GovernanceContract.ProposalType","name":"proposalType","type":"uint8"},{"internalType":"string","name":"title","type":"string"},{"internalType":"string","name":"description","type":"string"}],"name":"createProposal","outputs":[{"internalType":"uint256","name":"","type":"uint256"}],"stateMutability":"nonpayable","type":"function"},{"inputs":[{"internalType":"uint256","name":"proposalId","type":"uint256"}],"name":"executeProposal","outputs":[],"stateMutability":"nonpayable","type":"function"},{"inputs":[{"internalType":"uint256","name":"proposalId","type":"uint256"}],"name":"finalizeProposal","outputs":[],"stateMutability":"nonpayable","type":"function"},{"inputs":[{"internalType":"uint256","name":"proposalId","type":"uint256"}],"name":"getProposal","outputs":[{"components":[{"internalType":"uint256","name":"id","type":"uint256"},{"internalType":"enum GovernanceContract.ProposalType","name":"proposalType","type":"uint8"},{"internalType":"string","name":"title","type":"string"},{"internalType":"string","name":"description","type":"string"},{"internalType":"address","name":"proposer","type":"address"},{"internalType":"uint256","name":"createdAt","type":"uint256"},{"internalType":"uint256","name":"votingEndsAt","type":"uint256"},{"internalType":"uint256","name":"forVotes","type":"uint256"},{"internalType":"uint256","name":"againstVotes","type":"uint256"},{"internalType":"uint256","name":"abstainVotes","type":"uint256"},{"internalType":"enum GovernanceContract.ProposalStatus","name":"status","type":"uint8"},{"internalType":"uint256","name":"executionDelay","type":"uint256"},{"internalType":"bool","name":"executed","type":"bool"}],"internalType":"struct GovernanceContract.Proposal","name":"","type":"tuple"}],"stateMutability":"view","type":"function"},{"inputs":[{"internalType":"bytes32","name":"role","type":"bytes32"}],"name":"getRoleAdmin","outputs":[{"internalType":"bytes32","name":"","type":"bytes32"}],"stateMutability":"view","type":"function"},{"inputs":[{"internalType":"address","name":"user","type":"address"}],"name":"getUserProposals","outputs":[{"internalType":"uint256[]","name":"","type":"uint256[]"}],"stateMutability":"view","type":"function"},{"inputs":[{"internalType":"uint256","name":"proposalId","type":"uint256"},{"internalType":"address","name":"voter","type":"address"}],"name":"getVote","outputs":[{"components":[{"internalType":"address","name":"voter","type":"address"},{"internalType":"bool","name":"support","type":"bool"},{"internalType":"uint256","name":"weight","type":"uint256"},{"internalType":"uint256","name":"timestamp","type":"uint256"},{"internalType":"string","name":"reason","type":"string"}],"internalType":"struct GovernanceContract.Vote","name":"","type":"tuple"}],"stateMutability":"view","type":"function"},{"inputs":[{"internalType":"uint256","name":"proposalId","type":"uint256"}],"name":"getVotingResults","outputs":[{"internalType":"uint256","name":"forVotes","type":"uint256"},{"internalType":"uint256","name":"againstVotes","type":"uint256"},{"internalType":"uint256","name":"abstainVotes","type":"uint256"}],"stateMutability":"view","type":"function"},{"inputs":[{"internalType":"address","name":"proposer","type":"address"}],"name":"grantProposerRole","outputs":[],"stateMutability":"nonpayable","type":"function"},{"inputs":[{"internalType":"bytes32","name":"role","type":"bytes32"},{"internalType":"address","name":"account","type":"address"}],"name":"grantRole","outputs":[],"stateMutability":"nonpayable","type":"function"},{"inputs":[{"internalType":"uint256","name":"proposalId","type":"uint256"}],"name":"hasReachedQuorum","outputs":[{"internalType":"bool","name":"","type":"bool"}],"stateMutability":"view","type":"function"},{"inputs":[{"internalType":"bytes32","name":"role","type":"bytes32"},{"internalType":"address","name":"account","type":"address"}],"name":"hasRole","outputs":[{"internalType":"bool","name":"","type":"bool"}],"stateMutability":"view","type":"function"},{"inputs":[{"internalType":"uint256","name":"","type":"uint256"},{"internalType":"address","name":"","type":"address"}],"name":"hasVoted","outputs":[{"internalType":"bool","name":"","type":"bool"}],"stateMutability":"view","type":"function"},{"inputs":[],"name":"proposalCounter","outputs":[{"internalType":"uint256","name":"","type":"uint256"}],"stateMutability":"view","type":"function"},{"inputs":[{"internalType":"uint256","name":"","type":"uint256"}],"name":"proposals","outputs":[{"internalType":"uint256","name":"id","type":"uint256"},{"internalType":"enum GovernanceContract.ProposalType","name":"proposalType","type":"uint8"},{"internalType":"string","name":"title","type":"string"},{"internalType":"string","name":"description","type":"string"},{"internalType":"address","name":"proposer","type":"address"},{"internalType":"uint256","name":"createdAt","type":"uint256"},{"internalType":"uint256","name":"votingEndsAt","type":"uint256"},{"internalType":"uint256","name":"forVotes","type":"uint256"},{"internalType":"uint256","name":"againstVotes","type":"uint256"},{"internalType":"uint256","name":"abstainVotes","type":"uint256"},{"internalType":"enum GovernanceContract.ProposalStatus","name":"status","type":"uint8"},{"internalType":"uint256","name":"executionDelay","type":"uint256"},{"internalType":"bool","name":"executed","type":"bool"}],"stateMutability":"view","type":"function"},{"inputs":[{"internalType":"bytes32","name":"role","type":"bytes32"},{"internalType":"address","name":"callerConfirmation","type":"address"}],"name":"renounceRole","outputs":[],"stateMutability":"nonpayable","type":"function"},{"inputs":[],"name":"reputationContract","outputs":[{"internalType":"contract ReputationContract","name":"","type":"address"}],"stateMutability":"view","type":"function"},{"inputs":[{"internalType":"bytes32","name":"role","type":"bytes32"},{"internalType":"address","name":"account","type":"address"}],"name":"revokeRole","outputs":[],"stateMutability":"nonpayable","type":"function"},{"inputs":[],"name":"studentRegistry","outputs":[{"internalType":"contract StudentRegistryContract","name":"","type":"address"}],"stateMutability":"view","type":"function"},{"inputs":[{"internalType":"bytes4","name":"interfaceId","type":"bytes4"}],"name":"supportsInterface","outputs":[{"internalType":"bool","name":"","type":"bool"}],"stateMutability":"view","type":"function"},{"inputs":[],"name":"totalEligibleVoters","outputs":[{"internalType":"uint256","name":"","type":"uint256"}],"stateMutability":"view","type":"function"},{"inputs":[{"internalType":"uint256","name":"count","type":"uint256"}],"name":"updateEligibleVoters","outputs":[],"stateMutability":"nonpayable","type":"function"},{"inputs":[{"internalType":"address","name":"","type":"address"},{"internalType":"uint256","name":"","type":"uint256"}],"name":"userProposals","outputs":[{"internalType":"uint256","name":"","type":"uint256"}],"stateMutability":"view","type":"function"},{"inputs":[{"internalType":"uint256","name":"","type":"uint256"},{"internalType":"address","name":"","type":"address"}],"name":"votes","outputs":[{"internalType":"address","name":"voter","type":"address"},{"internalType":"bool","name":"support","type":"bool"},{"internalType":"uint256","name":"weight","type":"uint256"},{"internalType":"uint256","name":"timestamp","type":"uint256"},{"internalType":"string","name":"reason","type":"string"}],"stateMutability":"view","type":"function"}],"evm":{"bytecode":{"linkReferences":{},"object":"6080346200015357601f620025ea38819003918201601f19168301916001600160401b038311848410176200015857808492604094855283398101031262000153576200005a602062000052836200016e565b92016200016e565b600180556001600160a01b03918216919082156200010e5716908115620000c95760018060a01b0319908160025416176002556003541617600355620000a03362000183565b50620000ac3362000203565b50620000b833620002a5565b506040516122879081620003438239f35b60405162461bcd60e51b815260206004820152601b60248201527f496e76616c69642072657075746174696f6e20636f6e747261637400000000006044820152606490fd5b60405162461bcd60e51b815260206004820152601860248201527f496e76616c69642073747564656e7420726567697374727900000000000000006044820152606490fd5b600080fd5b634e487b7160e01b600052604160045260246000fd5b51906001600160a01b03821682036200015357565b6001600160a01b031660008181527fad3228b676f7d3cd4284a5443f17f1962b36e491b30a40b2405849e597ba5fb5602052604081205490919060ff16620001ff57818052816020526040822081835260205260408220600160ff198254161790553391600080516020620025ca8339815191528180a4600190565b5090565b6001600160a01b031660008181527f7d7ffb7a348e1c6a02869081a26547b49160dd3df72d1d75a570eb9b698292ec60205260408120549091907fa49807205ce4d355092ef5a8a18f56e8913cf4a201fbe287825b095693c217759060ff16620002a057808352826020526040832082845260205260408320600160ff19825416179055600080516020620025ca833981519152339380a4600190565b505090565b6001600160a01b031660008181527f3412d5605ac6cd444957cedb533e5dacad6378b4bc819ebe3652188a665066d560205260408120549091907fb09aa5aeb3702cfd50b6b62bc4532604938f21248a27a1d5ca736082b6819cc19060ff16620002a057808352826020526040832082845260205260408320600160ff19825416179055600080516020620025ca833981519152339380a460019056fe6080604052600436101561001257600080fd5b60003560e01c8063013cf08b14611a5057806301ffc9a7146119fa57806309553424146113785780630c0512e91461135a5780630d61b519146111f6578063107b96d1146111d85780631b31527f14611180578063248a9ca3146111515780632f2ff15d1461111257806336568abe146110cb57806337f135d7146110ad57806343859632146110605780635652077c1461104457806359abab0514610f0a57806362aef6f014610a7257806375b238fc14610a3757806378ef11381461098357806387bc14251461095a5780638f61f4f51461091f57806391d14854146108d257806392c16fb5146108a9578063a217fddf1461088d578063a351f61514610752578063a6c2660314610736578063b1610d7e14610718578063bc3f931f14610629578063c7f758a81461041b578063cd89b2e31461031a578063d0dcdc9f146102f9578063d23254b414610266578063d547741f14610227578063ee8a7c151461020b5763fe0ea3e61461018757600080fd5b34610206576020366003190112610206576102046101a3611d48565b6101ab611da2565b7fb09aa5aeb3702cfd50b6b62bc4532604938f21248a27a1d5ca736082b6819cc160009081526020527f3412d5605ac6cd444957cedb533e5dacad6378b4bc819ebe3652188a665066d6546101ff90611e1c565b611e42565b005b600080fd5b34610206576000366003190112610206576020604051600a8152f35b3461020657604036600319011261020657610204600435610246611d5e565b90806000526000602052610261600160406000200154611e1c565b611f6d565b346102065760403660031901126102065761027f611d5e565b6004356000526005602052604060002060018060a01b038092166000526020526040600020906102f58254926001810154906102c2600360028301549201611beb565b9160ff6040519687968116875260a01c16151560208601526040850152606084015260a0608084015260a0830190611cb1565b0390f35b3461020657602036600319011261020657610312611da2565b600435600955005b34610206576020366003190112610206576004356000526004602052606060406000206040519061034a82611b90565b8054825260ff60018201541661035f81611c91565b602083015261037060028201611beb565b604083015261038160038201611beb565b8383015260018060a01b036004820154166080830152600581015460a0830152600681015460c0830152600781015460e08301908152600882015492610100810193845261018060ff600c600986015495610120850196875282600a820154166103ea81611c91565b610140860152600b810154610160860152015416151591015251915190519060405192835260208301526040820152f35b3461020657602036600319011261020657600061018060405161043d81611b90565b828152826020820152606060408201526060808201528260808201528260a08201528260c08201528260e08201528261010082015282610120820152826101408201528261016082015201526004356000526004602052604060002060ff600c604051926104aa84611b90565b80548452826001820154166104be81611c91565b60208501526104cf60028201611beb565b60408501526104e060038201611beb565b606085015260048101546001600160a01b03166080850152600581015460a0850152600681015460c0850152600781015460e085015260088101546101008501526009810154610120850152600a810154831661053c81611c91565b610140850152600b810154610160850152015416151561018082015260405180916020825280516020830152602081015161057681611c91565b60408301526101806105b261059c60408401516101a060608701526101c0860190611cb1565b6060840151858203601f19016080870152611cb1565b9160018060a01b0360808201511660a085015260a081015160c085015260c081015160e085015260e081015161010085015261010081015161012085015261012081015161014085015261014081015161060b81611c91565b61016085015261016081015182850152015115156101a08301520390f35b3461020657604036600319011261020657610642611d5e565b60405161064e81611bad565b600081526060608060209260008482015260006040820152600083820152015260043560005260058152604060002060018060a01b0380931660005281526102f5604060002091604051926106a284611bad565b8054858116855260ff8386019160a01c1615158152600182015490604086019182526106dc60036002850154946060890195865201611beb565b936080870194855260405197889782895251169087015251151560408601525160608501525160808401525160a08084015260c0830190611cb1565b3461020657600036600319011261020657602060405162093a808152f35b3461020657600036600319011261020657602060405160648152f35b346102065760403660031901126102065760043560243567ffffffffffffffff811161020657610786903690600401611cf1565b908060005260209160048352604060002060018060a01b036004820154163314801561084b575b156108155792600a7fc7c129e53e59dadfa16305619e80c7519f1f6912c10915359fd75b56bcecdd7b939401600581546107f5600160ff83166107ef81611c91565b146120ad565b60ff1916179055610810604051928284938452830190611cb1565b0390a2005b60405162461bcd60e51b815260048101859052600e60248201526d139bdd08185d5d1a1bdc9a5e995960921b6044820152606490fd5b507fa49807205ce4d355092ef5a8a18f56e8913cf4a201fbe287825b095693c2177560005260008452604060002033600052845260ff604060002054166107ad565b3461020657600036600319011261020657602060405160008152f35b34610206576000366003190112610206576002546040516001600160a01b039091168152602090f35b34610206576040366003190112610206576108eb611d5e565b600435600052600060205260406000209060018060a01b0316600052602052602060ff604060002054166040519015158152f35b346102065760003660031901126102065760206040517fb09aa5aeb3702cfd50b6b62bc4532604938f21248a27a1d5ca736082b6819cc18152f35b34610206576000366003190112610206576003546040516001600160a01b039091168152602090f35b3461020657602080600319360112610206576001600160a01b036109a5611d48565b1660005260078152604060002060405190818382549182815201908192600052846000209060005b86828210610a235786866109e382880383611bc9565b604051928392818401908285525180915260408401929160005b828110610a0c57505050500390f35b8351855286955093810193928101926001016109fd565b8354855290930192600192830192016109cd565b346102065760003660031901126102065760206040517fa49807205ce4d355092ef5a8a18f56e8913cf4a201fbe287825b095693c217758152f35b3461020657606036600319011261020657602480356004358115158083036102065767ffffffffffffffff9360443585811161020657610ab6903690600401611cf1565b600254604051631eb30aeb60e01b815233600482015291956001600160a01b03936020939092849082908590829089165afa8015610e6557610b0091600091610edd575b50611ffa565b856000526004835260406000209160ff600a8401541690610b2082611c91565b610b2d60018093146120ad565b6006840154421015610ea4578760005260068552604060002033600052855260ff60406000205416610e71578060c0876003541660405193848092631d699f5760e21b82523360048301525afa8015610e65578a92600091610e37575b505183906113888110610def57505060036005975b8a60405191610bad83611bad565b3383528983018c815260408401918c835260608501934285526080860198895260005260058c526040600020336000528c52604060002094511684549160ff60a01b9051151560a01b16916affffffffffffffffffffff60a81b161717835551868301555160028201550191519081519b8c11610ddb57508a610c308354611b56565b601f8111610d90575b50508590601f8c11600114610d0a579a80917f63453ebf8e1aa432b8d77257d489f75c1a106cdbd568c0e0c63547d20fc91fa89a9b9c600092610cff575b5050600019600383901b1c191690831b1790555b8760005260068452604060002033600052845260406000209060ff19825416179055600014610cea57600701610cc28382546120a0565b90555b6040519283528201526060604082015280610ce533956060830190611cb1565b0390a3005b600801610cf88382546120a0565b9055610cc5565b015190508c80610c77565b90601f198c169183600052876000209260005b818110610d7b5750918593918e7f63453ebf8e1aa432b8d77257d489f75c1a106cdbd568c0e0c63547d20fc91fa89d9e9f9410610d62575b505050811b019055610c8b565b015160001960f88460031b161c191690558c8080610d55565b82840151855593860193928901928901610d1d565b83600052876000209088601f840160051c83019310610dd1575b601f0160051c019084905b828110610dc557508c9150610c39565b60008155018490610db5565b9091508190610daa565b634e487b7160e01b60009081526041600452fd5b6107d08110610e045750506003600497610b9f565b6103e88110610e1857505060038097610b9f565b6101f4909891981015610e2e575b600390610b9f565b60029750610e26565b610e58915060c03d8111610e5e575b610e508183611bc9565b81019061203d565b8c610b8a565b503d610e46565b6040513d6000823e3d90fd5b84600d6064926040519262461bcd60e51b845260048401528201526c105b1c9958591e481d9bdd1959609a1b6044820152fd5b8460136064926040519262461bcd60e51b8452600484015282015272159bdd1a5b99c81c195c9a5bd908195b991959606a1b6044820152fd5b610efd9150853d8711610f03575b610ef58183611bc9565b810190611fe2565b8a610afa565b503d610eeb565b346102065760203660031901126102065760043560005260046020526110086040600020611000604051610f3d81611b90565b8254815260ff600184015416610f5281611c91565b6020820152610f6360028401611beb565b6040820152610f7460038401611beb565b606082015260018060a01b036004840154166080820152600583015460a0820152600683015460c0820152600783015460e08201908152600884015491610100810192835261018060ff600c600988015497610120850198895282600a82015416610fde81611c91565b610140860152600b8101546101608601520154161515910152519051906120a0565b9051906120a0565b600954600a810290808204600a149015171561102e576020916064604051920411158152f35b634e487b7160e01b600052601160045260246000fd5b34610206576020366003190112610206576102046004356120ef565b3461020657604036600319011261020657611079611d5e565b600435600052600660205260406000209060018060a01b0316600052602052602060ff604060002054166040519015158152f35b346102065760003660031901126102065760206040516202a3008152f35b34610206576040366003190112610206576110e4611d5e565b336001600160a01b038216036111005761020490600435611f6d565b60405163334bd91960e11b8152600490fd5b3461020657604036600319011261020657610204600435611131611d5e565b9080600052600060205261114c600160406000200154611e1c565b611ef4565b346102065760203660031901126102065760043560005260006020526020600160406000200154604051908152f35b3461020657604036600319011261020657611199611d48565b6001600160a01b0316600090815260076020526040902080546024359190821015610206576020916111ca91611d74565b90546040519160031b1c8152f35b34610206576000366003190112610206576020600954604051908152f35b34610206576020806003193601126102065760043590611214611da2565b81600052600481526040600020600a8101908154600260ff821661123781611c91565b0361131f57600c820180549260ff84166112e75780600b600661125f930154910154906120a0565b42106112a25760ff1992831660011790551660041790556040514281527ff758fc91e01b00ea6b4a6138756f7f28e021f9bf21db6dbf8c36c88eb737257a9190a2005b60405162461bcd60e51b815260048101869052601760248201527f457865637574696f6e2064656c6179206e6f74206d65740000000000000000006044820152606490fd5b60405162461bcd60e51b815260048101879052601060248201526f105b1c9958591e48195e1958dd5d195960821b6044820152606490fd5b60405162461bcd60e51b8152600481018590526013602482015272141c9bdc1bdcd85b081b9bdd081c185cdcd959606a1b6044820152606490fd5b34610206576000366003190112610206576020600854604051908152f35b3461020657606036600319011261020657600660043510156102065760243567ffffffffffffffff8111610206576113b4903690600401611cf1565b60443567ffffffffffffffff8111610206576113d4903690600401611cf1565b600254604051631eb30aeb60e01b815233600482015290602090829060249082906001600160a01b03165afa8015610e6557611417916000916119db5750611ffa565b600354604051631d699f5760e21b81523360048201529060c090829060249082906001600160a01b03165afa8015610e65576064916000916119bd575b50511061197857815115611942578051156119065760085490600019821461102e576001820160085562093a804201421161102e576040519061149682611b90565b6001830182526114a7600435611c91565b600435602083015283604083015260608201523360808201524260a082015262093a80420160c0820152600060e08201526000610100820152600061012082015260016101408201526202a300610160820152600061018082015260018201600052600460205260406000208151815560018101602083015161152981611c91565b61153281611c91565b60ff80198354169116179055604082015180519067ffffffffffffffff82116117585781906115646002850154611b56565b601f81116118b3575b50602090601f831160011461184157600092611836575b50508160011b916000199060031b1c19161760028201555b606082015180519067ffffffffffffffff8211611758576115c06003840154611b56565b601f81116117ef575b50602090601f83116001146117795791806101809492600c9460009261176e575b50508160011b916000199060031b1c19161760038201555b6004810160018060a01b036080860151166bffffffffffffffffffffffff60a01b82541617905560a0840151600582015560c0840151600682015560e0840151600782015561010084015160088201556101208401516009820155600a810161014085015161167081611c91565b61167981611c91565b60ff80198354169116179055610160840151600b82015501910151151560ff801983541691161790553360005260076020526040600020918254926801000000000000000084101561175857836116d7916001602096018155611d74565b81549060031b9060018501821b91600019901b191617905561171660405191611701600435611c91565b60043583526060858401526060830190611cb1565b62093a80420160408301527f8defab9ee71e899835ffddf06ccc008a3c1c0ab51c88fbc0ff7c3f3eae179f6a33928060018601930390a3600160405191018152f35b634e487b7160e01b600052604160045260246000fd5b0151905088806115ea565b906003840160005260206000209160005b601f19851681106117d75750926101809492600192600c9583601f198116106117be575b505050811b016003820155611602565b015160001960f88460031b161c191690558880806117ae565b9192602060018192868501518155019401920161178a565b600384016000526020600020601f840160051c81016020851061182f575b601f830160051c820181106118235750506115c9565b6000815560010161180d565b508061180d565b015190508680611584565b9250600284016000526020600020906000935b601f1984168510611898576001945083601f1981161061187f575b505050811b01600282015561159c565b015160001960f88460031b161c1916905586808061186f565b81810151835560209485019460019093019290910190611854565b909150600284016000526020600020601f840160051c8101602085106118ff575b90849392915b601f830160051c820181106118f057505061156d565b600081558594506001016118da565b50806118d4565b60405162461bcd60e51b815260206004820152601460248201527311195cd8dc9a5c1d1a5bdb881c995c5d5a5c995960621b6044820152606490fd5b60405162461bcd60e51b815260206004820152600e60248201526d151a5d1b19481c995c5d5a5c995960921b6044820152606490fd5b60405162461bcd60e51b815260206004820152601760248201527f496e73756666696369656e742072657075746174696f6e0000000000000000006044820152606490fd5b6119d5915060c03d8111610e5e57610e508183611bc9565b84611454565b6119f4915060203d602011610f0357610ef58183611bc9565b84610afa565b346102065760203660031901126102065760043563ffffffff60e01b811680910361020657602090637965db0b60e01b8114908115611a3f575b506040519015158152f35b6301ffc9a760e01b14905082611a34565b3461020657602036600319011261020657600435600052600460205260406000208054600182015460ff169160028101611a8990611beb565b611a9560038301611beb565b91600160a01b6001900360048201541692600582015460068301546007840154600885015491600986015493600a87015460ff1695600b88015497600c015460ff16986040519c8d9c8d52611ae981611c91565b60208d01528b6101a06040819201528c01611b0391611cb1565b8b810360608d0152611b1491611cb1565b9860808b015260a08a015260c089015260e0880152610100870152610120860152611b3e81611c91565b61014085015261016084015215156101808301520390f35b90600182811c92168015611b86575b6020831014611b7057565b634e487b7160e01b600052602260045260246000fd5b91607f1691611b65565b6101a0810190811067ffffffffffffffff82111761175857604052565b60a0810190811067ffffffffffffffff82111761175857604052565b90601f8019910116810190811067ffffffffffffffff82111761175857604052565b9060405191826000825492611bff84611b56565b908184526001948581169081600014611c6e5750600114611c2b575b5050611c2992500383611bc9565b565b9093915060005260209081600020936000915b818310611c56575050611c2993508201013880611c1b565b85548884018501529485019487945091830191611c3e565b915050611c2994506020925060ff191682840152151560051b8201013880611c1b565b60061115611c9b57565b634e487b7160e01b600052602160045260246000fd5b919082519283825260005b848110611cdd575050826000602080949584010152601f8019910116010190565b602081830181015184830182015201611cbc565b81601f820112156102065780359067ffffffffffffffff82116117585760405192611d26601f8401601f191660200185611bc9565b8284526020838301011161020657816000926020809301838601378301015290565b600435906001600160a01b038216820361020657565b602435906001600160a01b038216820361020657565b8054821015611d8c5760005260206000200190600090565b634e487b7160e01b600052603260045260246000fd5b3360009081527f7d7ffb7a348e1c6a02869081a26547b49160dd3df72d1d75a570eb9b698292ec60205260409020547fa49807205ce4d355092ef5a8a18f56e8913cf4a201fbe287825b095693c217759060ff1615611dfe5750565b6044906040519063e2517d3f60e01b82523360048301526024820152fd5b80600052600060205260406000203360005260205260ff6040600020541615611dfe5750565b6001600160a01b031660008181527f3412d5605ac6cd444957cedb533e5dacad6378b4bc819ebe3652188a665066d560205260408120549091907fb09aa5aeb3702cfd50b6b62bc4532604938f21248a27a1d5ca736082b6819cc19060ff16611eef57808352826020526040832082845260205260408320600160ff198254161790557f2f8788117e7eff1d82e926ec794901d17c78024a50270940304540a733656f0d339380a4600190565b505090565b9060009180835282602052604083209160018060a01b03169182845260205260ff60408420541615600014611eef57808352826020526040832082845260205260408320600160ff198254161790557f2f8788117e7eff1d82e926ec794901d17c78024a50270940304540a733656f0d339380a4600190565b9060009180835282602052604083209160018060a01b03169182845260205260ff604084205416600014611eef5780835282602052604083208284526020526040832060ff1981541690557ff6391f5c32d9c69d2a47ea670b442974b53935d1edc7fd64eb21e047a839171b339380a4600190565b90816020910312610206575180151581036102065790565b1561200157565b60405162461bcd60e51b8152602060048201526014602482015273139bdd081d995c9a599a5959081cdd1d59195b9d60621b6044820152606490fd5b908160c0910312610206576040519060c082019082821067ffffffffffffffff8311176117585760a0916040528051835260208101516020840152604081015160408401526060810151606084015260808101516080840152015160a082015290565b9190820180921161102e57565b156120b457565b60405162461bcd60e51b815260206004820152601360248201527250726f706f73616c206e6f742061637469766560681b6044820152606490fd5b8060005260046020526040600020600a8101908154612116600160ff83166107ef81611c91565b6006820154421061221557600782015490612145600884015493600961213c86866120a0565b910154906120a0565b600954600a810290808204600a149015171561102e5760649004116121db575011156121a357600260ff198254161790557f3346abf262ac5179e9052765fb72484e0baab1f356f08442bb7a3054147631de602060405160028152a2565b600360ff198254161790557f3346abf262ac5179e9052765fb72484e0baab1f356f08442bb7a3054147631de602060405160038152a2565b90506003915060ff19161790557f3346abf262ac5179e9052765fb72484e0baab1f356f08442bb7a3054147631de602060405160038152a2565b60405162461bcd60e51b8152602060048201526014602482015273566f74696e67207374696c6c206f6e676f696e6760601b6044820152606490fdfea264697066735822122070e2dc70413f2acd93b1aac227284093b909ce7d3a1b05d2d9c3e7e64650381064736f6c634300081400332f8788117e7eff1d82e926ec794901d17c78024a50270940304540a733656f0d","opcodes":"PUSH1 0x80 CALLVALUE PUSH3 0x153 JUMPI PUSH1 0x1F PUSH3 0x25EA CODESIZE DUP2 SWAP1 SUB SWAP2 DUP3 ADD PUSH1 0x1F NOT AND DUP4 ADD SWAP2 PUSH1 0x1 PUSH1 0x1 PUSH1 0x40 SHL SUB DUP4 GT DUP5 DUP5 LT OR PUSH3 0x158 JUMPI DUP1 DUP5 SWAP3 PUSH1 0x40 SWAP5 DUP6 MSTORE DUP4 CODECOPY DUP2 ADD SUB SLT PUSH3 0x153 JUMPI PUSH3 0x5A PUSH1 0x20 PUSH3 0x52 DUP4 PUSH3 0x16E JUMP JUMPDEST SWAP3 ADD PUSH3 0x16E JUMP JUMPDEST PUSH1 0x1 DUP1 SSTORE PUSH1 0x1 PUSH1 0x1 PUSH1 0xA0 SHL SUB SWAP2 DUP3 AND SWAP2 SWAP1 DUP3 ISZERO PUSH3 0x10E JUMPI AND SWAP1 DUP2 ISZERO PUSH3 0xC9 JUMPI PUSH1 0x1 DUP1 PUSH1 0xA0 SHL SUB NOT SWAP1 DUP2 PUSH1 0x2 SLOAD AND OR PUSH1 0x2 SSTORE PUSH1 0x3 SLOAD AND OR PUSH1 0x3 SSTORE PUSH3 0xA0 CALLER PUSH3 0x183 JUMP JUMPDEST POP PUSH3 0xAC CALLER PUSH3 0x203 JUMP JUMPDEST POP PUSH3 0xB8 CALLER PUSH3 0x2A5 JUMP JUMPDEST POP PUSH1 0x40 MLOAD PUSH2 0x2287 SWAP1 DUP2 PUSH3 0x343 DUP3 CODECOPY RETURN JUMPDEST PUSH1 0x40 MLOAD PUSH3 0x461BCD PUSH1 0xE5 SHL DUP2 MSTORE PUSH1 0x20 PUSH1 0x4 DUP3 ADD MSTORE PUSH1 0x1B PUSH1 0x24 DUP3 ADD MSTORE PUSH32 0x496E76616C69642072657075746174696F6E20636F6E74726163740000000000 PUSH1 0x44 DUP3 ADD MSTORE PUSH1 0x64 SWAP1 REVERT JUMPDEST PUSH1 0x40 MLOAD PUSH3 0x461BCD PUSH1 0xE5 SHL DUP2 MSTORE PUSH1 0x20 PUSH1 0x4 DUP3 ADD MSTORE PUSH1 0x18 PUSH1 0x24 DUP3 ADD MSTORE PUSH32 0x496E76616C69642073747564656E742072656769737472790000000000000000 PUSH1 0x44 DUP3 ADD MSTORE PUSH1 0x64 SWAP1 REVERT JUMPDEST PUSH1 0x0 DUP1 REVERT JUMPDEST PUSH4 0x4E487B71 PUSH1 0xE0 SHL PUSH1 0x0 MSTORE PUSH1 0x41 PUSH1 0x4 MSTORE PUSH1 0x24 PUSH1 0x0 REVERT JUMPDEST MLOAD SWAP1 PUSH1 0x1 PUSH1 0x1 PUSH1 0xA0 SHL SUB DUP3 AND DUP3 SUB PUSH3 0x153 JUMPI JUMP JUMPDEST PUSH1 0x1 PUSH1 0x1 PUSH1 0xA0 SHL SUB AND PUSH1 0x0 DUP2 DUP2 MSTORE PUSH32 0xAD3228B676F7D3CD4284A5443F17F1962B36E491B30A40B2405849E597BA5FB5 PUSH1 0x20 MSTORE PUSH1 0x40 DUP2 KECCAK256 SLOAD SWAP1 SWAP2 SWAP1 PUSH1 0xFF AND PUSH3 0x1FF JUMPI DUP2 DUP1 MSTORE DUP2 PUSH1 0x20 MSTORE PUSH1 0x40 DUP3 KECCAK256 DUP2 DUP4 MSTORE PUSH1 0x20 MSTORE PUSH1 0x40 DUP3 KECCAK256 PUSH1 0x1 PUSH1 0xFF NOT DUP3 SLOAD AND OR SWAP1 SSTORE CALLER SWAP2 PUSH1 0x0 DUP1 MLOAD PUSH1 0x20 PUSH3 0x25CA DUP4 CODECOPY DUP2 MLOAD SWAP2 MSTORE DUP2 DUP1 LOG4 PUSH1 0x1 SWAP1 JUMP JUMPDEST POP SWAP1 JUMP JUMPDEST PUSH1 0x1 PUSH1 0x1 PUSH1 0xA0 SHL SUB AND PUSH1 0x0 DUP2 DUP2 MSTORE PUSH32 0x7D7FFB7A348E1C6A02869081A26547B49160DD3DF72D1D75A570EB9B698292EC PUSH1 0x20 MSTORE PUSH1 0x40 DUP2 KECCAK256 SLOAD SWAP1 SWAP2 SWAP1 PUSH32 0xA49807205CE4D355092EF5A8A18F56E8913CF4A201FBE287825B095693C21775 SWAP1 PUSH1 0xFF AND PUSH3 0x2A0 JUMPI DUP1 DUP4 MSTORE DUP3 PUSH1 0x20 MSTORE PUSH1 0x40 DUP4 KECCAK256 DUP3 DUP5 MSTORE PUSH1 0x20 MSTORE PUSH1 0x40 DUP4 KECCAK256 PUSH1 0x1 PUSH1 0xFF NOT DUP3 SLOAD AND OR SWAP1 SSTORE PUSH1 0x0 DUP1 MLOAD PUSH1 0x20 PUSH3 0x25CA DUP4 CODECOPY DUP2 MLOAD SWAP2 MSTORE CALLER SWAP4 DUP1 LOG4 PUSH1 0x1 SWAP1 JUMP JUMPDEST POP POP SWAP1 JUMP JUMPDEST PUSH1 0x1 PUSH1 0x1 PUSH1 0xA0 SHL SUB AND PUSH1 0x0 DUP2 DUP2 MSTORE PUSH32 0x3412D5605AC6CD444957CEDB533E5DACAD6378B4BC819EBE3652188A665066D5 PUSH1 0x20 MSTORE PUSH1 0x40 DUP2 KECCAK256 SLOAD SWAP1 SWAP2 SWAP1 PUSH32 0xB09AA5AEB3702CFD50B6B62BC4532604938F21248A27A1D5CA736082B6819CC1 SWAP1 PUSH1 0xFF AND PUSH3 0x2A0 JUMPI DUP1 DUP4 MSTORE DUP3 PUSH1 0x20 MSTORE PUSH1 0x40 DUP4 KECCAK256 DUP3 DUP5 MSTORE PUSH1 0x20 MSTORE PUSH1 0x40 DUP4 KECCAK256 PUSH1 0x1 PUSH1 0xFF NOT DUP3 SLOAD AND OR SWAP1 SSTORE PUSH1 0x0 DUP1 MLOAD PUSH1 0x20 PUSH3 0x25CA DUP4 CODECOPY DUP2 MLOAD SWAP2 MSTORE CALLER SWAP4 DUP1 LOG4 PUSH1 0x1 SWAP1 JUMP INVALID PUSH1 0x80 PUSH1 0x40 MSTORE PUSH1 0x4 CALLDATASIZE LT ISZERO PUSH2 0x12 JUMPI PUSH1 0x0 DUP1 REVERT JUMPDEST PUSH1 0x0 CALLDATALOAD PUSH1 0xE0 SHR DUP1 PUSH4 0x13CF08B EQ PUSH2 0x1A50 JUMPI DUP1 PUSH4 0x1FFC9A7 EQ PUSH2 0x19FA JUMPI DUP1 PUSH4 0x9553424 EQ PUSH2 0x1378 JUMPI DUP1 PUSH4 0xC0512E9 EQ PUSH2 0x135A JUMPI DUP1 PUSH4 0xD61B519 EQ PUSH2 0x11F6 JUMPI DUP1 PUSH4 0x107B96D1 EQ PUSH2 0x11D8 JUMPI DUP1 PUSH4 0x1B31527F EQ PUSH2 0x1180 JUMPI DUP1 PUSH4 0x248A9CA3 EQ PUSH2 0x1151 JUMPI DUP1 PUSH4 0x2F2FF15D EQ PUSH2 0x1112 JUMPI DUP1 PUSH4 0x36568ABE EQ PUSH2 0x10CB JUMPI DUP1 PUSH4 0x37F135D7 EQ PUSH2 0x10AD JUMPI DUP1 PUSH4 0x43859632 EQ PUSH2 0x1060 JUMPI DUP1 PUSH4 0x5652077C EQ PUSH2 0x1044 JUMPI DUP1 PUSH4 0x59ABAB05 EQ PUSH2 0xF0A JUMPI DUP1 PUSH4 0x62AEF6F0 EQ PUSH2 0xA72 JUMPI DUP1 PUSH4 0x75B238FC EQ PUSH2 0xA37 JUMPI DUP1 PUSH4 0x78EF1138 EQ PUSH2 0x983 JUMPI DUP1 PUSH4 0x87BC1425 EQ PUSH2 0x95A JUMPI DUP1 PUSH4 0x8F61F4F5 EQ PUSH2 0x91F JUMPI DUP1 PUSH4 0x91D14854 EQ PUSH2 0x8D2 JUMPI DUP1 PUSH4 0x92C16FB5 EQ PUSH2 0x8A9 JUMPI DUP1 PUSH4 0xA217FDDF EQ PUSH2 0x88D JUMPI DUP1 PUSH4 0xA351F615 EQ PUSH2 0x752 JUMPI DUP1 PUSH4 0xA6C26603 EQ PUSH2 0x736 JUMPI DUP1 PUSH4 0xB1610D7E EQ PUSH2 0x718 JUMPI DUP1 PUSH4 0xBC3F931F EQ PUSH2 0x629 JUMPI DUP1 PUSH4 0xC7F758A8 EQ PUSH2 0x41B JUMPI DUP1 PUSH4 0xCD89B2E3 EQ PUSH2 0x31A JUMPI DUP1 PUSH4 0xD0DCDC9F EQ PUSH2 0x2F9 JUMPI DUP1 PUSH4 0xD23254B4 EQ PUSH2 0x266 JUMPI DUP1 PUSH4 0xD547741F EQ PUSH2 0x227 JUMPI DUP1 PUSH4 0xEE8A7C15 EQ PUSH2 0x20B JUMPI PUSH4 0xFE0EA3E6 EQ PUSH2 0x187 JUMPI PUSH1 0x0 DUP1 REVERT JUMPDEST CALLVALUE PUSH2 0x206 JUMPI PUSH1 0x20 CALLDATASIZE PUSH1 0x3 NOT ADD SLT PUSH2 0x206 JUMPI PUSH2 0x204 PUSH2 0x1A3 PUSH2 0x1D48 JUMP JUMPDEST PUSH2 0x1AB PUSH2 0x1DA2 JUMP JUMPDEST PUSH32 0xB09AA5AEB3702CFD50B6B62BC4532604938F21248A27A1D5CA736082B6819CC1 PUSH1 0x0 SWAP1 DUP2 MSTORE PUSH1 0x20 MSTORE PUSH32 0x3412D5605AC6CD444957CEDB533E5DACAD6378B4BC819EBE3652188A665066D6 SLOAD PUSH2 0x1FF SWAP1 PUSH2 0x1E1C JUMP JUMPDEST PUSH2 0x1E42 JUMP JUMPDEST STOP JUMPDEST PUSH1 0x0 DUP1 REVERT JUMPDEST CALLVALUE PUSH2 0x206 JUMPI PUSH1 0x0 CALLDATASIZE PUSH1 0x3 NOT ADD SLT PUSH2 0x206 JUMPI PUSH1 0x20 PUSH1 0x40 MLOAD PUSH1 0xA DUP2 MSTORE RETURN JUMPDEST CALLVALUE PUSH2 0x206 JUMPI PUSH1 0x40 CALLDATASIZE PUSH1 0x3 NOT ADD SLT PUSH2 0x206 JUMPI PUSH2 0x204 PUSH1 0x4 CALLDATALOAD PUSH2 0x246 PUSH2 0x1D5E JUMP JUMPDEST SWAP1 DUP1 PUSH1 0x0 MSTORE PUSH1 0x0 PUSH1 0x20 MSTORE PUSH2 0x261 PUSH1 0x1 PUSH1 0x40 PUSH1 0x0 KECCAK256 ADD SLOAD PUSH2 0x1E1C JUMP JUMPDEST PUSH2 0x1F6D JUMP JUMPDEST CALLVALUE PUSH2 0x206 JUMPI PUSH1 0x40 CALLDATASIZE PUSH1 0x3 NOT ADD SLT PUSH2 0x206 JUMPI PUSH2 0x27F PUSH2 0x1D5E JUMP JUMPDEST PUSH1 0x4 CALLDATALOAD PUSH1 0x0 MSTORE PUSH1 0x5 PUSH1 0x20 MSTORE PUSH1 0x40 PUSH1 0x0 KECCAK256 PUSH1 0x1 DUP1 PUSH1 0xA0 SHL SUB DUP1 SWAP3 AND PUSH1 0x0 MSTORE PUSH1 0x20 MSTORE PUSH1 0x40 PUSH1 0x0 KECCAK256 SWAP1 PUSH2 0x2F5 DUP3 SLOAD SWAP3 PUSH1 0x1 DUP2 ADD SLOAD SWAP1 PUSH2 0x2C2 PUSH1 0x3 PUSH1 0x2 DUP4 ADD SLOAD SWAP3 ADD PUSH2 0x1BEB JUMP JUMPDEST SWAP2 PUSH1 0xFF PUSH1 0x40 MLOAD SWAP7 DUP8 SWAP7 DUP2 AND DUP8 MSTORE PUSH1 0xA0 SHR AND ISZERO ISZERO PUSH1 0x20 DUP7 ADD MSTORE PUSH1 0x40 DUP6 ADD MSTORE PUSH1 0x60 DUP5 ADD MSTORE PUSH1 0xA0 PUSH1 0x80 DUP5 ADD MSTORE PUSH1 0xA0 DUP4 ADD SWAP1 PUSH2 0x1CB1 JUMP JUMPDEST SUB SWAP1 RETURN JUMPDEST CALLVALUE PUSH2 0x206 JUMPI PUSH1 0x20 CALLDATASIZE PUSH1 0x3 NOT ADD SLT PUSH2 0x206 JUMPI PUSH2 0x312 PUSH2 0x1DA2 JUMP JUMPDEST PUSH1 0x4 CALLDATALOAD PUSH1 0x9 SSTORE STOP JUMPDEST CALLVALUE PUSH2 0x206 JUMPI PUSH1 0x20 CALLDATASIZE PUSH1 0x3 NOT ADD SLT PUSH2 0x206 JUMPI PUSH1 0x4 CALLDATALOAD PUSH1 0x0 MSTORE PUSH1 0x4 PUSH1 0x20 MSTORE PUSH1 0x60 PUSH1 0x40 PUSH1 0x0 KECCAK256 PUSH1 0x40 MLOAD SWAP1 PUSH2 0x34A DUP3 PUSH2 0x1B90 JUMP JUMPDEST DUP1 SLOAD DUP3 MSTORE PUSH1 0xFF PUSH1 0x1 DUP3 ADD SLOAD AND PUSH2 0x35F DUP2 PUSH2 0x1C91 JUMP JUMPDEST PUSH1 0x20 DUP4 ADD MSTORE PUSH2 0x370 PUSH1 0x2 DUP3 ADD PUSH2 0x1BEB JUMP JUMPDEST PUSH1 0x40 DUP4 ADD MSTORE PUSH2 0x381 PUSH1 0x3 DUP3 ADD PUSH2 0x1BEB JUMP JUMPDEST DUP4 DUP4 ADD MSTORE PUSH1 0x1 DUP1 PUSH1 0xA0 SHL SUB PUSH1 0x4 DUP3 ADD SLOAD AND PUSH1 0x80 DUP4 ADD MSTORE PUSH1 0x5 DUP2 ADD SLOAD PUSH1 0xA0 DUP4 ADD MSTORE PUSH1 0x6 DUP2 ADD SLOAD PUSH1 0xC0 DUP4 ADD MSTORE PUSH1 0x7 DUP2 ADD SLOAD PUSH1 0xE0 DUP4 ADD SWAP1 DUP2 MSTORE PUSH1 0x8 DUP3 ADD SLOAD SWAP3 PUSH2 0x100 DUP2 ADD SWAP4 DUP5 MSTORE PUSH2 0x180 PUSH1 0xFF PUSH1 0xC PUSH1 0x9 DUP7 ADD SLOAD SWAP6 PUSH2 0x120 DUP6 ADD SWAP7 DUP8 MSTORE DUP3 PUSH1 0xA DUP3 ADD SLOAD AND PUSH2 0x3EA DUP2 PUSH2 0x1C91 JUMP JUMPDEST PUSH2 0x140 DUP7 ADD MSTORE PUSH1 0xB DUP2 ADD SLOAD PUSH2 0x160 DUP7 ADD MSTORE ADD SLOAD AND ISZERO ISZERO SWAP2 ADD MSTORE MLOAD SWAP2 MLOAD SWAP1 MLOAD SWAP1 PUSH1 0x40 MLOAD SWAP3 DUP4 MSTORE PUSH1 0x20 DUP4 ADD MSTORE PUSH1 0x40 DUP3 ADD MSTORE RETURN JUMPDEST CALLVALUE PUSH2 0x206 JUMPI PUSH1 0x20 CALLDATASIZE PUSH1 0x3 NOT ADD SLT PUSH2 0x206 JUMPI PUSH1 0x0 PUSH2 0x180 PUSH1 0x40 MLOAD PUSH2 0x43D DUP2 PUSH2 0x1B90 JUMP JUMPDEST DUP3 DUP2 MSTORE DUP3 PUSH1 0x20 DUP3 ADD MSTORE PUSH1 0x60 PUSH1 0x40 DUP3 ADD MSTORE PUSH1 0x60 DUP1 DUP3 ADD MSTORE DUP3 PUSH1 0x80 DUP3 ADD MSTORE DUP3 PUSH1 0xA0 DUP3 ADD MSTORE DUP3 PUSH1 0xC0 DUP3 ADD MSTORE DUP3 PUSH1 0xE0 DUP3 ADD MSTORE DUP3 PUSH2 0x100 DUP3 ADD MSTORE DUP3 PUSH2 0x120 DUP3 ADD MSTORE DUP3 PUSH2 0x140 DUP3 ADD MSTORE DUP3 PUSH2 0x160 DUP3 ADD MSTORE ADD MSTORE PUSH1 0x4 CALLDATALOAD PUSH1 0x0 MSTORE PUSH1 0x4 PUSH1 0x20 MSTORE PUSH1 0x40 PUSH1 0x0 KECCAK256 PUSH1 0xFF PUSH1 0xC PUSH1 0x40 MLOAD SWAP3 PUSH2 0x4AA DUP5 PUSH2 0x1B90 JUMP JUMPDEST DUP1 SLOAD DUP5 MSTORE DUP3 PUSH1 0x1 DUP3 ADD SLOAD AND PUSH2 0x4BE DUP2 PUSH2 0x1C91 JUMP JUMPDEST PUSH1 0x20 DUP6 ADD MSTORE PUSH2 0x4CF PUSH1 0x2 DUP3 ADD PUSH2 0x1BEB JUMP JUMPDEST PUSH1 0x40 DUP6 ADD MSTORE PUSH2 0x4E0 PUSH1 0x3 DUP3 ADD PUSH2 0x1BEB JUMP JUMPDEST PUSH1 0x60 DUP6 ADD MSTORE PUSH1 0x4 DUP2 ADD SLOAD PUSH1 0x1 PUSH1 0x1 PUSH1 0xA0 SHL SUB AND PUSH1 0x80 DUP6 ADD MSTORE PUSH1 0x5 DUP2 ADD SLOAD PUSH1 0xA0 DUP6 ADD MSTORE PUSH1 0x6 DUP2 ADD SLOAD PUSH1 0xC0 DUP6 ADD MSTORE PUSH1 0x7 DUP2 ADD SLOAD PUSH1 0xE0 DUP6 ADD MSTORE PUSH1 0x8 DUP2 ADD SLOAD PUSH2 0x100 DUP6 ADD MSTORE PUSH1 0x9 DUP2 ADD SLOAD PUSH2 0x120 DUP6 ADD MSTORE PUSH1 0xA DUP2 ADD SLOAD DUP4 AND PUSH2 0x53C DUP2 PUSH2 0x1C91 JUMP JUMPDEST PUSH2 0x140 DUP6 ADD MSTORE PUSH1 0xB DUP2 ADD SLOAD PUSH2 0x160 DUP6 ADD MSTORE ADD SLOAD AND ISZERO ISZERO PUSH2 0x180 DUP3 ADD MSTORE PUSH1 0x40 MLOAD DUP1 SWAP2 PUSH1 0x20 DUP3 MSTORE DUP1 MLOAD PUSH1 0x20 DUP4 ADD MSTORE PUSH1 0x20 DUP2 ADD MLOAD PUSH2 0x576 DUP2 PUSH2 0x1C91 JUMP JUMPDEST PUSH1 0x40 DUP4 ADD MSTORE PUSH2 0x180 PUSH2 0x5B2 PUSH2 0x59C PUSH1 0x40 DUP5 ADD MLOAD PUSH2 0x1A0 PUSH1 0x60 DUP8 ADD MSTORE PUSH2 0x1C0 DUP7 ADD SWAP1 PUSH2 0x1CB1 JUMP JUMPDEST PUSH1 0x60 DUP5 ADD MLOAD DUP6 DUP3 SUB PUSH1 0x1F NOT ADD PUSH1 0x80 DUP8 ADD MSTORE PUSH2 0x1CB1 JUMP JUMPDEST SWAP2 PUSH1 0x1 DUP1 PUSH1 0xA0 SHL SUB PUSH1 0x80 DUP3 ADD MLOAD AND PUSH1 0xA0 DUP6 ADD MSTORE PUSH1 0xA0 DUP2 ADD MLOAD PUSH1 0xC0 DUP6 ADD MSTORE PUSH1 0xC0 DUP2 ADD MLOAD PUSH1 0xE0 DUP6 ADD MSTORE PUSH1 0xE0 DUP2 ADD MLOAD PUSH2 0x100 DUP6 ADD MSTORE PUSH2 0x100 DUP2 ADD MLOAD PUSH2 0x120 DUP6 ADD MSTORE PUSH2 0x120 DUP2 ADD MLOAD PUSH2 0x140 DUP6 ADD MSTORE PUSH2 0x140 DUP2 ADD MLOAD PUSH2 0x60B DUP2 PUSH2 0x1C91 JUMP JUMPDEST PUSH2 0x160 DUP6 ADD MSTORE PUSH2 0x160 DUP2 ADD MLOAD DUP3 DUP6 ADD MSTORE ADD MLOAD ISZERO ISZERO PUSH2 0x1A0 DUP4 ADD MSTORE SUB SWAP1 RETURN JUMPDEST CALLVALUE PUSH2 0x206 JUMPI PUSH1 0x40 CALLDATASIZE PUSH1 0x3 NOT ADD SLT PUSH2 0x206 JUMPI PUSH2 0x642 PUSH2 0x1D5E JUMP JUMPDEST PUSH1 0x40 MLOAD PUSH2 0x64E DUP2 PUSH2 0x1BAD JUMP JUMPDEST PUSH1 0x0 DUP2 MSTORE PUSH1 0x60 PUSH1 0x80 PUSH1 0x20 SWAP3 PUSH1 0x0 DUP5 DUP3 ADD MSTORE PUSH1 0x0 PUSH1 0x40 DUP3 ADD MSTORE PUSH1 0x0 DUP4 DUP3 ADD MSTORE ADD MSTORE PUSH1 0x4 CALLDATALOAD PUSH1 0x0 MSTORE PUSH1 0x5 DUP2 MSTORE PUSH1 0x40 PUSH1 0x0 KECCAK256 PUSH1 0x1 DUP1 PUSH1 0xA0 SHL SUB DUP1 SWAP4 AND PUSH1 0x0 MSTORE DUP2 MSTORE PUSH2 0x2F5 PUSH1 0x40 PUSH1 0x0 KECCAK256 SWAP2 PUSH1 0x40 MLOAD SWAP3 PUSH2 0x6A2 DUP5 PUSH2 0x1BAD JUMP JUMPDEST DUP1 SLOAD DUP6 DUP2 AND DUP6 MSTORE PUSH1 0xFF DUP4 DUP7 ADD SWAP2 PUSH1 0xA0 SHR AND ISZERO ISZERO DUP2 MSTORE PUSH1 0x1 DUP3 ADD SLOAD SWAP1 PUSH1 0x40 DUP7 ADD SWAP2 DUP3 MSTORE PUSH2 0x6DC PUSH1 0x3 PUSH1 0x2 DUP6 ADD SLOAD SWAP5 PUSH1 0x60 DUP10 ADD SWAP6 DUP7 MSTORE ADD PUSH2 0x1BEB JUMP JUMPDEST SWAP4 PUSH1 0x80 DUP8 ADD SWAP5 DUP6 MSTORE PUSH1 0x40 MLOAD SWAP8 DUP9 SWAP8 DUP3 DUP10 MSTORE MLOAD AND SWAP1 DUP8 ADD MSTORE MLOAD ISZERO ISZERO PUSH1 0x40 DUP7 ADD MSTORE MLOAD PUSH1 0x60 DUP6 ADD MSTORE MLOAD PUSH1 0x80 DUP5 ADD MSTORE MLOAD PUSH1 0xA0 DUP1 DUP5 ADD MSTORE PUSH1 0xC0 DUP4 ADD SWAP1 PUSH2 0x1CB1 JUMP JUMPDEST CALLVALUE PUSH2 0x206 JUMPI PUSH1 0x0 CALLDATASIZE PUSH1 0x3 NOT ADD SLT PUSH2 0x206 JUMPI PUSH1 0x20 PUSH1 0x40 MLOAD PUSH3 0x93A80 DUP2 MSTORE RETURN JUMPDEST CALLVALUE PUSH2 0x206 JUMPI PUSH1 0x0 CALLDATASIZE PUSH1 0x3 NOT ADD SLT PUSH2 0x206 JUMPI PUSH1 0x20 PUSH1 0x40 MLOAD PUSH1 0x64 DUP2 MSTORE RETURN JUMPDEST CALLVALUE PUSH2 0x206 JUMPI PUSH1 0x40 CALLDATASIZE PUSH1 0x3 NOT ADD SLT PUSH2 0x206 JUMPI PUSH1 0x4 CALLDATALOAD PUSH1 0x24 CALLDATALOAD PUSH8 0xFFFFFFFFFFFFFFFF DUP2 GT PUSH2 0x206 JUMPI PUSH2 0x786 SWAP1 CALLDATASIZE SWAP1 PUSH1 0x4 ADD PUSH2 0x1CF1 JUMP JUMPDEST SWAP1 DUP1 PUSH1 0x0 MSTORE PUSH1 0x20 SWAP2 PUSH1 0x4 DUP4 MSTORE PUSH1 0x40 PUSH1 0x0 KECCAK256 PUSH1 0x1 DUP1 PUSH1 0xA0 SHL SUB PUSH1 0x4 DUP3 ADD SLOAD AND CALLER EQ DUP1 ISZERO PUSH2 0x84B JUMPI JUMPDEST ISZERO PUSH2 0x815 JUMPI SWAP3 PUSH1 0xA PUSH32 0xC7C129E53E59DADFA16305619E80C7519F1F6912C10915359FD75B56BCECDD7B SWAP4 SWAP5 ADD PUSH1 0x5 DUP2 SLOAD PUSH2 0x7F5 PUSH1 0x1 PUSH1 0xFF DUP4 AND PUSH2 0x7EF DUP2 PUSH2 0x1C91 JUMP JUMPDEST EQ PUSH2 0x20AD JUMP JUMPDEST PUSH1 0xFF NOT AND OR SWAP1 SSTORE PUSH2 0x810 PUSH1 0x40 MLOAD SWAP3 DUP3 DUP5 SWAP4 DUP5 MSTORE DUP4 ADD SWAP1 PUSH2 0x1CB1 JUMP JUMPDEST SUB SWAP1 LOG2 STOP JUMPDEST PUSH1 0x40 MLOAD PUSH3 0x461BCD PUSH1 0xE5 SHL DUP2 MSTORE PUSH1 0x4 DUP2 ADD DUP6 SWAP1 MSTORE PUSH1 0xE PUSH1 0x24 DUP3 ADD MSTORE PUSH14 0x139BDD08185D5D1A1BDC9A5E9959 PUSH1 0x92 SHL PUSH1 0x44 DUP3 ADD MSTORE PUSH1 0x64 SWAP1 REVERT JUMPDEST POP PUSH32 0xA49807205CE4D355092EF5A8A18F56E8913CF4A201FBE287825B095693C21775 PUSH1 0x0 MSTORE PUSH1 0x0 DUP5 MSTORE PUSH1 0x40 PUSH1 0x0 KECCAK256 CALLER PUSH1 0x0 MSTORE DUP5 MSTORE PUSH1 0xFF PUSH1 0x40 PUSH1 0x0 KECCAK256 SLOAD AND PUSH2 0x7AD JUMP JUMPDEST CALLVALUE PUSH2 0x206 JUMPI PUSH1 0x0 CALLDATASIZE PUSH1 0x3 NOT ADD SLT PUSH2 0x206 JUMPI PUSH1 0x20 PUSH1 0x40 MLOAD PUSH1 0x0 DUP2 MSTORE RETURN JUMPDEST CALLVALUE PUSH2 0x206 JUMPI PUSH1 0x0 CALLDATASIZE PUSH1 0x3 NOT ADD SLT PUSH2 0x206 JUMPI PUSH1 0x2 SLOAD PUSH1 0x40 MLOAD PUSH1 0x1 PUSH1 0x1 PUSH1 0xA0 SHL SUB SWAP1 SWAP2 AND DUP2 MSTORE PUSH1 0x20 SWAP1 RETURN JUMPDEST CALLVALUE PUSH2 0x206 JUMPI PUSH1 0x40 CALLDATASIZE PUSH1 0x3 NOT ADD SLT PUSH2 0x206 JUMPI PUSH2 0x8EB PUSH2 0x1D5E JUMP JUMPDEST PUSH1 0x4 CALLDATALOAD PUSH1 0x0 MSTORE PUSH1 0x0 PUSH1 0x20 MSTORE PUSH1 0x40 PUSH1 0x0 KECCAK256 SWAP1 PUSH1 0x1 DUP1 PUSH1 0xA0 SHL SUB AND PUSH1 0x0 MSTORE PUSH1 0x20 MSTORE PUSH1 0x20 PUSH1 0xFF PUSH1 0x40 PUSH1 0x0 KECCAK256 SLOAD AND PUSH1 0x40 MLOAD SWAP1 ISZERO ISZERO DUP2 MSTORE RETURN JUMPDEST CALLVALUE PUSH2 0x206 JUMPI PUSH1 0x0 CALLDATASIZE PUSH1 0x3 NOT ADD SLT PUSH2 0x206 JUMPI PUSH1 0x20 PUSH1 0x40 MLOAD PUSH32 0xB09AA5AEB3702CFD50B6B62BC4532604938F21248A27A1D5CA736082B6819CC1 DUP2 MSTORE RETURN JUMPDEST CALLVALUE PUSH2 0x206 JUMPI PUSH1 0x0 CALLDATASIZE PUSH1 0x3 NOT ADD SLT PUSH2 0x206 JUMPI PUSH1 0x3 SLOAD PUSH1 0x40 MLOAD PUSH1 0x1 PUSH1 0x1 PUSH1 0xA0 SHL SUB SWAP1 SWAP2 AND DUP2 MSTORE PUSH1 0x20 SWAP1 RETURN JUMPDEST CALLVALUE PUSH2 0x206 JUMPI PUSH1 0x20 DUP1 PUSH1 0x3 NOT CALLDATASIZE ADD SLT PUSH2 0x206 JUMPI PUSH1 0x1 PUSH1 0x1 PUSH1 0xA0 SHL SUB PUSH2 0x9A5 PUSH2 0x1D48 JUMP JUMPDEST AND PUSH1 0x0 MSTORE PUSH1 0x7 DUP2 MSTORE PUSH1 0x40 PUSH1 0x0 KECCAK256 PUSH1 0x40 MLOAD SWAP1 DUP2 DUP4 DUP3 SLOAD SWAP2 DUP3 DUP2 MSTORE ADD SWAP1 DUP2 SWAP3 PUSH1 0x0 MSTORE DUP5 PUSH1 0x0 KECCAK256 SWAP1 PUSH1 0x0 JUMPDEST DUP7 DUP3 DUP3 LT PUSH2 0xA23 JUMPI DUP7 DUP7 PUSH2 0x9E3 DUP3 DUP9 SUB DUP4 PUSH2 0x1BC9 JUMP JUMPDEST PUSH1 0x40 MLOAD SWAP3 DUP4 SWAP3 DUP2 DUP5 ADD SWAP1 DUP3 DUP6 MSTORE MLOAD DUP1 SWAP2 MSTORE PUSH1 0x40 DUP5 ADD SWAP3 SWAP2 PUSH1 0x0 JUMPDEST DUP3 DUP2 LT PUSH2 0xA0C JUMPI POP POP POP POP SUB SWAP1 RETURN JUMPDEST DUP4 MLOAD DUP6 MSTORE DUP7 SWAP6 POP SWAP4 DUP2 ADD SWAP4 SWAP3 DUP2 ADD SWAP3 PUSH1 0x1 ADD PUSH2 0x9FD JUMP JUMPDEST DUP4 SLOAD DUP6 MSTORE SWAP1 SWAP4 ADD SWAP3 PUSH1 0x1 SWAP3 DUP4 ADD SWAP3 ADD PUSH2 0x9CD JUMP JUMPDEST CALLVALUE PUSH2 0x206 JUMPI PUSH1 0x0 CALLDATASIZE PUSH1 0x3 NOT ADD SLT PUSH2 0x206 JUMPI PUSH1 0x20 PUSH1 0x40 MLOAD PUSH32 0xA49807205CE4D355092EF5A8A18F56E8913CF4A201FBE287825B095693C21775 DUP2 MSTORE RETURN JUMPDEST CALLVALUE PUSH2 0x206 JUMPI PUSH1 0x60 CALLDATASIZE PUSH1 0x3 NOT ADD SLT PUSH2 0x206 JUMPI PUSH1 0x24 DUP1 CALLDATALOAD PUSH1 0x4 CALLDATALOAD DUP2 ISZERO ISZERO DUP1 DUP4 SUB PUSH2 0x206 JUMPI PUSH8 0xFFFFFFFFFFFFFFFF SWAP4 PUSH1 0x44 CALLDATALOAD DUP6 DUP2 GT PUSH2 0x206 JUMPI PUSH2 0xAB6 SWAP1 CALLDATASIZE SWAP1 PUSH1 0x4 ADD PUSH2 0x1CF1 JUMP JUMPDEST PUSH1 0x2 SLOAD PUSH1 0x40 MLOAD PUSH4 0x1EB30AEB PUSH1 0xE0 SHL DUP2 MSTORE CALLER PUSH1 0x4 DUP3 ADD MSTORE SWAP2 SWAP6 PUSH1 0x1 PUSH1 0x1 PUSH1 0xA0 SHL SUB SWAP4 PUSH1 0x20 SWAP4 SWAP1 SWAP3 DUP5 SWAP1 DUP3 SWAP1 DUP6 SWAP1 DUP3 SWAP1 DUP10 AND GAS STATICCALL DUP1 ISZERO PUSH2 0xE65 JUMPI PUSH2 0xB00 SWAP2 PUSH1 0x0 SWAP2 PUSH2 0xEDD JUMPI JUMPDEST POP PUSH2 0x1FFA JUMP JUMPDEST DUP6 PUSH1 0x0 MSTORE PUSH1 0x4 DUP4 MSTORE PUSH1 0x40 PUSH1 0x0 KECCAK256 SWAP2 PUSH1 0xFF PUSH1 0xA DUP5 ADD SLOAD AND SWAP1 PUSH2 0xB20 DUP3 PUSH2 0x1C91 JUMP JUMPDEST PUSH2 0xB2D PUSH1 0x1 DUP1 SWAP4 EQ PUSH2 0x20AD JUMP JUMPDEST PUSH1 0x6 DUP5 ADD SLOAD TIMESTAMP LT ISZERO PUSH2 0xEA4 JUMPI DUP8 PUSH1 0x0 MSTORE PUSH1 0x6 DUP6 MSTORE PUSH1 0x40 PUSH1 0x0 KECCAK256 CALLER PUSH1 0x0 MSTORE DUP6 MSTORE PUSH1 0xFF PUSH1 0x40 PUSH1 0x0 KECCAK256 SLOAD AND PUSH2 0xE71 JUMPI DUP1 PUSH1 0xC0 DUP8 PUSH1 0x3 SLOAD AND PUSH1 0x40 MLOAD SWAP4 DUP5 DUP1 SWAP3 PUSH4 0x1D699F57 PUSH1 0xE2 SHL DUP3 MSTORE CALLER PUSH1 0x4 DUP4 ADD MSTORE GAS STATICCALL DUP1 ISZERO PUSH2 0xE65 JUMPI DUP11 SWAP3 PUSH1 0x0 SWAP2 PUSH2 0xE37 JUMPI JUMPDEST POP MLOAD DUP4 SWAP1 PUSH2 0x1388 DUP2 LT PUSH2 0xDEF JUMPI POP POP PUSH1 0x3 PUSH1 0x5 SWAP8 JUMPDEST DUP11 PUSH1 0x40 MLOAD SWAP2 PUSH2 0xBAD DUP4 PUSH2 0x1BAD JUMP JUMPDEST CALLER DUP4 MSTORE DUP10 DUP4 ADD DUP13 DUP2 MSTORE PUSH1 0x40 DUP5 ADD SWAP2 DUP13 DUP4 MSTORE PUSH1 0x60 DUP6 ADD SWAP4 TIMESTAMP DUP6 MSTORE PUSH1 0x80 DUP7 ADD SWAP9 DUP10 MSTORE PUSH1 0x0 MSTORE PUSH1 0x5 DUP13 MSTORE PUSH1 0x40 PUSH1 0x0 KECCAK256 CALLER PUSH1 0x0 MSTORE DUP13 MSTORE PUSH1 0x40 PUSH1 0x0 KECCAK256 SWAP5 MLOAD AND DUP5 SLOAD SWAP2 PUSH1 0xFF PUSH1 0xA0 SHL SWAP1 MLOAD ISZERO ISZERO PUSH1 0xA0 SHL AND SWAP2 PUSH11 0xFFFFFFFFFFFFFFFFFFFFFF PUSH1 0xA8 SHL AND OR OR DUP4 SSTORE MLOAD DUP7 DUP4 ADD SSTORE MLOAD PUSH1 0x2 DUP3 ADD SSTORE ADD SWAP2 MLOAD SWAP1 DUP2 MLOAD SWAP12 DUP13 GT PUSH2 0xDDB JUMPI POP DUP11 PUSH2 0xC30 DUP4 SLOAD PUSH2 0x1B56 JUMP JUMPDEST PUSH1 0x1F DUP2 GT PUSH2 0xD90 JUMPI JUMPDEST POP POP DUP6 SWAP1 PUSH1 0x1F DUP13 GT PUSH1 0x1 EQ PUSH2 0xD0A JUMPI SWAP11 DUP1 SWAP2 PUSH32 0x63453EBF8E1AA432B8D77257D489F75C1A106CDBD568C0E0C63547D20FC91FA8 SWAP11 SWAP12 SWAP13 PUSH1 0x0 SWAP3 PUSH2 0xCFF JUMPI JUMPDEST POP POP PUSH1 0x0 NOT PUSH1 0x3 DUP4 SWAP1 SHL SHR NOT AND SWAP1 DUP4 SHL OR SWAP1 SSTORE JUMPDEST DUP8 PUSH1 0x0 MSTORE PUSH1 0x6 DUP5 MSTORE PUSH1 0x40 PUSH1 0x0 KECCAK256 CALLER PUSH1 0x0 MSTORE DUP5 MSTORE PUSH1 0x40 PUSH1 0x0 KECCAK256 SWAP1 PUSH1 0xFF NOT DUP3 SLOAD AND OR SWAP1 SSTORE PUSH1 0x0 EQ PUSH2 0xCEA JUMPI PUSH1 0x7 ADD PUSH2 0xCC2 DUP4 DUP3 SLOAD PUSH2 0x20A0 JUMP JUMPDEST SWAP1 SSTORE JUMPDEST PUSH1 0x40 MLOAD SWAP3 DUP4 MSTORE DUP3 ADD MSTORE PUSH1 0x60 PUSH1 0x40 DUP3 ADD MSTORE DUP1 PUSH2 0xCE5 CALLER SWAP6 PUSH1 0x60 DUP4 ADD SWAP1 PUSH2 0x1CB1 JUMP JUMPDEST SUB SWAP1 LOG3 STOP JUMPDEST PUSH1 0x8 ADD PUSH2 0xCF8 DUP4 DUP3 SLOAD PUSH2 0x20A0 JUMP JUMPDEST SWAP1 SSTORE PUSH2 0xCC5 JUMP JUMPDEST ADD MLOAD SWAP1 POP DUP13 DUP1 PUSH2 0xC77 JUMP JUMPDEST SWAP1 PUSH1 0x1F NOT DUP13 AND SWAP2 DUP4 PUSH1 0x0 MSTORE DUP8 PUSH1 0x0 KECCAK256 SWAP3 PUSH1 0x0 JUMPDEST DUP2 DUP2 LT PUSH2 0xD7B JUMPI POP SWAP2 DUP6 SWAP4 SWAP2 DUP15 PUSH32 0x63453EBF8E1AA432B8D77257D489F75C1A106CDBD568C0E0C63547D20FC91FA8 SWAP14 SWAP15 SWAP16 SWAP5 LT PUSH2 0xD62 JUMPI JUMPDEST POP POP POP DUP2 SHL ADD SWAP1 SSTORE PUSH2 0xC8B JUMP JUMPDEST ADD MLOAD PUSH1 0x0 NOT PUSH1 0xF8 DUP5 PUSH1 0x3 SHL AND SHR NOT AND SWAP1 SSTORE DUP13 DUP1 DUP1 PUSH2 0xD55 JUMP JUMPDEST DUP3 DUP5 ADD MLOAD DUP6 SSTORE SWAP4 DUP7 ADD SWAP4 SWAP3 DUP10 ADD SWAP3 DUP10 ADD PUSH2 0xD1D JUMP JUMPDEST DUP4 PUSH1 0x0 MSTORE DUP8 PUSH1 0x0 KECCAK256 SWAP1 DUP9 PUSH1 0x1F DUP5 ADD PUSH1 0x5 SHR DUP4 ADD SWAP4 LT PUSH2 0xDD1 JUMPI JUMPDEST PUSH1 0x1F ADD PUSH1 0x5 SHR ADD SWAP1 DUP5 SWAP1 JUMPDEST DUP3 DUP2 LT PUSH2 0xDC5 JUMPI POP DUP13 SWAP2 POP PUSH2 0xC39 JUMP JUMPDEST PUSH1 0x0 DUP2 SSTORE ADD DUP5 SWAP1 PUSH2 0xDB5 JUMP JUMPDEST SWAP1 SWAP2 POP DUP2 SWAP1 PUSH2 0xDAA JUMP JUMPDEST PUSH4 0x4E487B71 PUSH1 0xE0 SHL PUSH1 0x0 SWAP1 DUP2 MSTORE PUSH1 0x41 PUSH1 0x4 MSTORE REVERT JUMPDEST PUSH2 0x7D0 DUP2 LT PUSH2 0xE04 JUMPI POP POP PUSH1 0x3 PUSH1 0x4 SWAP8 PUSH2 0xB9F JUMP JUMPDEST PUSH2 0x3E8 DUP2 LT PUSH2 0xE18 JUMPI POP POP PUSH1 0x3 DUP1 SWAP8 PUSH2 0xB9F JUMP JUMPDEST PUSH2 0x1F4 SWAP1 SWAP9 SWAP2 SWAP9 LT ISZERO PUSH2 0xE2E JUMPI JUMPDEST PUSH1 0x3 SWAP1 PUSH2 0xB9F JUMP JUMPDEST PUSH1 0x2 SWAP8 POP PUSH2 0xE26 JUMP JUMPDEST PUSH2 0xE58 SWAP2 POP PUSH1 0xC0 RETURNDATASIZE DUP2 GT PUSH2 0xE5E JUMPI JUMPDEST PUSH2 0xE50 DUP2 DUP4 PUSH2 0x1BC9 JUMP JUMPDEST DUP2 ADD SWAP1 PUSH2 0x203D JUMP JUMPDEST DUP13 PUSH2 0xB8A JUMP JUMPDEST POP RETURNDATASIZE PUSH2 0xE46 JUMP JUMPDEST PUSH1 0x40 MLOAD RETURNDATASIZE PUSH1 0x0 DUP3 RETURNDATACOPY RETURNDATASIZE SWAP1 REVERT JUMPDEST DUP5 PUSH1 0xD PUSH1 0x64 SWAP3 PUSH1 0x40 MLOAD SWAP3 PUSH3 0x461BCD PUSH1 0xE5 SHL DUP5 MSTORE PUSH1 0x4 DUP5 ADD MSTORE DUP3 ADD MSTORE PUSH13 0x105B1C9958591E481D9BDD1959 PUSH1 0x9A SHL PUSH1 0x44 DUP3 ADD MSTORE REVERT JUMPDEST DUP5 PUSH1 0x13 PUSH1 0x64 SWAP3 PUSH1 0x40 MLOAD SWAP3 PUSH3 0x461BCD PUSH1 0xE5 SHL DUP5 MSTORE PUSH1 0x4 DUP5 ADD MSTORE DUP3 ADD MSTORE PUSH19 0x159BDD1A5B99C81C195C9A5BD908195B991959 PUSH1 0x6A SHL PUSH1 0x44 DUP3 ADD MSTORE REVERT JUMPDEST PUSH2 0xEFD SWAP2 POP DUP6 RETURNDATASIZE DUP8 GT PUSH2 0xF03 JUMPI JUMPDEST PUSH2 0xEF5 DUP2 DUP4 PUSH2 0x1BC9 JUMP JUMPDEST DUP2 ADD SWAP1 PUSH2 0x1FE2 JUMP JUMPDEST DUP11 PUSH2 0xAFA JUMP JUMPDEST POP RETURNDATASIZE PUSH2 0xEEB JUMP JUMPDEST CALLVALUE PUSH2 0x206 JUMPI PUSH1 0x20 CALLDATASIZE PUSH1 0x3 NOT ADD SLT PUSH2 0x206 JUMPI PUSH1 0x4 CALLDATALOAD PUSH1 0x0 MSTORE PUSH1 0x4 PUSH1 0x20 MSTORE PUSH2 0x1008 PUSH1 0x40 PUSH1 0x0 KECCAK256 PUSH2 0x1000 PUSH1 0x40 MLOAD PUSH2 0xF3D DUP2 PUSH2 0x1B90 JUMP JUMPDEST DUP3 SLOAD DUP2 MSTORE PUSH1 0xFF PUSH1 0x1 DUP5 ADD SLOAD AND PUSH2 0xF52 DUP2 PUSH2 0x1C91 JUMP JUMPDEST PUSH1 0x20 DUP3 ADD MSTORE PUSH2 0xF63 PUSH1 0x2 DUP5 ADD PUSH2 0x1BEB JUMP JUMPDEST PUSH1 0x40 DUP3 ADD MSTORE PUSH2 0xF74 PUSH1 0x3 DUP5 ADD PUSH2 0x1BEB JUMP JUMPDEST PUSH1 0x60 DUP3 ADD MSTORE PUSH1 0x1 DUP1 PUSH1 0xA0 SHL SUB PUSH1 0x4 DUP5 ADD SLOAD AND PUSH1 0x80 DUP3 ADD MSTORE PUSH1 0x5 DUP4 ADD SLOAD PUSH1 0xA0 DUP3 ADD MSTORE PUSH1 0x6 DUP4 ADD SLOAD PUSH1 0xC0 DUP3 ADD MSTORE PUSH1 0x7 DUP4 ADD SLOAD PUSH1 0xE0 DUP3 ADD SWAP1 DUP2 MSTORE PUSH1 0x8 DUP5 ADD SLOAD SWAP2 PUSH2 0x100 DUP2 ADD SWAP3 DUP4 MSTORE PUSH2 0x180 PUSH1 0xFF PUSH1 0xC PUSH1 0x9 DUP9 ADD SLOAD SWAP8 PUSH2 0x120 DUP6 ADD SWAP9 DUP10 MSTORE DUP3 PUSH1 0xA DUP3 ADD SLOAD AND PUSH2 0xFDE DUP2 PUSH2 0x1C91 JUMP JUMPDEST PUSH2 0x140 DUP7 ADD MSTORE PUSH1 0xB DUP2 ADD SLOAD PUSH2 0x160 DUP7 ADD MSTORE ADD SLOAD AND ISZERO ISZERO SWAP2 ADD MSTORE MLOAD SWAP1 MLOAD SWAP1 PUSH2 0x20A0 JUMP JUMPDEST SWAP1 MLOAD SWAP1 PUSH2 0x20A0 JUMP JUMPDEST PUSH1 0x9 SLOAD PUSH1 0xA DUP2 MUL SWAP1 DUP1 DUP3 DIV PUSH1 0xA EQ SWAP1 ISZERO OR ISZERO PUSH2 0x102E JUMPI PUSH1 0x20 SWAP2 PUSH1 0x64 PUSH1 0x40 MLOAD SWAP3 DIV GT ISZERO DUP2 MSTORE RETURN JUMPDEST PUSH4 0x4E487B71 PUSH1 0xE0 SHL PUSH1 0x0 MSTORE PUSH1 0x11 PUSH1 0x4 MSTORE PUSH1 0x24 PUSH1 0x0 REVERT JUMPDEST CALLVALUE PUSH2 0x206 JUMPI PUSH1 0x20 CALLDATASIZE PUSH1 0x3 NOT ADD SLT PUSH2 0x206 JUMPI PUSH2 0x204 PUSH1 0x4 CALLDATALOAD PUSH2 0x20EF JUMP JUMPDEST CALLVALUE PUSH2 0x206 JUMPI PUSH1 0x40 CALLDATASIZE PUSH1 0x3 NOT ADD SLT PUSH2 0x206 JUMPI PUSH2 0x1079 PUSH2 0x1D5E JUMP JUMPDEST PUSH1 0x4 CALLDATALOAD PUSH1 0x0 MSTORE PUSH1 0x6 PUSH1 0x20 MSTORE PUSH1 0x40 PUSH1 0x0 KECCAK256 SWAP1 PUSH1 0x1 DUP1 PUSH1 0xA0 SHL SUB AND PUSH1 0x0 MSTORE PUSH1 0x20 MSTORE PUSH1 0x20 PUSH1 0xFF PUSH1 0x40 PUSH1 0x0 KECCAK256 SLOAD AND PUSH1 0x40 MLOAD SWAP1 ISZERO ISZERO DUP2 MSTORE RETURN JUMPDEST CALLVALUE PUSH2 0x206 JUMPI PUSH1 0x0 CALLDATASIZE PUSH1 0x3 NOT ADD SLT PUSH2 0x206 JUMPI PUSH1 0x20 PUSH1 0x40 MLOAD PUSH3 0x2A300 DUP2 MSTORE RETURN JUMPDEST CALLVALUE PUSH2 0x206 JUMPI PUSH1 0x40 CALLDATASIZE PUSH1 0x3 NOT ADD SLT PUSH2 0x206 JUMPI PUSH2 0x10E4 PUSH2 0x1D5E JUMP JUMPDEST CALLER PUSH1 0x1 PUSH1 0x1 PUSH1 0xA0 SHL SUB DUP3 AND SUB PUSH2 0x1100 JUMPI PUSH2 0x204 SWAP1 PUSH1 0x4 CALLDATALOAD PUSH2 0x1F6D JUMP JUMPDEST PUSH1 0x40 MLOAD PUSH4 0x334BD919 PUSH1 0xE1 SHL DUP2 MSTORE PUSH1 0x4 SWAP1 REVERT JUMPDEST CALLVALUE PUSH2 0x206 JUMPI PUSH1 0x40 CALLDATASIZE PUSH1 0x3 NOT ADD SLT PUSH2 0x206 JUMPI PUSH2 0x204 PUSH1 0x4 CALLDATALOAD PUSH2 0x1131 PUSH2 0x1D5E JUMP JUMPDEST SWAP1 DUP1 PUSH1 0x0 MSTORE PUSH1 0x0 PUSH1 0x20 MSTORE PUSH2 0x114C PUSH1 0x1 PUSH1 0x40 PUSH1 0x0 KECCAK256 ADD SLOAD PUSH2 0x1E1C JUMP JUMPDEST PUSH2 0x1EF4 JUMP JUMPDEST CALLVALUE PUSH2 0x206 JUMPI PUSH1 0x20 CALLDATASIZE PUSH1 0x3 NOT ADD SLT PUSH2 0x206 JUMPI PUSH1 0x4 CALLDATALOAD PUSH1 0x0 MSTORE PUSH1 0x0 PUSH1 0x20 MSTORE PUSH1 0x20 PUSH1 0x1 PUSH1 0x40 PUSH1 0x0 KECCAK256 ADD SLOAD PUSH1 0x40 MLOAD SWAP1 DUP2 MSTORE RETURN JUMPDEST CALLVALUE PUSH2 0x206 JUMPI PUSH1 0x40 CALLDATASIZE PUSH1 0x3 NOT ADD SLT PUSH2 0x206 JUMPI PUSH2 0x1199 PUSH2 0x1D48 JUMP JUMPDEST PUSH1 0x1 PUSH1 0x1 PUSH1 0xA0 SHL SUB AND PUSH1 0x0 SWAP1 DUP2 MSTORE PUSH1 0x7 PUSH1 0x20 MSTORE PUSH1 0x40 SWAP1 KECCAK256 DUP1 SLOAD PUSH1 0x24 CALLDATALOAD SWAP2 SWAP1 DUP3 LT ISZERO PUSH2 0x206 JUMPI PUSH1 0x20 SWAP2 PUSH2 0x11CA SWAP2 PUSH2 0x1D74 JUMP JUMPDEST SWAP1 SLOAD PUSH1 0x40 MLOAD SWAP2 PUSH1 0x3 SHL SHR DUP2 MSTORE RETURN JUMPDEST CALLVALUE PUSH2 0x206 JUMPI PUSH1 0x0 CALLDATASIZE PUSH1 0x3 NOT ADD SLT PUSH2 0x206 JUMPI PUSH1 0x20 PUSH1 0x9 SLOAD PUSH1 0x40 MLOAD SWAP1 DUP2 MSTORE RETURN JUMPDEST CALLVALUE PUSH2 0x206 JUMPI PUSH1 0x20 DUP1 PUSH1 0x3 NOT CALLDATASIZE ADD SLT PUSH2 0x206 JUMPI PUSH1 0x4 CALLDATALOAD SWAP1 PUSH2 0x1214 PUSH2 0x1DA2 JUMP JUMPDEST DUP2 PUSH1 0x0 MSTORE PUSH1 0x4 DUP2 MSTORE PUSH1 0x40 PUSH1 0x0 KECCAK256 PUSH1 0xA DUP2 ADD SWAP1 DUP2 SLOAD PUSH1 0x2 PUSH1 0xFF DUP3 AND PUSH2 0x1237 DUP2 PUSH2 0x1C91 JUMP JUMPDEST SUB PUSH2 0x131F JUMPI PUSH1 0xC DUP3 ADD DUP1 SLOAD SWAP3 PUSH1 0xFF DUP5 AND PUSH2 0x12E7 JUMPI DUP1 PUSH1 0xB PUSH1 0x6 PUSH2 0x125F SWAP4 ADD SLOAD SWAP2 ADD SLOAD SWAP1 PUSH2 0x20A0 JUMP JUMPDEST TIMESTAMP LT PUSH2 0x12A2 JUMPI PUSH1 0xFF NOT SWAP3 DUP4 AND PUSH1 0x1 OR SWAP1 SSTORE AND PUSH1 0x4 OR SWAP1 SSTORE PUSH1 0x40 MLOAD TIMESTAMP DUP2 MSTORE PUSH32 0xF758FC91E01B00EA6B4A6138756F7F28E021F9BF21DB6DBF8C36C88EB737257A SWAP2 SWAP1 LOG2 STOP JUMPDEST PUSH1 0x40 MLOAD PUSH3 0x461BCD PUSH1 0xE5 SHL DUP2 MSTORE PUSH1 0x4 DUP2 ADD DUP7 SWAP1 MSTORE PUSH1 0x17 PUSH1 0x24 DUP3 ADD MSTORE PUSH32 0x457865637574696F6E2064656C6179206E6F74206D6574000000000000000000 PUSH1 0x44 DUP3 ADD MSTORE PUSH1 0x64 SWAP1 REVERT JUMPDEST PUSH1 0x40 MLOAD PUSH3 0x461BCD PUSH1 0xE5 SHL DUP2 MSTORE PUSH1 0x4 DUP2 ADD DUP8 SWAP1 MSTORE PUSH1 0x10 PUSH1 0x24 DUP3 ADD MSTORE PUSH16 0x105B1C9958591E48195E1958DD5D1959 PUSH1 0x82 SHL PUSH1 0x44 DUP3 ADD MSTORE PUSH1 0x64 SWAP1 REVERT JUMPDEST PUSH1 0x40 MLOAD PUSH3 0x461BCD PUSH1 0xE5 SHL DUP2 MSTORE PUSH1 0x4 DUP2 ADD DUP6 SWAP1 MSTORE PUSH1 0x13 PUSH1 0x24 DUP3 ADD MSTORE PUSH19 0x141C9BDC1BDCD85B081B9BDD081C185CDCD959 PUSH1 0x6A SHL PUSH1 0x44 DUP3 ADD MSTORE PUSH1 0x64 SWAP1 REVERT JUMPDEST CALLVALUE PUSH2 0x206 JUMPI PUSH1 0x0 CALLDATASIZE PUSH1 0x3 NOT ADD SLT PUSH2 0x206 JUMPI PUSH1 0x20 PUSH1 0x8 SLOAD PUSH1 0x40 MLOAD SWAP1 DUP2 MSTORE RETURN JUMPDEST CALLVALUE PUSH2 0x206 JUMPI PUSH1 0x60 CALLDATASIZE PUSH1 0x3 NOT ADD SLT PUSH2 0x206 JUMPI PUSH1 0x6 PUSH1 0x4 CALLDATALOAD LT ISZERO PUSH2 0x206 JUMPI PUSH1 0x24 CALLDATALOAD PUSH8 0xFFFFFFFFFFFFFFFF DUP2 GT PUSH2 0x206 JUMPI PUSH2 0x13B4 SWAP1 CALLDATASIZE SWAP1 PUSH1 0x4 ADD PUSH2 0x1CF1 JUMP JUMPDEST PUSH1 0x44 CALLDATALOAD PUSH8 0xFFFFFFFFFFFFFFFF DUP2 GT PUSH2 0x206 JUMPI PUSH2 0x13D4 SWAP1 CALLDATASIZE SWAP1 PUSH1 0x4 ADD PUSH2 0x1CF1 JUMP JUMPDEST PUSH1 0x2 SLOAD PUSH1 0x40 MLOAD PUSH4 0x1EB30AEB PUSH1 0xE0 SHL DUP2 MSTORE CALLER PUSH1 0x4 DUP3 ADD MSTORE SWAP1 PUSH1 0x20 SWAP1 DUP3 SWAP1 PUSH1 0x24 SWAP1 DUP3 SWAP1 PUSH1 0x1 PUSH1 0x1 PUSH1 0xA0 SHL SUB AND GAS STATICCALL DUP1 ISZERO PUSH2 0xE65 JUMPI PUSH2 0x1417 SWAP2 PUSH1 0x0 SWAP2 PUSH2 0x19DB JUMPI POP PUSH2 0x1FFA JUMP JUMPDEST PUSH1 0x3 SLOAD PUSH1 0x40 MLOAD PUSH4 0x1D699F57 PUSH1 0xE2 SHL DUP2 MSTORE CALLER PUSH1 0x4 DUP3 ADD MSTORE SWAP1 PUSH1 0xC0 SWAP1 DUP3 SWAP1 PUSH1 0x24 SWAP1 DUP3 SWAP1 PUSH1 0x1 PUSH1 0x1 PUSH1 0xA0 SHL SUB AND GAS STATICCALL DUP1 ISZERO PUSH2 0xE65 JUMPI PUSH1 0x64 SWAP2 PUSH1 0x0 SWAP2 PUSH2 0x19BD JUMPI JUMPDEST POP MLOAD LT PUSH2 0x1978 JUMPI DUP2 MLOAD ISZERO PUSH2 0x1942 JUMPI DUP1 MLOAD ISZERO PUSH2 0x1906 JUMPI PUSH1 0x8 SLOAD SWAP1 PUSH1 0x0 NOT DUP3 EQ PUSH2 0x102E JUMPI PUSH1 0x1 DUP3 ADD PUSH1 0x8 SSTORE PUSH3 0x93A80 TIMESTAMP ADD TIMESTAMP GT PUSH2 0x102E JUMPI PUSH1 0x40 MLOAD SWAP1 PUSH2 0x1496 DUP3 PUSH2 0x1B90 JUMP JUMPDEST PUSH1 0x1 DUP4 ADD DUP3 MSTORE PUSH2 0x14A7 PUSH1 0x4 CALLDATALOAD PUSH2 0x1C91 JUMP JUMPDEST PUSH1 0x4 CALLDATALOAD PUSH1 0x20 DUP4 ADD MSTORE DUP4 PUSH1 0x40 DUP4 ADD MSTORE PUSH1 0x60 DUP3 ADD MSTORE CALLER PUSH1 0x80 DUP3 ADD MSTORE TIMESTAMP PUSH1 0xA0 DUP3 ADD MSTORE PUSH3 0x93A80 TIMESTAMP ADD PUSH1 0xC0 DUP3 ADD MSTORE PUSH1 0x0 PUSH1 0xE0 DUP3 ADD MSTORE PUSH1 0x0 PUSH2 0x100 DUP3 ADD MSTORE PUSH1 0x0 PUSH2 0x120 DUP3 ADD MSTORE PUSH1 0x1 PUSH2 0x140 DUP3 ADD MSTORE PUSH3 0x2A300 PUSH2 0x160 DUP3 ADD MSTORE PUSH1 0x0 PUSH2 0x180 DUP3 ADD MSTORE PUSH1 0x1 DUP3 ADD PUSH1 0x0 MSTORE PUSH1 0x4 PUSH1 0x20 MSTORE PUSH1 0x40 PUSH1 0x0 KECCAK256 DUP2 MLOAD DUP2 SSTORE PUSH1 0x1 DUP2 ADD PUSH1 0x20 DUP4 ADD MLOAD PUSH2 0x1529 DUP2 PUSH2 0x1C91 JUMP JUMPDEST PUSH2 0x1532 DUP2 PUSH2 0x1C91 JUMP JUMPDEST PUSH1 0xFF DUP1 NOT DUP4 SLOAD AND SWAP2 AND OR SWAP1 SSTORE PUSH1 0x40 DUP3 ADD MLOAD DUP1 MLOAD SWAP1 PUSH8 0xFFFFFFFFFFFFFFFF DUP3 GT PUSH2 0x1758 JUMPI DUP2 SWAP1 PUSH2 0x1564 PUSH1 0x2 DUP6 ADD SLOAD PUSH2 0x1B56 JUMP JUMPDEST PUSH1 0x1F DUP2 GT PUSH2 0x18B3 JUMPI JUMPDEST POP PUSH1 0x20 SWAP1 PUSH1 0x1F DUP4 GT PUSH1 0x1 EQ PUSH2 0x1841 JUMPI PUSH1 0x0 SWAP3 PUSH2 0x1836 JUMPI JUMPDEST POP POP DUP2 PUSH1 0x1 SHL SWAP2 PUSH1 0x0 NOT SWAP1 PUSH1 0x3 SHL SHR NOT AND OR PUSH1 0x2 DUP3 ADD SSTORE JUMPDEST PUSH1 0x60 DUP3 ADD MLOAD DUP1 MLOAD SWAP1 PUSH8 0xFFFFFFFFFFFFFFFF DUP3 GT PUSH2 0x1758 JUMPI PUSH2 0x15C0 PUSH1 0x3 DUP5 ADD SLOAD PUSH2 0x1B56 JUMP JUMPDEST PUSH1 0x1F DUP2 GT PUSH2 0x17EF JUMPI JUMPDEST POP PUSH1 0x20 SWAP1 PUSH1 0x1F DUP4 GT PUSH1 0x1 EQ PUSH2 0x1779 JUMPI SWAP2 DUP1 PUSH2 0x180 SWAP5 SWAP3 PUSH1 0xC SWAP5 PUSH1 0x0 SWAP3 PUSH2 0x176E JUMPI JUMPDEST POP POP DUP2 PUSH1 0x1 SHL SWAP2 PUSH1 0x0 NOT SWAP1 PUSH1 0x3 SHL SHR NOT AND OR PUSH1 0x3 DUP3 ADD SSTORE JUMPDEST PUSH1 0x4 DUP2 ADD PUSH1 0x1 DUP1 PUSH1 0xA0 SHL SUB PUSH1 0x80 DUP7 ADD MLOAD AND PUSH12 0xFFFFFFFFFFFFFFFFFFFFFFFF PUSH1 0xA0 SHL DUP3 SLOAD AND OR SWAP1 SSTORE PUSH1 0xA0 DUP5 ADD MLOAD PUSH1 0x5 DUP3 ADD SSTORE PUSH1 0xC0 DUP5 ADD MLOAD PUSH1 0x6 DUP3 ADD SSTORE PUSH1 0xE0 DUP5 ADD MLOAD PUSH1 0x7 DUP3 ADD SSTORE PUSH2 0x100 DUP5 ADD MLOAD PUSH1 0x8 DUP3 ADD SSTORE PUSH2 0x120 DUP5 ADD MLOAD PUSH1 0x9 DUP3 ADD SSTORE PUSH1 0xA DUP2 ADD PUSH2 0x140 DUP6 ADD MLOAD PUSH2 0x1670 DUP2 PUSH2 0x1C91 JUMP JUMPDEST PUSH2 0x1679 DUP2 PUSH2 0x1C91 JUMP JUMPDEST PUSH1 0xFF DUP1 NOT DUP4 SLOAD AND SWAP2 AND OR SWAP1 SSTORE PUSH2 0x160 DUP5 ADD MLOAD PUSH1 0xB DUP3 ADD SSTORE ADD SWAP2 ADD MLOAD ISZERO ISZERO PUSH1 0xFF DUP1 NOT DUP4 SLOAD AND SWAP2 AND OR SWAP1 SSTORE CALLER PUSH1 0x0 MSTORE PUSH1 0x7 PUSH1 0x20 MSTORE PUSH1 0x40 PUSH1 0x0 KECCAK256 SWAP2 DUP3 SLOAD SWAP3 PUSH9 0x10000000000000000 DUP5 LT ISZERO PUSH2 0x1758 JUMPI DUP4 PUSH2 0x16D7 SWAP2 PUSH1 0x1 PUSH1 0x20 SWAP7 ADD DUP2 SSTORE PUSH2 0x1D74 JUMP JUMPDEST DUP2 SLOAD SWAP1 PUSH1 0x3 SHL SWAP1 PUSH1 0x1 DUP6 ADD DUP3 SHL SWAP2 PUSH1 0x0 NOT SWAP1 SHL NOT AND OR SWAP1 SSTORE PUSH2 0x1716 PUSH1 0x40 MLOAD SWAP2 PUSH2 0x1701 PUSH1 0x4 CALLDATALOAD PUSH2 0x1C91 JUMP JUMPDEST PUSH1 0x4 CALLDATALOAD DUP4 MSTORE PUSH1 0x60 DUP6 DUP5 ADD MSTORE PUSH1 0x60 DUP4 ADD SWAP1 PUSH2 0x1CB1 JUMP JUMPDEST PUSH3 0x93A80 TIMESTAMP ADD PUSH1 0x40 DUP4 ADD MSTORE PUSH32 0x8DEFAB9EE71E899835FFDDF06CCC008A3C1C0AB51C88FBC0FF7C3F3EAE179F6A CALLER SWAP3 DUP1 PUSH1 0x1 DUP7 ADD SWAP4 SUB SWAP1 LOG3 PUSH1 0x1 PUSH1 0x40 MLOAD SWAP2 ADD DUP2 MSTORE RETURN JUMPDEST PUSH4 0x4E487B71 PUSH1 0xE0 SHL PUSH1 0x0 MSTORE PUSH1 0x41 PUSH1 0x4 MSTORE PUSH1 0x24 PUSH1 0x0 REVERT JUMPDEST ADD MLOAD SWAP1 POP DUP9 DUP1 PUSH2 0x15EA JUMP JUMPDEST SWAP1 PUSH1 0x3 DUP5 ADD PUSH1 0x0 MSTORE PUSH1 0x20 PUSH1 0x0 KECCAK256 SWAP2 PUSH1 0x0 JUMPDEST PUSH1 0x1F NOT DUP6 AND DUP2 LT PUSH2 0x17D7 JUMPI POP SWAP3 PUSH2 0x180 SWAP5 SWAP3 PUSH1 0x1 SWAP3 PUSH1 0xC SWAP6 DUP4 PUSH1 0x1F NOT DUP2 AND LT PUSH2 0x17BE JUMPI JUMPDEST POP POP POP DUP2 SHL ADD PUSH1 0x3 DUP3 ADD SSTORE PUSH2 0x1602 JUMP JUMPDEST ADD MLOAD PUSH1 0x0 NOT PUSH1 0xF8 DUP5 PUSH1 0x3 SHL AND SHR NOT AND SWAP1 SSTORE DUP9 DUP1 DUP1 PUSH2 0x17AE JUMP JUMPDEST SWAP2 SWAP3 PUSH1 0x20 PUSH1 0x1 DUP2 SWAP3 DUP7 DUP6 ADD MLOAD DUP2 SSTORE ADD SWAP5 ADD SWAP3 ADD PUSH2 0x178A JUMP JUMPDEST PUSH1 0x3 DUP5 ADD PUSH1 0x0 MSTORE PUSH1 0x20 PUSH1 0x0 KECCAK256 PUSH1 0x1F DUP5 ADD PUSH1 0x5 SHR DUP2 ADD PUSH1 0x20 DUP6 LT PUSH2 0x182F JUMPI JUMPDEST PUSH1 0x1F DUP4 ADD PUSH1 0x5 SHR DUP3 ADD DUP2 LT PUSH2 0x1823 JUMPI POP POP PUSH2 0x15C9 JUMP JUMPDEST PUSH1 0x0 DUP2 SSTORE PUSH1 0x1 ADD PUSH2 0x180D JUMP JUMPDEST POP DUP1 PUSH2 0x180D JUMP JUMPDEST ADD MLOAD SWAP1 POP DUP7 DUP1 PUSH2 0x1584 JUMP JUMPDEST SWAP3 POP PUSH1 0x2 DUP5 ADD PUSH1 0x0 MSTORE PUSH1 0x20 PUSH1 0x0 KECCAK256 SWAP1 PUSH1 0x0 SWAP4 JUMPDEST PUSH1 0x1F NOT DUP5 AND DUP6 LT PUSH2 0x1898 JUMPI PUSH1 0x1 SWAP5 POP DUP4 PUSH1 0x1F NOT DUP2 AND LT PUSH2 0x187F JUMPI JUMPDEST POP POP POP DUP2 SHL ADD PUSH1 0x2 DUP3 ADD SSTORE PUSH2 0x159C JUMP JUMPDEST ADD MLOAD PUSH1 0x0 NOT PUSH1 0xF8 DUP5 PUSH1 0x3 SHL AND SHR NOT AND SWAP1 SSTORE DUP7 DUP1 DUP1 PUSH2 0x186F JUMP JUMPDEST DUP2 DUP2 ADD MLOAD DUP4 SSTORE PUSH1 0x20 SWAP5 DUP6 ADD SWAP5 PUSH1 0x1 SWAP1 SWAP4 ADD SWAP3 SWAP1 SWAP2 ADD SWAP1 PUSH2 0x1854 JUMP JUMPDEST SWAP1 SWAP2 POP PUSH1 0x2 DUP5 ADD PUSH1 0x0 MSTORE PUSH1 0x20 PUSH1 0x0 KECCAK256 PUSH1 0x1F DUP5 ADD PUSH1 0x5 SHR DUP2 ADD PUSH1 0x20 DUP6 LT PUSH2 0x18FF JUMPI JUMPDEST SWAP1 DUP5 SWAP4 SWAP3 SWAP2 JUMPDEST PUSH1 0x1F DUP4 ADD PUSH1 0x5 SHR DUP3 ADD DUP2 LT PUSH2 0x18F0 JUMPI POP POP PUSH2 0x156D JUMP JUMPDEST PUSH1 0x0 DUP2 SSTORE DUP6 SWAP5 POP PUSH1 0x1 ADD PUSH2 0x18DA JUMP JUMPDEST POP DUP1 PUSH2 0x18D4 JUMP JUMPDEST PUSH1 0x40 MLOAD PUSH3 0x461BCD PUSH1 0xE5 SHL DUP2 MSTORE PUSH1 0x20 PUSH1 0x4 DUP3 ADD MSTORE PUSH1 0x14 PUSH1 0x24 DUP3 ADD MSTORE PUSH20 0x11195CD8DC9A5C1D1A5BDB881C995C5D5A5C9959 PUSH1 0x62 SHL PUSH1 0x44 DUP3 ADD MSTORE PUSH1 0x64 SWAP1 REVERT JUMPDEST PUSH1 0x40 MLOAD PUSH3 0x461BCD PUSH1 0xE5 SHL DUP2 MSTORE PUSH1 0x20 PUSH1 0x4 DUP3 ADD MSTORE PUSH1 0xE PUSH1 0x24 DUP3 ADD MSTORE PUSH14 0x151A5D1B19481C995C5D5A5C9959 PUSH1 0x92 SHL PUSH1 0x44 DUP3 ADD MSTORE PUSH1 0x64 SWAP1 REVERT JUMPDEST PUSH1 0x40 MLOAD PUSH3 0x461BCD PUSH1 0xE5 SHL DUP2 MSTORE PUSH1 0x20 PUSH1 0x4 DUP3 ADD MSTORE PUSH1 0x17 PUSH1 0x24 DUP3 ADD MSTORE PUSH32 0x496E73756666696369656E742072657075746174696F6E000000000000000000 PUSH1 0x44 DUP3 ADD MSTORE PUSH1 0x64 SWAP1 REVERT JUMPDEST PUSH2 0x19D5 SWAP2 POP PUSH1 0xC0 RETURNDATASIZE DUP2 GT PUSH2 0xE5E JUMPI PUSH2 0xE50 DUP2 DUP4 PUSH2 0x1BC9 JUMP JUMPDEST DUP5 PUSH2 0x1454 JUMP JUMPDEST PUSH2 0x19F4 SWAP2 POP PUSH1 0x20 RETURNDATASIZE PUSH1 0x20 GT PUSH2 0xF03 JUMPI PUSH2 0xEF5 DUP2 DUP4 PUSH2 0x1BC9 JUMP JUMPDEST DUP5 PUSH2 0xAFA JUMP JUMPDEST CALLVALUE PUSH2 0x206 JUMPI PUSH1 0x20 CALLDATASIZE PUSH1 0x3 NOT ADD SLT PUSH2 0x206 JUMPI PUSH1 0x4 CALLDATALOAD PUSH4 0xFFFFFFFF PUSH1 0xE0 SHL DUP2 AND DUP1 SWAP2 SUB PUSH2 0x206 JUMPI PUSH1 0x20 SWAP1 PUSH4 0x7965DB0B PUSH1 0xE0 SHL DUP2 EQ SWAP1 DUP2 ISZERO PUSH2 0x1A3F JUMPI JUMPDEST POP PUSH1 0x40 MLOAD SWAP1 ISZERO ISZERO DUP2 MSTORE RETURN JUMPDEST PUSH4 0x1FFC9A7 PUSH1 0xE0 SHL EQ SWAP1 POP DUP3 PUSH2 0x1A34 JUMP JUMPDEST CALLVALUE PUSH2 0x206 JUMPI PUSH1 0x20 CALLDATASIZE PUSH1 0x3 NOT ADD SLT PUSH2 0x206 JUMPI PUSH1 0x4 CALLDATALOAD PUSH1 0x0 MSTORE PUSH1 0x4 PUSH1 0x20 MSTORE PUSH1 0x40 PUSH1 0x0 KECCAK256 DUP1 SLOAD PUSH1 0x1 DUP3 ADD SLOAD PUSH1 0xFF AND SWAP2 PUSH1 0x2 DUP2 ADD PUSH2 0x1A89 SWAP1 PUSH2 0x1BEB JUMP JUMPDEST PUSH2 0x1A95 PUSH1 0x3 DUP4 ADD PUSH2 0x1BEB JUMP JUMPDEST SWAP2 PUSH1 0x1 PUSH1 0xA0 SHL PUSH1 0x1 SWAP1 SUB PUSH1 0x4 DUP3 ADD SLOAD AND SWAP3 PUSH1 0x5 DUP3 ADD SLOAD PUSH1 0x6 DUP4 ADD SLOAD PUSH1 0x7 DUP5 ADD SLOAD PUSH1 0x8 DUP6 ADD SLOAD SWAP2 PUSH1 0x9 DUP7 ADD SLOAD SWAP4 PUSH1 0xA DUP8 ADD SLOAD PUSH1 0xFF AND SWAP6 PUSH1 0xB DUP9 ADD SLOAD SWAP8 PUSH1 0xC ADD SLOAD PUSH1 0xFF AND SWAP9 PUSH1 0x40 MLOAD SWAP13 DUP14 SWAP13 DUP14 MSTORE PUSH2 0x1AE9 DUP2 PUSH2 0x1C91 JUMP JUMPDEST PUSH1 0x20 DUP14 ADD MSTORE DUP12 PUSH2 0x1A0 PUSH1 0x40 DUP2 SWAP3 ADD MSTORE DUP13 ADD PUSH2 0x1B03 SWAP2 PUSH2 0x1CB1 JUMP JUMPDEST DUP12 DUP2 SUB PUSH1 0x60 DUP14 ADD MSTORE PUSH2 0x1B14 SWAP2 PUSH2 0x1CB1 JUMP JUMPDEST SWAP9 PUSH1 0x80 DUP12 ADD MSTORE PUSH1 0xA0 DUP11 ADD MSTORE PUSH1 0xC0 DUP10 ADD MSTORE PUSH1 0xE0 DUP9 ADD MSTORE PUSH2 0x100 DUP8 ADD MSTORE PUSH2 0x120 DUP7 ADD MSTORE PUSH2 0x1B3E DUP2 PUSH2 0x1C91 JUMP JUMPDEST PUSH2 0x140 DUP6 ADD MSTORE PUSH2 0x160 DUP5 ADD MSTORE ISZERO ISZERO PUSH2 0x180 DUP4 ADD MSTORE SUB SWAP1 RETURN JUMPDEST SWAP1 PUSH1 0x1 DUP3 DUP2 SHR SWAP3 AND DUP1 ISZERO PUSH2 0x1B86 JUMPI JUMPDEST PUSH1 0x20 DUP4 LT EQ PUSH2 0x1B70 JUMPI JUMP JUMPDEST PUSH4 0x4E487B71 PUSH1 0xE0 SHL PUSH1 0x0 MSTORE PUSH1 0x22 PUSH1 0x4 MSTORE PUSH1 0x24 PUSH1 0x0 REVERT JUMPDEST SWAP2 PUSH1 0x7F AND SWAP2 PUSH2 0x1B65 JUMP JUMPDEST PUSH2 0x1A0 DUP2 ADD SWAP1 DUP2 LT PUSH8 0xFFFFFFFFFFFFFFFF DUP3 GT OR PUSH2 0x1758 JUMPI PUSH1 0x40 MSTORE JUMP JUMPDEST PUSH1 0xA0 DUP2 ADD SWAP1 DUP2 LT PUSH8 0xFFFFFFFFFFFFFFFF DUP3 GT OR PUSH2 0x1758 JUMPI PUSH1 0x40 MSTORE JUMP JUMPDEST SWAP1 PUSH1 0x1F DUP1 NOT SWAP2 ADD AND DUP2 ADD SWAP1 DUP2 LT PUSH8 0xFFFFFFFFFFFFFFFF DUP3 GT OR PUSH2 0x1758 JUMPI PUSH1 0x40 MSTORE JUMP JUMPDEST SWAP1 PUSH1 0x40 MLOAD SWAP2 DUP3 PUSH1 0x0 DUP3 SLOAD SWAP3 PUSH2 0x1BFF DUP5 PUSH2 0x1B56 JUMP JUMPDEST SWAP1 DUP2 DUP5 MSTORE PUSH1 0x1 SWAP5 DUP6 DUP2 AND SWAP1 DUP2 PUSH1 0x0 EQ PUSH2 0x1C6E JUMPI POP PUSH1 0x1 EQ PUSH2 0x1C2B JUMPI JUMPDEST POP POP PUSH2 0x1C29 SWAP3 POP SUB DUP4 PUSH2 0x1BC9 JUMP JUMPDEST JUMP JUMPDEST SWAP1 SWAP4 SWAP2 POP PUSH1 0x0 MSTORE PUSH1 0x20 SWAP1 DUP2 PUSH1 0x0 KECCAK256 SWAP4 PUSH1 0x0 SWAP2 JUMPDEST DUP2 DUP4 LT PUSH2 0x1C56 JUMPI POP POP PUSH2 0x1C29 SWAP4 POP DUP3 ADD ADD CODESIZE DUP1 PUSH2 0x1C1B JUMP JUMPDEST DUP6 SLOAD DUP9 DUP5 ADD DUP6 ADD MSTORE SWAP5 DUP6 ADD SWAP5 DUP8 SWAP5 POP SWAP2 DUP4 ADD SWAP2 PUSH2 0x1C3E JUMP JUMPDEST SWAP2 POP POP PUSH2 0x1C29 SWAP5 POP PUSH1 0x20 SWAP3 POP PUSH1 0xFF NOT AND DUP3 DUP5 ADD MSTORE ISZERO ISZERO PUSH1 0x5 SHL DUP3 ADD ADD CODESIZE DUP1 PUSH2 0x1C1B JUMP JUMPDEST PUSH1 0x6 GT ISZERO PUSH2 0x1C9B JUMPI JUMP JUMPDEST PUSH4 0x4E487B71 PUSH1 0xE0 SHL PUSH1 0x0 MSTORE PUSH1 0x21 PUSH1 0x4 MSTORE PUSH1 0x24 PUSH1 0x0 REVERT JUMPDEST SWAP2 SWAP1 DUP3 MLOAD SWAP3 DUP4 DUP3 MSTORE PUSH1 0x0 JUMPDEST DUP5 DUP2 LT PUSH2 0x1CDD JUMPI POP POP DUP3 PUSH1 0x0 PUSH1 0x20 DUP1 SWAP5 SWAP6 DUP5 ADD ADD MSTORE PUSH1 0x1F DUP1 NOT SWAP2 ADD AND ADD ADD SWAP1 JUMP JUMPDEST PUSH1 0x20 DUP2 DUP4 ADD DUP2 ADD MLOAD DUP5 DUP4 ADD DUP3 ADD MSTORE ADD PUSH2 0x1CBC JUMP JUMPDEST DUP2 PUSH1 0x1F DUP3 ADD SLT ISZERO PUSH2 0x206 JUMPI DUP1 CALLDATALOAD SWAP1 PUSH8 0xFFFFFFFFFFFFFFFF DUP3 GT PUSH2 0x1758 JUMPI PUSH1 0x40 MLOAD SWAP3 PUSH2 0x1D26 PUSH1 0x1F DUP5 ADD PUSH1 0x1F NOT AND PUSH1 0x20 ADD DUP6 PUSH2 0x1BC9 JUMP JUMPDEST DUP3 DUP5 MSTORE PUSH1 0x20 DUP4 DUP4 ADD ADD GT PUSH2 0x206 JUMPI DUP2 PUSH1 0x0 SWAP3 PUSH1 0x20 DUP1 SWAP4 ADD DUP4 DUP7 ADD CALLDATACOPY DUP4 ADD ADD MSTORE SWAP1 JUMP JUMPDEST PUSH1 0x4 CALLDATALOAD SWAP1 PUSH1 0x1 PUSH1 0x1 PUSH1 0xA0 SHL SUB DUP3 AND DUP3 SUB PUSH2 0x206 JUMPI JUMP JUMPDEST PUSH1 0x24 CALLDATALOAD SWAP1 PUSH1 0x1 PUSH1 0x1 PUSH1 0xA0 SHL SUB DUP3 AND DUP3 SUB PUSH2 0x206 JUMPI JUMP JUMPDEST DUP1 SLOAD DUP3 LT ISZERO PUSH2 0x1D8C JUMPI PUSH1 0x0 MSTORE PUSH1 0x20 PUSH1 0x0 KECCAK256 ADD SWAP1 PUSH1 0x0 SWAP1 JUMP JUMPDEST PUSH4 0x4E487B71 PUSH1 0xE0 SHL PUSH1 0x0 MSTORE PUSH1 0x32 PUSH1 0x4 MSTORE PUSH1 0x24 PUSH1 0x0 REVERT JUMPDEST CALLER PUSH1 0x0 SWAP1 DUP2 MSTORE PUSH32 0x7D7FFB7A348E1C6A02869081A26547B49160DD3DF72D1D75A570EB9B698292EC PUSH1 0x20 MSTORE PUSH1 0x40 SWAP1 KECCAK256 SLOAD PUSH32 0xA49807205CE4D355092EF5A8A18F56E8913CF4A201FBE287825B095693C21775 SWAP1 PUSH1 0xFF AND ISZERO PUSH2 0x1DFE JUMPI POP JUMP JUMPDEST PUSH1 0x44 SWAP1 PUSH1 0x40 MLOAD SWAP1 PUSH4 0xE2517D3F PUSH1 0xE0 SHL DUP3 MSTORE CALLER PUSH1 0x4 DUP4 ADD MSTORE PUSH1 0x24 DUP3 ADD MSTORE REVERT JUMPDEST DUP1 PUSH1 0x0 MSTORE PUSH1 0x0 PUSH1 0x20 MSTORE PUSH1 0x40 PUSH1 0x0 KECCAK256 CALLER PUSH1 0x0 MSTORE PUSH1 0x20 MSTORE PUSH1 0xFF PUSH1 0x40 PUSH1 0x0 KECCAK256 SLOAD AND ISZERO PUSH2 0x1DFE JUMPI POP JUMP JUMPDEST PUSH1 0x1 PUSH1 0x1 PUSH1 0xA0 SHL SUB AND PUSH1 0x0 DUP2 DUP2 MSTORE PUSH32 0x3412D5605AC6CD444957CEDB533E5DACAD6378B4BC819EBE3652188A665066D5 PUSH1 0x20 MSTORE PUSH1 0x40 DUP2 KECCAK256 SLOAD SWAP1 SWAP2 SWAP1 PUSH32 0xB09AA5AEB3702CFD50B6B62BC4532604938F21248A27A1D5CA736082B6819CC1 SWAP1 PUSH1 0xFF AND PUSH2 0x1EEF JUMPI DUP1 DUP4 MSTORE DUP3 PUSH1 0x20 MSTORE PUSH1 0x40 DUP4 KECCAK256 DUP3 DUP5 MSTORE PUSH1 0x20 MSTORE PUSH1 0x40 DUP4 KECCAK256 PUSH1 0x1 PUSH1 0xFF NOT DUP3 SLOAD AND OR SWAP1 SSTORE PUSH32 0x2F8788117E7EFF1D82E926EC794901D17C78024A50270940304540A733656F0D CALLER SWAP4 DUP1 LOG4 PUSH1 0x1 SWAP1 JUMP JUMPDEST POP POP SWAP1 JUMP JUMPDEST SWAP1 PUSH1 0x0 SWAP2 DUP1 DUP4 MSTORE DUP3 PUSH1 0x20 MSTORE PUSH1 0x40 DUP4 KECCAK256 SWAP2 PUSH1 0x1 DUP1 PUSH1 0xA0 SHL SUB AND SWAP2 DUP3 DUP5 MSTORE PUSH1 0x20 MSTORE PUSH1 0xFF PUSH1 0x40 DUP5 KECCAK256 SLOAD AND ISZERO PUSH1 0x0 EQ PUSH2 0x1EEF JUMPI DUP1 DUP4 MSTORE DUP3 PUSH1 0x20 MSTORE PUSH1 0x40 DUP4 KECCAK256 DUP3 DUP5 MSTORE PUSH1 0x20 MSTORE PUSH1 0x40 DUP4 KECCAK256 PUSH1 0x1 PUSH1 0xFF NOT DUP3 SLOAD AND OR SWAP1 SSTORE PUSH32 0x2F8788117E7EFF1D82E926EC794901D17C78024A50270940304540A733656F0D CALLER SWAP4 DUP1 LOG4 PUSH1 0x1 SWAP1 JUMP JUMPDEST SWAP1 PUSH1 0x0 SWAP2 DUP1 DUP4 MSTORE DUP3 PUSH1 0x20 MSTORE PUSH1 0x40 DUP4 KECCAK256 SWAP2 PUSH1 0x1 DUP1 PUSH1 0xA0 SHL SUB AND SWAP2 DUP3 DUP5 MSTORE PUSH1 0x20 MSTORE PUSH1 0xFF PUSH1 0x40 DUP5 KECCAK256 SLOAD AND PUSH1 0x0 EQ PUSH2 0x1EEF JUMPI DUP1 DUP4 MSTORE DUP3 PUSH1 0x20 MSTORE PUSH1 0x40 DUP4 KECCAK256 DUP3 DUP5 MSTORE PUSH1 0x20 MSTORE PUSH1 0x40 DUP4 KECCAK256 PUSH1 0xFF NOT DUP2 SLOAD AND SWAP1 SSTORE PUSH32 0xF6391F5C32D9C69D2A47EA670B442974B53935D1EDC7FD64EB21E047A839171B CALLER SWAP4 DUP1 LOG4 PUSH1 0x1 SWAP1 JUMP JUMPDEST SWAP1 DUP2 PUSH1 0x20 SWAP2 SUB SLT PUSH2 0x206 JUMPI MLOAD DUP1 ISZERO ISZERO DUP2 SUB PUSH2 0x206 JUMPI SWAP1 JUMP JUMPDEST ISZERO PUSH2 0x2001 JUMPI JUMP JUMPDEST PUSH1 0x40 MLOAD PUSH3 0x461BCD PUSH1 0xE5 SHL DUP2 MSTORE PUSH1 0x20 PUSH1 0x4 DUP3 ADD MSTORE PUSH1 0x14 PUSH1 0x24 DUP3 ADD MSTORE PUSH20 0x139BDD081D995C9A599A5959081CDD1D59195B9D PUSH1 0x62 SHL PUSH1 0x44 DUP3 ADD MSTORE PUSH1 0x64 SWAP1 REVERT JUMPDEST SWAP1 DUP2 PUSH1 0xC0 SWAP2 SUB SLT PUSH2 0x206 JUMPI PUSH1 0x40 MLOAD SWAP1 PUSH1 0xC0 DUP3 ADD SWAP1 DUP3 DUP3 LT PUSH8 0xFFFFFFFFFFFFFFFF DUP4 GT OR PUSH2 0x1758 JUMPI PUSH1 0xA0 SWAP2 PUSH1 0x40 MSTORE DUP1 MLOAD DUP4 MSTORE PUSH1 0x20 DUP2 ADD MLOAD PUSH1 0x20 DUP5 ADD MSTORE PUSH1 0x40 DUP2 ADD MLOAD PUSH1 0x40 DUP5 ADD MSTORE PUSH1 0x60 DUP2 ADD MLOAD PUSH1 0x60 DUP5 ADD MSTORE PUSH1 0x80 DUP2 ADD MLOAD PUSH1 0x80 DUP5 ADD MSTORE ADD MLOAD PUSH1 0xA0 DUP3 ADD MSTORE SWAP1 JUMP JUMPDEST SWAP2 SWAP1 DUP3 ADD DUP1 SWAP3 GT PUSH2 0x102E JUMPI JUMP JUMPDEST ISZERO PUSH2 0x20B4 JUMPI JUMP JUMPDEST PUSH1 0x40 MLOAD PUSH3 0x461BCD PUSH1 0xE5 SHL DUP2 MSTORE PUSH1 0x20 PUSH1 0x4 DUP3 ADD MSTORE PUSH1 0x13 PUSH1 0x24 DUP3 ADD MSTORE PUSH19 0x50726F706F73616C206E6F7420616374697665 PUSH1 0x68 SHL PUSH1 0x44 DUP3 ADD MSTORE PUSH1 0x64 SWAP1 REVERT JUMPDEST DUP1 PUSH1 0x0 MSTORE PUSH1 0x4 PUSH1 0x20 MSTORE PUSH1 0x40 PUSH1 0x0 KECCAK256 PUSH1 0xA DUP2 ADD SWAP1 DUP2 SLOAD PUSH2 0x2116 PUSH1 0x1 PUSH1 0xFF DUP4 AND PUSH2 0x7EF DUP2 PUSH2 0x1C91 JUMP JUMPDEST PUSH1 0x6 DUP3 ADD SLOAD TIMESTAMP LT PUSH2 0x2215 JUMPI PUSH1 0x7 DUP3 ADD SLOAD SWAP1 PUSH2 0x2145 PUSH1 0x8 DUP5 ADD SLOAD SWAP4 PUSH1 0x9 PUSH2 0x213C DUP7 DUP7 PUSH2 0x20A0 JUMP JUMPDEST SWAP2 ADD SLOAD SWAP1 PUSH2 0x20A0 JUMP JUMPDEST PUSH1 0x9 SLOAD PUSH1 0xA DUP2 MUL SWAP1 DUP1 DUP3 DIV PUSH1 0xA EQ SWAP1 ISZERO OR ISZERO PUSH2 0x102E JUMPI PUSH1 0x64 SWAP1 DIV GT PUSH2 0x21DB JUMPI POP GT ISZERO PUSH2 0x21A3 JUMPI PUSH1 0x2 PUSH1 0xFF NOT DUP3 SLOAD AND OR SWAP1 SSTORE PUSH32 0x3346ABF262AC5179E9052765FB72484E0BAAB1F356F08442BB7A3054147631DE PUSH1 0x20 PUSH1 0x40 MLOAD PUSH1 0x2 DUP2 MSTORE LOG2 JUMP JUMPDEST PUSH1 0x3 PUSH1 0xFF NOT DUP3 SLOAD AND OR SWAP1 SSTORE PUSH32 0x3346ABF262AC5179E9052765FB72484E0BAAB1F356F08442BB7A3054147631DE PUSH1 0x20 PUSH1 0x40 MLOAD PUSH1 0x3 DUP2 MSTORE LOG2 JUMP JUMPDEST SWAP1 POP PUSH1 0x3 SWAP2 POP PUSH1 0xFF NOT AND OR SWAP1 SSTORE PUSH32 0x3346ABF262AC5179E9052765FB72484E0BAAB1F356F08442BB7A3054147631DE PUSH1 0x20 PUSH1 0x40 MLOAD PUSH1 0x3 DUP2 MSTORE LOG2 JUMP JUMPDEST PUSH1 0x40 MLOAD PUSH3 0x461BCD PUSH1 0xE5 SHL DUP2 MSTORE PUSH1 0x20 PUSH1 0x4 DUP3 ADD MSTORE PUSH1 0x14 PUSH1 0x24 DUP3 ADD MSTORE PUSH20 0x566F74696E67207374696C6C206F6E676F696E67 PUSH1 0x60 SHL PUSH1 0x44 DUP3 ADD MSTORE PUSH1 0x64 SWAP1 REVERT INVALID LOG2 PUSH5 0x6970667358 0x22 SLT KECCAK256 PUSH17 0xE2DC70413F2ACD93B1AAC227284093B909 0xCE PUSH30 0x3A1B05D2D9C3E7E64650381064736F6C634300081400332F8788117E7EFF SAR DUP3 0xE9 0x26 0xEC PUSH26 0x4901D17C78024A50270940304540A733656F0D00000000000000 "},"methodIdentifiers":{"ADMIN_ROLE()":"75b238fc","DEFAULT_ADMIN_ROLE()":"a217fddf","EXECUTION_DELAY()":"37f135d7","PROPOSAL_THRESHOLD()":"a6c26603","PROPOSER_ROLE()":"8f61f4f5","QUORUM_PERCENTAGE()":"ee8a7c15","VOTING_PERIOD()":"b1610d7e","cancelProposal(uint256,string)":"a351f615","castVote(uint256,bool,string)":"62aef6f0","createProposal(uint8,string,string)":"09553424","executeProposal(uint256)":"0d61b519","finalizeProposal(uint256)":"5652077c","getProposal(uint256)":"c7f758a8","getRoleAdmin(bytes32)":"248a9ca3","getUserProposals(address)":"78ef1138","getVote(uint256,address)":"bc3f931f","getVotingResults(uint256)":"cd89b2e3","grantProposerRole(address)":"fe0ea3e6","grantRole(bytes32,address)":"2f2ff15d","hasReachedQuorum(uint256)":"59abab05","hasRole(bytes32,address)":"91d14854","hasVoted(uint256,address)":"43859632","proposalCounter()":"0c0512e9","proposals(uint256)":"013cf08b","renounceRole(bytes32,address)":"36568abe","reputationContract()":"87bc1425","revokeRole(bytes32,address)":"d547741f","studentRegistry()":"92c16fb5","supportsInterface(bytes4)":"01ffc9a7","totalEligibleVoters()":"107b96d1","updateEligibleVoters(uint256)":"d0dcdc9f","userProposals(address,uint256)":"1b31527f","votes(uint256,address)":"d23254b4"}}}}}