{"contracts/features/ReputationContract.sol":{"ReputationContract":{"abi":[{"inputs":[{"internalType":"address","name":"_studentRegistry","type":"address"}],"stateMutability":"nonpayable","type":"constructor"},{"inputs":[],"name":"AccessControlBadConfirmation","type":"error"},{"inputs":[{"internalType":"address","name":"account","type":"address"},{"internalType":"bytes32","name":"neededRole","type":"bytes32"}],"name":"AccessControlUnauthorizedAccount","type":"error"},{"inputs":[],"name":"ReentrancyGuardReentrantCall","type":"error"},{"anonymous":false,"inputs":[{"indexed":true,"internalType":"address","name":"user","type":"address"},{"indexed":false,"internalType":"uint256","name":"newScore","type":"uint256"},{"indexed":false,"internalType":"int256","name":"change","type":"int256"},{"indexed":false,"internalType":"string","name":"reason","type":"string"}],"name":"ReputationUpdated","type":"event"},{"anonymous":false,"inputs":[{"indexed":true,"internalType":"bytes32","name":"role","type":"bytes32"},{"indexed":true,"internalType":"bytes32","name":"previousAdminRole","type":"bytes32"},{"indexed":true,"internalType":"bytes32","name":"newAdminRole","type":"bytes32"}],"name":"RoleAdminChanged","type":"event"},{"anonymous":false,"inputs":[{"indexed":true,"internalType":"bytes32","name":"role","type":"bytes32"},{"indexed":true,"internalType":"address","name":"account","type":"address"},{"indexed":true,"internalType":"address","name":"sender","type":"address"}],"name":"RoleGranted","type":"event"},{"anonymous":false,"inputs":[{"indexed":true,"internalType":"bytes32","name":"role","type":"bytes32"},{"indexed":true,"internalType":"address","name":"account","type":"address"},{"indexed":true,"internalType":"address","name":"sender","type":"address"}],"name":"RoleRevoked","type":"event"},{"anonymous":false,"inputs":[{"indexed":true,"internalType":"address","name":"user","type":"address"},{"indexed":false,"internalType":"uint256","name":"newLevel","type":"uint256"}],"name":"TrustLevelChanged","type":"event"},{"inputs":[],"name":"ADMIN_ROLE","outputs":[{"internalType":"bytes32","name":"","type":"bytes32"}],"stateMutability":"view","type":"function"},{"inputs":[],"name":"DEFAULT_ADMIN_ROLE","outputs":[{"internalType":"bytes32","name":"","type":"bytes32"}],"stateMutability":"view","type":"function"},{"inputs":[],"name":"INITIAL_REPUTATION","outputs":[{"internalType":"uint256","name":"","type":"uint256"}],"stateMutability":"view","type":"function"},{"inputs":[],"name":"MAX_REPUTATION","outputs":[{"internalType":"uint256","name":"","type":"uint256"}],"stateMutability":"view","type":"function"},{"inputs":[],"name":"REPUTATION_MANAGER_ROLE","outputs":[{"internalType":"bytes32","name":"","type":"bytes32"}],"stateMutability":"view","type":"function"},{"inputs":[{"internalType":"address","name":"user","type":"address"}],"name":"getReputationHistory","outputs":[{"components":[{"internalType":"uint256","name":"timestamp","type":"uint256"},{"internalType":"int256","name":"change","type":"int256"},{"internalType":"string","name":"reason","type":"string"}],"internalType":"struct ReputationContract.ReputationHistory[]","name":"","type":"tuple[]"}],"stateMutability":"view","type":"function"},{"inputs":[{"internalType":"address","name":"user","type":"address"}],"name":"getReputationScore","outputs":[{"components":[{"internalType":"uint256","name":"totalScore","type":"uint256"},{"internalType":"uint256","name":"feedbackQuality","type":"uint256"},{"internalType":"uint256","name":"communityEngagement","type":"uint256"},{"internalType":"uint256","name":"consistency","type":"uint256"},{"internalType":"uint256","name":"helpfulness","type":"uint256"},{"internalType":"uint256","name":"lastUpdated","type":"uint256"}],"internalType":"struct ReputationContract.ReputationScore","name":"","type":"tuple"}],"stateMutability":"view","type":"function"},{"inputs":[{"internalType":"bytes32","name":"role","type":"bytes32"}],"name":"getRoleAdmin","outputs":[{"internalType":"bytes32","name":"","type":"bytes32"}],"stateMutability":"view","type":"function"},{"inputs":[{"internalType":"address","name":"user","type":"address"}],"name":"getTrustLevel","outputs":[{"internalType":"uint256","name":"","type":"uint256"}],"stateMutability":"view","type":"function"},{"inputs":[{"internalType":"address","name":"manager","type":"address"}],"name":"grantReputationManagerRole","outputs":[],"stateMutability":"nonpayable","type":"function"},{"inputs":[{"internalType":"bytes32","name":"role","type":"bytes32"},{"internalType":"address","name":"account","type":"address"}],"name":"grantRole","outputs":[],"stateMutability":"nonpayable","type":"function"},{"inputs":[{"internalType":"bytes32","name":"role","type":"bytes32"},{"internalType":"address","name":"account","type":"address"}],"name":"hasRole","outputs":[{"internalType":"bool","name":"","type":"bool"}],"stateMutability":"view","type":"function"},{"inputs":[{"internalType":"address","name":"user","type":"address"}],"name":"initializeReputation","outputs":[],"stateMutability":"nonpayable","type":"function"},{"inputs":[{"internalType":"address","name":"user","type":"address"}],"name":"isTrustedUser","outputs":[{"internalType":"bool","name":"","type":"bool"}],"stateMutability":"view","type":"function"},{"inputs":[{"internalType":"bytes32","name":"role","type":"bytes32"},{"internalType":"address","name":"callerConfirmation","type":"address"}],"name":"renounceRole","outputs":[],"stateMutability":"nonpayable","type":"function"},{"inputs":[{"internalType":"address","name":"","type":"address"},{"internalType":"uint256","name":"","type":"uint256"}],"name":"reputationHistory","outputs":[{"internalType":"uint256","name":"timestamp","type":"uint256"},{"internalType":"int256","name":"change","type":"int256"},{"internalType":"string","name":"reason","type":"string"}],"stateMutability":"view","type":"function"},{"inputs":[{"internalType":"address","name":"","type":"address"}],"name":"reputationScores","outputs":[{"internalType":"uint256","name":"totalScore","type":"uint256"},{"internalType":"uint256","name":"feedbackQuality","type":"uint256"},{"internalType":"uint256","name":"communityEngagement","type":"uint256"},{"internalType":"uint256","name":"consistency","type":"uint256"},{"internalType":"uint256","name":"helpfulness","type":"uint256"},{"internalType":"uint256","name":"lastUpdated","type":"uint256"}],"stateMutability":"view","type":"function"},{"inputs":[{"internalType":"bytes32","name":"role","type":"bytes32"},{"internalType":"address","name":"account","type":"address"}],"name":"revokeRole","outputs":[],"stateMutability":"nonpayable","type":"function"},{"inputs":[],"name":"studentRegistry","outputs":[{"internalType":"contract StudentRegistryContract","name":"","type":"address"}],"stateMutability":"view","type":"function"},{"inputs":[{"internalType":"bytes4","name":"interfaceId","type":"bytes4"}],"name":"supportsInterface","outputs":[{"internalType":"bool","name":"","type":"bool"}],"stateMutability":"view","type":"function"},{"inputs":[{"internalType":"address","name":"","type":"address"}],"name":"trustLevel","outputs":[{"internalType":"uint256","name":"","type":"uint256"}],"stateMutability":"view","type":"function"},{"inputs":[{"internalType":"address","name":"user","type":"address"},{"internalType":"uint256","name":"engagementPoints","type":"uint256"}],"name":"updateCommunityEngagement","outputs":[],"stateMutability":"nonpayable","type":"function"},{"inputs":[{"internalType":"address","name":"user","type":"address"},{"internalType":"uint256","name":"consecutiveDays","type":"uint256"}],"name":"updateConsistency","outputs":[],"stateMutability":"nonpayable","type":"function"},{"inputs":[{"internalType":"address","name":"user","type":"address"},{"internalType":"uint256","name":"qualityScore","type":"uint256"}],"name":"updateFeedbackQuality","outputs":[],"stateMutability":"nonpayable","type":"function"},{"inputs":[{"internalType":"address","name":"user","type":"address"},{"internalType":"uint256","name":"helpfulActions","type":"uint256"}],"name":"updateHelpfulness","outputs":[],"stateMutability":"nonpayable","type":"function"}],"evm":{"bytecode":{"linkReferences":{},"object":"608034620000ee57601f6200177538819003918201601f19168301916001600160401b03831184841017620000f357808492602094604052833981010312620000ee57516001600160a01b03811690819003620000ee57600180558015620000a957600280546001600160a01b031916919091179055620000803362000109565b506200008c3362000189565b5062000098336200022b565b5060405161148c9081620002c98239f35b60405162461bcd60e51b815260206004820152601860248201527f496e76616c69642073747564656e7420726567697374727900000000000000006044820152606490fd5b600080fd5b634e487b7160e01b600052604160045260246000fd5b6001600160a01b031660008181527fad3228b676f7d3cd4284a5443f17f1962b36e491b30a40b2405849e597ba5fb5602052604081205490919060ff166200018557818052816020526040822081835260205260408220600160ff198254161790553391600080516020620017558339815191528180a4600190565b5090565b6001600160a01b031660008181527f7d7ffb7a348e1c6a02869081a26547b49160dd3df72d1d75a570eb9b698292ec60205260408120549091907fa49807205ce4d355092ef5a8a18f56e8913cf4a201fbe287825b095693c217759060ff166200022657808352826020526040832082845260205260408320600160ff1982541617905560008051602062001755833981519152339380a4600190565b505090565b6001600160a01b031660008181527fb470f2a4bcdb3397bb37cd2aed079057563c5c8c028f1abedb6d2e5f62946ce560205260408120549091907fa5df84d05f94c8e589750a34f9631c6df369aabc0811ccbbd233872ff60aec669060ff166200022657808352826020526040832082845260205260408320600160ff1982541617905560008051602062001755833981519152339380a460019056fe608060408181526004908136101561001657600080fd5b600092833560e01c90816301ffc9a714610bf15750806302cd2671146107355780630d84353614610b705780631b13767f14610b33578063225f312f14610a6c578063248a9ca314610a425780632a370262146109bb5780632f2ff15d1461099357806336568abe1461094c57806348bb0fe41461081257806357b264141461076d5780636a4b783d1461073557806375a67d5c1461066b57806375b238fc146106305780637b057258146106145780637bb27c111461042057806391d14854146103da57806392c16fb5146103b1578063a1c4eadb146102b7578063a217fddf1461029c578063bb32a7bd1461022d578063d213c0f214610210578063d547741f146101d3578063eb0fd86a146101a65763fe0438b21461013757600080fd5b346101a25760203660031901126101a25760c09281906001600160a01b0361015d610c45565b168152600360205220805492600182015492600283015490600560038501549385015494015494815196875260208701528501526060840152608083015260a0820152f35b8280fd5b8382346101cf57816003193601126101cf57602090516000805160206114378339815191528152f35b5080fd5b50346101a257806003193601126101a25761020c913561020760016101f6610c60565b938387528660205286200154610edb565b61101a565b5080f35b8382346101cf57816003193601126101cf57602090516127108152f35b5090346101a257816003193601126101a257610247610c45565b6001600160a01b0316835260205280822080546024359190821015610298579061027091610cb6565b5090610294825491610289600260018601549501610dae565b905193849384610e54565b0390f35b8380fd5b8382346101cf57816003193601126101cf5751908152602090f35b50346101a257806003193601126101a2576102d0610c45565b602435926102dc610e73565b6064841161037657506001600160a01b038116845260036020528184206103469260019261033d916050871061034e57600a905b519161031b83610d70565b601083526f466565646261636b207175616c69747960801b60208401526110b2565b0191825461108f565b60011c905580f35b603c871061035e57600590610310565b6028871061036d578790610310565b60041990610310565b606490602084519162461bcd60e51b83528201526015602482015274496e76616c6964207175616c6974792073636f726560581b6044820152fd5b8382346101cf57816003193601126101cf5760025490516001600160a01b039091168152602090f35b5090346101a257816003193601126101a2578160209360ff926103fb610c60565b903582528186528282206001600160a01b039091168252855220549151911615158152f35b50346101a257602090816003193601126102985761043c610c45565b92610445610e73565b6002548251631eb30aeb60e01b81526001600160a01b03958616838201819052959091859183916024918391165afa90811561060a5786916105d0575b501561059857838552600383526005828620015461056157916060827f9b1e893e493285a3405a5c07cc303ac6bd19e9ffcb22b5f6e2050457e45833db9460058760a09651926104d184610d54565b606484528a87850160148152868601601481528887019160148352886080890194601486528d8a0197428952815260038d522097518855516001880155516002870155516003860155519084015551910155600583526001818820556064815193818552840152820152601260608201527124b734ba34b0b6103932b83aba30ba34b7b760711b6080820152a280f35b82606492519162461bcd60e51b83528201526013602482015272105b1c9958591e481a5b9a5d1a585b1a5e9959606a1b6044820152fd5b82606492519162461bcd60e51b83528201526014602482015273139bdd081d995c9a599a5959081cdd1d59195b9d60621b6044820152fd5b90508381813d8311610603575b6105e78183610d8c565b810103126105ff575180151581036105ff5738610482565b8580fd5b503d6105dd565b83513d88823e3d90fd5b8382346101cf57816003193601126101cf576020905160648152f35b8382346101cf57816003193601126101cf57602090517fa49807205ce4d355092ef5a8a18f56e8913cf4a201fbe287825b095693c217758152f35b5090346101a25760203660031901126101a2578160c09361068a610c45565b8160a0845161069881610d54565b8281528260208201528286820152826060820152826080820152015260018060a01b031681526003602052208251916106d083610d54565b81549384845260018301546020850190815260028401549082860191825260a0600560038701549560608901968752870154966080890197885201549601958652825196875251602087015251908501525160608401525160808301525160a0820152f35b8382346101cf5760203660031901126101cf5760209181906001600160a01b0361075d610c45565b1681526005845220549051908152f35b509190346101cf5760203660031901126101cf57610789610c45565b907fa49807205ce4d355092ef5a8a18f56e8913cf4a201fbe287825b095693c217758084528360205284842033855260205260ff8585205416156107f5578361020c846107f060018960008051602061143783398151915286528560205285200154610edb565b610f01565b6044925084519163e2517d3f60e01b835233908301526024820152fd5b509190346101cf57602090816003193601126101a2576001600160a01b03610838610c45565b1683528082528383209182549167ffffffffffffffff831161093957509290845190610869858260051b0183610d8c565b8082528482018094845285842084915b8383106108f657505050508451938085019181865251809252858501868360051b8701019493965b8388106108ae5786860387f35b909192939483806108e5600193603f198b8203018752858a5180518352848101518584015201519060609081888201520190610c76565b9701930197019690939291936108a1565b6003886001928b9a97989a5161090b81610d22565b85548152848601548382015261092360028701610dae565b8d82015281520192019201919096949396610879565b634e487b7160e01b855260419052602484fd5b508290346101cf57806003193601126101cf57610967610c60565b90336001600160a01b03831603610984575061020c91923561101a565b5163334bd91960e11b81528390fd5b50346101a257806003193601126101a25761020c91356109b660016101f6610c60565b610fa1565b8382346101cf57806003193601126101cf57610a3d60026109da610c45565b92602435936109e7610e73565b610a2082516109f581610d70565b601481527310dbdb5b5d5b9a5d1e48195b99d859d95b595b9d60621b6020820152600a8704836110b2565b6001600160a01b031685526003602052842001805490929061108f565b905580f35b5090346101a25760203660031901126101a257816020936001923581528085522001549051908152f35b8382346101cf57806003193601126101cf57610a86610c45565b90602435610a92610e73565b8390601e8110610b0d5750506014915b838313610aad578380f35b81600391610ae7610b049451610ac281610d70565b6011815270436f6e73697374656e637920626f6e757360781b602082015286836110b2565b6001600160a01b031685526020829052842001805490929061108f565b90558180808380f35b600e8110610b1f575050600a91610aa2565b60079093919310610aa25760059250610aa2565b8382346101cf5760203660031901126101cf5760209160039082906001600160a01b03610b5e610c45565b16815260058552205410159051908152f35b508290346101cf57806003193601126101cf57610b8b610c45565b9260243591610b98610e73565b600383029483860460031484151715610bde57610a20610a3d949596835190610bc082610d70565b600b82526a48656c7066756c6e65737360a81b6020830152836110b2565b634e487b7160e01b855260118352602485fd5b849084346101a25760203660031901126101a2573563ffffffff60e01b81168091036101a25760209250637965db0b60e01b8114908115610c34575b5015158152f35b6301ffc9a760e01b14905083610c2d565b600435906001600160a01b0382168203610c5b57565b600080fd5b602435906001600160a01b0382168203610c5b57565b919082519283825260005b848110610ca2575050826000602080949584010152601f8019910116010190565b602081830181015184830182015201610c81565b8054821015610cd2576000526003602060002091020190600090565b634e487b7160e01b600052603260045260246000fd5b90600182811c92168015610d18575b6020831014610d0257565b634e487b7160e01b600052602260045260246000fd5b91607f1691610cf7565b6060810190811067ffffffffffffffff821117610d3e57604052565b634e487b7160e01b600052604160045260246000fd5b60c0810190811067ffffffffffffffff821117610d3e57604052565b6040810190811067ffffffffffffffff821117610d3e57604052565b90601f8019910116810190811067ffffffffffffffff821117610d3e57604052565b9060405191826000825492610dc284610ce8565b908184526001948581169081600014610e315750600114610dee575b5050610dec92500383610d8c565b565b9093915060005260209081600020936000915b818310610e19575050610dec93508201013880610dde565b85548884018501529485019487945091830191610e01565b915050610dec94506020925060ff191682840152151560051b8201013880610dde565b610e709392606092825260208201528160408201520190610c76565b90565b3360009081527fb470f2a4bcdb3397bb37cd2aed079057563c5c8c028f1abedb6d2e5f62946ce560205260409020546000805160206114378339815191529060ff1615610ebd5750565b6044906040519063e2517d3f60e01b82523360048301526024820152fd5b80600052600060205260406000203360005260205260ff6040600020541615610ebd5750565b6001600160a01b031660008181527fb470f2a4bcdb3397bb37cd2aed079057563c5c8c028f1abedb6d2e5f62946ce560205260408120549091906000805160206114378339815191529060ff16610f9c57808352826020526040832082845260205260408320600160ff198254161790557f2f8788117e7eff1d82e926ec794901d17c78024a50270940304540a733656f0d339380a4600190565b505090565b9060009180835282602052604083209160018060a01b03169182845260205260ff60408420541615600014610f9c57808352826020526040832082845260205260408320600160ff198254161790557f2f8788117e7eff1d82e926ec794901d17c78024a50270940304540a733656f0d339380a4600190565b9060009180835282602052604083209160018060a01b03169182845260205260ff604084205416600014610f9c5780835282602052604083208284526020526040832060ff1981541690557ff6391f5c32d9c69d2a47ea670b442974b53935d1edc7fd64eb21e047a839171b339380a4600190565b9190820180921161109c57565b634e487b7160e01b600052601160045260246000fd5b60018060a01b031691600090838252602060038152604092838120918186136000146113d3576110e386845461108f565b8084556127108091116113cb575b505b4260058401558682526004815284822091855161110f81610d22565b42815282810190888252878101918783528554680100000000000000008110156113b757611144906001978882018155610cb6565b9290926113a3579060029291518255518682015501905180519067ffffffffffffffff821161138f5790829161117e8c9796959454610ce8565b601f8111611338575b508490601f83116001146112a05791807f9b1e893e493285a3405a5c07cc303ac6bd19e9ffcb22b5f6e2050457e45833db9c9b9a9896949286946112209b999792611295575b5050600019600383901b1c191690851b1790555b8381526003825287812054600583529088902080549093909161138881106112585750506005905b8103611225575b5050505054925193849384610e54565b0390a2565b807f1335d4939950a807ce3264d6ab223ac056f238cf4fd0450f4f88ffa6e1532be293558751908152a286388080611210565b6107d0811061126b575050600490611209565b6103e8811061127e575050600390611209565b6101f41161128f5750600290611209565b90611209565b0151905038806111cd565b838552858520919b9a99989796959493929190601f198316855b8181106113205750917f9b1e893e493285a3405a5c07cc303ac6bd19e9ffcb22b5f6e2050457e45833db9d849289989796956112209d9c9b9a9510611307575b505050811b0190556111e1565b015160001960f88460031b161c191690553880806112fa565b828f015184559d87019d8f99509288019287016112ba565b9091928481959697985052858520601f840160051c810191878510611385575b90601f8e99989796959493920160051c01905b8181106113785750611187565b8581558d9850870161136b565b9091508190611358565b634e487b7160e01b84526041600452602484fd5b634e487b7160e01b85526004859052602485fd5b634e487b7160e01b85526041600452602485fd5b8355386110f1565b818612156110f357600160ff1b86146114225785820383541160001461141a5782548681019081116114065783556110f3565b634e487b7160e01b83526011600452602483fd5b8183556110f3565b634e487b7160e01b82526011600452602482fdfea5df84d05f94c8e589750a34f9631c6df369aabc0811ccbbd233872ff60aec66a26469706673582212206fa96b48d3953576dfeca090515b18c5fcacac9868816c2789e8ac06ac803e5c64736f6c634300081400332f8788117e7eff1d82e926ec794901d17c78024a50270940304540a733656f0d","opcodes":"PUSH1 0x80 CALLVALUE PUSH3 0xEE JUMPI PUSH1 0x1F PUSH3 0x1775 CODESIZE DUP2 SWAP1 SUB SWAP2 DUP3 ADD PUSH1 0x1F NOT AND DUP4 ADD SWAP2 PUSH1 0x1 PUSH1 0x1 PUSH1 0x40 SHL SUB DUP4 GT DUP5 DUP5 LT OR PUSH3 0xF3 JUMPI DUP1 DUP5 SWAP3 PUSH1 0x20 SWAP5 PUSH1 0x40 MSTORE DUP4 CODECOPY DUP2 ADD SUB SLT PUSH3 0xEE JUMPI MLOAD PUSH1 0x1 PUSH1 0x1 PUSH1 0xA0 SHL SUB DUP2 AND SWAP1 DUP2 SWAP1 SUB PUSH3 0xEE JUMPI PUSH1 0x1 DUP1 SSTORE DUP1 ISZERO PUSH3 0xA9 JUMPI PUSH1 0x2 DUP1 SLOAD PUSH1 0x1 PUSH1 0x1 PUSH1 0xA0 SHL SUB NOT AND SWAP2 SWAP1 SWAP2 OR SWAP1 SSTORE PUSH3 0x80 CALLER PUSH3 0x109 JUMP JUMPDEST POP PUSH3 0x8C CALLER PUSH3 0x189 JUMP JUMPDEST POP PUSH3 0x98 CALLER PUSH3 0x22B JUMP JUMPDEST POP PUSH1 0x40 MLOAD PUSH2 0x148C SWAP1 DUP2 PUSH3 0x2C9 DUP3 CODECOPY RETURN JUMPDEST PUSH1 0x40 MLOAD PUSH3 0x461BCD PUSH1 0xE5 SHL DUP2 MSTORE PUSH1 0x20 PUSH1 0x4 DUP3 ADD MSTORE PUSH1 0x18 PUSH1 0x24 DUP3 ADD MSTORE PUSH32 0x496E76616C69642073747564656E742072656769737472790000000000000000 PUSH1 0x44 DUP3 ADD MSTORE PUSH1 0x64 SWAP1 REVERT JUMPDEST PUSH1 0x0 DUP1 REVERT JUMPDEST PUSH4 0x4E487B71 PUSH1 0xE0 SHL PUSH1 0x0 MSTORE PUSH1 0x41 PUSH1 0x4 MSTORE PUSH1 0x24 PUSH1 0x0 REVERT JUMPDEST PUSH1 0x1 PUSH1 0x1 PUSH1 0xA0 SHL SUB AND PUSH1 0x0 DUP2 DUP2 MSTORE PUSH32 0xAD3228B676F7D3CD4284A5443F17F1962B36E491B30A40B2405849E597BA5FB5 PUSH1 0x20 MSTORE PUSH1 0x40 DUP2 KECCAK256 SLOAD SWAP1 SWAP2 SWAP1 PUSH1 0xFF AND PUSH3 0x185 JUMPI DUP2 DUP1 MSTORE DUP2 PUSH1 0x20 MSTORE PUSH1 0x40 DUP3 KECCAK256 DUP2 DUP4 MSTORE PUSH1 0x20 MSTORE PUSH1 0x40 DUP3 KECCAK256 PUSH1 0x1 PUSH1 0xFF NOT DUP3 SLOAD AND OR SWAP1 SSTORE CALLER SWAP2 PUSH1 0x0 DUP1 MLOAD PUSH1 0x20 PUSH3 0x1755 DUP4 CODECOPY DUP2 MLOAD SWAP2 MSTORE DUP2 DUP1 LOG4 PUSH1 0x1 SWAP1 JUMP JUMPDEST POP SWAP1 JUMP JUMPDEST PUSH1 0x1 PUSH1 0x1 PUSH1 0xA0 SHL SUB AND PUSH1 0x0 DUP2 DUP2 MSTORE PUSH32 0x7D7FFB7A348E1C6A02869081A26547B49160DD3DF72D1D75A570EB9B698292EC PUSH1 0x20 MSTORE PUSH1 0x40 DUP2 KECCAK256 SLOAD SWAP1 SWAP2 SWAP1 PUSH32 0xA49807205CE4D355092EF5A8A18F56E8913CF4A201FBE287825B095693C21775 SWAP1 PUSH1 0xFF AND PUSH3 0x226 JUMPI DUP1 DUP4 MSTORE DUP3 PUSH1 0x20 MSTORE PUSH1 0x40 DUP4 KECCAK256 DUP3 DUP5 MSTORE PUSH1 0x20 MSTORE PUSH1 0x40 DUP4 KECCAK256 PUSH1 0x1 PUSH1 0xFF NOT DUP3 SLOAD AND OR SWAP1 SSTORE PUSH1 0x0 DUP1 MLOAD PUSH1 0x20 PUSH3 0x1755 DUP4 CODECOPY DUP2 MLOAD SWAP2 MSTORE CALLER SWAP4 DUP1 LOG4 PUSH1 0x1 SWAP1 JUMP JUMPDEST POP POP SWAP1 JUMP JUMPDEST PUSH1 0x1 PUSH1 0x1 PUSH1 0xA0 SHL SUB AND PUSH1 0x0 DUP2 DUP2 MSTORE PUSH32 0xB470F2A4BCDB3397BB37CD2AED079057563C5C8C028F1ABEDB6D2E5F62946CE5 PUSH1 0x20 MSTORE PUSH1 0x40 DUP2 KECCAK256 SLOAD SWAP1 SWAP2 SWAP1 PUSH32 0xA5DF84D05F94C8E589750A34F9631C6DF369AABC0811CCBBD233872FF60AEC66 SWAP1 PUSH1 0xFF AND PUSH3 0x226 JUMPI DUP1 DUP4 MSTORE DUP3 PUSH1 0x20 MSTORE PUSH1 0x40 DUP4 KECCAK256 DUP3 DUP5 MSTORE PUSH1 0x20 MSTORE PUSH1 0x40 DUP4 KECCAK256 PUSH1 0x1 PUSH1 0xFF NOT DUP3 SLOAD AND OR SWAP1 SSTORE PUSH1 0x0 DUP1 MLOAD PUSH1 0x20 PUSH3 0x1755 DUP4 CODECOPY DUP2 MLOAD SWAP2 MSTORE CALLER SWAP4 DUP1 LOG4 PUSH1 0x1 SWAP1 JUMP INVALID PUSH1 0x80 PUSH1 0x40 DUP2 DUP2 MSTORE PUSH1 0x4 SWAP1 DUP2 CALLDATASIZE LT ISZERO PUSH2 0x16 JUMPI PUSH1 0x0 DUP1 REVERT JUMPDEST PUSH1 0x0 SWAP3 DUP4 CALLDATALOAD PUSH1 0xE0 SHR SWAP1 DUP2 PUSH4 0x1FFC9A7 EQ PUSH2 0xBF1 JUMPI POP DUP1 PUSH4 0x2CD2671 EQ PUSH2 0x735 JUMPI DUP1 PUSH4 0xD843536 EQ PUSH2 0xB70 JUMPI DUP1 PUSH4 0x1B13767F EQ PUSH2 0xB33 JUMPI DUP1 PUSH4 0x225F312F EQ PUSH2 0xA6C JUMPI DUP1 PUSH4 0x248A9CA3 EQ PUSH2 0xA42 JUMPI DUP1 PUSH4 0x2A370262 EQ PUSH2 0x9BB JUMPI DUP1 PUSH4 0x2F2FF15D EQ PUSH2 0x993 JUMPI DUP1 PUSH4 0x36568ABE EQ PUSH2 0x94C JUMPI DUP1 PUSH4 0x48BB0FE4 EQ PUSH2 0x812 JUMPI DUP1 PUSH4 0x57B26414 EQ PUSH2 0x76D JUMPI DUP1 PUSH4 0x6A4B783D EQ PUSH2 0x735 JUMPI DUP1 PUSH4 0x75A67D5C EQ PUSH2 0x66B JUMPI DUP1 PUSH4 0x75B238FC EQ PUSH2 0x630 JUMPI DUP1 PUSH4 0x7B057258 EQ PUSH2 0x614 JUMPI DUP1 PUSH4 0x7BB27C11 EQ PUSH2 0x420 JUMPI DUP1 PUSH4 0x91D14854 EQ PUSH2 0x3DA JUMPI DUP1 PUSH4 0x92C16FB5 EQ PUSH2 0x3B1 JUMPI DUP1 PUSH4 0xA1C4EADB EQ PUSH2 0x2B7 JUMPI DUP1 PUSH4 0xA217FDDF EQ PUSH2 0x29C JUMPI DUP1 PUSH4 0xBB32A7BD EQ PUSH2 0x22D JUMPI DUP1 PUSH4 0xD213C0F2 EQ PUSH2 0x210 JUMPI DUP1 PUSH4 0xD547741F EQ PUSH2 0x1D3 JUMPI DUP1 PUSH4 0xEB0FD86A EQ PUSH2 0x1A6 JUMPI PUSH4 0xFE0438B2 EQ PUSH2 0x137 JUMPI PUSH1 0x0 DUP1 REVERT JUMPDEST CALLVALUE PUSH2 0x1A2 JUMPI PUSH1 0x20 CALLDATASIZE PUSH1 0x3 NOT ADD SLT PUSH2 0x1A2 JUMPI PUSH1 0xC0 SWAP3 DUP2 SWAP1 PUSH1 0x1 PUSH1 0x1 PUSH1 0xA0 SHL SUB PUSH2 0x15D PUSH2 0xC45 JUMP JUMPDEST AND DUP2 MSTORE PUSH1 0x3 PUSH1 0x20 MSTORE KECCAK256 DUP1 SLOAD SWAP3 PUSH1 0x1 DUP3 ADD SLOAD SWAP3 PUSH1 0x2 DUP4 ADD SLOAD SWAP1 PUSH1 0x5 PUSH1 0x3 DUP6 ADD SLOAD SWAP4 DUP6 ADD SLOAD SWAP5 ADD SLOAD SWAP5 DUP2 MLOAD SWAP7 DUP8 MSTORE PUSH1 0x20 DUP8 ADD MSTORE DUP6 ADD MSTORE PUSH1 0x60 DUP5 ADD MSTORE PUSH1 0x80 DUP4 ADD MSTORE PUSH1 0xA0 DUP3 ADD MSTORE RETURN JUMPDEST DUP3 DUP1 REVERT JUMPDEST DUP4 DUP3 CALLVALUE PUSH2 0x1CF JUMPI DUP2 PUSH1 0x3 NOT CALLDATASIZE ADD SLT PUSH2 0x1CF JUMPI PUSH1 0x20 SWAP1 MLOAD PUSH1 0x0 DUP1 MLOAD PUSH1 0x20 PUSH2 0x1437 DUP4 CODECOPY DUP2 MLOAD SWAP2 MSTORE DUP2 MSTORE RETURN JUMPDEST POP DUP1 REVERT JUMPDEST POP CALLVALUE PUSH2 0x1A2 JUMPI DUP1 PUSH1 0x3 NOT CALLDATASIZE ADD SLT PUSH2 0x1A2 JUMPI PUSH2 0x20C SWAP2 CALLDATALOAD PUSH2 0x207 PUSH1 0x1 PUSH2 0x1F6 PUSH2 0xC60 JUMP JUMPDEST SWAP4 DUP4 DUP8 MSTORE DUP7 PUSH1 0x20 MSTORE DUP7 KECCAK256 ADD SLOAD PUSH2 0xEDB JUMP JUMPDEST PUSH2 0x101A JUMP JUMPDEST POP DUP1 RETURN JUMPDEST DUP4 DUP3 CALLVALUE PUSH2 0x1CF JUMPI DUP2 PUSH1 0x3 NOT CALLDATASIZE ADD SLT PUSH2 0x1CF JUMPI PUSH1 0x20 SWAP1 MLOAD PUSH2 0x2710 DUP2 MSTORE RETURN JUMPDEST POP SWAP1 CALLVALUE PUSH2 0x1A2 JUMPI DUP2 PUSH1 0x3 NOT CALLDATASIZE ADD SLT PUSH2 0x1A2 JUMPI PUSH2 0x247 PUSH2 0xC45 JUMP JUMPDEST PUSH1 0x1 PUSH1 0x1 PUSH1 0xA0 SHL SUB AND DUP4 MSTORE PUSH1 0x20 MSTORE DUP1 DUP3 KECCAK256 DUP1 SLOAD PUSH1 0x24 CALLDATALOAD SWAP2 SWAP1 DUP3 LT ISZERO PUSH2 0x298 JUMPI SWAP1 PUSH2 0x270 SWAP2 PUSH2 0xCB6 JUMP JUMPDEST POP SWAP1 PUSH2 0x294 DUP3 SLOAD SWAP2 PUSH2 0x289 PUSH1 0x2 PUSH1 0x1 DUP7 ADD SLOAD SWAP6 ADD PUSH2 0xDAE JUMP JUMPDEST SWAP1 MLOAD SWAP4 DUP5 SWAP4 DUP5 PUSH2 0xE54 JUMP JUMPDEST SUB SWAP1 RETURN JUMPDEST DUP4 DUP1 REVERT JUMPDEST DUP4 DUP3 CALLVALUE PUSH2 0x1CF JUMPI DUP2 PUSH1 0x3 NOT CALLDATASIZE ADD SLT PUSH2 0x1CF JUMPI MLOAD SWAP1 DUP2 MSTORE PUSH1 0x20 SWAP1 RETURN JUMPDEST POP CALLVALUE PUSH2 0x1A2 JUMPI DUP1 PUSH1 0x3 NOT CALLDATASIZE ADD SLT PUSH2 0x1A2 JUMPI PUSH2 0x2D0 PUSH2 0xC45 JUMP JUMPDEST PUSH1 0x24 CALLDATALOAD SWAP3 PUSH2 0x2DC PUSH2 0xE73 JUMP JUMPDEST PUSH1 0x64 DUP5 GT PUSH2 0x376 JUMPI POP PUSH1 0x1 PUSH1 0x1 PUSH1 0xA0 SHL SUB DUP2 AND DUP5 MSTORE PUSH1 0x3 PUSH1 0x20 MSTORE DUP2 DUP5 KECCAK256 PUSH2 0x346 SWAP3 PUSH1 0x1 SWAP3 PUSH2 0x33D SWAP2 PUSH1 0x50 DUP8 LT PUSH2 0x34E JUMPI PUSH1 0xA SWAP1 JUMPDEST MLOAD SWAP2 PUSH2 0x31B DUP4 PUSH2 0xD70 JUMP JUMPDEST PUSH1 0x10 DUP4 MSTORE PUSH16 0x466565646261636B207175616C697479 PUSH1 0x80 SHL PUSH1 0x20 DUP5 ADD MSTORE PUSH2 0x10B2 JUMP JUMPDEST ADD SWAP2 DUP3 SLOAD PUSH2 0x108F JUMP JUMPDEST PUSH1 0x1 SHR SWAP1 SSTORE DUP1 RETURN JUMPDEST PUSH1 0x3C DUP8 LT PUSH2 0x35E JUMPI PUSH1 0x5 SWAP1 PUSH2 0x310 JUMP JUMPDEST PUSH1 0x28 DUP8 LT PUSH2 0x36D JUMPI DUP8 SWAP1 PUSH2 0x310 JUMP JUMPDEST PUSH1 0x4 NOT SWAP1 PUSH2 0x310 JUMP JUMPDEST PUSH1 0x64 SWAP1 PUSH1 0x20 DUP5 MLOAD SWAP2 PUSH3 0x461BCD PUSH1 0xE5 SHL DUP4 MSTORE DUP3 ADD MSTORE PUSH1 0x15 PUSH1 0x24 DUP3 ADD MSTORE PUSH21 0x496E76616C6964207175616C6974792073636F7265 PUSH1 0x58 SHL PUSH1 0x44 DUP3 ADD MSTORE REVERT JUMPDEST DUP4 DUP3 CALLVALUE PUSH2 0x1CF JUMPI DUP2 PUSH1 0x3 NOT CALLDATASIZE ADD SLT PUSH2 0x1CF JUMPI PUSH1 0x2 SLOAD SWAP1 MLOAD PUSH1 0x1 PUSH1 0x1 PUSH1 0xA0 SHL SUB SWAP1 SWAP2 AND DUP2 MSTORE PUSH1 0x20 SWAP1 RETURN JUMPDEST POP SWAP1 CALLVALUE PUSH2 0x1A2 JUMPI DUP2 PUSH1 0x3 NOT CALLDATASIZE ADD SLT PUSH2 0x1A2 JUMPI DUP2 PUSH1 0x20 SWAP4 PUSH1 0xFF SWAP3 PUSH2 0x3FB PUSH2 0xC60 JUMP JUMPDEST SWAP1 CALLDATALOAD DUP3 MSTORE DUP2 DUP7 MSTORE DUP3 DUP3 KECCAK256 PUSH1 0x1 PUSH1 0x1 PUSH1 0xA0 SHL SUB SWAP1 SWAP2 AND DUP3 MSTORE DUP6 MSTORE KECCAK256 SLOAD SWAP2 MLOAD SWAP2 AND ISZERO ISZERO DUP2 MSTORE RETURN JUMPDEST POP CALLVALUE PUSH2 0x1A2 JUMPI PUSH1 0x20 SWAP1 DUP2 PUSH1 0x3 NOT CALLDATASIZE ADD SLT PUSH2 0x298 JUMPI PUSH2 0x43C PUSH2 0xC45 JUMP JUMPDEST SWAP3 PUSH2 0x445 PUSH2 0xE73 JUMP JUMPDEST PUSH1 0x2 SLOAD DUP3 MLOAD PUSH4 0x1EB30AEB PUSH1 0xE0 SHL DUP2 MSTORE PUSH1 0x1 PUSH1 0x1 PUSH1 0xA0 SHL SUB SWAP6 DUP7 AND DUP4 DUP3 ADD DUP2 SWAP1 MSTORE SWAP6 SWAP1 SWAP2 DUP6 SWAP2 DUP4 SWAP2 PUSH1 0x24 SWAP2 DUP4 SWAP2 AND GAS STATICCALL SWAP1 DUP2 ISZERO PUSH2 0x60A JUMPI DUP7 SWAP2 PUSH2 0x5D0 JUMPI JUMPDEST POP ISZERO PUSH2 0x598 JUMPI DUP4 DUP6 MSTORE PUSH1 0x3 DUP4 MSTORE PUSH1 0x5 DUP3 DUP7 KECCAK256 ADD SLOAD PUSH2 0x561 JUMPI SWAP2 PUSH1 0x60 DUP3 PUSH32 0x9B1E893E493285A3405A5C07CC303AC6BD19E9FFCB22B5F6E2050457E45833DB SWAP5 PUSH1 0x5 DUP8 PUSH1 0xA0 SWAP7 MLOAD SWAP3 PUSH2 0x4D1 DUP5 PUSH2 0xD54 JUMP JUMPDEST PUSH1 0x64 DUP5 MSTORE DUP11 DUP8 DUP6 ADD PUSH1 0x14 DUP2 MSTORE DUP7 DUP7 ADD PUSH1 0x14 DUP2 MSTORE DUP9 DUP8 ADD SWAP2 PUSH1 0x14 DUP4 MSTORE DUP9 PUSH1 0x80 DUP10 ADD SWAP5 PUSH1 0x14 DUP7 MSTORE DUP14 DUP11 ADD SWAP8 TIMESTAMP DUP10 MSTORE DUP2 MSTORE PUSH1 0x3 DUP14 MSTORE KECCAK256 SWAP8 MLOAD DUP9 SSTORE MLOAD PUSH1 0x1 DUP9 ADD SSTORE MLOAD PUSH1 0x2 DUP8 ADD SSTORE MLOAD PUSH1 0x3 DUP7 ADD SSTORE MLOAD SWAP1 DUP5 ADD SSTORE MLOAD SWAP2 ADD SSTORE PUSH1 0x5 DUP4 MSTORE PUSH1 0x1 DUP2 DUP9 KECCAK256 SSTORE PUSH1 0x64 DUP2 MLOAD SWAP4 DUP2 DUP6 MSTORE DUP5 ADD MSTORE DUP3 ADD MSTORE PUSH1 0x12 PUSH1 0x60 DUP3 ADD MSTORE PUSH18 0x24B734BA34B0B6103932B83ABA30BA34B7B7 PUSH1 0x71 SHL PUSH1 0x80 DUP3 ADD MSTORE LOG2 DUP1 RETURN JUMPDEST DUP3 PUSH1 0x64 SWAP3 MLOAD SWAP2 PUSH3 0x461BCD PUSH1 0xE5 SHL DUP4 MSTORE DUP3 ADD MSTORE PUSH1 0x13 PUSH1 0x24 DUP3 ADD MSTORE PUSH19 0x105B1C9958591E481A5B9A5D1A585B1A5E9959 PUSH1 0x6A SHL PUSH1 0x44 DUP3 ADD MSTORE REVERT JUMPDEST DUP3 PUSH1 0x64 SWAP3 MLOAD SWAP2 PUSH3 0x461BCD PUSH1 0xE5 SHL DUP4 MSTORE DUP3 ADD MSTORE PUSH1 0x14 PUSH1 0x24 DUP3 ADD MSTORE PUSH20 0x139BDD081D995C9A599A5959081CDD1D59195B9D PUSH1 0x62 SHL PUSH1 0x44 DUP3 ADD MSTORE REVERT JUMPDEST SWAP1 POP DUP4 DUP2 DUP2 RETURNDATASIZE DUP4 GT PUSH2 0x603 JUMPI JUMPDEST PUSH2 0x5E7 DUP2 DUP4 PUSH2 0xD8C JUMP JUMPDEST DUP2 ADD SUB SLT PUSH2 0x5FF JUMPI MLOAD DUP1 ISZERO ISZERO DUP2 SUB PUSH2 0x5FF JUMPI CODESIZE PUSH2 0x482 JUMP JUMPDEST DUP6 DUP1 REVERT JUMPDEST POP RETURNDATASIZE PUSH2 0x5DD JUMP JUMPDEST DUP4 MLOAD RETURNDATASIZE DUP9 DUP3 RETURNDATACOPY RETURNDATASIZE SWAP1 REVERT JUMPDEST DUP4 DUP3 CALLVALUE PUSH2 0x1CF JUMPI DUP2 PUSH1 0x3 NOT CALLDATASIZE ADD SLT PUSH2 0x1CF JUMPI PUSH1 0x20 SWAP1 MLOAD PUSH1 0x64 DUP2 MSTORE RETURN JUMPDEST DUP4 DUP3 CALLVALUE PUSH2 0x1CF JUMPI DUP2 PUSH1 0x3 NOT CALLDATASIZE ADD SLT PUSH2 0x1CF JUMPI PUSH1 0x20 SWAP1 MLOAD PUSH32 0xA49807205CE4D355092EF5A8A18F56E8913CF4A201FBE287825B095693C21775 DUP2 MSTORE RETURN JUMPDEST POP SWAP1 CALLVALUE PUSH2 0x1A2 JUMPI PUSH1 0x20 CALLDATASIZE PUSH1 0x3 NOT ADD SLT PUSH2 0x1A2 JUMPI DUP2 PUSH1 0xC0 SWAP4 PUSH2 0x68A PUSH2 0xC45 JUMP JUMPDEST DUP2 PUSH1 0xA0 DUP5 MLOAD PUSH2 0x698 DUP2 PUSH2 0xD54 JUMP JUMPDEST DUP3 DUP2 MSTORE DUP3 PUSH1 0x20 DUP3 ADD MSTORE DUP3 DUP7 DUP3 ADD MSTORE DUP3 PUSH1 0x60 DUP3 ADD MSTORE DUP3 PUSH1 0x80 DUP3 ADD MSTORE ADD MSTORE PUSH1 0x1 DUP1 PUSH1 0xA0 SHL SUB AND DUP2 MSTORE PUSH1 0x3 PUSH1 0x20 MSTORE KECCAK256 DUP3 MLOAD SWAP2 PUSH2 0x6D0 DUP4 PUSH2 0xD54 JUMP JUMPDEST DUP2 SLOAD SWAP4 DUP5 DUP5 MSTORE PUSH1 0x1 DUP4 ADD SLOAD PUSH1 0x20 DUP6 ADD SWAP1 DUP2 MSTORE PUSH1 0x2 DUP5 ADD SLOAD SWAP1 DUP3 DUP7 ADD SWAP2 DUP3 MSTORE PUSH1 0xA0 PUSH1 0x5 PUSH1 0x3 DUP8 ADD SLOAD SWAP6 PUSH1 0x60 DUP10 ADD SWAP7 DUP8 MSTORE DUP8 ADD SLOAD SWAP7 PUSH1 0x80 DUP10 ADD SWAP8 DUP9 MSTORE ADD SLOAD SWAP7 ADD SWAP6 DUP7 MSTORE DUP3 MLOAD SWAP7 DUP8 MSTORE MLOAD PUSH1 0x20 DUP8 ADD MSTORE MLOAD SWAP1 DUP6 ADD MSTORE MLOAD PUSH1 0x60 DUP5 ADD MSTORE MLOAD PUSH1 0x80 DUP4 ADD MSTORE MLOAD PUSH1 0xA0 DUP3 ADD MSTORE RETURN JUMPDEST DUP4 DUP3 CALLVALUE PUSH2 0x1CF JUMPI PUSH1 0x20 CALLDATASIZE PUSH1 0x3 NOT ADD SLT PUSH2 0x1CF JUMPI PUSH1 0x20 SWAP2 DUP2 SWAP1 PUSH1 0x1 PUSH1 0x1 PUSH1 0xA0 SHL SUB PUSH2 0x75D PUSH2 0xC45 JUMP JUMPDEST AND DUP2 MSTORE PUSH1 0x5 DUP5 MSTORE KECCAK256 SLOAD SWAP1 MLOAD SWAP1 DUP2 MSTORE RETURN JUMPDEST POP SWAP2 SWAP1 CALLVALUE PUSH2 0x1CF JUMPI PUSH1 0x20 CALLDATASIZE PUSH1 0x3 NOT ADD SLT PUSH2 0x1CF JUMPI PUSH2 0x789 PUSH2 0xC45 JUMP JUMPDEST SWAP1 PUSH32 0xA49807205CE4D355092EF5A8A18F56E8913CF4A201FBE287825B095693C21775 DUP1 DUP5 MSTORE DUP4 PUSH1 0x20 MSTORE DUP5 DUP5 KECCAK256 CALLER DUP6 MSTORE PUSH1 0x20 MSTORE PUSH1 0xFF DUP6 DUP6 KECCAK256 SLOAD AND ISZERO PUSH2 0x7F5 JUMPI DUP4 PUSH2 0x20C DUP5 PUSH2 0x7F0 PUSH1 0x1 DUP10 PUSH1 0x0 DUP1 MLOAD PUSH1 0x20 PUSH2 0x1437 DUP4 CODECOPY DUP2 MLOAD SWAP2 MSTORE DUP7 MSTORE DUP6 PUSH1 0x20 MSTORE DUP6 KECCAK256 ADD SLOAD PUSH2 0xEDB JUMP JUMPDEST PUSH2 0xF01 JUMP JUMPDEST PUSH1 0x44 SWAP3 POP DUP5 MLOAD SWAP2 PUSH4 0xE2517D3F PUSH1 0xE0 SHL DUP4 MSTORE CALLER SWAP1 DUP4 ADD MSTORE PUSH1 0x24 DUP3 ADD MSTORE REVERT JUMPDEST POP SWAP2 SWAP1 CALLVALUE PUSH2 0x1CF JUMPI PUSH1 0x20 SWAP1 DUP2 PUSH1 0x3 NOT CALLDATASIZE ADD SLT PUSH2 0x1A2 JUMPI PUSH1 0x1 PUSH1 0x1 PUSH1 0xA0 SHL SUB PUSH2 0x838 PUSH2 0xC45 JUMP JUMPDEST AND DUP4 MSTORE DUP1 DUP3 MSTORE DUP4 DUP4 KECCAK256 SWAP2 DUP3 SLOAD SWAP2 PUSH8 0xFFFFFFFFFFFFFFFF DUP4 GT PUSH2 0x939 JUMPI POP SWAP3 SWAP1 DUP5 MLOAD SWAP1 PUSH2 0x869 DUP6 DUP3 PUSH1 0x5 SHL ADD DUP4 PUSH2 0xD8C JUMP JUMPDEST DUP1 DUP3 MSTORE DUP5 DUP3 ADD DUP1 SWAP5 DUP5 MSTORE DUP6 DUP5 KECCAK256 DUP5 SWAP2 JUMPDEST DUP4 DUP4 LT PUSH2 0x8F6 JUMPI POP POP POP POP DUP5 MLOAD SWAP4 DUP1 DUP6 ADD SWAP2 DUP2 DUP7 MSTORE MLOAD DUP1 SWAP3 MSTORE DUP6 DUP6 ADD DUP7 DUP4 PUSH1 0x5 SHL DUP8 ADD ADD SWAP5 SWAP4 SWAP7 JUMPDEST DUP4 DUP9 LT PUSH2 0x8AE JUMPI DUP7 DUP7 SUB DUP8 RETURN JUMPDEST SWAP1 SWAP2 SWAP3 SWAP4 SWAP5 DUP4 DUP1 PUSH2 0x8E5 PUSH1 0x1 SWAP4 PUSH1 0x3F NOT DUP12 DUP3 SUB ADD DUP8 MSTORE DUP6 DUP11 MLOAD DUP1 MLOAD DUP4 MSTORE DUP5 DUP2 ADD MLOAD DUP6 DUP5 ADD MSTORE ADD MLOAD SWAP1 PUSH1 0x60 SWAP1 DUP2 DUP9 DUP3 ADD MSTORE ADD SWAP1 PUSH2 0xC76 JUMP JUMPDEST SWAP8 ADD SWAP4 ADD SWAP8 ADD SWAP7 SWAP1 SWAP4 SWAP3 SWAP2 SWAP4 PUSH2 0x8A1 JUMP JUMPDEST PUSH1 0x3 DUP9 PUSH1 0x1 SWAP3 DUP12 SWAP11 SWAP8 SWAP9 SWAP11 MLOAD PUSH2 0x90B DUP2 PUSH2 0xD22 JUMP JUMPDEST DUP6 SLOAD DUP2 MSTORE DUP5 DUP7 ADD SLOAD DUP4 DUP3 ADD MSTORE PUSH2 0x923 PUSH1 0x2 DUP8 ADD PUSH2 0xDAE JUMP JUMPDEST DUP14 DUP3 ADD MSTORE DUP2 MSTORE ADD SWAP3 ADD SWAP3 ADD SWAP2 SWAP1 SWAP7 SWAP5 SWAP4 SWAP7 PUSH2 0x879 JUMP JUMPDEST PUSH4 0x4E487B71 PUSH1 0xE0 SHL DUP6 MSTORE PUSH1 0x41 SWAP1 MSTORE PUSH1 0x24 DUP5 REVERT JUMPDEST POP DUP3 SWAP1 CALLVALUE PUSH2 0x1CF JUMPI DUP1 PUSH1 0x3 NOT CALLDATASIZE ADD SLT PUSH2 0x1CF JUMPI PUSH2 0x967 PUSH2 0xC60 JUMP JUMPDEST SWAP1 CALLER PUSH1 0x1 PUSH1 0x1 PUSH1 0xA0 SHL SUB DUP4 AND SUB PUSH2 0x984 JUMPI POP PUSH2 0x20C SWAP2 SWAP3 CALLDATALOAD PUSH2 0x101A JUMP JUMPDEST MLOAD PUSH4 0x334BD919 PUSH1 0xE1 SHL DUP2 MSTORE DUP4 SWAP1 REVERT JUMPDEST POP CALLVALUE PUSH2 0x1A2 JUMPI DUP1 PUSH1 0x3 NOT CALLDATASIZE ADD SLT PUSH2 0x1A2 JUMPI PUSH2 0x20C SWAP2 CALLDATALOAD PUSH2 0x9B6 PUSH1 0x1 PUSH2 0x1F6 PUSH2 0xC60 JUMP JUMPDEST PUSH2 0xFA1 JUMP JUMPDEST DUP4 DUP3 CALLVALUE PUSH2 0x1CF JUMPI DUP1 PUSH1 0x3 NOT CALLDATASIZE ADD SLT PUSH2 0x1CF JUMPI PUSH2 0xA3D PUSH1 0x2 PUSH2 0x9DA PUSH2 0xC45 JUMP JUMPDEST SWAP3 PUSH1 0x24 CALLDATALOAD SWAP4 PUSH2 0x9E7 PUSH2 0xE73 JUMP JUMPDEST PUSH2 0xA20 DUP3 MLOAD PUSH2 0x9F5 DUP2 PUSH2 0xD70 JUMP JUMPDEST PUSH1 0x14 DUP2 MSTORE PUSH20 0x10DBDB5B5D5B9A5D1E48195B99D859D95B595B9D PUSH1 0x62 SHL PUSH1 0x20 DUP3 ADD MSTORE PUSH1 0xA DUP8 DIV DUP4 PUSH2 0x10B2 JUMP JUMPDEST PUSH1 0x1 PUSH1 0x1 PUSH1 0xA0 SHL SUB AND DUP6 MSTORE PUSH1 0x3 PUSH1 0x20 MSTORE DUP5 KECCAK256 ADD DUP1 SLOAD SWAP1 SWAP3 SWAP1 PUSH2 0x108F JUMP JUMPDEST SWAP1 SSTORE DUP1 RETURN JUMPDEST POP SWAP1 CALLVALUE PUSH2 0x1A2 JUMPI PUSH1 0x20 CALLDATASIZE PUSH1 0x3 NOT ADD SLT PUSH2 0x1A2 JUMPI DUP2 PUSH1 0x20 SWAP4 PUSH1 0x1 SWAP3 CALLDATALOAD DUP2 MSTORE DUP1 DUP6 MSTORE KECCAK256 ADD SLOAD SWAP1 MLOAD SWAP1 DUP2 MSTORE RETURN JUMPDEST DUP4 DUP3 CALLVALUE PUSH2 0x1CF JUMPI DUP1 PUSH1 0x3 NOT CALLDATASIZE ADD SLT PUSH2 0x1CF JUMPI PUSH2 0xA86 PUSH2 0xC45 JUMP JUMPDEST SWAP1 PUSH1 0x24 CALLDATALOAD PUSH2 0xA92 PUSH2 0xE73 JUMP JUMPDEST DUP4 SWAP1 PUSH1 0x1E DUP2 LT PUSH2 0xB0D JUMPI POP POP PUSH1 0x14 SWAP2 JUMPDEST DUP4 DUP4 SGT PUSH2 0xAAD JUMPI DUP4 DUP1 RETURN JUMPDEST DUP2 PUSH1 0x3 SWAP2 PUSH2 0xAE7 PUSH2 0xB04 SWAP5 MLOAD PUSH2 0xAC2 DUP2 PUSH2 0xD70 JUMP JUMPDEST PUSH1 0x11 DUP2 MSTORE PUSH17 0x436F6E73697374656E637920626F6E7573 PUSH1 0x78 SHL PUSH1 0x20 DUP3 ADD MSTORE DUP7 DUP4 PUSH2 0x10B2 JUMP JUMPDEST PUSH1 0x1 PUSH1 0x1 PUSH1 0xA0 SHL SUB AND DUP6 MSTORE PUSH1 0x20 DUP3 SWAP1 MSTORE DUP5 KECCAK256 ADD DUP1 SLOAD SWAP1 SWAP3 SWAP1 PUSH2 0x108F JUMP JUMPDEST SWAP1 SSTORE DUP2 DUP1 DUP1 DUP4 DUP1 RETURN JUMPDEST PUSH1 0xE DUP2 LT PUSH2 0xB1F JUMPI POP POP PUSH1 0xA SWAP2 PUSH2 0xAA2 JUMP JUMPDEST PUSH1 0x7 SWAP1 SWAP4 SWAP2 SWAP4 LT PUSH2 0xAA2 JUMPI PUSH1 0x5 SWAP3 POP PUSH2 0xAA2 JUMP JUMPDEST DUP4 DUP3 CALLVALUE PUSH2 0x1CF JUMPI PUSH1 0x20 CALLDATASIZE PUSH1 0x3 NOT ADD SLT PUSH2 0x1CF JUMPI PUSH1 0x20 SWAP2 PUSH1 0x3 SWAP1 DUP3 SWAP1 PUSH1 0x1 PUSH1 0x1 PUSH1 0xA0 SHL SUB PUSH2 0xB5E PUSH2 0xC45 JUMP JUMPDEST AND DUP2 MSTORE PUSH1 0x5 DUP6 MSTORE KECCAK256 SLOAD LT ISZERO SWAP1 MLOAD SWAP1 DUP2 MSTORE RETURN JUMPDEST POP DUP3 SWAP1 CALLVALUE PUSH2 0x1CF JUMPI DUP1 PUSH1 0x3 NOT CALLDATASIZE ADD SLT PUSH2 0x1CF JUMPI PUSH2 0xB8B PUSH2 0xC45 JUMP JUMPDEST SWAP3 PUSH1 0x24 CALLDATALOAD SWAP2 PUSH2 0xB98 PUSH2 0xE73 JUMP JUMPDEST PUSH1 0x3 DUP4 MUL SWAP5 DUP4 DUP7 DIV PUSH1 0x3 EQ DUP5 ISZERO OR ISZERO PUSH2 0xBDE JUMPI PUSH2 0xA20 PUSH2 0xA3D SWAP5 SWAP6 SWAP7 DUP4 MLOAD SWAP1 PUSH2 0xBC0 DUP3 PUSH2 0xD70 JUMP JUMPDEST PUSH1 0xB DUP3 MSTORE PUSH11 0x48656C7066756C6E657373 PUSH1 0xA8 SHL PUSH1 0x20 DUP4 ADD MSTORE DUP4 PUSH2 0x10B2 JUMP JUMPDEST PUSH4 0x4E487B71 PUSH1 0xE0 SHL DUP6 MSTORE PUSH1 0x11 DUP4 MSTORE PUSH1 0x24 DUP6 REVERT JUMPDEST DUP5 SWAP1 DUP5 CALLVALUE PUSH2 0x1A2 JUMPI PUSH1 0x20 CALLDATASIZE PUSH1 0x3 NOT ADD SLT PUSH2 0x1A2 JUMPI CALLDATALOAD PUSH4 0xFFFFFFFF PUSH1 0xE0 SHL DUP2 AND DUP1 SWAP2 SUB PUSH2 0x1A2 JUMPI PUSH1 0x20 SWAP3 POP PUSH4 0x7965DB0B PUSH1 0xE0 SHL DUP2 EQ SWAP1 DUP2 ISZERO PUSH2 0xC34 JUMPI JUMPDEST POP ISZERO ISZERO DUP2 MSTORE RETURN JUMPDEST PUSH4 0x1FFC9A7 PUSH1 0xE0 SHL EQ SWAP1 POP DUP4 PUSH2 0xC2D JUMP JUMPDEST PUSH1 0x4 CALLDATALOAD SWAP1 PUSH1 0x1 PUSH1 0x1 PUSH1 0xA0 SHL SUB DUP3 AND DUP3 SUB PUSH2 0xC5B JUMPI JUMP JUMPDEST PUSH1 0x0 DUP1 REVERT JUMPDEST PUSH1 0x24 CALLDATALOAD SWAP1 PUSH1 0x1 PUSH1 0x1 PUSH1 0xA0 SHL SUB DUP3 AND DUP3 SUB PUSH2 0xC5B JUMPI JUMP JUMPDEST SWAP2 SWAP1 DUP3 MLOAD SWAP3 DUP4 DUP3 MSTORE PUSH1 0x0 JUMPDEST DUP5 DUP2 LT PUSH2 0xCA2 JUMPI POP POP DUP3 PUSH1 0x0 PUSH1 0x20 DUP1 SWAP5 SWAP6 DUP5 ADD ADD MSTORE PUSH1 0x1F DUP1 NOT SWAP2 ADD AND ADD ADD SWAP1 JUMP JUMPDEST PUSH1 0x20 DUP2 DUP4 ADD DUP2 ADD MLOAD DUP5 DUP4 ADD DUP3 ADD MSTORE ADD PUSH2 0xC81 JUMP JUMPDEST DUP1 SLOAD DUP3 LT ISZERO PUSH2 0xCD2 JUMPI PUSH1 0x0 MSTORE PUSH1 0x3 PUSH1 0x20 PUSH1 0x0 KECCAK256 SWAP2 MUL ADD SWAP1 PUSH1 0x0 SWAP1 JUMP JUMPDEST PUSH4 0x4E487B71 PUSH1 0xE0 SHL PUSH1 0x0 MSTORE PUSH1 0x32 PUSH1 0x4 MSTORE PUSH1 0x24 PUSH1 0x0 REVERT JUMPDEST SWAP1 PUSH1 0x1 DUP3 DUP2 SHR SWAP3 AND DUP1 ISZERO PUSH2 0xD18 JUMPI JUMPDEST PUSH1 0x20 DUP4 LT EQ PUSH2 0xD02 JUMPI JUMP JUMPDEST PUSH4 0x4E487B71 PUSH1 0xE0 SHL PUSH1 0x0 MSTORE PUSH1 0x22 PUSH1 0x4 MSTORE PUSH1 0x24 PUSH1 0x0 REVERT JUMPDEST SWAP2 PUSH1 0x7F AND SWAP2 PUSH2 0xCF7 JUMP JUMPDEST PUSH1 0x60 DUP2 ADD SWAP1 DUP2 LT PUSH8 0xFFFFFFFFFFFFFFFF DUP3 GT OR PUSH2 0xD3E JUMPI PUSH1 0x40 MSTORE JUMP JUMPDEST PUSH4 0x4E487B71 PUSH1 0xE0 SHL PUSH1 0x0 MSTORE PUSH1 0x41 PUSH1 0x4 MSTORE PUSH1 0x24 PUSH1 0x0 REVERT JUMPDEST PUSH1 0xC0 DUP2 ADD SWAP1 DUP2 LT PUSH8 0xFFFFFFFFFFFFFFFF DUP3 GT OR PUSH2 0xD3E JUMPI PUSH1 0x40 MSTORE JUMP JUMPDEST PUSH1 0x40 DUP2 ADD SWAP1 DUP2 LT PUSH8 0xFFFFFFFFFFFFFFFF DUP3 GT OR PUSH2 0xD3E JUMPI PUSH1 0x40 MSTORE JUMP JUMPDEST SWAP1 PUSH1 0x1F DUP1 NOT SWAP2 ADD AND DUP2 ADD SWAP1 DUP2 LT PUSH8 0xFFFFFFFFFFFFFFFF DUP3 GT OR PUSH2 0xD3E JUMPI PUSH1 0x40 MSTORE JUMP JUMPDEST SWAP1 PUSH1 0x40 MLOAD SWAP2 DUP3 PUSH1 0x0 DUP3 SLOAD SWAP3 PUSH2 0xDC2 DUP5 PUSH2 0xCE8 JUMP JUMPDEST SWAP1 DUP2 DUP5 MSTORE PUSH1 0x1 SWAP5 DUP6 DUP2 AND SWAP1 DUP2 PUSH1 0x0 EQ PUSH2 0xE31 JUMPI POP PUSH1 0x1 EQ PUSH2 0xDEE JUMPI JUMPDEST POP POP PUSH2 0xDEC SWAP3 POP SUB DUP4 PUSH2 0xD8C JUMP JUMPDEST JUMP JUMPDEST SWAP1 SWAP4 SWAP2 POP PUSH1 0x0 MSTORE PUSH1 0x20 SWAP1 DUP2 PUSH1 0x0 KECCAK256 SWAP4 PUSH1 0x0 SWAP2 JUMPDEST DUP2 DUP4 LT PUSH2 0xE19 JUMPI POP POP PUSH2 0xDEC SWAP4 POP DUP3 ADD ADD CODESIZE DUP1 PUSH2 0xDDE JUMP JUMPDEST DUP6 SLOAD DUP9 DUP5 ADD DUP6 ADD MSTORE SWAP5 DUP6 ADD SWAP5 DUP8 SWAP5 POP SWAP2 DUP4 ADD SWAP2 PUSH2 0xE01 JUMP JUMPDEST SWAP2 POP POP PUSH2 0xDEC SWAP5 POP PUSH1 0x20 SWAP3 POP PUSH1 0xFF NOT AND DUP3 DUP5 ADD MSTORE ISZERO ISZERO PUSH1 0x5 SHL DUP3 ADD ADD CODESIZE DUP1 PUSH2 0xDDE JUMP JUMPDEST PUSH2 0xE70 SWAP4 SWAP3 PUSH1 0x60 SWAP3 DUP3 MSTORE PUSH1 0x20 DUP3 ADD MSTORE DUP2 PUSH1 0x40 DUP3 ADD MSTORE ADD SWAP1 PUSH2 0xC76 JUMP JUMPDEST SWAP1 JUMP JUMPDEST CALLER PUSH1 0x0 SWAP1 DUP2 MSTORE PUSH32 0xB470F2A4BCDB3397BB37CD2AED079057563C5C8C028F1ABEDB6D2E5F62946CE5 PUSH1 0x20 MSTORE PUSH1 0x40 SWAP1 KECCAK256 SLOAD PUSH1 0x0 DUP1 MLOAD PUSH1 0x20 PUSH2 0x1437 DUP4 CODECOPY DUP2 MLOAD SWAP2 MSTORE SWAP1 PUSH1 0xFF AND ISZERO PUSH2 0xEBD JUMPI POP JUMP JUMPDEST PUSH1 0x44 SWAP1 PUSH1 0x40 MLOAD SWAP1 PUSH4 0xE2517D3F PUSH1 0xE0 SHL DUP3 MSTORE CALLER PUSH1 0x4 DUP4 ADD MSTORE PUSH1 0x24 DUP3 ADD MSTORE REVERT JUMPDEST DUP1 PUSH1 0x0 MSTORE PUSH1 0x0 PUSH1 0x20 MSTORE PUSH1 0x40 PUSH1 0x0 KECCAK256 CALLER PUSH1 0x0 MSTORE PUSH1 0x20 MSTORE PUSH1 0xFF PUSH1 0x40 PUSH1 0x0 KECCAK256 SLOAD AND ISZERO PUSH2 0xEBD JUMPI POP JUMP JUMPDEST PUSH1 0x1 PUSH1 0x1 PUSH1 0xA0 SHL SUB AND PUSH1 0x0 DUP2 DUP2 MSTORE PUSH32 0xB470F2A4BCDB3397BB37CD2AED079057563C5C8C028F1ABEDB6D2E5F62946CE5 PUSH1 0x20 MSTORE PUSH1 0x40 DUP2 KECCAK256 SLOAD SWAP1 SWAP2 SWAP1 PUSH1 0x0 DUP1 MLOAD PUSH1 0x20 PUSH2 0x1437 DUP4 CODECOPY DUP2 MLOAD SWAP2 MSTORE SWAP1 PUSH1 0xFF AND PUSH2 0xF9C JUMPI DUP1 DUP4 MSTORE DUP3 PUSH1 0x20 MSTORE PUSH1 0x40 DUP4 KECCAK256 DUP3 DUP5 MSTORE PUSH1 0x20 MSTORE PUSH1 0x40 DUP4 KECCAK256 PUSH1 0x1 PUSH1 0xFF NOT DUP3 SLOAD AND OR SWAP1 SSTORE PUSH32 0x2F8788117E7EFF1D82E926EC794901D17C78024A50270940304540A733656F0D CALLER SWAP4 DUP1 LOG4 PUSH1 0x1 SWAP1 JUMP JUMPDEST POP POP SWAP1 JUMP JUMPDEST SWAP1 PUSH1 0x0 SWAP2 DUP1 DUP4 MSTORE DUP3 PUSH1 0x20 MSTORE PUSH1 0x40 DUP4 KECCAK256 SWAP2 PUSH1 0x1 DUP1 PUSH1 0xA0 SHL SUB AND SWAP2 DUP3 DUP5 MSTORE PUSH1 0x20 MSTORE PUSH1 0xFF PUSH1 0x40 DUP5 KECCAK256 SLOAD AND ISZERO PUSH1 0x0 EQ PUSH2 0xF9C JUMPI DUP1 DUP4 MSTORE DUP3 PUSH1 0x20 MSTORE PUSH1 0x40 DUP4 KECCAK256 DUP3 DUP5 MSTORE PUSH1 0x20 MSTORE PUSH1 0x40 DUP4 KECCAK256 PUSH1 0x1 PUSH1 0xFF NOT DUP3 SLOAD AND OR SWAP1 SSTORE PUSH32 0x2F8788117E7EFF1D82E926EC794901D17C78024A50270940304540A733656F0D CALLER SWAP4 DUP1 LOG4 PUSH1 0x1 SWAP1 JUMP JUMPDEST SWAP1 PUSH1 0x0 SWAP2 DUP1 DUP4 MSTORE DUP3 PUSH1 0x20 MSTORE PUSH1 0x40 DUP4 KECCAK256 SWAP2 PUSH1 0x1 DUP1 PUSH1 0xA0 SHL SUB AND SWAP2 DUP3 DUP5 MSTORE PUSH1 0x20 MSTORE PUSH1 0xFF PUSH1 0x40 DUP5 KECCAK256 SLOAD AND PUSH1 0x0 EQ PUSH2 0xF9C JUMPI DUP1 DUP4 MSTORE DUP3 PUSH1 0x20 MSTORE PUSH1 0x40 DUP4 KECCAK256 DUP3 DUP5 MSTORE PUSH1 0x20 MSTORE PUSH1 0x40 DUP4 KECCAK256 PUSH1 0xFF NOT DUP2 SLOAD AND SWAP1 SSTORE PUSH32 0xF6391F5C32D9C69D2A47EA670B442974B53935D1EDC7FD64EB21E047A839171B CALLER SWAP4 DUP1 LOG4 PUSH1 0x1 SWAP1 JUMP JUMPDEST SWAP2 SWAP1 DUP3 ADD DUP1 SWAP3 GT PUSH2 0x109C JUMPI JUMP JUMPDEST PUSH4 0x4E487B71 PUSH1 0xE0 SHL PUSH1 0x0 MSTORE PUSH1 0x11 PUSH1 0x4 MSTORE PUSH1 0x24 PUSH1 0x0 REVERT JUMPDEST PUSH1 0x1 DUP1 PUSH1 0xA0 SHL SUB AND SWAP2 PUSH1 0x0 SWAP1 DUP4 DUP3 MSTORE PUSH1 0x20 PUSH1 0x3 DUP2 MSTORE PUSH1 0x40 SWAP3 DUP4 DUP2 KECCAK256 SWAP2 DUP2 DUP7 SGT PUSH1 0x0 EQ PUSH2 0x13D3 JUMPI PUSH2 0x10E3 DUP7 DUP5 SLOAD PUSH2 0x108F JUMP JUMPDEST DUP1 DUP5 SSTORE PUSH2 0x2710 DUP1 SWAP2 GT PUSH2 0x13CB JUMPI JUMPDEST POP JUMPDEST TIMESTAMP PUSH1 0x5 DUP5 ADD SSTORE DUP7 DUP3 MSTORE PUSH1 0x4 DUP2 MSTORE DUP5 DUP3 KECCAK256 SWAP2 DUP6 MLOAD PUSH2 0x110F DUP2 PUSH2 0xD22 JUMP JUMPDEST TIMESTAMP DUP2 MSTORE DUP3 DUP2 ADD SWAP1 DUP9 DUP3 MSTORE DUP8 DUP2 ADD SWAP2 DUP8 DUP4 MSTORE DUP6 SLOAD PUSH9 0x10000000000000000 DUP2 LT ISZERO PUSH2 0x13B7 JUMPI PUSH2 0x1144 SWAP1 PUSH1 0x1 SWAP8 DUP9 DUP3 ADD DUP2 SSTORE PUSH2 0xCB6 JUMP JUMPDEST SWAP3 SWAP1 SWAP3 PUSH2 0x13A3 JUMPI SWAP1 PUSH1 0x2 SWAP3 SWAP2 MLOAD DUP3 SSTORE MLOAD DUP7 DUP3 ADD SSTORE ADD SWAP1 MLOAD DUP1 MLOAD SWAP1 PUSH8 0xFFFFFFFFFFFFFFFF DUP3 GT PUSH2 0x138F JUMPI SWAP1 DUP3 SWAP2 PUSH2 0x117E DUP13 SWAP8 SWAP7 SWAP6 SWAP5 SLOAD PUSH2 0xCE8 JUMP JUMPDEST PUSH1 0x1F DUP2 GT PUSH2 0x1338 JUMPI JUMPDEST POP DUP5 SWAP1 PUSH1 0x1F DUP4 GT PUSH1 0x1 EQ PUSH2 0x12A0 JUMPI SWAP2 DUP1 PUSH32 0x9B1E893E493285A3405A5C07CC303AC6BD19E9FFCB22B5F6E2050457E45833DB SWAP13 SWAP12 SWAP11 SWAP9 SWAP7 SWAP5 SWAP3 DUP7 SWAP5 PUSH2 0x1220 SWAP12 SWAP10 SWAP8 SWAP3 PUSH2 0x1295 JUMPI JUMPDEST POP POP PUSH1 0x0 NOT PUSH1 0x3 DUP4 SWAP1 SHL SHR NOT AND SWAP1 DUP6 SHL OR SWAP1 SSTORE JUMPDEST DUP4 DUP2 MSTORE PUSH1 0x3 DUP3 MSTORE DUP8 DUP2 KECCAK256 SLOAD PUSH1 0x5 DUP4 MSTORE SWAP1 DUP9 SWAP1 KECCAK256 DUP1 SLOAD SWAP1 SWAP4 SWAP1 SWAP2 PUSH2 0x1388 DUP2 LT PUSH2 0x1258 JUMPI POP POP PUSH1 0x5 SWAP1 JUMPDEST DUP2 SUB PUSH2 0x1225 JUMPI JUMPDEST POP POP POP POP SLOAD SWAP3 MLOAD SWAP4 DUP5 SWAP4 DUP5 PUSH2 0xE54 JUMP JUMPDEST SUB SWAP1 LOG2 JUMP JUMPDEST DUP1 PUSH32 0x1335D4939950A807CE3264D6AB223AC056F238CF4FD0450F4F88FFA6E1532BE2 SWAP4 SSTORE DUP8 MLOAD SWAP1 DUP2 MSTORE LOG2 DUP7 CODESIZE DUP1 DUP1 PUSH2 0x1210 JUMP JUMPDEST PUSH2 0x7D0 DUP2 LT PUSH2 0x126B JUMPI POP POP PUSH1 0x4 SWAP1 PUSH2 0x1209 JUMP JUMPDEST PUSH2 0x3E8 DUP2 LT PUSH2 0x127E JUMPI POP POP PUSH1 0x3 SWAP1 PUSH2 0x1209 JUMP JUMPDEST PUSH2 0x1F4 GT PUSH2 0x128F JUMPI POP PUSH1 0x2 SWAP1 PUSH2 0x1209 JUMP JUMPDEST SWAP1 PUSH2 0x1209 JUMP JUMPDEST ADD MLOAD SWAP1 POP CODESIZE DUP1 PUSH2 0x11CD JUMP JUMPDEST DUP4 DUP6 MSTORE DUP6 DUP6 KECCAK256 SWAP2 SWAP12 SWAP11 SWAP10 SWAP9 SWAP8 SWAP7 SWAP6 SWAP5 SWAP4 SWAP3 SWAP2 SWAP1 PUSH1 0x1F NOT DUP4 AND DUP6 JUMPDEST DUP2 DUP2 LT PUSH2 0x1320 JUMPI POP SWAP2 PUSH32 0x9B1E893E493285A3405A5C07CC303AC6BD19E9FFCB22B5F6E2050457E45833DB SWAP14 DUP5 SWAP3 DUP10 SWAP9 SWAP8 SWAP7 SWAP6 PUSH2 0x1220 SWAP14 SWAP13 SWAP12 SWAP11 SWAP6 LT PUSH2 0x1307 JUMPI JUMPDEST POP POP POP DUP2 SHL ADD SWAP1 SSTORE PUSH2 0x11E1 JUMP JUMPDEST ADD MLOAD PUSH1 0x0 NOT PUSH1 0xF8 DUP5 PUSH1 0x3 SHL AND SHR NOT AND SWAP1 SSTORE CODESIZE DUP1 DUP1 PUSH2 0x12FA JUMP JUMPDEST DUP3 DUP16 ADD MLOAD DUP5 SSTORE SWAP14 DUP8 ADD SWAP14 DUP16 SWAP10 POP SWAP3 DUP9 ADD SWAP3 DUP8 ADD PUSH2 0x12BA JUMP JUMPDEST SWAP1 SWAP2 SWAP3 DUP5 DUP2 SWAP6 SWAP7 SWAP8 SWAP9 POP MSTORE DUP6 DUP6 KECCAK256 PUSH1 0x1F DUP5 ADD PUSH1 0x5 SHR DUP2 ADD SWAP2 DUP8 DUP6 LT PUSH2 0x1385 JUMPI JUMPDEST SWAP1 PUSH1 0x1F DUP15 SWAP10 SWAP9 SWAP8 SWAP7 SWAP6 SWAP5 SWAP4 SWAP3 ADD PUSH1 0x5 SHR ADD SWAP1 JUMPDEST DUP2 DUP2 LT PUSH2 0x1378 JUMPI POP PUSH2 0x1187 JUMP JUMPDEST DUP6 DUP2 SSTORE DUP14 SWAP9 POP DUP8 ADD PUSH2 0x136B JUMP JUMPDEST SWAP1 SWAP2 POP DUP2 SWAP1 PUSH2 0x1358 JUMP JUMPDEST PUSH4 0x4E487B71 PUSH1 0xE0 SHL DUP5 MSTORE PUSH1 0x41 PUSH1 0x4 MSTORE PUSH1 0x24 DUP5 REVERT JUMPDEST PUSH4 0x4E487B71 PUSH1 0xE0 SHL DUP6 MSTORE PUSH1 0x4 DUP6 SWAP1 MSTORE PUSH1 0x24 DUP6 REVERT JUMPDEST PUSH4 0x4E487B71 PUSH1 0xE0 SHL DUP6 MSTORE PUSH1 0x41 PUSH1 0x4 MSTORE PUSH1 0x24 DUP6 REVERT JUMPDEST DUP4 SSTORE CODESIZE PUSH2 0x10F1 JUMP JUMPDEST DUP2 DUP7 SLT ISZERO PUSH2 0x10F3 JUMPI PUSH1 0x1 PUSH1 0xFF SHL DUP7 EQ PUSH2 0x1422 JUMPI DUP6 DUP3 SUB DUP4 SLOAD GT PUSH1 0x0 EQ PUSH2 0x141A JUMPI DUP3 SLOAD DUP7 DUP2 ADD SWAP1 DUP2 GT PUSH2 0x1406 JUMPI DUP4 SSTORE PUSH2 0x10F3 JUMP JUMPDEST PUSH4 0x4E487B71 PUSH1 0xE0 SHL DUP4 MSTORE PUSH1 0x11 PUSH1 0x4 MSTORE PUSH1 0x24 DUP4 REVERT JUMPDEST DUP2 DUP4 SSTORE PUSH2 0x10F3 JUMP JUMPDEST PUSH4 0x4E487B71 PUSH1 0xE0 SHL DUP3 MSTORE PUSH1 0x11 PUSH1 0x4 MSTORE PUSH1 0x24 DUP3 REVERT INVALID 0xA5 0xDF DUP5 0xD0 PUSH0 SWAP5 0xC8 0xE5 DUP10 PUSH22 0xA34F9631C6DF369AABC0811CCBBD233872FF60AEC66 LOG2 PUSH5 0x6970667358 0x22 SLT KECCAK256 PUSH16 0xA96B48D3953576DFECA090515B18C5FC 0xAC 0xAC SWAP9 PUSH9 0x816C2789E8AC06AC80 RETURNDATACOPY 0x5C PUSH5 0x736F6C6343 STOP ADDMOD EQ STOP CALLER 0x2F DUP8 DUP9 GT PUSH31 0x7EFF1D82E926EC794901D17C78024A50270940304540A733656F0D00000000 "},"methodIdentifiers":{"ADMIN_ROLE()":"75b238fc","DEFAULT_ADMIN_ROLE()":"a217fddf","INITIAL_REPUTATION()":"7b057258","MAX_REPUTATION()":"d213c0f2","REPUTATION_MANAGER_ROLE()":"eb0fd86a","getReputationHistory(address)":"48bb0fe4","getReputationScore(address)":"75a67d5c","getRoleAdmin(bytes32)":"248a9ca3","getTrustLevel(address)":"6a4b783d","grantReputationManagerRole(address)":"57b26414","grantRole(bytes32,address)":"2f2ff15d","hasRole(bytes32,address)":"91d14854","initializeReputation(address)":"7bb27c11","isTrustedUser(address)":"1b13767f","renounceRole(bytes32,address)":"36568abe","reputationHistory(address,uint256)":"bb32a7bd","reputationScores(address)":"fe0438b2","revokeRole(bytes32,address)":"d547741f","studentRegistry()":"92c16fb5","supportsInterface(bytes4)":"01ffc9a7","trustLevel(address)":"02cd2671","updateCommunityEngagement(address,uint256)":"2a370262","updateConsistency(address,uint256)":"225f312f","updateFeedbackQuality(address,uint256)":"a1c4eadb","updateHelpfulness(address,uint256)":"0d843536"}}}}}