{"contracts/privacy/PrivacyContract.sol":{"PrivacyContract":{"abi":[{"inputs":[],"stateMutability":"nonpayable","type":"constructor"},{"inputs":[],"name":"AccessControlBadConfirmation","type":"error"},{"inputs":[{"internalType":"address","name":"account","type":"address"},{"internalType":"bytes32","name":"neededRole","type":"bytes32"}],"name":"AccessControlUnauthorizedAccount","type":"error"},{"inputs":[],"name":"ReentrancyGuardReentrantCall","type":"error"},{"anonymous":false,"inputs":[{"indexed":true,"internalType":"uint256","name":"contentId","type":"uint256"},{"indexed":false,"internalType":"uint256","name":"timestamp","type":"uint256"}],"name":"ContentAnonymized","type":"event"},{"anonymous":false,"inputs":[{"indexed":true,"internalType":"address","name":"accessor","type":"address"},{"indexed":true,"internalType":"address","name":"subject","type":"address"},{"indexed":false,"internalType":"uint256","name":"timestamp","type":"uint256"}],"name":"DataAccessLogged","type":"event"},{"anonymous":false,"inputs":[{"indexed":true,"internalType":"address","name":"user","type":"address"},{"indexed":false,"internalType":"bool","name":"approved","type":"bool"},{"indexed":false,"internalType":"uint256","name":"timestamp","type":"uint256"}],"name":"DeletionProcessed","type":"event"},{"anonymous":false,"inputs":[{"indexed":true,"internalType":"address","name":"user","type":"address"},{"indexed":false,"internalType":"uint256","name":"timestamp","type":"uint256"}],"name":"DeletionRequested","type":"event"},{"anonymous":false,"inputs":[{"indexed":true,"internalType":"address","name":"user","type":"address"},{"indexed":false,"internalType":"bool","name":"isAnonymous","type":"bool"},{"indexed":false,"internalType":"uint256","name":"timestamp","type":"uint256"}],"name":"PrivacySettingsUpdated","type":"event"},{"anonymous":false,"inputs":[{"indexed":true,"internalType":"bytes32","name":"proofHash","type":"bytes32"},{"indexed":false,"internalType":"bool","name":"valid","type":"bool"},{"indexed":false,"internalType":"uint256","name":"timestamp","type":"uint256"}],"name":"ProofVerified","type":"event"},{"anonymous":false,"inputs":[{"indexed":true,"internalType":"bytes32","name":"role","type":"bytes32"},{"indexed":true,"internalType":"bytes32","name":"previousAdminRole","type":"bytes32"},{"indexed":true,"internalType":"bytes32","name":"newAdminRole","type":"bytes32"}],"name":"RoleAdminChanged","type":"event"},{"anonymous":false,"inputs":[{"indexed":true,"internalType":"bytes32","name":"role","type":"bytes32"},{"indexed":true,"internalType":"address","name":"account","type":"address"},{"indexed":true,"internalType":"address","name":"sender","type":"address"}],"name":"RoleGranted","type":"event"},{"anonymous":false,"inputs":[{"indexed":true,"internalType":"bytes32","name":"role","type":"bytes32"},{"indexed":true,"internalType":"address","name":"account","type":"address"},{"indexed":true,"internalType":"address","name":"sender","type":"address"}],"name":"RoleRevoked","type":"event"},{"inputs":[],"name":"ADMIN_ROLE","outputs":[{"internalType":"bytes32","name":"","type":"bytes32"}],"stateMutability":"view","type":"function"},{"inputs":[],"name":"DEFAULT_ADMIN_ROLE","outputs":[{"internalType":"bytes32","name":"","type":"bytes32"}],"stateMutability":"view","type":"function"},{"inputs":[],"name":"MODERATOR_ROLE","outputs":[{"internalType":"bytes32","name":"","type":"bytes32"}],"stateMutability":"view","type":"function"},{"inputs":[{"internalType":"uint256","name":"contentId","type":"uint256"}],"name":"anonymizeContent","outputs":[],"stateMutability":"nonpayable","type":"function"},{"inputs":[{"internalType":"uint256","name":"","type":"uint256"}],"name":"anonymizedContent","outputs":[{"internalType":"bool","name":"","type":"bool"}],"stateMutability":"view","type":"function"},{"inputs":[{"internalType":"address","name":"","type":"address"}],"name":"deletionRequests","outputs":[{"internalType":"address","name":"requester","type":"address"},{"internalType":"uint256","name":"requestTime","type":"uint256"},{"internalType":"bool","name":"processed","type":"bool"},{"internalType":"bool","name":"approved","type":"bool"},{"internalType":"string","name":"reason","type":"string"}],"stateMutability":"view","type":"function"},{"inputs":[{"internalType":"address","name":"user","type":"address"}],"name":"getPrivacySettings","outputs":[{"components":[{"internalType":"bool","name":"isAnonymous","type":"bool"},{"internalType":"bool","name":"allowDataCollection","type":"bool"},{"internalType":"uint256","name":"dataRetentionPeriod","type":"uint256"},{"internalType":"uint256","name":"lastUpdated","type":"uint256"}],"internalType":"struct PrivacyContract.PrivacySettings","name":"","type":"tuple"}],"stateMutability":"view","type":"function"},{"inputs":[{"internalType":"bytes32","name":"role","type":"bytes32"}],"name":"getRoleAdmin","outputs":[{"internalType":"bytes32","name":"","type":"bytes32"}],"stateMutability":"view","type":"function"},{"inputs":[{"internalType":"address","name":"moderator","type":"address"}],"name":"grantModeratorRole","outputs":[],"stateMutability":"nonpayable","type":"function"},{"inputs":[{"internalType":"bytes32","name":"role","type":"bytes32"},{"internalType":"address","name":"account","type":"address"}],"name":"grantRole","outputs":[],"stateMutability":"nonpayable","type":"function"},{"inputs":[{"internalType":"bytes32","name":"role","type":"bytes32"},{"internalType":"address","name":"account","type":"address"}],"name":"hasRole","outputs":[{"internalType":"bool","name":"","type":"bool"}],"stateMutability":"view","type":"function"},{"inputs":[{"internalType":"address","name":"user","type":"address"}],"name":"isAnonymousUser","outputs":[{"internalType":"bool","name":"","type":"bool"}],"stateMutability":"view","type":"function"},{"inputs":[{"internalType":"uint256","name":"contentId","type":"uint256"}],"name":"isContentAnonymized","outputs":[{"internalType":"bool","name":"","type":"bool"}],"stateMutability":"view","type":"function"},{"inputs":[{"internalType":"address","name":"subject","type":"address"}],"name":"logDataAccess","outputs":[],"stateMutability":"nonpayable","type":"function"},{"inputs":[{"internalType":"address","name":"user","type":"address"},{"internalType":"bool","name":"approved","type":"bool"}],"name":"processDeletionRequest","outputs":[],"stateMutability":"nonpayable","type":"function"},{"inputs":[{"internalType":"bytes32","name":"role","type":"bytes32"},{"internalType":"address","name":"callerConfirmation","type":"address"}],"name":"renounceRole","outputs":[],"stateMutability":"nonpayable","type":"function"},{"inputs":[{"internalType":"string","name":"reason","type":"string"}],"name":"requestDataDeletion","outputs":[],"stateMutability":"nonpayable","type":"function"},{"inputs":[{"internalType":"address","name":"moderator","type":"address"}],"name":"revokeModeratorRole","outputs":[],"stateMutability":"nonpayable","type":"function"},{"inputs":[{"internalType":"bytes32","name":"role","type":"bytes32"},{"internalType":"address","name":"account","type":"address"}],"name":"revokeRole","outputs":[],"stateMutability":"nonpayable","type":"function"},{"inputs":[{"internalType":"address","name":"user","type":"address"}],"name":"shouldDeleteData","outputs":[{"internalType":"bool","name":"","type":"bool"}],"stateMutability":"view","type":"function"},{"inputs":[{"internalType":"bytes4","name":"interfaceId","type":"bytes4"}],"name":"supportsInterface","outputs":[{"internalType":"bool","name":"","type":"bool"}],"stateMutability":"view","type":"function"},{"inputs":[{"internalType":"bool","name":"isAnonymous","type":"bool"},{"internalType":"bool","name":"allowDataCollection","type":"bool"},{"internalType":"uint256","name":"retentionDays","type":"uint256"}],"name":"updatePrivacySettings","outputs":[],"stateMutability":"nonpayable","type":"function"},{"inputs":[{"internalType":"address","name":"","type":"address"}],"name":"userPrivacySettings","outputs":[{"internalType":"bool","name":"isAnonymous","type":"bool"},{"internalType":"bool","name":"allowDataCollection","type":"bool"},{"internalType":"uint256","name":"dataRetentionPeriod","type":"uint256"},{"internalType":"uint256","name":"lastUpdated","type":"uint256"}],"stateMutability":"view","type":"function"},{"inputs":[{"internalType":"bytes32","name":"","type":"bytes32"}],"name":"verifiedProofs","outputs":[{"internalType":"bool","name":"","type":"bool"}],"stateMutability":"view","type":"function"},{"inputs":[{"internalType":"bytes","name":"proof","type":"bytes"},{"internalType":"bytes32","name":"publicInput","type":"bytes32"}],"name":"verifyZKProof","outputs":[{"internalType":"bool","name":"","type":"bool"}],"stateMutability":"nonpayable","type":"function"}],"evm":{"bytecode":{"linkReferences":{},"object":"608060405234610030576001805561001633610035565b50610020336100b3565b5060405161132e90816101548239f35b600080fd5b6001600160a01b031660008181527fad3228b676f7d3cd4284a5443f17f1962b36e491b30a40b2405849e597ba5fb5602052604081205490919060ff166100af57818052816020526040822081835260205260408220600160ff1982541617905533916000805160206114828339815191528180a4600190565b5090565b6001600160a01b031660008181527f7d7ffb7a348e1c6a02869081a26547b49160dd3df72d1d75a570eb9b698292ec60205260408120549091907fa49807205ce4d355092ef5a8a18f56e8913cf4a201fbe287825b095693c217759060ff1661014e57808352826020526040832082845260205260408320600160ff19825416179055600080516020611482833981519152339380a4600190565b50509056fe608060408181526004918236101561001657600080fd5b600092833560e01c91826301ffc9a714610dd9575081630c3f530f14610b11578163176d80c414610ae55781631f43e16014610a09578163248a9ca3146109df5781632f2ff15d146109b557816336568abe1461096f5781634ccf970614610940578163517fcb89146108995781635bba8f681461059657816363c813ce1461085b5781636681b8231461071d57816375b238fc146106e2578163797669c9146106b95781637be98b91146105c35781638abcfce01461059657816391d148541461055057816392b908b2146105275781639d53dcc8146103d8578163a217fddf146103bd578163aa232dc21461036d578163aea9452514610316578163bb59ce40146101de578163d547741f1461019b575063fb18f5551461013857600080fd5b346101975760203660031901126101975760809181906001600160a01b0361015e610ee2565b16815260026020522090815491600260018201549101549160ff8151948181161515865260081c16151560208501528301526060820152f35b5080fd5b919050346101da57806003193601126101da576101d691356101d160016101c0610ecc565b938387528660205286200154610fde565b6111b6565b5080f35b8280fd5b8284346103135760209182600319360112610197576001600160a01b039182610205610ee2565b16815260038452818120928354169160019384810154916003600283015492019281519388869882549761023889610f07565b938489528389019983811690816000146102f157506001146102b6575b50505050509160ff9184936102716102a89660c09a0386610e5e565b8151998a98895288015282821615159087015260081c161515606085015260a060808501525180928160a086015285850190610f41565b601f01601f19168101030190f35b908094939b50528983205b8284106102de5750505084019096019581886102718660c0610255565b80548885018c0152928a019281016102c1565b60ff19168b525050505090151560051b850101965081886102718660c0610255565b80fd5b50503461019757602036600319011261019757610331610ee2565b90514281526001600160a01b039091169033907f43ddb99e2e28694aa67d9182a3cfbf4048d230a701b38644cfb598fd739f724d90602090a380f35b505034610197576020366003190112610197576101d6906103b86001610391610ee2565b9261039a610f64565b6000805160206112d983398151915286528560205285200154610fde565b611004565b50503461019757816003193601126101975751908152602090f35b919050346101da57806003193601126101da576103f3610ee2565b906103fc610ef8565b91610405610f64565b6001600160a01b0316808552600360205281852060010154909390156104e557838552600360205260ff60028387200154166104a357508284526003602052808420600201805461ffff191683151560081b61ff00161760011790557f9f4d9e08fd1ea62985e6403389e9f517f3c2c5037e4371131471cdc134433c179161049d915190151581524260208201529081906040820190565b0390a280f35b6020606492519162461bcd60e51b8352820152601960248201527f5265717565737420616c72656164792070726f636573736564000000000000006044820152fd5b6020606492519162461bcd60e51b8352820152601960248201527f4e6f2064656c6574696f6e207265717565737420666f756e64000000000000006044820152fd5b505034610197576020366003190112610197576101d69061054b6001610391610ee2565b61111d565b9050346101da57816003193601126101da578160209360ff92610571610ecc565b903582528186528282206001600160a01b039091168252855220549151911615158152f35b9050346101da5760203660031901126101da578160209360ff923581526005855220541690519015158152f35b919050346101da57602090816003193601126106b5578235926000805160206112d9833981519152808652858452828620338752845260ff83872054161561069a57508385526005835260ff8286205416610659575082845260058252808420805460ff19166001179055514281527fea886eb2a9f3d4e86580774696b480e5c8ace847d8614884cca12f3e0f55b6e19190a280f35b82606492519162461bcd60e51b8352820152601a60248201527f436f6e74656e7420616c726561647920616e6f6e796d697a65640000000000006044820152fd5b604492519163e2517d3f60e01b835233908301526024820152fd5b8380fd5b505034610197578160031936011261019757602090516000805160206112d98339815191528152f35b505034610197578160031936011261019757602090517fa49807205ce4d355092ef5a8a18f56e8913cf4a201fbe287825b095693c217758152f35b919050346101da5760603660031901126101da578135918215159081840361085757610747610ef8565b9060443590601e8210158061084b575b1561080857508392916002917f35131a3e2698d3105ff90b9f528bb16706c3b02e702c9ccb6999c7a35d3f90c295519361079085610e2c565b84526020840191151582528484019081526107e66060850192428452338a52846020526107cf878b2096511515879060ff801983541691151516179055565b51855461ff00191690151560081b61ff0016178555565b516001840155519101555191151582524260208301523391806040810161049d565b606490602086519162461bcd60e51b8352820152601860248201527f496e76616c696420726574656e74696f6e20706572696f6400000000000000006044820152fd5b50610e42821115610757565b8480fd5b5050346101975760203660031901126101975760209160ff9082906001600160a01b03610886610ee2565b1681526002855220541690519015158152f35b50503461019757602036600319011261019757806080926108b8610ee2565b81606084516108c681610e2c565b8281528260208201528286820152015260018060a01b03168152600260205220908051906108f382610e2c565b82549260ff841615159384845260ff602085019160081c16151581526060600260018401549385870194855201549401938452825194855251151560208501525190830152516060820152f35b50503461019757602036600319011261019757602090610966610961610ee2565b61122b565b90519015158152f35b838334610197578060031936011261019757610989610ecc565b90336001600160a01b038316036109a657506101d69192356111b6565b5163334bd91960e11b81528390fd5b919050346101da57806003193601126101da576101d691356109da60016101c0610ecc565b6110a4565b9050346101da5760203660031901126101da57816020936001923581528085522001549051908152f35b919050346101da57806003193601126101da57813567ffffffffffffffff81116106b557366023820112156106b557610a4c829136906024818701359101610e80565b93815194602095610a82848289610a6c8183019687815193849201610f41565b81016024358b8201520389810184520182610e5e565b519020938482528552209182549260ff8416159384610aa5575b50505051908152f35b60019060ff19161790557f0c0afd2d440ecce8f50a3a8fb8c422b4bb32611b01094a5041d71f88dd21c6a9828051600181524287820152a2388080610a9c565b9050346101da5760203660031901126101da57816020938260ff93358252855220541690519015158152f35b83833461019757602090816003193601126101da5767ffffffffffffffff938035858111610857573660238201121561085757610b579036906024818501359101610e80565b9033855260038452828520906001918281015415908115610dca575b5015610d8757835160a0810181811089821117610d7457906003918652338152610c15878201428152878301908a825260608401908b825260808501988952338c52858b52898c209460018060a01b039051166bffffffffffffffffffffffff60a01b8654161785555187850155610bfe6002850192511515839060ff801983541691151516179055565b51815461ff00191690151560081b61ff0016179055565b019251908151978811610d615750610c2d8354610f07565b601f8111610d1b575b508490601f8811600114610c9c57968092819288997f2de2bf92ac2bdd4cb3f75b65c2dee33e2d3eb589ebef868f88fc50b0967bd677989994610c91575b50501b916000199060031b1c19161790555b51914283523392a280f35b015192508980610c74565b838752858720909791601f198316885b818110610d06575098837f2de2bf92ac2bdd4cb3f75b65c2dee33e2d3eb589ebef868f88fc50b0967bd67798999a10610ced575b505050811b019055610c86565b015160001960f88460031b161c19169055878080610ce0565b8a830151845592850192918801918801610cac565b838752858720601f890160051c810191878a10610d57575b601f0160051c019083905b828110610d4c575050610c36565b888155018390610d3e565b9091508190610d33565b634e487b7160e01b875260419052602486fd5b634e487b7160e01b885260418352602488fd5b835162461bcd60e51b8152908101859052601f60248201527f50656e64696e672064656c6574696f6e207265717565737420657869737473006044820152606490fd5b60ff9150600201541688610b73565b8491346101da5760203660031901126101da573563ffffffff60e01b81168091036101da5760209250637965db0b60e01b8114908115610e1b575b5015158152f35b6301ffc9a760e01b14905083610e14565b6080810190811067ffffffffffffffff821117610e4857604052565b634e487b7160e01b600052604160045260246000fd5b90601f8019910116810190811067ffffffffffffffff821117610e4857604052565b92919267ffffffffffffffff8211610e485760405191610eaa601f8201601f191660200184610e5e565b829481845281830111610ec7578281602093846000960137010152565b600080fd5b602435906001600160a01b0382168203610ec757565b600435906001600160a01b0382168203610ec757565b602435908115158203610ec757565b90600182811c92168015610f37575b6020831014610f2157565b634e487b7160e01b600052602260045260246000fd5b91607f1691610f16565b60005b838110610f545750506000910152565b8181015183820152602001610f44565b3360009081527f7d7ffb7a348e1c6a02869081a26547b49160dd3df72d1d75a570eb9b698292ec60205260409020547fa49807205ce4d355092ef5a8a18f56e8913cf4a201fbe287825b095693c217759060ff1615610fc05750565b6044906040519063e2517d3f60e01b82523360048301526024820152fd5b80600052600060205260406000203360005260205260ff6040600020541615610fc05750565b6001600160a01b031660008181527ff179aafcc4ff8137fca1ef3b9ec4d165f87016ba123e7973fba770bc55e240e360205260408120549091906000805160206112d98339815191529060ff1661109f57808352826020526040832082845260205260408320600160ff198254161790557f2f8788117e7eff1d82e926ec794901d17c78024a50270940304540a733656f0d339380a4600190565b505090565b9060009180835282602052604083209160018060a01b03169182845260205260ff6040842054161560001461109f57808352826020526040832082845260205260408320600160ff198254161790557f2f8788117e7eff1d82e926ec794901d17c78024a50270940304540a733656f0d339380a4600190565b6001600160a01b031660008181527ff179aafcc4ff8137fca1ef3b9ec4d165f87016ba123e7973fba770bc55e240e360205260408120549091906000805160206112d98339815191529060ff161561109f5780835282602052604083208284526020526040832060ff1981541690557ff6391f5c32d9c69d2a47ea670b442974b53935d1edc7fd64eb21e047a839171b339380a4600190565b9060009180835282602052604083209160018060a01b03169182845260205260ff60408420541660001461109f5780835282602052604083208284526020526040832060ff1981541690557ff6391f5c32d9c69d2a47ea670b442974b53935d1edc7fd64eb21e047a839171b339380a4600190565b6001600160a01b0316600090815260026020526040808220905190919061125181610e2c565b60ff83548181161515835260081c1615156020820152606060026001850154948560408501520154910190808252156112d25762015180928381029381850414901517156112be57519182018092116112aa5750421190565b634e487b7160e01b81526011600452602490fd5b634e487b7160e01b82526011600452602482fd5b5090509056fe71f3d55856e4058ed06ee057d79ada615f65cdf5f9ee88181b914225088f834fa26469706673582212208c60fedbcc310af8eac1ad0bd4b02aa2cc4e050befc32efa70b7add7eb0f69ad64736f6c634300081400332f8788117e7eff1d82e926ec794901d17c78024a50270940304540a733656f0d","opcodes":"PUSH1 0x80 PUSH1 0x40 MSTORE CALLVALUE PUSH2 0x30 JUMPI PUSH1 0x1 DUP1 SSTORE PUSH2 0x16 CALLER PUSH2 0x35 JUMP JUMPDEST POP PUSH2 0x20 CALLER PUSH2 0xB3 JUMP JUMPDEST POP PUSH1 0x40 MLOAD PUSH2 0x132E SWAP1 DUP2 PUSH2 0x154 DUP3 CODECOPY RETURN JUMPDEST PUSH1 0x0 DUP1 REVERT JUMPDEST PUSH1 0x1 PUSH1 0x1 PUSH1 0xA0 SHL SUB AND PUSH1 0x0 DUP2 DUP2 MSTORE PUSH32 0xAD3228B676F7D3CD4284A5443F17F1962B36E491B30A40B2405849E597BA5FB5 PUSH1 0x20 MSTORE PUSH1 0x40 DUP2 KECCAK256 SLOAD SWAP1 SWAP2 SWAP1 PUSH1 0xFF AND PUSH2 0xAF JUMPI DUP2 DUP1 MSTORE DUP2 PUSH1 0x20 MSTORE PUSH1 0x40 DUP3 KECCAK256 DUP2 DUP4 MSTORE PUSH1 0x20 MSTORE PUSH1 0x40 DUP3 KECCAK256 PUSH1 0x1 PUSH1 0xFF NOT DUP3 SLOAD AND OR SWAP1 SSTORE CALLER SWAP2 PUSH1 0x0 DUP1 MLOAD PUSH1 0x20 PUSH2 0x1482 DUP4 CODECOPY DUP2 MLOAD SWAP2 MSTORE DUP2 DUP1 LOG4 PUSH1 0x1 SWAP1 JUMP JUMPDEST POP SWAP1 JUMP JUMPDEST PUSH1 0x1 PUSH1 0x1 PUSH1 0xA0 SHL SUB AND PUSH1 0x0 DUP2 DUP2 MSTORE PUSH32 0x7D7FFB7A348E1C6A02869081A26547B49160DD3DF72D1D75A570EB9B698292EC PUSH1 0x20 MSTORE PUSH1 0x40 DUP2 KECCAK256 SLOAD SWAP1 SWAP2 SWAP1 PUSH32 0xA49807205CE4D355092EF5A8A18F56E8913CF4A201FBE287825B095693C21775 SWAP1 PUSH1 0xFF AND PUSH2 0x14E JUMPI DUP1 DUP4 MSTORE DUP3 PUSH1 0x20 MSTORE PUSH1 0x40 DUP4 KECCAK256 DUP3 DUP5 MSTORE PUSH1 0x20 MSTORE PUSH1 0x40 DUP4 KECCAK256 PUSH1 0x1 PUSH1 0xFF NOT DUP3 SLOAD AND OR SWAP1 SSTORE PUSH1 0x0 DUP1 MLOAD PUSH1 0x20 PUSH2 0x1482 DUP4 CODECOPY DUP2 MLOAD SWAP2 MSTORE CALLER SWAP4 DUP1 LOG4 PUSH1 0x1 SWAP1 JUMP JUMPDEST POP POP SWAP1 JUMP INVALID PUSH1 0x80 PUSH1 0x40 DUP2 DUP2 MSTORE PUSH1 0x4 SWAP2 DUP3 CALLDATASIZE LT ISZERO PUSH2 0x16 JUMPI PUSH1 0x0 DUP1 REVERT JUMPDEST PUSH1 0x0 SWAP3 DUP4 CALLDATALOAD PUSH1 0xE0 SHR SWAP2 DUP3 PUSH4 0x1FFC9A7 EQ PUSH2 0xDD9 JUMPI POP DUP2 PUSH4 0xC3F530F EQ PUSH2 0xB11 JUMPI DUP2 PUSH4 0x176D80C4 EQ PUSH2 0xAE5 JUMPI DUP2 PUSH4 0x1F43E160 EQ PUSH2 0xA09 JUMPI DUP2 PUSH4 0x248A9CA3 EQ PUSH2 0x9DF JUMPI DUP2 PUSH4 0x2F2FF15D EQ PUSH2 0x9B5 JUMPI DUP2 PUSH4 0x36568ABE EQ PUSH2 0x96F JUMPI DUP2 PUSH4 0x4CCF9706 EQ PUSH2 0x940 JUMPI DUP2 PUSH4 0x517FCB89 EQ PUSH2 0x899 JUMPI DUP2 PUSH4 0x5BBA8F68 EQ PUSH2 0x596 JUMPI DUP2 PUSH4 0x63C813CE EQ PUSH2 0x85B JUMPI DUP2 PUSH4 0x6681B823 EQ PUSH2 0x71D JUMPI DUP2 PUSH4 0x75B238FC EQ PUSH2 0x6E2 JUMPI DUP2 PUSH4 0x797669C9 EQ PUSH2 0x6B9 JUMPI DUP2 PUSH4 0x7BE98B91 EQ PUSH2 0x5C3 JUMPI DUP2 PUSH4 0x8ABCFCE0 EQ PUSH2 0x596 JUMPI DUP2 PUSH4 0x91D14854 EQ PUSH2 0x550 JUMPI DUP2 PUSH4 0x92B908B2 EQ PUSH2 0x527 JUMPI DUP2 PUSH4 0x9D53DCC8 EQ PUSH2 0x3D8 JUMPI DUP2 PUSH4 0xA217FDDF EQ PUSH2 0x3BD JUMPI DUP2 PUSH4 0xAA232DC2 EQ PUSH2 0x36D JUMPI DUP2 PUSH4 0xAEA94525 EQ PUSH2 0x316 JUMPI DUP2 PUSH4 0xBB59CE40 EQ PUSH2 0x1DE JUMPI DUP2 PUSH4 0xD547741F EQ PUSH2 0x19B JUMPI POP PUSH4 0xFB18F555 EQ PUSH2 0x138 JUMPI PUSH1 0x0 DUP1 REVERT JUMPDEST CALLVALUE PUSH2 0x197 JUMPI PUSH1 0x20 CALLDATASIZE PUSH1 0x3 NOT ADD SLT PUSH2 0x197 JUMPI PUSH1 0x80 SWAP2 DUP2 SWAP1 PUSH1 0x1 PUSH1 0x1 PUSH1 0xA0 SHL SUB PUSH2 0x15E PUSH2 0xEE2 JUMP JUMPDEST AND DUP2 MSTORE PUSH1 0x2 PUSH1 0x20 MSTORE KECCAK256 SWAP1 DUP2 SLOAD SWAP2 PUSH1 0x2 PUSH1 0x1 DUP3 ADD SLOAD SWAP2 ADD SLOAD SWAP2 PUSH1 0xFF DUP2 MLOAD SWAP5 DUP2 DUP2 AND ISZERO ISZERO DUP7 MSTORE PUSH1 0x8 SHR AND ISZERO ISZERO PUSH1 0x20 DUP6 ADD MSTORE DUP4 ADD MSTORE PUSH1 0x60 DUP3 ADD MSTORE RETURN JUMPDEST POP DUP1 REVERT JUMPDEST SWAP2 SWAP1 POP CALLVALUE PUSH2 0x1DA JUMPI DUP1 PUSH1 0x3 NOT CALLDATASIZE ADD SLT PUSH2 0x1DA JUMPI PUSH2 0x1D6 SWAP2 CALLDATALOAD PUSH2 0x1D1 PUSH1 0x1 PUSH2 0x1C0 PUSH2 0xECC JUMP JUMPDEST SWAP4 DUP4 DUP8 MSTORE DUP7 PUSH1 0x20 MSTORE DUP7 KECCAK256 ADD SLOAD PUSH2 0xFDE JUMP JUMPDEST PUSH2 0x11B6 JUMP JUMPDEST POP DUP1 RETURN JUMPDEST DUP3 DUP1 REVERT JUMPDEST DUP3 DUP5 CALLVALUE PUSH2 0x313 JUMPI PUSH1 0x20 SWAP2 DUP3 PUSH1 0x3 NOT CALLDATASIZE ADD SLT PUSH2 0x197 JUMPI PUSH1 0x1 PUSH1 0x1 PUSH1 0xA0 SHL SUB SWAP2 DUP3 PUSH2 0x205 PUSH2 0xEE2 JUMP JUMPDEST AND DUP2 MSTORE PUSH1 0x3 DUP5 MSTORE DUP2 DUP2 KECCAK256 SWAP3 DUP4 SLOAD AND SWAP2 PUSH1 0x1 SWAP4 DUP5 DUP2 ADD SLOAD SWAP2 PUSH1 0x3 PUSH1 0x2 DUP4 ADD SLOAD SWAP3 ADD SWAP3 DUP2 MLOAD SWAP4 DUP9 DUP7 SWAP9 DUP3 SLOAD SWAP8 PUSH2 0x238 DUP10 PUSH2 0xF07 JUMP JUMPDEST SWAP4 DUP5 DUP10 MSTORE DUP4 DUP10 ADD SWAP10 DUP4 DUP2 AND SWAP1 DUP2 PUSH1 0x0 EQ PUSH2 0x2F1 JUMPI POP PUSH1 0x1 EQ PUSH2 0x2B6 JUMPI JUMPDEST POP POP POP POP POP SWAP2 PUSH1 0xFF SWAP2 DUP5 SWAP4 PUSH2 0x271 PUSH2 0x2A8 SWAP7 PUSH1 0xC0 SWAP11 SUB DUP7 PUSH2 0xE5E JUMP JUMPDEST DUP2 MLOAD SWAP10 DUP11 SWAP9 DUP10 MSTORE DUP9 ADD MSTORE DUP3 DUP3 AND ISZERO ISZERO SWAP1 DUP8 ADD MSTORE PUSH1 0x8 SHR AND ISZERO ISZERO PUSH1 0x60 DUP6 ADD MSTORE PUSH1 0xA0 PUSH1 0x80 DUP6 ADD MSTORE MLOAD DUP1 SWAP3 DUP2 PUSH1 0xA0 DUP7 ADD MSTORE DUP6 DUP6 ADD SWAP1 PUSH2 0xF41 JUMP JUMPDEST PUSH1 0x1F ADD PUSH1 0x1F NOT AND DUP2 ADD SUB ADD SWAP1 RETURN JUMPDEST SWAP1 DUP1 SWAP5 SWAP4 SWAP12 POP MSTORE DUP10 DUP4 KECCAK256 JUMPDEST DUP3 DUP5 LT PUSH2 0x2DE JUMPI POP POP POP DUP5 ADD SWAP1 SWAP7 ADD SWAP6 DUP2 DUP9 PUSH2 0x271 DUP7 PUSH1 0xC0 PUSH2 0x255 JUMP JUMPDEST DUP1 SLOAD DUP9 DUP6 ADD DUP13 ADD MSTORE SWAP3 DUP11 ADD SWAP3 DUP2 ADD PUSH2 0x2C1 JUMP JUMPDEST PUSH1 0xFF NOT AND DUP12 MSTORE POP POP POP POP SWAP1 ISZERO ISZERO PUSH1 0x5 SHL DUP6 ADD ADD SWAP7 POP DUP2 DUP9 PUSH2 0x271 DUP7 PUSH1 0xC0 PUSH2 0x255 JUMP JUMPDEST DUP1 REVERT JUMPDEST POP POP CALLVALUE PUSH2 0x197 JUMPI PUSH1 0x20 CALLDATASIZE PUSH1 0x3 NOT ADD SLT PUSH2 0x197 JUMPI PUSH2 0x331 PUSH2 0xEE2 JUMP JUMPDEST SWAP1 MLOAD TIMESTAMP DUP2 MSTORE PUSH1 0x1 PUSH1 0x1 PUSH1 0xA0 SHL SUB SWAP1 SWAP2 AND SWAP1 CALLER SWAP1 PUSH32 0x43DDB99E2E28694AA67D9182A3CFBF4048D230A701B38644CFB598FD739F724D SWAP1 PUSH1 0x20 SWAP1 LOG3 DUP1 RETURN JUMPDEST POP POP CALLVALUE PUSH2 0x197 JUMPI PUSH1 0x20 CALLDATASIZE PUSH1 0x3 NOT ADD SLT PUSH2 0x197 JUMPI PUSH2 0x1D6 SWAP1 PUSH2 0x3B8 PUSH1 0x1 PUSH2 0x391 PUSH2 0xEE2 JUMP JUMPDEST SWAP3 PUSH2 0x39A PUSH2 0xF64 JUMP JUMPDEST PUSH1 0x0 DUP1 MLOAD PUSH1 0x20 PUSH2 0x12D9 DUP4 CODECOPY DUP2 MLOAD SWAP2 MSTORE DUP7 MSTORE DUP6 PUSH1 0x20 MSTORE DUP6 KECCAK256 ADD SLOAD PUSH2 0xFDE JUMP JUMPDEST PUSH2 0x1004 JUMP JUMPDEST POP POP CALLVALUE PUSH2 0x197 JUMPI DUP2 PUSH1 0x3 NOT CALLDATASIZE ADD SLT PUSH2 0x197 JUMPI MLOAD SWAP1 DUP2 MSTORE PUSH1 0x20 SWAP1 RETURN JUMPDEST SWAP2 SWAP1 POP CALLVALUE PUSH2 0x1DA JUMPI DUP1 PUSH1 0x3 NOT CALLDATASIZE ADD SLT PUSH2 0x1DA JUMPI PUSH2 0x3F3 PUSH2 0xEE2 JUMP JUMPDEST SWAP1 PUSH2 0x3FC PUSH2 0xEF8 JUMP JUMPDEST SWAP2 PUSH2 0x405 PUSH2 0xF64 JUMP JUMPDEST PUSH1 0x1 PUSH1 0x1 PUSH1 0xA0 SHL SUB AND DUP1 DUP6 MSTORE PUSH1 0x3 PUSH1 0x20 MSTORE DUP2 DUP6 KECCAK256 PUSH1 0x1 ADD SLOAD SWAP1 SWAP4 SWAP1 ISZERO PUSH2 0x4E5 JUMPI DUP4 DUP6 MSTORE PUSH1 0x3 PUSH1 0x20 MSTORE PUSH1 0xFF PUSH1 0x2 DUP4 DUP8 KECCAK256 ADD SLOAD AND PUSH2 0x4A3 JUMPI POP DUP3 DUP5 MSTORE PUSH1 0x3 PUSH1 0x20 MSTORE DUP1 DUP5 KECCAK256 PUSH1 0x2 ADD DUP1 SLOAD PUSH2 0xFFFF NOT AND DUP4 ISZERO ISZERO PUSH1 0x8 SHL PUSH2 0xFF00 AND OR PUSH1 0x1 OR SWAP1 SSTORE PUSH32 0x9F4D9E08FD1EA62985E6403389E9F517F3C2C5037E4371131471CDC134433C17 SWAP2 PUSH2 0x49D SWAP2 MLOAD SWAP1 ISZERO ISZERO DUP2 MSTORE TIMESTAMP PUSH1 0x20 DUP3 ADD MSTORE SWAP1 DUP2 SWAP1 PUSH1 0x40 DUP3 ADD SWAP1 JUMP JUMPDEST SUB SWAP1 LOG2 DUP1 RETURN JUMPDEST PUSH1 0x20 PUSH1 0x64 SWAP3 MLOAD SWAP2 PUSH3 0x461BCD PUSH1 0xE5 SHL DUP4 MSTORE DUP3 ADD MSTORE PUSH1 0x19 PUSH1 0x24 DUP3 ADD MSTORE PUSH32 0x5265717565737420616C72656164792070726F63657373656400000000000000 PUSH1 0x44 DUP3 ADD MSTORE REVERT JUMPDEST PUSH1 0x20 PUSH1 0x64 SWAP3 MLOAD SWAP2 PUSH3 0x461BCD PUSH1 0xE5 SHL DUP4 MSTORE DUP3 ADD MSTORE PUSH1 0x19 PUSH1 0x24 DUP3 ADD MSTORE PUSH32 0x4E6F2064656C6574696F6E207265717565737420666F756E6400000000000000 PUSH1 0x44 DUP3 ADD MSTORE REVERT JUMPDEST POP POP CALLVALUE PUSH2 0x197 JUMPI PUSH1 0x20 CALLDATASIZE PUSH1 0x3 NOT ADD SLT PUSH2 0x197 JUMPI PUSH2 0x1D6 SWAP1 PUSH2 0x54B PUSH1 0x1 PUSH2 0x391 PUSH2 0xEE2 JUMP JUMPDEST PUSH2 0x111D JUMP JUMPDEST SWAP1 POP CALLVALUE PUSH2 0x1DA JUMPI DUP2 PUSH1 0x3 NOT CALLDATASIZE ADD SLT PUSH2 0x1DA JUMPI DUP2 PUSH1 0x20 SWAP4 PUSH1 0xFF SWAP3 PUSH2 0x571 PUSH2 0xECC JUMP JUMPDEST SWAP1 CALLDATALOAD DUP3 MSTORE DUP2 DUP7 MSTORE DUP3 DUP3 KECCAK256 PUSH1 0x1 PUSH1 0x1 PUSH1 0xA0 SHL SUB SWAP1 SWAP2 AND DUP3 MSTORE DUP6 MSTORE KECCAK256 SLOAD SWAP2 MLOAD SWAP2 AND ISZERO ISZERO DUP2 MSTORE RETURN JUMPDEST SWAP1 POP CALLVALUE PUSH2 0x1DA JUMPI PUSH1 0x20 CALLDATASIZE PUSH1 0x3 NOT ADD SLT PUSH2 0x1DA JUMPI DUP2 PUSH1 0x20 SWAP4 PUSH1 0xFF SWAP3 CALLDATALOAD DUP2 MSTORE PUSH1 0x5 DUP6 MSTORE KECCAK256 SLOAD AND SWAP1 MLOAD SWAP1 ISZERO ISZERO DUP2 MSTORE RETURN JUMPDEST SWAP2 SWAP1 POP CALLVALUE PUSH2 0x1DA JUMPI PUSH1 0x20 SWAP1 DUP2 PUSH1 0x3 NOT CALLDATASIZE ADD SLT PUSH2 0x6B5 JUMPI DUP3 CALLDATALOAD SWAP3 PUSH1 0x0 DUP1 MLOAD PUSH1 0x20 PUSH2 0x12D9 DUP4 CODECOPY DUP2 MLOAD SWAP2 MSTORE DUP1 DUP7 MSTORE DUP6 DUP5 MSTORE DUP3 DUP7 KECCAK256 CALLER DUP8 MSTORE DUP5 MSTORE PUSH1 0xFF DUP4 DUP8 KECCAK256 SLOAD AND ISZERO PUSH2 0x69A JUMPI POP DUP4 DUP6 MSTORE PUSH1 0x5 DUP4 MSTORE PUSH1 0xFF DUP3 DUP7 KECCAK256 SLOAD AND PUSH2 0x659 JUMPI POP DUP3 DUP5 MSTORE PUSH1 0x5 DUP3 MSTORE DUP1 DUP5 KECCAK256 DUP1 SLOAD PUSH1 0xFF NOT AND PUSH1 0x1 OR SWAP1 SSTORE MLOAD TIMESTAMP DUP2 MSTORE PUSH32 0xEA886EB2A9F3D4E86580774696B480E5C8ACE847D8614884CCA12F3E0F55B6E1 SWAP2 SWAP1 LOG2 DUP1 RETURN JUMPDEST DUP3 PUSH1 0x64 SWAP3 MLOAD SWAP2 PUSH3 0x461BCD PUSH1 0xE5 SHL DUP4 MSTORE DUP3 ADD MSTORE PUSH1 0x1A PUSH1 0x24 DUP3 ADD MSTORE PUSH32 0x436F6E74656E7420616C726561647920616E6F6E796D697A6564000000000000 PUSH1 0x44 DUP3 ADD MSTORE REVERT JUMPDEST PUSH1 0x44 SWAP3 MLOAD SWAP2 PUSH4 0xE2517D3F PUSH1 0xE0 SHL DUP4 MSTORE CALLER SWAP1 DUP4 ADD MSTORE PUSH1 0x24 DUP3 ADD MSTORE REVERT JUMPDEST DUP4 DUP1 REVERT JUMPDEST POP POP CALLVALUE PUSH2 0x197 JUMPI DUP2 PUSH1 0x3 NOT CALLDATASIZE ADD SLT PUSH2 0x197 JUMPI PUSH1 0x20 SWAP1 MLOAD PUSH1 0x0 DUP1 MLOAD PUSH1 0x20 PUSH2 0x12D9 DUP4 CODECOPY DUP2 MLOAD SWAP2 MSTORE DUP2 MSTORE RETURN JUMPDEST POP POP CALLVALUE PUSH2 0x197 JUMPI DUP2 PUSH1 0x3 NOT CALLDATASIZE ADD SLT PUSH2 0x197 JUMPI PUSH1 0x20 SWAP1 MLOAD PUSH32 0xA49807205CE4D355092EF5A8A18F56E8913CF4A201FBE287825B095693C21775 DUP2 MSTORE RETURN JUMPDEST SWAP2 SWAP1 POP CALLVALUE PUSH2 0x1DA JUMPI PUSH1 0x60 CALLDATASIZE PUSH1 0x3 NOT ADD SLT PUSH2 0x1DA JUMPI DUP2 CALLDATALOAD SWAP2 DUP3 ISZERO ISZERO SWAP1 DUP2 DUP5 SUB PUSH2 0x857 JUMPI PUSH2 0x747 PUSH2 0xEF8 JUMP JUMPDEST SWAP1 PUSH1 0x44 CALLDATALOAD SWAP1 PUSH1 0x1E DUP3 LT ISZERO DUP1 PUSH2 0x84B JUMPI JUMPDEST ISZERO PUSH2 0x808 JUMPI POP DUP4 SWAP3 SWAP2 PUSH1 0x2 SWAP2 PUSH32 0x35131A3E2698D3105FF90B9F528BB16706C3B02E702C9CCB6999C7A35D3F90C2 SWAP6 MLOAD SWAP4 PUSH2 0x790 DUP6 PUSH2 0xE2C JUMP JUMPDEST DUP5 MSTORE PUSH1 0x20 DUP5 ADD SWAP2 ISZERO ISZERO DUP3 MSTORE DUP5 DUP5 ADD SWAP1 DUP2 MSTORE PUSH2 0x7E6 PUSH1 0x60 DUP6 ADD SWAP3 TIMESTAMP DUP5 MSTORE CALLER DUP11 MSTORE DUP5 PUSH1 0x20 MSTORE PUSH2 0x7CF DUP8 DUP12 KECCAK256 SWAP7 MLOAD ISZERO ISZERO DUP8 SWAP1 PUSH1 0xFF DUP1 NOT DUP4 SLOAD AND SWAP2 ISZERO ISZERO AND OR SWAP1 SSTORE JUMP JUMPDEST MLOAD DUP6 SLOAD PUSH2 0xFF00 NOT AND SWAP1 ISZERO ISZERO PUSH1 0x8 SHL PUSH2 0xFF00 AND OR DUP6 SSTORE JUMP JUMPDEST MLOAD PUSH1 0x1 DUP5 ADD SSTORE MLOAD SWAP2 ADD SSTORE MLOAD SWAP2 ISZERO ISZERO DUP3 MSTORE TIMESTAMP PUSH1 0x20 DUP4 ADD MSTORE CALLER SWAP2 DUP1 PUSH1 0x40 DUP2 ADD PUSH2 0x49D JUMP JUMPDEST PUSH1 0x64 SWAP1 PUSH1 0x20 DUP7 MLOAD SWAP2 PUSH3 0x461BCD PUSH1 0xE5 SHL DUP4 MSTORE DUP3 ADD MSTORE PUSH1 0x18 PUSH1 0x24 DUP3 ADD MSTORE PUSH32 0x496E76616C696420726574656E74696F6E20706572696F640000000000000000 PUSH1 0x44 DUP3 ADD MSTORE REVERT JUMPDEST POP PUSH2 0xE42 DUP3 GT ISZERO PUSH2 0x757 JUMP JUMPDEST DUP5 DUP1 REVERT JUMPDEST POP POP CALLVALUE PUSH2 0x197 JUMPI PUSH1 0x20 CALLDATASIZE PUSH1 0x3 NOT ADD SLT PUSH2 0x197 JUMPI PUSH1 0x20 SWAP2 PUSH1 0xFF SWAP1 DUP3 SWAP1 PUSH1 0x1 PUSH1 0x1 PUSH1 0xA0 SHL SUB PUSH2 0x886 PUSH2 0xEE2 JUMP JUMPDEST AND DUP2 MSTORE PUSH1 0x2 DUP6 MSTORE KECCAK256 SLOAD AND SWAP1 MLOAD SWAP1 ISZERO ISZERO DUP2 MSTORE RETURN JUMPDEST POP POP CALLVALUE PUSH2 0x197 JUMPI PUSH1 0x20 CALLDATASIZE PUSH1 0x3 NOT ADD SLT PUSH2 0x197 JUMPI DUP1 PUSH1 0x80 SWAP3 PUSH2 0x8B8 PUSH2 0xEE2 JUMP JUMPDEST DUP2 PUSH1 0x60 DUP5 MLOAD PUSH2 0x8C6 DUP2 PUSH2 0xE2C JUMP JUMPDEST DUP3 DUP2 MSTORE DUP3 PUSH1 0x20 DUP3 ADD MSTORE DUP3 DUP7 DUP3 ADD MSTORE ADD MSTORE PUSH1 0x1 DUP1 PUSH1 0xA0 SHL SUB AND DUP2 MSTORE PUSH1 0x2 PUSH1 0x20 MSTORE KECCAK256 SWAP1 DUP1 MLOAD SWAP1 PUSH2 0x8F3 DUP3 PUSH2 0xE2C JUMP JUMPDEST DUP3 SLOAD SWAP3 PUSH1 0xFF DUP5 AND ISZERO ISZERO SWAP4 DUP5 DUP5 MSTORE PUSH1 0xFF PUSH1 0x20 DUP6 ADD SWAP2 PUSH1 0x8 SHR AND ISZERO ISZERO DUP2 MSTORE PUSH1 0x60 PUSH1 0x2 PUSH1 0x1 DUP5 ADD SLOAD SWAP4 DUP6 DUP8 ADD SWAP5 DUP6 MSTORE ADD SLOAD SWAP5 ADD SWAP4 DUP5 MSTORE DUP3 MLOAD SWAP5 DUP6 MSTORE MLOAD ISZERO ISZERO PUSH1 0x20 DUP6 ADD MSTORE MLOAD SWAP1 DUP4 ADD MSTORE MLOAD PUSH1 0x60 DUP3 ADD MSTORE RETURN JUMPDEST POP POP CALLVALUE PUSH2 0x197 JUMPI PUSH1 0x20 CALLDATASIZE PUSH1 0x3 NOT ADD SLT PUSH2 0x197 JUMPI PUSH1 0x20 SWAP1 PUSH2 0x966 PUSH2 0x961 PUSH2 0xEE2 JUMP JUMPDEST PUSH2 0x122B JUMP JUMPDEST SWAP1 MLOAD SWAP1 ISZERO ISZERO DUP2 MSTORE RETURN JUMPDEST DUP4 DUP4 CALLVALUE PUSH2 0x197 JUMPI DUP1 PUSH1 0x3 NOT CALLDATASIZE ADD SLT PUSH2 0x197 JUMPI PUSH2 0x989 PUSH2 0xECC JUMP JUMPDEST SWAP1 CALLER PUSH1 0x1 PUSH1 0x1 PUSH1 0xA0 SHL SUB DUP4 AND SUB PUSH2 0x9A6 JUMPI POP PUSH2 0x1D6 SWAP2 SWAP3 CALLDATALOAD PUSH2 0x11B6 JUMP JUMPDEST MLOAD PUSH4 0x334BD919 PUSH1 0xE1 SHL DUP2 MSTORE DUP4 SWAP1 REVERT JUMPDEST SWAP2 SWAP1 POP CALLVALUE PUSH2 0x1DA JUMPI DUP1 PUSH1 0x3 NOT CALLDATASIZE ADD SLT PUSH2 0x1DA JUMPI PUSH2 0x1D6 SWAP2 CALLDATALOAD PUSH2 0x9DA PUSH1 0x1 PUSH2 0x1C0 PUSH2 0xECC JUMP JUMPDEST PUSH2 0x10A4 JUMP JUMPDEST SWAP1 POP CALLVALUE PUSH2 0x1DA JUMPI PUSH1 0x20 CALLDATASIZE PUSH1 0x3 NOT ADD SLT PUSH2 0x1DA JUMPI DUP2 PUSH1 0x20 SWAP4 PUSH1 0x1 SWAP3 CALLDATALOAD DUP2 MSTORE DUP1 DUP6 MSTORE KECCAK256 ADD SLOAD SWAP1 MLOAD SWAP1 DUP2 MSTORE RETURN JUMPDEST SWAP2 SWAP1 POP CALLVALUE PUSH2 0x1DA JUMPI DUP1 PUSH1 0x3 NOT CALLDATASIZE ADD SLT PUSH2 0x1DA JUMPI DUP2 CALLDATALOAD PUSH8 0xFFFFFFFFFFFFFFFF DUP2 GT PUSH2 0x6B5 JUMPI CALLDATASIZE PUSH1 0x23 DUP3 ADD SLT ISZERO PUSH2 0x6B5 JUMPI PUSH2 0xA4C DUP3 SWAP2 CALLDATASIZE SWAP1 PUSH1 0x24 DUP2 DUP8 ADD CALLDATALOAD SWAP2 ADD PUSH2 0xE80 JUMP JUMPDEST SWAP4 DUP2 MLOAD SWAP5 PUSH1 0x20 SWAP6 PUSH2 0xA82 DUP5 DUP3 DUP10 PUSH2 0xA6C DUP2 DUP4 ADD SWAP7 DUP8 DUP2 MLOAD SWAP4 DUP5 SWAP3 ADD PUSH2 0xF41 JUMP JUMPDEST DUP2 ADD PUSH1 0x24 CALLDATALOAD DUP12 DUP3 ADD MSTORE SUB DUP10 DUP2 ADD DUP5 MSTORE ADD DUP3 PUSH2 0xE5E JUMP JUMPDEST MLOAD SWAP1 KECCAK256 SWAP4 DUP5 DUP3 MSTORE DUP6 MSTORE KECCAK256 SWAP2 DUP3 SLOAD SWAP3 PUSH1 0xFF DUP5 AND ISZERO SWAP4 DUP5 PUSH2 0xAA5 JUMPI JUMPDEST POP POP POP MLOAD SWAP1 DUP2 MSTORE RETURN JUMPDEST PUSH1 0x1 SWAP1 PUSH1 0xFF NOT AND OR SWAP1 SSTORE PUSH32 0xC0AFD2D440ECCE8F50A3A8FB8C422B4BB32611B01094A5041D71F88DD21C6A9 DUP3 DUP1 MLOAD PUSH1 0x1 DUP2 MSTORE TIMESTAMP DUP8 DUP3 ADD MSTORE LOG2 CODESIZE DUP1 DUP1 PUSH2 0xA9C JUMP JUMPDEST SWAP1 POP CALLVALUE PUSH2 0x1DA JUMPI PUSH1 0x20 CALLDATASIZE PUSH1 0x3 NOT ADD SLT PUSH2 0x1DA JUMPI DUP2 PUSH1 0x20 SWAP4 DUP3 PUSH1 0xFF SWAP4 CALLDATALOAD DUP3 MSTORE DUP6 MSTORE KECCAK256 SLOAD AND SWAP1 MLOAD SWAP1 ISZERO ISZERO DUP2 MSTORE RETURN JUMPDEST DUP4 DUP4 CALLVALUE PUSH2 0x197 JUMPI PUSH1 0x20 SWAP1 DUP2 PUSH1 0x3 NOT CALLDATASIZE ADD SLT PUSH2 0x1DA JUMPI PUSH8 0xFFFFFFFFFFFFFFFF SWAP4 DUP1 CALLDATALOAD DUP6 DUP2 GT PUSH2 0x857 JUMPI CALLDATASIZE PUSH1 0x23 DUP3 ADD SLT ISZERO PUSH2 0x857 JUMPI PUSH2 0xB57 SWAP1 CALLDATASIZE SWAP1 PUSH1 0x24 DUP2 DUP6 ADD CALLDATALOAD SWAP2 ADD PUSH2 0xE80 JUMP JUMPDEST SWAP1 CALLER DUP6 MSTORE PUSH1 0x3 DUP5 MSTORE DUP3 DUP6 KECCAK256 SWAP1 PUSH1 0x1 SWAP2 DUP3 DUP2 ADD SLOAD ISZERO SWAP1 DUP2 ISZERO PUSH2 0xDCA JUMPI JUMPDEST POP ISZERO PUSH2 0xD87 JUMPI DUP4 MLOAD PUSH1 0xA0 DUP2 ADD DUP2 DUP2 LT DUP10 DUP3 GT OR PUSH2 0xD74 JUMPI SWAP1 PUSH1 0x3 SWAP2 DUP7 MSTORE CALLER DUP2 MSTORE PUSH2 0xC15 DUP8 DUP3 ADD TIMESTAMP DUP2 MSTORE DUP8 DUP4 ADD SWAP1 DUP11 DUP3 MSTORE PUSH1 0x60 DUP5 ADD SWAP1 DUP12 DUP3 MSTORE PUSH1 0x80 DUP6 ADD SWAP9 DUP10 MSTORE CALLER DUP13 MSTORE DUP6 DUP12 MSTORE DUP10 DUP13 KECCAK256 SWAP5 PUSH1 0x1 DUP1 PUSH1 0xA0 SHL SUB SWAP1 MLOAD AND PUSH12 0xFFFFFFFFFFFFFFFFFFFFFFFF PUSH1 0xA0 SHL DUP7 SLOAD AND OR DUP6 SSTORE MLOAD DUP8 DUP6 ADD SSTORE PUSH2 0xBFE PUSH1 0x2 DUP6 ADD SWAP3 MLOAD ISZERO ISZERO DUP4 SWAP1 PUSH1 0xFF DUP1 NOT DUP4 SLOAD AND SWAP2 ISZERO ISZERO AND OR SWAP1 SSTORE JUMP JUMPDEST MLOAD DUP2 SLOAD PUSH2 0xFF00 NOT AND SWAP1 ISZERO ISZERO PUSH1 0x8 SHL PUSH2 0xFF00 AND OR SWAP1 SSTORE JUMP JUMPDEST ADD SWAP3 MLOAD SWAP1 DUP2 MLOAD SWAP8 DUP9 GT PUSH2 0xD61 JUMPI POP PUSH2 0xC2D DUP4 SLOAD PUSH2 0xF07 JUMP JUMPDEST PUSH1 0x1F DUP2 GT PUSH2 0xD1B JUMPI JUMPDEST POP DUP5 SWAP1 PUSH1 0x1F DUP9 GT PUSH1 0x1 EQ PUSH2 0xC9C JUMPI SWAP7 DUP1 SWAP3 DUP2 SWAP3 DUP9 SWAP10 PUSH32 0x2DE2BF92AC2BDD4CB3F75B65C2DEE33E2D3EB589EBEF868F88FC50B0967BD677 SWAP9 SWAP10 SWAP5 PUSH2 0xC91 JUMPI JUMPDEST POP POP SHL SWAP2 PUSH1 0x0 NOT SWAP1 PUSH1 0x3 SHL SHR NOT AND OR SWAP1 SSTORE JUMPDEST MLOAD SWAP2 TIMESTAMP DUP4 MSTORE CALLER SWAP3 LOG2 DUP1 RETURN JUMPDEST ADD MLOAD SWAP3 POP DUP10 DUP1 PUSH2 0xC74 JUMP JUMPDEST DUP4 DUP8 MSTORE DUP6 DUP8 KECCAK256 SWAP1 SWAP8 SWAP2 PUSH1 0x1F NOT DUP4 AND DUP9 JUMPDEST DUP2 DUP2 LT PUSH2 0xD06 JUMPI POP SWAP9 DUP4 PUSH32 0x2DE2BF92AC2BDD4CB3F75B65C2DEE33E2D3EB589EBEF868F88FC50B0967BD677 SWAP9 SWAP10 SWAP11 LT PUSH2 0xCED JUMPI JUMPDEST POP POP POP DUP2 SHL ADD SWAP1 SSTORE PUSH2 0xC86 JUMP JUMPDEST ADD MLOAD PUSH1 0x0 NOT PUSH1 0xF8 DUP5 PUSH1 0x3 SHL AND SHR NOT AND SWAP1 SSTORE DUP8 DUP1 DUP1 PUSH2 0xCE0 JUMP JUMPDEST DUP11 DUP4 ADD MLOAD DUP5 SSTORE SWAP3 DUP6 ADD SWAP3 SWAP2 DUP9 ADD SWAP2 DUP9 ADD PUSH2 0xCAC JUMP JUMPDEST DUP4 DUP8 MSTORE DUP6 DUP8 KECCAK256 PUSH1 0x1F DUP10 ADD PUSH1 0x5 SHR DUP2 ADD SWAP2 DUP8 DUP11 LT PUSH2 0xD57 JUMPI JUMPDEST PUSH1 0x1F ADD PUSH1 0x5 SHR ADD SWAP1 DUP4 SWAP1 JUMPDEST DUP3 DUP2 LT PUSH2 0xD4C JUMPI POP POP PUSH2 0xC36 JUMP JUMPDEST DUP9 DUP2 SSTORE ADD DUP4 SWAP1 PUSH2 0xD3E JUMP JUMPDEST SWAP1 SWAP2 POP DUP2 SWAP1 PUSH2 0xD33 JUMP JUMPDEST PUSH4 0x4E487B71 PUSH1 0xE0 SHL DUP8 MSTORE PUSH1 0x41 SWAP1 MSTORE PUSH1 0x24 DUP7 REVERT JUMPDEST PUSH4 0x4E487B71 PUSH1 0xE0 SHL DUP9 MSTORE PUSH1 0x41 DUP4 MSTORE PUSH1 0x24 DUP9 REVERT JUMPDEST DUP4 MLOAD PUSH3 0x461BCD PUSH1 0xE5 SHL DUP2 MSTORE SWAP1 DUP2 ADD DUP6 SWAP1 MSTORE PUSH1 0x1F PUSH1 0x24 DUP3 ADD MSTORE PUSH32 0x50656E64696E672064656C6574696F6E20726571756573742065786973747300 PUSH1 0x44 DUP3 ADD MSTORE PUSH1 0x64 SWAP1 REVERT JUMPDEST PUSH1 0xFF SWAP2 POP PUSH1 0x2 ADD SLOAD AND DUP9 PUSH2 0xB73 JUMP JUMPDEST DUP5 SWAP2 CALLVALUE PUSH2 0x1DA JUMPI PUSH1 0x20 CALLDATASIZE PUSH1 0x3 NOT ADD SLT PUSH2 0x1DA JUMPI CALLDATALOAD PUSH4 0xFFFFFFFF PUSH1 0xE0 SHL DUP2 AND DUP1 SWAP2 SUB PUSH2 0x1DA JUMPI PUSH1 0x20 SWAP3 POP PUSH4 0x7965DB0B PUSH1 0xE0 SHL DUP2 EQ SWAP1 DUP2 ISZERO PUSH2 0xE1B JUMPI JUMPDEST POP ISZERO ISZERO DUP2 MSTORE RETURN JUMPDEST PUSH4 0x1FFC9A7 PUSH1 0xE0 SHL EQ SWAP1 POP DUP4 PUSH2 0xE14 JUMP JUMPDEST PUSH1 0x80 DUP2 ADD SWAP1 DUP2 LT PUSH8 0xFFFFFFFFFFFFFFFF DUP3 GT OR PUSH2 0xE48 JUMPI PUSH1 0x40 MSTORE JUMP JUMPDEST PUSH4 0x4E487B71 PUSH1 0xE0 SHL PUSH1 0x0 MSTORE PUSH1 0x41 PUSH1 0x4 MSTORE PUSH1 0x24 PUSH1 0x0 REVERT JUMPDEST SWAP1 PUSH1 0x1F DUP1 NOT SWAP2 ADD AND DUP2 ADD SWAP1 DUP2 LT PUSH8 0xFFFFFFFFFFFFFFFF DUP3 GT OR PUSH2 0xE48 JUMPI PUSH1 0x40 MSTORE JUMP JUMPDEST SWAP3 SWAP2 SWAP3 PUSH8 0xFFFFFFFFFFFFFFFF DUP3 GT PUSH2 0xE48 JUMPI PUSH1 0x40 MLOAD SWAP2 PUSH2 0xEAA PUSH1 0x1F DUP3 ADD PUSH1 0x1F NOT AND PUSH1 0x20 ADD DUP5 PUSH2 0xE5E JUMP JUMPDEST DUP3 SWAP5 DUP2 DUP5 MSTORE DUP2 DUP4 ADD GT PUSH2 0xEC7 JUMPI DUP3 DUP2 PUSH1 0x20 SWAP4 DUP5 PUSH1 0x0 SWAP7 ADD CALLDATACOPY ADD ADD MSTORE JUMP JUMPDEST PUSH1 0x0 DUP1 REVERT JUMPDEST PUSH1 0x24 CALLDATALOAD SWAP1 PUSH1 0x1 PUSH1 0x1 PUSH1 0xA0 SHL SUB DUP3 AND DUP3 SUB PUSH2 0xEC7 JUMPI JUMP JUMPDEST PUSH1 0x4 CALLDATALOAD SWAP1 PUSH1 0x1 PUSH1 0x1 PUSH1 0xA0 SHL SUB DUP3 AND DUP3 SUB PUSH2 0xEC7 JUMPI JUMP JUMPDEST PUSH1 0x24 CALLDATALOAD SWAP1 DUP2 ISZERO ISZERO DUP3 SUB PUSH2 0xEC7 JUMPI JUMP JUMPDEST SWAP1 PUSH1 0x1 DUP3 DUP2 SHR SWAP3 AND DUP1 ISZERO PUSH2 0xF37 JUMPI JUMPDEST PUSH1 0x20 DUP4 LT EQ PUSH2 0xF21 JUMPI JUMP JUMPDEST PUSH4 0x4E487B71 PUSH1 0xE0 SHL PUSH1 0x0 MSTORE PUSH1 0x22 PUSH1 0x4 MSTORE PUSH1 0x24 PUSH1 0x0 REVERT JUMPDEST SWAP2 PUSH1 0x7F AND SWAP2 PUSH2 0xF16 JUMP JUMPDEST PUSH1 0x0 JUMPDEST DUP4 DUP2 LT PUSH2 0xF54 JUMPI POP POP PUSH1 0x0 SWAP2 ADD MSTORE JUMP JUMPDEST DUP2 DUP2 ADD MLOAD DUP4 DUP3 ADD MSTORE PUSH1 0x20 ADD PUSH2 0xF44 JUMP JUMPDEST CALLER PUSH1 0x0 SWAP1 DUP2 MSTORE PUSH32 0x7D7FFB7A348E1C6A02869081A26547B49160DD3DF72D1D75A570EB9B698292EC PUSH1 0x20 MSTORE PUSH1 0x40 SWAP1 KECCAK256 SLOAD PUSH32 0xA49807205CE4D355092EF5A8A18F56E8913CF4A201FBE287825B095693C21775 SWAP1 PUSH1 0xFF AND ISZERO PUSH2 0xFC0 JUMPI POP JUMP JUMPDEST PUSH1 0x44 SWAP1 PUSH1 0x40 MLOAD SWAP1 PUSH4 0xE2517D3F PUSH1 0xE0 SHL DUP3 MSTORE CALLER PUSH1 0x4 DUP4 ADD MSTORE PUSH1 0x24 DUP3 ADD MSTORE REVERT JUMPDEST DUP1 PUSH1 0x0 MSTORE PUSH1 0x0 PUSH1 0x20 MSTORE PUSH1 0x40 PUSH1 0x0 KECCAK256 CALLER PUSH1 0x0 MSTORE PUSH1 0x20 MSTORE PUSH1 0xFF PUSH1 0x40 PUSH1 0x0 KECCAK256 SLOAD AND ISZERO PUSH2 0xFC0 JUMPI POP JUMP JUMPDEST PUSH1 0x1 PUSH1 0x1 PUSH1 0xA0 SHL SUB AND PUSH1 0x0 DUP2 DUP2 MSTORE PUSH32 0xF179AAFCC4FF8137FCA1EF3B9EC4D165F87016BA123E7973FBA770BC55E240E3 PUSH1 0x20 MSTORE PUSH1 0x40 DUP2 KECCAK256 SLOAD SWAP1 SWAP2 SWAP1 PUSH1 0x0 DUP1 MLOAD PUSH1 0x20 PUSH2 0x12D9 DUP4 CODECOPY DUP2 MLOAD SWAP2 MSTORE SWAP1 PUSH1 0xFF AND PUSH2 0x109F JUMPI DUP1 DUP4 MSTORE DUP3 PUSH1 0x20 MSTORE PUSH1 0x40 DUP4 KECCAK256 DUP3 DUP5 MSTORE PUSH1 0x20 MSTORE PUSH1 0x40 DUP4 KECCAK256 PUSH1 0x1 PUSH1 0xFF NOT DUP3 SLOAD AND OR SWAP1 SSTORE PUSH32 0x2F8788117E7EFF1D82E926EC794901D17C78024A50270940304540A733656F0D CALLER SWAP4 DUP1 LOG4 PUSH1 0x1 SWAP1 JUMP JUMPDEST POP POP SWAP1 JUMP JUMPDEST SWAP1 PUSH1 0x0 SWAP2 DUP1 DUP4 MSTORE DUP3 PUSH1 0x20 MSTORE PUSH1 0x40 DUP4 KECCAK256 SWAP2 PUSH1 0x1 DUP1 PUSH1 0xA0 SHL SUB AND SWAP2 DUP3 DUP5 MSTORE PUSH1 0x20 MSTORE PUSH1 0xFF PUSH1 0x40 DUP5 KECCAK256 SLOAD AND ISZERO PUSH1 0x0 EQ PUSH2 0x109F JUMPI DUP1 DUP4 MSTORE DUP3 PUSH1 0x20 MSTORE PUSH1 0x40 DUP4 KECCAK256 DUP3 DUP5 MSTORE PUSH1 0x20 MSTORE PUSH1 0x40 DUP4 KECCAK256 PUSH1 0x1 PUSH1 0xFF NOT DUP3 SLOAD AND OR SWAP1 SSTORE PUSH32 0x2F8788117E7EFF1D82E926EC794901D17C78024A50270940304540A733656F0D CALLER SWAP4 DUP1 LOG4 PUSH1 0x1 SWAP1 JUMP JUMPDEST PUSH1 0x1 PUSH1 0x1 PUSH1 0xA0 SHL SUB AND PUSH1 0x0 DUP2 DUP2 MSTORE PUSH32 0xF179AAFCC4FF8137FCA1EF3B9EC4D165F87016BA123E7973FBA770BC55E240E3 PUSH1 0x20 MSTORE PUSH1 0x40 DUP2 KECCAK256 SLOAD SWAP1 SWAP2 SWAP1 PUSH1 0x0 DUP1 MLOAD PUSH1 0x20 PUSH2 0x12D9 DUP4 CODECOPY DUP2 MLOAD SWAP2 MSTORE SWAP1 PUSH1 0xFF AND ISZERO PUSH2 0x109F JUMPI DUP1 DUP4 MSTORE DUP3 PUSH1 0x20 MSTORE PUSH1 0x40 DUP4 KECCAK256 DUP3 DUP5 MSTORE PUSH1 0x20 MSTORE PUSH1 0x40 DUP4 KECCAK256 PUSH1 0xFF NOT DUP2 SLOAD AND SWAP1 SSTORE PUSH32 0xF6391F5C32D9C69D2A47EA670B442974B53935D1EDC7FD64EB21E047A839171B CALLER SWAP4 DUP1 LOG4 PUSH1 0x1 SWAP1 JUMP JUMPDEST SWAP1 PUSH1 0x0 SWAP2 DUP1 DUP4 MSTORE DUP3 PUSH1 0x20 MSTORE PUSH1 0x40 DUP4 KECCAK256 SWAP2 PUSH1 0x1 DUP1 PUSH1 0xA0 SHL SUB AND SWAP2 DUP3 DUP5 MSTORE PUSH1 0x20 MSTORE PUSH1 0xFF PUSH1 0x40 DUP5 KECCAK256 SLOAD AND PUSH1 0x0 EQ PUSH2 0x109F JUMPI DUP1 DUP4 MSTORE DUP3 PUSH1 0x20 MSTORE PUSH1 0x40 DUP4 KECCAK256 DUP3 DUP5 MSTORE PUSH1 0x20 MSTORE PUSH1 0x40 DUP4 KECCAK256 PUSH1 0xFF NOT DUP2 SLOAD AND SWAP1 SSTORE PUSH32 0xF6391F5C32D9C69D2A47EA670B442974B53935D1EDC7FD64EB21E047A839171B CALLER SWAP4 DUP1 LOG4 PUSH1 0x1 SWAP1 JUMP JUMPDEST PUSH1 0x1 PUSH1 0x1 PUSH1 0xA0 SHL SUB AND PUSH1 0x0 SWAP1 DUP2 MSTORE PUSH1 0x2 PUSH1 0x20 MSTORE PUSH1 0x40 DUP1 DUP3 KECCAK256 SWAP1 MLOAD SWAP1 SWAP2 SWAP1 PUSH2 0x1251 DUP2 PUSH2 0xE2C JUMP JUMPDEST PUSH1 0xFF DUP4 SLOAD DUP2 DUP2 AND ISZERO ISZERO DUP4 MSTORE PUSH1 0x8 SHR AND ISZERO ISZERO PUSH1 0x20 DUP3 ADD MSTORE PUSH1 0x60 PUSH1 0x2 PUSH1 0x1 DUP6 ADD SLOAD SWAP5 DUP6 PUSH1 0x40 DUP6 ADD MSTORE ADD SLOAD SWAP2 ADD SWAP1 DUP1 DUP3 MSTORE ISZERO PUSH2 0x12D2 JUMPI PUSH3 0x15180 SWAP3 DUP4 DUP2 MUL SWAP4 DUP2 DUP6 DIV EQ SWAP1 ISZERO OR ISZERO PUSH2 0x12BE JUMPI MLOAD SWAP2 DUP3 ADD DUP1 SWAP3 GT PUSH2 0x12AA JUMPI POP TIMESTAMP GT SWAP1 JUMP JUMPDEST PUSH4 0x4E487B71 PUSH1 0xE0 SHL DUP2 MSTORE PUSH1 0x11 PUSH1 0x4 MSTORE PUSH1 0x24 SWAP1 REVERT JUMPDEST PUSH4 0x4E487B71 PUSH1 0xE0 SHL DUP3 MSTORE PUSH1 0x11 PUSH1 0x4 MSTORE PUSH1 0x24 DUP3 REVERT JUMPDEST POP SWAP1 POP SWAP1 JUMP INVALID PUSH18 0xF3D55856E4058ED06EE057D79ADA615F65CD CREATE2 0xF9 0xEE DUP9 XOR SHL SWAP2 TIMESTAMP 0x25 ADDMOD DUP16 DUP4 0x4F LOG2 PUSH5 0x6970667358 0x22 SLT KECCAK256 DUP13 PUSH1 0xFE 0xDB 0xCC BALANCE EXP 0xF8 0xEA 0xC1 0xAD SIGNEXTEND 0xD4 0xB0 0x2A LOG2 0xCC 0x4E SDIV SIGNEXTEND 0xEF 0xC3 0x2E STATICCALL PUSH17 0xB7ADD7EB0F69AD64736F6C634300081400 CALLER 0x2F DUP8 DUP9 GT PUSH31 0x7EFF1D82E926EC794901D17C78024A50270940304540A733656F0D00000000 "},"methodIdentifiers":{"ADMIN_ROLE()":"75b238fc","DEFAULT_ADMIN_ROLE()":"a217fddf","MODERATOR_ROLE()":"797669c9","anonymizeContent(uint256)":"7be98b91","anonymizedContent(uint256)":"8abcfce0","deletionRequests(address)":"bb59ce40","getPrivacySettings(address)":"517fcb89","getRoleAdmin(bytes32)":"248a9ca3","grantModeratorRole(address)":"aa232dc2","grantRole(bytes32,address)":"2f2ff15d","hasRole(bytes32,address)":"91d14854","isAnonymousUser(address)":"63c813ce","isContentAnonymized(uint256)":"5bba8f68","logDataAccess(address)":"aea94525","processDeletionRequest(address,bool)":"9d53dcc8","renounceRole(bytes32,address)":"36568abe","requestDataDeletion(string)":"0c3f530f","revokeModeratorRole(address)":"92b908b2","revokeRole(bytes32,address)":"d547741f","shouldDeleteData(address)":"4ccf9706","supportsInterface(bytes4)":"01ffc9a7","updatePrivacySettings(bool,bool,uint256)":"6681b823","userPrivacySettings(address)":"fb18f555","verifiedProofs(bytes32)":"176d80c4","verifyZKProof(bytes,bytes32)":"1f43e160"}}}}}