{"contracts/core/StudentRegistryContract.sol":{"StudentRegistryContract":{"abi":[{"inputs":[{"internalType":"address","name":"_privacyContract","type":"address"}],"stateMutability":"nonpayable","type":"constructor"},{"inputs":[],"name":"AccessControlBadConfirmation","type":"error"},{"inputs":[{"internalType":"address","name":"account","type":"address"},{"internalType":"bytes32","name":"neededRole","type":"bytes32"}],"name":"AccessControlUnauthorizedAccount","type":"error"},{"inputs":[],"name":"ReentrancyGuardReentrantCall","type":"error"},{"anonymous":false,"inputs":[{"indexed":true,"internalType":"address","name":"admin","type":"address"},{"indexed":false,"internalType":"uint256","name":"amount","type":"uint256"}],"name":"FeeWithdrawn","type":"event"},{"anonymous":false,"inputs":[{"indexed":true,"internalType":"bytes32","name":"role","type":"bytes32"},{"indexed":true,"internalType":"bytes32","name":"previousAdminRole","type":"bytes32"},{"indexed":true,"internalType":"bytes32","name":"newAdminRole","type":"bytes32"}],"name":"RoleAdminChanged","type":"event"},{"anonymous":false,"inputs":[{"indexed":true,"internalType":"address","name":"user","type":"address"},{"indexed":false,"internalType":"enum StudentRegistryContract.UserRole","name":"role","type":"uint8"}],"name":"RoleAssigned","type":"event"},{"anonymous":false,"inputs":[{"indexed":true,"internalType":"bytes32","name":"role","type":"bytes32"},{"indexed":true,"internalType":"address","name":"account","type":"address"},{"indexed":true,"internalType":"address","name":"sender","type":"address"}],"name":"RoleGranted","type":"event"},{"anonymous":false,"inputs":[{"indexed":true,"internalType":"bytes32","name":"role","type":"bytes32"},{"indexed":true,"internalType":"address","name":"account","type":"address"},{"indexed":true,"internalType":"address","name":"sender","type":"address"}],"name":"RoleRevoked","type":"event"},{"anonymous":false,"inputs":[{"indexed":true,"internalType":"address","name":"student","type":"address"},{"indexed":false,"internalType":"uint256","name":"timestamp","type":"uint256"}],"name":"StudentReactivated","type":"event"},{"anonymous":false,"inputs":[{"indexed":true,"internalType":"address","name":"student","type":"address"},{"indexed":false,"internalType":"bytes32","name":"hashedIdentity","type":"bytes32"},{"indexed":false,"internalType":"uint256","name":"fee","type":"uint256"},{"indexed":false,"internalType":"uint256","name":"timestamp","type":"uint256"}],"name":"StudentRegistered","type":"event"},{"anonymous":false,"inputs":[{"indexed":true,"internalType":"address","name":"student","type":"address"},{"indexed":false,"internalType":"string","name":"reason","type":"string"},{"indexed":false,"internalType":"uint256","name":"timestamp","type":"uint256"}],"name":"StudentRejected","type":"event"},{"anonymous":false,"inputs":[{"indexed":true,"internalType":"address","name":"student","type":"address"},{"indexed":false,"internalType":"string","name":"reason","type":"string"},{"indexed":false,"internalType":"uint256","name":"timestamp","type":"uint256"}],"name":"StudentSuspended","type":"event"},{"anonymous":false,"inputs":[{"indexed":true,"internalType":"address","name":"student","type":"address"},{"indexed":false,"internalType":"uint256","name":"timestamp","type":"uint256"}],"name":"StudentVerified","type":"event"},{"anonymous":false,"inputs":[{"indexed":true,"internalType":"address","name":"student","type":"address"},{"indexed":false,"internalType":"uint256","name":"amount","type":"uint256"}],"name":"VerificationFeeCollected","type":"event"},{"inputs":[],"name":"ADMIN_ROLE","outputs":[{"internalType":"bytes32","name":"","type":"bytes32"}],"stateMutability":"view","type":"function"},{"inputs":[],"name":"DEFAULT_ADMIN_ROLE","outputs":[{"internalType":"bytes32","name":"","type":"bytes32"}],"stateMutability":"view","type":"function"},{"inputs":[],"name":"VERIFICATION_FEE","outputs":[{"internalType":"uint256","name":"","type":"uint256"}],"stateMutability":"view","type":"function"},{"inputs":[],"name":"VERIFIER_ROLE","outputs":[{"internalType":"bytes32","name":"","type":"bytes32"}],"stateMutability":"view","type":"function"},{"inputs":[{"internalType":"address","name":"userAddress","type":"address"},{"internalType":"enum StudentRegistryContract.UserRole","name":"role","type":"uint8"}],"name":"assignRole","outputs":[],"stateMutability":"nonpayable","type":"function"},{"inputs":[],"name":"getBalance","outputs":[{"internalType":"uint256","name":"","type":"uint256"}],"stateMutability":"view","type":"function"},{"inputs":[{"internalType":"bytes32","name":"role","type":"bytes32"}],"name":"getRoleAdmin","outputs":[{"internalType":"bytes32","name":"","type":"bytes32"}],"stateMutability":"view","type":"function"},{"inputs":[],"name":"getStatistics","outputs":[{"internalType":"uint256","name":"total","type":"uint256"},{"internalType":"uint256","name":"verified","type":"uint256"},{"internalType":"uint256","name":"pending","type":"uint256"}],"stateMutability":"view","type":"function"},{"inputs":[{"internalType":"address","name":"studentAddress","type":"address"}],"name":"getStudentProfile","outputs":[{"components":[{"internalType":"address","name":"studentAddress","type":"address"},{"internalType":"bytes32","name":"hashedIdentity","type":"bytes32"},{"internalType":"enum StudentRegistryContract.StudentStatus","name":"status","type":"uint8"},{"internalType":"enum StudentRegistryContract.UserRole","name":"role","type":"uint8"},{"internalType":"uint256","name":"registrationTime","type":"uint256"},{"internalType":"uint256","name":"verificationTime","type":"uint256"},{"internalType":"string","name":"rejectionReason","type":"string"},{"internalType":"bool","name":"isActive","type":"bool"}],"internalType":"struct StudentRegistryContract.StudentProfile","name":"","type":"tuple"}],"stateMutability":"view","type":"function"},{"inputs":[{"internalType":"address","name":"studentAddress","type":"address"}],"name":"getStudentStatus","outputs":[{"internalType":"enum StudentRegistryContract.StudentStatus","name":"","type":"uint8"}],"stateMutability":"view","type":"function"},{"inputs":[{"internalType":"address","name":"userAddress","type":"address"}],"name":"getUserRole","outputs":[{"internalType":"enum StudentRegistryContract.UserRole","name":"","type":"uint8"}],"stateMutability":"view","type":"function"},{"inputs":[{"internalType":"bytes32","name":"role","type":"bytes32"},{"internalType":"address","name":"account","type":"address"}],"name":"grantRole","outputs":[],"stateMutability":"nonpayable","type":"function"},{"inputs":[{"internalType":"address","name":"verifier","type":"address"}],"name":"grantVerifierRole","outputs":[],"stateMutability":"nonpayable","type":"function"},{"inputs":[{"internalType":"bytes32","name":"role","type":"bytes32"},{"internalType":"address","name":"account","type":"address"}],"name":"hasRole","outputs":[{"internalType":"bool","name":"","type":"bool"}],"stateMutability":"view","type":"function"},{"inputs":[{"internalType":"bytes32","name":"","type":"bytes32"}],"name":"identityToAddress","outputs":[{"internalType":"address","name":"","type":"address"}],"stateMutability":"view","type":"function"},{"inputs":[{"internalType":"address","name":"userAddress","type":"address"}],"name":"isAdmin","outputs":[{"internalType":"bool","name":"","type":"bool"}],"stateMutability":"view","type":"function"},{"inputs":[{"internalType":"address","name":"userAddress","type":"address"}],"name":"isFaculty","outputs":[{"internalType":"bool","name":"","type":"bool"}],"stateMutability":"view","type":"function"},{"inputs":[{"internalType":"address","name":"studentAddress","type":"address"}],"name":"isVerifiedStudent","outputs":[{"internalType":"bool","name":"","type":"bool"}],"stateMutability":"view","type":"function"},{"inputs":[],"name":"pendingVerifications","outputs":[{"internalType":"uint256","name":"","type":"uint256"}],"stateMutability":"view","type":"function"},{"inputs":[],"name":"privacyContract","outputs":[{"internalType":"contract PrivacyContract","name":"","type":"address"}],"stateMutability":"view","type":"function"},{"inputs":[{"internalType":"address","name":"studentAddress","type":"address"}],"name":"reactivateStudent","outputs":[],"stateMutability":"nonpayable","type":"function"},{"inputs":[{"internalType":"bytes32","name":"hashedIdentity","type":"bytes32"}],"name":"registerStudent","outputs":[],"stateMutability":"payable","type":"function"},{"inputs":[{"internalType":"address","name":"studentAddress","type":"address"},{"internalType":"string","name":"reason","type":"string"}],"name":"rejectStudent","outputs":[],"stateMutability":"nonpayable","type":"function"},{"inputs":[{"internalType":"bytes32","name":"role","type":"bytes32"},{"internalType":"address","name":"callerConfirmation","type":"address"}],"name":"renounceRole","outputs":[],"stateMutability":"nonpayable","type":"function"},{"inputs":[{"internalType":"bytes32","name":"role","type":"bytes32"},{"internalType":"address","name":"account","type":"address"}],"name":"revokeRole","outputs":[],"stateMutability":"nonpayable","type":"function"},{"inputs":[{"internalType":"address","name":"verifier","type":"address"}],"name":"revokeVerifierRole","outputs":[],"stateMutability":"nonpayable","type":"function"},{"inputs":[{"internalType":"address","name":"","type":"address"}],"name":"studentPoints","outputs":[{"internalType":"uint256","name":"","type":"uint256"}],"stateMutability":"view","type":"function"},{"inputs":[{"internalType":"address","name":"","type":"address"}],"name":"students","outputs":[{"internalType":"address","name":"studentAddress","type":"address"},{"internalType":"bytes32","name":"hashedIdentity","type":"bytes32"},{"internalType":"enum StudentRegistryContract.StudentStatus","name":"status","type":"uint8"},{"internalType":"enum StudentRegistryContract.UserRole","name":"role","type":"uint8"},{"internalType":"uint256","name":"registrationTime","type":"uint256"},{"internalType":"uint256","name":"verificationTime","type":"uint256"},{"internalType":"string","name":"rejectionReason","type":"string"},{"internalType":"bool","name":"isActive","type":"bool"}],"stateMutability":"view","type":"function"},{"inputs":[{"internalType":"bytes4","name":"interfaceId","type":"bytes4"}],"name":"supportsInterface","outputs":[{"internalType":"bool","name":"","type":"bool"}],"stateMutability":"view","type":"function"},{"inputs":[{"internalType":"address","name":"studentAddress","type":"address"},{"internalType":"string","name":"reason","type":"string"}],"name":"suspendStudent","outputs":[],"stateMutability":"nonpayable","type":"function"},{"inputs":[],"name":"totalStudents","outputs":[{"internalType":"uint256","name":"","type":"uint256"}],"stateMutability":"view","type":"function"},{"inputs":[],"name":"verifiedStudents","outputs":[{"internalType":"uint256","name":"","type":"uint256"}],"stateMutability":"view","type":"function"},{"inputs":[{"internalType":"address","name":"studentAddress","type":"address"}],"name":"verifyStudent","outputs":[],"stateMutability":"nonpayable","type":"function"},{"inputs":[{"internalType":"uint256","name":"amount","type":"uint256"}],"name":"withdrawFees","outputs":[],"stateMutability":"nonpayable","type":"function"}],"evm":{"bytecode":{"linkReferences":{},"object":"608034620000ee57601f620020f238819003918201601f19168301916001600160401b03831184841017620000f357808492602094604052833981010312620000ee57516001600160a01b03811690819003620000ee57600180558015620000a957600280546001600160a01b031916919091179055620000803362000109565b506200008c3362000189565b5062000098336200022b565b50604051611e099081620002c98239f35b60405162461bcd60e51b815260206004820152601860248201527f496e76616c6964207072697661637920636f6e747261637400000000000000006044820152606490fd5b600080fd5b634e487b7160e01b600052604160045260246000fd5b6001600160a01b031660008181527fad3228b676f7d3cd4284a5443f17f1962b36e491b30a40b2405849e597ba5fb5602052604081205490919060ff166200018557818052816020526040822081835260205260408220600160ff198254161790553391600080516020620020d28339815191528180a4600190565b5090565b6001600160a01b031660008181527f7d7ffb7a348e1c6a02869081a26547b49160dd3df72d1d75a570eb9b698292ec60205260408120549091907fa49807205ce4d355092ef5a8a18f56e8913cf4a201fbe287825b095693c217759060ff166200022657808352826020526040832082845260205260408320600160ff19825416179055600080516020620020d2833981519152339380a4600190565b505090565b6001600160a01b031660008181527f1da0b5176dfe03406af5a6eed66ca01dda9b45ac4da671c3fa379cb93717ef8160205260408120549091907f0ce23c3e399818cfee81a7ab0880f714e53d7672b08df0fa62f2843416e1ea099060ff166200022657808352826020526040832082845260205260408320600160ff19825416179055600080516020620020d2833981519152339380a460019056fe60806040908082526004908136101561001757600080fd5b60009060e0908235821c90816301ffc9a7146116a1575080630337c0611461167857806312065fe01461165d5780631bed98a31461161c5780631eb30aeb146115c4578063248a9ca31461159957806324d7806c1461153e57806327820851146114f85780632f2ff15d146114ce5780632fe2cdfa1461107b57806336568abe14611034578063372d6b27146110045780634520687914610fdb57806353ca30cc14610fa35780635e318e0714610e9d578063630a195b14610b365780636515fd381461092857806375b238fc146108ed57806378a1bffd146108c95780637b562659146108aa57806391d14854146108635780639852bf8e14610844578063a217fddf14610829578063a3669aef146107d9578063a6c807a914610721578063ac8b466d146106ee578063c2a7870214610666578063c96f96e614610551578063c9b5901d14610493578063cfb28ba914610474578063d547741f14610435578063e1b042c614610334578063e7705db61461030b5763fe7617831461019d57600080fd5b346103075760209384600319360112610303576101b86116f5565b93838383516101c681611756565b828152828982015282858201528260608201528260808201528260a0820152606060c0820152015260018060a01b038095168452600386528184209180519461020e86611756565b86845416865260018401549188870192835260028501549260ff84168289019360058210156102f05750836102c4936102e49896936102b9938c99975261025f60ff60608b019660081c1686611c92565b60ff600660038a01549860808c01998a528a01549960a08c019a8b5260c06102896005830161189b565b9c019b8c520154169b8b81019c15158d5282519e8f9e8f92828452511691015251908c01525160608b0190611726565b516080890190611749565b5160a08701525160c0860152516101008093860152610120850190611941565b91511515908301520390f35b634e487b7160e01b815260218752602490fd5b8280fd5b5080fd5b82853461030757816003193601126103075760209051600080516020611db48339815191528152f35b50509134610303576020366003190112610303576103506116f5565b610358611981565b6001600160a01b031680845260036020528184206002015490929060ff1660058110156104225781036103e8575060207f6b9420b2afd9eaa5ddb0bebe6da09ce680aa86eabbe0da51c461442db94a605d918385526003825280852060016006600283019260ff199360028582541617905501918254161790556103dd600754611cd5565b60075551428152a280f35b6020606492519162461bcd60e51b8352820152601560248201527414dd1d59195b9d081b9bdd081cdd5cdc195b991959605a1b6044820152fd5b634e487b7160e01b855260218252602485fd5b50509134610303578060031936011261030357610470913561046b600161045a611710565b938387528660205286200154611a45565b611c1d565b5080f35b8285346103075781600319360112610307576020906008549051908152f35b50509134610303576020366003190112610303576104af6116f5565b6104b76119fb565b6001600160a01b031680845260036020528184206002015490929060ff166005811015610422579160209161050f60017f2531bb4d2629abd431b0c1fe1dfa50a2359bcdf5d99a9f7d752d1658669118fa9514611d1d565b848652600383528186209060028201600260ff1982541617905542910155610538600754611cd5565b600755610546600854611d68565b60085551428152a280f35b5050913461030357610562366117e3565b919061056c611981565b6001600160a01b031680855260036020528185206002015490939060ff1660058110156106535760020361061a579082916105ca7f738a2ab80034761069d754db817cf40b7df17de68bcd6ca1efe1e5df9e71b64994511515611d75565b848652600360205260068287206002810160ff199384825416179055019081541690556105f8600754611d68565b60075561060e8151928284938452830190611941565b4260208301520390a280f35b6020606492519162461bcd60e51b8352820152601460248201527314dd1d59195b9d081b9bdd081d995c9a599a595960621b6044820152fd5b634e487b7160e01b865260218252602486fd5b50508234610307576020366003190112610307576001600160a01b0361068a6116f5565b1691828152600360205260ff6002838320015460081c1660038110156106db576020945060011492836106c2575b5050519015158152f35b8152600384528190206006015460ff16915083806106b8565b634e487b7160e01b825260218552602482fd5b8285853461030357602036600319011261030357803583526020908152918190205490516001600160a01b039091168152f35b50839034610303576020366003190112610303576001600160a01b03926107ce9083908561074d6116f5565b16815260036020522093845416936001810154956002820154906107b3600384015491840154926107a360ff60066107876005890161189b565b970154169880519b8c9b8c5260208c01528a0160ff8316611726565b60ff60608a019160081c16611749565b608087015260a08601526101008060c0870152850190611941565b911515908301520390f35b828534610307576020366003190112610307576104709061082460016107fd6116f5565b92610806611981565b600080516020611db483398151915286528560205285200154611a45565b611b84565b82853461030757816003193601126103075751908152602090f35b8285346103075781600319360112610307576020906006549051908152f35b828585346103035781600319360112610303578160209360ff92610885611710565b903582528186528282206001600160a01b039091168252855220549151911615158152f35b8285346103075781600319360112610307576020906007549051908152f35b82853461030757816003193601126103075760209051680340aad21b3b7000008152f35b828534610307578160031936011261030757602090517fa49807205ce4d355092ef5a8a18f56e8913cf4a201fbe287825b095693c217758152f35b5050823461030757610939366117e3565b906109426119fb565b6001600160a01b0316808452600360209081528385206002015460ff16959193916005871015610b23576109796001809814611d1d565b61098584511515611d75565b84865260038252600583872060028101600360ff19825416179055019084519067ffffffffffffffff8211610b1057506109bf8254611861565b601f8111610aca575b508297601f8211600114610a4d57818091899a7f907d4bc94c82fe2433a0700127f5319918b4561c7ec5f860523b5b25b676996c999a93610a42575b501b916000199060031b1c19161790555b610a20600854611d68565b600855610a368251938385948552840190611941565b9042908301520390a280f35b88015192508b610a04565b90601f1981169883895284892090895b8b8110610ab55750827f907d4bc94c82fe2433a0700127f5319918b4561c7ec5f860523b5b25b676996c999a9b10610a9c575b5050811b019055610a15565b87015160001960f88460031b161c191690558980610a90565b88820151835591840191908601908601610a5d565b828852838820601f830160051c810191858410610b06575b601f0160051c019089905b828110610afb5750506109c8565b898155018990610aed565b9091508190610ae2565b634e487b7160e01b885260419052602487fd5b634e487b7160e01b865260219052602485fd5b5092909234610e995781600319360112610e9957610b526116f5565b916024359060039283831015610e9557610b6a611981565b6001600160a01b03948516958615610e605787908782526020958087528885842098808a541615600014610e2357889950869798959651968791610bad83611756565b8383528a8884018881528b85019260028452610bcd606087019384611c92565b8c8a89608089019742895260a08a0199428b5284519e8f610bed81611789565b5260c081019e8f52019d8e9a6001809c52835252209b51166bffffffffffffffffffffffff60a01b8c5416178b5551858b015560028a0191516005811015610e0f57610c399083611c9e565b519085821015610dfc5790610c4d91611cb6565b5183880155518387015560058601935180519367ffffffffffffffff8511610de95750610c7a8554611861565b601f8111610da1575b5089908c601f8611600114610d0c5794600694817f4ac36fa53f167ceb85964be512e01de2a3b8bdb9862f917da079deeeff689b389d9c9b9995610cf599958295610cfd9d9a95610d01575b50501b92600019911b1c19161790555b51151591019060ff801983541691151516179055565b518092611749565ba280f35b015193503880610ccf565b9294939190601f1985168785528c8520945b818110610d8c575093610cf59793610cfd9a979387937f4ac36fa53f167ceb85964be512e01de2a3b8bdb9862f917da079deeeff689b389f9e9d9b979860069910610d72575b50505050811b019055610cdf565b01519060f884600019921b161c1916905538808080610d64565b82840151865594870194928d01928d01610d1e565b858d528a8d20601f860160051c8101918c8710610ddf575b601f0160051c019083908e5b838210610dd457505050610c83565b81550183908e610dc5565b9091508190610db9565b634e487b7160e01b8d526041905260248cfd5b634e487b7160e01b8f526021875260248ffd5b50634e487b7160e01b8f526021875260248ffd5b505050505050610cfd90610e5b8360027f4ac36fa53f167ceb85964be512e01de2a3b8bdb9862f917da079deeeff689b389701611cb6565b610cf5565b606490602084519162461bcd60e51b8352820152600f60248201526e496e76616c6964206164647265737360881b6044820152fd5b8680fd5b8380fd5b5050913461030357602036600319011261030357813591610ebc611981565b610ec4611cfa565b478311610f6a578380808086335af13d15610f65573d610ee3816117c7565b90610ef0855192836117a5565b81528560203d92013e5b15610f315750519081527f78473f3f373f7673597f4f0fa5873cb4d375fea6d4339ad6b56dbd411513cb3f60203392a26001805580f35b6020606492519162461bcd60e51b8352820152600f60248201526e151c985b9cd9995c8819985a5b1959608a1b6044820152fd5b610efa565b6020606492519162461bcd60e51b83528201526014602482015273496e73756666696369656e742062616c616e636560601b6044820152fd5b8285346103075760203660031901126103075760209181906001600160a01b03610fcb6116f5565b1681526005845220549051908152f35b82853461030757816003193601126103075760025490516001600160a01b039091168152602090f35b82853461030757816003193601126103075760609060065490600754906008549181519384526020840152820152f35b5050823461030757806003193601126103075761104f611710565b90336001600160a01b0383160361106c5750610470919235611c1d565b5163334bd91960e11b81528390fd5b509092602091826003193601126114ca57833590611097611cfa565b680340aad21b3b70000034036114875733865260039485855260ff600285892001541660058110156114745761143c57828752808552838720546001600160a01b03969087166113f95783156113be5785888651926110f584611756565b338452838381019688885289820160019c8d82528d60608501918783528d8888608089019742895260c060a08b019a848c5285519d8e61113481611789565b52019b8c528d019b858d5233835252209951169a6bffffffffffffffffffffffff60a01b9b8c8b5416178a55519089015560028801915160058110156113aa5761117e9083611c9e565b519084821015611397579061119291611cb6565b518286015551858501556005840191519081519167ffffffffffffffff8311611384578c8c916111c28654611861565b8d601f8211611330575b50508c91601f86116001146112a95793857f7d642e36c27ac770602d1a455e972c51f1d800f1f2d5d582695c450e3961ed949d9c9b9a99979481946006989461123a9b9895610d015750501b92600019911b1c191617905551151591019060ff801983541691151516179055565b8288528552828720903390825416179055611256600654611cd5565b600655611264600854611cd5565b6008558151908152348482015242828201527f1f23165a6faf20b9e6e1c3d03b49fec76fde5226b4b531dc88bc18dda86f126f60603392a251913483523392a2805580f35b8681528d8120939594929190601f198616908f5b82821061130e5750509285927f7d642e36c27ac770602d1a455e972c51f1d800f1f2d5d582695c450e3961ed949e9d9c9b9a98959261123a9a976006999610610d725750505050811b019055610cdf565b9192939697829195968886015181550196019301908f9695949392918f6112bd565b9193509186815220601f850160051c8101918d861061137a575b918f92918f9492601f0160051c01905b81811061136857508d6111cc565b9092819492945501918e918e9361135a565b909150819061134a565b634e487b7160e01b8d526041875260248dfd5b634e487b7160e01b8f526021895260248ffd5b50634e487b7160e01b8f526021895260248ffd5b845162461bcd60e51b81528083018790526015602482015274092dcecc2d8d2c840d2c8cadce8d2e8f240d0c2e6d605b1b6044820152606490fd5b845162461bcd60e51b8152808301879052601b60248201527f4964656e7469747920616c7265616479207265676973746572656400000000006044820152606490fd5b835162461bcd60e51b81529081018590526012602482015271105b1c9958591e481c9959da5cdd195c995960721b6044820152606490fd5b634e487b7160e01b885260218252602488fd5b50505162461bcd60e51b815291820152601a60248201527f496e636f727265637420766572696669636174696f6e20666565000000000000604482015260649150fd5b8480fd5b5050913461030357806003193601126103035761047091356114f3600161045a611710565b611b0b565b8285346103075760203660031901126103075761153c60ff60028360209560018060a01b036115256116f5565b1681526003875220015460081c1691518092611749565bf35b50508234610307576020366003190112610307576001600160a01b036115626116f5565b1691828152600360205260ff6002838320015460081c1660038110156106db576020945060021492836106c2575050519015158152f35b8285853461030357602036600319011261030357816020936001923581528085522001549051908152f35b50508234610307576020366003190112610307576001600160a01b036115e86116f5565b1691828152600360205260ff600283832001541660058110156106db576020945060021492836106c2575050519015158152f35b8285346103075760203660031901126103075761153c60ff60028360209560018060a01b036116496116f5565b168152600387522001541691518092611726565b82853461030757816003193601126103075751478152602090f35b828534610307576020366003190112610307576104709061169c60016107fd6116f5565b611a6b565b83908534610303576020366003190112610303573563ffffffff60e01b81168091036103035760209250637965db0b60e01b81149081156116e4575b5015158152f35b6301ffc9a760e01b149050836116dd565b600435906001600160a01b038216820361170b57565b600080fd5b602435906001600160a01b038216820361170b57565b9060058210156117335752565b634e487b7160e01b600052602160045260246000fd5b9060038210156117335752565b610100810190811067ffffffffffffffff82111761177357604052565b634e487b7160e01b600052604160045260246000fd5b6020810190811067ffffffffffffffff82111761177357604052565b90601f8019910116810190811067ffffffffffffffff82111761177357604052565b67ffffffffffffffff811161177357601f01601f191660200190565b90604060031983011261170b576004356001600160a01b038116810361170b579160243567ffffffffffffffff811161170b578160238201121561170b57806004013590611830826117c7565b9261183e60405194856117a5565b8284526024838301011161170b5781600092602460209301838601378301015290565b90600182811c92168015611891575b602083101461187b57565b634e487b7160e01b600052602260045260246000fd5b91607f1691611870565b90604051918260008254926118af84611861565b90818452600194858116908160001461191e57506001146118db575b50506118d9925003836117a5565b565b9093915060005260209081600020936000915b8183106119065750506118d9935082010138806118cb565b855488840185015294850194879450918301916118ee565b9150506118d994506020925060ff191682840152151560051b82010138806118cb565b919082519283825260005b84811061196d575050826000602080949584010152601f8019910116010190565b60208183018101518483018201520161194c565b3360009081527f7d7ffb7a348e1c6a02869081a26547b49160dd3df72d1d75a570eb9b698292ec60205260409020547fa49807205ce4d355092ef5a8a18f56e8913cf4a201fbe287825b095693c217759060ff16156119dd5750565b6044906040519063e2517d3f60e01b82523360048301526024820152fd5b3360009081527f1da0b5176dfe03406af5a6eed66ca01dda9b45ac4da671c3fa379cb93717ef816020526040902054600080516020611db48339815191529060ff16156119dd5750565b80600052600060205260406000203360005260205260ff60406000205416156119dd5750565b6001600160a01b031660008181527f1da0b5176dfe03406af5a6eed66ca01dda9b45ac4da671c3fa379cb93717ef816020526040812054909190600080516020611db48339815191529060ff16611b0657808352826020526040832082845260205260408320600160ff198254161790557f2f8788117e7eff1d82e926ec794901d17c78024a50270940304540a733656f0d339380a4600190565b505090565b9060009180835282602052604083209160018060a01b03169182845260205260ff60408420541615600014611b0657808352826020526040832082845260205260408320600160ff198254161790557f2f8788117e7eff1d82e926ec794901d17c78024a50270940304540a733656f0d339380a4600190565b6001600160a01b031660008181527f1da0b5176dfe03406af5a6eed66ca01dda9b45ac4da671c3fa379cb93717ef816020526040812054909190600080516020611db48339815191529060ff1615611b065780835282602052604083208284526020526040832060ff1981541690557ff6391f5c32d9c69d2a47ea670b442974b53935d1edc7fd64eb21e047a839171b339380a4600190565b9060009180835282602052604083209160018060a01b03169182845260205260ff604084205416600014611b065780835282602052604083208284526020526040832060ff1981541690557ff6391f5c32d9c69d2a47ea670b442974b53935d1edc7fd64eb21e047a839171b339380a4600190565b60038210156117335752565b9060058110156117335760ff80198354169116179055565b9060038110156117335761ff0082549160081b169061ff001916179055565b6000198114611ce45760010190565b634e487b7160e01b600052601160045260246000fd5b600260015414611d0b576002600155565b604051633ee5aeb560e01b8152600490fd5b15611d2457565b606460405162461bcd60e51b815260206004820152602060248201527f53747564656e74206e6f742070656e64696e6720766572696669636174696f6e6044820152fd5b8015611ce4576000190190565b15611d7c57565b60405162461bcd60e51b815260206004820152600f60248201526e1499585cdbdb881c995c5d5a5c9959608a1b6044820152606490fdfe0ce23c3e399818cfee81a7ab0880f714e53d7672b08df0fa62f2843416e1ea09a264697066735822122092b9cac22d979812685cf866e71e4d5a6cb6ba4d2039196a9b0389627930050b64736f6c634300081400332f8788117e7eff1d82e926ec794901d17c78024a50270940304540a733656f0d","opcodes":"PUSH1 0x80 CALLVALUE PUSH3 0xEE JUMPI PUSH1 0x1F PUSH3 0x20F2 CODESIZE DUP2 SWAP1 SUB SWAP2 DUP3 ADD PUSH1 0x1F NOT AND DUP4 ADD SWAP2 PUSH1 0x1 PUSH1 0x1 PUSH1 0x40 SHL SUB DUP4 GT DUP5 DUP5 LT OR PUSH3 0xF3 JUMPI DUP1 DUP5 SWAP3 PUSH1 0x20 SWAP5 PUSH1 0x40 MSTORE DUP4 CODECOPY DUP2 ADD SUB SLT PUSH3 0xEE JUMPI MLOAD PUSH1 0x1 PUSH1 0x1 PUSH1 0xA0 SHL SUB DUP2 AND SWAP1 DUP2 SWAP1 SUB PUSH3 0xEE JUMPI PUSH1 0x1 DUP1 SSTORE DUP1 ISZERO PUSH3 0xA9 JUMPI PUSH1 0x2 DUP1 SLOAD PUSH1 0x1 PUSH1 0x1 PUSH1 0xA0 SHL SUB NOT AND SWAP2 SWAP1 SWAP2 OR SWAP1 SSTORE PUSH3 0x80 CALLER PUSH3 0x109 JUMP JUMPDEST POP PUSH3 0x8C CALLER PUSH3 0x189 JUMP JUMPDEST POP PUSH3 0x98 CALLER PUSH3 0x22B JUMP JUMPDEST POP PUSH1 0x40 MLOAD PUSH2 0x1E09 SWAP1 DUP2 PUSH3 0x2C9 DUP3 CODECOPY RETURN JUMPDEST PUSH1 0x40 MLOAD PUSH3 0x461BCD PUSH1 0xE5 SHL DUP2 MSTORE PUSH1 0x20 PUSH1 0x4 DUP3 ADD MSTORE PUSH1 0x18 PUSH1 0x24 DUP3 ADD MSTORE PUSH32 0x496E76616C6964207072697661637920636F6E74726163740000000000000000 PUSH1 0x44 DUP3 ADD MSTORE PUSH1 0x64 SWAP1 REVERT JUMPDEST PUSH1 0x0 DUP1 REVERT JUMPDEST PUSH4 0x4E487B71 PUSH1 0xE0 SHL PUSH1 0x0 MSTORE PUSH1 0x41 PUSH1 0x4 MSTORE PUSH1 0x24 PUSH1 0x0 REVERT JUMPDEST PUSH1 0x1 PUSH1 0x1 PUSH1 0xA0 SHL SUB AND PUSH1 0x0 DUP2 DUP2 MSTORE PUSH32 0xAD3228B676F7D3CD4284A5443F17F1962B36E491B30A40B2405849E597BA5FB5 PUSH1 0x20 MSTORE PUSH1 0x40 DUP2 KECCAK256 SLOAD SWAP1 SWAP2 SWAP1 PUSH1 0xFF AND PUSH3 0x185 JUMPI DUP2 DUP1 MSTORE DUP2 PUSH1 0x20 MSTORE PUSH1 0x40 DUP3 KECCAK256 DUP2 DUP4 MSTORE PUSH1 0x20 MSTORE PUSH1 0x40 DUP3 KECCAK256 PUSH1 0x1 PUSH1 0xFF NOT DUP3 SLOAD AND OR SWAP1 SSTORE CALLER SWAP2 PUSH1 0x0 DUP1 MLOAD PUSH1 0x20 PUSH3 0x20D2 DUP4 CODECOPY DUP2 MLOAD SWAP2 MSTORE DUP2 DUP1 LOG4 PUSH1 0x1 SWAP1 JUMP JUMPDEST POP SWAP1 JUMP JUMPDEST PUSH1 0x1 PUSH1 0x1 PUSH1 0xA0 SHL SUB AND PUSH1 0x0 DUP2 DUP2 MSTORE PUSH32 0x7D7FFB7A348E1C6A02869081A26547B49160DD3DF72D1D75A570EB9B698292EC PUSH1 0x20 MSTORE PUSH1 0x40 DUP2 KECCAK256 SLOAD SWAP1 SWAP2 SWAP1 PUSH32 0xA49807205CE4D355092EF5A8A18F56E8913CF4A201FBE287825B095693C21775 SWAP1 PUSH1 0xFF AND PUSH3 0x226 JUMPI DUP1 DUP4 MSTORE DUP3 PUSH1 0x20 MSTORE PUSH1 0x40 DUP4 KECCAK256 DUP3 DUP5 MSTORE PUSH1 0x20 MSTORE PUSH1 0x40 DUP4 KECCAK256 PUSH1 0x1 PUSH1 0xFF NOT DUP3 SLOAD AND OR SWAP1 SSTORE PUSH1 0x0 DUP1 MLOAD PUSH1 0x20 PUSH3 0x20D2 DUP4 CODECOPY DUP2 MLOAD SWAP2 MSTORE CALLER SWAP4 DUP1 LOG4 PUSH1 0x1 SWAP1 JUMP JUMPDEST POP POP SWAP1 JUMP JUMPDEST PUSH1 0x1 PUSH1 0x1 PUSH1 0xA0 SHL SUB AND PUSH1 0x0 DUP2 DUP2 MSTORE PUSH32 0x1DA0B5176DFE03406AF5A6EED66CA01DDA9B45AC4DA671C3FA379CB93717EF81 PUSH1 0x20 MSTORE PUSH1 0x40 DUP2 KECCAK256 SLOAD SWAP1 SWAP2 SWAP1 PUSH32 0xCE23C3E399818CFEE81A7AB0880F714E53D7672B08DF0FA62F2843416E1EA09 SWAP1 PUSH1 0xFF AND PUSH3 0x226 JUMPI DUP1 DUP4 MSTORE DUP3 PUSH1 0x20 MSTORE PUSH1 0x40 DUP4 KECCAK256 DUP3 DUP5 MSTORE PUSH1 0x20 MSTORE PUSH1 0x40 DUP4 KECCAK256 PUSH1 0x1 PUSH1 0xFF NOT DUP3 SLOAD AND OR SWAP1 SSTORE PUSH1 0x0 DUP1 MLOAD PUSH1 0x20 PUSH3 0x20D2 DUP4 CODECOPY DUP2 MLOAD SWAP2 MSTORE CALLER SWAP4 DUP1 LOG4 PUSH1 0x1 SWAP1 JUMP INVALID PUSH1 0x80 PUSH1 0x40 SWAP1 DUP1 DUP3 MSTORE PUSH1 0x4 SWAP1 DUP2 CALLDATASIZE LT ISZERO PUSH2 0x17 JUMPI PUSH1 0x0 DUP1 REVERT JUMPDEST PUSH1 0x0 SWAP1 PUSH1 0xE0 SWAP1 DUP3 CALLDATALOAD DUP3 SHR SWAP1 DUP2 PUSH4 0x1FFC9A7 EQ PUSH2 0x16A1 JUMPI POP DUP1 PUSH4 0x337C061 EQ PUSH2 0x1678 JUMPI DUP1 PUSH4 0x12065FE0 EQ PUSH2 0x165D JUMPI DUP1 PUSH4 0x1BED98A3 EQ PUSH2 0x161C JUMPI DUP1 PUSH4 0x1EB30AEB EQ PUSH2 0x15C4 JUMPI DUP1 PUSH4 0x248A9CA3 EQ PUSH2 0x1599 JUMPI DUP1 PUSH4 0x24D7806C EQ PUSH2 0x153E JUMPI DUP1 PUSH4 0x27820851 EQ PUSH2 0x14F8 JUMPI DUP1 PUSH4 0x2F2FF15D EQ PUSH2 0x14CE JUMPI DUP1 PUSH4 0x2FE2CDFA EQ PUSH2 0x107B JUMPI DUP1 PUSH4 0x36568ABE EQ PUSH2 0x1034 JUMPI DUP1 PUSH4 0x372D6B27 EQ PUSH2 0x1004 JUMPI DUP1 PUSH4 0x45206879 EQ PUSH2 0xFDB JUMPI DUP1 PUSH4 0x53CA30CC EQ PUSH2 0xFA3 JUMPI DUP1 PUSH4 0x5E318E07 EQ PUSH2 0xE9D JUMPI DUP1 PUSH4 0x630A195B EQ PUSH2 0xB36 JUMPI DUP1 PUSH4 0x6515FD38 EQ PUSH2 0x928 JUMPI DUP1 PUSH4 0x75B238FC EQ PUSH2 0x8ED JUMPI DUP1 PUSH4 0x78A1BFFD EQ PUSH2 0x8C9 JUMPI DUP1 PUSH4 0x7B562659 EQ PUSH2 0x8AA JUMPI DUP1 PUSH4 0x91D14854 EQ PUSH2 0x863 JUMPI DUP1 PUSH4 0x9852BF8E EQ PUSH2 0x844 JUMPI DUP1 PUSH4 0xA217FDDF EQ PUSH2 0x829 JUMPI DUP1 PUSH4 0xA3669AEF EQ PUSH2 0x7D9 JUMPI DUP1 PUSH4 0xA6C807A9 EQ PUSH2 0x721 JUMPI DUP1 PUSH4 0xAC8B466D EQ PUSH2 0x6EE JUMPI DUP1 PUSH4 0xC2A78702 EQ PUSH2 0x666 JUMPI DUP1 PUSH4 0xC96F96E6 EQ PUSH2 0x551 JUMPI DUP1 PUSH4 0xC9B5901D EQ PUSH2 0x493 JUMPI DUP1 PUSH4 0xCFB28BA9 EQ PUSH2 0x474 JUMPI DUP1 PUSH4 0xD547741F EQ PUSH2 0x435 JUMPI DUP1 PUSH4 0xE1B042C6 EQ PUSH2 0x334 JUMPI DUP1 PUSH4 0xE7705DB6 EQ PUSH2 0x30B JUMPI PUSH4 0xFE761783 EQ PUSH2 0x19D JUMPI PUSH1 0x0 DUP1 REVERT JUMPDEST CALLVALUE PUSH2 0x307 JUMPI PUSH1 0x20 SWAP4 DUP5 PUSH1 0x3 NOT CALLDATASIZE ADD SLT PUSH2 0x303 JUMPI PUSH2 0x1B8 PUSH2 0x16F5 JUMP JUMPDEST SWAP4 DUP4 DUP4 DUP4 MLOAD PUSH2 0x1C6 DUP2 PUSH2 0x1756 JUMP JUMPDEST DUP3 DUP2 MSTORE DUP3 DUP10 DUP3 ADD MSTORE DUP3 DUP6 DUP3 ADD MSTORE DUP3 PUSH1 0x60 DUP3 ADD MSTORE DUP3 PUSH1 0x80 DUP3 ADD MSTORE DUP3 PUSH1 0xA0 DUP3 ADD MSTORE PUSH1 0x60 PUSH1 0xC0 DUP3 ADD MSTORE ADD MSTORE PUSH1 0x1 DUP1 PUSH1 0xA0 SHL SUB DUP1 SWAP6 AND DUP5 MSTORE PUSH1 0x3 DUP7 MSTORE DUP2 DUP5 KECCAK256 SWAP2 DUP1 MLOAD SWAP5 PUSH2 0x20E DUP7 PUSH2 0x1756 JUMP JUMPDEST DUP7 DUP5 SLOAD AND DUP7 MSTORE PUSH1 0x1 DUP5 ADD SLOAD SWAP2 DUP9 DUP8 ADD SWAP3 DUP4 MSTORE PUSH1 0x2 DUP6 ADD SLOAD SWAP3 PUSH1 0xFF DUP5 AND DUP3 DUP10 ADD SWAP4 PUSH1 0x5 DUP3 LT ISZERO PUSH2 0x2F0 JUMPI POP DUP4 PUSH2 0x2C4 SWAP4 PUSH2 0x2E4 SWAP9 SWAP7 SWAP4 PUSH2 0x2B9 SWAP4 DUP13 SWAP10 SWAP8 MSTORE PUSH2 0x25F PUSH1 0xFF PUSH1 0x60 DUP12 ADD SWAP7 PUSH1 0x8 SHR AND DUP7 PUSH2 0x1C92 JUMP JUMPDEST PUSH1 0xFF PUSH1 0x6 PUSH1 0x3 DUP11 ADD SLOAD SWAP9 PUSH1 0x80 DUP13 ADD SWAP10 DUP11 MSTORE DUP11 ADD SLOAD SWAP10 PUSH1 0xA0 DUP13 ADD SWAP11 DUP12 MSTORE PUSH1 0xC0 PUSH2 0x289 PUSH1 0x5 DUP4 ADD PUSH2 0x189B JUMP JUMPDEST SWAP13 ADD SWAP12 DUP13 MSTORE ADD SLOAD AND SWAP12 DUP12 DUP2 ADD SWAP13 ISZERO ISZERO DUP14 MSTORE DUP3 MLOAD SWAP15 DUP16 SWAP15 DUP16 SWAP3 DUP3 DUP5 MSTORE MLOAD AND SWAP2 ADD MSTORE MLOAD SWAP1 DUP13 ADD MSTORE MLOAD PUSH1 0x60 DUP12 ADD SWAP1 PUSH2 0x1726 JUMP JUMPDEST MLOAD PUSH1 0x80 DUP10 ADD SWAP1 PUSH2 0x1749 JUMP JUMPDEST MLOAD PUSH1 0xA0 DUP8 ADD MSTORE MLOAD PUSH1 0xC0 DUP7 ADD MSTORE MLOAD PUSH2 0x100 DUP1 SWAP4 DUP7 ADD MSTORE PUSH2 0x120 DUP6 ADD SWAP1 PUSH2 0x1941 JUMP JUMPDEST SWAP2 MLOAD ISZERO ISZERO SWAP1 DUP4 ADD MSTORE SUB SWAP1 RETURN JUMPDEST PUSH4 0x4E487B71 PUSH1 0xE0 SHL DUP2 MSTORE PUSH1 0x21 DUP8 MSTORE PUSH1 0x24 SWAP1 REVERT JUMPDEST DUP3 DUP1 REVERT JUMPDEST POP DUP1 REVERT JUMPDEST DUP3 DUP6 CALLVALUE PUSH2 0x307 JUMPI DUP2 PUSH1 0x3 NOT CALLDATASIZE ADD SLT PUSH2 0x307 JUMPI PUSH1 0x20 SWAP1 MLOAD PUSH1 0x0 DUP1 MLOAD PUSH1 0x20 PUSH2 0x1DB4 DUP4 CODECOPY DUP2 MLOAD SWAP2 MSTORE DUP2 MSTORE RETURN JUMPDEST POP POP SWAP2 CALLVALUE PUSH2 0x303 JUMPI PUSH1 0x20 CALLDATASIZE PUSH1 0x3 NOT ADD SLT PUSH2 0x303 JUMPI PUSH2 0x350 PUSH2 0x16F5 JUMP JUMPDEST PUSH2 0x358 PUSH2 0x1981 JUMP JUMPDEST PUSH1 0x1 PUSH1 0x1 PUSH1 0xA0 SHL SUB AND DUP1 DUP5 MSTORE PUSH1 0x3 PUSH1 0x20 MSTORE DUP2 DUP5 KECCAK256 PUSH1 0x2 ADD SLOAD SWAP1 SWAP3 SWAP1 PUSH1 0xFF AND PUSH1 0x5 DUP2 LT ISZERO PUSH2 0x422 JUMPI DUP2 SUB PUSH2 0x3E8 JUMPI POP PUSH1 0x20 PUSH32 0x6B9420B2AFD9EAA5DDB0BEBE6DA09CE680AA86EABBE0DA51C461442DB94A605D SWAP2 DUP4 DUP6 MSTORE PUSH1 0x3 DUP3 MSTORE DUP1 DUP6 KECCAK256 PUSH1 0x1 PUSH1 0x6 PUSH1 0x2 DUP4 ADD SWAP3 PUSH1 0xFF NOT SWAP4 PUSH1 0x2 DUP6 DUP3 SLOAD AND OR SWAP1 SSTORE ADD SWAP2 DUP3 SLOAD AND OR SWAP1 SSTORE PUSH2 0x3DD PUSH1 0x7 SLOAD PUSH2 0x1CD5 JUMP JUMPDEST PUSH1 0x7 SSTORE MLOAD TIMESTAMP DUP2 MSTORE LOG2 DUP1 RETURN JUMPDEST PUSH1 0x20 PUSH1 0x64 SWAP3 MLOAD SWAP2 PUSH3 0x461BCD PUSH1 0xE5 SHL DUP4 MSTORE DUP3 ADD MSTORE PUSH1 0x15 PUSH1 0x24 DUP3 ADD MSTORE PUSH21 0x14DD1D59195B9D081B9BDD081CDD5CDC195B991959 PUSH1 0x5A SHL PUSH1 0x44 DUP3 ADD MSTORE REVERT JUMPDEST PUSH4 0x4E487B71 PUSH1 0xE0 SHL DUP6 MSTORE PUSH1 0x21 DUP3 MSTORE PUSH1 0x24 DUP6 REVERT JUMPDEST POP POP SWAP2 CALLVALUE PUSH2 0x303 JUMPI DUP1 PUSH1 0x3 NOT CALLDATASIZE ADD SLT PUSH2 0x303 JUMPI PUSH2 0x470 SWAP2 CALLDATALOAD PUSH2 0x46B PUSH1 0x1 PUSH2 0x45A PUSH2 0x1710 JUMP JUMPDEST SWAP4 DUP4 DUP8 MSTORE DUP7 PUSH1 0x20 MSTORE DUP7 KECCAK256 ADD SLOAD PUSH2 0x1A45 JUMP JUMPDEST PUSH2 0x1C1D JUMP JUMPDEST POP DUP1 RETURN JUMPDEST DUP3 DUP6 CALLVALUE PUSH2 0x307 JUMPI DUP2 PUSH1 0x3 NOT CALLDATASIZE ADD SLT PUSH2 0x307 JUMPI PUSH1 0x20 SWAP1 PUSH1 0x8 SLOAD SWAP1 MLOAD SWAP1 DUP2 MSTORE RETURN JUMPDEST POP POP SWAP2 CALLVALUE PUSH2 0x303 JUMPI PUSH1 0x20 CALLDATASIZE PUSH1 0x3 NOT ADD SLT PUSH2 0x303 JUMPI PUSH2 0x4AF PUSH2 0x16F5 JUMP JUMPDEST PUSH2 0x4B7 PUSH2 0x19FB JUMP JUMPDEST PUSH1 0x1 PUSH1 0x1 PUSH1 0xA0 SHL SUB AND DUP1 DUP5 MSTORE PUSH1 0x3 PUSH1 0x20 MSTORE DUP2 DUP5 KECCAK256 PUSH1 0x2 ADD SLOAD SWAP1 SWAP3 SWAP1 PUSH1 0xFF AND PUSH1 0x5 DUP2 LT ISZERO PUSH2 0x422 JUMPI SWAP2 PUSH1 0x20 SWAP2 PUSH2 0x50F PUSH1 0x1 PUSH32 0x2531BB4D2629ABD431B0C1FE1DFA50A2359BCDF5D99A9F7D752D1658669118FA SWAP6 EQ PUSH2 0x1D1D JUMP JUMPDEST DUP5 DUP7 MSTORE PUSH1 0x3 DUP4 MSTORE DUP2 DUP7 KECCAK256 SWAP1 PUSH1 0x2 DUP3 ADD PUSH1 0x2 PUSH1 0xFF NOT DUP3 SLOAD AND OR SWAP1 SSTORE TIMESTAMP SWAP2 ADD SSTORE PUSH2 0x538 PUSH1 0x7 SLOAD PUSH2 0x1CD5 JUMP JUMPDEST PUSH1 0x7 SSTORE PUSH2 0x546 PUSH1 0x8 SLOAD PUSH2 0x1D68 JUMP JUMPDEST PUSH1 0x8 SSTORE MLOAD TIMESTAMP DUP2 MSTORE LOG2 DUP1 RETURN JUMPDEST POP POP SWAP2 CALLVALUE PUSH2 0x303 JUMPI PUSH2 0x562 CALLDATASIZE PUSH2 0x17E3 JUMP JUMPDEST SWAP2 SWAP1 PUSH2 0x56C PUSH2 0x1981 JUMP JUMPDEST PUSH1 0x1 PUSH1 0x1 PUSH1 0xA0 SHL SUB AND DUP1 DUP6 MSTORE PUSH1 0x3 PUSH1 0x20 MSTORE DUP2 DUP6 KECCAK256 PUSH1 0x2 ADD SLOAD SWAP1 SWAP4 SWAP1 PUSH1 0xFF AND PUSH1 0x5 DUP2 LT ISZERO PUSH2 0x653 JUMPI PUSH1 0x2 SUB PUSH2 0x61A JUMPI SWAP1 DUP3 SWAP2 PUSH2 0x5CA PUSH32 0x738A2AB80034761069D754DB817CF40B7DF17DE68BCD6CA1EFE1E5DF9E71B649 SWAP5 MLOAD ISZERO ISZERO PUSH2 0x1D75 JUMP JUMPDEST DUP5 DUP7 MSTORE PUSH1 0x3 PUSH1 0x20 MSTORE PUSH1 0x6 DUP3 DUP8 KECCAK256 PUSH1 0x2 DUP2 ADD PUSH1 0xFF NOT SWAP4 DUP5 DUP3 SLOAD AND OR SWAP1 SSTORE ADD SWAP1 DUP2 SLOAD AND SWAP1 SSTORE PUSH2 0x5F8 PUSH1 0x7 SLOAD PUSH2 0x1D68 JUMP JUMPDEST PUSH1 0x7 SSTORE PUSH2 0x60E DUP2 MLOAD SWAP3 DUP3 DUP5 SWAP4 DUP5 MSTORE DUP4 ADD SWAP1 PUSH2 0x1941 JUMP JUMPDEST TIMESTAMP PUSH1 0x20 DUP4 ADD MSTORE SUB SWAP1 LOG2 DUP1 RETURN JUMPDEST PUSH1 0x20 PUSH1 0x64 SWAP3 MLOAD SWAP2 PUSH3 0x461BCD PUSH1 0xE5 SHL DUP4 MSTORE DUP3 ADD MSTORE PUSH1 0x14 PUSH1 0x24 DUP3 ADD MSTORE PUSH20 0x14DD1D59195B9D081B9BDD081D995C9A599A5959 PUSH1 0x62 SHL PUSH1 0x44 DUP3 ADD MSTORE REVERT JUMPDEST PUSH4 0x4E487B71 PUSH1 0xE0 SHL DUP7 MSTORE PUSH1 0x21 DUP3 MSTORE PUSH1 0x24 DUP7 REVERT JUMPDEST POP POP DUP3 CALLVALUE PUSH2 0x307 JUMPI PUSH1 0x20 CALLDATASIZE PUSH1 0x3 NOT ADD SLT PUSH2 0x307 JUMPI PUSH1 0x1 PUSH1 0x1 PUSH1 0xA0 SHL SUB PUSH2 0x68A PUSH2 0x16F5 JUMP JUMPDEST AND SWAP2 DUP3 DUP2 MSTORE PUSH1 0x3 PUSH1 0x20 MSTORE PUSH1 0xFF PUSH1 0x2 DUP4 DUP4 KECCAK256 ADD SLOAD PUSH1 0x8 SHR AND PUSH1 0x3 DUP2 LT ISZERO PUSH2 0x6DB JUMPI PUSH1 0x20 SWAP5 POP PUSH1 0x1 EQ SWAP3 DUP4 PUSH2 0x6C2 JUMPI JUMPDEST POP POP MLOAD SWAP1 ISZERO ISZERO DUP2 MSTORE RETURN JUMPDEST DUP2 MSTORE PUSH1 0x3 DUP5 MSTORE DUP2 SWAP1 KECCAK256 PUSH1 0x6 ADD SLOAD PUSH1 0xFF AND SWAP2 POP DUP4 DUP1 PUSH2 0x6B8 JUMP JUMPDEST PUSH4 0x4E487B71 PUSH1 0xE0 SHL DUP3 MSTORE PUSH1 0x21 DUP6 MSTORE PUSH1 0x24 DUP3 REVERT JUMPDEST DUP3 DUP6 DUP6 CALLVALUE PUSH2 0x303 JUMPI PUSH1 0x20 CALLDATASIZE PUSH1 0x3 NOT ADD SLT PUSH2 0x303 JUMPI DUP1 CALLDATALOAD DUP4 MSTORE PUSH1 0x20 SWAP1 DUP2 MSTORE SWAP2 DUP2 SWAP1 KECCAK256 SLOAD SWAP1 MLOAD PUSH1 0x1 PUSH1 0x1 PUSH1 0xA0 SHL SUB SWAP1 SWAP2 AND DUP2 MSTORE RETURN JUMPDEST POP DUP4 SWAP1 CALLVALUE PUSH2 0x303 JUMPI PUSH1 0x20 CALLDATASIZE PUSH1 0x3 NOT ADD SLT PUSH2 0x303 JUMPI PUSH1 0x1 PUSH1 0x1 PUSH1 0xA0 SHL SUB SWAP3 PUSH2 0x7CE SWAP1 DUP4 SWAP1 DUP6 PUSH2 0x74D PUSH2 0x16F5 JUMP JUMPDEST AND DUP2 MSTORE PUSH1 0x3 PUSH1 0x20 MSTORE KECCAK256 SWAP4 DUP5 SLOAD AND SWAP4 PUSH1 0x1 DUP2 ADD SLOAD SWAP6 PUSH1 0x2 DUP3 ADD SLOAD SWAP1 PUSH2 0x7B3 PUSH1 0x3 DUP5 ADD SLOAD SWAP2 DUP5 ADD SLOAD SWAP3 PUSH2 0x7A3 PUSH1 0xFF PUSH1 0x6 PUSH2 0x787 PUSH1 0x5 DUP10 ADD PUSH2 0x189B JUMP JUMPDEST SWAP8 ADD SLOAD AND SWAP9 DUP1 MLOAD SWAP12 DUP13 SWAP12 DUP13 MSTORE PUSH1 0x20 DUP13 ADD MSTORE DUP11 ADD PUSH1 0xFF DUP4 AND PUSH2 0x1726 JUMP JUMPDEST PUSH1 0xFF PUSH1 0x60 DUP11 ADD SWAP2 PUSH1 0x8 SHR AND PUSH2 0x1749 JUMP JUMPDEST PUSH1 0x80 DUP8 ADD MSTORE PUSH1 0xA0 DUP7 ADD MSTORE PUSH2 0x100 DUP1 PUSH1 0xC0 DUP8 ADD MSTORE DUP6 ADD SWAP1 PUSH2 0x1941 JUMP JUMPDEST SWAP2 ISZERO ISZERO SWAP1 DUP4 ADD MSTORE SUB SWAP1 RETURN JUMPDEST DUP3 DUP6 CALLVALUE PUSH2 0x307 JUMPI PUSH1 0x20 CALLDATASIZE PUSH1 0x3 NOT ADD SLT PUSH2 0x307 JUMPI PUSH2 0x470 SWAP1 PUSH2 0x824 PUSH1 0x1 PUSH2 0x7FD PUSH2 0x16F5 JUMP JUMPDEST SWAP3 PUSH2 0x806 PUSH2 0x1981 JUMP JUMPDEST PUSH1 0x0 DUP1 MLOAD PUSH1 0x20 PUSH2 0x1DB4 DUP4 CODECOPY DUP2 MLOAD SWAP2 MSTORE DUP7 MSTORE DUP6 PUSH1 0x20 MSTORE DUP6 KECCAK256 ADD SLOAD PUSH2 0x1A45 JUMP JUMPDEST PUSH2 0x1B84 JUMP JUMPDEST DUP3 DUP6 CALLVALUE PUSH2 0x307 JUMPI DUP2 PUSH1 0x3 NOT CALLDATASIZE ADD SLT PUSH2 0x307 JUMPI MLOAD SWAP1 DUP2 MSTORE PUSH1 0x20 SWAP1 RETURN JUMPDEST DUP3 DUP6 CALLVALUE PUSH2 0x307 JUMPI DUP2 PUSH1 0x3 NOT CALLDATASIZE ADD SLT PUSH2 0x307 JUMPI PUSH1 0x20 SWAP1 PUSH1 0x6 SLOAD SWAP1 MLOAD SWAP1 DUP2 MSTORE RETURN JUMPDEST DUP3 DUP6 DUP6 CALLVALUE PUSH2 0x303 JUMPI DUP2 PUSH1 0x3 NOT CALLDATASIZE ADD SLT PUSH2 0x303 JUMPI DUP2 PUSH1 0x20 SWAP4 PUSH1 0xFF SWAP3 PUSH2 0x885 PUSH2 0x1710 JUMP JUMPDEST SWAP1 CALLDATALOAD DUP3 MSTORE DUP2 DUP7 MSTORE DUP3 DUP3 KECCAK256 PUSH1 0x1 PUSH1 0x1 PUSH1 0xA0 SHL SUB SWAP1 SWAP2 AND DUP3 MSTORE DUP6 MSTORE KECCAK256 SLOAD SWAP2 MLOAD SWAP2 AND ISZERO ISZERO DUP2 MSTORE RETURN JUMPDEST DUP3 DUP6 CALLVALUE PUSH2 0x307 JUMPI DUP2 PUSH1 0x3 NOT CALLDATASIZE ADD SLT PUSH2 0x307 JUMPI PUSH1 0x20 SWAP1 PUSH1 0x7 SLOAD SWAP1 MLOAD SWAP1 DUP2 MSTORE RETURN JUMPDEST DUP3 DUP6 CALLVALUE PUSH2 0x307 JUMPI DUP2 PUSH1 0x3 NOT CALLDATASIZE ADD SLT PUSH2 0x307 JUMPI PUSH1 0x20 SWAP1 MLOAD PUSH9 0x340AAD21B3B700000 DUP2 MSTORE RETURN JUMPDEST DUP3 DUP6 CALLVALUE PUSH2 0x307 JUMPI DUP2 PUSH1 0x3 NOT CALLDATASIZE ADD SLT PUSH2 0x307 JUMPI PUSH1 0x20 SWAP1 MLOAD PUSH32 0xA49807205CE4D355092EF5A8A18F56E8913CF4A201FBE287825B095693C21775 DUP2 MSTORE RETURN JUMPDEST POP POP DUP3 CALLVALUE PUSH2 0x307 JUMPI PUSH2 0x939 CALLDATASIZE PUSH2 0x17E3 JUMP JUMPDEST SWAP1 PUSH2 0x942 PUSH2 0x19FB JUMP JUMPDEST PUSH1 0x1 PUSH1 0x1 PUSH1 0xA0 SHL SUB AND DUP1 DUP5 MSTORE PUSH1 0x3 PUSH1 0x20 SWAP1 DUP2 MSTORE DUP4 DUP6 KECCAK256 PUSH1 0x2 ADD SLOAD PUSH1 0xFF AND SWAP6 SWAP2 SWAP4 SWAP2 PUSH1 0x5 DUP8 LT ISZERO PUSH2 0xB23 JUMPI PUSH2 0x979 PUSH1 0x1 DUP1 SWAP9 EQ PUSH2 0x1D1D JUMP JUMPDEST PUSH2 0x985 DUP5 MLOAD ISZERO ISZERO PUSH2 0x1D75 JUMP JUMPDEST DUP5 DUP7 MSTORE PUSH1 0x3 DUP3 MSTORE PUSH1 0x5 DUP4 DUP8 KECCAK256 PUSH1 0x2 DUP2 ADD PUSH1 0x3 PUSH1 0xFF NOT DUP3 SLOAD AND OR SWAP1 SSTORE ADD SWAP1 DUP5 MLOAD SWAP1 PUSH8 0xFFFFFFFFFFFFFFFF DUP3 GT PUSH2 0xB10 JUMPI POP PUSH2 0x9BF DUP3 SLOAD PUSH2 0x1861 JUMP JUMPDEST PUSH1 0x1F DUP2 GT PUSH2 0xACA JUMPI JUMPDEST POP DUP3 SWAP8 PUSH1 0x1F DUP3 GT PUSH1 0x1 EQ PUSH2 0xA4D JUMPI DUP2 DUP1 SWAP2 DUP10 SWAP11 PUSH32 0x907D4BC94C82FE2433A0700127F5319918B4561C7EC5F860523B5B25B676996C SWAP10 SWAP11 SWAP4 PUSH2 0xA42 JUMPI JUMPDEST POP SHL SWAP2 PUSH1 0x0 NOT SWAP1 PUSH1 0x3 SHL SHR NOT AND OR SWAP1 SSTORE JUMPDEST PUSH2 0xA20 PUSH1 0x8 SLOAD PUSH2 0x1D68 JUMP JUMPDEST PUSH1 0x8 SSTORE PUSH2 0xA36 DUP3 MLOAD SWAP4 DUP4 DUP6 SWAP5 DUP6 MSTORE DUP5 ADD SWAP1 PUSH2 0x1941 JUMP JUMPDEST SWAP1 TIMESTAMP SWAP1 DUP4 ADD MSTORE SUB SWAP1 LOG2 DUP1 RETURN JUMPDEST DUP9 ADD MLOAD SWAP3 POP DUP12 PUSH2 0xA04 JUMP JUMPDEST SWAP1 PUSH1 0x1F NOT DUP2 AND SWAP9 DUP4 DUP10 MSTORE DUP5 DUP10 KECCAK256 SWAP1 DUP10 JUMPDEST DUP12 DUP2 LT PUSH2 0xAB5 JUMPI POP DUP3 PUSH32 0x907D4BC94C82FE2433A0700127F5319918B4561C7EC5F860523B5B25B676996C SWAP10 SWAP11 SWAP12 LT PUSH2 0xA9C JUMPI JUMPDEST POP POP DUP2 SHL ADD SWAP1 SSTORE PUSH2 0xA15 JUMP JUMPDEST DUP8 ADD MLOAD PUSH1 0x0 NOT PUSH1 0xF8 DUP5 PUSH1 0x3 SHL AND SHR NOT AND SWAP1 SSTORE DUP10 DUP1 PUSH2 0xA90 JUMP JUMPDEST DUP9 DUP3 ADD MLOAD DUP4 SSTORE SWAP2 DUP5 ADD SWAP2 SWAP1 DUP7 ADD SWAP1 DUP7 ADD PUSH2 0xA5D JUMP JUMPDEST DUP3 DUP9 MSTORE DUP4 DUP9 KECCAK256 PUSH1 0x1F DUP4 ADD PUSH1 0x5 SHR DUP2 ADD SWAP2 DUP6 DUP5 LT PUSH2 0xB06 JUMPI JUMPDEST PUSH1 0x1F ADD PUSH1 0x5 SHR ADD SWAP1 DUP10 SWAP1 JUMPDEST DUP3 DUP2 LT PUSH2 0xAFB JUMPI POP POP PUSH2 0x9C8 JUMP JUMPDEST DUP10 DUP2 SSTORE ADD DUP10 SWAP1 PUSH2 0xAED JUMP JUMPDEST SWAP1 SWAP2 POP DUP2 SWAP1 PUSH2 0xAE2 JUMP JUMPDEST PUSH4 0x4E487B71 PUSH1 0xE0 SHL DUP9 MSTORE PUSH1 0x41 SWAP1 MSTORE PUSH1 0x24 DUP8 REVERT JUMPDEST PUSH4 0x4E487B71 PUSH1 0xE0 SHL DUP7 MSTORE PUSH1 0x21 SWAP1 MSTORE PUSH1 0x24 DUP6 REVERT JUMPDEST POP SWAP3 SWAP1 SWAP3 CALLVALUE PUSH2 0xE99 JUMPI DUP2 PUSH1 0x3 NOT CALLDATASIZE ADD SLT PUSH2 0xE99 JUMPI PUSH2 0xB52 PUSH2 0x16F5 JUMP JUMPDEST SWAP2 PUSH1 0x24 CALLDATALOAD SWAP1 PUSH1 0x3 SWAP3 DUP4 DUP4 LT ISZERO PUSH2 0xE95 JUMPI PUSH2 0xB6A PUSH2 0x1981 JUMP JUMPDEST PUSH1 0x1 PUSH1 0x1 PUSH1 0xA0 SHL SUB SWAP5 DUP6 AND SWAP6 DUP7 ISZERO PUSH2 0xE60 JUMPI DUP8 SWAP1 DUP8 DUP3 MSTORE PUSH1 0x20 SWAP6 DUP1 DUP8 MSTORE DUP9 DUP6 DUP5 KECCAK256 SWAP9 DUP1 DUP11 SLOAD AND ISZERO PUSH1 0x0 EQ PUSH2 0xE23 JUMPI DUP9 SWAP10 POP DUP7 SWAP8 SWAP9 SWAP6 SWAP7 MLOAD SWAP7 DUP8 SWAP2 PUSH2 0xBAD DUP4 PUSH2 0x1756 JUMP JUMPDEST DUP4 DUP4 MSTORE DUP11 DUP9 DUP5 ADD DUP9 DUP2 MSTORE DUP12 DUP6 ADD SWAP3 PUSH1 0x2 DUP5 MSTORE PUSH2 0xBCD PUSH1 0x60 DUP8 ADD SWAP4 DUP5 PUSH2 0x1C92 JUMP JUMPDEST DUP13 DUP11 DUP10 PUSH1 0x80 DUP10 ADD SWAP8 TIMESTAMP DUP10 MSTORE PUSH1 0xA0 DUP11 ADD SWAP10 TIMESTAMP DUP12 MSTORE DUP5 MLOAD SWAP15 DUP16 PUSH2 0xBED DUP2 PUSH2 0x1789 JUMP JUMPDEST MSTORE PUSH1 0xC0 DUP2 ADD SWAP15 DUP16 MSTORE ADD SWAP14 DUP15 SWAP11 PUSH1 0x1 DUP1 SWAP13 MSTORE DUP4 MSTORE MSTORE KECCAK256 SWAP12 MLOAD AND PUSH12 0xFFFFFFFFFFFFFFFFFFFFFFFF PUSH1 0xA0 SHL DUP13 SLOAD AND OR DUP12 SSTORE MLOAD DUP6 DUP12 ADD SSTORE PUSH1 0x2 DUP11 ADD SWAP2 MLOAD PUSH1 0x5 DUP2 LT ISZERO PUSH2 0xE0F JUMPI PUSH2 0xC39 SWAP1 DUP4 PUSH2 0x1C9E JUMP JUMPDEST MLOAD SWAP1 DUP6 DUP3 LT ISZERO PUSH2 0xDFC JUMPI SWAP1 PUSH2 0xC4D SWAP2 PUSH2 0x1CB6 JUMP JUMPDEST MLOAD DUP4 DUP9 ADD SSTORE MLOAD DUP4 DUP8 ADD SSTORE PUSH1 0x5 DUP7 ADD SWAP4 MLOAD DUP1 MLOAD SWAP4 PUSH8 0xFFFFFFFFFFFFFFFF DUP6 GT PUSH2 0xDE9 JUMPI POP PUSH2 0xC7A DUP6 SLOAD PUSH2 0x1861 JUMP JUMPDEST PUSH1 0x1F DUP2 GT PUSH2 0xDA1 JUMPI JUMPDEST POP DUP10 SWAP1 DUP13 PUSH1 0x1F DUP7 GT PUSH1 0x1 EQ PUSH2 0xD0C JUMPI SWAP5 PUSH1 0x6 SWAP5 DUP2 PUSH32 0x4AC36FA53F167CEB85964BE512E01DE2A3B8BDB9862F917DA079DEEEFF689B38 SWAP14 SWAP13 SWAP12 SWAP10 SWAP6 PUSH2 0xCF5 SWAP10 SWAP6 DUP3 SWAP6 PUSH2 0xCFD SWAP14 SWAP11 SWAP6 PUSH2 0xD01 JUMPI JUMPDEST POP POP SHL SWAP3 PUSH1 0x0 NOT SWAP2 SHL SHR NOT AND OR SWAP1 SSTORE JUMPDEST MLOAD ISZERO ISZERO SWAP2 ADD SWAP1 PUSH1 0xFF DUP1 NOT DUP4 SLOAD AND SWAP2 ISZERO ISZERO AND OR SWAP1 SSTORE JUMP JUMPDEST MLOAD DUP1 SWAP3 PUSH2 0x1749 JUMP JUMPDEST LOG2 DUP1 RETURN JUMPDEST ADD MLOAD SWAP4 POP CODESIZE DUP1 PUSH2 0xCCF JUMP JUMPDEST SWAP3 SWAP5 SWAP4 SWAP2 SWAP1 PUSH1 0x1F NOT DUP6 AND DUP8 DUP6 MSTORE DUP13 DUP6 KECCAK256 SWAP5 JUMPDEST DUP2 DUP2 LT PUSH2 0xD8C JUMPI POP SWAP4 PUSH2 0xCF5 SWAP8 SWAP4 PUSH2 0xCFD SWAP11 SWAP8 SWAP4 DUP8 SWAP4 PUSH32 0x4AC36FA53F167CEB85964BE512E01DE2A3B8BDB9862F917DA079DEEEFF689B38 SWAP16 SWAP15 SWAP14 SWAP12 SWAP8 SWAP9 PUSH1 0x6 SWAP10 LT PUSH2 0xD72 JUMPI JUMPDEST POP POP POP POP DUP2 SHL ADD SWAP1 SSTORE PUSH2 0xCDF JUMP JUMPDEST ADD MLOAD SWAP1 PUSH1 0xF8 DUP5 PUSH1 0x0 NOT SWAP3 SHL AND SHR NOT AND SWAP1 SSTORE CODESIZE DUP1 DUP1 DUP1 PUSH2 0xD64 JUMP JUMPDEST DUP3 DUP5 ADD MLOAD DUP7 SSTORE SWAP5 DUP8 ADD SWAP5 SWAP3 DUP14 ADD SWAP3 DUP14 ADD PUSH2 0xD1E JUMP JUMPDEST DUP6 DUP14 MSTORE DUP11 DUP14 KECCAK256 PUSH1 0x1F DUP7 ADD PUSH1 0x5 SHR DUP2 ADD SWAP2 DUP13 DUP8 LT PUSH2 0xDDF JUMPI JUMPDEST PUSH1 0x1F ADD PUSH1 0x5 SHR ADD SWAP1 DUP4 SWAP1 DUP15 JUMPDEST DUP4 DUP3 LT PUSH2 0xDD4 JUMPI POP POP POP PUSH2 0xC83 JUMP JUMPDEST DUP2 SSTORE ADD DUP4 SWAP1 DUP15 PUSH2 0xDC5 JUMP JUMPDEST SWAP1 SWAP2 POP DUP2 SWAP1 PUSH2 0xDB9 JUMP JUMPDEST PUSH4 0x4E487B71 PUSH1 0xE0 SHL DUP14 MSTORE PUSH1 0x41 SWAP1 MSTORE PUSH1 0x24 DUP13 REVERT JUMPDEST PUSH4 0x4E487B71 PUSH1 0xE0 SHL DUP16 MSTORE PUSH1 0x21 DUP8 MSTORE PUSH1 0x24 DUP16 REVERT JUMPDEST POP PUSH4 0x4E487B71 PUSH1 0xE0 SHL DUP16 MSTORE PUSH1 0x21 DUP8 MSTORE PUSH1 0x24 DUP16 REVERT JUMPDEST POP POP POP POP POP POP PUSH2 0xCFD SWAP1 PUSH2 0xE5B DUP4 PUSH1 0x2 PUSH32 0x4AC36FA53F167CEB85964BE512E01DE2A3B8BDB9862F917DA079DEEEFF689B38 SWAP8 ADD PUSH2 0x1CB6 JUMP JUMPDEST PUSH2 0xCF5 JUMP JUMPDEST PUSH1 0x64 SWAP1 PUSH1 0x20 DUP5 MLOAD SWAP2 PUSH3 0x461BCD PUSH1 0xE5 SHL DUP4 MSTORE DUP3 ADD MSTORE PUSH1 0xF PUSH1 0x24 DUP3 ADD MSTORE PUSH15 0x496E76616C69642061646472657373 PUSH1 0x88 SHL PUSH1 0x44 DUP3 ADD MSTORE REVERT JUMPDEST DUP7 DUP1 REVERT JUMPDEST DUP4 DUP1 REVERT JUMPDEST POP POP SWAP2 CALLVALUE PUSH2 0x303 JUMPI PUSH1 0x20 CALLDATASIZE PUSH1 0x3 NOT ADD SLT PUSH2 0x303 JUMPI DUP2 CALLDATALOAD SWAP2 PUSH2 0xEBC PUSH2 0x1981 JUMP JUMPDEST PUSH2 0xEC4 PUSH2 0x1CFA JUMP JUMPDEST SELFBALANCE DUP4 GT PUSH2 0xF6A JUMPI DUP4 DUP1 DUP1 DUP1 DUP7 CALLER GAS CALL RETURNDATASIZE ISZERO PUSH2 0xF65 JUMPI RETURNDATASIZE PUSH2 0xEE3 DUP2 PUSH2 0x17C7 JUMP JUMPDEST SWAP1 PUSH2 0xEF0 DUP6 MLOAD SWAP3 DUP4 PUSH2 0x17A5 JUMP JUMPDEST DUP2 MSTORE DUP6 PUSH1 0x20 RETURNDATASIZE SWAP3 ADD RETURNDATACOPY JUMPDEST ISZERO PUSH2 0xF31 JUMPI POP MLOAD SWAP1 DUP2 MSTORE PUSH32 0x78473F3F373F7673597F4F0FA5873CB4D375FEA6D4339AD6B56DBD411513CB3F PUSH1 0x20 CALLER SWAP3 LOG2 PUSH1 0x1 DUP1 SSTORE DUP1 RETURN JUMPDEST PUSH1 0x20 PUSH1 0x64 SWAP3 MLOAD SWAP2 PUSH3 0x461BCD PUSH1 0xE5 SHL DUP4 MSTORE DUP3 ADD MSTORE PUSH1 0xF PUSH1 0x24 DUP3 ADD MSTORE PUSH15 0x151C985B9CD9995C8819985A5B1959 PUSH1 0x8A SHL PUSH1 0x44 DUP3 ADD MSTORE REVERT JUMPDEST PUSH2 0xEFA JUMP JUMPDEST PUSH1 0x20 PUSH1 0x64 SWAP3 MLOAD SWAP2 PUSH3 0x461BCD PUSH1 0xE5 SHL DUP4 MSTORE DUP3 ADD MSTORE PUSH1 0x14 PUSH1 0x24 DUP3 ADD MSTORE PUSH20 0x496E73756666696369656E742062616C616E6365 PUSH1 0x60 SHL PUSH1 0x44 DUP3 ADD MSTORE REVERT JUMPDEST DUP3 DUP6 CALLVALUE PUSH2 0x307 JUMPI PUSH1 0x20 CALLDATASIZE PUSH1 0x3 NOT ADD SLT PUSH2 0x307 JUMPI PUSH1 0x20 SWAP2 DUP2 SWAP1 PUSH1 0x1 PUSH1 0x1 PUSH1 0xA0 SHL SUB PUSH2 0xFCB PUSH2 0x16F5 JUMP JUMPDEST AND DUP2 MSTORE PUSH1 0x5 DUP5 MSTORE KECCAK256 SLOAD SWAP1 MLOAD SWAP1 DUP2 MSTORE RETURN JUMPDEST DUP3 DUP6 CALLVALUE PUSH2 0x307 JUMPI DUP2 PUSH1 0x3 NOT CALLDATASIZE ADD SLT PUSH2 0x307 JUMPI PUSH1 0x2 SLOAD SWAP1 MLOAD PUSH1 0x1 PUSH1 0x1 PUSH1 0xA0 SHL SUB SWAP1 SWAP2 AND DUP2 MSTORE PUSH1 0x20 SWAP1 RETURN JUMPDEST DUP3 DUP6 CALLVALUE PUSH2 0x307 JUMPI DUP2 PUSH1 0x3 NOT CALLDATASIZE ADD SLT PUSH2 0x307 JUMPI PUSH1 0x60 SWAP1 PUSH1 0x6 SLOAD SWAP1 PUSH1 0x7 SLOAD SWAP1 PUSH1 0x8 SLOAD SWAP2 DUP2 MLOAD SWAP4 DUP5 MSTORE PUSH1 0x20 DUP5 ADD MSTORE DUP3 ADD MSTORE RETURN JUMPDEST POP POP DUP3 CALLVALUE PUSH2 0x307 JUMPI DUP1 PUSH1 0x3 NOT CALLDATASIZE ADD SLT PUSH2 0x307 JUMPI PUSH2 0x104F PUSH2 0x1710 JUMP JUMPDEST SWAP1 CALLER PUSH1 0x1 PUSH1 0x1 PUSH1 0xA0 SHL SUB DUP4 AND SUB PUSH2 0x106C JUMPI POP PUSH2 0x470 SWAP2 SWAP3 CALLDATALOAD PUSH2 0x1C1D JUMP JUMPDEST MLOAD PUSH4 0x334BD919 PUSH1 0xE1 SHL DUP2 MSTORE DUP4 SWAP1 REVERT JUMPDEST POP SWAP1 SWAP3 PUSH1 0x20 SWAP2 DUP3 PUSH1 0x3 NOT CALLDATASIZE ADD SLT PUSH2 0x14CA JUMPI DUP4 CALLDATALOAD SWAP1 PUSH2 0x1097 PUSH2 0x1CFA JUMP JUMPDEST PUSH9 0x340AAD21B3B700000 CALLVALUE SUB PUSH2 0x1487 JUMPI CALLER DUP7 MSTORE PUSH1 0x3 SWAP5 DUP6 DUP6 MSTORE PUSH1 0xFF PUSH1 0x2 DUP6 DUP10 KECCAK256 ADD SLOAD AND PUSH1 0x5 DUP2 LT ISZERO PUSH2 0x1474 JUMPI PUSH2 0x143C JUMPI DUP3 DUP8 MSTORE DUP1 DUP6 MSTORE DUP4 DUP8 KECCAK256 SLOAD PUSH1 0x1 PUSH1 0x1 PUSH1 0xA0 SHL SUB SWAP7 SWAP1 DUP8 AND PUSH2 0x13F9 JUMPI DUP4 ISZERO PUSH2 0x13BE JUMPI DUP6 DUP9 DUP7 MLOAD SWAP3 PUSH2 0x10F5 DUP5 PUSH2 0x1756 JUMP JUMPDEST CALLER DUP5 MSTORE DUP4 DUP4 DUP2 ADD SWAP7 DUP9 DUP9 MSTORE DUP10 DUP3 ADD PUSH1 0x1 SWAP13 DUP14 DUP3 MSTORE DUP14 PUSH1 0x60 DUP6 ADD SWAP2 DUP8 DUP4 MSTORE DUP14 DUP9 DUP9 PUSH1 0x80 DUP10 ADD SWAP8 TIMESTAMP DUP10 MSTORE PUSH1 0xC0 PUSH1 0xA0 DUP12 ADD SWAP11 DUP5 DUP13 MSTORE DUP6 MLOAD SWAP14 DUP15 PUSH2 0x1134 DUP2 PUSH2 0x1789 JUMP JUMPDEST MSTORE ADD SWAP12 DUP13 MSTORE DUP14 ADD SWAP12 DUP6 DUP14 MSTORE CALLER DUP4 MSTORE MSTORE KECCAK256 SWAP10 MLOAD AND SWAP11 PUSH12 0xFFFFFFFFFFFFFFFFFFFFFFFF PUSH1 0xA0 SHL SWAP12 DUP13 DUP12 SLOAD AND OR DUP11 SSTORE MLOAD SWAP1 DUP10 ADD SSTORE PUSH1 0x2 DUP9 ADD SWAP2 MLOAD PUSH1 0x5 DUP2 LT ISZERO PUSH2 0x13AA JUMPI PUSH2 0x117E SWAP1 DUP4 PUSH2 0x1C9E JUMP JUMPDEST MLOAD SWAP1 DUP5 DUP3 LT ISZERO PUSH2 0x1397 JUMPI SWAP1 PUSH2 0x1192 SWAP2 PUSH2 0x1CB6 JUMP JUMPDEST MLOAD DUP3 DUP7 ADD SSTORE MLOAD DUP6 DUP6 ADD SSTORE PUSH1 0x5 DUP5 ADD SWAP2 MLOAD SWAP1 DUP2 MLOAD SWAP2 PUSH8 0xFFFFFFFFFFFFFFFF DUP4 GT PUSH2 0x1384 JUMPI DUP13 DUP13 SWAP2 PUSH2 0x11C2 DUP7 SLOAD PUSH2 0x1861 JUMP JUMPDEST DUP14 PUSH1 0x1F DUP3 GT PUSH2 0x1330 JUMPI JUMPDEST POP POP DUP13 SWAP2 PUSH1 0x1F DUP7 GT PUSH1 0x1 EQ PUSH2 0x12A9 JUMPI SWAP4 DUP6 PUSH32 0x7D642E36C27AC770602D1A455E972C51F1D800F1F2D5D582695C450E3961ED94 SWAP14 SWAP13 SWAP12 SWAP11 SWAP10 SWAP8 SWAP5 DUP2 SWAP5 PUSH1 0x6 SWAP9 SWAP5 PUSH2 0x123A SWAP12 SWAP9 SWAP6 PUSH2 0xD01 JUMPI POP POP SHL SWAP3 PUSH1 0x0 NOT SWAP2 SHL SHR NOT AND OR SWAP1 SSTORE MLOAD ISZERO ISZERO SWAP2 ADD SWAP1 PUSH1 0xFF DUP1 NOT DUP4 SLOAD AND SWAP2 ISZERO ISZERO AND OR SWAP1 SSTORE JUMP JUMPDEST DUP3 DUP9 MSTORE DUP6 MSTORE DUP3 DUP8 KECCAK256 SWAP1 CALLER SWAP1 DUP3 SLOAD AND OR SWAP1 SSTORE PUSH2 0x1256 PUSH1 0x6 SLOAD PUSH2 0x1CD5 JUMP JUMPDEST PUSH1 0x6 SSTORE PUSH2 0x1264 PUSH1 0x8 SLOAD PUSH2 0x1CD5 JUMP JUMPDEST PUSH1 0x8 SSTORE DUP2 MLOAD SWAP1 DUP2 MSTORE CALLVALUE DUP5 DUP3 ADD MSTORE TIMESTAMP DUP3 DUP3 ADD MSTORE PUSH32 0x1F23165A6FAF20B9E6E1C3D03B49FEC76FDE5226B4B531DC88BC18DDA86F126F PUSH1 0x60 CALLER SWAP3 LOG2 MLOAD SWAP2 CALLVALUE DUP4 MSTORE CALLER SWAP3 LOG2 DUP1 SSTORE DUP1 RETURN JUMPDEST DUP7 DUP2 MSTORE DUP14 DUP2 KECCAK256 SWAP4 SWAP6 SWAP5 SWAP3 SWAP2 SWAP1 PUSH1 0x1F NOT DUP7 AND SWAP1 DUP16 JUMPDEST DUP3 DUP3 LT PUSH2 0x130E JUMPI POP POP SWAP3 DUP6 SWAP3 PUSH32 0x7D642E36C27AC770602D1A455E972C51F1D800F1F2D5D582695C450E3961ED94 SWAP15 SWAP14 SWAP13 SWAP12 SWAP11 SWAP9 SWAP6 SWAP3 PUSH2 0x123A SWAP11 SWAP8 PUSH1 0x6 SWAP10 SWAP7 LT PUSH2 0xD72 JUMPI POP POP POP POP DUP2 SHL ADD SWAP1 SSTORE PUSH2 0xCDF JUMP JUMPDEST SWAP2 SWAP3 SWAP4 SWAP7 SWAP8 DUP3 SWAP2 SWAP6 SWAP7 DUP9 DUP7 ADD MLOAD DUP2 SSTORE ADD SWAP7 ADD SWAP4 ADD SWAP1 DUP16 SWAP7 SWAP6 SWAP5 SWAP4 SWAP3 SWAP2 DUP16 PUSH2 0x12BD JUMP JUMPDEST SWAP2 SWAP4 POP SWAP2 DUP7 DUP2 MSTORE KECCAK256 PUSH1 0x1F DUP6 ADD PUSH1 0x5 SHR DUP2 ADD SWAP2 DUP14 DUP7 LT PUSH2 0x137A JUMPI JUMPDEST SWAP2 DUP16 SWAP3 SWAP2 DUP16 SWAP5 SWAP3 PUSH1 0x1F ADD PUSH1 0x5 SHR ADD SWAP1 JUMPDEST DUP2 DUP2 LT PUSH2 0x1368 JUMPI POP DUP14 PUSH2 0x11CC JUMP JUMPDEST SWAP1 SWAP3 DUP2 SWAP5 SWAP3 SWAP5 SSTORE ADD SWAP2 DUP15 SWAP2 DUP15 SWAP4 PUSH2 0x135A JUMP JUMPDEST SWAP1 SWAP2 POP DUP2 SWAP1 PUSH2 0x134A JUMP JUMPDEST PUSH4 0x4E487B71 PUSH1 0xE0 SHL DUP14 MSTORE PUSH1 0x41 DUP8 MSTORE PUSH1 0x24 DUP14 REVERT JUMPDEST PUSH4 0x4E487B71 PUSH1 0xE0 SHL DUP16 MSTORE PUSH1 0x21 DUP10 MSTORE PUSH1 0x24 DUP16 REVERT JUMPDEST POP PUSH4 0x4E487B71 PUSH1 0xE0 SHL DUP16 MSTORE PUSH1 0x21 DUP10 MSTORE PUSH1 0x24 DUP16 REVERT JUMPDEST DUP5 MLOAD PUSH3 0x461BCD PUSH1 0xE5 SHL DUP2 MSTORE DUP1 DUP4 ADD DUP8 SWAP1 MSTORE PUSH1 0x15 PUSH1 0x24 DUP3 ADD MSTORE PUSH21 0x92DCECC2D8D2C840D2C8CADCE8D2E8F240D0C2E6D PUSH1 0x5B SHL PUSH1 0x44 DUP3 ADD MSTORE PUSH1 0x64 SWAP1 REVERT JUMPDEST DUP5 MLOAD PUSH3 0x461BCD PUSH1 0xE5 SHL DUP2 MSTORE DUP1 DUP4 ADD DUP8 SWAP1 MSTORE PUSH1 0x1B PUSH1 0x24 DUP3 ADD MSTORE PUSH32 0x4964656E7469747920616C726561647920726567697374657265640000000000 PUSH1 0x44 DUP3 ADD MSTORE PUSH1 0x64 SWAP1 REVERT JUMPDEST DUP4 MLOAD PUSH3 0x461BCD PUSH1 0xE5 SHL DUP2 MSTORE SWAP1 DUP2 ADD DUP6 SWAP1 MSTORE PUSH1 0x12 PUSH1 0x24 DUP3 ADD MSTORE PUSH18 0x105B1C9958591E481C9959DA5CDD195C9959 PUSH1 0x72 SHL PUSH1 0x44 DUP3 ADD MSTORE PUSH1 0x64 SWAP1 REVERT JUMPDEST PUSH4 0x4E487B71 PUSH1 0xE0 SHL DUP9 MSTORE PUSH1 0x21 DUP3 MSTORE PUSH1 0x24 DUP9 REVERT JUMPDEST POP POP MLOAD PUSH3 0x461BCD PUSH1 0xE5 SHL DUP2 MSTORE SWAP2 DUP3 ADD MSTORE PUSH1 0x1A PUSH1 0x24 DUP3 ADD MSTORE PUSH32 0x496E636F727265637420766572696669636174696F6E20666565000000000000 PUSH1 0x44 DUP3 ADD MSTORE PUSH1 0x64 SWAP2 POP REVERT JUMPDEST DUP5 DUP1 REVERT JUMPDEST POP POP SWAP2 CALLVALUE PUSH2 0x303 JUMPI DUP1 PUSH1 0x3 NOT CALLDATASIZE ADD SLT PUSH2 0x303 JUMPI PUSH2 0x470 SWAP2 CALLDATALOAD PUSH2 0x14F3 PUSH1 0x1 PUSH2 0x45A PUSH2 0x1710 JUMP JUMPDEST PUSH2 0x1B0B JUMP JUMPDEST DUP3 DUP6 CALLVALUE PUSH2 0x307 JUMPI PUSH1 0x20 CALLDATASIZE PUSH1 0x3 NOT ADD SLT PUSH2 0x307 JUMPI PUSH2 0x153C PUSH1 0xFF PUSH1 0x2 DUP4 PUSH1 0x20 SWAP6 PUSH1 0x1 DUP1 PUSH1 0xA0 SHL SUB PUSH2 0x1525 PUSH2 0x16F5 JUMP JUMPDEST AND DUP2 MSTORE PUSH1 0x3 DUP8 MSTORE KECCAK256 ADD SLOAD PUSH1 0x8 SHR AND SWAP2 MLOAD DUP1 SWAP3 PUSH2 0x1749 JUMP JUMPDEST RETURN JUMPDEST POP POP DUP3 CALLVALUE PUSH2 0x307 JUMPI PUSH1 0x20 CALLDATASIZE PUSH1 0x3 NOT ADD SLT PUSH2 0x307 JUMPI PUSH1 0x1 PUSH1 0x1 PUSH1 0xA0 SHL SUB PUSH2 0x1562 PUSH2 0x16F5 JUMP JUMPDEST AND SWAP2 DUP3 DUP2 MSTORE PUSH1 0x3 PUSH1 0x20 MSTORE PUSH1 0xFF PUSH1 0x2 DUP4 DUP4 KECCAK256 ADD SLOAD PUSH1 0x8 SHR AND PUSH1 0x3 DUP2 LT ISZERO PUSH2 0x6DB JUMPI PUSH1 0x20 SWAP5 POP PUSH1 0x2 EQ SWAP3 DUP4 PUSH2 0x6C2 JUMPI POP POP MLOAD SWAP1 ISZERO ISZERO DUP2 MSTORE RETURN JUMPDEST DUP3 DUP6 DUP6 CALLVALUE PUSH2 0x303 JUMPI PUSH1 0x20 CALLDATASIZE PUSH1 0x3 NOT ADD SLT PUSH2 0x303 JUMPI DUP2 PUSH1 0x20 SWAP4 PUSH1 0x1 SWAP3 CALLDATALOAD DUP2 MSTORE DUP1 DUP6 MSTORE KECCAK256 ADD SLOAD SWAP1 MLOAD SWAP1 DUP2 MSTORE RETURN JUMPDEST POP POP DUP3 CALLVALUE PUSH2 0x307 JUMPI PUSH1 0x20 CALLDATASIZE PUSH1 0x3 NOT ADD SLT PUSH2 0x307 JUMPI PUSH1 0x1 PUSH1 0x1 PUSH1 0xA0 SHL SUB PUSH2 0x15E8 PUSH2 0x16F5 JUMP JUMPDEST AND SWAP2 DUP3 DUP2 MSTORE PUSH1 0x3 PUSH1 0x20 MSTORE PUSH1 0xFF PUSH1 0x2 DUP4 DUP4 KECCAK256 ADD SLOAD AND PUSH1 0x5 DUP2 LT ISZERO PUSH2 0x6DB JUMPI PUSH1 0x20 SWAP5 POP PUSH1 0x2 EQ SWAP3 DUP4 PUSH2 0x6C2 JUMPI POP POP MLOAD SWAP1 ISZERO ISZERO DUP2 MSTORE RETURN JUMPDEST DUP3 DUP6 CALLVALUE PUSH2 0x307 JUMPI PUSH1 0x20 CALLDATASIZE PUSH1 0x3 NOT ADD SLT PUSH2 0x307 JUMPI PUSH2 0x153C PUSH1 0xFF PUSH1 0x2 DUP4 PUSH1 0x20 SWAP6 PUSH1 0x1 DUP1 PUSH1 0xA0 SHL SUB PUSH2 0x1649 PUSH2 0x16F5 JUMP JUMPDEST AND DUP2 MSTORE PUSH1 0x3 DUP8 MSTORE KECCAK256 ADD SLOAD AND SWAP2 MLOAD DUP1 SWAP3 PUSH2 0x1726 JUMP JUMPDEST DUP3 DUP6 CALLVALUE PUSH2 0x307 JUMPI DUP2 PUSH1 0x3 NOT CALLDATASIZE ADD SLT PUSH2 0x307 JUMPI MLOAD SELFBALANCE DUP2 MSTORE PUSH1 0x20 SWAP1 RETURN JUMPDEST DUP3 DUP6 CALLVALUE PUSH2 0x307 JUMPI PUSH1 0x20 CALLDATASIZE PUSH1 0x3 NOT ADD SLT PUSH2 0x307 JUMPI PUSH2 0x470 SWAP1 PUSH2 0x169C PUSH1 0x1 PUSH2 0x7FD PUSH2 0x16F5 JUMP JUMPDEST PUSH2 0x1A6B JUMP JUMPDEST DUP4 SWAP1 DUP6 CALLVALUE PUSH2 0x303 JUMPI PUSH1 0x20 CALLDATASIZE PUSH1 0x3 NOT ADD SLT PUSH2 0x303 JUMPI CALLDATALOAD PUSH4 0xFFFFFFFF PUSH1 0xE0 SHL DUP2 AND DUP1 SWAP2 SUB PUSH2 0x303 JUMPI PUSH1 0x20 SWAP3 POP PUSH4 0x7965DB0B PUSH1 0xE0 SHL DUP2 EQ SWAP1 DUP2 ISZERO PUSH2 0x16E4 JUMPI JUMPDEST POP ISZERO ISZERO DUP2 MSTORE RETURN JUMPDEST PUSH4 0x1FFC9A7 PUSH1 0xE0 SHL EQ SWAP1 POP DUP4 PUSH2 0x16DD JUMP JUMPDEST PUSH1 0x4 CALLDATALOAD SWAP1 PUSH1 0x1 PUSH1 0x1 PUSH1 0xA0 SHL SUB DUP3 AND DUP3 SUB PUSH2 0x170B JUMPI JUMP JUMPDEST PUSH1 0x0 DUP1 REVERT JUMPDEST PUSH1 0x24 CALLDATALOAD SWAP1 PUSH1 0x1 PUSH1 0x1 PUSH1 0xA0 SHL SUB DUP3 AND DUP3 SUB PUSH2 0x170B JUMPI JUMP JUMPDEST SWAP1 PUSH1 0x5 DUP3 LT ISZERO PUSH2 0x1733 JUMPI MSTORE JUMP JUMPDEST PUSH4 0x4E487B71 PUSH1 0xE0 SHL PUSH1 0x0 MSTORE PUSH1 0x21 PUSH1 0x4 MSTORE PUSH1 0x24 PUSH1 0x0 REVERT JUMPDEST SWAP1 PUSH1 0x3 DUP3 LT ISZERO PUSH2 0x1733 JUMPI MSTORE JUMP JUMPDEST PUSH2 0x100 DUP2 ADD SWAP1 DUP2 LT PUSH8 0xFFFFFFFFFFFFFFFF DUP3 GT OR PUSH2 0x1773 JUMPI PUSH1 0x40 MSTORE JUMP JUMPDEST PUSH4 0x4E487B71 PUSH1 0xE0 SHL PUSH1 0x0 MSTORE PUSH1 0x41 PUSH1 0x4 MSTORE PUSH1 0x24 PUSH1 0x0 REVERT JUMPDEST PUSH1 0x20 DUP2 ADD SWAP1 DUP2 LT PUSH8 0xFFFFFFFFFFFFFFFF DUP3 GT OR PUSH2 0x1773 JUMPI PUSH1 0x40 MSTORE JUMP JUMPDEST SWAP1 PUSH1 0x1F DUP1 NOT SWAP2 ADD AND DUP2 ADD SWAP1 DUP2 LT PUSH8 0xFFFFFFFFFFFFFFFF DUP3 GT OR PUSH2 0x1773 JUMPI PUSH1 0x40 MSTORE JUMP JUMPDEST PUSH8 0xFFFFFFFFFFFFFFFF DUP2 GT PUSH2 0x1773 JUMPI PUSH1 0x1F ADD PUSH1 0x1F NOT AND PUSH1 0x20 ADD SWAP1 JUMP JUMPDEST SWAP1 PUSH1 0x40 PUSH1 0x3 NOT DUP4 ADD SLT PUSH2 0x170B JUMPI PUSH1 0x4 CALLDATALOAD PUSH1 0x1 PUSH1 0x1 PUSH1 0xA0 SHL SUB DUP2 AND DUP2 SUB PUSH2 0x170B JUMPI SWAP2 PUSH1 0x24 CALLDATALOAD PUSH8 0xFFFFFFFFFFFFFFFF DUP2 GT PUSH2 0x170B JUMPI DUP2 PUSH1 0x23 DUP3 ADD SLT ISZERO PUSH2 0x170B JUMPI DUP1 PUSH1 0x4 ADD CALLDATALOAD SWAP1 PUSH2 0x1830 DUP3 PUSH2 0x17C7 JUMP JUMPDEST SWAP3 PUSH2 0x183E PUSH1 0x40 MLOAD SWAP5 DUP6 PUSH2 0x17A5 JUMP JUMPDEST DUP3 DUP5 MSTORE PUSH1 0x24 DUP4 DUP4 ADD ADD GT PUSH2 0x170B JUMPI DUP2 PUSH1 0x0 SWAP3 PUSH1 0x24 PUSH1 0x20 SWAP4 ADD DUP4 DUP7 ADD CALLDATACOPY DUP4 ADD ADD MSTORE SWAP1 JUMP JUMPDEST SWAP1 PUSH1 0x1 DUP3 DUP2 SHR SWAP3 AND DUP1 ISZERO PUSH2 0x1891 JUMPI JUMPDEST PUSH1 0x20 DUP4 LT EQ PUSH2 0x187B JUMPI JUMP JUMPDEST PUSH4 0x4E487B71 PUSH1 0xE0 SHL PUSH1 0x0 MSTORE PUSH1 0x22 PUSH1 0x4 MSTORE PUSH1 0x24 PUSH1 0x0 REVERT JUMPDEST SWAP2 PUSH1 0x7F AND SWAP2 PUSH2 0x1870 JUMP JUMPDEST SWAP1 PUSH1 0x40 MLOAD SWAP2 DUP3 PUSH1 0x0 DUP3 SLOAD SWAP3 PUSH2 0x18AF DUP5 PUSH2 0x1861 JUMP JUMPDEST SWAP1 DUP2 DUP5 MSTORE PUSH1 0x1 SWAP5 DUP6 DUP2 AND SWAP1 DUP2 PUSH1 0x0 EQ PUSH2 0x191E JUMPI POP PUSH1 0x1 EQ PUSH2 0x18DB JUMPI JUMPDEST POP POP PUSH2 0x18D9 SWAP3 POP SUB DUP4 PUSH2 0x17A5 JUMP JUMPDEST JUMP JUMPDEST SWAP1 SWAP4 SWAP2 POP PUSH1 0x0 MSTORE PUSH1 0x20 SWAP1 DUP2 PUSH1 0x0 KECCAK256 SWAP4 PUSH1 0x0 SWAP2 JUMPDEST DUP2 DUP4 LT PUSH2 0x1906 JUMPI POP POP PUSH2 0x18D9 SWAP4 POP DUP3 ADD ADD CODESIZE DUP1 PUSH2 0x18CB JUMP JUMPDEST DUP6 SLOAD DUP9 DUP5 ADD DUP6 ADD MSTORE SWAP5 DUP6 ADD SWAP5 DUP8 SWAP5 POP SWAP2 DUP4 ADD SWAP2 PUSH2 0x18EE JUMP JUMPDEST SWAP2 POP POP PUSH2 0x18D9 SWAP5 POP PUSH1 0x20 SWAP3 POP PUSH1 0xFF NOT AND DUP3 DUP5 ADD MSTORE ISZERO ISZERO PUSH1 0x5 SHL DUP3 ADD ADD CODESIZE DUP1 PUSH2 0x18CB JUMP JUMPDEST SWAP2 SWAP1 DUP3 MLOAD SWAP3 DUP4 DUP3 MSTORE PUSH1 0x0 JUMPDEST DUP5 DUP2 LT PUSH2 0x196D JUMPI POP POP DUP3 PUSH1 0x0 PUSH1 0x20 DUP1 SWAP5 SWAP6 DUP5 ADD ADD MSTORE PUSH1 0x1F DUP1 NOT SWAP2 ADD AND ADD ADD SWAP1 JUMP JUMPDEST PUSH1 0x20 DUP2 DUP4 ADD DUP2 ADD MLOAD DUP5 DUP4 ADD DUP3 ADD MSTORE ADD PUSH2 0x194C JUMP JUMPDEST CALLER PUSH1 0x0 SWAP1 DUP2 MSTORE PUSH32 0x7D7FFB7A348E1C6A02869081A26547B49160DD3DF72D1D75A570EB9B698292EC PUSH1 0x20 MSTORE PUSH1 0x40 SWAP1 KECCAK256 SLOAD PUSH32 0xA49807205CE4D355092EF5A8A18F56E8913CF4A201FBE287825B095693C21775 SWAP1 PUSH1 0xFF AND ISZERO PUSH2 0x19DD JUMPI POP JUMP JUMPDEST PUSH1 0x44 SWAP1 PUSH1 0x40 MLOAD SWAP1 PUSH4 0xE2517D3F PUSH1 0xE0 SHL DUP3 MSTORE CALLER PUSH1 0x4 DUP4 ADD MSTORE PUSH1 0x24 DUP3 ADD MSTORE REVERT JUMPDEST CALLER PUSH1 0x0 SWAP1 DUP2 MSTORE PUSH32 0x1DA0B5176DFE03406AF5A6EED66CA01DDA9B45AC4DA671C3FA379CB93717EF81 PUSH1 0x20 MSTORE PUSH1 0x40 SWAP1 KECCAK256 SLOAD PUSH1 0x0 DUP1 MLOAD PUSH1 0x20 PUSH2 0x1DB4 DUP4 CODECOPY DUP2 MLOAD SWAP2 MSTORE SWAP1 PUSH1 0xFF AND ISZERO PUSH2 0x19DD JUMPI POP JUMP JUMPDEST DUP1 PUSH1 0x0 MSTORE PUSH1 0x0 PUSH1 0x20 MSTORE PUSH1 0x40 PUSH1 0x0 KECCAK256 CALLER PUSH1 0x0 MSTORE PUSH1 0x20 MSTORE PUSH1 0xFF PUSH1 0x40 PUSH1 0x0 KECCAK256 SLOAD AND ISZERO PUSH2 0x19DD JUMPI POP JUMP JUMPDEST PUSH1 0x1 PUSH1 0x1 PUSH1 0xA0 SHL SUB AND PUSH1 0x0 DUP2 DUP2 MSTORE PUSH32 0x1DA0B5176DFE03406AF5A6EED66CA01DDA9B45AC4DA671C3FA379CB93717EF81 PUSH1 0x20 MSTORE PUSH1 0x40 DUP2 KECCAK256 SLOAD SWAP1 SWAP2 SWAP1 PUSH1 0x0 DUP1 MLOAD PUSH1 0x20 PUSH2 0x1DB4 DUP4 CODECOPY DUP2 MLOAD SWAP2 MSTORE SWAP1 PUSH1 0xFF AND PUSH2 0x1B06 JUMPI DUP1 DUP4 MSTORE DUP3 PUSH1 0x20 MSTORE PUSH1 0x40 DUP4 KECCAK256 DUP3 DUP5 MSTORE PUSH1 0x20 MSTORE PUSH1 0x40 DUP4 KECCAK256 PUSH1 0x1 PUSH1 0xFF NOT DUP3 SLOAD AND OR SWAP1 SSTORE PUSH32 0x2F8788117E7EFF1D82E926EC794901D17C78024A50270940304540A733656F0D CALLER SWAP4 DUP1 LOG4 PUSH1 0x1 SWAP1 JUMP JUMPDEST POP POP SWAP1 JUMP JUMPDEST SWAP1 PUSH1 0x0 SWAP2 DUP1 DUP4 MSTORE DUP3 PUSH1 0x20 MSTORE PUSH1 0x40 DUP4 KECCAK256 SWAP2 PUSH1 0x1 DUP1 PUSH1 0xA0 SHL SUB AND SWAP2 DUP3 DUP5 MSTORE PUSH1 0x20 MSTORE PUSH1 0xFF PUSH1 0x40 DUP5 KECCAK256 SLOAD AND ISZERO PUSH1 0x0 EQ PUSH2 0x1B06 JUMPI DUP1 DUP4 MSTORE DUP3 PUSH1 0x20 MSTORE PUSH1 0x40 DUP4 KECCAK256 DUP3 DUP5 MSTORE PUSH1 0x20 MSTORE PUSH1 0x40 DUP4 KECCAK256 PUSH1 0x1 PUSH1 0xFF NOT DUP3 SLOAD AND OR SWAP1 SSTORE PUSH32 0x2F8788117E7EFF1D82E926EC794901D17C78024A50270940304540A733656F0D CALLER SWAP4 DUP1 LOG4 PUSH1 0x1 SWAP1 JUMP JUMPDEST PUSH1 0x1 PUSH1 0x1 PUSH1 0xA0 SHL SUB AND PUSH1 0x0 DUP2 DUP2 MSTORE PUSH32 0x1DA0B5176DFE03406AF5A6EED66CA01DDA9B45AC4DA671C3FA379CB93717EF81 PUSH1 0x20 MSTORE PUSH1 0x40 DUP2 KECCAK256 SLOAD SWAP1 SWAP2 SWAP1 PUSH1 0x0 DUP1 MLOAD PUSH1 0x20 PUSH2 0x1DB4 DUP4 CODECOPY DUP2 MLOAD SWAP2 MSTORE SWAP1 PUSH1 0xFF AND ISZERO PUSH2 0x1B06 JUMPI DUP1 DUP4 MSTORE DUP3 PUSH1 0x20 MSTORE PUSH1 0x40 DUP4 KECCAK256 DUP3 DUP5 MSTORE PUSH1 0x20 MSTORE PUSH1 0x40 DUP4 KECCAK256 PUSH1 0xFF NOT DUP2 SLOAD AND SWAP1 SSTORE PUSH32 0xF6391F5C32D9C69D2A47EA670B442974B53935D1EDC7FD64EB21E047A839171B CALLER SWAP4 DUP1 LOG4 PUSH1 0x1 SWAP1 JUMP JUMPDEST SWAP1 PUSH1 0x0 SWAP2 DUP1 DUP4 MSTORE DUP3 PUSH1 0x20 MSTORE PUSH1 0x40 DUP4 KECCAK256 SWAP2 PUSH1 0x1 DUP1 PUSH1 0xA0 SHL SUB AND SWAP2 DUP3 DUP5 MSTORE PUSH1 0x20 MSTORE PUSH1 0xFF PUSH1 0x40 DUP5 KECCAK256 SLOAD AND PUSH1 0x0 EQ PUSH2 0x1B06 JUMPI DUP1 DUP4 MSTORE DUP3 PUSH1 0x20 MSTORE PUSH1 0x40 DUP4 KECCAK256 DUP3 DUP5 MSTORE PUSH1 0x20 MSTORE PUSH1 0x40 DUP4 KECCAK256 PUSH1 0xFF NOT DUP2 SLOAD AND SWAP1 SSTORE PUSH32 0xF6391F5C32D9C69D2A47EA670B442974B53935D1EDC7FD64EB21E047A839171B CALLER SWAP4 DUP1 LOG4 PUSH1 0x1 SWAP1 JUMP JUMPDEST PUSH1 0x3 DUP3 LT ISZERO PUSH2 0x1733 JUMPI MSTORE JUMP JUMPDEST SWAP1 PUSH1 0x5 DUP2 LT ISZERO PUSH2 0x1733 JUMPI PUSH1 0xFF DUP1 NOT DUP4 SLOAD AND SWAP2 AND OR SWAP1 SSTORE JUMP JUMPDEST SWAP1 PUSH1 0x3 DUP2 LT ISZERO PUSH2 0x1733 JUMPI PUSH2 0xFF00 DUP3 SLOAD SWAP2 PUSH1 0x8 SHL AND SWAP1 PUSH2 0xFF00 NOT AND OR SWAP1 SSTORE JUMP JUMPDEST PUSH1 0x0 NOT DUP2 EQ PUSH2 0x1CE4 JUMPI PUSH1 0x1 ADD SWAP1 JUMP JUMPDEST PUSH4 0x4E487B71 PUSH1 0xE0 SHL PUSH1 0x0 MSTORE PUSH1 0x11 PUSH1 0x4 MSTORE PUSH1 0x24 PUSH1 0x0 REVERT JUMPDEST PUSH1 0x2 PUSH1 0x1 SLOAD EQ PUSH2 0x1D0B JUMPI PUSH1 0x2 PUSH1 0x1 SSTORE JUMP JUMPDEST PUSH1 0x40 MLOAD PUSH4 0x3EE5AEB5 PUSH1 0xE0 SHL DUP2 MSTORE PUSH1 0x4 SWAP1 REVERT JUMPDEST ISZERO PUSH2 0x1D24 JUMPI JUMP JUMPDEST PUSH1 0x64 PUSH1 0x40 MLOAD PUSH3 0x461BCD PUSH1 0xE5 SHL DUP2 MSTORE PUSH1 0x20 PUSH1 0x4 DUP3 ADD MSTORE PUSH1 0x20 PUSH1 0x24 DUP3 ADD MSTORE PUSH32 0x53747564656E74206E6F742070656E64696E6720766572696669636174696F6E PUSH1 0x44 DUP3 ADD MSTORE REVERT JUMPDEST DUP1 ISZERO PUSH2 0x1CE4 JUMPI PUSH1 0x0 NOT ADD SWAP1 JUMP JUMPDEST ISZERO PUSH2 0x1D7C JUMPI JUMP JUMPDEST PUSH1 0x40 MLOAD PUSH3 0x461BCD PUSH1 0xE5 SHL DUP2 MSTORE PUSH1 0x20 PUSH1 0x4 DUP3 ADD MSTORE PUSH1 0xF PUSH1 0x24 DUP3 ADD MSTORE PUSH15 0x1499585CDBDB881C995C5D5A5C9959 PUSH1 0x8A SHL PUSH1 0x44 DUP3 ADD MSTORE PUSH1 0x64 SWAP1 REVERT INVALID 0xC 0xE2 EXTCODECOPY RETURNDATACOPY CODECOPY SWAP9 XOR 0xCF 0xEE DUP2 0xA7 0xAB ADDMOD DUP1 0xF7 EQ 0xE5 RETURNDATASIZE PUSH23 0x72B08DF0FA62F2843416E1EA09A2646970667358221220 SWAP3 0xB9 0xCA 0xC2 0x2D SWAP8 SWAP9 SLT PUSH9 0x5CF866E71E4D5A6CB6 0xBA 0x4D KECCAK256 CODECOPY NOT PUSH11 0x9B0389627930050B64736F PUSH13 0x634300081400332F8788117E7E SELFDESTRUCT SAR DUP3 0xE9 0x26 0xEC PUSH26 0x4901D17C78024A50270940304540A733656F0D00000000000000 "},"methodIdentifiers":{"ADMIN_ROLE()":"75b238fc","DEFAULT_ADMIN_ROLE()":"a217fddf","VERIFICATION_FEE()":"78a1bffd","VERIFIER_ROLE()":"e7705db6","assignRole(address,uint8)":"630a195b","getBalance()":"12065fe0","getRoleAdmin(bytes32)":"248a9ca3","getStatistics()":"372d6b27","getStudentProfile(address)":"fe761783","getStudentStatus(address)":"1bed98a3","getUserRole(address)":"27820851","grantRole(bytes32,address)":"2f2ff15d","grantVerifierRole(address)":"0337c061","hasRole(bytes32,address)":"91d14854","identityToAddress(bytes32)":"ac8b466d","isAdmin(address)":"24d7806c","isFaculty(address)":"c2a78702","isVerifiedStudent(address)":"1eb30aeb","pendingVerifications()":"cfb28ba9","privacyContract()":"45206879","reactivateStudent(address)":"e1b042c6","registerStudent(bytes32)":"2fe2cdfa","rejectStudent(address,string)":"6515fd38","renounceRole(bytes32,address)":"36568abe","revokeRole(bytes32,address)":"d547741f","revokeVerifierRole(address)":"a3669aef","studentPoints(address)":"53ca30cc","students(address)":"a6c807a9","supportsInterface(bytes4)":"01ffc9a7","suspendStudent(address,string)":"c96f96e6","totalStudents()":"9852bf8e","verifiedStudents()":"7b562659","verifyStudent(address)":"c9b5901d","withdrawFees(uint256)":"5e318e07"}}}}}