{"contracts/core/RatingContract.sol":{"RatingContract":{"abi":[{"inputs":[{"internalType":"address","name":"_studentRegistry","type":"address"},{"internalType":"address","name":"_aiModeration","type":"address"}],"stateMutability":"nonpayable","type":"constructor"},{"inputs":[],"name":"AccessControlBadConfirmation","type":"error"},{"inputs":[{"internalType":"address","name":"account","type":"address"},{"internalType":"bytes32","name":"neededRole","type":"bytes32"}],"name":"AccessControlUnauthorizedAccount","type":"error"},{"inputs":[],"name":"ReentrancyGuardReentrantCall","type":"error"},{"anonymous":false,"inputs":[{"indexed":true,"internalType":"uint256","name":"ratingId","type":"uint256"},{"indexed":true,"internalType":"address","name":"rater","type":"address"},{"indexed":true,"internalType":"address","name":"faculty","type":"address"},{"indexed":false,"internalType":"uint8[5]","name":"dimensions","type":"uint8[5]"},{"indexed":false,"internalType":"uint256","name":"timestamp","type":"uint256"}],"name":"FacultyRated","type":"event"},{"anonymous":false,"inputs":[{"indexed":true,"internalType":"uint256","name":"ratingId","type":"uint256"},{"indexed":true,"internalType":"address","name":"rater","type":"address"},{"indexed":false,"internalType":"string","name":"location","type":"string"},{"indexed":false,"internalType":"uint256","name":"timestamp","type":"uint256"}],"name":"InfrastructureRated","type":"event"},{"anonymous":false,"inputs":[{"indexed":true,"internalType":"uint256","name":"ratingId","type":"uint256"},{"indexed":false,"internalType":"enum RatingContract.RatingType","name":"ratingType","type":"uint8"}],"name":"RatingVerified","type":"event"},{"anonymous":false,"inputs":[{"indexed":true,"internalType":"bytes32","name":"role","type":"bytes32"},{"indexed":true,"internalType":"bytes32","name":"previousAdminRole","type":"bytes32"},{"indexed":true,"internalType":"bytes32","name":"newAdminRole","type":"bytes32"}],"name":"RoleAdminChanged","type":"event"},{"anonymous":false,"inputs":[{"indexed":true,"internalType":"bytes32","name":"role","type":"bytes32"},{"indexed":true,"internalType":"address","name":"account","type":"address"},{"indexed":true,"internalType":"address","name":"sender","type":"address"}],"name":"RoleGranted","type":"event"},{"anonymous":false,"inputs":[{"indexed":true,"internalType":"bytes32","name":"role","type":"bytes32"},{"indexed":true,"internalType":"address","name":"account","type":"address"},{"indexed":true,"internalType":"address","name":"sender","type":"address"}],"name":"RoleRevoked","type":"event"},{"anonymous":false,"inputs":[{"indexed":true,"internalType":"uint256","name":"ratingId","type":"uint256"},{"indexed":true,"internalType":"address","name":"rater","type":"address"},{"indexed":false,"internalType":"enum RatingContract.RatingType","name":"serviceType","type":"uint8"},{"indexed":false,"internalType":"uint256","name":"timestamp","type":"uint256"}],"name":"ServiceRated","type":"event"},{"inputs":[],"name":"ADMIN_ROLE","outputs":[{"internalType":"bytes32","name":"","type":"bytes32"}],"stateMutability":"view","type":"function"},{"inputs":[],"name":"DEFAULT_ADMIN_ROLE","outputs":[{"internalType":"bytes32","name":"","type":"bytes32"}],"stateMutability":"view","type":"function"},{"inputs":[],"name":"MODERATOR_ROLE","outputs":[{"internalType":"bytes32","name":"","type":"bytes32"}],"stateMutability":"view","type":"function"},{"inputs":[],"name":"aiModeration","outputs":[{"internalType":"contract AIModerationContract","name":"","type":"address"}],"stateMutability":"view","type":"function"},{"inputs":[{"internalType":"address","name":"","type":"address"}],"name":"facultyAggregates","outputs":[{"internalType":"uint256","name":"totalRatings","type":"uint256"},{"internalType":"uint256","name":"sumTeachingEffectiveness","type":"uint256"},{"internalType":"uint256","name":"sumAccessibilitySupport","type":"uint256"},{"internalType":"uint256","name":"sumInnovationAdaptability","type":"uint256"},{"internalType":"uint256","name":"sumAssessmentFairness","type":"uint256"},{"internalType":"uint256","name":"sumProfessionalDevelopment","type":"uint256"},{"internalType":"uint256","name":"lastUpdated","type":"uint256"}],"stateMutability":"view","type":"function"},{"inputs":[],"name":"facultyRatingCounter","outputs":[{"internalType":"uint256","name":"","type":"uint256"}],"stateMutability":"view","type":"function"},{"inputs":[{"internalType":"address","name":"","type":"address"},{"internalType":"uint256","name":"","type":"uint256"}],"name":"facultyRatingIds","outputs":[{"internalType":"uint256","name":"","type":"uint256"}],"stateMutability":"view","type":"function"},{"inputs":[{"internalType":"uint256","name":"","type":"uint256"}],"name":"facultyRatings","outputs":[{"internalType":"uint256","name":"id","type":"uint256"},{"internalType":"address","name":"rater","type":"address"},{"internalType":"address","name":"faculty","type":"address"},{"internalType":"uint8","name":"teachingEffectiveness","type":"uint8"},{"internalType":"uint8","name":"accessibilitySupport","type":"uint8"},{"internalType":"uint8","name":"innovationAdaptability","type":"uint8"},{"internalType":"uint8","name":"assessmentFairness","type":"uint8"},{"internalType":"uint8","name":"professionalDevelopment","type":"uint8"},{"internalType":"bytes32","name":"commentHash","type":"bytes32"},{"internalType":"uint256","name":"timestamp","type":"uint256"},{"internalType":"bool","name":"isAnonymous","type":"bool"},{"internalType":"bool","name":"isVerified","type":"bool"}],"stateMutability":"view","type":"function"},{"inputs":[{"internalType":"address","name":"faculty","type":"address"}],"name":"getAverageRating","outputs":[{"internalType":"uint8[5]","name":"averages","type":"uint8[5]"}],"stateMutability":"view","type":"function"},{"inputs":[{"internalType":"uint256","name":"ratingId","type":"uint256"}],"name":"getFacultyRating","outputs":[{"components":[{"internalType":"uint256","name":"id","type":"uint256"},{"internalType":"address","name":"rater","type":"address"},{"internalType":"address","name":"faculty","type":"address"},{"internalType":"uint8","name":"teachingEffectiveness","type":"uint8"},{"internalType":"uint8","name":"accessibilitySupport","type":"uint8"},{"internalType":"uint8","name":"innovationAdaptability","type":"uint8"},{"internalType":"uint8","name":"assessmentFairness","type":"uint8"},{"internalType":"uint8","name":"professionalDevelopment","type":"uint8"},{"internalType":"bytes32","name":"commentHash","type":"bytes32"},{"internalType":"uint256","name":"timestamp","type":"uint256"},{"internalType":"bool","name":"isAnonymous","type":"bool"},{"internalType":"bool","name":"isVerified","type":"bool"}],"internalType":"struct RatingContract.FacultyRating","name":"","type":"tuple"}],"stateMutability":"view","type":"function"},{"inputs":[{"internalType":"uint256","name":"ratingId","type":"uint256"}],"name":"getInfrastructureRating","outputs":[{"components":[{"internalType":"uint256","name":"id","type":"uint256"},{"internalType":"address","name":"rater","type":"address"},{"internalType":"string","name":"location","type":"string"},{"internalType":"uint8","name":"physicalCondition","type":"uint8"},{"internalType":"uint8","name":"technologySystems","type":"uint8"},{"internalType":"uint8","name":"learningEnvironment","type":"uint8"},{"internalType":"uint8","name":"recreationalFacilities","type":"uint8"},{"internalType":"bytes32","name":"commentHash","type":"bytes32"},{"internalType":"bytes32","name":"imageHash","type":"bytes32"},{"internalType":"uint256","name":"timestamp","type":"uint256"},{"internalType":"bool","name":"isAnonymous","type":"bool"},{"internalType":"bool","name":"isVerified","type":"bool"}],"internalType":"struct RatingContract.InfrastructureRating","name":"","type":"tuple"}],"stateMutability":"view","type":"function"},{"inputs":[{"internalType":"string","name":"location","type":"string"}],"name":"getLocationRatings","outputs":[{"internalType":"uint256[]","name":"","type":"uint256[]"}],"stateMutability":"view","type":"function"},{"inputs":[{"internalType":"address","name":"faculty","type":"address"}],"name":"getRatingHistory","outputs":[{"internalType":"uint256[]","name":"","type":"uint256[]"}],"stateMutability":"view","type":"function"},{"inputs":[{"internalType":"bytes32","name":"role","type":"bytes32"}],"name":"getRoleAdmin","outputs":[{"internalType":"bytes32","name":"","type":"bytes32"}],"stateMutability":"view","type":"function"},{"inputs":[{"internalType":"uint256","name":"ratingId","type":"uint256"}],"name":"getServiceRating","outputs":[{"components":[{"internalType":"uint256","name":"id","type":"uint256"},{"internalType":"address","name":"rater","type":"address"},{"internalType":"enum RatingContract.RatingType","name":"serviceType","type":"uint8"},{"internalType":"uint8","name":"quality","type":"uint8"},{"internalType":"uint8","name":"efficiency","type":"uint8"},{"internalType":"uint8","name":"responsiveness","type":"uint8"},{"internalType":"uint8","name":"satisfaction","type":"uint8"},{"internalType":"bytes32","name":"commentHash","type":"bytes32"},{"internalType":"uint256","name":"timestamp","type":"uint256"},{"internalType":"bool","name":"isAnonymous","type":"bool"}],"internalType":"struct RatingContract.ServiceRating","name":"","type":"tuple"}],"stateMutability":"view","type":"function"},{"inputs":[],"name":"getStatistics","outputs":[{"internalType":"uint256","name":"faculty","type":"uint256"},{"internalType":"uint256","name":"infrastructure","type":"uint256"},{"internalType":"uint256","name":"service","type":"uint256"}],"stateMutability":"view","type":"function"},{"inputs":[{"internalType":"address","name":"moderator","type":"address"}],"name":"grantModeratorRole","outputs":[],"stateMutability":"nonpayable","type":"function"},{"inputs":[{"internalType":"bytes32","name":"role","type":"bytes32"},{"internalType":"address","name":"account","type":"address"}],"name":"grantRole","outputs":[],"stateMutability":"nonpayable","type":"function"},{"inputs":[{"internalType":"address","name":"","type":"address"},{"internalType":"address","name":"","type":"address"}],"name":"hasRatedFaculty","outputs":[{"internalType":"bool","name":"","type":"bool"}],"stateMutability":"view","type":"function"},{"inputs":[{"internalType":"bytes32","name":"role","type":"bytes32"},{"internalType":"address","name":"account","type":"address"}],"name":"hasRole","outputs":[{"internalType":"bool","name":"","type":"bool"}],"stateMutability":"view","type":"function"},{"inputs":[],"name":"infrastructureRatingCounter","outputs":[{"internalType":"uint256","name":"","type":"uint256"}],"stateMutability":"view","type":"function"},{"inputs":[{"internalType":"uint256","name":"","type":"uint256"}],"name":"infrastructureRatings","outputs":[{"internalType":"uint256","name":"id","type":"uint256"},{"internalType":"address","name":"rater","type":"address"},{"internalType":"string","name":"location","type":"string"},{"internalType":"uint8","name":"physicalCondition","type":"uint8"},{"internalType":"uint8","name":"technologySystems","type":"uint8"},{"internalType":"uint8","name":"learningEnvironment","type":"uint8"},{"internalType":"uint8","name":"recreationalFacilities","type":"uint8"},{"internalType":"bytes32","name":"commentHash","type":"bytes32"},{"internalType":"bytes32","name":"imageHash","type":"bytes32"},{"internalType":"uint256","name":"timestamp","type":"uint256"},{"internalType":"bool","name":"isAnonymous","type":"bool"},{"internalType":"bool","name":"isVerified","type":"bool"}],"stateMutability":"view","type":"function"},{"inputs":[{"internalType":"string","name":"","type":"string"},{"internalType":"uint256","name":"","type":"uint256"}],"name":"locationRatingIds","outputs":[{"internalType":"uint256","name":"","type":"uint256"}],"stateMutability":"view","type":"function"},{"inputs":[{"internalType":"bytes32","name":"role","type":"bytes32"},{"internalType":"address","name":"callerConfirmation","type":"address"}],"name":"renounceRole","outputs":[],"stateMutability":"nonpayable","type":"function"},{"inputs":[{"internalType":"bytes32","name":"role","type":"bytes32"},{"internalType":"address","name":"account","type":"address"}],"name":"revokeRole","outputs":[],"stateMutability":"nonpayable","type":"function"},{"inputs":[],"name":"serviceRatingCounter","outputs":[{"internalType":"uint256","name":"","type":"uint256"}],"stateMutability":"view","type":"function"},{"inputs":[{"internalType":"uint256","name":"","type":"uint256"}],"name":"serviceRatings","outputs":[{"internalType":"uint256","name":"id","type":"uint256"},{"internalType":"address","name":"rater","type":"address"},{"internalType":"enum RatingContract.RatingType","name":"serviceType","type":"uint8"},{"internalType":"uint8","name":"quality","type":"uint8"},{"internalType":"uint8","name":"efficiency","type":"uint8"},{"internalType":"uint8","name":"responsiveness","type":"uint8"},{"internalType":"uint8","name":"satisfaction","type":"uint8"},{"internalType":"bytes32","name":"commentHash","type":"bytes32"},{"internalType":"uint256","name":"timestamp","type":"uint256"},{"internalType":"bool","name":"isAnonymous","type":"bool"}],"stateMutability":"view","type":"function"},{"inputs":[],"name":"studentRegistry","outputs":[{"internalType":"contract StudentRegistryContract","name":"","type":"address"}],"stateMutability":"view","type":"function"},{"inputs":[{"internalType":"address","name":"faculty","type":"address"},{"internalType":"uint8[5]","name":"dimensions","type":"uint8[5]"},{"internalType":"bytes32","name":"commentHash","type":"bytes32"},{"internalType":"bool","name":"isAnonymous","type":"bool"}],"name":"submitFacultyRating","outputs":[{"internalType":"uint256","name":"","type":"uint256"}],"stateMutability":"nonpayable","type":"function"},{"inputs":[{"internalType":"string","name":"location","type":"string"},{"internalType":"uint8[4]","name":"dimensions","type":"uint8[4]"},{"internalType":"bytes32","name":"commentHash","type":"bytes32"},{"internalType":"bytes32","name":"imageHash","type":"bytes32"},{"internalType":"bool","name":"isAnonymous","type":"bool"}],"name":"submitInfrastructureRating","outputs":[{"internalType":"uint256","name":"","type":"uint256"}],"stateMutability":"nonpayable","type":"function"},{"inputs":[{"internalType":"enum RatingContract.RatingType","name":"serviceType","type":"uint8"},{"internalType":"uint8[4]","name":"dimensions","type":"uint8[4]"},{"internalType":"bytes32","name":"commentHash","type":"bytes32"},{"internalType":"bool","name":"isAnonymous","type":"bool"}],"name":"submitServiceRating","outputs":[{"internalType":"uint256","name":"","type":"uint256"}],"stateMutability":"nonpayable","type":"function"},{"inputs":[{"internalType":"bytes4","name":"interfaceId","type":"bytes4"}],"name":"supportsInterface","outputs":[{"internalType":"bool","name":"","type":"bool"}],"stateMutability":"view","type":"function"},{"inputs":[{"internalType":"uint256","name":"ratingId","type":"uint256"},{"internalType":"enum RatingContract.RatingType","name":"ratingType","type":"uint8"}],"name":"verifyRating","outputs":[],"stateMutability":"nonpayable","type":"function"}],"evm":{"bytecode":{"linkReferences":{},"object":"6080346200014757601f6200280138819003918201601f19168301916001600160401b038311848410176200014c57808492604094855283398101031262000147576200005a6020620000528362000162565b920162000162565b600180556001600160a01b0391821691908215620001025716908115620000bd5760018060a01b0319908160025416176002556003541617600355620000a03362000177565b50620000ac33620001f7565b5060405161254790816200029a8239f35b60405162461bcd60e51b815260206004820152601560248201527f496e76616c6964204149206d6f6465726174696f6e00000000000000000000006044820152606490fd5b60405162461bcd60e51b815260206004820152601860248201527f496e76616c69642073747564656e7420726567697374727900000000000000006044820152606490fd5b600080fd5b634e487b7160e01b600052604160045260246000fd5b51906001600160a01b03821682036200014757565b6001600160a01b031660008181527fad3228b676f7d3cd4284a5443f17f1962b36e491b30a40b2405849e597ba5fb5602052604081205490919060ff16620001f357818052816020526040822081835260205260408220600160ff198254161790553391600080516020620027e18339815191528180a4600190565b5090565b6001600160a01b031660008181527f7d7ffb7a348e1c6a02869081a26547b49160dd3df72d1d75a570eb9b698292ec60205260408120549091907fa49807205ce4d355092ef5a8a18f56e8913cf4a201fbe287825b095693c217759060ff166200029457808352826020526040832082845260205260408320600160ff19825416179055600080516020620027e1833981519152339380a4600190565b50509056fe608080604052600436101561001357600080fd5b60003560e01c90816301ffc9a714611c895750806305d2e83414611bed578063162c3f8414611b975780631b679a37146119e05780631b7d2b5e14611996578063248a9ca3146119675780632f2ff15d1461192857806336568abe146118e1578063372d6b27146118b25780635346e3ac146113b257806356b1ac78146113945780635da7b93e1461131957806364c3e3661461129f57806375b238fc1461126457806376e82bd2146110ec578063797669c9146110c3578063810bb5d614610c685780638797bf0914610be057806391d1485414610b9357806392c16fb514610b6a5780639661129f14610ac25780639cd6fb3d14610a99578063a217fddf14610a7d578063a6d0f16b14610a5f578063aa232dc21461099e578063aca5b376146108e0578063be4665e7146107a6578063c6327d4e146106d2578063c8b67522146106a0578063d547741f1461065f578063e62dfe9014610375578063e70ceb17146101ad5763f9040ab51461018a57600080fd5b346101a85760003660031901126101a8576020600d54604051908152f35b600080fd5b346101a85760203660031901126101a85760006101606040516101cf81611cdc565b828152826020820152606060408201528260608201528260808201528260a08201528260c08201528260e082015282610100820152826101208201528261014082015201526004356000526005602052604060002060ff60076040519261023584611cdc565b8054845260018101546001600160a01b0316602085015261025860028201611f21565b60408501528260038201548181166060870152818160081c166080870152818160101c1660a087015260181c1660c0850152600481015460e0850152600581015461010085015260068101546101208501520154818116151561014084015260081c1615156101608201526040518091602082528051602083015260018060a01b036020820151166040830152610160610303604083015161018060608601526101a0850190611fc7565b9160ff606082015116608085015260ff60808201511660a085015260ff60a08201511660c085015260ff60c08201511660e085015260e0810151610100850152610100810151610120850152610120810151610140850152610140810151151582850152015115156101808301520390f35b346101a85760e03660031901126101a85760043560068110156101a85761039b36611e8d565b9060c435908115158092036101a8576103b26122d9565b600254604051631eb30aeb60e01b81523360048201526020946001600160a01b039290919086908290602490829087165afa8015610653576103fc91600091610626575b506121e3565b60005b600481106105dd575082610414600d54612226565b9485600d5560ff9386858551169589818188015116918060608160408b0151169901511660405198899661044788611cf9565b86885260068589019533875261046160408b019c8d61231a565b60608a019d8e5260808a0197885260a08a0193845260c08a0194855260e08a019860a4358a526101206101008c019b428d52019b8c526000525260406000209a518b5560018b0194511690845499519060068210156105c75761052c85610560986105829f8260049f916105129261054699839960ff60a01b9060a01b16916affffffffffffffffffffff60a81b1617178c5551168a9081549060ff60a81b9060a81b169060ff60a81b1916179055565b51885460ff60b01b1916911660b01b60ff60b01b16178755565b51855460ff60b81b1916911660b81b60ff60b81b16178455565b51825460ff60c01b1916911660c01b60ff60c01b16179055565b51600285015551600384015551151591019060ff801983541691151516179055565b61058f6040518092611e80565b4283820152817f67ef85ee7572a0deb3cc97bf5bd1ab1cedf7c3c162a95051ebac8f880f76480760403393a360018055604051908152f35b634e487b7160e01b600052602160045260246000fd5b6106099061060460ff6001816105f38588612309565b51161015908161060e575b5061225c565b612226565b6103ff565b600a915061061c8487612309565b51161115896105fe565b6106469150873d891161064c575b61063e8183611d32565b8101906121cb565b876103f6565b503d610634565b6040513d6000823e3d90fd5b346101a85760403660031901126101a85761069e60043561067e611dfc565b90806000526000602052610699600160406000200154612017565b612156565b005b346101a85760203660031901126101a85760a06106c36106be611de6565b612346565b6106d06040518092611fec565bf35b346101a85760203660031901126101a8576004356000908152600560205260409020805460018201546001600160a01b03169161071160028201611f21565b600382015490600483015492600581015461074e6007600684015493015493604051988998895260208901526101808060408a0152880190611fc7565b9460ff858180971660608a0152818160081c1660808a0152818160101c1660a08a015260181c1660c088015260e0870152610100860152610120850152818116151561014085015260081c1615156101608301520390f35b346101a85760403660031901126101a85760243560043560068210156101a8573360009081527ff179aafcc4ff8137fca1ef3b9ec4d165f87016ba123e7973fba770bc55e240e360209081526040909120546000805160206124f2833981519152939060ff16156108c1577f684a26583534ed99a49caebeeec9d89557aa34503a9adf64d878c00348a4eccd91908061087f57836000526004825261085160406000205415156124b2565b8360005260048252600560406000200161010061ff00198254161790555b61087c6040518092611e80565ba2005b6001810361086f57836000526005825261089f60406000205415156124b2565b8360005260058252600760406000200161010061ff001982541617905561086f565b60405163e2517d3f60e01b815233600482015260248101859052604490fd5b346101a85760203660031901126101a8576004356000526004602052610180604060002080549060018060a01b03908160018201541690600281015492600382015490600560048401549301549360405196875260208701528416604086015260ff8481809660a01c166060880152818160a81c166080880152818160b01c1660a0880152818160b81c1660c088015260c01c1660e0860152610100850152610120840152818116151561014084015260081c161515610160820152f35b346101a85760203660031901126101a8576109b7611de6565b3360009081527f7d7ffb7a348e1c6a02869081a26547b49160dd3df72d1d75a570eb9b698292ec60205260409020547fa49807205ce4d355092ef5a8a18f56e8913cf4a201fbe287825b095693c217759060ff1615610a415761069e826000805160206124f28339815191526000526000602052610a3c600160406000200154612017565b61203d565b6044906040519063e2517d3f60e01b82523360048301526024820152fd5b346101a85760003660031901126101a8576020600b54604051908152f35b346101a85760003660031901126101a857602060405160008152f35b346101a85760003660031901126101a8576003546040516001600160a01b039091168152602090f35b346101a85760203660031901126101a857600435600052600660205261014060406000208054906001810154906002810154600460038301549260ff9182910154169360405195865260018060a01b0381166020870152610b2b60408701838360a01c16611e80565b818160a81c166060870152818160b01c166080870152818160b81c1660a087015260c01c1660c085015260e08401526101008301521515610120820152f35b346101a85760003660031901126101a8576002546040516001600160a01b039091168152602090f35b346101a85760403660031901126101a857610bac611dfc565b600435600052600060205260406000209060018060a01b0316600052602052602060ff604060002054166040519015158152f35b346101a8576020806003193601126101a8576001600160a01b03610c02611de6565b1660005260088152604060002090604051908181845491828152019360005281600020916000905b828210610c5157610c4d85610c4181890382611d32565b60405191829182611dab565b0390f35b835486529485019460019384019390910190610c2a565b346101a857610100806003193601126101a85760043567ffffffffffffffff81116101a857610c9b903690600401611d54565b610ca436611e8d565b90610cad611e4e565b91610cb66122d9565b600254604051631eb30aeb60e01b815233600482015290602090829060249082906001600160a01b03165afa801561065357610cf9916000916110a457506121e3565b81511561106b5760005b600481106110285750610d17600c54612226565b9283600c5560ff8251169160ff6020820151169060ff606081604084015116920151169160405194610d4886611cdc565b8786523360208701528660408701526060860152608085015260a084015260c083015260a43560e083015260c4358583015242610120830152151561014082015260006101608201528260005260056020526040600020815181556001810160018060a01b036020840151166bffffffffffffffffffffffff60a01b825416179055604082015194855167ffffffffffffffff811161101257610dee6002840154611ee7565b96601f8811610fcb575b602097508790601f8311600114610f52579282600793610ed197969361016096600092610f47575b50508160011b916000199060031b1c19161760028301555b6003820160ff60608701511681549061ff00608089015160081b1662ff000060a08a015160101b169163ff00000060c08b015160181b169363ffffffff191617171717905560e08501516004830155840151600582015561012084015160068201550191610eb96101408201511515849060ff801983541691151516179055565b0151815461ff00191690151560081b61ff0016179055565b610ef88260405185818551610ee98183858a01611e5d565b8101600981520301902061229f565b817f2a5a4b49b316919133ed3d16a798a0f888312f13deaa93e00f12cf03ed18e51e610f2f60405193604085526040850190611fc7565b9242868201528033940390a360018055604051908152f35b015190508b80610e20565b9060028501600052886000209160005b601f1985168110610fb4575083610ed19796936101609693600193600797601f19811610610f9b575b505050811b016002830155610e38565b015160001960f88460031b161c191690558b8080610f8b565b91928a600181928685015181550194019201610f62565b600284016000526020600020601f830160051c81016020841061100b575b601f8a0160051c82018110610fff575050610df8565b60008155600101610fe9565b5080610fe9565b634e487b7160e01b600052604160045260246000fd5b61104e9061060460ff60018161103e8588612309565b511610159081611053575061225c565b610d03565b600a91506110618487612309565b51161115886105fe565b60405162461bcd60e51b8152602060048201526011602482015270131bd8d85d1a5bdb881c995c5d5a5c9959607a1b6044820152606490fd5b6110bd915060203d60201161064c5761063e8183611d32565b866103f6565b346101a85760003660031901126101a85760206040516000805160206124f28339815191528152f35b346101a85760203660031901126101a857600061012060405161110e81611cf9565b8281528260208201528260408201528260608201528260808201528260a08201528260c08201528260e08201528261010082015201526004356000526006602052610140604060002060ff60046040519261116884611cf9565b8054845260018101546001600160a01b0381166020860152839061119560a082901c83166040880161231a565b818160a81c166060870152818160b01c166080870152818160b81c1660a087015260c01c1660c0850152600281015460e085015260038101546101008501520154161515610120820152610120604051918051835260018060a01b03602082015116602084015261120e60408201516040850190611e80565b60ff606082015116606084015260ff608082015116608084015260ff60a08201511660a084015260ff60c08201511660c084015260e081015160e084015261010081015161010084015201511515610120820152f35b346101a85760003660031901126101a85760206040517fa49807205ce4d355092ef5a8a18f56e8913cf4a201fbe287825b095693c217758152f35b346101a85760403660031901126101a85760043567ffffffffffffffff81116101a8576112d0903690600401611d54565b6112ec6020602435928160405193828580945193849201611e5d565b8101600981520301902080548210156101a85760209161130b91611e12565b90546040519160031b1c8152f35b346101a85760203660031901126101a8576001600160a01b0361133a611de6565b16600052600760205260e06040600020805490600181015490600281015460038201546004830154916006600585015494015494604051968752602087015260408601526060850152608084015260a083015260c0820152f35b346101a85760003660031901126101a8576020600c54604051908152f35b346101a8576101003660031901126101a8576113cc611de6565b36604312156101a857604051906113e282611d16565b813660c4116101a8576024905b60c4821061189a575050611401611e4e565b9061140a6122d9565b600254604051631eb30aeb60e01b8152336004820152906001600160a01b0316602082602481845afa9081156106535761145060209260249460009161187d57506121e3565b604051636153c38160e11b81526001600160a01b038516600482015292839182905afa9081156106535760009161185e575b50156118225733600052600a602052604060002060018060a01b03821660005260205260ff604060002054166117dd5760005b600581106117965750916020926116686114d0600b54612226565b9384600b5560ff8451169060ff878601511660ff60408701511660ff6060880151169060ff608089015116926040519561150987611cdc565b8a8752338c88019081526001600160a01b038a81166040808b0191825260608b0194855260808b0195865260a0808c019790975260c08b019790975260e08a019790975260c4356101008a0152426101208a01529615156101408901526000610160808a018290528d825260048f529590208851815590516001820180546001600160a01b0319169189169190911790559451600286018054925193516001600160b01b031990931691909716179190921b60ff60a01b161760a89190911b60ff60a81b1617835591600591906116339060a0860151815460ff60b01b191660b09190911b60ff60b01b1617815560c0860151815460ff60b81b191660b89190911b60ff60b81b1617815560e0860151815460ff60c01b191660c09190911b60ff60c01b16179055565b610100840151600382015561012084015160048201550191610eb96101408201511515849060ff801983541691151516179055565b60018060a01b0381166000526008845261168683604060002061229f565b336000908152600a855260408082206001600160a01b03841683528652808220805460ff1916600117905560078652902080546116c290612226565b815560ff8351166116d8600183019182546122fc565b905560ff85840151166116f0600283019182546122fc565b905560ff604084015116611709600383019182546122fc565b905560ff606084015116611722600483019182546122fc565b905560ff60808401511661173b600583019182546122fc565b90556006429101556117506040518093611fec565b4260a08301526001600160a01b031690339083907ffaf360560dce0f4463d8d819c9e0d207f8138ccc759f786734333a195f9df7bc9060c090a460018055604051908152f35b80600160ff6117a86117bb948861224b565b51161015806117c0575b6106049061225c565b6114b5565b50610604600a60ff6117d2848961224b565b5116111590506117b2565b60405162461bcd60e51b815260206004820152601a60248201527f416c7265616479207261746564207468697320666163756c74790000000000006044820152606490fd5b60405162461bcd60e51b81526020600482015260146024820152732737ba1030903330b1bab63a3c9036b2b6b132b960611b6044820152606490fd5b611877915060203d60201161064c5761063e8183611d32565b84611482565b6118949150843d861161064c5761063e8183611d32565b886103f6565b602080916118a784611e40565b8152019101906113ef565b346101a85760003660031901126101a8576060600b54600c54600d549060405192835260208301526040820152f35b346101a85760403660031901126101a8576118fa611dfc565b336001600160a01b038216036119165761069e90600435612156565b60405163334bd91960e11b8152600490fd5b346101a85760403660031901126101a85761069e600435611947611dfc565b90806000526000602052611962600160406000200154612017565b6120dd565b346101a85760203660031901126101a85760043560005260006020526020600160406000200154604051908152f35b346101a85760403660031901126101a8576119af611de6565b6001600160a01b03166000908152600860205260409020805460243591908210156101a85760209161130b91611e12565b346101a85760203660031901126101a8576000610160604051611a0281611cdc565b8281528260208201528260408201528260608201528260808201528260a08201528260c08201528260e0820152826101008201528261012082015282610140820152015260043560005260046020526101806040600020610160604051611a6881611cdc565b60ff600584549485845260018060a01b03600182015416602085015282600282015460018060a01b0381166040870152818160a01c166060870152818160a81c166080870152818160b01c1660a0870152818160b81c1660c087015260c01c1660e0850152600381015461010085015260048101546101208501520154818116151561014084015260081c1615158282015260405192835260018060a01b03602082015116602084015260018060a01b03604082015116604084015260ff606082015116606084015260ff608082015116608084015260ff60a08201511660a084015260ff60c08201511660c084015260ff60e08201511660e0840152610100810151610100840152610120810151610120840152610140810151151561014084015201511515610160820152f35b346101a85760403660031901126101a857611bb0611de6565b611bb8611dfc565b9060018060a01b03809116600052600a60205260406000209116600052602052602060ff604060002054166040519015158152f35b346101a8576020806003193601126101a85760043567ffffffffffffffff81116101a85781611c23611c36923690600401611d54565b8160405193828580945193849201611e5d565b8101600981520301902090604051908181845491828152019360005281600020916000905b828210611c7257610c4d85610c4181890382611d32565b835486529485019460019384019390910190611c5b565b346101a85760203660031901126101a8576004359063ffffffff60e01b82168092036101a857602091637965db0b60e01b8114908115611ccb575b5015158152f35b6301ffc9a760e01b14905083611cc4565b610180810190811067ffffffffffffffff82111761101257604052565b610140810190811067ffffffffffffffff82111761101257604052565b60a0810190811067ffffffffffffffff82111761101257604052565b90601f8019910116810190811067ffffffffffffffff82111761101257604052565b81601f820112156101a85780359067ffffffffffffffff82116110125760405192611d89601f8401601f191660200185611d32565b828452602083830101116101a857816000926020809301838601378301015290565b6020908160408183019282815285518094520193019160005b828110611dd2575050505090565b835185529381019392810192600101611dc4565b600435906001600160a01b03821682036101a857565b602435906001600160a01b03821682036101a857565b8054821015611e2a5760005260206000200190600090565b634e487b7160e01b600052603260045260246000fd5b359060ff821682036101a857565b60e4359081151582036101a857565b60005b838110611e705750506000910152565b8181015183820152602001611e60565b9060068210156105c75752565b80604312156101a857604051906080820182811067ffffffffffffffff821117611012576040528160a49182116101a8576024905b828210611ecf5750505090565b60208091611edc84611e40565b815201910190611ec2565b90600182811c92168015611f17575b6020831014611f0157565b634e487b7160e01b600052602260045260246000fd5b91607f1691611ef6565b9060405191826000825492611f3584611ee7565b908184526001948581169081600014611fa45750600114611f61575b5050611f5f92500383611d32565b565b9093915060005260209081600020936000915b818310611f8c575050611f5f93508201013880611f51565b85548884018501529485019487945091830191611f74565b915050611f5f94506020925060ff191682840152151560051b8201013880611f51565b90602091611fe081518092818552858086019101611e5d565b601f01601f1916010190565b6000915b60058310611ffd57505050565b60019060ff83511681526020809101920192019190611ff0565b80600052600060205260406000203360005260205260ff6040600020541615610a415750565b6001600160a01b031660008181527ff179aafcc4ff8137fca1ef3b9ec4d165f87016ba123e7973fba770bc55e240e360205260408120549091906000805160206124f28339815191529060ff166120d857808352826020526040832082845260205260408320600160ff198254161790557f2f8788117e7eff1d82e926ec794901d17c78024a50270940304540a733656f0d339380a4600190565b505090565b9060009180835282602052604083209160018060a01b03169182845260205260ff604084205416156000146120d857808352826020526040832082845260205260408320600160ff198254161790557f2f8788117e7eff1d82e926ec794901d17c78024a50270940304540a733656f0d339380a4600190565b9060009180835282602052604083209160018060a01b03169182845260205260ff6040842054166000146120d85780835282602052604083208284526020526040832060ff1981541690557ff6391f5c32d9c69d2a47ea670b442974b53935d1edc7fd64eb21e047a839171b339380a4600190565b908160209103126101a8575180151581036101a85790565b156121ea57565b60405162461bcd60e51b8152602060048201526014602482015273139bdd081d995c9a599a5959081cdd1d59195b9d60621b6044820152606490fd5b60001981146122355760010190565b634e487b7160e01b600052601160045260246000fd5b906005811015611e2a5760051b0190565b1561226357565b60405162461bcd60e51b8152602060048201526014602482015273496e76616c696420726174696e672076616c756560601b6044820152606490fd5b805468010000000000000000811015611012576122c191600182018155611e12565b819291549060031b91821b91600019901b1916179055565b6002600154146122ea576002600155565b604051633ee5aeb560e01b8152600490fd5b9190820180921161223557565b906004811015611e2a5760051b0190565b60068210156105c75752565b8115612330570490565b634e487b7160e01b600052601260045260246000fd5b6040805161235381611d16565b60a03682376001600160a01b0390921660009081526007602052818120825192909167ffffffffffffffff919060e085018381118682101761249e5782528354928386526001850154602087019081526002860154918488019283526003870154936060890194855260048801549660808a01978852600660058a01549960a08c019a8b52015460c08b01521561244f57505093612446959360ff612429819997958261241a612437978e8361240e8e829d51905190612326565b169052518b5190612326565b1660208d015251885190612326565b169089015251845190612326565b16606086015251905190612326565b16608082015290565b8551995097509395505060a087019350505081118482101761248a579082918152818452816020850152830152806060830152608082015290565b634e487b7160e01b83526041600452602483fd5b634e487b7160e01b82526041600452602482fd5b156124b957565b60405162461bcd60e51b815260206004820152601060248201526f14985d1a5b99c81b9bdd08199bdd5b9960821b6044820152606490fdfe71f3d55856e4058ed06ee057d79ada615f65cdf5f9ee88181b914225088f834fa264697066735822122013bb721d856fe076c96503ed177719ad27886d18fc6372915ab23e57d35deb4164736f6c634300081400332f8788117e7eff1d82e926ec794901d17c78024a50270940304540a733656f0d","opcodes":"PUSH1 0x80 CALLVALUE PUSH3 0x147 JUMPI PUSH1 0x1F PUSH3 0x2801 CODESIZE DUP2 SWAP1 SUB SWAP2 DUP3 ADD PUSH1 0x1F NOT AND DUP4 ADD SWAP2 PUSH1 0x1 PUSH1 0x1 PUSH1 0x40 SHL SUB DUP4 GT DUP5 DUP5 LT OR PUSH3 0x14C JUMPI DUP1 DUP5 SWAP3 PUSH1 0x40 SWAP5 DUP6 MSTORE DUP4 CODECOPY DUP2 ADD SUB SLT PUSH3 0x147 JUMPI PUSH3 0x5A PUSH1 0x20 PUSH3 0x52 DUP4 PUSH3 0x162 JUMP JUMPDEST SWAP3 ADD PUSH3 0x162 JUMP JUMPDEST PUSH1 0x1 DUP1 SSTORE PUSH1 0x1 PUSH1 0x1 PUSH1 0xA0 SHL SUB SWAP2 DUP3 AND SWAP2 SWAP1 DUP3 ISZERO PUSH3 0x102 JUMPI AND SWAP1 DUP2 ISZERO PUSH3 0xBD JUMPI PUSH1 0x1 DUP1 PUSH1 0xA0 SHL SUB NOT SWAP1 DUP2 PUSH1 0x2 SLOAD AND OR PUSH1 0x2 SSTORE PUSH1 0x3 SLOAD AND OR PUSH1 0x3 SSTORE PUSH3 0xA0 CALLER PUSH3 0x177 JUMP JUMPDEST POP PUSH3 0xAC CALLER PUSH3 0x1F7 JUMP JUMPDEST POP PUSH1 0x40 MLOAD PUSH2 0x2547 SWAP1 DUP2 PUSH3 0x29A DUP3 CODECOPY RETURN JUMPDEST PUSH1 0x40 MLOAD PUSH3 0x461BCD PUSH1 0xE5 SHL DUP2 MSTORE PUSH1 0x20 PUSH1 0x4 DUP3 ADD MSTORE PUSH1 0x15 PUSH1 0x24 DUP3 ADD MSTORE PUSH32 0x496E76616C6964204149206D6F6465726174696F6E0000000000000000000000 PUSH1 0x44 DUP3 ADD MSTORE PUSH1 0x64 SWAP1 REVERT JUMPDEST PUSH1 0x40 MLOAD PUSH3 0x461BCD PUSH1 0xE5 SHL DUP2 MSTORE PUSH1 0x20 PUSH1 0x4 DUP3 ADD MSTORE PUSH1 0x18 PUSH1 0x24 DUP3 ADD MSTORE PUSH32 0x496E76616C69642073747564656E742072656769737472790000000000000000 PUSH1 0x44 DUP3 ADD MSTORE PUSH1 0x64 SWAP1 REVERT JUMPDEST PUSH1 0x0 DUP1 REVERT JUMPDEST PUSH4 0x4E487B71 PUSH1 0xE0 SHL PUSH1 0x0 MSTORE PUSH1 0x41 PUSH1 0x4 MSTORE PUSH1 0x24 PUSH1 0x0 REVERT JUMPDEST MLOAD SWAP1 PUSH1 0x1 PUSH1 0x1 PUSH1 0xA0 SHL SUB DUP3 AND DUP3 SUB PUSH3 0x147 JUMPI JUMP JUMPDEST PUSH1 0x1 PUSH1 0x1 PUSH1 0xA0 SHL SUB AND PUSH1 0x0 DUP2 DUP2 MSTORE PUSH32 0xAD3228B676F7D3CD4284A5443F17F1962B36E491B30A40B2405849E597BA5FB5 PUSH1 0x20 MSTORE PUSH1 0x40 DUP2 KECCAK256 SLOAD SWAP1 SWAP2 SWAP1 PUSH1 0xFF AND PUSH3 0x1F3 JUMPI DUP2 DUP1 MSTORE DUP2 PUSH1 0x20 MSTORE PUSH1 0x40 DUP3 KECCAK256 DUP2 DUP4 MSTORE PUSH1 0x20 MSTORE PUSH1 0x40 DUP3 KECCAK256 PUSH1 0x1 PUSH1 0xFF NOT DUP3 SLOAD AND OR SWAP1 SSTORE CALLER SWAP2 PUSH1 0x0 DUP1 MLOAD PUSH1 0x20 PUSH3 0x27E1 DUP4 CODECOPY DUP2 MLOAD SWAP2 MSTORE DUP2 DUP1 LOG4 PUSH1 0x1 SWAP1 JUMP JUMPDEST POP SWAP1 JUMP JUMPDEST PUSH1 0x1 PUSH1 0x1 PUSH1 0xA0 SHL SUB AND PUSH1 0x0 DUP2 DUP2 MSTORE PUSH32 0x7D7FFB7A348E1C6A02869081A26547B49160DD3DF72D1D75A570EB9B698292EC PUSH1 0x20 MSTORE PUSH1 0x40 DUP2 KECCAK256 SLOAD SWAP1 SWAP2 SWAP1 PUSH32 0xA49807205CE4D355092EF5A8A18F56E8913CF4A201FBE287825B095693C21775 SWAP1 PUSH1 0xFF AND PUSH3 0x294 JUMPI DUP1 DUP4 MSTORE DUP3 PUSH1 0x20 MSTORE PUSH1 0x40 DUP4 KECCAK256 DUP3 DUP5 MSTORE PUSH1 0x20 MSTORE PUSH1 0x40 DUP4 KECCAK256 PUSH1 0x1 PUSH1 0xFF NOT DUP3 SLOAD AND OR SWAP1 SSTORE PUSH1 0x0 DUP1 MLOAD PUSH1 0x20 PUSH3 0x27E1 DUP4 CODECOPY DUP2 MLOAD SWAP2 MSTORE CALLER SWAP4 DUP1 LOG4 PUSH1 0x1 SWAP1 JUMP JUMPDEST POP POP SWAP1 JUMP INVALID PUSH1 0x80 DUP1 PUSH1 0x40 MSTORE PUSH1 0x4 CALLDATASIZE LT ISZERO PUSH2 0x13 JUMPI PUSH1 0x0 DUP1 REVERT JUMPDEST PUSH1 0x0 CALLDATALOAD PUSH1 0xE0 SHR SWAP1 DUP2 PUSH4 0x1FFC9A7 EQ PUSH2 0x1C89 JUMPI POP DUP1 PUSH4 0x5D2E834 EQ PUSH2 0x1BED JUMPI DUP1 PUSH4 0x162C3F84 EQ PUSH2 0x1B97 JUMPI DUP1 PUSH4 0x1B679A37 EQ PUSH2 0x19E0 JUMPI DUP1 PUSH4 0x1B7D2B5E EQ PUSH2 0x1996 JUMPI DUP1 PUSH4 0x248A9CA3 EQ PUSH2 0x1967 JUMPI DUP1 PUSH4 0x2F2FF15D EQ PUSH2 0x1928 JUMPI DUP1 PUSH4 0x36568ABE EQ PUSH2 0x18E1 JUMPI DUP1 PUSH4 0x372D6B27 EQ PUSH2 0x18B2 JUMPI DUP1 PUSH4 0x5346E3AC EQ PUSH2 0x13B2 JUMPI DUP1 PUSH4 0x56B1AC78 EQ PUSH2 0x1394 JUMPI DUP1 PUSH4 0x5DA7B93E EQ PUSH2 0x1319 JUMPI DUP1 PUSH4 0x64C3E366 EQ PUSH2 0x129F JUMPI DUP1 PUSH4 0x75B238FC EQ PUSH2 0x1264 JUMPI DUP1 PUSH4 0x76E82BD2 EQ PUSH2 0x10EC JUMPI DUP1 PUSH4 0x797669C9 EQ PUSH2 0x10C3 JUMPI DUP1 PUSH4 0x810BB5D6 EQ PUSH2 0xC68 JUMPI DUP1 PUSH4 0x8797BF09 EQ PUSH2 0xBE0 JUMPI DUP1 PUSH4 0x91D14854 EQ PUSH2 0xB93 JUMPI DUP1 PUSH4 0x92C16FB5 EQ PUSH2 0xB6A JUMPI DUP1 PUSH4 0x9661129F EQ PUSH2 0xAC2 JUMPI DUP1 PUSH4 0x9CD6FB3D EQ PUSH2 0xA99 JUMPI DUP1 PUSH4 0xA217FDDF EQ PUSH2 0xA7D JUMPI DUP1 PUSH4 0xA6D0F16B EQ PUSH2 0xA5F JUMPI DUP1 PUSH4 0xAA232DC2 EQ PUSH2 0x99E JUMPI DUP1 PUSH4 0xACA5B376 EQ PUSH2 0x8E0 JUMPI DUP1 PUSH4 0xBE4665E7 EQ PUSH2 0x7A6 JUMPI DUP1 PUSH4 0xC6327D4E EQ PUSH2 0x6D2 JUMPI DUP1 PUSH4 0xC8B67522 EQ PUSH2 0x6A0 JUMPI DUP1 PUSH4 0xD547741F EQ PUSH2 0x65F JUMPI DUP1 PUSH4 0xE62DFE90 EQ PUSH2 0x375 JUMPI DUP1 PUSH4 0xE70CEB17 EQ PUSH2 0x1AD JUMPI PUSH4 0xF9040AB5 EQ PUSH2 0x18A JUMPI PUSH1 0x0 DUP1 REVERT JUMPDEST CALLVALUE PUSH2 0x1A8 JUMPI PUSH1 0x0 CALLDATASIZE PUSH1 0x3 NOT ADD SLT PUSH2 0x1A8 JUMPI PUSH1 0x20 PUSH1 0xD SLOAD PUSH1 0x40 MLOAD SWAP1 DUP2 MSTORE RETURN JUMPDEST PUSH1 0x0 DUP1 REVERT JUMPDEST CALLVALUE PUSH2 0x1A8 JUMPI PUSH1 0x20 CALLDATASIZE PUSH1 0x3 NOT ADD SLT PUSH2 0x1A8 JUMPI PUSH1 0x0 PUSH2 0x160 PUSH1 0x40 MLOAD PUSH2 0x1CF DUP2 PUSH2 0x1CDC JUMP JUMPDEST DUP3 DUP2 MSTORE DUP3 PUSH1 0x20 DUP3 ADD MSTORE PUSH1 0x60 PUSH1 0x40 DUP3 ADD MSTORE DUP3 PUSH1 0x60 DUP3 ADD MSTORE DUP3 PUSH1 0x80 DUP3 ADD MSTORE DUP3 PUSH1 0xA0 DUP3 ADD MSTORE DUP3 PUSH1 0xC0 DUP3 ADD MSTORE DUP3 PUSH1 0xE0 DUP3 ADD MSTORE DUP3 PUSH2 0x100 DUP3 ADD MSTORE DUP3 PUSH2 0x120 DUP3 ADD MSTORE DUP3 PUSH2 0x140 DUP3 ADD MSTORE ADD MSTORE PUSH1 0x4 CALLDATALOAD PUSH1 0x0 MSTORE PUSH1 0x5 PUSH1 0x20 MSTORE PUSH1 0x40 PUSH1 0x0 KECCAK256 PUSH1 0xFF PUSH1 0x7 PUSH1 0x40 MLOAD SWAP3 PUSH2 0x235 DUP5 PUSH2 0x1CDC JUMP JUMPDEST DUP1 SLOAD DUP5 MSTORE PUSH1 0x1 DUP2 ADD SLOAD PUSH1 0x1 PUSH1 0x1 PUSH1 0xA0 SHL SUB AND PUSH1 0x20 DUP6 ADD MSTORE PUSH2 0x258 PUSH1 0x2 DUP3 ADD PUSH2 0x1F21 JUMP JUMPDEST PUSH1 0x40 DUP6 ADD MSTORE DUP3 PUSH1 0x3 DUP3 ADD SLOAD DUP2 DUP2 AND PUSH1 0x60 DUP8 ADD MSTORE DUP2 DUP2 PUSH1 0x8 SHR AND PUSH1 0x80 DUP8 ADD MSTORE DUP2 DUP2 PUSH1 0x10 SHR AND PUSH1 0xA0 DUP8 ADD MSTORE PUSH1 0x18 SHR AND PUSH1 0xC0 DUP6 ADD MSTORE PUSH1 0x4 DUP2 ADD SLOAD PUSH1 0xE0 DUP6 ADD MSTORE PUSH1 0x5 DUP2 ADD SLOAD PUSH2 0x100 DUP6 ADD MSTORE PUSH1 0x6 DUP2 ADD SLOAD PUSH2 0x120 DUP6 ADD MSTORE ADD SLOAD DUP2 DUP2 AND ISZERO ISZERO PUSH2 0x140 DUP5 ADD MSTORE PUSH1 0x8 SHR AND ISZERO ISZERO PUSH2 0x160 DUP3 ADD MSTORE PUSH1 0x40 MLOAD DUP1 SWAP2 PUSH1 0x20 DUP3 MSTORE DUP1 MLOAD PUSH1 0x20 DUP4 ADD MSTORE PUSH1 0x1 DUP1 PUSH1 0xA0 SHL SUB PUSH1 0x20 DUP3 ADD MLOAD AND PUSH1 0x40 DUP4 ADD MSTORE PUSH2 0x160 PUSH2 0x303 PUSH1 0x40 DUP4 ADD MLOAD PUSH2 0x180 PUSH1 0x60 DUP7 ADD MSTORE PUSH2 0x1A0 DUP6 ADD SWAP1 PUSH2 0x1FC7 JUMP JUMPDEST SWAP2 PUSH1 0xFF PUSH1 0x60 DUP3 ADD MLOAD AND PUSH1 0x80 DUP6 ADD MSTORE PUSH1 0xFF PUSH1 0x80 DUP3 ADD MLOAD AND PUSH1 0xA0 DUP6 ADD MSTORE PUSH1 0xFF PUSH1 0xA0 DUP3 ADD MLOAD AND PUSH1 0xC0 DUP6 ADD MSTORE PUSH1 0xFF PUSH1 0xC0 DUP3 ADD MLOAD AND PUSH1 0xE0 DUP6 ADD MSTORE PUSH1 0xE0 DUP2 ADD MLOAD PUSH2 0x100 DUP6 ADD MSTORE PUSH2 0x100 DUP2 ADD MLOAD PUSH2 0x120 DUP6 ADD MSTORE PUSH2 0x120 DUP2 ADD MLOAD PUSH2 0x140 DUP6 ADD MSTORE PUSH2 0x140 DUP2 ADD MLOAD ISZERO ISZERO DUP3 DUP6 ADD MSTORE ADD MLOAD ISZERO ISZERO PUSH2 0x180 DUP4 ADD MSTORE SUB SWAP1 RETURN JUMPDEST CALLVALUE PUSH2 0x1A8 JUMPI PUSH1 0xE0 CALLDATASIZE PUSH1 0x3 NOT ADD SLT PUSH2 0x1A8 JUMPI PUSH1 0x4 CALLDATALOAD PUSH1 0x6 DUP2 LT ISZERO PUSH2 0x1A8 JUMPI PUSH2 0x39B CALLDATASIZE PUSH2 0x1E8D JUMP JUMPDEST SWAP1 PUSH1 0xC4 CALLDATALOAD SWAP1 DUP2 ISZERO ISZERO DUP1 SWAP3 SUB PUSH2 0x1A8 JUMPI PUSH2 0x3B2 PUSH2 0x22D9 JUMP JUMPDEST PUSH1 0x2 SLOAD PUSH1 0x40 MLOAD PUSH4 0x1EB30AEB PUSH1 0xE0 SHL DUP2 MSTORE CALLER PUSH1 0x4 DUP3 ADD MSTORE PUSH1 0x20 SWAP5 PUSH1 0x1 PUSH1 0x1 PUSH1 0xA0 SHL SUB SWAP3 SWAP1 SWAP2 SWAP1 DUP7 SWAP1 DUP3 SWAP1 PUSH1 0x24 SWAP1 DUP3 SWAP1 DUP8 AND GAS STATICCALL DUP1 ISZERO PUSH2 0x653 JUMPI PUSH2 0x3FC SWAP2 PUSH1 0x0 SWAP2 PUSH2 0x626 JUMPI JUMPDEST POP PUSH2 0x21E3 JUMP JUMPDEST PUSH1 0x0 JUMPDEST PUSH1 0x4 DUP2 LT PUSH2 0x5DD JUMPI POP DUP3 PUSH2 0x414 PUSH1 0xD SLOAD PUSH2 0x2226 JUMP JUMPDEST SWAP5 DUP6 PUSH1 0xD SSTORE PUSH1 0xFF SWAP4 DUP7 DUP6 DUP6 MLOAD AND SWAP6 DUP10 DUP2 DUP2 DUP9 ADD MLOAD AND SWAP2 DUP1 PUSH1 0x60 DUP2 PUSH1 0x40 DUP12 ADD MLOAD AND SWAP10 ADD MLOAD AND PUSH1 0x40 MLOAD SWAP9 DUP10 SWAP7 PUSH2 0x447 DUP9 PUSH2 0x1CF9 JUMP JUMPDEST DUP7 DUP9 MSTORE PUSH1 0x6 DUP6 DUP10 ADD SWAP6 CALLER DUP8 MSTORE PUSH2 0x461 PUSH1 0x40 DUP12 ADD SWAP13 DUP14 PUSH2 0x231A JUMP JUMPDEST PUSH1 0x60 DUP11 ADD SWAP14 DUP15 MSTORE PUSH1 0x80 DUP11 ADD SWAP8 DUP9 MSTORE PUSH1 0xA0 DUP11 ADD SWAP4 DUP5 MSTORE PUSH1 0xC0 DUP11 ADD SWAP5 DUP6 MSTORE PUSH1 0xE0 DUP11 ADD SWAP9 PUSH1 0xA4 CALLDATALOAD DUP11 MSTORE PUSH2 0x120 PUSH2 0x100 DUP13 ADD SWAP12 TIMESTAMP DUP14 MSTORE ADD SWAP12 DUP13 MSTORE PUSH1 0x0 MSTORE MSTORE PUSH1 0x40 PUSH1 0x0 KECCAK256 SWAP11 MLOAD DUP12 SSTORE PUSH1 0x1 DUP12 ADD SWAP5 MLOAD AND SWAP1 DUP5 SLOAD SWAP10 MLOAD SWAP1 PUSH1 0x6 DUP3 LT ISZERO PUSH2 0x5C7 JUMPI PUSH2 0x52C DUP6 PUSH2 0x560 SWAP9 PUSH2 0x582 SWAP16 DUP3 PUSH1 0x4 SWAP16 SWAP2 PUSH2 0x512 SWAP3 PUSH2 0x546 SWAP10 DUP4 SWAP10 PUSH1 0xFF PUSH1 0xA0 SHL SWAP1 PUSH1 0xA0 SHL AND SWAP2 PUSH11 0xFFFFFFFFFFFFFFFFFFFFFF PUSH1 0xA8 SHL AND OR OR DUP13 SSTORE MLOAD AND DUP11 SWAP1 DUP2 SLOAD SWAP1 PUSH1 0xFF PUSH1 0xA8 SHL SWAP1 PUSH1 0xA8 SHL AND SWAP1 PUSH1 0xFF PUSH1 0xA8 SHL NOT AND OR SWAP1 SSTORE JUMP JUMPDEST MLOAD DUP9 SLOAD PUSH1 0xFF PUSH1 0xB0 SHL NOT AND SWAP2 AND PUSH1 0xB0 SHL PUSH1 0xFF PUSH1 0xB0 SHL AND OR DUP8 SSTORE JUMP JUMPDEST MLOAD DUP6 SLOAD PUSH1 0xFF PUSH1 0xB8 SHL NOT AND SWAP2 AND PUSH1 0xB8 SHL PUSH1 0xFF PUSH1 0xB8 SHL AND OR DUP5 SSTORE JUMP JUMPDEST MLOAD DUP3 SLOAD PUSH1 0xFF PUSH1 0xC0 SHL NOT AND SWAP2 AND PUSH1 0xC0 SHL PUSH1 0xFF PUSH1 0xC0 SHL AND OR SWAP1 SSTORE JUMP JUMPDEST MLOAD PUSH1 0x2 DUP6 ADD SSTORE MLOAD PUSH1 0x3 DUP5 ADD SSTORE MLOAD ISZERO ISZERO SWAP2 ADD SWAP1 PUSH1 0xFF DUP1 NOT DUP4 SLOAD AND SWAP2 ISZERO ISZERO AND OR SWAP1 SSTORE JUMP JUMPDEST PUSH2 0x58F PUSH1 0x40 MLOAD DUP1 SWAP3 PUSH2 0x1E80 JUMP JUMPDEST TIMESTAMP DUP4 DUP3 ADD MSTORE DUP2 PUSH32 0x67EF85EE7572A0DEB3CC97BF5BD1AB1CEDF7C3C162A95051EBAC8F880F764807 PUSH1 0x40 CALLER SWAP4 LOG3 PUSH1 0x1 DUP1 SSTORE PUSH1 0x40 MLOAD SWAP1 DUP2 MSTORE RETURN JUMPDEST PUSH4 0x4E487B71 PUSH1 0xE0 SHL PUSH1 0x0 MSTORE PUSH1 0x21 PUSH1 0x4 MSTORE PUSH1 0x24 PUSH1 0x0 REVERT JUMPDEST PUSH2 0x609 SWAP1 PUSH2 0x604 PUSH1 0xFF PUSH1 0x1 DUP2 PUSH2 0x5F3 DUP6 DUP9 PUSH2 0x2309 JUMP JUMPDEST MLOAD AND LT ISZERO SWAP1 DUP2 PUSH2 0x60E JUMPI JUMPDEST POP PUSH2 0x225C JUMP JUMPDEST PUSH2 0x2226 JUMP JUMPDEST PUSH2 0x3FF JUMP JUMPDEST PUSH1 0xA SWAP2 POP PUSH2 0x61C DUP5 DUP8 PUSH2 0x2309 JUMP JUMPDEST MLOAD AND GT ISZERO DUP10 PUSH2 0x5FE JUMP JUMPDEST PUSH2 0x646 SWAP2 POP DUP8 RETURNDATASIZE DUP10 GT PUSH2 0x64C JUMPI JUMPDEST PUSH2 0x63E DUP2 DUP4 PUSH2 0x1D32 JUMP JUMPDEST DUP2 ADD SWAP1 PUSH2 0x21CB JUMP JUMPDEST DUP8 PUSH2 0x3F6 JUMP JUMPDEST POP RETURNDATASIZE PUSH2 0x634 JUMP JUMPDEST PUSH1 0x40 MLOAD RETURNDATASIZE PUSH1 0x0 DUP3 RETURNDATACOPY RETURNDATASIZE SWAP1 REVERT JUMPDEST CALLVALUE PUSH2 0x1A8 JUMPI PUSH1 0x40 CALLDATASIZE PUSH1 0x3 NOT ADD SLT PUSH2 0x1A8 JUMPI PUSH2 0x69E PUSH1 0x4 CALLDATALOAD PUSH2 0x67E PUSH2 0x1DFC JUMP JUMPDEST SWAP1 DUP1 PUSH1 0x0 MSTORE PUSH1 0x0 PUSH1 0x20 MSTORE PUSH2 0x699 PUSH1 0x1 PUSH1 0x40 PUSH1 0x0 KECCAK256 ADD SLOAD PUSH2 0x2017 JUMP JUMPDEST PUSH2 0x2156 JUMP JUMPDEST STOP JUMPDEST CALLVALUE PUSH2 0x1A8 JUMPI PUSH1 0x20 CALLDATASIZE PUSH1 0x3 NOT ADD SLT PUSH2 0x1A8 JUMPI PUSH1 0xA0 PUSH2 0x6C3 PUSH2 0x6BE PUSH2 0x1DE6 JUMP JUMPDEST PUSH2 0x2346 JUMP JUMPDEST PUSH2 0x6D0 PUSH1 0x40 MLOAD DUP1 SWAP3 PUSH2 0x1FEC JUMP JUMPDEST RETURN JUMPDEST CALLVALUE PUSH2 0x1A8 JUMPI PUSH1 0x20 CALLDATASIZE PUSH1 0x3 NOT ADD SLT PUSH2 0x1A8 JUMPI PUSH1 0x4 CALLDATALOAD PUSH1 0x0 SWAP1 DUP2 MSTORE PUSH1 0x5 PUSH1 0x20 MSTORE PUSH1 0x40 SWAP1 KECCAK256 DUP1 SLOAD PUSH1 0x1 DUP3 ADD SLOAD PUSH1 0x1 PUSH1 0x1 PUSH1 0xA0 SHL SUB AND SWAP2 PUSH2 0x711 PUSH1 0x2 DUP3 ADD PUSH2 0x1F21 JUMP JUMPDEST PUSH1 0x3 DUP3 ADD SLOAD SWAP1 PUSH1 0x4 DUP4 ADD SLOAD SWAP3 PUSH1 0x5 DUP2 ADD SLOAD PUSH2 0x74E PUSH1 0x7 PUSH1 0x6 DUP5 ADD SLOAD SWAP4 ADD SLOAD SWAP4 PUSH1 0x40 MLOAD SWAP9 DUP10 SWAP9 DUP10 MSTORE PUSH1 0x20 DUP10 ADD MSTORE PUSH2 0x180 DUP1 PUSH1 0x40 DUP11 ADD MSTORE DUP9 ADD SWAP1 PUSH2 0x1FC7 JUMP JUMPDEST SWAP5 PUSH1 0xFF DUP6 DUP2 DUP1 SWAP8 AND PUSH1 0x60 DUP11 ADD MSTORE DUP2 DUP2 PUSH1 0x8 SHR AND PUSH1 0x80 DUP11 ADD MSTORE DUP2 DUP2 PUSH1 0x10 SHR AND PUSH1 0xA0 DUP11 ADD MSTORE PUSH1 0x18 SHR AND PUSH1 0xC0 DUP9 ADD MSTORE PUSH1 0xE0 DUP8 ADD MSTORE PUSH2 0x100 DUP7 ADD MSTORE PUSH2 0x120 DUP6 ADD MSTORE DUP2 DUP2 AND ISZERO ISZERO PUSH2 0x140 DUP6 ADD MSTORE PUSH1 0x8 SHR AND ISZERO ISZERO PUSH2 0x160 DUP4 ADD MSTORE SUB SWAP1 RETURN JUMPDEST CALLVALUE PUSH2 0x1A8 JUMPI PUSH1 0x40 CALLDATASIZE PUSH1 0x3 NOT ADD SLT PUSH2 0x1A8 JUMPI PUSH1 0x24 CALLDATALOAD PUSH1 0x4 CALLDATALOAD PUSH1 0x6 DUP3 LT ISZERO PUSH2 0x1A8 JUMPI CALLER PUSH1 0x0 SWAP1 DUP2 MSTORE PUSH32 0xF179AAFCC4FF8137FCA1EF3B9EC4D165F87016BA123E7973FBA770BC55E240E3 PUSH1 0x20 SWAP1 DUP2 MSTORE PUSH1 0x40 SWAP1 SWAP2 KECCAK256 SLOAD PUSH1 0x0 DUP1 MLOAD PUSH1 0x20 PUSH2 0x24F2 DUP4 CODECOPY DUP2 MLOAD SWAP2 MSTORE SWAP4 SWAP1 PUSH1 0xFF AND ISZERO PUSH2 0x8C1 JUMPI PUSH32 0x684A26583534ED99A49CAEBEEEC9D89557AA34503A9ADF64D878C00348A4ECCD SWAP2 SWAP1 DUP1 PUSH2 0x87F JUMPI DUP4 PUSH1 0x0 MSTORE PUSH1 0x4 DUP3 MSTORE PUSH2 0x851 PUSH1 0x40 PUSH1 0x0 KECCAK256 SLOAD ISZERO ISZERO PUSH2 0x24B2 JUMP JUMPDEST DUP4 PUSH1 0x0 MSTORE PUSH1 0x4 DUP3 MSTORE PUSH1 0x5 PUSH1 0x40 PUSH1 0x0 KECCAK256 ADD PUSH2 0x100 PUSH2 0xFF00 NOT DUP3 SLOAD AND OR SWAP1 SSTORE JUMPDEST PUSH2 0x87C PUSH1 0x40 MLOAD DUP1 SWAP3 PUSH2 0x1E80 JUMP JUMPDEST LOG2 STOP JUMPDEST PUSH1 0x1 DUP2 SUB PUSH2 0x86F JUMPI DUP4 PUSH1 0x0 MSTORE PUSH1 0x5 DUP3 MSTORE PUSH2 0x89F PUSH1 0x40 PUSH1 0x0 KECCAK256 SLOAD ISZERO ISZERO PUSH2 0x24B2 JUMP JUMPDEST DUP4 PUSH1 0x0 MSTORE PUSH1 0x5 DUP3 MSTORE PUSH1 0x7 PUSH1 0x40 PUSH1 0x0 KECCAK256 ADD PUSH2 0x100 PUSH2 0xFF00 NOT DUP3 SLOAD AND OR SWAP1 SSTORE PUSH2 0x86F JUMP JUMPDEST PUSH1 0x40 MLOAD PUSH4 0xE2517D3F PUSH1 0xE0 SHL DUP2 MSTORE CALLER PUSH1 0x4 DUP3 ADD MSTORE PUSH1 0x24 DUP2 ADD DUP6 SWAP1 MSTORE PUSH1 0x44 SWAP1 REVERT JUMPDEST CALLVALUE PUSH2 0x1A8 JUMPI PUSH1 0x20 CALLDATASIZE PUSH1 0x3 NOT ADD SLT PUSH2 0x1A8 JUMPI PUSH1 0x4 CALLDATALOAD PUSH1 0x0 MSTORE PUSH1 0x4 PUSH1 0x20 MSTORE PUSH2 0x180 PUSH1 0x40 PUSH1 0x0 KECCAK256 DUP1 SLOAD SWAP1 PUSH1 0x1 DUP1 PUSH1 0xA0 SHL SUB SWAP1 DUP2 PUSH1 0x1 DUP3 ADD SLOAD AND SWAP1 PUSH1 0x2 DUP2 ADD SLOAD SWAP3 PUSH1 0x3 DUP3 ADD SLOAD SWAP1 PUSH1 0x5 PUSH1 0x4 DUP5 ADD SLOAD SWAP4 ADD SLOAD SWAP4 PUSH1 0x40 MLOAD SWAP7 DUP8 MSTORE PUSH1 0x20 DUP8 ADD MSTORE DUP5 AND PUSH1 0x40 DUP7 ADD MSTORE PUSH1 0xFF DUP5 DUP2 DUP1 SWAP7 PUSH1 0xA0 SHR AND PUSH1 0x60 DUP9 ADD MSTORE DUP2 DUP2 PUSH1 0xA8 SHR AND PUSH1 0x80 DUP9 ADD MSTORE DUP2 DUP2 PUSH1 0xB0 SHR AND PUSH1 0xA0 DUP9 ADD MSTORE DUP2 DUP2 PUSH1 0xB8 SHR AND PUSH1 0xC0 DUP9 ADD MSTORE PUSH1 0xC0 SHR AND PUSH1 0xE0 DUP7 ADD MSTORE PUSH2 0x100 DUP6 ADD MSTORE PUSH2 0x120 DUP5 ADD MSTORE DUP2 DUP2 AND ISZERO ISZERO PUSH2 0x140 DUP5 ADD MSTORE PUSH1 0x8 SHR AND ISZERO ISZERO PUSH2 0x160 DUP3 ADD MSTORE RETURN JUMPDEST CALLVALUE PUSH2 0x1A8 JUMPI PUSH1 0x20 CALLDATASIZE PUSH1 0x3 NOT ADD SLT PUSH2 0x1A8 JUMPI PUSH2 0x9B7 PUSH2 0x1DE6 JUMP JUMPDEST CALLER PUSH1 0x0 SWAP1 DUP2 MSTORE PUSH32 0x7D7FFB7A348E1C6A02869081A26547B49160DD3DF72D1D75A570EB9B698292EC PUSH1 0x20 MSTORE PUSH1 0x40 SWAP1 KECCAK256 SLOAD PUSH32 0xA49807205CE4D355092EF5A8A18F56E8913CF4A201FBE287825B095693C21775 SWAP1 PUSH1 0xFF AND ISZERO PUSH2 0xA41 JUMPI PUSH2 0x69E DUP3 PUSH1 0x0 DUP1 MLOAD PUSH1 0x20 PUSH2 0x24F2 DUP4 CODECOPY DUP2 MLOAD SWAP2 MSTORE PUSH1 0x0 MSTORE PUSH1 0x0 PUSH1 0x20 MSTORE PUSH2 0xA3C PUSH1 0x1 PUSH1 0x40 PUSH1 0x0 KECCAK256 ADD SLOAD PUSH2 0x2017 JUMP JUMPDEST PUSH2 0x203D JUMP JUMPDEST PUSH1 0x44 SWAP1 PUSH1 0x40 MLOAD SWAP1 PUSH4 0xE2517D3F PUSH1 0xE0 SHL DUP3 MSTORE CALLER PUSH1 0x4 DUP4 ADD MSTORE PUSH1 0x24 DUP3 ADD MSTORE REVERT JUMPDEST CALLVALUE PUSH2 0x1A8 JUMPI PUSH1 0x0 CALLDATASIZE PUSH1 0x3 NOT ADD SLT PUSH2 0x1A8 JUMPI PUSH1 0x20 PUSH1 0xB SLOAD PUSH1 0x40 MLOAD SWAP1 DUP2 MSTORE RETURN JUMPDEST CALLVALUE PUSH2 0x1A8 JUMPI PUSH1 0x0 CALLDATASIZE PUSH1 0x3 NOT ADD SLT PUSH2 0x1A8 JUMPI PUSH1 0x20 PUSH1 0x40 MLOAD PUSH1 0x0 DUP2 MSTORE RETURN JUMPDEST CALLVALUE PUSH2 0x1A8 JUMPI PUSH1 0x0 CALLDATASIZE PUSH1 0x3 NOT ADD SLT PUSH2 0x1A8 JUMPI PUSH1 0x3 SLOAD PUSH1 0x40 MLOAD PUSH1 0x1 PUSH1 0x1 PUSH1 0xA0 SHL SUB SWAP1 SWAP2 AND DUP2 MSTORE PUSH1 0x20 SWAP1 RETURN JUMPDEST CALLVALUE PUSH2 0x1A8 JUMPI PUSH1 0x20 CALLDATASIZE PUSH1 0x3 NOT ADD SLT PUSH2 0x1A8 JUMPI PUSH1 0x4 CALLDATALOAD PUSH1 0x0 MSTORE PUSH1 0x6 PUSH1 0x20 MSTORE PUSH2 0x140 PUSH1 0x40 PUSH1 0x0 KECCAK256 DUP1 SLOAD SWAP1 PUSH1 0x1 DUP2 ADD SLOAD SWAP1 PUSH1 0x2 DUP2 ADD SLOAD PUSH1 0x4 PUSH1 0x3 DUP4 ADD SLOAD SWAP3 PUSH1 0xFF SWAP2 DUP3 SWAP2 ADD SLOAD AND SWAP4 PUSH1 0x40 MLOAD SWAP6 DUP7 MSTORE PUSH1 0x1 DUP1 PUSH1 0xA0 SHL SUB DUP2 AND PUSH1 0x20 DUP8 ADD MSTORE PUSH2 0xB2B PUSH1 0x40 DUP8 ADD DUP4 DUP4 PUSH1 0xA0 SHR AND PUSH2 0x1E80 JUMP JUMPDEST DUP2 DUP2 PUSH1 0xA8 SHR AND PUSH1 0x60 DUP8 ADD MSTORE DUP2 DUP2 PUSH1 0xB0 SHR AND PUSH1 0x80 DUP8 ADD MSTORE DUP2 DUP2 PUSH1 0xB8 SHR AND PUSH1 0xA0 DUP8 ADD MSTORE PUSH1 0xC0 SHR AND PUSH1 0xC0 DUP6 ADD MSTORE PUSH1 0xE0 DUP5 ADD MSTORE PUSH2 0x100 DUP4 ADD MSTORE ISZERO ISZERO PUSH2 0x120 DUP3 ADD MSTORE RETURN JUMPDEST CALLVALUE PUSH2 0x1A8 JUMPI PUSH1 0x0 CALLDATASIZE PUSH1 0x3 NOT ADD SLT PUSH2 0x1A8 JUMPI PUSH1 0x2 SLOAD PUSH1 0x40 MLOAD PUSH1 0x1 PUSH1 0x1 PUSH1 0xA0 SHL SUB SWAP1 SWAP2 AND DUP2 MSTORE PUSH1 0x20 SWAP1 RETURN JUMPDEST CALLVALUE PUSH2 0x1A8 JUMPI PUSH1 0x40 CALLDATASIZE PUSH1 0x3 NOT ADD SLT PUSH2 0x1A8 JUMPI PUSH2 0xBAC PUSH2 0x1DFC JUMP JUMPDEST PUSH1 0x4 CALLDATALOAD PUSH1 0x0 MSTORE PUSH1 0x0 PUSH1 0x20 MSTORE PUSH1 0x40 PUSH1 0x0 KECCAK256 SWAP1 PUSH1 0x1 DUP1 PUSH1 0xA0 SHL SUB AND PUSH1 0x0 MSTORE PUSH1 0x20 MSTORE PUSH1 0x20 PUSH1 0xFF PUSH1 0x40 PUSH1 0x0 KECCAK256 SLOAD AND PUSH1 0x40 MLOAD SWAP1 ISZERO ISZERO DUP2 MSTORE RETURN JUMPDEST CALLVALUE PUSH2 0x1A8 JUMPI PUSH1 0x20 DUP1 PUSH1 0x3 NOT CALLDATASIZE ADD SLT PUSH2 0x1A8 JUMPI PUSH1 0x1 PUSH1 0x1 PUSH1 0xA0 SHL SUB PUSH2 0xC02 PUSH2 0x1DE6 JUMP JUMPDEST AND PUSH1 0x0 MSTORE PUSH1 0x8 DUP2 MSTORE PUSH1 0x40 PUSH1 0x0 KECCAK256 SWAP1 PUSH1 0x40 MLOAD SWAP1 DUP2 DUP2 DUP5 SLOAD SWAP2 DUP3 DUP2 MSTORE ADD SWAP4 PUSH1 0x0 MSTORE DUP2 PUSH1 0x0 KECCAK256 SWAP2 PUSH1 0x0 SWAP1 JUMPDEST DUP3 DUP3 LT PUSH2 0xC51 JUMPI PUSH2 0xC4D DUP6 PUSH2 0xC41 DUP2 DUP10 SUB DUP3 PUSH2 0x1D32 JUMP JUMPDEST PUSH1 0x40 MLOAD SWAP2 DUP3 SWAP2 DUP3 PUSH2 0x1DAB JUMP JUMPDEST SUB SWAP1 RETURN JUMPDEST DUP4 SLOAD DUP7 MSTORE SWAP5 DUP6 ADD SWAP5 PUSH1 0x1 SWAP4 DUP5 ADD SWAP4 SWAP1 SWAP2 ADD SWAP1 PUSH2 0xC2A JUMP JUMPDEST CALLVALUE PUSH2 0x1A8 JUMPI PUSH2 0x100 DUP1 PUSH1 0x3 NOT CALLDATASIZE ADD SLT PUSH2 0x1A8 JUMPI PUSH1 0x4 CALLDATALOAD PUSH8 0xFFFFFFFFFFFFFFFF DUP2 GT PUSH2 0x1A8 JUMPI PUSH2 0xC9B SWAP1 CALLDATASIZE SWAP1 PUSH1 0x4 ADD PUSH2 0x1D54 JUMP JUMPDEST PUSH2 0xCA4 CALLDATASIZE PUSH2 0x1E8D JUMP JUMPDEST SWAP1 PUSH2 0xCAD PUSH2 0x1E4E JUMP JUMPDEST SWAP2 PUSH2 0xCB6 PUSH2 0x22D9 JUMP JUMPDEST PUSH1 0x2 SLOAD PUSH1 0x40 MLOAD PUSH4 0x1EB30AEB PUSH1 0xE0 SHL DUP2 MSTORE CALLER PUSH1 0x4 DUP3 ADD MSTORE SWAP1 PUSH1 0x20 SWAP1 DUP3 SWAP1 PUSH1 0x24 SWAP1 DUP3 SWAP1 PUSH1 0x1 PUSH1 0x1 PUSH1 0xA0 SHL SUB AND GAS STATICCALL DUP1 ISZERO PUSH2 0x653 JUMPI PUSH2 0xCF9 SWAP2 PUSH1 0x0 SWAP2 PUSH2 0x10A4 JUMPI POP PUSH2 0x21E3 JUMP JUMPDEST DUP2 MLOAD ISZERO PUSH2 0x106B JUMPI PUSH1 0x0 JUMPDEST PUSH1 0x4 DUP2 LT PUSH2 0x1028 JUMPI POP PUSH2 0xD17 PUSH1 0xC SLOAD PUSH2 0x2226 JUMP JUMPDEST SWAP3 DUP4 PUSH1 0xC SSTORE PUSH1 0xFF DUP3 MLOAD AND SWAP2 PUSH1 0xFF PUSH1 0x20 DUP3 ADD MLOAD AND SWAP1 PUSH1 0xFF PUSH1 0x60 DUP2 PUSH1 0x40 DUP5 ADD MLOAD AND SWAP3 ADD MLOAD AND SWAP2 PUSH1 0x40 MLOAD SWAP5 PUSH2 0xD48 DUP7 PUSH2 0x1CDC JUMP JUMPDEST DUP8 DUP7 MSTORE CALLER PUSH1 0x20 DUP8 ADD MSTORE DUP7 PUSH1 0x40 DUP8 ADD MSTORE PUSH1 0x60 DUP7 ADD MSTORE PUSH1 0x80 DUP6 ADD MSTORE PUSH1 0xA0 DUP5 ADD MSTORE PUSH1 0xC0 DUP4 ADD MSTORE PUSH1 0xA4 CALLDATALOAD PUSH1 0xE0 DUP4 ADD MSTORE PUSH1 0xC4 CALLDATALOAD DUP6 DUP4 ADD MSTORE TIMESTAMP PUSH2 0x120 DUP4 ADD MSTORE ISZERO ISZERO PUSH2 0x140 DUP3 ADD MSTORE PUSH1 0x0 PUSH2 0x160 DUP3 ADD MSTORE DUP3 PUSH1 0x0 MSTORE PUSH1 0x5 PUSH1 0x20 MSTORE PUSH1 0x40 PUSH1 0x0 KECCAK256 DUP2 MLOAD DUP2 SSTORE PUSH1 0x1 DUP2 ADD PUSH1 0x1 DUP1 PUSH1 0xA0 SHL SUB PUSH1 0x20 DUP5 ADD MLOAD AND PUSH12 0xFFFFFFFFFFFFFFFFFFFFFFFF PUSH1 0xA0 SHL DUP3 SLOAD AND OR SWAP1 SSTORE PUSH1 0x40 DUP3 ADD MLOAD SWAP5 DUP6 MLOAD PUSH8 0xFFFFFFFFFFFFFFFF DUP2 GT PUSH2 0x1012 JUMPI PUSH2 0xDEE PUSH1 0x2 DUP5 ADD SLOAD PUSH2 0x1EE7 JUMP JUMPDEST SWAP7 PUSH1 0x1F DUP9 GT PUSH2 0xFCB JUMPI JUMPDEST PUSH1 0x20 SWAP8 POP DUP8 SWAP1 PUSH1 0x1F DUP4 GT PUSH1 0x1 EQ PUSH2 0xF52 JUMPI SWAP3 DUP3 PUSH1 0x7 SWAP4 PUSH2 0xED1 SWAP8 SWAP7 SWAP4 PUSH2 0x160 SWAP7 PUSH1 0x0 SWAP3 PUSH2 0xF47 JUMPI JUMPDEST POP POP DUP2 PUSH1 0x1 SHL SWAP2 PUSH1 0x0 NOT SWAP1 PUSH1 0x3 SHL SHR NOT AND OR PUSH1 0x2 DUP4 ADD SSTORE JUMPDEST PUSH1 0x3 DUP3 ADD PUSH1 0xFF PUSH1 0x60 DUP8 ADD MLOAD AND DUP2 SLOAD SWAP1 PUSH2 0xFF00 PUSH1 0x80 DUP10 ADD MLOAD PUSH1 0x8 SHL AND PUSH3 0xFF0000 PUSH1 0xA0 DUP11 ADD MLOAD PUSH1 0x10 SHL AND SWAP2 PUSH4 0xFF000000 PUSH1 0xC0 DUP12 ADD MLOAD PUSH1 0x18 SHL AND SWAP4 PUSH4 0xFFFFFFFF NOT AND OR OR OR OR SWAP1 SSTORE PUSH1 0xE0 DUP6 ADD MLOAD PUSH1 0x4 DUP4 ADD SSTORE DUP5 ADD MLOAD PUSH1 0x5 DUP3 ADD SSTORE PUSH2 0x120 DUP5 ADD MLOAD PUSH1 0x6 DUP3 ADD SSTORE ADD SWAP2 PUSH2 0xEB9 PUSH2 0x140 DUP3 ADD MLOAD ISZERO ISZERO DUP5 SWAP1 PUSH1 0xFF DUP1 NOT DUP4 SLOAD AND SWAP2 ISZERO ISZERO AND OR SWAP1 SSTORE JUMP JUMPDEST ADD MLOAD DUP2 SLOAD PUSH2 0xFF00 NOT AND SWAP1 ISZERO ISZERO PUSH1 0x8 SHL PUSH2 0xFF00 AND OR SWAP1 SSTORE JUMP JUMPDEST PUSH2 0xEF8 DUP3 PUSH1 0x40 MLOAD DUP6 DUP2 DUP6 MLOAD PUSH2 0xEE9 DUP2 DUP4 DUP6 DUP11 ADD PUSH2 0x1E5D JUMP JUMPDEST DUP2 ADD PUSH1 0x9 DUP2 MSTORE SUB ADD SWAP1 KECCAK256 PUSH2 0x229F JUMP JUMPDEST DUP2 PUSH32 0x2A5A4B49B316919133ED3D16A798A0F888312F13DEAA93E00F12CF03ED18E51E PUSH2 0xF2F PUSH1 0x40 MLOAD SWAP4 PUSH1 0x40 DUP6 MSTORE PUSH1 0x40 DUP6 ADD SWAP1 PUSH2 0x1FC7 JUMP JUMPDEST SWAP3 TIMESTAMP DUP7 DUP3 ADD MSTORE DUP1 CALLER SWAP5 SUB SWAP1 LOG3 PUSH1 0x1 DUP1 SSTORE PUSH1 0x40 MLOAD SWAP1 DUP2 MSTORE RETURN JUMPDEST ADD MLOAD SWAP1 POP DUP12 DUP1 PUSH2 0xE20 JUMP JUMPDEST SWAP1 PUSH1 0x2 DUP6 ADD PUSH1 0x0 MSTORE DUP9 PUSH1 0x0 KECCAK256 SWAP2 PUSH1 0x0 JUMPDEST PUSH1 0x1F NOT DUP6 AND DUP2 LT PUSH2 0xFB4 JUMPI POP DUP4 PUSH2 0xED1 SWAP8 SWAP7 SWAP4 PUSH2 0x160 SWAP7 SWAP4 PUSH1 0x1 SWAP4 PUSH1 0x7 SWAP8 PUSH1 0x1F NOT DUP2 AND LT PUSH2 0xF9B JUMPI JUMPDEST POP POP POP DUP2 SHL ADD PUSH1 0x2 DUP4 ADD SSTORE PUSH2 0xE38 JUMP JUMPDEST ADD MLOAD PUSH1 0x0 NOT PUSH1 0xF8 DUP5 PUSH1 0x3 SHL AND SHR NOT AND SWAP1 SSTORE DUP12 DUP1 DUP1 PUSH2 0xF8B JUMP JUMPDEST SWAP2 SWAP3 DUP11 PUSH1 0x1 DUP2 SWAP3 DUP7 DUP6 ADD MLOAD DUP2 SSTORE ADD SWAP5 ADD SWAP3 ADD PUSH2 0xF62 JUMP JUMPDEST PUSH1 0x2 DUP5 ADD PUSH1 0x0 MSTORE PUSH1 0x20 PUSH1 0x0 KECCAK256 PUSH1 0x1F DUP4 ADD PUSH1 0x5 SHR DUP2 ADD PUSH1 0x20 DUP5 LT PUSH2 0x100B JUMPI JUMPDEST PUSH1 0x1F DUP11 ADD PUSH1 0x5 SHR DUP3 ADD DUP2 LT PUSH2 0xFFF JUMPI POP POP PUSH2 0xDF8 JUMP JUMPDEST PUSH1 0x0 DUP2 SSTORE PUSH1 0x1 ADD PUSH2 0xFE9 JUMP JUMPDEST POP DUP1 PUSH2 0xFE9 JUMP JUMPDEST PUSH4 0x4E487B71 PUSH1 0xE0 SHL PUSH1 0x0 MSTORE PUSH1 0x41 PUSH1 0x4 MSTORE PUSH1 0x24 PUSH1 0x0 REVERT JUMPDEST PUSH2 0x104E SWAP1 PUSH2 0x604 PUSH1 0xFF PUSH1 0x1 DUP2 PUSH2 0x103E DUP6 DUP9 PUSH2 0x2309 JUMP JUMPDEST MLOAD AND LT ISZERO SWAP1 DUP2 PUSH2 0x1053 JUMPI POP PUSH2 0x225C JUMP JUMPDEST PUSH2 0xD03 JUMP JUMPDEST PUSH1 0xA SWAP2 POP PUSH2 0x1061 DUP5 DUP8 PUSH2 0x2309 JUMP JUMPDEST MLOAD AND GT ISZERO DUP9 PUSH2 0x5FE JUMP JUMPDEST PUSH1 0x40 MLOAD PUSH3 0x461BCD PUSH1 0xE5 SHL DUP2 MSTORE PUSH1 0x20 PUSH1 0x4 DUP3 ADD MSTORE PUSH1 0x11 PUSH1 0x24 DUP3 ADD MSTORE PUSH17 0x131BD8D85D1A5BDB881C995C5D5A5C9959 PUSH1 0x7A SHL PUSH1 0x44 DUP3 ADD MSTORE PUSH1 0x64 SWAP1 REVERT JUMPDEST PUSH2 0x10BD SWAP2 POP PUSH1 0x20 RETURNDATASIZE PUSH1 0x20 GT PUSH2 0x64C JUMPI PUSH2 0x63E DUP2 DUP4 PUSH2 0x1D32 JUMP JUMPDEST DUP7 PUSH2 0x3F6 JUMP JUMPDEST CALLVALUE PUSH2 0x1A8 JUMPI PUSH1 0x0 CALLDATASIZE PUSH1 0x3 NOT ADD SLT PUSH2 0x1A8 JUMPI PUSH1 0x20 PUSH1 0x40 MLOAD PUSH1 0x0 DUP1 MLOAD PUSH1 0x20 PUSH2 0x24F2 DUP4 CODECOPY DUP2 MLOAD SWAP2 MSTORE DUP2 MSTORE RETURN JUMPDEST CALLVALUE PUSH2 0x1A8 JUMPI PUSH1 0x20 CALLDATASIZE PUSH1 0x3 NOT ADD SLT PUSH2 0x1A8 JUMPI PUSH1 0x0 PUSH2 0x120 PUSH1 0x40 MLOAD PUSH2 0x110E DUP2 PUSH2 0x1CF9 JUMP JUMPDEST DUP3 DUP2 MSTORE DUP3 PUSH1 0x20 DUP3 ADD MSTORE DUP3 PUSH1 0x40 DUP3 ADD MSTORE DUP3 PUSH1 0x60 DUP3 ADD MSTORE DUP3 PUSH1 0x80 DUP3 ADD MSTORE DUP3 PUSH1 0xA0 DUP3 ADD MSTORE DUP3 PUSH1 0xC0 DUP3 ADD MSTORE DUP3 PUSH1 0xE0 DUP3 ADD MSTORE DUP3 PUSH2 0x100 DUP3 ADD MSTORE ADD MSTORE PUSH1 0x4 CALLDATALOAD PUSH1 0x0 MSTORE PUSH1 0x6 PUSH1 0x20 MSTORE PUSH2 0x140 PUSH1 0x40 PUSH1 0x0 KECCAK256 PUSH1 0xFF PUSH1 0x4 PUSH1 0x40 MLOAD SWAP3 PUSH2 0x1168 DUP5 PUSH2 0x1CF9 JUMP JUMPDEST DUP1 SLOAD DUP5 MSTORE PUSH1 0x1 DUP2 ADD SLOAD PUSH1 0x1 PUSH1 0x1 PUSH1 0xA0 SHL SUB DUP2 AND PUSH1 0x20 DUP7 ADD MSTORE DUP4 SWAP1 PUSH2 0x1195 PUSH1 0xA0 DUP3 SWAP1 SHR DUP4 AND PUSH1 0x40 DUP9 ADD PUSH2 0x231A JUMP JUMPDEST DUP2 DUP2 PUSH1 0xA8 SHR AND PUSH1 0x60 DUP8 ADD MSTORE DUP2 DUP2 PUSH1 0xB0 SHR AND PUSH1 0x80 DUP8 ADD MSTORE DUP2 DUP2 PUSH1 0xB8 SHR AND PUSH1 0xA0 DUP8 ADD MSTORE PUSH1 0xC0 SHR AND PUSH1 0xC0 DUP6 ADD MSTORE PUSH1 0x2 DUP2 ADD SLOAD PUSH1 0xE0 DUP6 ADD MSTORE PUSH1 0x3 DUP2 ADD SLOAD PUSH2 0x100 DUP6 ADD MSTORE ADD SLOAD AND ISZERO ISZERO PUSH2 0x120 DUP3 ADD MSTORE PUSH2 0x120 PUSH1 0x40 MLOAD SWAP2 DUP1 MLOAD DUP4 MSTORE PUSH1 0x1 DUP1 PUSH1 0xA0 SHL SUB PUSH1 0x20 DUP3 ADD MLOAD AND PUSH1 0x20 DUP5 ADD MSTORE PUSH2 0x120E PUSH1 0x40 DUP3 ADD MLOAD PUSH1 0x40 DUP6 ADD SWAP1 PUSH2 0x1E80 JUMP JUMPDEST PUSH1 0xFF PUSH1 0x60 DUP3 ADD MLOAD AND PUSH1 0x60 DUP5 ADD MSTORE PUSH1 0xFF PUSH1 0x80 DUP3 ADD MLOAD AND PUSH1 0x80 DUP5 ADD MSTORE PUSH1 0xFF PUSH1 0xA0 DUP3 ADD MLOAD AND PUSH1 0xA0 DUP5 ADD MSTORE PUSH1 0xFF PUSH1 0xC0 DUP3 ADD MLOAD AND PUSH1 0xC0 DUP5 ADD MSTORE PUSH1 0xE0 DUP2 ADD MLOAD PUSH1 0xE0 DUP5 ADD MSTORE PUSH2 0x100 DUP2 ADD MLOAD PUSH2 0x100 DUP5 ADD MSTORE ADD MLOAD ISZERO ISZERO PUSH2 0x120 DUP3 ADD MSTORE RETURN JUMPDEST CALLVALUE PUSH2 0x1A8 JUMPI PUSH1 0x0 CALLDATASIZE PUSH1 0x3 NOT ADD SLT PUSH2 0x1A8 JUMPI PUSH1 0x20 PUSH1 0x40 MLOAD PUSH32 0xA49807205CE4D355092EF5A8A18F56E8913CF4A201FBE287825B095693C21775 DUP2 MSTORE RETURN JUMPDEST CALLVALUE PUSH2 0x1A8 JUMPI PUSH1 0x40 CALLDATASIZE PUSH1 0x3 NOT ADD SLT PUSH2 0x1A8 JUMPI PUSH1 0x4 CALLDATALOAD PUSH8 0xFFFFFFFFFFFFFFFF DUP2 GT PUSH2 0x1A8 JUMPI PUSH2 0x12D0 SWAP1 CALLDATASIZE SWAP1 PUSH1 0x4 ADD PUSH2 0x1D54 JUMP JUMPDEST PUSH2 0x12EC PUSH1 0x20 PUSH1 0x24 CALLDATALOAD SWAP3 DUP2 PUSH1 0x40 MLOAD SWAP4 DUP3 DUP6 DUP1 SWAP5 MLOAD SWAP4 DUP5 SWAP3 ADD PUSH2 0x1E5D JUMP JUMPDEST DUP2 ADD PUSH1 0x9 DUP2 MSTORE SUB ADD SWAP1 KECCAK256 DUP1 SLOAD DUP3 LT ISZERO PUSH2 0x1A8 JUMPI PUSH1 0x20 SWAP2 PUSH2 0x130B SWAP2 PUSH2 0x1E12 JUMP JUMPDEST SWAP1 SLOAD PUSH1 0x40 MLOAD SWAP2 PUSH1 0x3 SHL SHR DUP2 MSTORE RETURN JUMPDEST CALLVALUE PUSH2 0x1A8 JUMPI PUSH1 0x20 CALLDATASIZE PUSH1 0x3 NOT ADD SLT PUSH2 0x1A8 JUMPI PUSH1 0x1 PUSH1 0x1 PUSH1 0xA0 SHL SUB PUSH2 0x133A PUSH2 0x1DE6 JUMP JUMPDEST AND PUSH1 0x0 MSTORE PUSH1 0x7 PUSH1 0x20 MSTORE PUSH1 0xE0 PUSH1 0x40 PUSH1 0x0 KECCAK256 DUP1 SLOAD SWAP1 PUSH1 0x1 DUP2 ADD SLOAD SWAP1 PUSH1 0x2 DUP2 ADD SLOAD PUSH1 0x3 DUP3 ADD SLOAD PUSH1 0x4 DUP4 ADD SLOAD SWAP2 PUSH1 0x6 PUSH1 0x5 DUP6 ADD SLOAD SWAP5 ADD SLOAD SWAP5 PUSH1 0x40 MLOAD SWAP7 DUP8 MSTORE PUSH1 0x20 DUP8 ADD MSTORE PUSH1 0x40 DUP7 ADD MSTORE PUSH1 0x60 DUP6 ADD MSTORE PUSH1 0x80 DUP5 ADD MSTORE PUSH1 0xA0 DUP4 ADD MSTORE PUSH1 0xC0 DUP3 ADD MSTORE RETURN JUMPDEST CALLVALUE PUSH2 0x1A8 JUMPI PUSH1 0x0 CALLDATASIZE PUSH1 0x3 NOT ADD SLT PUSH2 0x1A8 JUMPI PUSH1 0x20 PUSH1 0xC SLOAD PUSH1 0x40 MLOAD SWAP1 DUP2 MSTORE RETURN JUMPDEST CALLVALUE PUSH2 0x1A8 JUMPI PUSH2 0x100 CALLDATASIZE PUSH1 0x3 NOT ADD SLT PUSH2 0x1A8 JUMPI PUSH2 0x13CC PUSH2 0x1DE6 JUMP JUMPDEST CALLDATASIZE PUSH1 0x43 SLT ISZERO PUSH2 0x1A8 JUMPI PUSH1 0x40 MLOAD SWAP1 PUSH2 0x13E2 DUP3 PUSH2 0x1D16 JUMP JUMPDEST DUP2 CALLDATASIZE PUSH1 0xC4 GT PUSH2 0x1A8 JUMPI PUSH1 0x24 SWAP1 JUMPDEST PUSH1 0xC4 DUP3 LT PUSH2 0x189A JUMPI POP POP PUSH2 0x1401 PUSH2 0x1E4E JUMP JUMPDEST SWAP1 PUSH2 0x140A PUSH2 0x22D9 JUMP JUMPDEST PUSH1 0x2 SLOAD PUSH1 0x40 MLOAD PUSH4 0x1EB30AEB PUSH1 0xE0 SHL DUP2 MSTORE CALLER PUSH1 0x4 DUP3 ADD MSTORE SWAP1 PUSH1 0x1 PUSH1 0x1 PUSH1 0xA0 SHL SUB AND PUSH1 0x20 DUP3 PUSH1 0x24 DUP2 DUP5 GAS STATICCALL SWAP1 DUP2 ISZERO PUSH2 0x653 JUMPI PUSH2 0x1450 PUSH1 0x20 SWAP3 PUSH1 0x24 SWAP5 PUSH1 0x0 SWAP2 PUSH2 0x187D JUMPI POP PUSH2 0x21E3 JUMP JUMPDEST PUSH1 0x40 MLOAD PUSH4 0x6153C381 PUSH1 0xE1 SHL DUP2 MSTORE PUSH1 0x1 PUSH1 0x1 PUSH1 0xA0 SHL SUB DUP6 AND PUSH1 0x4 DUP3 ADD MSTORE SWAP3 DUP4 SWAP2 DUP3 SWAP1 GAS STATICCALL SWAP1 DUP2 ISZERO PUSH2 0x653 JUMPI PUSH1 0x0 SWAP2 PUSH2 0x185E JUMPI JUMPDEST POP ISZERO PUSH2 0x1822 JUMPI CALLER PUSH1 0x0 MSTORE PUSH1 0xA PUSH1 0x20 MSTORE PUSH1 0x40 PUSH1 0x0 KECCAK256 PUSH1 0x1 DUP1 PUSH1 0xA0 SHL SUB DUP3 AND PUSH1 0x0 MSTORE PUSH1 0x20 MSTORE PUSH1 0xFF PUSH1 0x40 PUSH1 0x0 KECCAK256 SLOAD AND PUSH2 0x17DD JUMPI PUSH1 0x0 JUMPDEST PUSH1 0x5 DUP2 LT PUSH2 0x1796 JUMPI POP SWAP2 PUSH1 0x20 SWAP3 PUSH2 0x1668 PUSH2 0x14D0 PUSH1 0xB SLOAD PUSH2 0x2226 JUMP JUMPDEST SWAP4 DUP5 PUSH1 0xB SSTORE PUSH1 0xFF DUP5 MLOAD AND SWAP1 PUSH1 0xFF DUP8 DUP7 ADD MLOAD AND PUSH1 0xFF PUSH1 0x40 DUP8 ADD MLOAD AND PUSH1 0xFF PUSH1 0x60 DUP9 ADD MLOAD AND SWAP1 PUSH1 0xFF PUSH1 0x80 DUP10 ADD MLOAD AND SWAP3 PUSH1 0x40 MLOAD SWAP6 PUSH2 0x1509 DUP8 PUSH2 0x1CDC JUMP JUMPDEST DUP11 DUP8 MSTORE CALLER DUP13 DUP9 ADD SWAP1 DUP2 MSTORE PUSH1 0x1 PUSH1 0x1 PUSH1 0xA0 SHL SUB DUP11 DUP2 AND PUSH1 0x40 DUP1 DUP12 ADD SWAP2 DUP3 MSTORE PUSH1 0x60 DUP12 ADD SWAP5 DUP6 MSTORE PUSH1 0x80 DUP12 ADD SWAP6 DUP7 MSTORE PUSH1 0xA0 DUP1 DUP13 ADD SWAP8 SWAP1 SWAP8 MSTORE PUSH1 0xC0 DUP12 ADD SWAP8 SWAP1 SWAP8 MSTORE PUSH1 0xE0 DUP11 ADD SWAP8 SWAP1 SWAP8 MSTORE PUSH1 0xC4 CALLDATALOAD PUSH2 0x100 DUP11 ADD MSTORE TIMESTAMP PUSH2 0x120 DUP11 ADD MSTORE SWAP7 ISZERO ISZERO PUSH2 0x140 DUP10 ADD MSTORE PUSH1 0x0 PUSH2 0x160 DUP1 DUP11 ADD DUP3 SWAP1 MSTORE DUP14 DUP3 MSTORE PUSH1 0x4 DUP16 MSTORE SWAP6 SWAP1 KECCAK256 DUP9 MLOAD DUP2 SSTORE SWAP1 MLOAD PUSH1 0x1 DUP3 ADD DUP1 SLOAD PUSH1 0x1 PUSH1 0x1 PUSH1 0xA0 SHL SUB NOT AND SWAP2 DUP10 AND SWAP2 SWAP1 SWAP2 OR SWAP1 SSTORE SWAP5 MLOAD PUSH1 0x2 DUP7 ADD DUP1 SLOAD SWAP3 MLOAD SWAP4 MLOAD PUSH1 0x1 PUSH1 0x1 PUSH1 0xB0 SHL SUB NOT SWAP1 SWAP4 AND SWAP2 SWAP1 SWAP8 AND OR SWAP2 SWAP1 SWAP3 SHL PUSH1 0xFF PUSH1 0xA0 SHL AND OR PUSH1 0xA8 SWAP2 SWAP1 SWAP2 SHL PUSH1 0xFF PUSH1 0xA8 SHL AND OR DUP4 SSTORE SWAP2 PUSH1 0x5 SWAP2 SWAP1 PUSH2 0x1633 SWAP1 PUSH1 0xA0 DUP7 ADD MLOAD DUP2 SLOAD PUSH1 0xFF PUSH1 0xB0 SHL NOT AND PUSH1 0xB0 SWAP2 SWAP1 SWAP2 SHL PUSH1 0xFF PUSH1 0xB0 SHL AND OR DUP2 SSTORE PUSH1 0xC0 DUP7 ADD MLOAD DUP2 SLOAD PUSH1 0xFF PUSH1 0xB8 SHL NOT AND PUSH1 0xB8 SWAP2 SWAP1 SWAP2 SHL PUSH1 0xFF PUSH1 0xB8 SHL AND OR DUP2 SSTORE PUSH1 0xE0 DUP7 ADD MLOAD DUP2 SLOAD PUSH1 0xFF PUSH1 0xC0 SHL NOT AND PUSH1 0xC0 SWAP2 SWAP1 SWAP2 SHL PUSH1 0xFF PUSH1 0xC0 SHL AND OR SWAP1 SSTORE JUMP JUMPDEST PUSH2 0x100 DUP5 ADD MLOAD PUSH1 0x3 DUP3 ADD SSTORE PUSH2 0x120 DUP5 ADD MLOAD PUSH1 0x4 DUP3 ADD SSTORE ADD SWAP2 PUSH2 0xEB9 PUSH2 0x140 DUP3 ADD MLOAD ISZERO ISZERO DUP5 SWAP1 PUSH1 0xFF DUP1 NOT DUP4 SLOAD AND SWAP2 ISZERO ISZERO AND OR SWAP1 SSTORE JUMP JUMPDEST PUSH1 0x1 DUP1 PUSH1 0xA0 SHL SUB DUP2 AND PUSH1 0x0 MSTORE PUSH1 0x8 DUP5 MSTORE PUSH2 0x1686 DUP4 PUSH1 0x40 PUSH1 0x0 KECCAK256 PUSH2 0x229F JUMP JUMPDEST CALLER PUSH1 0x0 SWAP1 DUP2 MSTORE PUSH1 0xA DUP6 MSTORE PUSH1 0x40 DUP1 DUP3 KECCAK256 PUSH1 0x1 PUSH1 0x1 PUSH1 0xA0 SHL SUB DUP5 AND DUP4 MSTORE DUP7 MSTORE DUP1 DUP3 KECCAK256 DUP1 SLOAD PUSH1 0xFF NOT AND PUSH1 0x1 OR SWAP1 SSTORE PUSH1 0x7 DUP7 MSTORE SWAP1 KECCAK256 DUP1 SLOAD PUSH2 0x16C2 SWAP1 PUSH2 0x2226 JUMP JUMPDEST DUP2 SSTORE PUSH1 0xFF DUP4 MLOAD AND PUSH2 0x16D8 PUSH1 0x1 DUP4 ADD SWAP2 DUP3 SLOAD PUSH2 0x22FC JUMP JUMPDEST SWAP1 SSTORE PUSH1 0xFF DUP6 DUP5 ADD MLOAD AND PUSH2 0x16F0 PUSH1 0x2 DUP4 ADD SWAP2 DUP3 SLOAD PUSH2 0x22FC JUMP JUMPDEST SWAP1 SSTORE PUSH1 0xFF PUSH1 0x40 DUP5 ADD MLOAD AND PUSH2 0x1709 PUSH1 0x3 DUP4 ADD SWAP2 DUP3 SLOAD PUSH2 0x22FC JUMP JUMPDEST SWAP1 SSTORE PUSH1 0xFF PUSH1 0x60 DUP5 ADD MLOAD AND PUSH2 0x1722 PUSH1 0x4 DUP4 ADD SWAP2 DUP3 SLOAD PUSH2 0x22FC JUMP JUMPDEST SWAP1 SSTORE PUSH1 0xFF PUSH1 0x80 DUP5 ADD MLOAD AND PUSH2 0x173B PUSH1 0x5 DUP4 ADD SWAP2 DUP3 SLOAD PUSH2 0x22FC JUMP JUMPDEST SWAP1 SSTORE PUSH1 0x6 TIMESTAMP SWAP2 ADD SSTORE PUSH2 0x1750 PUSH1 0x40 MLOAD DUP1 SWAP4 PUSH2 0x1FEC JUMP JUMPDEST TIMESTAMP PUSH1 0xA0 DUP4 ADD MSTORE PUSH1 0x1 PUSH1 0x1 PUSH1 0xA0 SHL SUB AND SWAP1 CALLER SWAP1 DUP4 SWAP1 PUSH32 0xFAF360560DCE0F4463D8D819C9E0D207F8138CCC759F786734333A195F9DF7BC SWAP1 PUSH1 0xC0 SWAP1 LOG4 PUSH1 0x1 DUP1 SSTORE PUSH1 0x40 MLOAD SWAP1 DUP2 MSTORE RETURN JUMPDEST DUP1 PUSH1 0x1 PUSH1 0xFF PUSH2 0x17A8 PUSH2 0x17BB SWAP5 DUP9 PUSH2 0x224B JUMP JUMPDEST MLOAD AND LT ISZERO DUP1 PUSH2 0x17C0 JUMPI JUMPDEST PUSH2 0x604 SWAP1 PUSH2 0x225C JUMP JUMPDEST PUSH2 0x14B5 JUMP JUMPDEST POP PUSH2 0x604 PUSH1 0xA PUSH1 0xFF PUSH2 0x17D2 DUP5 DUP10 PUSH2 0x224B JUMP JUMPDEST MLOAD AND GT ISZERO SWAP1 POP PUSH2 0x17B2 JUMP JUMPDEST PUSH1 0x40 MLOAD PUSH3 0x461BCD PUSH1 0xE5 SHL DUP2 MSTORE PUSH1 0x20 PUSH1 0x4 DUP3 ADD MSTORE PUSH1 0x1A PUSH1 0x24 DUP3 ADD MSTORE PUSH32 0x416C7265616479207261746564207468697320666163756C7479000000000000 PUSH1 0x44 DUP3 ADD MSTORE PUSH1 0x64 SWAP1 REVERT JUMPDEST PUSH1 0x40 MLOAD PUSH3 0x461BCD PUSH1 0xE5 SHL DUP2 MSTORE PUSH1 0x20 PUSH1 0x4 DUP3 ADD MSTORE PUSH1 0x14 PUSH1 0x24 DUP3 ADD MSTORE PUSH20 0x2737BA1030903330B1BAB63A3C9036B2B6B132B9 PUSH1 0x61 SHL PUSH1 0x44 DUP3 ADD MSTORE PUSH1 0x64 SWAP1 REVERT JUMPDEST PUSH2 0x1877 SWAP2 POP PUSH1 0x20 RETURNDATASIZE PUSH1 0x20 GT PUSH2 0x64C JUMPI PUSH2 0x63E DUP2 DUP4 PUSH2 0x1D32 JUMP JUMPDEST DUP5 PUSH2 0x1482 JUMP JUMPDEST PUSH2 0x1894 SWAP2 POP DUP5 RETURNDATASIZE DUP7 GT PUSH2 0x64C JUMPI PUSH2 0x63E DUP2 DUP4 PUSH2 0x1D32 JUMP JUMPDEST DUP9 PUSH2 0x3F6 JUMP JUMPDEST PUSH1 0x20 DUP1 SWAP2 PUSH2 0x18A7 DUP5 PUSH2 0x1E40 JUMP JUMPDEST DUP2 MSTORE ADD SWAP2 ADD SWAP1 PUSH2 0x13EF JUMP JUMPDEST CALLVALUE PUSH2 0x1A8 JUMPI PUSH1 0x0 CALLDATASIZE PUSH1 0x3 NOT ADD SLT PUSH2 0x1A8 JUMPI PUSH1 0x60 PUSH1 0xB SLOAD PUSH1 0xC SLOAD PUSH1 0xD SLOAD SWAP1 PUSH1 0x40 MLOAD SWAP3 DUP4 MSTORE PUSH1 0x20 DUP4 ADD MSTORE PUSH1 0x40 DUP3 ADD MSTORE RETURN JUMPDEST CALLVALUE PUSH2 0x1A8 JUMPI PUSH1 0x40 CALLDATASIZE PUSH1 0x3 NOT ADD SLT PUSH2 0x1A8 JUMPI PUSH2 0x18FA PUSH2 0x1DFC JUMP JUMPDEST CALLER PUSH1 0x1 PUSH1 0x1 PUSH1 0xA0 SHL SUB DUP3 AND SUB PUSH2 0x1916 JUMPI PUSH2 0x69E SWAP1 PUSH1 0x4 CALLDATALOAD PUSH2 0x2156 JUMP JUMPDEST PUSH1 0x40 MLOAD PUSH4 0x334BD919 PUSH1 0xE1 SHL DUP2 MSTORE PUSH1 0x4 SWAP1 REVERT JUMPDEST CALLVALUE PUSH2 0x1A8 JUMPI PUSH1 0x40 CALLDATASIZE PUSH1 0x3 NOT ADD SLT PUSH2 0x1A8 JUMPI PUSH2 0x69E PUSH1 0x4 CALLDATALOAD PUSH2 0x1947 PUSH2 0x1DFC JUMP JUMPDEST SWAP1 DUP1 PUSH1 0x0 MSTORE PUSH1 0x0 PUSH1 0x20 MSTORE PUSH2 0x1962 PUSH1 0x1 PUSH1 0x40 PUSH1 0x0 KECCAK256 ADD SLOAD PUSH2 0x2017 JUMP JUMPDEST PUSH2 0x20DD JUMP JUMPDEST CALLVALUE PUSH2 0x1A8 JUMPI PUSH1 0x20 CALLDATASIZE PUSH1 0x3 NOT ADD SLT PUSH2 0x1A8 JUMPI PUSH1 0x4 CALLDATALOAD PUSH1 0x0 MSTORE PUSH1 0x0 PUSH1 0x20 MSTORE PUSH1 0x20 PUSH1 0x1 PUSH1 0x40 PUSH1 0x0 KECCAK256 ADD SLOAD PUSH1 0x40 MLOAD SWAP1 DUP2 MSTORE RETURN JUMPDEST CALLVALUE PUSH2 0x1A8 JUMPI PUSH1 0x40 CALLDATASIZE PUSH1 0x3 NOT ADD SLT PUSH2 0x1A8 JUMPI PUSH2 0x19AF PUSH2 0x1DE6 JUMP JUMPDEST PUSH1 0x1 PUSH1 0x1 PUSH1 0xA0 SHL SUB AND PUSH1 0x0 SWAP1 DUP2 MSTORE PUSH1 0x8 PUSH1 0x20 MSTORE PUSH1 0x40 SWAP1 KECCAK256 DUP1 SLOAD PUSH1 0x24 CALLDATALOAD SWAP2 SWAP1 DUP3 LT ISZERO PUSH2 0x1A8 JUMPI PUSH1 0x20 SWAP2 PUSH2 0x130B SWAP2 PUSH2 0x1E12 JUMP JUMPDEST CALLVALUE PUSH2 0x1A8 JUMPI PUSH1 0x20 CALLDATASIZE PUSH1 0x3 NOT ADD SLT PUSH2 0x1A8 JUMPI PUSH1 0x0 PUSH2 0x160 PUSH1 0x40 MLOAD PUSH2 0x1A02 DUP2 PUSH2 0x1CDC JUMP JUMPDEST DUP3 DUP2 MSTORE DUP3 PUSH1 0x20 DUP3 ADD MSTORE DUP3 PUSH1 0x40 DUP3 ADD MSTORE DUP3 PUSH1 0x60 DUP3 ADD MSTORE DUP3 PUSH1 0x80 DUP3 ADD MSTORE DUP3 PUSH1 0xA0 DUP3 ADD MSTORE DUP3 PUSH1 0xC0 DUP3 ADD MSTORE DUP3 PUSH1 0xE0 DUP3 ADD MSTORE DUP3 PUSH2 0x100 DUP3 ADD MSTORE DUP3 PUSH2 0x120 DUP3 ADD MSTORE DUP3 PUSH2 0x140 DUP3 ADD MSTORE ADD MSTORE PUSH1 0x4 CALLDATALOAD PUSH1 0x0 MSTORE PUSH1 0x4 PUSH1 0x20 MSTORE PUSH2 0x180 PUSH1 0x40 PUSH1 0x0 KECCAK256 PUSH2 0x160 PUSH1 0x40 MLOAD PUSH2 0x1A68 DUP2 PUSH2 0x1CDC JUMP JUMPDEST PUSH1 0xFF PUSH1 0x5 DUP5 SLOAD SWAP5 DUP6 DUP5 MSTORE PUSH1 0x1 DUP1 PUSH1 0xA0 SHL SUB PUSH1 0x1 DUP3 ADD SLOAD AND PUSH1 0x20 DUP6 ADD MSTORE DUP3 PUSH1 0x2 DUP3 ADD SLOAD PUSH1 0x1 DUP1 PUSH1 0xA0 SHL SUB DUP2 AND PUSH1 0x40 DUP8 ADD MSTORE DUP2 DUP2 PUSH1 0xA0 SHR AND PUSH1 0x60 DUP8 ADD MSTORE DUP2 DUP2 PUSH1 0xA8 SHR AND PUSH1 0x80 DUP8 ADD MSTORE DUP2 DUP2 PUSH1 0xB0 SHR AND PUSH1 0xA0 DUP8 ADD MSTORE DUP2 DUP2 PUSH1 0xB8 SHR AND PUSH1 0xC0 DUP8 ADD MSTORE PUSH1 0xC0 SHR AND PUSH1 0xE0 DUP6 ADD MSTORE PUSH1 0x3 DUP2 ADD SLOAD PUSH2 0x100 DUP6 ADD MSTORE PUSH1 0x4 DUP2 ADD SLOAD PUSH2 0x120 DUP6 ADD MSTORE ADD SLOAD DUP2 DUP2 AND ISZERO ISZERO PUSH2 0x140 DUP5 ADD MSTORE PUSH1 0x8 SHR AND ISZERO ISZERO DUP3 DUP3 ADD MSTORE PUSH1 0x40 MLOAD SWAP3 DUP4 MSTORE PUSH1 0x1 DUP1 PUSH1 0xA0 SHL SUB PUSH1 0x20 DUP3 ADD MLOAD AND PUSH1 0x20 DUP5 ADD MSTORE PUSH1 0x1 DUP1 PUSH1 0xA0 SHL SUB PUSH1 0x40 DUP3 ADD MLOAD AND PUSH1 0x40 DUP5 ADD MSTORE PUSH1 0xFF PUSH1 0x60 DUP3 ADD MLOAD AND PUSH1 0x60 DUP5 ADD MSTORE PUSH1 0xFF PUSH1 0x80 DUP3 ADD MLOAD AND PUSH1 0x80 DUP5 ADD MSTORE PUSH1 0xFF PUSH1 0xA0 DUP3 ADD MLOAD AND PUSH1 0xA0 DUP5 ADD MSTORE PUSH1 0xFF PUSH1 0xC0 DUP3 ADD MLOAD AND PUSH1 0xC0 DUP5 ADD MSTORE PUSH1 0xFF PUSH1 0xE0 DUP3 ADD MLOAD AND PUSH1 0xE0 DUP5 ADD MSTORE PUSH2 0x100 DUP2 ADD MLOAD PUSH2 0x100 DUP5 ADD MSTORE PUSH2 0x120 DUP2 ADD MLOAD PUSH2 0x120 DUP5 ADD MSTORE PUSH2 0x140 DUP2 ADD MLOAD ISZERO ISZERO PUSH2 0x140 DUP5 ADD MSTORE ADD MLOAD ISZERO ISZERO PUSH2 0x160 DUP3 ADD MSTORE RETURN JUMPDEST CALLVALUE PUSH2 0x1A8 JUMPI PUSH1 0x40 CALLDATASIZE PUSH1 0x3 NOT ADD SLT PUSH2 0x1A8 JUMPI PUSH2 0x1BB0 PUSH2 0x1DE6 JUMP JUMPDEST PUSH2 0x1BB8 PUSH2 0x1DFC JUMP JUMPDEST SWAP1 PUSH1 0x1 DUP1 PUSH1 0xA0 SHL SUB DUP1 SWAP2 AND PUSH1 0x0 MSTORE PUSH1 0xA PUSH1 0x20 MSTORE PUSH1 0x40 PUSH1 0x0 KECCAK256 SWAP2 AND PUSH1 0x0 MSTORE PUSH1 0x20 MSTORE PUSH1 0x20 PUSH1 0xFF PUSH1 0x40 PUSH1 0x0 KECCAK256 SLOAD AND PUSH1 0x40 MLOAD SWAP1 ISZERO ISZERO DUP2 MSTORE RETURN JUMPDEST CALLVALUE PUSH2 0x1A8 JUMPI PUSH1 0x20 DUP1 PUSH1 0x3 NOT CALLDATASIZE ADD SLT PUSH2 0x1A8 JUMPI PUSH1 0x4 CALLDATALOAD PUSH8 0xFFFFFFFFFFFFFFFF DUP2 GT PUSH2 0x1A8 JUMPI DUP2 PUSH2 0x1C23 PUSH2 0x1C36 SWAP3 CALLDATASIZE SWAP1 PUSH1 0x4 ADD PUSH2 0x1D54 JUMP JUMPDEST DUP2 PUSH1 0x40 MLOAD SWAP4 DUP3 DUP6 DUP1 SWAP5 MLOAD SWAP4 DUP5 SWAP3 ADD PUSH2 0x1E5D JUMP JUMPDEST DUP2 ADD PUSH1 0x9 DUP2 MSTORE SUB ADD SWAP1 KECCAK256 SWAP1 PUSH1 0x40 MLOAD SWAP1 DUP2 DUP2 DUP5 SLOAD SWAP2 DUP3 DUP2 MSTORE ADD SWAP4 PUSH1 0x0 MSTORE DUP2 PUSH1 0x0 KECCAK256 SWAP2 PUSH1 0x0 SWAP1 JUMPDEST DUP3 DUP3 LT PUSH2 0x1C72 JUMPI PUSH2 0xC4D DUP6 PUSH2 0xC41 DUP2 DUP10 SUB DUP3 PUSH2 0x1D32 JUMP JUMPDEST DUP4 SLOAD DUP7 MSTORE SWAP5 DUP6 ADD SWAP5 PUSH1 0x1 SWAP4 DUP5 ADD SWAP4 SWAP1 SWAP2 ADD SWAP1 PUSH2 0x1C5B JUMP JUMPDEST CALLVALUE PUSH2 0x1A8 JUMPI PUSH1 0x20 CALLDATASIZE PUSH1 0x3 NOT ADD SLT PUSH2 0x1A8 JUMPI PUSH1 0x4 CALLDATALOAD SWAP1 PUSH4 0xFFFFFFFF PUSH1 0xE0 SHL DUP3 AND DUP1 SWAP3 SUB PUSH2 0x1A8 JUMPI PUSH1 0x20 SWAP2 PUSH4 0x7965DB0B PUSH1 0xE0 SHL DUP2 EQ SWAP1 DUP2 ISZERO PUSH2 0x1CCB JUMPI JUMPDEST POP ISZERO ISZERO DUP2 MSTORE RETURN JUMPDEST PUSH4 0x1FFC9A7 PUSH1 0xE0 SHL EQ SWAP1 POP DUP4 PUSH2 0x1CC4 JUMP JUMPDEST PUSH2 0x180 DUP2 ADD SWAP1 DUP2 LT PUSH8 0xFFFFFFFFFFFFFFFF DUP3 GT OR PUSH2 0x1012 JUMPI PUSH1 0x40 MSTORE JUMP JUMPDEST PUSH2 0x140 DUP2 ADD SWAP1 DUP2 LT PUSH8 0xFFFFFFFFFFFFFFFF DUP3 GT OR PUSH2 0x1012 JUMPI PUSH1 0x40 MSTORE JUMP JUMPDEST PUSH1 0xA0 DUP2 ADD SWAP1 DUP2 LT PUSH8 0xFFFFFFFFFFFFFFFF DUP3 GT OR PUSH2 0x1012 JUMPI PUSH1 0x40 MSTORE JUMP JUMPDEST SWAP1 PUSH1 0x1F DUP1 NOT SWAP2 ADD AND DUP2 ADD SWAP1 DUP2 LT PUSH8 0xFFFFFFFFFFFFFFFF DUP3 GT OR PUSH2 0x1012 JUMPI PUSH1 0x40 MSTORE JUMP JUMPDEST DUP2 PUSH1 0x1F DUP3 ADD SLT ISZERO PUSH2 0x1A8 JUMPI DUP1 CALLDATALOAD SWAP1 PUSH8 0xFFFFFFFFFFFFFFFF DUP3 GT PUSH2 0x1012 JUMPI PUSH1 0x40 MLOAD SWAP3 PUSH2 0x1D89 PUSH1 0x1F DUP5 ADD PUSH1 0x1F NOT AND PUSH1 0x20 ADD DUP6 PUSH2 0x1D32 JUMP JUMPDEST DUP3 DUP5 MSTORE PUSH1 0x20 DUP4 DUP4 ADD ADD GT PUSH2 0x1A8 JUMPI DUP2 PUSH1 0x0 SWAP3 PUSH1 0x20 DUP1 SWAP4 ADD DUP4 DUP7 ADD CALLDATACOPY DUP4 ADD ADD MSTORE SWAP1 JUMP JUMPDEST PUSH1 0x20 SWAP1 DUP2 PUSH1 0x40 DUP2 DUP4 ADD SWAP3 DUP3 DUP2 MSTORE DUP6 MLOAD DUP1 SWAP5 MSTORE ADD SWAP4 ADD SWAP2 PUSH1 0x0 JUMPDEST DUP3 DUP2 LT PUSH2 0x1DD2 JUMPI POP POP POP POP SWAP1 JUMP JUMPDEST DUP4 MLOAD DUP6 MSTORE SWAP4 DUP2 ADD SWAP4 SWAP3 DUP2 ADD SWAP3 PUSH1 0x1 ADD PUSH2 0x1DC4 JUMP JUMPDEST PUSH1 0x4 CALLDATALOAD SWAP1 PUSH1 0x1 PUSH1 0x1 PUSH1 0xA0 SHL SUB DUP3 AND DUP3 SUB PUSH2 0x1A8 JUMPI JUMP JUMPDEST PUSH1 0x24 CALLDATALOAD SWAP1 PUSH1 0x1 PUSH1 0x1 PUSH1 0xA0 SHL SUB DUP3 AND DUP3 SUB PUSH2 0x1A8 JUMPI JUMP JUMPDEST DUP1 SLOAD DUP3 LT ISZERO PUSH2 0x1E2A JUMPI PUSH1 0x0 MSTORE PUSH1 0x20 PUSH1 0x0 KECCAK256 ADD SWAP1 PUSH1 0x0 SWAP1 JUMP JUMPDEST PUSH4 0x4E487B71 PUSH1 0xE0 SHL PUSH1 0x0 MSTORE PUSH1 0x32 PUSH1 0x4 MSTORE PUSH1 0x24 PUSH1 0x0 REVERT JUMPDEST CALLDATALOAD SWAP1 PUSH1 0xFF DUP3 AND DUP3 SUB PUSH2 0x1A8 JUMPI JUMP JUMPDEST PUSH1 0xE4 CALLDATALOAD SWAP1 DUP2 ISZERO ISZERO DUP3 SUB PUSH2 0x1A8 JUMPI JUMP JUMPDEST PUSH1 0x0 JUMPDEST DUP4 DUP2 LT PUSH2 0x1E70 JUMPI POP POP PUSH1 0x0 SWAP2 ADD MSTORE JUMP JUMPDEST DUP2 DUP2 ADD MLOAD DUP4 DUP3 ADD MSTORE PUSH1 0x20 ADD PUSH2 0x1E60 JUMP JUMPDEST SWAP1 PUSH1 0x6 DUP3 LT ISZERO PUSH2 0x5C7 JUMPI MSTORE JUMP JUMPDEST DUP1 PUSH1 0x43 SLT ISZERO PUSH2 0x1A8 JUMPI PUSH1 0x40 MLOAD SWAP1 PUSH1 0x80 DUP3 ADD DUP3 DUP2 LT PUSH8 0xFFFFFFFFFFFFFFFF DUP3 GT OR PUSH2 0x1012 JUMPI PUSH1 0x40 MSTORE DUP2 PUSH1 0xA4 SWAP2 DUP3 GT PUSH2 0x1A8 JUMPI PUSH1 0x24 SWAP1 JUMPDEST DUP3 DUP3 LT PUSH2 0x1ECF JUMPI POP POP POP SWAP1 JUMP JUMPDEST PUSH1 0x20 DUP1 SWAP2 PUSH2 0x1EDC DUP5 PUSH2 0x1E40 JUMP JUMPDEST DUP2 MSTORE ADD SWAP2 ADD SWAP1 PUSH2 0x1EC2 JUMP JUMPDEST SWAP1 PUSH1 0x1 DUP3 DUP2 SHR SWAP3 AND DUP1 ISZERO PUSH2 0x1F17 JUMPI JUMPDEST PUSH1 0x20 DUP4 LT EQ PUSH2 0x1F01 JUMPI JUMP JUMPDEST PUSH4 0x4E487B71 PUSH1 0xE0 SHL PUSH1 0x0 MSTORE PUSH1 0x22 PUSH1 0x4 MSTORE PUSH1 0x24 PUSH1 0x0 REVERT JUMPDEST SWAP2 PUSH1 0x7F AND SWAP2 PUSH2 0x1EF6 JUMP JUMPDEST SWAP1 PUSH1 0x40 MLOAD SWAP2 DUP3 PUSH1 0x0 DUP3 SLOAD SWAP3 PUSH2 0x1F35 DUP5 PUSH2 0x1EE7 JUMP JUMPDEST SWAP1 DUP2 DUP5 MSTORE PUSH1 0x1 SWAP5 DUP6 DUP2 AND SWAP1 DUP2 PUSH1 0x0 EQ PUSH2 0x1FA4 JUMPI POP PUSH1 0x1 EQ PUSH2 0x1F61 JUMPI JUMPDEST POP POP PUSH2 0x1F5F SWAP3 POP SUB DUP4 PUSH2 0x1D32 JUMP JUMPDEST JUMP JUMPDEST SWAP1 SWAP4 SWAP2 POP PUSH1 0x0 MSTORE PUSH1 0x20 SWAP1 DUP2 PUSH1 0x0 KECCAK256 SWAP4 PUSH1 0x0 SWAP2 JUMPDEST DUP2 DUP4 LT PUSH2 0x1F8C JUMPI POP POP PUSH2 0x1F5F SWAP4 POP DUP3 ADD ADD CODESIZE DUP1 PUSH2 0x1F51 JUMP JUMPDEST DUP6 SLOAD DUP9 DUP5 ADD DUP6 ADD MSTORE SWAP5 DUP6 ADD SWAP5 DUP8 SWAP5 POP SWAP2 DUP4 ADD SWAP2 PUSH2 0x1F74 JUMP JUMPDEST SWAP2 POP POP PUSH2 0x1F5F SWAP5 POP PUSH1 0x20 SWAP3 POP PUSH1 0xFF NOT AND DUP3 DUP5 ADD MSTORE ISZERO ISZERO PUSH1 0x5 SHL DUP3 ADD ADD CODESIZE DUP1 PUSH2 0x1F51 JUMP JUMPDEST SWAP1 PUSH1 0x20 SWAP2 PUSH2 0x1FE0 DUP2 MLOAD DUP1 SWAP3 DUP2 DUP6 MSTORE DUP6 DUP1 DUP7 ADD SWAP2 ADD PUSH2 0x1E5D JUMP JUMPDEST PUSH1 0x1F ADD PUSH1 0x1F NOT AND ADD ADD SWAP1 JUMP JUMPDEST PUSH1 0x0 SWAP2 JUMPDEST PUSH1 0x5 DUP4 LT PUSH2 0x1FFD JUMPI POP POP POP JUMP JUMPDEST PUSH1 0x1 SWAP1 PUSH1 0xFF DUP4 MLOAD AND DUP2 MSTORE PUSH1 0x20 DUP1 SWAP2 ADD SWAP3 ADD SWAP3 ADD SWAP2 SWAP1 PUSH2 0x1FF0 JUMP JUMPDEST DUP1 PUSH1 0x0 MSTORE PUSH1 0x0 PUSH1 0x20 MSTORE PUSH1 0x40 PUSH1 0x0 KECCAK256 CALLER PUSH1 0x0 MSTORE PUSH1 0x20 MSTORE PUSH1 0xFF PUSH1 0x40 PUSH1 0x0 KECCAK256 SLOAD AND ISZERO PUSH2 0xA41 JUMPI POP JUMP JUMPDEST PUSH1 0x1 PUSH1 0x1 PUSH1 0xA0 SHL SUB AND PUSH1 0x0 DUP2 DUP2 MSTORE PUSH32 0xF179AAFCC4FF8137FCA1EF3B9EC4D165F87016BA123E7973FBA770BC55E240E3 PUSH1 0x20 MSTORE PUSH1 0x40 DUP2 KECCAK256 SLOAD SWAP1 SWAP2 SWAP1 PUSH1 0x0 DUP1 MLOAD PUSH1 0x20 PUSH2 0x24F2 DUP4 CODECOPY DUP2 MLOAD SWAP2 MSTORE SWAP1 PUSH1 0xFF AND PUSH2 0x20D8 JUMPI DUP1 DUP4 MSTORE DUP3 PUSH1 0x20 MSTORE PUSH1 0x40 DUP4 KECCAK256 DUP3 DUP5 MSTORE PUSH1 0x20 MSTORE PUSH1 0x40 DUP4 KECCAK256 PUSH1 0x1 PUSH1 0xFF NOT DUP3 SLOAD AND OR SWAP1 SSTORE PUSH32 0x2F8788117E7EFF1D82E926EC794901D17C78024A50270940304540A733656F0D CALLER SWAP4 DUP1 LOG4 PUSH1 0x1 SWAP1 JUMP JUMPDEST POP POP SWAP1 JUMP JUMPDEST SWAP1 PUSH1 0x0 SWAP2 DUP1 DUP4 MSTORE DUP3 PUSH1 0x20 MSTORE PUSH1 0x40 DUP4 KECCAK256 SWAP2 PUSH1 0x1 DUP1 PUSH1 0xA0 SHL SUB AND SWAP2 DUP3 DUP5 MSTORE PUSH1 0x20 MSTORE PUSH1 0xFF PUSH1 0x40 DUP5 KECCAK256 SLOAD AND ISZERO PUSH1 0x0 EQ PUSH2 0x20D8 JUMPI DUP1 DUP4 MSTORE DUP3 PUSH1 0x20 MSTORE PUSH1 0x40 DUP4 KECCAK256 DUP3 DUP5 MSTORE PUSH1 0x20 MSTORE PUSH1 0x40 DUP4 KECCAK256 PUSH1 0x1 PUSH1 0xFF NOT DUP3 SLOAD AND OR SWAP1 SSTORE PUSH32 0x2F8788117E7EFF1D82E926EC794901D17C78024A50270940304540A733656F0D CALLER SWAP4 DUP1 LOG4 PUSH1 0x1 SWAP1 JUMP JUMPDEST SWAP1 PUSH1 0x0 SWAP2 DUP1 DUP4 MSTORE DUP3 PUSH1 0x20 MSTORE PUSH1 0x40 DUP4 KECCAK256 SWAP2 PUSH1 0x1 DUP1 PUSH1 0xA0 SHL SUB AND SWAP2 DUP3 DUP5 MSTORE PUSH1 0x20 MSTORE PUSH1 0xFF PUSH1 0x40 DUP5 KECCAK256 SLOAD AND PUSH1 0x0 EQ PUSH2 0x20D8 JUMPI DUP1 DUP4 MSTORE DUP3 PUSH1 0x20 MSTORE PUSH1 0x40 DUP4 KECCAK256 DUP3 DUP5 MSTORE PUSH1 0x20 MSTORE PUSH1 0x40 DUP4 KECCAK256 PUSH1 0xFF NOT DUP2 SLOAD AND SWAP1 SSTORE PUSH32 0xF6391F5C32D9C69D2A47EA670B442974B53935D1EDC7FD64EB21E047A839171B CALLER SWAP4 DUP1 LOG4 PUSH1 0x1 SWAP1 JUMP JUMPDEST SWAP1 DUP2 PUSH1 0x20 SWAP2 SUB SLT PUSH2 0x1A8 JUMPI MLOAD DUP1 ISZERO ISZERO DUP2 SUB PUSH2 0x1A8 JUMPI SWAP1 JUMP JUMPDEST ISZERO PUSH2 0x21EA JUMPI JUMP JUMPDEST PUSH1 0x40 MLOAD PUSH3 0x461BCD PUSH1 0xE5 SHL DUP2 MSTORE PUSH1 0x20 PUSH1 0x4 DUP3 ADD MSTORE PUSH1 0x14 PUSH1 0x24 DUP3 ADD MSTORE PUSH20 0x139BDD081D995C9A599A5959081CDD1D59195B9D PUSH1 0x62 SHL PUSH1 0x44 DUP3 ADD MSTORE PUSH1 0x64 SWAP1 REVERT JUMPDEST PUSH1 0x0 NOT DUP2 EQ PUSH2 0x2235 JUMPI PUSH1 0x1 ADD SWAP1 JUMP JUMPDEST PUSH4 0x4E487B71 PUSH1 0xE0 SHL PUSH1 0x0 MSTORE PUSH1 0x11 PUSH1 0x4 MSTORE PUSH1 0x24 PUSH1 0x0 REVERT JUMPDEST SWAP1 PUSH1 0x5 DUP2 LT ISZERO PUSH2 0x1E2A JUMPI PUSH1 0x5 SHL ADD SWAP1 JUMP JUMPDEST ISZERO PUSH2 0x2263 JUMPI JUMP JUMPDEST PUSH1 0x40 MLOAD PUSH3 0x461BCD PUSH1 0xE5 SHL DUP2 MSTORE PUSH1 0x20 PUSH1 0x4 DUP3 ADD MSTORE PUSH1 0x14 PUSH1 0x24 DUP3 ADD MSTORE PUSH20 0x496E76616C696420726174696E672076616C7565 PUSH1 0x60 SHL PUSH1 0x44 DUP3 ADD MSTORE PUSH1 0x64 SWAP1 REVERT JUMPDEST DUP1 SLOAD PUSH9 0x10000000000000000 DUP2 LT ISZERO PUSH2 0x1012 JUMPI PUSH2 0x22C1 SWAP2 PUSH1 0x1 DUP3 ADD DUP2 SSTORE PUSH2 0x1E12 JUMP JUMPDEST DUP2 SWAP3 SWAP2 SLOAD SWAP1 PUSH1 0x3 SHL SWAP2 DUP3 SHL SWAP2 PUSH1 0x0 NOT SWAP1 SHL NOT AND OR SWAP1 SSTORE JUMP JUMPDEST PUSH1 0x2 PUSH1 0x1 SLOAD EQ PUSH2 0x22EA JUMPI PUSH1 0x2 PUSH1 0x1 SSTORE JUMP JUMPDEST PUSH1 0x40 MLOAD PUSH4 0x3EE5AEB5 PUSH1 0xE0 SHL DUP2 MSTORE PUSH1 0x4 SWAP1 REVERT JUMPDEST SWAP2 SWAP1 DUP3 ADD DUP1 SWAP3 GT PUSH2 0x2235 JUMPI JUMP JUMPDEST SWAP1 PUSH1 0x4 DUP2 LT ISZERO PUSH2 0x1E2A JUMPI PUSH1 0x5 SHL ADD SWAP1 JUMP JUMPDEST PUSH1 0x6 DUP3 LT ISZERO PUSH2 0x5C7 JUMPI MSTORE JUMP JUMPDEST DUP2 ISZERO PUSH2 0x2330 JUMPI DIV SWAP1 JUMP JUMPDEST PUSH4 0x4E487B71 PUSH1 0xE0 SHL PUSH1 0x0 MSTORE PUSH1 0x12 PUSH1 0x4 MSTORE PUSH1 0x24 PUSH1 0x0 REVERT JUMPDEST PUSH1 0x40 DUP1 MLOAD PUSH2 0x2353 DUP2 PUSH2 0x1D16 JUMP JUMPDEST PUSH1 0xA0 CALLDATASIZE DUP3 CALLDATACOPY PUSH1 0x1 PUSH1 0x1 PUSH1 0xA0 SHL SUB SWAP1 SWAP3 AND PUSH1 0x0 SWAP1 DUP2 MSTORE PUSH1 0x7 PUSH1 0x20 MSTORE DUP2 DUP2 KECCAK256 DUP3 MLOAD SWAP3 SWAP1 SWAP2 PUSH8 0xFFFFFFFFFFFFFFFF SWAP2 SWAP1 PUSH1 0xE0 DUP6 ADD DUP4 DUP2 GT DUP7 DUP3 LT OR PUSH2 0x249E JUMPI DUP3 MSTORE DUP4 SLOAD SWAP3 DUP4 DUP7 MSTORE PUSH1 0x1 DUP6 ADD SLOAD PUSH1 0x20 DUP8 ADD SWAP1 DUP2 MSTORE PUSH1 0x2 DUP7 ADD SLOAD SWAP2 DUP5 DUP9 ADD SWAP3 DUP4 MSTORE PUSH1 0x3 DUP8 ADD SLOAD SWAP4 PUSH1 0x60 DUP10 ADD SWAP5 DUP6 MSTORE PUSH1 0x4 DUP9 ADD SLOAD SWAP7 PUSH1 0x80 DUP11 ADD SWAP8 DUP9 MSTORE PUSH1 0x6 PUSH1 0x5 DUP11 ADD SLOAD SWAP10 PUSH1 0xA0 DUP13 ADD SWAP11 DUP12 MSTORE ADD SLOAD PUSH1 0xC0 DUP12 ADD MSTORE ISZERO PUSH2 0x244F JUMPI POP POP SWAP4 PUSH2 0x2446 SWAP6 SWAP4 PUSH1 0xFF PUSH2 0x2429 DUP2 SWAP10 SWAP8 SWAP6 DUP3 PUSH2 0x241A PUSH2 0x2437 SWAP8 DUP15 DUP4 PUSH2 0x240E DUP15 DUP3 SWAP14 MLOAD SWAP1 MLOAD SWAP1 PUSH2 0x2326 JUMP JUMPDEST AND SWAP1 MSTORE MLOAD DUP12 MLOAD SWAP1 PUSH2 0x2326 JUMP JUMPDEST AND PUSH1 0x20 DUP14 ADD MSTORE MLOAD DUP9 MLOAD SWAP1 PUSH2 0x2326 JUMP JUMPDEST AND SWAP1 DUP10 ADD MSTORE MLOAD DUP5 MLOAD SWAP1 PUSH2 0x2326 JUMP JUMPDEST AND PUSH1 0x60 DUP7 ADD MSTORE MLOAD SWAP1 MLOAD SWAP1 PUSH2 0x2326 JUMP JUMPDEST AND PUSH1 0x80 DUP3 ADD MSTORE SWAP1 JUMP JUMPDEST DUP6 MLOAD SWAP10 POP SWAP8 POP SWAP4 SWAP6 POP POP PUSH1 0xA0 DUP8 ADD SWAP4 POP POP POP DUP2 GT DUP5 DUP3 LT OR PUSH2 0x248A JUMPI SWAP1 DUP3 SWAP2 DUP2 MSTORE DUP2 DUP5 MSTORE DUP2 PUSH1 0x20 DUP6 ADD MSTORE DUP4 ADD MSTORE DUP1 PUSH1 0x60 DUP4 ADD MSTORE PUSH1 0x80 DUP3 ADD MSTORE SWAP1 JUMP JUMPDEST PUSH4 0x4E487B71 PUSH1 0xE0 SHL DUP4 MSTORE PUSH1 0x41 PUSH1 0x4 MSTORE PUSH1 0x24 DUP4 REVERT JUMPDEST PUSH4 0x4E487B71 PUSH1 0xE0 SHL DUP3 MSTORE PUSH1 0x41 PUSH1 0x4 MSTORE PUSH1 0x24 DUP3 REVERT JUMPDEST ISZERO PUSH2 0x24B9 JUMPI JUMP JUMPDEST PUSH1 0x40 MLOAD PUSH3 0x461BCD PUSH1 0xE5 SHL DUP2 MSTORE PUSH1 0x20 PUSH1 0x4 DUP3 ADD MSTORE PUSH1 0x10 PUSH1 0x24 DUP3 ADD MSTORE PUSH16 0x14985D1A5B99C81B9BDD08199BDD5B99 PUSH1 0x82 SHL PUSH1 0x44 DUP3 ADD MSTORE PUSH1 0x64 SWAP1 REVERT INVALID PUSH18 0xF3D55856E4058ED06EE057D79ADA615F65CD CREATE2 0xF9 0xEE DUP9 XOR SHL SWAP2 TIMESTAMP 0x25 ADDMOD DUP16 DUP4 0x4F LOG2 PUSH5 0x6970667358 0x22 SLT KECCAK256 SGT 0xBB PUSH19 0x1D856FE076C96503ED177719AD27886D18FC63 PUSH19 0x915AB23E57D35DEB4164736F6C634300081400 CALLER 0x2F DUP8 DUP9 GT PUSH31 0x7EFF1D82E926EC794901D17C78024A50270940304540A733656F0D00000000 "},"methodIdentifiers":{"ADMIN_ROLE()":"75b238fc","DEFAULT_ADMIN_ROLE()":"a217fddf","MODERATOR_ROLE()":"797669c9","aiModeration()":"9cd6fb3d","facultyAggregates(address)":"5da7b93e","facultyRatingCounter()":"a6d0f16b","facultyRatingIds(address,uint256)":"1b7d2b5e","facultyRatings(uint256)":"aca5b376","getAverageRating(address)":"c8b67522","getFacultyRating(uint256)":"1b679a37","getInfrastructureRating(uint256)":"e70ceb17","getLocationRatings(string)":"05d2e834","getRatingHistory(address)":"8797bf09","getRoleAdmin(bytes32)":"248a9ca3","getServiceRating(uint256)":"76e82bd2","getStatistics()":"372d6b27","grantModeratorRole(address)":"aa232dc2","grantRole(bytes32,address)":"2f2ff15d","hasRatedFaculty(address,address)":"162c3f84","hasRole(bytes32,address)":"91d14854","infrastructureRatingCounter()":"56b1ac78","infrastructureRatings(uint256)":"c6327d4e","locationRatingIds(string,uint256)":"64c3e366","renounceRole(bytes32,address)":"36568abe","revokeRole(bytes32,address)":"d547741f","serviceRatingCounter()":"f9040ab5","serviceRatings(uint256)":"9661129f","studentRegistry()":"92c16fb5","submitFacultyRating(address,uint8[5],bytes32,bool)":"5346e3ac","submitInfrastructureRating(string,uint8[4],bytes32,bytes32,bool)":"810bb5d6","submitServiceRating(uint8,uint8[4],bytes32,bool)":"e62dfe90","supportsInterface(bytes4)":"01ffc9a7","verifyRating(uint256,uint8)":"be4665e7"}}}}}