{"contracts/core/PointEconomyContract.sol":{"PointEconomyContract":{"abi":[{"inputs":[{"internalType":"address","name":"_studentRegistry","type":"address"}],"stateMutability":"nonpayable","type":"constructor"},{"inputs":[],"name":"AccessControlBadConfirmation","type":"error"},{"inputs":[{"internalType":"address","name":"account","type":"address"},{"internalType":"bytes32","name":"neededRole","type":"bytes32"}],"name":"AccessControlUnauthorizedAccount","type":"error"},{"inputs":[],"name":"ReentrancyGuardReentrantCall","type":"error"},{"anonymous":false,"inputs":[{"indexed":false,"internalType":"enum PointEconomyContract.ActivityType","name":"activity","type":"uint8"},{"indexed":false,"internalType":"uint256","name":"newBasePoints","type":"uint256"}],"name":"BasePointsUpdated","type":"event"},{"anonymous":false,"inputs":[{"indexed":true,"internalType":"address","name":"user","type":"address"},{"indexed":false,"internalType":"enum PointEconomyContract.ActivityType","name":"activity","type":"uint8"},{"indexed":false,"internalType":"uint256","name":"basePoints","type":"uint256"},{"indexed":false,"internalType":"uint256","name":"qualityBonus","type":"uint256"},{"indexed":false,"internalType":"uint256","name":"totalPoints","type":"uint256"},{"indexed":false,"internalType":"uint256","name":"timestamp","type":"uint256"}],"name":"PointsAwarded","type":"event"},{"anonymous":false,"inputs":[{"indexed":true,"internalType":"address","name":"user","type":"address"},{"indexed":false,"internalType":"uint256","name":"points","type":"uint256"},{"indexed":false,"internalType":"uint256","name":"shmAmount","type":"uint256"}],"name":"PointsRedeemed","type":"event"},{"anonymous":false,"inputs":[{"indexed":true,"internalType":"address","name":"from","type":"address"},{"indexed":true,"internalType":"address","name":"to","type":"address"},{"indexed":false,"internalType":"uint256","name":"points","type":"uint256"}],"name":"PointsTransferred","type":"event"},{"anonymous":false,"inputs":[{"indexed":true,"internalType":"bytes32","name":"role","type":"bytes32"},{"indexed":true,"internalType":"bytes32","name":"previousAdminRole","type":"bytes32"},{"indexed":true,"internalType":"bytes32","name":"newAdminRole","type":"bytes32"}],"name":"RoleAdminChanged","type":"event"},{"anonymous":false,"inputs":[{"indexed":true,"internalType":"bytes32","name":"role","type":"bytes32"},{"indexed":true,"internalType":"address","name":"account","type":"address"},{"indexed":true,"internalType":"address","name":"sender","type":"address"}],"name":"RoleGranted","type":"event"},{"anonymous":false,"inputs":[{"indexed":true,"internalType":"bytes32","name":"role","type":"bytes32"},{"indexed":true,"internalType":"address","name":"account","type":"address"},{"indexed":true,"internalType":"address","name":"sender","type":"address"}],"name":"RoleRevoked","type":"event"},{"anonymous":false,"inputs":[{"indexed":true,"internalType":"address","name":"user","type":"address"},{"indexed":false,"internalType":"uint256","name":"consecutiveDays","type":"uint256"},{"indexed":false,"internalType":"uint256","name":"bonusPoints","type":"uint256"}],"name":"StreakBonusAwarded","type":"event"},{"inputs":[],"name":"ADMIN_ROLE","outputs":[{"internalType":"bytes32","name":"","type":"bytes32"}],"stateMutability":"view","type":"function"},{"inputs":[],"name":"DEFAULT_ADMIN_ROLE","outputs":[{"internalType":"bytes32","name":"","type":"bytes32"}],"stateMutability":"view","type":"function"},{"inputs":[],"name":"POINTS_TO_INR_RATIO","outputs":[{"internalType":"uint256","name":"","type":"uint256"}],"stateMutability":"view","type":"function"},{"inputs":[],"name":"POINTS_TO_SHM_RATIO","outputs":[{"internalType":"uint256","name":"","type":"uint256"}],"stateMutability":"view","type":"function"},{"inputs":[],"name":"REWARD_MANAGER_ROLE","outputs":[{"internalType":"bytes32","name":"","type":"bytes32"}],"stateMutability":"view","type":"function"},{"inputs":[{"internalType":"address","name":"user","type":"address"},{"internalType":"enum PointEconomyContract.ActivityType","name":"activity","type":"uint8"},{"internalType":"uint8","name":"aiQualityScore","type":"uint8"},{"internalType":"string","name":"description","type":"string"}],"name":"awardPoints","outputs":[],"stateMutability":"nonpayable","type":"function"},{"inputs":[{"internalType":"enum PointEconomyContract.ActivityType","name":"","type":"uint8"}],"name":"basePoints","outputs":[{"internalType":"uint256","name":"","type":"uint256"}],"stateMutability":"view","type":"function"},{"inputs":[{"internalType":"enum PointEconomyContract.ActivityType","name":"activity","type":"uint8"},{"internalType":"uint8","name":"aiQualityScore","type":"uint8"}],"name":"calculateQualityBonus","outputs":[{"internalType":"uint256","name":"","type":"uint256"}],"stateMutability":"view","type":"function"},{"inputs":[{"internalType":"address","name":"","type":"address"},{"internalType":"uint256","name":"","type":"uint256"}],"name":"dailyActivity","outputs":[{"internalType":"bool","name":"","type":"bool"}],"stateMutability":"view","type":"function"},{"inputs":[],"name":"fundContract","outputs":[],"stateMutability":"payable","type":"function"},{"inputs":[],"name":"getContractBalance","outputs":[{"internalType":"uint256","name":"","type":"uint256"}],"stateMutability":"view","type":"function"},{"inputs":[],"name":"getGlobalStats","outputs":[{"internalType":"uint256","name":"issued","type":"uint256"},{"internalType":"uint256","name":"redeemed","type":"uint256"},{"internalType":"uint256","name":"transactions","type":"uint256"}],"stateMutability":"view","type":"function"},{"inputs":[{"internalType":"address","name":"user","type":"address"}],"name":"getPointBalance","outputs":[{"internalType":"uint256","name":"","type":"uint256"}],"stateMutability":"view","type":"function"},{"inputs":[{"internalType":"bytes32","name":"role","type":"bytes32"}],"name":"getRoleAdmin","outputs":[{"internalType":"bytes32","name":"","type":"bytes32"}],"stateMutability":"view","type":"function"},{"inputs":[{"internalType":"address","name":"user","type":"address"}],"name":"getUserPointsData","outputs":[{"components":[{"internalType":"uint256","name":"totalPoints","type":"uint256"},{"internalType":"uint256","name":"lifetimePoints","type":"uint256"},{"internalType":"uint256","name":"redeemedPoints","type":"uint256"},{"internalType":"uint256","name":"lastActivityTime","type":"uint256"},{"internalType":"uint256","name":"consecutiveDays","type":"uint256"},{"internalType":"uint256","name":"transactionCount","type":"uint256"}],"internalType":"struct PointEconomyContract.UserPointsData","name":"","type":"tuple"}],"stateMutability":"view","type":"function"},{"inputs":[{"internalType":"address","name":"user","type":"address"}],"name":"getUserTransactions","outputs":[{"components":[{"internalType":"address","name":"user","type":"address"},{"internalType":"enum PointEconomyContract.ActivityType","name":"activity","type":"uint8"},{"internalType":"uint256","name":"basePoints","type":"uint256"},{"internalType":"uint256","name":"qualityBonus","type":"uint256"},{"internalType":"uint256","name":"totalPoints","type":"uint256"},{"internalType":"uint256","name":"timestamp","type":"uint256"},{"internalType":"string","name":"description","type":"string"}],"internalType":"struct PointEconomyContract.PointTransaction[]","name":"","type":"tuple[]"}],"stateMutability":"view","type":"function"},{"inputs":[{"internalType":"address","name":"manager","type":"address"}],"name":"grantRewardManagerRole","outputs":[],"stateMutability":"nonpayable","type":"function"},{"inputs":[{"internalType":"bytes32","name":"role","type":"bytes32"},{"internalType":"address","name":"account","type":"address"}],"name":"grantRole","outputs":[],"stateMutability":"nonpayable","type":"function"},{"inputs":[{"internalType":"bytes32","name":"role","type":"bytes32"},{"internalType":"address","name":"account","type":"address"}],"name":"hasRole","outputs":[{"internalType":"bool","name":"","type":"bool"}],"stateMutability":"view","type":"function"},{"inputs":[{"internalType":"enum PointEconomyContract.ActivityType","name":"","type":"uint8"}],"name":"maxQualityBonus","outputs":[{"internalType":"uint256","name":"","type":"uint256"}],"stateMutability":"view","type":"function"},{"inputs":[{"internalType":"uint256","name":"points","type":"uint256"}],"name":"pointsToINR","outputs":[{"internalType":"uint256","name":"","type":"uint256"}],"stateMutability":"pure","type":"function"},{"inputs":[{"internalType":"uint256","name":"points","type":"uint256"}],"name":"pointsToSHM","outputs":[{"internalType":"uint256","name":"","type":"uint256"}],"stateMutability":"pure","type":"function"},{"inputs":[{"internalType":"uint256","name":"points","type":"uint256"}],"name":"redeemPoints","outputs":[],"stateMutability":"nonpayable","type":"function"},{"inputs":[{"internalType":"bytes32","name":"role","type":"bytes32"},{"internalType":"address","name":"callerConfirmation","type":"address"}],"name":"renounceRole","outputs":[],"stateMutability":"nonpayable","type":"function"},{"inputs":[{"internalType":"bytes32","name":"role","type":"bytes32"},{"internalType":"address","name":"account","type":"address"}],"name":"revokeRole","outputs":[],"stateMutability":"nonpayable","type":"function"},{"inputs":[],"name":"studentRegistry","outputs":[{"internalType":"contract StudentRegistryContract","name":"","type":"address"}],"stateMutability":"view","type":"function"},{"inputs":[{"internalType":"bytes4","name":"interfaceId","type":"bytes4"}],"name":"supportsInterface","outputs":[{"internalType":"bool","name":"","type":"bool"}],"stateMutability":"view","type":"function"},{"inputs":[],"name":"totalPointsIssued","outputs":[{"internalType":"uint256","name":"","type":"uint256"}],"stateMutability":"view","type":"function"},{"inputs":[],"name":"totalPointsRedeemed","outputs":[{"internalType":"uint256","name":"","type":"uint256"}],"stateMutability":"view","type":"function"},{"inputs":[],"name":"totalTransactions","outputs":[{"internalType":"uint256","name":"","type":"uint256"}],"stateMutability":"view","type":"function"},{"inputs":[{"internalType":"address","name":"to","type":"address"},{"internalType":"uint256","name":"points","type":"uint256"}],"name":"transferPoints","outputs":[],"stateMutability":"nonpayable","type":"function"},{"inputs":[{"internalType":"enum PointEconomyContract.ActivityType","name":"activity","type":"uint8"},{"internalType":"uint256","name":"newBasePoints","type":"uint256"}],"name":"updateBasePoints","outputs":[],"stateMutability":"nonpayable","type":"function"},{"inputs":[{"internalType":"enum PointEconomyContract.ActivityType","name":"activity","type":"uint8"},{"internalType":"uint256","name":"newMaxBonus","type":"uint256"}],"name":"updateMaxQualityBonus","outputs":[],"stateMutability":"nonpayable","type":"function"},{"inputs":[{"internalType":"address","name":"","type":"address"}],"name":"userPoints","outputs":[{"internalType":"uint256","name":"totalPoints","type":"uint256"},{"internalType":"uint256","name":"lifetimePoints","type":"uint256"},{"internalType":"uint256","name":"redeemedPoints","type":"uint256"},{"internalType":"uint256","name":"lastActivityTime","type":"uint256"},{"internalType":"uint256","name":"consecutiveDays","type":"uint256"},{"internalType":"uint256","name":"transactionCount","type":"uint256"}],"stateMutability":"view","type":"function"},{"inputs":[{"internalType":"address","name":"","type":"address"},{"internalType":"uint256","name":"","type":"uint256"}],"name":"userTransactions","outputs":[{"internalType":"address","name":"user","type":"address"},{"internalType":"enum PointEconomyContract.ActivityType","name":"activity","type":"uint8"},{"internalType":"uint256","name":"basePoints","type":"uint256"},{"internalType":"uint256","name":"qualityBonus","type":"uint256"},{"internalType":"uint256","name":"totalPoints","type":"uint256"},{"internalType":"uint256","name":"timestamp","type":"uint256"},{"internalType":"string","name":"description","type":"string"}],"stateMutability":"view","type":"function"},{"stateMutability":"payable","type":"receive"}],"evm":{"bytecode":{"linkReferences":{},"object":"6080346200019657601f62001ea238819003918201601f191683019291906001600160401b038411838510176200019b5781602092849260409687528339810103126200019657516001600160a01b0381169081900362000196576001805580156200015257600280546001600160a01b0319169190911790556200008433620001b1565b50620000903362000231565b506200009c33620002d3565b5060008080526003602052600a828220556001815260198282205560028152601e82822055600381526032828220556004815260148282205560058152600f8282205560068152606482822055600781526032828220558080526004602052600f82822055600181526019828220556002815260148282205560038152601e8282205560048152808281205560058152600a8282205560068152603282822055600781528181205551611b119081620003718239f35b815162461bcd60e51b815260206004820152601860248201527f496e76616c69642073747564656e7420726567697374727900000000000000006044820152606490fd5b600080fd5b634e487b7160e01b600052604160045260246000fd5b6001600160a01b031660008181527fad3228b676f7d3cd4284a5443f17f1962b36e491b30a40b2405849e597ba5fb5602052604081205490919060ff166200022d57818052816020526040822081835260205260408220600160ff19825416179055339160008051602062001e828339815191528180a4600190565b5090565b6001600160a01b031660008181527f7d7ffb7a348e1c6a02869081a26547b49160dd3df72d1d75a570eb9b698292ec60205260408120549091907fa49807205ce4d355092ef5a8a18f56e8913cf4a201fbe287825b095693c217759060ff16620002ce57808352826020526040832082845260205260408320600160ff1982541617905560008051602062001e82833981519152339380a4600190565b505090565b6001600160a01b031660008181527f24dd81cb06a77d03151b0c6e201bb9b511e8b8eca33d88c60c6b7fabca24177560205260408120549091907f0f51adb3f49e4a9bbb17b3783f025995eaf8c24be2c8eefff214bdfda05ef94d9060ff16620002ce57808352826020526040832082845260205260408320600160ff1982541617905560008051602062001e82833981519152339380a460019056fe608080604052600436101561001d575b50361561001b57600080fd5b005b60e0600035811c91826301ffc9a7146114eb575081630bbfdd6e14610e4d5781631332a48614610df557816323449a0a14610dd2578163248a9ca314610da357816326f65a1714610d385781632f2ff15d14610cf9578163326f823f14610b6957816336568abe14610b2257816340819e341461093a5781635f42513c14610ae85781636140564614610a1657816362842919146109ee57816362f53f37146101ee5781636b4169c3146109bf5781636d750d80146109965781636f9fb98a1461097a57816375b238fc1461093f5781639181668f1461093a57816391d14854146108ed57816392c16fb5146108c4578163a217fddf146108a8578163b0c945971461085b578163b42074c71461082a578163b842ec4414610777578163b9a6003814610759578163bd097e2114610708578163d547741f146106c9578163dd4d352214610692578163e92e92e71461043f578163ef9253991461028557508063f50ddbc714610214578063f6ecf0bc146101ee578063fa690beb146101d05763fd1c8811146101ad573861000f565b346101cb5760003660031901126101cb576020600854604051908152f35b600080fd5b346101cb5760003660031901126101cb576020600954604051908152f35b346101cb5760203660031901126101cb57602061020c600435611a79565b604051908152f35b346101cb5760203660031901126101cb576001600160a01b0361023561153e565b16600052600560205260c0604060002080549060018101549060028101546003820154906005600484015493015493604051958652602086015260408501526060840152608083015260a0820152f35b346101cb576020806003193601126101cb576001600160a01b0390816102a961153e565b1660005260069283825260406000209182549167ffffffffffffffff83116104295794939190604051916005956102e48383891b01856115a2565b8184528284018096600052836000206000915b8483106103ad575050505050604051948186019282875251809352604083818801921b87010194936000975b8489106103305787870388f35b909192939495848061039b600193603f198c8203018852858b51918883511681526103618584015186830190611760565b60408301516040820152606080840151908201526080808401519082015260a080840151908201528160c08094015193820152019061176d565b98019401980197919094939294610323565b83866001928a6104108e9f9a9b9c9e604051926103c98461156a565b885490811684526103e360ff60a092831c168786016119f1565b878901546040850152600289015460608501526003890154608085015260048901549084015287016116ba565b60c08201528152019201920191909998969594996102f7565b634e487b7160e01b600052604160045260246000fd5b346101cb576020806003193601126101cb5760043590600260015414610680576002600155336000526005815261047d826040600020541015611a37565b6103e880831061063b578083066105f657670de0b6b3a76400008084029084820414841517156105e057049081471061059c57336000526005815260406000206104c8848254611a2a565b9055336000526005815260026040600020016104e58482546119d5565b90556104f3836009546119d5565b600955600080808085335af13d15610597573d61050f816115c4565b9061051d60405192836115a2565b81526000833d92013e5b15610561576040519283528201527f8489cc43a42dbf9d33259b91b6c919c19644ac3b135272570f33f989637a110260403392a260018055005b6064906040519062461bcd60e51b82526004820152600f60248201526e151c985b9cd9995c8819985a5b1959608a1b6044820152fd5b610527565b6064906040519062461bcd60e51b82526004820152601d60248201527f496e73756666696369656e7420636f6e74726163742062616c616e63650000006044820152fd5b634e487b7160e01b600052601160045260246000fd5b60405162461bcd60e51b815260048101839052601f60248201527f506f696e7473206d757374206265206d756c7469706c65206f662031303030006044820152606490fd5b60405162461bcd60e51b815260048101839052601c60248201527f4d696e696d756d203130303020706f696e7473207265717569726564000000006044820152606490fd5b604051633ee5aeb560e01b8152600490fd5b346101cb5760403660031901126101cb5760043560088110156101cb576024359060ff821682036101cb5760209161020c916119fd565b346101cb5760403660031901126101cb5761001b6004356106e8611554565b90806000526000602052610703600160406000200154611809565b611948565b60003660031901126101cb5761071c6117ad565b341561072457005b60405162461bcd60e51b815260206004820152600d60248201526c4d7573742073656e642053484d60981b6044820152606490fd5b346101cb5760003660031901126101cb576020600a54604051908152f35b346101cb5760403660031901126101cb5761079061153e565b60243560018060a01b038092166000526006602052604060002080548210156101cb57610826916107c09161164e565b5080549360018201549160028101546003820154906107e66005600485015494016116ba565b94610804604051998a9981168a5260ff60208b019160a01c16611760565b60408801526060870152608086015260a08501528060c085015283019061176d565b0390f35b346101cb5760203660031901126101cb5760043560088110156101cb5761085260209161161c565b54604051908152f35b346101cb5760403660031901126101cb576001600160a01b0361087c61153e565b1660005260076020526040600020602435600052602052602060ff604060002054166040519015158152f35b346101cb5760003660031901126101cb57602060405160008152f35b346101cb5760003660031901126101cb576002546040516001600160a01b039091168152602090f35b346101cb5760403660031901126101cb57610906611554565b600435600052600060205260406000209060018060a01b0316600052602052602060ff604060002054166040519015158152f35b6115ff565b346101cb5760003660031901126101cb5760206040517fa49807205ce4d355092ef5a8a18f56e8913cf4a201fbe287825b095693c217758152f35b346101cb5760003660031901126101cb57602047604051908152f35b346101cb5760003660031901126101cb576020604051600080516020611a9c8339815191528152f35b346101cb5760003660031901126101cb576060600854600954600a549060405192835260208301526040820152f35b346101cb5760203660031901126101cb5760043560088110156101cb57610852602091611635565b346101cb5760203660031901126101cb57610a2f61153e565b600060a0604051610a3f81611586565b828152826020820152826040820152826060820152826080820152015260018060a01b0316600052600560205260c06040600020604051610a7f81611586565b8154918282526001810154602083019081526002820154604084019081526003830154916060850192835260a0600560048601549560808801968752015495019485526040519586525160208601525160408501525160608401525160808301525160a0820152f35b346101cb5760203660031901126101cb576001600160a01b03610b0961153e565b1660005260056020526020604060002054604051908152f35b346101cb5760403660031901126101cb57610b3b611554565b336001600160a01b03821603610b575761001b90600435611948565b60405163334bd91960e11b8152600490fd5b346101cb5760403660031901126101cb57610b8261153e565b600254604051631eb30aeb60e01b81526001600160a01b0392831660048201819052926024803593602093928492849290918391165afa908115610ced57600091610cc0575b5015610c83573360005260058152610be7826040600020541015611a37565b8115610c4e577f8368079d4813055221156198c714ea6a6742cfcec7c979383b0085e1cc738dc09033600052600581526040600020610c27848254611a2a565b905583600052600581526040600020610c418482546119d5565b90556040519283523392a3005b6064906040519062461bcd60e51b82526004820152600e60248201526d125b9d985b1a5908185b5bdd5b9d60921b6044820152fd5b6064906040519062461bcd60e51b825260048201526016602482015275149958da5c1a595b9d081b9bdd081d995c9a599a595960521b6044820152fd5b610ce09150823d8411610ce6575b610cd881836115a2565b8101906119bd565b84610bc8565b503d610cce565b6040513d6000823e3d90fd5b346101cb5760403660031901126101cb5761001b600435610d18611554565b90806000526000602052610d33600160406000200154611809565b6118cf565b346101cb5760203660031901126101cb5761001b610d5461153e565b610d5c6117ad565b600080516020611a9c83398151915260009081526020527f24dd81cb06a77d03151b0c6e201bb9b511e8b8eca33d88c60c6b7fabca24177654610d9e90611809565b61182f565b346101cb5760203660031901126101cb5760043560005260006020526020600160406000200154604051908152f35b346101cb57610df2610de3366115e0565b9190610ded6117ad565b611635565b55005b346101cb577fd789ef22c921d9cecb6c40066744fe32b6eec3373cd4b2c5d3871973068f9f9d6040610e26366115e0565b610e2e6117ad565b80610e388361161c565b55610e4583518093611760565b6020820152a1005b346101cb5760803660031901126101cb57610e6661153e565b600860243510156101cb576044359060ff82168083036101cb576064359167ffffffffffffffff8084116101cb57366023850112156101cb578360040135610ead816115c4565b94610ebb60405196876115a2565b81865236602483830101116101cb578160009260246020930183890137860101523360009081527f24dd81cb06a77d03151b0c6e201bb9b511e8b8eca33d88c60c6b7fabca2417756020526040902054600080516020611a9c8339815191529060ff16156114cd5750600254604051631eb30aeb60e01b81526001600160a01b03848116600483015294916020908290602490829089165afa908115610ced576000916114ae575b50156114725760641061143557610f88610f7e60243561161c565b54956024356119fd565b93610f9385876119d5565b9184841660005260056020526040600020610faf8482546119d5565b905584841660005260056020526001604060002001610fcf8482546119d5565b905584841660005260056020526005604060002042600382015501610ff481546119e2565b90558484166000526006602052604060002091604051926110148461156a565b868616845260208401611029602435826119f1565b604085018a815260608601908a8252608087019288845260a088019442865260c08901968752805468010000000000000000811015610429576110719160018201815561164e565b98909861141f575188546001600160a01b03198116918d169182178a5591516008811015611409576001600160a81b03199092161760a09190911b60ff60a01b16178755516001870155516002860155516003850155516004840155518051918211610429576110e46005840154611680565b601f81116113c2575b50602090601f8311600114611352576005929160009183611347575b50508160011b916000199060031b1c1916179101555b620151804204838316600052600760205260406000208160005260205260ff60406000205416156111a8575b509081600080516020611abc8339815191529461116d60a095946008546119d5565b60085561117b600a546119e2565b600a556040519661118e88602435611760565b6020880152604087015260608601524260808601521692a2005b83831660005260076020526040600020816000526020526040600020600160ff1982541617905560001981019081116105e057838316600052600760205260406000209060005260205260ff60406000205416600014611317578282166000526005602052600460406000200161121f81546119e2565b905582821660005260056020526004604060002001546007810615611260575b509060a09291600080516020611abc833981519152945b945090919261114b565b60326007909104818102949392918504036105e057600080516020611abc8339815191529460a094848416600052600560205260406000206112a38282546119d5565b9055848416600052600560205260016040600020016112c38282546119d5565b905584841660005260056020526004604060002001549060405191825260208201527f8e5916760d726fc0b808235d8c24c1a959ac3a1394d3142633ce54fa065d7ebb604086861692a2945090919261123f565b908291600080516020611abc8339815191529460a094831660005260056020526001600460406000200155611256565b015190508980611109565b906005840160005260206000209160005b601f19851681106113aa5750918391600193600595601f19811610611391575b505050811b0191015561111f565b015160001960f88460031b161c19169055898080611383565b91926020600181928685015181550194019201611363565b600584016000526020600020601f840160051c810160208510611402575b601f830160051c820181106113f65750506110ed565b600081556001016113e0565b50806113e0565b634e487b7160e01b600052602160045260246000fd5b634e487b7160e01b600052600060045260246000fd5b60405162461bcd60e51b8152602060048201526015602482015274496e76616c6964207175616c6974792073636f726560581b6044820152606490fd5b60405162461bcd60e51b8152602060048201526014602482015273139bdd081d995c9a599a5959081cdd1d59195b9d60621b6044820152606490fd5b6114c7915060203d602011610ce657610cd881836115a2565b87610f63565b6044906040519063e2517d3f60e01b82523360048301526024820152fd5b346101cb5760203660031901126101cb576004359063ffffffff60e01b82168092036101cb57602091637965db0b60e01b811490811561152d575b5015158152f35b6301ffc9a760e01b14905083611526565b600435906001600160a01b03821682036101cb57565b602435906001600160a01b03821682036101cb57565b60e0810190811067ffffffffffffffff82111761042957604052565b60c0810190811067ffffffffffffffff82111761042957604052565b90601f8019910116810190811067ffffffffffffffff82111761042957604052565b67ffffffffffffffff811161042957601f01601f191660200190565b60409060031901126101cb5760043560088110156101cb579060243590565b346101cb5760003660031901126101cb5760206040516103e88152f35b6008811015611409576000526003602052604060002090565b6008811015611409576000526004602052604060002090565b805482101561166a576000526006602060002091020190600090565b634e487b7160e01b600052603260045260246000fd5b90600182811c921680156116b0575b602083101461169a57565b634e487b7160e01b600052602260045260246000fd5b91607f169161168f565b90604051918260008254926116ce84611680565b90818452600194858116908160001461173d57506001146116fa575b50506116f8925003836115a2565b565b9093915060005260209081600020936000915b8183106117255750506116f8935082010138806116ea565b8554888401850152948501948794509183019161170d565b9150506116f894506020925060ff191682840152151560051b82010138806116ea565b9060088210156114095752565b919082519283825260005b848110611799575050826000602080949584010152601f8019910116010190565b602081830181015184830182015201611778565b3360009081527f7d7ffb7a348e1c6a02869081a26547b49160dd3df72d1d75a570eb9b698292ec60205260409020547fa49807205ce4d355092ef5a8a18f56e8913cf4a201fbe287825b095693c217759060ff16156114cd5750565b80600052600060205260406000203360005260205260ff60406000205416156114cd5750565b6001600160a01b031660008181527f24dd81cb06a77d03151b0c6e201bb9b511e8b8eca33d88c60c6b7fabca2417756020526040812054909190600080516020611a9c8339815191529060ff166118ca57808352826020526040832082845260205260408320600160ff198254161790557f2f8788117e7eff1d82e926ec794901d17c78024a50270940304540a733656f0d339380a4600190565b505090565b9060009180835282602052604083209160018060a01b03169182845260205260ff604084205416156000146118ca57808352826020526040832082845260205260408320600160ff198254161790557f2f8788117e7eff1d82e926ec794901d17c78024a50270940304540a733656f0d339380a4600190565b9060009180835282602052604083209160018060a01b03169182845260205260ff6040842054166000146118ca5780835282602052604083208284526020526040832060ff1981541690557ff6391f5c32d9c69d2a47ea670b442974b53935d1edc7fd64eb21e047a839171b339380a4600190565b908160209103126101cb575180151581036101cb5790565b919082018092116105e057565b60001981146105e05760010190565b60088210156114095752565b611a0690611635565b54908115611a235760ff16808202918204036105e0576064900490565b5050600090565b919082039182116105e057565b15611a3e57565b60405162461bcd60e51b8152602060048201526013602482015272496e73756666696369656e7420706f696e747360681b6044820152606490fd5b670de0b6b3a7640000908181029181830414901517156105e0576103e890049056fe0f51adb3f49e4a9bbb17b3783f025995eaf8c24be2c8eefff214bdfda05ef94d2f65c5e731fa17a2769a94664ed34c2dbae5b0cb1c109b8f6decb923deaee132a2646970667358221220410524c5a033dc8d595987d36eec8d93df193418eb44b557bd2fc59aca62e19464736f6c634300081400332f8788117e7eff1d82e926ec794901d17c78024a50270940304540a733656f0d","opcodes":"PUSH1 0x80 CALLVALUE PUSH3 0x196 JUMPI PUSH1 0x1F PUSH3 0x1EA2 CODESIZE DUP2 SWAP1 SUB SWAP2 DUP3 ADD PUSH1 0x1F NOT AND DUP4 ADD SWAP3 SWAP2 SWAP1 PUSH1 0x1 PUSH1 0x1 PUSH1 0x40 SHL SUB DUP5 GT DUP4 DUP6 LT OR PUSH3 0x19B JUMPI DUP2 PUSH1 0x20 SWAP3 DUP5 SWAP3 PUSH1 0x40 SWAP7 DUP8 MSTORE DUP4 CODECOPY DUP2 ADD SUB SLT PUSH3 0x196 JUMPI MLOAD PUSH1 0x1 PUSH1 0x1 PUSH1 0xA0 SHL SUB DUP2 AND SWAP1 DUP2 SWAP1 SUB PUSH3 0x196 JUMPI PUSH1 0x1 DUP1 SSTORE DUP1 ISZERO PUSH3 0x152 JUMPI PUSH1 0x2 DUP1 SLOAD PUSH1 0x1 PUSH1 0x1 PUSH1 0xA0 SHL SUB NOT AND SWAP2 SWAP1 SWAP2 OR SWAP1 SSTORE PUSH3 0x84 CALLER PUSH3 0x1B1 JUMP JUMPDEST POP PUSH3 0x90 CALLER PUSH3 0x231 JUMP JUMPDEST POP PUSH3 0x9C CALLER PUSH3 0x2D3 JUMP JUMPDEST POP PUSH1 0x0 DUP1 DUP1 MSTORE PUSH1 0x3 PUSH1 0x20 MSTORE PUSH1 0xA DUP3 DUP3 KECCAK256 SSTORE PUSH1 0x1 DUP2 MSTORE PUSH1 0x19 DUP3 DUP3 KECCAK256 SSTORE PUSH1 0x2 DUP2 MSTORE PUSH1 0x1E DUP3 DUP3 KECCAK256 SSTORE PUSH1 0x3 DUP2 MSTORE PUSH1 0x32 DUP3 DUP3 KECCAK256 SSTORE PUSH1 0x4 DUP2 MSTORE PUSH1 0x14 DUP3 DUP3 KECCAK256 SSTORE PUSH1 0x5 DUP2 MSTORE PUSH1 0xF DUP3 DUP3 KECCAK256 SSTORE PUSH1 0x6 DUP2 MSTORE PUSH1 0x64 DUP3 DUP3 KECCAK256 SSTORE PUSH1 0x7 DUP2 MSTORE PUSH1 0x32 DUP3 DUP3 KECCAK256 SSTORE DUP1 DUP1 MSTORE PUSH1 0x4 PUSH1 0x20 MSTORE PUSH1 0xF DUP3 DUP3 KECCAK256 SSTORE PUSH1 0x1 DUP2 MSTORE PUSH1 0x19 DUP3 DUP3 KECCAK256 SSTORE PUSH1 0x2 DUP2 MSTORE PUSH1 0x14 DUP3 DUP3 KECCAK256 SSTORE PUSH1 0x3 DUP2 MSTORE PUSH1 0x1E DUP3 DUP3 KECCAK256 SSTORE PUSH1 0x4 DUP2 MSTORE DUP1 DUP3 DUP2 KECCAK256 SSTORE PUSH1 0x5 DUP2 MSTORE PUSH1 0xA DUP3 DUP3 KECCAK256 SSTORE PUSH1 0x6 DUP2 MSTORE PUSH1 0x32 DUP3 DUP3 KECCAK256 SSTORE PUSH1 0x7 DUP2 MSTORE DUP2 DUP2 KECCAK256 SSTORE MLOAD PUSH2 0x1B11 SWAP1 DUP2 PUSH3 0x371 DUP3 CODECOPY RETURN JUMPDEST DUP2 MLOAD PUSH3 0x461BCD PUSH1 0xE5 SHL DUP2 MSTORE PUSH1 0x20 PUSH1 0x4 DUP3 ADD MSTORE PUSH1 0x18 PUSH1 0x24 DUP3 ADD MSTORE PUSH32 0x496E76616C69642073747564656E742072656769737472790000000000000000 PUSH1 0x44 DUP3 ADD MSTORE PUSH1 0x64 SWAP1 REVERT JUMPDEST PUSH1 0x0 DUP1 REVERT JUMPDEST PUSH4 0x4E487B71 PUSH1 0xE0 SHL PUSH1 0x0 MSTORE PUSH1 0x41 PUSH1 0x4 MSTORE PUSH1 0x24 PUSH1 0x0 REVERT JUMPDEST PUSH1 0x1 PUSH1 0x1 PUSH1 0xA0 SHL SUB AND PUSH1 0x0 DUP2 DUP2 MSTORE PUSH32 0xAD3228B676F7D3CD4284A5443F17F1962B36E491B30A40B2405849E597BA5FB5 PUSH1 0x20 MSTORE PUSH1 0x40 DUP2 KECCAK256 SLOAD SWAP1 SWAP2 SWAP1 PUSH1 0xFF AND PUSH3 0x22D JUMPI DUP2 DUP1 MSTORE DUP2 PUSH1 0x20 MSTORE PUSH1 0x40 DUP3 KECCAK256 DUP2 DUP4 MSTORE PUSH1 0x20 MSTORE PUSH1 0x40 DUP3 KECCAK256 PUSH1 0x1 PUSH1 0xFF NOT DUP3 SLOAD AND OR SWAP1 SSTORE CALLER SWAP2 PUSH1 0x0 DUP1 MLOAD PUSH1 0x20 PUSH3 0x1E82 DUP4 CODECOPY DUP2 MLOAD SWAP2 MSTORE DUP2 DUP1 LOG4 PUSH1 0x1 SWAP1 JUMP JUMPDEST POP SWAP1 JUMP JUMPDEST PUSH1 0x1 PUSH1 0x1 PUSH1 0xA0 SHL SUB AND PUSH1 0x0 DUP2 DUP2 MSTORE PUSH32 0x7D7FFB7A348E1C6A02869081A26547B49160DD3DF72D1D75A570EB9B698292EC PUSH1 0x20 MSTORE PUSH1 0x40 DUP2 KECCAK256 SLOAD SWAP1 SWAP2 SWAP1 PUSH32 0xA49807205CE4D355092EF5A8A18F56E8913CF4A201FBE287825B095693C21775 SWAP1 PUSH1 0xFF AND PUSH3 0x2CE JUMPI DUP1 DUP4 MSTORE DUP3 PUSH1 0x20 MSTORE PUSH1 0x40 DUP4 KECCAK256 DUP3 DUP5 MSTORE PUSH1 0x20 MSTORE PUSH1 0x40 DUP4 KECCAK256 PUSH1 0x1 PUSH1 0xFF NOT DUP3 SLOAD AND OR SWAP1 SSTORE PUSH1 0x0 DUP1 MLOAD PUSH1 0x20 PUSH3 0x1E82 DUP4 CODECOPY DUP2 MLOAD SWAP2 MSTORE CALLER SWAP4 DUP1 LOG4 PUSH1 0x1 SWAP1 JUMP JUMPDEST POP POP SWAP1 JUMP JUMPDEST PUSH1 0x1 PUSH1 0x1 PUSH1 0xA0 SHL SUB AND PUSH1 0x0 DUP2 DUP2 MSTORE PUSH32 0x24DD81CB06A77D03151B0C6E201BB9B511E8B8ECA33D88C60C6B7FABCA241775 PUSH1 0x20 MSTORE PUSH1 0x40 DUP2 KECCAK256 SLOAD SWAP1 SWAP2 SWAP1 PUSH32 0xF51ADB3F49E4A9BBB17B3783F025995EAF8C24BE2C8EEFFF214BDFDA05EF94D SWAP1 PUSH1 0xFF AND PUSH3 0x2CE JUMPI DUP1 DUP4 MSTORE DUP3 PUSH1 0x20 MSTORE PUSH1 0x40 DUP4 KECCAK256 DUP3 DUP5 MSTORE PUSH1 0x20 MSTORE PUSH1 0x40 DUP4 KECCAK256 PUSH1 0x1 PUSH1 0xFF NOT DUP3 SLOAD AND OR SWAP1 SSTORE PUSH1 0x0 DUP1 MLOAD PUSH1 0x20 PUSH3 0x1E82 DUP4 CODECOPY DUP2 MLOAD SWAP2 MSTORE CALLER SWAP4 DUP1 LOG4 PUSH1 0x1 SWAP1 JUMP INVALID PUSH1 0x80 DUP1 PUSH1 0x40 MSTORE PUSH1 0x4 CALLDATASIZE LT ISZERO PUSH2 0x1D JUMPI JUMPDEST POP CALLDATASIZE ISZERO PUSH2 0x1B JUMPI PUSH1 0x0 DUP1 REVERT JUMPDEST STOP JUMPDEST PUSH1 0xE0 PUSH1 0x0 CALLDATALOAD DUP2 SHR SWAP2 DUP3 PUSH4 0x1FFC9A7 EQ PUSH2 0x14EB JUMPI POP DUP2 PUSH4 0xBBFDD6E EQ PUSH2 0xE4D JUMPI DUP2 PUSH4 0x1332A486 EQ PUSH2 0xDF5 JUMPI DUP2 PUSH4 0x23449A0A EQ PUSH2 0xDD2 JUMPI DUP2 PUSH4 0x248A9CA3 EQ PUSH2 0xDA3 JUMPI DUP2 PUSH4 0x26F65A17 EQ PUSH2 0xD38 JUMPI DUP2 PUSH4 0x2F2FF15D EQ PUSH2 0xCF9 JUMPI DUP2 PUSH4 0x326F823F EQ PUSH2 0xB69 JUMPI DUP2 PUSH4 0x36568ABE EQ PUSH2 0xB22 JUMPI DUP2 PUSH4 0x40819E34 EQ PUSH2 0x93A JUMPI DUP2 PUSH4 0x5F42513C EQ PUSH2 0xAE8 JUMPI DUP2 PUSH4 0x61405646 EQ PUSH2 0xA16 JUMPI DUP2 PUSH4 0x62842919 EQ PUSH2 0x9EE JUMPI DUP2 PUSH4 0x62F53F37 EQ PUSH2 0x1EE JUMPI DUP2 PUSH4 0x6B4169C3 EQ PUSH2 0x9BF JUMPI DUP2 PUSH4 0x6D750D80 EQ PUSH2 0x996 JUMPI DUP2 PUSH4 0x6F9FB98A EQ PUSH2 0x97A JUMPI DUP2 PUSH4 0x75B238FC EQ PUSH2 0x93F JUMPI DUP2 PUSH4 0x9181668F EQ PUSH2 0x93A JUMPI DUP2 PUSH4 0x91D14854 EQ PUSH2 0x8ED JUMPI DUP2 PUSH4 0x92C16FB5 EQ PUSH2 0x8C4 JUMPI DUP2 PUSH4 0xA217FDDF EQ PUSH2 0x8A8 JUMPI DUP2 PUSH4 0xB0C94597 EQ PUSH2 0x85B JUMPI DUP2 PUSH4 0xB42074C7 EQ PUSH2 0x82A JUMPI DUP2 PUSH4 0xB842EC44 EQ PUSH2 0x777 JUMPI DUP2 PUSH4 0xB9A60038 EQ PUSH2 0x759 JUMPI DUP2 PUSH4 0xBD097E21 EQ PUSH2 0x708 JUMPI DUP2 PUSH4 0xD547741F EQ PUSH2 0x6C9 JUMPI DUP2 PUSH4 0xDD4D3522 EQ PUSH2 0x692 JUMPI DUP2 PUSH4 0xE92E92E7 EQ PUSH2 0x43F JUMPI DUP2 PUSH4 0xEF925399 EQ PUSH2 0x285 JUMPI POP DUP1 PUSH4 0xF50DDBC7 EQ PUSH2 0x214 JUMPI DUP1 PUSH4 0xF6ECF0BC EQ PUSH2 0x1EE JUMPI DUP1 PUSH4 0xFA690BEB EQ PUSH2 0x1D0 JUMPI PUSH4 0xFD1C8811 EQ PUSH2 0x1AD JUMPI CODESIZE PUSH2 0xF JUMP JUMPDEST CALLVALUE PUSH2 0x1CB JUMPI PUSH1 0x0 CALLDATASIZE PUSH1 0x3 NOT ADD SLT PUSH2 0x1CB JUMPI PUSH1 0x20 PUSH1 0x8 SLOAD PUSH1 0x40 MLOAD SWAP1 DUP2 MSTORE RETURN JUMPDEST PUSH1 0x0 DUP1 REVERT JUMPDEST CALLVALUE PUSH2 0x1CB JUMPI PUSH1 0x0 CALLDATASIZE PUSH1 0x3 NOT ADD SLT PUSH2 0x1CB JUMPI PUSH1 0x20 PUSH1 0x9 SLOAD PUSH1 0x40 MLOAD SWAP1 DUP2 MSTORE RETURN JUMPDEST CALLVALUE PUSH2 0x1CB JUMPI PUSH1 0x20 CALLDATASIZE PUSH1 0x3 NOT ADD SLT PUSH2 0x1CB JUMPI PUSH1 0x20 PUSH2 0x20C PUSH1 0x4 CALLDATALOAD PUSH2 0x1A79 JUMP JUMPDEST PUSH1 0x40 MLOAD SWAP1 DUP2 MSTORE RETURN JUMPDEST CALLVALUE PUSH2 0x1CB JUMPI PUSH1 0x20 CALLDATASIZE PUSH1 0x3 NOT ADD SLT PUSH2 0x1CB JUMPI PUSH1 0x1 PUSH1 0x1 PUSH1 0xA0 SHL SUB PUSH2 0x235 PUSH2 0x153E JUMP JUMPDEST AND PUSH1 0x0 MSTORE PUSH1 0x5 PUSH1 0x20 MSTORE PUSH1 0xC0 PUSH1 0x40 PUSH1 0x0 KECCAK256 DUP1 SLOAD SWAP1 PUSH1 0x1 DUP2 ADD SLOAD SWAP1 PUSH1 0x2 DUP2 ADD SLOAD PUSH1 0x3 DUP3 ADD SLOAD SWAP1 PUSH1 0x5 PUSH1 0x4 DUP5 ADD SLOAD SWAP4 ADD SLOAD SWAP4 PUSH1 0x40 MLOAD SWAP6 DUP7 MSTORE PUSH1 0x20 DUP7 ADD MSTORE PUSH1 0x40 DUP6 ADD MSTORE PUSH1 0x60 DUP5 ADD MSTORE PUSH1 0x80 DUP4 ADD MSTORE PUSH1 0xA0 DUP3 ADD MSTORE RETURN JUMPDEST CALLVALUE PUSH2 0x1CB JUMPI PUSH1 0x20 DUP1 PUSH1 0x3 NOT CALLDATASIZE ADD SLT PUSH2 0x1CB JUMPI PUSH1 0x1 PUSH1 0x1 PUSH1 0xA0 SHL SUB SWAP1 DUP2 PUSH2 0x2A9 PUSH2 0x153E JUMP JUMPDEST AND PUSH1 0x0 MSTORE PUSH1 0x6 SWAP3 DUP4 DUP3 MSTORE PUSH1 0x40 PUSH1 0x0 KECCAK256 SWAP2 DUP3 SLOAD SWAP2 PUSH8 0xFFFFFFFFFFFFFFFF DUP4 GT PUSH2 0x429 JUMPI SWAP5 SWAP4 SWAP2 SWAP1 PUSH1 0x40 MLOAD SWAP2 PUSH1 0x5 SWAP6 PUSH2 0x2E4 DUP4 DUP4 DUP10 SHL ADD DUP6 PUSH2 0x15A2 JUMP JUMPDEST DUP2 DUP5 MSTORE DUP3 DUP5 ADD DUP1 SWAP7 PUSH1 0x0 MSTORE DUP4 PUSH1 0x0 KECCAK256 PUSH1 0x0 SWAP2 JUMPDEST DUP5 DUP4 LT PUSH2 0x3AD JUMPI POP POP POP POP POP PUSH1 0x40 MLOAD SWAP5 DUP2 DUP7 ADD SWAP3 DUP3 DUP8 MSTORE MLOAD DUP1 SWAP4 MSTORE PUSH1 0x40 DUP4 DUP2 DUP9 ADD SWAP3 SHL DUP8 ADD ADD SWAP5 SWAP4 PUSH1 0x0 SWAP8 JUMPDEST DUP5 DUP10 LT PUSH2 0x330 JUMPI DUP8 DUP8 SUB DUP9 RETURN JUMPDEST SWAP1 SWAP2 SWAP3 SWAP4 SWAP5 SWAP6 DUP5 DUP1 PUSH2 0x39B PUSH1 0x1 SWAP4 PUSH1 0x3F NOT DUP13 DUP3 SUB ADD DUP9 MSTORE DUP6 DUP12 MLOAD SWAP2 DUP9 DUP4 MLOAD AND DUP2 MSTORE PUSH2 0x361 DUP6 DUP5 ADD MLOAD DUP7 DUP4 ADD SWAP1 PUSH2 0x1760 JUMP JUMPDEST PUSH1 0x40 DUP4 ADD MLOAD PUSH1 0x40 DUP3 ADD MSTORE PUSH1 0x60 DUP1 DUP5 ADD MLOAD SWAP1 DUP3 ADD MSTORE PUSH1 0x80 DUP1 DUP5 ADD MLOAD SWAP1 DUP3 ADD MSTORE PUSH1 0xA0 DUP1 DUP5 ADD MLOAD SWAP1 DUP3 ADD MSTORE DUP2 PUSH1 0xC0 DUP1 SWAP5 ADD MLOAD SWAP4 DUP3 ADD MSTORE ADD SWAP1 PUSH2 0x176D JUMP JUMPDEST SWAP9 ADD SWAP5 ADD SWAP9 ADD SWAP8 SWAP2 SWAP1 SWAP5 SWAP4 SWAP3 SWAP5 PUSH2 0x323 JUMP JUMPDEST DUP4 DUP7 PUSH1 0x1 SWAP3 DUP11 PUSH2 0x410 DUP15 SWAP16 SWAP11 SWAP12 SWAP13 SWAP15 PUSH1 0x40 MLOAD SWAP3 PUSH2 0x3C9 DUP5 PUSH2 0x156A JUMP JUMPDEST DUP9 SLOAD SWAP1 DUP2 AND DUP5 MSTORE PUSH2 0x3E3 PUSH1 0xFF PUSH1 0xA0 SWAP3 DUP4 SHR AND DUP8 DUP7 ADD PUSH2 0x19F1 JUMP JUMPDEST DUP8 DUP10 ADD SLOAD PUSH1 0x40 DUP6 ADD MSTORE PUSH1 0x2 DUP10 ADD SLOAD PUSH1 0x60 DUP6 ADD MSTORE PUSH1 0x3 DUP10 ADD SLOAD PUSH1 0x80 DUP6 ADD MSTORE PUSH1 0x4 DUP10 ADD SLOAD SWAP1 DUP5 ADD MSTORE DUP8 ADD PUSH2 0x16BA JUMP JUMPDEST PUSH1 0xC0 DUP3 ADD MSTORE DUP2 MSTORE ADD SWAP3 ADD SWAP3 ADD SWAP2 SWAP1 SWAP10 SWAP9 SWAP7 SWAP6 SWAP5 SWAP10 PUSH2 0x2F7 JUMP JUMPDEST PUSH4 0x4E487B71 PUSH1 0xE0 SHL PUSH1 0x0 MSTORE PUSH1 0x41 PUSH1 0x4 MSTORE PUSH1 0x24 PUSH1 0x0 REVERT JUMPDEST CALLVALUE PUSH2 0x1CB JUMPI PUSH1 0x20 DUP1 PUSH1 0x3 NOT CALLDATASIZE ADD SLT PUSH2 0x1CB JUMPI PUSH1 0x4 CALLDATALOAD SWAP1 PUSH1 0x2 PUSH1 0x1 SLOAD EQ PUSH2 0x680 JUMPI PUSH1 0x2 PUSH1 0x1 SSTORE CALLER PUSH1 0x0 MSTORE PUSH1 0x5 DUP2 MSTORE PUSH2 0x47D DUP3 PUSH1 0x40 PUSH1 0x0 KECCAK256 SLOAD LT ISZERO PUSH2 0x1A37 JUMP JUMPDEST PUSH2 0x3E8 DUP1 DUP4 LT PUSH2 0x63B JUMPI DUP1 DUP4 MOD PUSH2 0x5F6 JUMPI PUSH8 0xDE0B6B3A7640000 DUP1 DUP5 MUL SWAP1 DUP5 DUP3 DIV EQ DUP5 ISZERO OR ISZERO PUSH2 0x5E0 JUMPI DIV SWAP1 DUP2 SELFBALANCE LT PUSH2 0x59C JUMPI CALLER PUSH1 0x0 MSTORE PUSH1 0x5 DUP2 MSTORE PUSH1 0x40 PUSH1 0x0 KECCAK256 PUSH2 0x4C8 DUP5 DUP3 SLOAD PUSH2 0x1A2A JUMP JUMPDEST SWAP1 SSTORE CALLER PUSH1 0x0 MSTORE PUSH1 0x5 DUP2 MSTORE PUSH1 0x2 PUSH1 0x40 PUSH1 0x0 KECCAK256 ADD PUSH2 0x4E5 DUP5 DUP3 SLOAD PUSH2 0x19D5 JUMP JUMPDEST SWAP1 SSTORE PUSH2 0x4F3 DUP4 PUSH1 0x9 SLOAD PUSH2 0x19D5 JUMP JUMPDEST PUSH1 0x9 SSTORE PUSH1 0x0 DUP1 DUP1 DUP1 DUP6 CALLER GAS CALL RETURNDATASIZE ISZERO PUSH2 0x597 JUMPI RETURNDATASIZE PUSH2 0x50F DUP2 PUSH2 0x15C4 JUMP JUMPDEST SWAP1 PUSH2 0x51D PUSH1 0x40 MLOAD SWAP3 DUP4 PUSH2 0x15A2 JUMP JUMPDEST DUP2 MSTORE PUSH1 0x0 DUP4 RETURNDATASIZE SWAP3 ADD RETURNDATACOPY JUMPDEST ISZERO PUSH2 0x561 JUMPI PUSH1 0x40 MLOAD SWAP3 DUP4 MSTORE DUP3 ADD MSTORE PUSH32 0x8489CC43A42DBF9D33259B91B6C919C19644AC3B135272570F33F989637A1102 PUSH1 0x40 CALLER SWAP3 LOG2 PUSH1 0x1 DUP1 SSTORE STOP JUMPDEST PUSH1 0x64 SWAP1 PUSH1 0x40 MLOAD SWAP1 PUSH3 0x461BCD PUSH1 0xE5 SHL DUP3 MSTORE PUSH1 0x4 DUP3 ADD MSTORE PUSH1 0xF PUSH1 0x24 DUP3 ADD MSTORE PUSH15 0x151C985B9CD9995C8819985A5B1959 PUSH1 0x8A SHL PUSH1 0x44 DUP3 ADD MSTORE REVERT JUMPDEST PUSH2 0x527 JUMP JUMPDEST PUSH1 0x64 SWAP1 PUSH1 0x40 MLOAD SWAP1 PUSH3 0x461BCD PUSH1 0xE5 SHL DUP3 MSTORE PUSH1 0x4 DUP3 ADD MSTORE PUSH1 0x1D PUSH1 0x24 DUP3 ADD MSTORE PUSH32 0x496E73756666696369656E7420636F6E74726163742062616C616E6365000000 PUSH1 0x44 DUP3 ADD MSTORE REVERT JUMPDEST PUSH4 0x4E487B71 PUSH1 0xE0 SHL PUSH1 0x0 MSTORE PUSH1 0x11 PUSH1 0x4 MSTORE PUSH1 0x24 PUSH1 0x0 REVERT JUMPDEST PUSH1 0x40 MLOAD PUSH3 0x461BCD PUSH1 0xE5 SHL DUP2 MSTORE PUSH1 0x4 DUP2 ADD DUP4 SWAP1 MSTORE PUSH1 0x1F PUSH1 0x24 DUP3 ADD MSTORE PUSH32 0x506F696E7473206D757374206265206D756C7469706C65206F66203130303000 PUSH1 0x44 DUP3 ADD MSTORE PUSH1 0x64 SWAP1 REVERT JUMPDEST PUSH1 0x40 MLOAD PUSH3 0x461BCD PUSH1 0xE5 SHL DUP2 MSTORE PUSH1 0x4 DUP2 ADD DUP4 SWAP1 MSTORE PUSH1 0x1C PUSH1 0x24 DUP3 ADD MSTORE PUSH32 0x4D696E696D756D203130303020706F696E747320726571756972656400000000 PUSH1 0x44 DUP3 ADD MSTORE PUSH1 0x64 SWAP1 REVERT JUMPDEST PUSH1 0x40 MLOAD PUSH4 0x3EE5AEB5 PUSH1 0xE0 SHL DUP2 MSTORE PUSH1 0x4 SWAP1 REVERT JUMPDEST CALLVALUE PUSH2 0x1CB JUMPI PUSH1 0x40 CALLDATASIZE PUSH1 0x3 NOT ADD SLT PUSH2 0x1CB JUMPI PUSH1 0x4 CALLDATALOAD PUSH1 0x8 DUP2 LT ISZERO PUSH2 0x1CB JUMPI PUSH1 0x24 CALLDATALOAD SWAP1 PUSH1 0xFF DUP3 AND DUP3 SUB PUSH2 0x1CB JUMPI PUSH1 0x20 SWAP2 PUSH2 0x20C SWAP2 PUSH2 0x19FD JUMP JUMPDEST CALLVALUE PUSH2 0x1CB JUMPI PUSH1 0x40 CALLDATASIZE PUSH1 0x3 NOT ADD SLT PUSH2 0x1CB JUMPI PUSH2 0x1B PUSH1 0x4 CALLDATALOAD PUSH2 0x6E8 PUSH2 0x1554 JUMP JUMPDEST SWAP1 DUP1 PUSH1 0x0 MSTORE PUSH1 0x0 PUSH1 0x20 MSTORE PUSH2 0x703 PUSH1 0x1 PUSH1 0x40 PUSH1 0x0 KECCAK256 ADD SLOAD PUSH2 0x1809 JUMP JUMPDEST PUSH2 0x1948 JUMP JUMPDEST PUSH1 0x0 CALLDATASIZE PUSH1 0x3 NOT ADD SLT PUSH2 0x1CB JUMPI PUSH2 0x71C PUSH2 0x17AD JUMP JUMPDEST CALLVALUE ISZERO PUSH2 0x724 JUMPI STOP JUMPDEST PUSH1 0x40 MLOAD PUSH3 0x461BCD PUSH1 0xE5 SHL DUP2 MSTORE PUSH1 0x20 PUSH1 0x4 DUP3 ADD MSTORE PUSH1 0xD PUSH1 0x24 DUP3 ADD MSTORE PUSH13 0x4D7573742073656E642053484D PUSH1 0x98 SHL PUSH1 0x44 DUP3 ADD MSTORE PUSH1 0x64 SWAP1 REVERT JUMPDEST CALLVALUE PUSH2 0x1CB JUMPI PUSH1 0x0 CALLDATASIZE PUSH1 0x3 NOT ADD SLT PUSH2 0x1CB JUMPI PUSH1 0x20 PUSH1 0xA SLOAD PUSH1 0x40 MLOAD SWAP1 DUP2 MSTORE RETURN JUMPDEST CALLVALUE PUSH2 0x1CB JUMPI PUSH1 0x40 CALLDATASIZE PUSH1 0x3 NOT ADD SLT PUSH2 0x1CB JUMPI PUSH2 0x790 PUSH2 0x153E JUMP JUMPDEST PUSH1 0x24 CALLDATALOAD PUSH1 0x1 DUP1 PUSH1 0xA0 SHL SUB DUP1 SWAP3 AND PUSH1 0x0 MSTORE PUSH1 0x6 PUSH1 0x20 MSTORE PUSH1 0x40 PUSH1 0x0 KECCAK256 DUP1 SLOAD DUP3 LT ISZERO PUSH2 0x1CB JUMPI PUSH2 0x826 SWAP2 PUSH2 0x7C0 SWAP2 PUSH2 0x164E JUMP JUMPDEST POP DUP1 SLOAD SWAP4 PUSH1 0x1 DUP3 ADD SLOAD SWAP2 PUSH1 0x2 DUP2 ADD SLOAD PUSH1 0x3 DUP3 ADD SLOAD SWAP1 PUSH2 0x7E6 PUSH1 0x5 PUSH1 0x4 DUP6 ADD SLOAD SWAP5 ADD PUSH2 0x16BA JUMP JUMPDEST SWAP5 PUSH2 0x804 PUSH1 0x40 MLOAD SWAP10 DUP11 SWAP10 DUP2 AND DUP11 MSTORE PUSH1 0xFF PUSH1 0x20 DUP12 ADD SWAP2 PUSH1 0xA0 SHR AND PUSH2 0x1760 JUMP JUMPDEST PUSH1 0x40 DUP9 ADD MSTORE PUSH1 0x60 DUP8 ADD MSTORE PUSH1 0x80 DUP7 ADD MSTORE PUSH1 0xA0 DUP6 ADD MSTORE DUP1 PUSH1 0xC0 DUP6 ADD MSTORE DUP4 ADD SWAP1 PUSH2 0x176D JUMP JUMPDEST SUB SWAP1 RETURN JUMPDEST CALLVALUE PUSH2 0x1CB JUMPI PUSH1 0x20 CALLDATASIZE PUSH1 0x3 NOT ADD SLT PUSH2 0x1CB JUMPI PUSH1 0x4 CALLDATALOAD PUSH1 0x8 DUP2 LT ISZERO PUSH2 0x1CB JUMPI PUSH2 0x852 PUSH1 0x20 SWAP2 PUSH2 0x161C JUMP JUMPDEST SLOAD PUSH1 0x40 MLOAD SWAP1 DUP2 MSTORE RETURN JUMPDEST CALLVALUE PUSH2 0x1CB JUMPI PUSH1 0x40 CALLDATASIZE PUSH1 0x3 NOT ADD SLT PUSH2 0x1CB JUMPI PUSH1 0x1 PUSH1 0x1 PUSH1 0xA0 SHL SUB PUSH2 0x87C PUSH2 0x153E JUMP JUMPDEST AND PUSH1 0x0 MSTORE PUSH1 0x7 PUSH1 0x20 MSTORE PUSH1 0x40 PUSH1 0x0 KECCAK256 PUSH1 0x24 CALLDATALOAD PUSH1 0x0 MSTORE PUSH1 0x20 MSTORE PUSH1 0x20 PUSH1 0xFF PUSH1 0x40 PUSH1 0x0 KECCAK256 SLOAD AND PUSH1 0x40 MLOAD SWAP1 ISZERO ISZERO DUP2 MSTORE RETURN JUMPDEST CALLVALUE PUSH2 0x1CB JUMPI PUSH1 0x0 CALLDATASIZE PUSH1 0x3 NOT ADD SLT PUSH2 0x1CB JUMPI PUSH1 0x20 PUSH1 0x40 MLOAD PUSH1 0x0 DUP2 MSTORE RETURN JUMPDEST CALLVALUE PUSH2 0x1CB JUMPI PUSH1 0x0 CALLDATASIZE PUSH1 0x3 NOT ADD SLT PUSH2 0x1CB JUMPI PUSH1 0x2 SLOAD PUSH1 0x40 MLOAD PUSH1 0x1 PUSH1 0x1 PUSH1 0xA0 SHL SUB SWAP1 SWAP2 AND DUP2 MSTORE PUSH1 0x20 SWAP1 RETURN JUMPDEST CALLVALUE PUSH2 0x1CB JUMPI PUSH1 0x40 CALLDATASIZE PUSH1 0x3 NOT ADD SLT PUSH2 0x1CB JUMPI PUSH2 0x906 PUSH2 0x1554 JUMP JUMPDEST PUSH1 0x4 CALLDATALOAD PUSH1 0x0 MSTORE PUSH1 0x0 PUSH1 0x20 MSTORE PUSH1 0x40 PUSH1 0x0 KECCAK256 SWAP1 PUSH1 0x1 DUP1 PUSH1 0xA0 SHL SUB AND PUSH1 0x0 MSTORE PUSH1 0x20 MSTORE PUSH1 0x20 PUSH1 0xFF PUSH1 0x40 PUSH1 0x0 KECCAK256 SLOAD AND PUSH1 0x40 MLOAD SWAP1 ISZERO ISZERO DUP2 MSTORE RETURN JUMPDEST PUSH2 0x15FF JUMP JUMPDEST CALLVALUE PUSH2 0x1CB JUMPI PUSH1 0x0 CALLDATASIZE PUSH1 0x3 NOT ADD SLT PUSH2 0x1CB JUMPI PUSH1 0x20 PUSH1 0x40 MLOAD PUSH32 0xA49807205CE4D355092EF5A8A18F56E8913CF4A201FBE287825B095693C21775 DUP2 MSTORE RETURN JUMPDEST CALLVALUE PUSH2 0x1CB JUMPI PUSH1 0x0 CALLDATASIZE PUSH1 0x3 NOT ADD SLT PUSH2 0x1CB JUMPI PUSH1 0x20 SELFBALANCE PUSH1 0x40 MLOAD SWAP1 DUP2 MSTORE RETURN JUMPDEST CALLVALUE PUSH2 0x1CB JUMPI PUSH1 0x0 CALLDATASIZE PUSH1 0x3 NOT ADD SLT PUSH2 0x1CB JUMPI PUSH1 0x20 PUSH1 0x40 MLOAD PUSH1 0x0 DUP1 MLOAD PUSH1 0x20 PUSH2 0x1A9C DUP4 CODECOPY DUP2 MLOAD SWAP2 MSTORE DUP2 MSTORE RETURN JUMPDEST CALLVALUE PUSH2 0x1CB JUMPI PUSH1 0x0 CALLDATASIZE PUSH1 0x3 NOT ADD SLT PUSH2 0x1CB JUMPI PUSH1 0x60 PUSH1 0x8 SLOAD PUSH1 0x9 SLOAD PUSH1 0xA SLOAD SWAP1 PUSH1 0x40 MLOAD SWAP3 DUP4 MSTORE PUSH1 0x20 DUP4 ADD MSTORE PUSH1 0x40 DUP3 ADD MSTORE RETURN JUMPDEST CALLVALUE PUSH2 0x1CB JUMPI PUSH1 0x20 CALLDATASIZE PUSH1 0x3 NOT ADD SLT PUSH2 0x1CB JUMPI PUSH1 0x4 CALLDATALOAD PUSH1 0x8 DUP2 LT ISZERO PUSH2 0x1CB JUMPI PUSH2 0x852 PUSH1 0x20 SWAP2 PUSH2 0x1635 JUMP JUMPDEST CALLVALUE PUSH2 0x1CB JUMPI PUSH1 0x20 CALLDATASIZE PUSH1 0x3 NOT ADD SLT PUSH2 0x1CB JUMPI PUSH2 0xA2F PUSH2 0x153E JUMP JUMPDEST PUSH1 0x0 PUSH1 0xA0 PUSH1 0x40 MLOAD PUSH2 0xA3F DUP2 PUSH2 0x1586 JUMP JUMPDEST DUP3 DUP2 MSTORE DUP3 PUSH1 0x20 DUP3 ADD MSTORE DUP3 PUSH1 0x40 DUP3 ADD MSTORE DUP3 PUSH1 0x60 DUP3 ADD MSTORE DUP3 PUSH1 0x80 DUP3 ADD MSTORE ADD MSTORE PUSH1 0x1 DUP1 PUSH1 0xA0 SHL SUB AND PUSH1 0x0 MSTORE PUSH1 0x5 PUSH1 0x20 MSTORE PUSH1 0xC0 PUSH1 0x40 PUSH1 0x0 KECCAK256 PUSH1 0x40 MLOAD PUSH2 0xA7F DUP2 PUSH2 0x1586 JUMP JUMPDEST DUP2 SLOAD SWAP2 DUP3 DUP3 MSTORE PUSH1 0x1 DUP2 ADD SLOAD PUSH1 0x20 DUP4 ADD SWAP1 DUP2 MSTORE PUSH1 0x2 DUP3 ADD SLOAD PUSH1 0x40 DUP5 ADD SWAP1 DUP2 MSTORE PUSH1 0x3 DUP4 ADD SLOAD SWAP2 PUSH1 0x60 DUP6 ADD SWAP3 DUP4 MSTORE PUSH1 0xA0 PUSH1 0x5 PUSH1 0x4 DUP7 ADD SLOAD SWAP6 PUSH1 0x80 DUP9 ADD SWAP7 DUP8 MSTORE ADD SLOAD SWAP6 ADD SWAP5 DUP6 MSTORE PUSH1 0x40 MLOAD SWAP6 DUP7 MSTORE MLOAD PUSH1 0x20 DUP7 ADD MSTORE MLOAD PUSH1 0x40 DUP6 ADD MSTORE MLOAD PUSH1 0x60 DUP5 ADD MSTORE MLOAD PUSH1 0x80 DUP4 ADD MSTORE MLOAD PUSH1 0xA0 DUP3 ADD MSTORE RETURN JUMPDEST CALLVALUE PUSH2 0x1CB JUMPI PUSH1 0x20 CALLDATASIZE PUSH1 0x3 NOT ADD SLT PUSH2 0x1CB JUMPI PUSH1 0x1 PUSH1 0x1 PUSH1 0xA0 SHL SUB PUSH2 0xB09 PUSH2 0x153E JUMP JUMPDEST AND PUSH1 0x0 MSTORE PUSH1 0x5 PUSH1 0x20 MSTORE PUSH1 0x20 PUSH1 0x40 PUSH1 0x0 KECCAK256 SLOAD PUSH1 0x40 MLOAD SWAP1 DUP2 MSTORE RETURN JUMPDEST CALLVALUE PUSH2 0x1CB JUMPI PUSH1 0x40 CALLDATASIZE PUSH1 0x3 NOT ADD SLT PUSH2 0x1CB JUMPI PUSH2 0xB3B PUSH2 0x1554 JUMP JUMPDEST CALLER PUSH1 0x1 PUSH1 0x1 PUSH1 0xA0 SHL SUB DUP3 AND SUB PUSH2 0xB57 JUMPI PUSH2 0x1B SWAP1 PUSH1 0x4 CALLDATALOAD PUSH2 0x1948 JUMP JUMPDEST PUSH1 0x40 MLOAD PUSH4 0x334BD919 PUSH1 0xE1 SHL DUP2 MSTORE PUSH1 0x4 SWAP1 REVERT JUMPDEST CALLVALUE PUSH2 0x1CB JUMPI PUSH1 0x40 CALLDATASIZE PUSH1 0x3 NOT ADD SLT PUSH2 0x1CB JUMPI PUSH2 0xB82 PUSH2 0x153E JUMP JUMPDEST PUSH1 0x2 SLOAD PUSH1 0x40 MLOAD PUSH4 0x1EB30AEB PUSH1 0xE0 SHL DUP2 MSTORE PUSH1 0x1 PUSH1 0x1 PUSH1 0xA0 SHL SUB SWAP3 DUP4 AND PUSH1 0x4 DUP3 ADD DUP2 SWAP1 MSTORE SWAP3 PUSH1 0x24 DUP1 CALLDATALOAD SWAP4 PUSH1 0x20 SWAP4 SWAP3 DUP5 SWAP3 DUP5 SWAP3 SWAP1 SWAP2 DUP4 SWAP2 AND GAS STATICCALL SWAP1 DUP2 ISZERO PUSH2 0xCED JUMPI PUSH1 0x0 SWAP2 PUSH2 0xCC0 JUMPI JUMPDEST POP ISZERO PUSH2 0xC83 JUMPI CALLER PUSH1 0x0 MSTORE PUSH1 0x5 DUP2 MSTORE PUSH2 0xBE7 DUP3 PUSH1 0x40 PUSH1 0x0 KECCAK256 SLOAD LT ISZERO PUSH2 0x1A37 JUMP JUMPDEST DUP2 ISZERO PUSH2 0xC4E JUMPI PUSH32 0x8368079D4813055221156198C714EA6A6742CFCEC7C979383B0085E1CC738DC0 SWAP1 CALLER PUSH1 0x0 MSTORE PUSH1 0x5 DUP2 MSTORE PUSH1 0x40 PUSH1 0x0 KECCAK256 PUSH2 0xC27 DUP5 DUP3 SLOAD PUSH2 0x1A2A JUMP JUMPDEST SWAP1 SSTORE DUP4 PUSH1 0x0 MSTORE PUSH1 0x5 DUP2 MSTORE PUSH1 0x40 PUSH1 0x0 KECCAK256 PUSH2 0xC41 DUP5 DUP3 SLOAD PUSH2 0x19D5 JUMP JUMPDEST SWAP1 SSTORE PUSH1 0x40 MLOAD SWAP3 DUP4 MSTORE CALLER SWAP3 LOG3 STOP JUMPDEST PUSH1 0x64 SWAP1 PUSH1 0x40 MLOAD SWAP1 PUSH3 0x461BCD PUSH1 0xE5 SHL DUP3 MSTORE PUSH1 0x4 DUP3 ADD MSTORE PUSH1 0xE PUSH1 0x24 DUP3 ADD MSTORE PUSH14 0x125B9D985B1A5908185B5BDD5B9D PUSH1 0x92 SHL PUSH1 0x44 DUP3 ADD MSTORE REVERT JUMPDEST PUSH1 0x64 SWAP1 PUSH1 0x40 MLOAD SWAP1 PUSH3 0x461BCD PUSH1 0xE5 SHL DUP3 MSTORE PUSH1 0x4 DUP3 ADD MSTORE PUSH1 0x16 PUSH1 0x24 DUP3 ADD MSTORE PUSH22 0x149958DA5C1A595B9D081B9BDD081D995C9A599A5959 PUSH1 0x52 SHL PUSH1 0x44 DUP3 ADD MSTORE REVERT JUMPDEST PUSH2 0xCE0 SWAP2 POP DUP3 RETURNDATASIZE DUP5 GT PUSH2 0xCE6 JUMPI JUMPDEST PUSH2 0xCD8 DUP2 DUP4 PUSH2 0x15A2 JUMP JUMPDEST DUP2 ADD SWAP1 PUSH2 0x19BD JUMP JUMPDEST DUP5 PUSH2 0xBC8 JUMP JUMPDEST POP RETURNDATASIZE PUSH2 0xCCE JUMP JUMPDEST PUSH1 0x40 MLOAD RETURNDATASIZE PUSH1 0x0 DUP3 RETURNDATACOPY RETURNDATASIZE SWAP1 REVERT JUMPDEST CALLVALUE PUSH2 0x1CB JUMPI PUSH1 0x40 CALLDATASIZE PUSH1 0x3 NOT ADD SLT PUSH2 0x1CB JUMPI PUSH2 0x1B PUSH1 0x4 CALLDATALOAD PUSH2 0xD18 PUSH2 0x1554 JUMP JUMPDEST SWAP1 DUP1 PUSH1 0x0 MSTORE PUSH1 0x0 PUSH1 0x20 MSTORE PUSH2 0xD33 PUSH1 0x1 PUSH1 0x40 PUSH1 0x0 KECCAK256 ADD SLOAD PUSH2 0x1809 JUMP JUMPDEST PUSH2 0x18CF JUMP JUMPDEST CALLVALUE PUSH2 0x1CB JUMPI PUSH1 0x20 CALLDATASIZE PUSH1 0x3 NOT ADD SLT PUSH2 0x1CB JUMPI PUSH2 0x1B PUSH2 0xD54 PUSH2 0x153E JUMP JUMPDEST PUSH2 0xD5C PUSH2 0x17AD JUMP JUMPDEST PUSH1 0x0 DUP1 MLOAD PUSH1 0x20 PUSH2 0x1A9C DUP4 CODECOPY DUP2 MLOAD SWAP2 MSTORE PUSH1 0x0 SWAP1 DUP2 MSTORE PUSH1 0x20 MSTORE PUSH32 0x24DD81CB06A77D03151B0C6E201BB9B511E8B8ECA33D88C60C6B7FABCA241776 SLOAD PUSH2 0xD9E SWAP1 PUSH2 0x1809 JUMP JUMPDEST PUSH2 0x182F JUMP JUMPDEST CALLVALUE PUSH2 0x1CB JUMPI PUSH1 0x20 CALLDATASIZE PUSH1 0x3 NOT ADD SLT PUSH2 0x1CB JUMPI PUSH1 0x4 CALLDATALOAD PUSH1 0x0 MSTORE PUSH1 0x0 PUSH1 0x20 MSTORE PUSH1 0x20 PUSH1 0x1 PUSH1 0x40 PUSH1 0x0 KECCAK256 ADD SLOAD PUSH1 0x40 MLOAD SWAP1 DUP2 MSTORE RETURN JUMPDEST CALLVALUE PUSH2 0x1CB JUMPI PUSH2 0xDF2 PUSH2 0xDE3 CALLDATASIZE PUSH2 0x15E0 JUMP JUMPDEST SWAP2 SWAP1 PUSH2 0xDED PUSH2 0x17AD JUMP JUMPDEST PUSH2 0x1635 JUMP JUMPDEST SSTORE STOP JUMPDEST CALLVALUE PUSH2 0x1CB JUMPI PUSH32 0xD789EF22C921D9CECB6C40066744FE32B6EEC3373CD4B2C5D3871973068F9F9D PUSH1 0x40 PUSH2 0xE26 CALLDATASIZE PUSH2 0x15E0 JUMP JUMPDEST PUSH2 0xE2E PUSH2 0x17AD JUMP JUMPDEST DUP1 PUSH2 0xE38 DUP4 PUSH2 0x161C JUMP JUMPDEST SSTORE PUSH2 0xE45 DUP4 MLOAD DUP1 SWAP4 PUSH2 0x1760 JUMP JUMPDEST PUSH1 0x20 DUP3 ADD MSTORE LOG1 STOP JUMPDEST CALLVALUE PUSH2 0x1CB JUMPI PUSH1 0x80 CALLDATASIZE PUSH1 0x3 NOT ADD SLT PUSH2 0x1CB JUMPI PUSH2 0xE66 PUSH2 0x153E JUMP JUMPDEST PUSH1 0x8 PUSH1 0x24 CALLDATALOAD LT ISZERO PUSH2 0x1CB JUMPI PUSH1 0x44 CALLDATALOAD SWAP1 PUSH1 0xFF DUP3 AND DUP1 DUP4 SUB PUSH2 0x1CB JUMPI PUSH1 0x64 CALLDATALOAD SWAP2 PUSH8 0xFFFFFFFFFFFFFFFF DUP1 DUP5 GT PUSH2 0x1CB JUMPI CALLDATASIZE PUSH1 0x23 DUP6 ADD SLT ISZERO PUSH2 0x1CB JUMPI DUP4 PUSH1 0x4 ADD CALLDATALOAD PUSH2 0xEAD DUP2 PUSH2 0x15C4 JUMP JUMPDEST SWAP5 PUSH2 0xEBB PUSH1 0x40 MLOAD SWAP7 DUP8 PUSH2 0x15A2 JUMP JUMPDEST DUP2 DUP7 MSTORE CALLDATASIZE PUSH1 0x24 DUP4 DUP4 ADD ADD GT PUSH2 0x1CB JUMPI DUP2 PUSH1 0x0 SWAP3 PUSH1 0x24 PUSH1 0x20 SWAP4 ADD DUP4 DUP10 ADD CALLDATACOPY DUP7 ADD ADD MSTORE CALLER PUSH1 0x0 SWAP1 DUP2 MSTORE PUSH32 0x24DD81CB06A77D03151B0C6E201BB9B511E8B8ECA33D88C60C6B7FABCA241775 PUSH1 0x20 MSTORE PUSH1 0x40 SWAP1 KECCAK256 SLOAD PUSH1 0x0 DUP1 MLOAD PUSH1 0x20 PUSH2 0x1A9C DUP4 CODECOPY DUP2 MLOAD SWAP2 MSTORE SWAP1 PUSH1 0xFF AND ISZERO PUSH2 0x14CD JUMPI POP PUSH1 0x2 SLOAD PUSH1 0x40 MLOAD PUSH4 0x1EB30AEB PUSH1 0xE0 SHL DUP2 MSTORE PUSH1 0x1 PUSH1 0x1 PUSH1 0xA0 SHL SUB DUP5 DUP2 AND PUSH1 0x4 DUP4 ADD MSTORE SWAP5 SWAP2 PUSH1 0x20 SWAP1 DUP3 SWAP1 PUSH1 0x24 SWAP1 DUP3 SWAP1 DUP10 AND GAS STATICCALL SWAP1 DUP2 ISZERO PUSH2 0xCED JUMPI PUSH1 0x0 SWAP2 PUSH2 0x14AE JUMPI JUMPDEST POP ISZERO PUSH2 0x1472 JUMPI PUSH1 0x64 LT PUSH2 0x1435 JUMPI PUSH2 0xF88 PUSH2 0xF7E PUSH1 0x24 CALLDATALOAD PUSH2 0x161C JUMP JUMPDEST SLOAD SWAP6 PUSH1 0x24 CALLDATALOAD PUSH2 0x19FD JUMP JUMPDEST SWAP4 PUSH2 0xF93 DUP6 DUP8 PUSH2 0x19D5 JUMP JUMPDEST SWAP2 DUP5 DUP5 AND PUSH1 0x0 MSTORE PUSH1 0x5 PUSH1 0x20 MSTORE PUSH1 0x40 PUSH1 0x0 KECCAK256 PUSH2 0xFAF DUP5 DUP3 SLOAD PUSH2 0x19D5 JUMP JUMPDEST SWAP1 SSTORE DUP5 DUP5 AND PUSH1 0x0 MSTORE PUSH1 0x5 PUSH1 0x20 MSTORE PUSH1 0x1 PUSH1 0x40 PUSH1 0x0 KECCAK256 ADD PUSH2 0xFCF DUP5 DUP3 SLOAD PUSH2 0x19D5 JUMP JUMPDEST SWAP1 SSTORE DUP5 DUP5 AND PUSH1 0x0 MSTORE PUSH1 0x5 PUSH1 0x20 MSTORE PUSH1 0x5 PUSH1 0x40 PUSH1 0x0 KECCAK256 TIMESTAMP PUSH1 0x3 DUP3 ADD SSTORE ADD PUSH2 0xFF4 DUP2 SLOAD PUSH2 0x19E2 JUMP JUMPDEST SWAP1 SSTORE DUP5 DUP5 AND PUSH1 0x0 MSTORE PUSH1 0x6 PUSH1 0x20 MSTORE PUSH1 0x40 PUSH1 0x0 KECCAK256 SWAP2 PUSH1 0x40 MLOAD SWAP3 PUSH2 0x1014 DUP5 PUSH2 0x156A JUMP JUMPDEST DUP7 DUP7 AND DUP5 MSTORE PUSH1 0x20 DUP5 ADD PUSH2 0x1029 PUSH1 0x24 CALLDATALOAD DUP3 PUSH2 0x19F1 JUMP JUMPDEST PUSH1 0x40 DUP6 ADD DUP11 DUP2 MSTORE PUSH1 0x60 DUP7 ADD SWAP1 DUP11 DUP3 MSTORE PUSH1 0x80 DUP8 ADD SWAP3 DUP9 DUP5 MSTORE PUSH1 0xA0 DUP9 ADD SWAP5 TIMESTAMP DUP7 MSTORE PUSH1 0xC0 DUP10 ADD SWAP7 DUP8 MSTORE DUP1 SLOAD PUSH9 0x10000000000000000 DUP2 LT ISZERO PUSH2 0x429 JUMPI PUSH2 0x1071 SWAP2 PUSH1 0x1 DUP3 ADD DUP2 SSTORE PUSH2 0x164E JUMP JUMPDEST SWAP9 SWAP1 SWAP9 PUSH2 0x141F JUMPI MLOAD DUP9 SLOAD PUSH1 0x1 PUSH1 0x1 PUSH1 0xA0 SHL SUB NOT DUP2 AND SWAP2 DUP14 AND SWAP2 DUP3 OR DUP11 SSTORE SWAP2 MLOAD PUSH1 0x8 DUP2 LT ISZERO PUSH2 0x1409 JUMPI PUSH1 0x1 PUSH1 0x1 PUSH1 0xA8 SHL SUB NOT SWAP1 SWAP3 AND OR PUSH1 0xA0 SWAP2 SWAP1 SWAP2 SHL PUSH1 0xFF PUSH1 0xA0 SHL AND OR DUP8 SSTORE MLOAD PUSH1 0x1 DUP8 ADD SSTORE MLOAD PUSH1 0x2 DUP7 ADD SSTORE MLOAD PUSH1 0x3 DUP6 ADD SSTORE MLOAD PUSH1 0x4 DUP5 ADD SSTORE MLOAD DUP1 MLOAD SWAP2 DUP3 GT PUSH2 0x429 JUMPI PUSH2 0x10E4 PUSH1 0x5 DUP5 ADD SLOAD PUSH2 0x1680 JUMP JUMPDEST PUSH1 0x1F DUP2 GT PUSH2 0x13C2 JUMPI JUMPDEST POP PUSH1 0x20 SWAP1 PUSH1 0x1F DUP4 GT PUSH1 0x1 EQ PUSH2 0x1352 JUMPI PUSH1 0x5 SWAP3 SWAP2 PUSH1 0x0 SWAP2 DUP4 PUSH2 0x1347 JUMPI JUMPDEST POP POP DUP2 PUSH1 0x1 SHL SWAP2 PUSH1 0x0 NOT SWAP1 PUSH1 0x3 SHL SHR NOT AND OR SWAP2 ADD SSTORE JUMPDEST PUSH3 0x15180 TIMESTAMP DIV DUP4 DUP4 AND PUSH1 0x0 MSTORE PUSH1 0x7 PUSH1 0x20 MSTORE PUSH1 0x40 PUSH1 0x0 KECCAK256 DUP2 PUSH1 0x0 MSTORE PUSH1 0x20 MSTORE PUSH1 0xFF PUSH1 0x40 PUSH1 0x0 KECCAK256 SLOAD AND ISZERO PUSH2 0x11A8 JUMPI JUMPDEST POP SWAP1 DUP2 PUSH1 0x0 DUP1 MLOAD PUSH1 0x20 PUSH2 0x1ABC DUP4 CODECOPY DUP2 MLOAD SWAP2 MSTORE SWAP5 PUSH2 0x116D PUSH1 0xA0 SWAP6 SWAP5 PUSH1 0x8 SLOAD PUSH2 0x19D5 JUMP JUMPDEST PUSH1 0x8 SSTORE PUSH2 0x117B PUSH1 0xA SLOAD PUSH2 0x19E2 JUMP JUMPDEST PUSH1 0xA SSTORE PUSH1 0x40 MLOAD SWAP7 PUSH2 0x118E DUP9 PUSH1 0x24 CALLDATALOAD PUSH2 0x1760 JUMP JUMPDEST PUSH1 0x20 DUP9 ADD MSTORE PUSH1 0x40 DUP8 ADD MSTORE PUSH1 0x60 DUP7 ADD MSTORE TIMESTAMP PUSH1 0x80 DUP7 ADD MSTORE AND SWAP3 LOG2 STOP JUMPDEST DUP4 DUP4 AND PUSH1 0x0 MSTORE PUSH1 0x7 PUSH1 0x20 MSTORE PUSH1 0x40 PUSH1 0x0 KECCAK256 DUP2 PUSH1 0x0 MSTORE PUSH1 0x20 MSTORE PUSH1 0x40 PUSH1 0x0 KECCAK256 PUSH1 0x1 PUSH1 0xFF NOT DUP3 SLOAD AND OR SWAP1 SSTORE PUSH1 0x0 NOT DUP2 ADD SWAP1 DUP2 GT PUSH2 0x5E0 JUMPI DUP4 DUP4 AND PUSH1 0x0 MSTORE PUSH1 0x7 PUSH1 0x20 MSTORE PUSH1 0x40 PUSH1 0x0 KECCAK256 SWAP1 PUSH1 0x0 MSTORE PUSH1 0x20 MSTORE PUSH1 0xFF PUSH1 0x40 PUSH1 0x0 KECCAK256 SLOAD AND PUSH1 0x0 EQ PUSH2 0x1317 JUMPI DUP3 DUP3 AND PUSH1 0x0 MSTORE PUSH1 0x5 PUSH1 0x20 MSTORE PUSH1 0x4 PUSH1 0x40 PUSH1 0x0 KECCAK256 ADD PUSH2 0x121F DUP2 SLOAD PUSH2 0x19E2 JUMP JUMPDEST SWAP1 SSTORE DUP3 DUP3 AND PUSH1 0x0 MSTORE PUSH1 0x5 PUSH1 0x20 MSTORE PUSH1 0x4 PUSH1 0x40 PUSH1 0x0 KECCAK256 ADD SLOAD PUSH1 0x7 DUP2 MOD ISZERO PUSH2 0x1260 JUMPI JUMPDEST POP SWAP1 PUSH1 0xA0 SWAP3 SWAP2 PUSH1 0x0 DUP1 MLOAD PUSH1 0x20 PUSH2 0x1ABC DUP4 CODECOPY DUP2 MLOAD SWAP2 MSTORE SWAP5 JUMPDEST SWAP5 POP SWAP1 SWAP2 SWAP3 PUSH2 0x114B JUMP JUMPDEST PUSH1 0x32 PUSH1 0x7 SWAP1 SWAP2 DIV DUP2 DUP2 MUL SWAP5 SWAP4 SWAP3 SWAP2 DUP6 DIV SUB PUSH2 0x5E0 JUMPI PUSH1 0x0 DUP1 MLOAD PUSH1 0x20 PUSH2 0x1ABC DUP4 CODECOPY DUP2 MLOAD SWAP2 MSTORE SWAP5 PUSH1 0xA0 SWAP5 DUP5 DUP5 AND PUSH1 0x0 MSTORE PUSH1 0x5 PUSH1 0x20 MSTORE PUSH1 0x40 PUSH1 0x0 KECCAK256 PUSH2 0x12A3 DUP3 DUP3 SLOAD PUSH2 0x19D5 JUMP JUMPDEST SWAP1 SSTORE DUP5 DUP5 AND PUSH1 0x0 MSTORE PUSH1 0x5 PUSH1 0x20 MSTORE PUSH1 0x1 PUSH1 0x40 PUSH1 0x0 KECCAK256 ADD PUSH2 0x12C3 DUP3 DUP3 SLOAD PUSH2 0x19D5 JUMP JUMPDEST SWAP1 SSTORE DUP5 DUP5 AND PUSH1 0x0 MSTORE PUSH1 0x5 PUSH1 0x20 MSTORE PUSH1 0x4 PUSH1 0x40 PUSH1 0x0 KECCAK256 ADD SLOAD SWAP1 PUSH1 0x40 MLOAD SWAP2 DUP3 MSTORE PUSH1 0x20 DUP3 ADD MSTORE PUSH32 0x8E5916760D726FC0B808235D8C24C1A959AC3A1394D3142633CE54FA065D7EBB PUSH1 0x40 DUP7 DUP7 AND SWAP3 LOG2 SWAP5 POP SWAP1 SWAP2 SWAP3 PUSH2 0x123F JUMP JUMPDEST SWAP1 DUP3 SWAP2 PUSH1 0x0 DUP1 MLOAD PUSH1 0x20 PUSH2 0x1ABC DUP4 CODECOPY DUP2 MLOAD SWAP2 MSTORE SWAP5 PUSH1 0xA0 SWAP5 DUP4 AND PUSH1 0x0 MSTORE PUSH1 0x5 PUSH1 0x20 MSTORE PUSH1 0x1 PUSH1 0x4 PUSH1 0x40 PUSH1 0x0 KECCAK256 ADD SSTORE PUSH2 0x1256 JUMP JUMPDEST ADD MLOAD SWAP1 POP DUP10 DUP1 PUSH2 0x1109 JUMP JUMPDEST SWAP1 PUSH1 0x5 DUP5 ADD PUSH1 0x0 MSTORE PUSH1 0x20 PUSH1 0x0 KECCAK256 SWAP2 PUSH1 0x0 JUMPDEST PUSH1 0x1F NOT DUP6 AND DUP2 LT PUSH2 0x13AA JUMPI POP SWAP2 DUP4 SWAP2 PUSH1 0x1 SWAP4 PUSH1 0x5 SWAP6 PUSH1 0x1F NOT DUP2 AND LT PUSH2 0x1391 JUMPI JUMPDEST POP POP POP DUP2 SHL ADD SWAP2 ADD SSTORE PUSH2 0x111F JUMP JUMPDEST ADD MLOAD PUSH1 0x0 NOT PUSH1 0xF8 DUP5 PUSH1 0x3 SHL AND SHR NOT AND SWAP1 SSTORE DUP10 DUP1 DUP1 PUSH2 0x1383 JUMP JUMPDEST SWAP2 SWAP3 PUSH1 0x20 PUSH1 0x1 DUP2 SWAP3 DUP7 DUP6 ADD MLOAD DUP2 SSTORE ADD SWAP5 ADD SWAP3 ADD PUSH2 0x1363 JUMP JUMPDEST PUSH1 0x5 DUP5 ADD PUSH1 0x0 MSTORE PUSH1 0x20 PUSH1 0x0 KECCAK256 PUSH1 0x1F DUP5 ADD PUSH1 0x5 SHR DUP2 ADD PUSH1 0x20 DUP6 LT PUSH2 0x1402 JUMPI JUMPDEST PUSH1 0x1F DUP4 ADD PUSH1 0x5 SHR DUP3 ADD DUP2 LT PUSH2 0x13F6 JUMPI POP POP PUSH2 0x10ED JUMP JUMPDEST PUSH1 0x0 DUP2 SSTORE PUSH1 0x1 ADD PUSH2 0x13E0 JUMP JUMPDEST POP DUP1 PUSH2 0x13E0 JUMP JUMPDEST PUSH4 0x4E487B71 PUSH1 0xE0 SHL PUSH1 0x0 MSTORE PUSH1 0x21 PUSH1 0x4 MSTORE PUSH1 0x24 PUSH1 0x0 REVERT JUMPDEST PUSH4 0x4E487B71 PUSH1 0xE0 SHL PUSH1 0x0 MSTORE PUSH1 0x0 PUSH1 0x4 MSTORE PUSH1 0x24 PUSH1 0x0 REVERT JUMPDEST PUSH1 0x40 MLOAD PUSH3 0x461BCD PUSH1 0xE5 SHL DUP2 MSTORE PUSH1 0x20 PUSH1 0x4 DUP3 ADD MSTORE PUSH1 0x15 PUSH1 0x24 DUP3 ADD MSTORE PUSH21 0x496E76616C6964207175616C6974792073636F7265 PUSH1 0x58 SHL PUSH1 0x44 DUP3 ADD MSTORE PUSH1 0x64 SWAP1 REVERT JUMPDEST PUSH1 0x40 MLOAD PUSH3 0x461BCD PUSH1 0xE5 SHL DUP2 MSTORE PUSH1 0x20 PUSH1 0x4 DUP3 ADD MSTORE PUSH1 0x14 PUSH1 0x24 DUP3 ADD MSTORE PUSH20 0x139BDD081D995C9A599A5959081CDD1D59195B9D PUSH1 0x62 SHL PUSH1 0x44 DUP3 ADD MSTORE PUSH1 0x64 SWAP1 REVERT JUMPDEST PUSH2 0x14C7 SWAP2 POP PUSH1 0x20 RETURNDATASIZE PUSH1 0x20 GT PUSH2 0xCE6 JUMPI PUSH2 0xCD8 DUP2 DUP4 PUSH2 0x15A2 JUMP JUMPDEST DUP8 PUSH2 0xF63 JUMP JUMPDEST PUSH1 0x44 SWAP1 PUSH1 0x40 MLOAD SWAP1 PUSH4 0xE2517D3F PUSH1 0xE0 SHL DUP3 MSTORE CALLER PUSH1 0x4 DUP4 ADD MSTORE PUSH1 0x24 DUP3 ADD MSTORE REVERT JUMPDEST CALLVALUE PUSH2 0x1CB JUMPI PUSH1 0x20 CALLDATASIZE PUSH1 0x3 NOT ADD SLT PUSH2 0x1CB JUMPI PUSH1 0x4 CALLDATALOAD SWAP1 PUSH4 0xFFFFFFFF PUSH1 0xE0 SHL DUP3 AND DUP1 SWAP3 SUB PUSH2 0x1CB JUMPI PUSH1 0x20 SWAP2 PUSH4 0x7965DB0B PUSH1 0xE0 SHL DUP2 EQ SWAP1 DUP2 ISZERO PUSH2 0x152D JUMPI JUMPDEST POP ISZERO ISZERO DUP2 MSTORE RETURN JUMPDEST PUSH4 0x1FFC9A7 PUSH1 0xE0 SHL EQ SWAP1 POP DUP4 PUSH2 0x1526 JUMP JUMPDEST PUSH1 0x4 CALLDATALOAD SWAP1 PUSH1 0x1 PUSH1 0x1 PUSH1 0xA0 SHL SUB DUP3 AND DUP3 SUB PUSH2 0x1CB JUMPI JUMP JUMPDEST PUSH1 0x24 CALLDATALOAD SWAP1 PUSH1 0x1 PUSH1 0x1 PUSH1 0xA0 SHL SUB DUP3 AND DUP3 SUB PUSH2 0x1CB JUMPI JUMP JUMPDEST PUSH1 0xE0 DUP2 ADD SWAP1 DUP2 LT PUSH8 0xFFFFFFFFFFFFFFFF DUP3 GT OR PUSH2 0x429 JUMPI PUSH1 0x40 MSTORE JUMP JUMPDEST PUSH1 0xC0 DUP2 ADD SWAP1 DUP2 LT PUSH8 0xFFFFFFFFFFFFFFFF DUP3 GT OR PUSH2 0x429 JUMPI PUSH1 0x40 MSTORE JUMP JUMPDEST SWAP1 PUSH1 0x1F DUP1 NOT SWAP2 ADD AND DUP2 ADD SWAP1 DUP2 LT PUSH8 0xFFFFFFFFFFFFFFFF DUP3 GT OR PUSH2 0x429 JUMPI PUSH1 0x40 MSTORE JUMP JUMPDEST PUSH8 0xFFFFFFFFFFFFFFFF DUP2 GT PUSH2 0x429 JUMPI PUSH1 0x1F ADD PUSH1 0x1F NOT AND PUSH1 0x20 ADD SWAP1 JUMP JUMPDEST PUSH1 0x40 SWAP1 PUSH1 0x3 NOT ADD SLT PUSH2 0x1CB JUMPI PUSH1 0x4 CALLDATALOAD PUSH1 0x8 DUP2 LT ISZERO PUSH2 0x1CB JUMPI SWAP1 PUSH1 0x24 CALLDATALOAD SWAP1 JUMP JUMPDEST CALLVALUE PUSH2 0x1CB JUMPI PUSH1 0x0 CALLDATASIZE PUSH1 0x3 NOT ADD SLT PUSH2 0x1CB JUMPI PUSH1 0x20 PUSH1 0x40 MLOAD PUSH2 0x3E8 DUP2 MSTORE RETURN JUMPDEST PUSH1 0x8 DUP2 LT ISZERO PUSH2 0x1409 JUMPI PUSH1 0x0 MSTORE PUSH1 0x3 PUSH1 0x20 MSTORE PUSH1 0x40 PUSH1 0x0 KECCAK256 SWAP1 JUMP JUMPDEST PUSH1 0x8 DUP2 LT ISZERO PUSH2 0x1409 JUMPI PUSH1 0x0 MSTORE PUSH1 0x4 PUSH1 0x20 MSTORE PUSH1 0x40 PUSH1 0x0 KECCAK256 SWAP1 JUMP JUMPDEST DUP1 SLOAD DUP3 LT ISZERO PUSH2 0x166A JUMPI PUSH1 0x0 MSTORE PUSH1 0x6 PUSH1 0x20 PUSH1 0x0 KECCAK256 SWAP2 MUL ADD SWAP1 PUSH1 0x0 SWAP1 JUMP JUMPDEST PUSH4 0x4E487B71 PUSH1 0xE0 SHL PUSH1 0x0 MSTORE PUSH1 0x32 PUSH1 0x4 MSTORE PUSH1 0x24 PUSH1 0x0 REVERT JUMPDEST SWAP1 PUSH1 0x1 DUP3 DUP2 SHR SWAP3 AND DUP1 ISZERO PUSH2 0x16B0 JUMPI JUMPDEST PUSH1 0x20 DUP4 LT EQ PUSH2 0x169A JUMPI JUMP JUMPDEST PUSH4 0x4E487B71 PUSH1 0xE0 SHL PUSH1 0x0 MSTORE PUSH1 0x22 PUSH1 0x4 MSTORE PUSH1 0x24 PUSH1 0x0 REVERT JUMPDEST SWAP2 PUSH1 0x7F AND SWAP2 PUSH2 0x168F JUMP JUMPDEST SWAP1 PUSH1 0x40 MLOAD SWAP2 DUP3 PUSH1 0x0 DUP3 SLOAD SWAP3 PUSH2 0x16CE DUP5 PUSH2 0x1680 JUMP JUMPDEST SWAP1 DUP2 DUP5 MSTORE PUSH1 0x1 SWAP5 DUP6 DUP2 AND SWAP1 DUP2 PUSH1 0x0 EQ PUSH2 0x173D JUMPI POP PUSH1 0x1 EQ PUSH2 0x16FA JUMPI JUMPDEST POP POP PUSH2 0x16F8 SWAP3 POP SUB DUP4 PUSH2 0x15A2 JUMP JUMPDEST JUMP JUMPDEST SWAP1 SWAP4 SWAP2 POP PUSH1 0x0 MSTORE PUSH1 0x20 SWAP1 DUP2 PUSH1 0x0 KECCAK256 SWAP4 PUSH1 0x0 SWAP2 JUMPDEST DUP2 DUP4 LT PUSH2 0x1725 JUMPI POP POP PUSH2 0x16F8 SWAP4 POP DUP3 ADD ADD CODESIZE DUP1 PUSH2 0x16EA JUMP JUMPDEST DUP6 SLOAD DUP9 DUP5 ADD DUP6 ADD MSTORE SWAP5 DUP6 ADD SWAP5 DUP8 SWAP5 POP SWAP2 DUP4 ADD SWAP2 PUSH2 0x170D JUMP JUMPDEST SWAP2 POP POP PUSH2 0x16F8 SWAP5 POP PUSH1 0x20 SWAP3 POP PUSH1 0xFF NOT AND DUP3 DUP5 ADD MSTORE ISZERO ISZERO PUSH1 0x5 SHL DUP3 ADD ADD CODESIZE DUP1 PUSH2 0x16EA JUMP JUMPDEST SWAP1 PUSH1 0x8 DUP3 LT ISZERO PUSH2 0x1409 JUMPI MSTORE JUMP JUMPDEST SWAP2 SWAP1 DUP3 MLOAD SWAP3 DUP4 DUP3 MSTORE PUSH1 0x0 JUMPDEST DUP5 DUP2 LT PUSH2 0x1799 JUMPI POP POP DUP3 PUSH1 0x0 PUSH1 0x20 DUP1 SWAP5 SWAP6 DUP5 ADD ADD MSTORE PUSH1 0x1F DUP1 NOT SWAP2 ADD AND ADD ADD SWAP1 JUMP JUMPDEST PUSH1 0x20 DUP2 DUP4 ADD DUP2 ADD MLOAD DUP5 DUP4 ADD DUP3 ADD MSTORE ADD PUSH2 0x1778 JUMP JUMPDEST CALLER PUSH1 0x0 SWAP1 DUP2 MSTORE PUSH32 0x7D7FFB7A348E1C6A02869081A26547B49160DD3DF72D1D75A570EB9B698292EC PUSH1 0x20 MSTORE PUSH1 0x40 SWAP1 KECCAK256 SLOAD PUSH32 0xA49807205CE4D355092EF5A8A18F56E8913CF4A201FBE287825B095693C21775 SWAP1 PUSH1 0xFF AND ISZERO PUSH2 0x14CD JUMPI POP JUMP JUMPDEST DUP1 PUSH1 0x0 MSTORE PUSH1 0x0 PUSH1 0x20 MSTORE PUSH1 0x40 PUSH1 0x0 KECCAK256 CALLER PUSH1 0x0 MSTORE PUSH1 0x20 MSTORE PUSH1 0xFF PUSH1 0x40 PUSH1 0x0 KECCAK256 SLOAD AND ISZERO PUSH2 0x14CD JUMPI POP JUMP JUMPDEST PUSH1 0x1 PUSH1 0x1 PUSH1 0xA0 SHL SUB AND PUSH1 0x0 DUP2 DUP2 MSTORE PUSH32 0x24DD81CB06A77D03151B0C6E201BB9B511E8B8ECA33D88C60C6B7FABCA241775 PUSH1 0x20 MSTORE PUSH1 0x40 DUP2 KECCAK256 SLOAD SWAP1 SWAP2 SWAP1 PUSH1 0x0 DUP1 MLOAD PUSH1 0x20 PUSH2 0x1A9C DUP4 CODECOPY DUP2 MLOAD SWAP2 MSTORE SWAP1 PUSH1 0xFF AND PUSH2 0x18CA JUMPI DUP1 DUP4 MSTORE DUP3 PUSH1 0x20 MSTORE PUSH1 0x40 DUP4 KECCAK256 DUP3 DUP5 MSTORE PUSH1 0x20 MSTORE PUSH1 0x40 DUP4 KECCAK256 PUSH1 0x1 PUSH1 0xFF NOT DUP3 SLOAD AND OR SWAP1 SSTORE PUSH32 0x2F8788117E7EFF1D82E926EC794901D17C78024A50270940304540A733656F0D CALLER SWAP4 DUP1 LOG4 PUSH1 0x1 SWAP1 JUMP JUMPDEST POP POP SWAP1 JUMP JUMPDEST SWAP1 PUSH1 0x0 SWAP2 DUP1 DUP4 MSTORE DUP3 PUSH1 0x20 MSTORE PUSH1 0x40 DUP4 KECCAK256 SWAP2 PUSH1 0x1 DUP1 PUSH1 0xA0 SHL SUB AND SWAP2 DUP3 DUP5 MSTORE PUSH1 0x20 MSTORE PUSH1 0xFF PUSH1 0x40 DUP5 KECCAK256 SLOAD AND ISZERO PUSH1 0x0 EQ PUSH2 0x18CA JUMPI DUP1 DUP4 MSTORE DUP3 PUSH1 0x20 MSTORE PUSH1 0x40 DUP4 KECCAK256 DUP3 DUP5 MSTORE PUSH1 0x20 MSTORE PUSH1 0x40 DUP4 KECCAK256 PUSH1 0x1 PUSH1 0xFF NOT DUP3 SLOAD AND OR SWAP1 SSTORE PUSH32 0x2F8788117E7EFF1D82E926EC794901D17C78024A50270940304540A733656F0D CALLER SWAP4 DUP1 LOG4 PUSH1 0x1 SWAP1 JUMP JUMPDEST SWAP1 PUSH1 0x0 SWAP2 DUP1 DUP4 MSTORE DUP3 PUSH1 0x20 MSTORE PUSH1 0x40 DUP4 KECCAK256 SWAP2 PUSH1 0x1 DUP1 PUSH1 0xA0 SHL SUB AND SWAP2 DUP3 DUP5 MSTORE PUSH1 0x20 MSTORE PUSH1 0xFF PUSH1 0x40 DUP5 KECCAK256 SLOAD AND PUSH1 0x0 EQ PUSH2 0x18CA JUMPI DUP1 DUP4 MSTORE DUP3 PUSH1 0x20 MSTORE PUSH1 0x40 DUP4 KECCAK256 DUP3 DUP5 MSTORE PUSH1 0x20 MSTORE PUSH1 0x40 DUP4 KECCAK256 PUSH1 0xFF NOT DUP2 SLOAD AND SWAP1 SSTORE PUSH32 0xF6391F5C32D9C69D2A47EA670B442974B53935D1EDC7FD64EB21E047A839171B CALLER SWAP4 DUP1 LOG4 PUSH1 0x1 SWAP1 JUMP JUMPDEST SWAP1 DUP2 PUSH1 0x20 SWAP2 SUB SLT PUSH2 0x1CB JUMPI MLOAD DUP1 ISZERO ISZERO DUP2 SUB PUSH2 0x1CB JUMPI SWAP1 JUMP JUMPDEST SWAP2 SWAP1 DUP3 ADD DUP1 SWAP3 GT PUSH2 0x5E0 JUMPI JUMP JUMPDEST PUSH1 0x0 NOT DUP2 EQ PUSH2 0x5E0 JUMPI PUSH1 0x1 ADD SWAP1 JUMP JUMPDEST PUSH1 0x8 DUP3 LT ISZERO PUSH2 0x1409 JUMPI MSTORE JUMP JUMPDEST PUSH2 0x1A06 SWAP1 PUSH2 0x1635 JUMP JUMPDEST SLOAD SWAP1 DUP2 ISZERO PUSH2 0x1A23 JUMPI PUSH1 0xFF AND DUP1 DUP3 MUL SWAP2 DUP3 DIV SUB PUSH2 0x5E0 JUMPI PUSH1 0x64 SWAP1 DIV SWAP1 JUMP JUMPDEST POP POP PUSH1 0x0 SWAP1 JUMP JUMPDEST SWAP2 SWAP1 DUP3 SUB SWAP2 DUP3 GT PUSH2 0x5E0 JUMPI JUMP JUMPDEST ISZERO PUSH2 0x1A3E JUMPI JUMP JUMPDEST PUSH1 0x40 MLOAD PUSH3 0x461BCD PUSH1 0xE5 SHL DUP2 MSTORE PUSH1 0x20 PUSH1 0x4 DUP3 ADD MSTORE PUSH1 0x13 PUSH1 0x24 DUP3 ADD MSTORE PUSH19 0x496E73756666696369656E7420706F696E7473 PUSH1 0x68 SHL PUSH1 0x44 DUP3 ADD MSTORE PUSH1 0x64 SWAP1 REVERT JUMPDEST PUSH8 0xDE0B6B3A7640000 SWAP1 DUP2 DUP2 MUL SWAP2 DUP2 DUP4 DIV EQ SWAP1 ISZERO OR ISZERO PUSH2 0x5E0 JUMPI PUSH2 0x3E8 SWAP1 DIV SWAP1 JUMP INVALID 0xF MLOAD 0xAD 0xB3 DELEGATECALL SWAP15 0x4A SWAP12 0xBB OR 0xB3 PUSH25 0x3F025995EAF8C24BE2C8EEFFF214BDFDA05EF94D2F65C5E731 STATICCALL OR LOG2 PUSH23 0x9A94664ED34C2DBAE5B0CB1C109B8F6DECB923DEAEE132 LOG2 PUSH5 0x6970667358 0x22 SLT KECCAK256 COINBASE SDIV 0x24 0xC5 LOG0 CALLER 0xDC DUP14 MSIZE MSIZE DUP8 0xD3 PUSH15 0xEC8D93DF193418EB44B557BD2FC59A 0xCA PUSH3 0xE19464 PUSH20 0x6F6C634300081400332F8788117E7EFF1D82E926 0xEC PUSH26 0x4901D17C78024A50270940304540A733656F0D00000000000000 "},"methodIdentifiers":{"ADMIN_ROLE()":"75b238fc","DEFAULT_ADMIN_ROLE()":"a217fddf","POINTS_TO_INR_RATIO()":"40819e34","POINTS_TO_SHM_RATIO()":"9181668f","REWARD_MANAGER_ROLE()":"6d750d80","awardPoints(address,uint8,uint8,string)":"0bbfdd6e","basePoints(uint8)":"b42074c7","calculateQualityBonus(uint8,uint8)":"dd4d3522","dailyActivity(address,uint256)":"b0c94597","fundContract()":"bd097e21","getContractBalance()":"6f9fb98a","getGlobalStats()":"6b4169c3","getPointBalance(address)":"5f42513c","getRoleAdmin(bytes32)":"248a9ca3","getUserPointsData(address)":"61405646","getUserTransactions(address)":"ef925399","grantRewardManagerRole(address)":"26f65a17","grantRole(bytes32,address)":"2f2ff15d","hasRole(bytes32,address)":"91d14854","maxQualityBonus(uint8)":"62842919","pointsToINR(uint256)":"62f53f37","pointsToSHM(uint256)":"f6ecf0bc","redeemPoints(uint256)":"e92e92e7","renounceRole(bytes32,address)":"36568abe","revokeRole(bytes32,address)":"d547741f","studentRegistry()":"92c16fb5","supportsInterface(bytes4)":"01ffc9a7","totalPointsIssued()":"fd1c8811","totalPointsRedeemed()":"fa690beb","totalTransactions()":"b9a60038","transferPoints(address,uint256)":"326f823f","updateBasePoints(uint8,uint256)":"1332a486","updateMaxQualityBonus(uint8,uint256)":"23449a0a","userPoints(address)":"f50ddbc7","userTransactions(address,uint256)":"b842ec44"}}}}}