{"contracts/core/FeedbackContract.sol":{"FeedbackContract":{"abi":[{"inputs":[{"internalType":"address","name":"_studentRegistry","type":"address"},{"internalType":"address","name":"_aiModeration","type":"address"},{"internalType":"address","name":"_privacyContract","type":"address"}],"stateMutability":"nonpayable","type":"constructor"},{"inputs":[],"name":"AccessControlBadConfirmation","type":"error"},{"inputs":[{"internalType":"address","name":"account","type":"address"},{"internalType":"bytes32","name":"neededRole","type":"bytes32"}],"name":"AccessControlUnauthorizedAccount","type":"error"},{"inputs":[],"name":"ReentrancyGuardReentrantCall","type":"error"},{"anonymous":false,"inputs":[{"indexed":true,"internalType":"uint256","name":"feedbackId","type":"uint256"},{"indexed":false,"internalType":"uint256","name":"timestamp","type":"uint256"}],"name":"FeedbackApproved","type":"event"},{"anonymous":false,"inputs":[{"indexed":true,"internalType":"uint256","name":"feedbackId","type":"uint256"},{"indexed":false,"internalType":"uint256","name":"timestamp","type":"uint256"}],"name":"FeedbackImplemented","type":"event"},{"anonymous":false,"inputs":[{"indexed":true,"internalType":"uint256","name":"feedbackId","type":"uint256"},{"indexed":false,"internalType":"string","name":"reason","type":"string"},{"indexed":false,"internalType":"uint256","name":"timestamp","type":"uint256"}],"name":"FeedbackRejected","type":"event"},{"anonymous":false,"inputs":[{"indexed":true,"internalType":"uint256","name":"feedbackId","type":"uint256"},{"indexed":false,"internalType":"enum FeedbackContract.FeedbackStatus","name":"newStatus","type":"uint8"}],"name":"FeedbackStatusUpdated","type":"event"},{"anonymous":false,"inputs":[{"indexed":true,"internalType":"uint256","name":"feedbackId","type":"uint256"},{"indexed":true,"internalType":"address","name":"author","type":"address"},{"indexed":false,"internalType":"enum FeedbackContract.FeedbackCategory","name":"category","type":"uint8"},{"indexed":false,"internalType":"bool","name":"isAnonymous","type":"bool"},{"indexed":false,"internalType":"uint256","name":"timestamp","type":"uint256"}],"name":"FeedbackSubmitted","type":"event"},{"anonymous":false,"inputs":[{"indexed":true,"internalType":"uint256","name":"feedbackId","type":"uint256"},{"indexed":true,"internalType":"address","name":"voter","type":"address"},{"indexed":false,"internalType":"bool","name":"isUpvote","type":"bool"}],"name":"FeedbackVoted","type":"event"},{"anonymous":false,"inputs":[{"indexed":true,"internalType":"bytes32","name":"role","type":"bytes32"},{"indexed":true,"internalType":"bytes32","name":"previousAdminRole","type":"bytes32"},{"indexed":true,"internalType":"bytes32","name":"newAdminRole","type":"bytes32"}],"name":"RoleAdminChanged","type":"event"},{"anonymous":false,"inputs":[{"indexed":true,"internalType":"bytes32","name":"role","type":"bytes32"},{"indexed":true,"internalType":"address","name":"account","type":"address"},{"indexed":true,"internalType":"address","name":"sender","type":"address"}],"name":"RoleGranted","type":"event"},{"anonymous":false,"inputs":[{"indexed":true,"internalType":"bytes32","name":"role","type":"bytes32"},{"indexed":true,"internalType":"address","name":"account","type":"address"},{"indexed":true,"internalType":"address","name":"sender","type":"address"}],"name":"RoleRevoked","type":"event"},{"inputs":[],"name":"ADMIN_ROLE","outputs":[{"internalType":"bytes32","name":"","type":"bytes32"}],"stateMutability":"view","type":"function"},{"inputs":[],"name":"DEFAULT_ADMIN_ROLE","outputs":[{"internalType":"bytes32","name":"","type":"bytes32"}],"stateMutability":"view","type":"function"},{"inputs":[],"name":"MODERATOR_ROLE","outputs":[{"internalType":"bytes32","name":"","type":"bytes32"}],"stateMutability":"view","type":"function"},{"inputs":[],"name":"aiModeration","outputs":[{"internalType":"contract AIModerationContract","name":"","type":"address"}],"stateMutability":"view","type":"function"},{"inputs":[{"internalType":"uint256","name":"feedbackId","type":"uint256"}],"name":"approveFeedback","outputs":[],"stateMutability":"nonpayable","type":"function"},{"inputs":[],"name":"approvedFeedbacks","outputs":[{"internalType":"uint256","name":"","type":"uint256"}],"stateMutability":"view","type":"function"},{"inputs":[{"internalType":"enum FeedbackContract.FeedbackCategory","name":"","type":"uint8"},{"internalType":"uint256","name":"","type":"uint256"}],"name":"categoryFeedbacks","outputs":[{"internalType":"uint256","name":"","type":"uint256"}],"stateMutability":"view","type":"function"},{"inputs":[],"name":"feedbackCounter","outputs":[{"internalType":"uint256","name":"","type":"uint256"}],"stateMutability":"view","type":"function"},{"inputs":[{"internalType":"uint256","name":"","type":"uint256"}],"name":"feedbacks","outputs":[{"internalType":"uint256","name":"id","type":"uint256"},{"internalType":"address","name":"author","type":"address"},{"internalType":"enum FeedbackContract.FeedbackCategory","name":"category","type":"uint8"},{"internalType":"bytes32","name":"contentHash","type":"bytes32"},{"internalType":"bytes32","name":"imageHash","type":"bytes32"},{"internalType":"uint8","name":"aiQualityScore","type":"uint8"},{"internalType":"enum FeedbackContract.FeedbackStatus","name":"status","type":"uint8"},{"internalType":"uint256","name":"timestamp","type":"uint256"},{"internalType":"bool","name":"isAnonymous","type":"bool"},{"internalType":"bool","name":"hasImage","type":"bool"},{"internalType":"uint256","name":"upvotes","type":"uint256"},{"internalType":"uint256","name":"downvotes","type":"uint256"},{"internalType":"bool","name":"isImplemented","type":"bool"}],"stateMutability":"view","type":"function"},{"inputs":[{"internalType":"uint256","name":"feedbackId","type":"uint256"}],"name":"getFeedback","outputs":[{"components":[{"internalType":"uint256","name":"id","type":"uint256"},{"internalType":"address","name":"author","type":"address"},{"internalType":"enum FeedbackContract.FeedbackCategory","name":"category","type":"uint8"},{"internalType":"bytes32","name":"contentHash","type":"bytes32"},{"internalType":"bytes32","name":"imageHash","type":"bytes32"},{"internalType":"uint8","name":"aiQualityScore","type":"uint8"},{"internalType":"enum FeedbackContract.FeedbackStatus","name":"status","type":"uint8"},{"internalType":"uint256","name":"timestamp","type":"uint256"},{"internalType":"bool","name":"isAnonymous","type":"bool"},{"internalType":"bool","name":"hasImage","type":"bool"},{"internalType":"uint256","name":"upvotes","type":"uint256"},{"internalType":"uint256","name":"downvotes","type":"uint256"},{"internalType":"bool","name":"isImplemented","type":"bool"}],"internalType":"struct FeedbackContract.Feedback","name":"","type":"tuple"}],"stateMutability":"view","type":"function"},{"inputs":[{"internalType":"enum FeedbackContract.FeedbackCategory","name":"category","type":"uint8"}],"name":"getFeedbacksByCategory","outputs":[{"internalType":"uint256[]","name":"","type":"uint256[]"}],"stateMutability":"view","type":"function"},{"inputs":[{"internalType":"bytes32","name":"role","type":"bytes32"}],"name":"getRoleAdmin","outputs":[{"internalType":"bytes32","name":"","type":"bytes32"}],"stateMutability":"view","type":"function"},{"inputs":[],"name":"getStatistics","outputs":[{"internalType":"uint256","name":"total","type":"uint256"},{"internalType":"uint256","name":"approved","type":"uint256"},{"internalType":"uint256","name":"implemented","type":"uint256"}],"stateMutability":"view","type":"function"},{"inputs":[{"internalType":"address","name":"user","type":"address"}],"name":"getUserFeedbacks","outputs":[{"internalType":"uint256[]","name":"","type":"uint256[]"}],"stateMutability":"view","type":"function"},{"inputs":[{"internalType":"address","name":"moderator","type":"address"}],"name":"grantModeratorRole","outputs":[],"stateMutability":"nonpayable","type":"function"},{"inputs":[{"internalType":"bytes32","name":"role","type":"bytes32"},{"internalType":"address","name":"account","type":"address"}],"name":"grantRole","outputs":[],"stateMutability":"nonpayable","type":"function"},{"inputs":[{"internalType":"bytes32","name":"role","type":"bytes32"},{"internalType":"address","name":"account","type":"address"}],"name":"hasRole","outputs":[{"internalType":"bool","name":"","type":"bool"}],"stateMutability":"view","type":"function"},{"inputs":[{"internalType":"uint256","name":"","type":"uint256"},{"internalType":"address","name":"","type":"address"}],"name":"hasUpvoted","outputs":[{"internalType":"bool","name":"","type":"bool"}],"stateMutability":"view","type":"function"},{"inputs":[{"internalType":"uint256","name":"","type":"uint256"},{"internalType":"address","name":"","type":"address"}],"name":"hasVoted","outputs":[{"internalType":"bool","name":"","type":"bool"}],"stateMutability":"view","type":"function"},{"inputs":[],"name":"implementedFeedbacks","outputs":[{"internalType":"uint256","name":"","type":"uint256"}],"stateMutability":"view","type":"function"},{"inputs":[{"internalType":"uint256","name":"feedbackId","type":"uint256"}],"name":"markAsImplemented","outputs":[],"stateMutability":"nonpayable","type":"function"},{"inputs":[],"name":"privacyContract","outputs":[{"internalType":"contract PrivacyContract","name":"","type":"address"}],"stateMutability":"view","type":"function"},{"inputs":[{"internalType":"uint256","name":"feedbackId","type":"uint256"},{"internalType":"string","name":"reason","type":"string"}],"name":"rejectFeedback","outputs":[],"stateMutability":"nonpayable","type":"function"},{"inputs":[{"internalType":"bytes32","name":"role","type":"bytes32"},{"internalType":"address","name":"callerConfirmation","type":"address"}],"name":"renounceRole","outputs":[],"stateMutability":"nonpayable","type":"function"},{"inputs":[{"internalType":"bytes32","name":"role","type":"bytes32"},{"internalType":"address","name":"account","type":"address"}],"name":"revokeRole","outputs":[],"stateMutability":"nonpayable","type":"function"},{"inputs":[],"name":"studentRegistry","outputs":[{"internalType":"contract StudentRegistryContract","name":"","type":"address"}],"stateMutability":"view","type":"function"},{"inputs":[{"internalType":"enum FeedbackContract.FeedbackCategory","name":"category","type":"uint8"},{"internalType":"bytes32","name":"contentHash","type":"bytes32"},{"internalType":"bytes32","name":"imageHash","type":"bytes32"},{"internalType":"uint8","name":"aiQualityScore","type":"uint8"},{"internalType":"bool","name":"isAnonymous","type":"bool"}],"name":"submitFeedback","outputs":[{"internalType":"uint256","name":"","type":"uint256"}],"stateMutability":"nonpayable","type":"function"},{"inputs":[{"internalType":"bytes4","name":"interfaceId","type":"bytes4"}],"name":"supportsInterface","outputs":[{"internalType":"bool","name":"","type":"bool"}],"stateMutability":"view","type":"function"},{"inputs":[],"name":"totalFeedbacks","outputs":[{"internalType":"uint256","name":"","type":"uint256"}],"stateMutability":"view","type":"function"},{"inputs":[{"internalType":"uint256","name":"feedbackId","type":"uint256"},{"internalType":"enum FeedbackContract.FeedbackStatus","name":"newStatus","type":"uint8"}],"name":"updateStatus","outputs":[],"stateMutability":"nonpayable","type":"function"},{"inputs":[{"internalType":"address","name":"","type":"address"},{"internalType":"uint256","name":"","type":"uint256"}],"name":"userFeedbacks","outputs":[{"internalType":"uint256","name":"","type":"uint256"}],"stateMutability":"view","type":"function"},{"inputs":[{"internalType":"uint256","name":"feedbackId","type":"uint256"},{"internalType":"bool","name":"isUpvote","type":"bool"}],"name":"voteFeedback","outputs":[],"stateMutability":"nonpayable","type":"function"}],"evm":{"bytecode":{"linkReferences":{},"object":"608034620001ad57601f62001f1c38819003918201601f191683019291906001600160401b03841183851017620001b2578160609284926040968752833981010312620001ad576200005181620001c8565b906200006d836200006560208401620001c8565b9201620001c8565b60018055916001600160a01b0390811691821562000169578116928315620001255716918215620000e15760018060a01b0319918260025416176002558160035416176003556004541617600455620000c633620001dd565b50620000d2336200025d565b5051611bfc9081620003008239f35b835162461bcd60e51b815260206004820152601860248201527f496e76616c6964207072697661637920636f6e747261637400000000000000006044820152606490fd5b845162461bcd60e51b815260206004820152601560248201527f496e76616c6964204149206d6f6465726174696f6e00000000000000000000006044820152606490fd5b845162461bcd60e51b815260206004820152601860248201527f496e76616c69642073747564656e7420726567697374727900000000000000006044820152606490fd5b600080fd5b634e487b7160e01b600052604160045260246000fd5b51906001600160a01b0382168203620001ad57565b6001600160a01b031660008181527fad3228b676f7d3cd4284a5443f17f1962b36e491b30a40b2405849e597ba5fb5602052604081205490919060ff166200025957818052816020526040822081835260205260408220600160ff19825416179055339160008051602062001efc8339815191528180a4600190565b5090565b6001600160a01b031660008181527f7d7ffb7a348e1c6a02869081a26547b49160dd3df72d1d75a570eb9b698292ec60205260408120549091907fa49807205ce4d355092ef5a8a18f56e8913cf4a201fbe287825b095693c217759060ff16620002fa57808352826020526040832082845260205260408320600160ff1982541617905560008051602062001efc833981519152339380a4600190565b50509056fe608080604052600436101561001357600080fd5b60003560e01c90816301ffc9a7146115e8575080631106a3821461140457806312d9b1ff146113e65780631fcc6c59146113c8578063248a9ca31461139957806328beb0b7146113295780632bb8b0dc1461124a5780632f2ff15d1461120b578063355ea59d1461115a57806336568abe14611113578063372d6b27146110e45780633a1b3d311461105557806343778462146110375780634385963214610fea5780634520687914610fc1578063623bb59a14610f395780637319e28214610e2757806375b238fc14610dec578063797669c914610dc35780637d5c607614610d8557806391d1485414610d3857806392c16fb514610d0f5780639cd6fb3d14610ce6578063a217fddf14610cca578063a52c865814610c7d578063aa232dc214610c12578063ac6401d514610aa3578063c952b7d3146108ab578063d4c267101461023b578063d547741f146101fa578063d5fdf3aa146101a25763dd91fdfa1461017f57600080fd5b3461019d57600036600319011261019d576020600a54604051908152f35b600080fd5b3461019d57604036600319011261019d576101bb6116a3565b6001600160a01b031660009081526006602052604090208054602435919082101561019d576020916101ec916116d2565b90546040519160031b1c8152f35b3461019d57604036600319011261019d5761023960043561021961168d565b9080600052600060205261023460016040600020015461181f565b61195e565b005b3461019d5760a036600319011261019d576008600435101561019d5760643560ff811680910361019d5760843515156084350361019d57600260015414610899576002600181905554604051631eb30aeb60e01b815233600482015290602090829060249082906001600160a01b03165afa80156105de5760009061085e575b6102c591506119e0565b6024351561082257606481116107e557600a54600354604051636e092d1160e01b81526004810183905290600090829060249082906001600160a01b03165afa80156105de5760009061066b575b60c09150016001815161032581611648565b61032e81611648565b1490811561064f575b50156106005761034690611a54565b9081600a556040519061035882611700565b82825233602083015261037060043560408401611a79565b6024356060830152604435608083015260a0820152600060c08201524260e08201526084351515610100820152604435151561012082015260006101408201526000610160820152600061018082015281600052600560205260406000208151815560018060a01b0360208301511660018201549260408101519060088210156105ea576104d4946009936101809360ff60a01b9060a01b16916affffffffffffffffffffff60a81b161717600185015560608101516002850155608081015160038501556104616004850160ff60a08401511660ff1982541617815560c08301519061045c82611648565b611a85565b60e081015160058501556006840161048c6101008301511515829060ff801983541691151516179055565b610120820151151561ff0082549160081b169061ff001916179055610140810151600785015561016081015160088501550151151591019060ff801983541691151516179055565b3360005260066020526104eb816040600020611aa4565b6104ff816104fa6004356116b9565b611aa4565b61050a600b54611a54565b600b55608435610569575b6020906040516105278160043561163b565b608435151583820152426040820152817f6fc41427aafb0414bff3a6253e6ba26d29ccb2db195c950c4a2be9f7f5e16bb360603393a360018055604051908152f35b6004546001600160a01b031690813b1561019d5760008092602460405180958193637be98b9160e01b83528660048401525af180156105de576105ae575b9050610515565b67ffffffffffffffff82116105c8576020916040526105a7565b634e487b7160e01b600052604160045260246000fd5b6040513d6000823e3d90fd5b634e487b7160e01b600052602160045260246000fd5b60405162461bcd60e51b815260206004820152602160248201527f436f6e74656e742072656a6563746564206279204149206d6f6465726174696f6044820152603760f91b6064820152608490fd5b90505161065b81611648565b61066481611648565b1583610337565b503d806000833e61067c818361171d565b602082828101031261019d57815167ffffffffffffffff811161019d576101409182828501828601031261019d5760405192838181011067ffffffffffffffff82860111176105c857830160405283820180518452602001516001600160a01b038116810361019d5760208401526106f8604083860101611a23565b604084015261070b606083860101611a23565b606084015261071e608083860101611a23565b608084015261073160a083860101611a23565b60a084015260c08285010151600581101561019d5760c084015283820160e0818101519085015261010001519367ffffffffffffffff851161019d57818101601f868584010101121561019d578483820101519161078e8361173f565b9061079c604051928361171d565b8382528201602084888786010101011161019d576107ca6107dc9360c0976020808501918887010101611a31565b610100850152610120920182016119d3565b90820152610313565b60405162461bcd60e51b8152602060048201526015602482015274496e76616c6964207175616c6974792073636f726560581b6044820152606490fd5b60405162461bcd60e51b8152602060048201526014602482015273092dcecc2d8d2c840c6dedce8cadce840d0c2e6d60631b6044820152606490fd5b506020813d602011610891575b816108786020938361171d565b8101031261019d5761088c6102c5916119d3565b6102bb565b3d915061086b565b604051633ee5aeb560e01b8152600490fd5b3461019d57604036600319011261019d57600435602435908115159182810361019d5781600052602090600582526108e96040600020541515611ade565b600254604051631eb30aeb60e01b8152336004820152908390829060249082906001600160a01b03165afa80156105de57600090610a6d575b61092c91506119e0565b8260005260088252604060002033600052825260ff60406000205416610a3857907f054b940565350152ee27400157b7fcc52c60b4349a9113efcf29872413dccce091836000526005825261099a600160ff60046040600020015460081c1661099481611648565b14611b62565b836000526008825260406000203360005282526040600020600160ff19825416179055836000526009825260406000203360005282526109ea8160406000209060ff801983541691151516179055565b15610a175782600052600581526007604060002001610a098154611a54565b90555b6040519384523393a3005b82600052600581526008604060002001610a318154611a54565b9055610a0c565b60405162461bcd60e51b815260048101839052600d60248201526c105b1c9958591e481d9bdd1959609a1b6044820152606490fd5b508281813d8311610a9c575b610a83818361171d565b8101031261019d57610a9761092c916119d3565b610922565b503d610a79565b3461019d57604036600319011261019d5760043560243567ffffffffffffffff811161019d573660238201121561019d57806004013590610ae38261173f565b91610af1604051938461171d565b80835260209081840192366024838301011161019d57816000926024859301863785010152610b1e61175b565b8360005260058152610b366040600020541515611ade565b8360005260058152610b5f60ff60046040600020015460081c16610b5981611648565b15611b1f565b825115610bdc577f3eb1d1f17ef66298530c31c6628b442533d510a89cc609d7f03e721a69eb51a692610bc8926060928660005260058152600460406000200161020061ff00198254161790556040519485936040855251809381604087015286860190611a31565b4290830152601f01601f19168101030190a2005b6064906040519062461bcd60e51b82526004820152600f60248201526e1499585cdbdb881c995c5d5a5c9959608a1b6044820152fd5b3461019d57602036600319011261019d57610239610c2e6116a3565b610c366117c3565b600080516020611ba783398151915260009081526020527ff179aafcc4ff8137fca1ef3b9ec4d165f87016ba123e7973fba770bc55e240e454610c789061181f565b611845565b3461019d57604036600319011261019d57610c9661168d565b600435600052600960205260406000209060018060a01b0316600052602052602060ff604060002054166040519015158152f35b3461019d57600036600319011261019d57602060405160008152f35b3461019d57600036600319011261019d576003546040516001600160a01b039091168152602090f35b3461019d57600036600319011261019d576002546040516001600160a01b039091168152602090f35b3461019d57604036600319011261019d57610d5161168d565b600435600052600060205260406000209060018060a01b0316600052602052602060ff604060002054166040519015158152f35b3461019d57604036600319011261019d57600435600881101561019d57610dae602435916116b9565b805482101561019d576020916101ec916116d2565b3461019d57600036600319011261019d576020604051600080516020611ba78339815191528152f35b3461019d57600036600319011261019d5760206040517fa49807205ce4d355092ef5a8a18f56e8913cf4a201fbe287825b095693c217758152f35b3461019d5760208060031936011261019d5760043590610e456117c3565b8160005260058152610e5d6040600020541515611ade565b8160005260058152610e82600160ff60046040600020015460081c1661099481611648565b816000526005815260ff60096040600020015416610eff577feb8653740e8b8186075d3d2d372bd21ed4d59dc87eff8721710a29c409525254908260005260058152600960406000206004810161030061ff001982541617905501600160ff19825416179055610ef3600d54611a54565b600d55604051428152a2005b6064906040519062461bcd60e51b825260048201526013602482015272105b1c9958591e481a5b5c1b195b595b9d1959606a1b6044820152fd5b3461019d5760208060031936011261019d576001600160a01b03610f5b6116a3565b1660005260068152604060002090604051908181845491828152019360005281600020916000905b828210610faa57610fa685610f9a8189038261171d565b60405191829182611652565b0390f35b835486529485019460019384019390910190610f83565b3461019d57600036600319011261019d576004546040516001600160a01b039091168152602090f35b3461019d57604036600319011261019d5761100361168d565b600435600052600860205260406000209060018060a01b0316600052602052602060ff604060002054166040519015158152f35b3461019d57600036600319011261019d576020600b54604051908152f35b3461019d57604036600319011261019d57600435602435600581101561019d5760207fc3f79c1fa6b9614427b58cd0784a988a2c068f0cf54905fe3756b50455a33972916110a161175b565b83600052600582526110b96040600020541515611ade565b83600052600582526110d2816004604060002001611a85565b604051906110df81611648565b8152a2005b3461019d57600036600319011261019d576060600b54600c54600d549060405192835260208301526040820152f35b3461019d57604036600319011261019d5761112c61168d565b336001600160a01b03821603611148576102399060043561195e565b60405163334bd91960e11b8152600490fd5b3461019d57602036600319011261019d5760043561117661175b565b80600052600560205261118f6040600020541515611ade565b8060005260056020526111b360ff60046040600020015460081c16610b5981611648565b806000526005602052600460406000200161010061ff00198254161790556111dc600c54611a54565b600c557ff3eaffd6843361de132eb6e2ae58d34e018178d3575203f32434d800971d70e76020604051428152a2005b3461019d57604036600319011261019d5761023960043561122a61168d565b9080600052600060205261124560016040600020015461181f565b6118e5565b3461019d57602036600319011261019d5760043560005260056020526101a0604060002080549060018101549060028101549060096003820154916004810154906005810154906006810154926007820154956008830154976112d360ff809881960154169a85604080519e8f90815260018060a01b0384166020820152019160a01c1661163b565b60608b015260808a015281811660a08a015260081c166112f281611648565b60c088015260e0870152818116151561010087015260081c1615156101208501526101408401526101608301521515610180820152f35b3461019d5760208060031936011261019d57600435600881101561019d57611350906116b9565b90604051908181845491828152019360005281600020916000905b82821061138257610fa685610f9a8189038261171d565b83548652948501946001938401939091019061136b565b3461019d57602036600319011261019d5760043560005260006020526020600160406000200154604051908152f35b3461019d57600036600319011261019d576020600c54604051908152f35b3461019d57600036600319011261019d576020600d54604051908152f35b3461019d57602036600319011261019d57600061018060405161142681611700565b8281528260208201528260408201528260608201528260808201528260a08201528260c08201528260e082015282610100820152826101208201528261014082015282610160820152015260043560005260056020526101a0604060002060ff60096040519261149584611700565b8054845260018101546001600160a01b03811660208601526114bf9060a01c841660408601611a79565b600281015460608501526003810154608085015282600482015481811660a087015260081c166114ee81611648565b60c0850152600581015460e0850152826006820154818116151561010087015260081c161515610120850152600781015461014085015260088101546101608501520154161515610180820152610180604051918051835260018060a01b03602082015116602084015261156a6040820151604085019061163b565b606081015160608401526080810151608084015260ff60a08201511660a084015260c081015161159981611648565b60c084015260e081015160e08401526101008101511515610100840152610120810151151561012084015261014081015161014084015261016081015161016084015201511515610180820152f35b3461019d57602036600319011261019d576004359063ffffffff60e01b821680920361019d57602091637965db0b60e01b811490811561162a575b5015158152f35b6301ffc9a760e01b14905083611623565b9060088210156105ea5752565b600511156105ea57565b6020908160408183019282815285518094520193019160005b828110611679575050505090565b83518552938101939281019260010161166b565b602435906001600160a01b038216820361019d57565b600435906001600160a01b038216820361019d57565b60088110156105ea576000526007602052604060002090565b80548210156116ea5760005260206000200190600090565b634e487b7160e01b600052603260045260246000fd5b6101a0810190811067ffffffffffffffff8211176105c857604052565b90601f8019910116810190811067ffffffffffffffff8211176105c857604052565b67ffffffffffffffff81116105c857601f01601f191660200190565b3360009081527ff179aafcc4ff8137fca1ef3b9ec4d165f87016ba123e7973fba770bc55e240e36020526040902054600080516020611ba78339815191529060ff16156117a55750565b6044906040519063e2517d3f60e01b82523360048301526024820152fd5b3360009081527f7d7ffb7a348e1c6a02869081a26547b49160dd3df72d1d75a570eb9b698292ec60205260409020547fa49807205ce4d355092ef5a8a18f56e8913cf4a201fbe287825b095693c217759060ff16156117a55750565b80600052600060205260406000203360005260205260ff60406000205416156117a55750565b6001600160a01b031660008181527ff179aafcc4ff8137fca1ef3b9ec4d165f87016ba123e7973fba770bc55e240e36020526040812054909190600080516020611ba78339815191529060ff166118e057808352826020526040832082845260205260408320600160ff198254161790557f2f8788117e7eff1d82e926ec794901d17c78024a50270940304540a733656f0d339380a4600190565b505090565b9060009180835282602052604083209160018060a01b03169182845260205260ff604084205416156000146118e057808352826020526040832082845260205260408320600160ff198254161790557f2f8788117e7eff1d82e926ec794901d17c78024a50270940304540a733656f0d339380a4600190565b9060009180835282602052604083209160018060a01b03169182845260205260ff6040842054166000146118e05780835282602052604083208284526020526040832060ff1981541690557ff6391f5c32d9c69d2a47ea670b442974b53935d1edc7fd64eb21e047a839171b339380a4600190565b5190811515820361019d57565b156119e757565b60405162461bcd60e51b8152602060048201526014602482015273139bdd081d995c9a599a5959081cdd1d59195b9d60621b6044820152606490fd5b519060ff8216820361019d57565b60005b838110611a445750506000910152565b8181015183820152602001611a34565b6000198114611a635760010190565b634e487b7160e01b600052601160045260246000fd5b60088210156105ea5752565b90611a8f81611648565b61ff0082549160081b169061ff001916179055565b8054680100000000000000008110156105c857611ac6916001820181556116d2565b819291549060031b91821b91600019901b1916179055565b15611ae557565b60405162461bcd60e51b815260206004820152601260248201527111995959189858dac81b9bdd08199bdd5b9960721b6044820152606490fd5b15611b2657565b60405162461bcd60e51b8152602060048201526014602482015273466565646261636b206e6f742070656e64696e6760601b6044820152606490fd5b15611b6957565b60405162461bcd60e51b815260206004820152601560248201527411995959189858dac81b9bdd08185c1c1c9bdd9959605a1b6044820152606490fdfe71f3d55856e4058ed06ee057d79ada615f65cdf5f9ee88181b914225088f834fa26469706673582212207e2223f3fcd9c802926ace3a4318f2177f7a23948fc620f8926124dab6fb1e4764736f6c634300081400332f8788117e7eff1d82e926ec794901d17c78024a50270940304540a733656f0d","opcodes":"PUSH1 0x80 CALLVALUE PUSH3 0x1AD JUMPI PUSH1 0x1F PUSH3 0x1F1C CODESIZE DUP2 SWAP1 SUB SWAP2 DUP3 ADD PUSH1 0x1F NOT AND DUP4 ADD SWAP3 SWAP2 SWAP1 PUSH1 0x1 PUSH1 0x1 PUSH1 0x40 SHL SUB DUP5 GT DUP4 DUP6 LT OR PUSH3 0x1B2 JUMPI DUP2 PUSH1 0x60 SWAP3 DUP5 SWAP3 PUSH1 0x40 SWAP7 DUP8 MSTORE DUP4 CODECOPY DUP2 ADD SUB SLT PUSH3 0x1AD JUMPI PUSH3 0x51 DUP2 PUSH3 0x1C8 JUMP JUMPDEST SWAP1 PUSH3 0x6D DUP4 PUSH3 0x65 PUSH1 0x20 DUP5 ADD PUSH3 0x1C8 JUMP JUMPDEST SWAP3 ADD PUSH3 0x1C8 JUMP JUMPDEST PUSH1 0x1 DUP1 SSTORE SWAP2 PUSH1 0x1 PUSH1 0x1 PUSH1 0xA0 SHL SUB SWAP1 DUP2 AND SWAP2 DUP3 ISZERO PUSH3 0x169 JUMPI DUP2 AND SWAP3 DUP4 ISZERO PUSH3 0x125 JUMPI AND SWAP2 DUP3 ISZERO PUSH3 0xE1 JUMPI PUSH1 0x1 DUP1 PUSH1 0xA0 SHL SUB NOT SWAP2 DUP3 PUSH1 0x2 SLOAD AND OR PUSH1 0x2 SSTORE DUP2 PUSH1 0x3 SLOAD AND OR PUSH1 0x3 SSTORE PUSH1 0x4 SLOAD AND OR PUSH1 0x4 SSTORE PUSH3 0xC6 CALLER PUSH3 0x1DD JUMP JUMPDEST POP PUSH3 0xD2 CALLER PUSH3 0x25D JUMP JUMPDEST POP MLOAD PUSH2 0x1BFC SWAP1 DUP2 PUSH3 0x300 DUP3 CODECOPY RETURN JUMPDEST DUP4 MLOAD PUSH3 0x461BCD PUSH1 0xE5 SHL DUP2 MSTORE PUSH1 0x20 PUSH1 0x4 DUP3 ADD MSTORE PUSH1 0x18 PUSH1 0x24 DUP3 ADD MSTORE PUSH32 0x496E76616C6964207072697661637920636F6E74726163740000000000000000 PUSH1 0x44 DUP3 ADD MSTORE PUSH1 0x64 SWAP1 REVERT JUMPDEST DUP5 MLOAD PUSH3 0x461BCD PUSH1 0xE5 SHL DUP2 MSTORE PUSH1 0x20 PUSH1 0x4 DUP3 ADD MSTORE PUSH1 0x15 PUSH1 0x24 DUP3 ADD MSTORE PUSH32 0x496E76616C6964204149206D6F6465726174696F6E0000000000000000000000 PUSH1 0x44 DUP3 ADD MSTORE PUSH1 0x64 SWAP1 REVERT JUMPDEST DUP5 MLOAD PUSH3 0x461BCD PUSH1 0xE5 SHL DUP2 MSTORE PUSH1 0x20 PUSH1 0x4 DUP3 ADD MSTORE PUSH1 0x18 PUSH1 0x24 DUP3 ADD MSTORE PUSH32 0x496E76616C69642073747564656E742072656769737472790000000000000000 PUSH1 0x44 DUP3 ADD MSTORE PUSH1 0x64 SWAP1 REVERT JUMPDEST PUSH1 0x0 DUP1 REVERT JUMPDEST PUSH4 0x4E487B71 PUSH1 0xE0 SHL PUSH1 0x0 MSTORE PUSH1 0x41 PUSH1 0x4 MSTORE PUSH1 0x24 PUSH1 0x0 REVERT JUMPDEST MLOAD SWAP1 PUSH1 0x1 PUSH1 0x1 PUSH1 0xA0 SHL SUB DUP3 AND DUP3 SUB PUSH3 0x1AD JUMPI JUMP JUMPDEST PUSH1 0x1 PUSH1 0x1 PUSH1 0xA0 SHL SUB AND PUSH1 0x0 DUP2 DUP2 MSTORE PUSH32 0xAD3228B676F7D3CD4284A5443F17F1962B36E491B30A40B2405849E597BA5FB5 PUSH1 0x20 MSTORE PUSH1 0x40 DUP2 KECCAK256 SLOAD SWAP1 SWAP2 SWAP1 PUSH1 0xFF AND PUSH3 0x259 JUMPI DUP2 DUP1 MSTORE DUP2 PUSH1 0x20 MSTORE PUSH1 0x40 DUP3 KECCAK256 DUP2 DUP4 MSTORE PUSH1 0x20 MSTORE PUSH1 0x40 DUP3 KECCAK256 PUSH1 0x1 PUSH1 0xFF NOT DUP3 SLOAD AND OR SWAP1 SSTORE CALLER SWAP2 PUSH1 0x0 DUP1 MLOAD PUSH1 0x20 PUSH3 0x1EFC DUP4 CODECOPY DUP2 MLOAD SWAP2 MSTORE DUP2 DUP1 LOG4 PUSH1 0x1 SWAP1 JUMP JUMPDEST POP SWAP1 JUMP JUMPDEST PUSH1 0x1 PUSH1 0x1 PUSH1 0xA0 SHL SUB AND PUSH1 0x0 DUP2 DUP2 MSTORE PUSH32 0x7D7FFB7A348E1C6A02869081A26547B49160DD3DF72D1D75A570EB9B698292EC PUSH1 0x20 MSTORE PUSH1 0x40 DUP2 KECCAK256 SLOAD SWAP1 SWAP2 SWAP1 PUSH32 0xA49807205CE4D355092EF5A8A18F56E8913CF4A201FBE287825B095693C21775 SWAP1 PUSH1 0xFF AND PUSH3 0x2FA JUMPI DUP1 DUP4 MSTORE DUP3 PUSH1 0x20 MSTORE PUSH1 0x40 DUP4 KECCAK256 DUP3 DUP5 MSTORE PUSH1 0x20 MSTORE PUSH1 0x40 DUP4 KECCAK256 PUSH1 0x1 PUSH1 0xFF NOT DUP3 SLOAD AND OR SWAP1 SSTORE PUSH1 0x0 DUP1 MLOAD PUSH1 0x20 PUSH3 0x1EFC DUP4 CODECOPY DUP2 MLOAD SWAP2 MSTORE CALLER SWAP4 DUP1 LOG4 PUSH1 0x1 SWAP1 JUMP JUMPDEST POP POP SWAP1 JUMP INVALID PUSH1 0x80 DUP1 PUSH1 0x40 MSTORE PUSH1 0x4 CALLDATASIZE LT ISZERO PUSH2 0x13 JUMPI PUSH1 0x0 DUP1 REVERT JUMPDEST PUSH1 0x0 CALLDATALOAD PUSH1 0xE0 SHR SWAP1 DUP2 PUSH4 0x1FFC9A7 EQ PUSH2 0x15E8 JUMPI POP DUP1 PUSH4 0x1106A382 EQ PUSH2 0x1404 JUMPI DUP1 PUSH4 0x12D9B1FF EQ PUSH2 0x13E6 JUMPI DUP1 PUSH4 0x1FCC6C59 EQ PUSH2 0x13C8 JUMPI DUP1 PUSH4 0x248A9CA3 EQ PUSH2 0x1399 JUMPI DUP1 PUSH4 0x28BEB0B7 EQ PUSH2 0x1329 JUMPI DUP1 PUSH4 0x2BB8B0DC EQ PUSH2 0x124A JUMPI DUP1 PUSH4 0x2F2FF15D EQ PUSH2 0x120B JUMPI DUP1 PUSH4 0x355EA59D EQ PUSH2 0x115A JUMPI DUP1 PUSH4 0x36568ABE EQ PUSH2 0x1113 JUMPI DUP1 PUSH4 0x372D6B27 EQ PUSH2 0x10E4 JUMPI DUP1 PUSH4 0x3A1B3D31 EQ PUSH2 0x1055 JUMPI DUP1 PUSH4 0x43778462 EQ PUSH2 0x1037 JUMPI DUP1 PUSH4 0x43859632 EQ PUSH2 0xFEA JUMPI DUP1 PUSH4 0x45206879 EQ PUSH2 0xFC1 JUMPI DUP1 PUSH4 0x623BB59A EQ PUSH2 0xF39 JUMPI DUP1 PUSH4 0x7319E282 EQ PUSH2 0xE27 JUMPI DUP1 PUSH4 0x75B238FC EQ PUSH2 0xDEC JUMPI DUP1 PUSH4 0x797669C9 EQ PUSH2 0xDC3 JUMPI DUP1 PUSH4 0x7D5C6076 EQ PUSH2 0xD85 JUMPI DUP1 PUSH4 0x91D14854 EQ PUSH2 0xD38 JUMPI DUP1 PUSH4 0x92C16FB5 EQ PUSH2 0xD0F JUMPI DUP1 PUSH4 0x9CD6FB3D EQ PUSH2 0xCE6 JUMPI DUP1 PUSH4 0xA217FDDF EQ PUSH2 0xCCA JUMPI DUP1 PUSH4 0xA52C8658 EQ PUSH2 0xC7D JUMPI DUP1 PUSH4 0xAA232DC2 EQ PUSH2 0xC12 JUMPI DUP1 PUSH4 0xAC6401D5 EQ PUSH2 0xAA3 JUMPI DUP1 PUSH4 0xC952B7D3 EQ PUSH2 0x8AB JUMPI DUP1 PUSH4 0xD4C26710 EQ PUSH2 0x23B JUMPI DUP1 PUSH4 0xD547741F EQ PUSH2 0x1FA JUMPI DUP1 PUSH4 0xD5FDF3AA EQ PUSH2 0x1A2 JUMPI PUSH4 0xDD91FDFA EQ PUSH2 0x17F JUMPI PUSH1 0x0 DUP1 REVERT JUMPDEST CALLVALUE PUSH2 0x19D JUMPI PUSH1 0x0 CALLDATASIZE PUSH1 0x3 NOT ADD SLT PUSH2 0x19D JUMPI PUSH1 0x20 PUSH1 0xA SLOAD PUSH1 0x40 MLOAD SWAP1 DUP2 MSTORE RETURN JUMPDEST PUSH1 0x0 DUP1 REVERT JUMPDEST CALLVALUE PUSH2 0x19D JUMPI PUSH1 0x40 CALLDATASIZE PUSH1 0x3 NOT ADD SLT PUSH2 0x19D JUMPI PUSH2 0x1BB PUSH2 0x16A3 JUMP JUMPDEST PUSH1 0x1 PUSH1 0x1 PUSH1 0xA0 SHL SUB AND PUSH1 0x0 SWAP1 DUP2 MSTORE PUSH1 0x6 PUSH1 0x20 MSTORE PUSH1 0x40 SWAP1 KECCAK256 DUP1 SLOAD PUSH1 0x24 CALLDATALOAD SWAP2 SWAP1 DUP3 LT ISZERO PUSH2 0x19D JUMPI PUSH1 0x20 SWAP2 PUSH2 0x1EC SWAP2 PUSH2 0x16D2 JUMP JUMPDEST SWAP1 SLOAD PUSH1 0x40 MLOAD SWAP2 PUSH1 0x3 SHL SHR DUP2 MSTORE RETURN JUMPDEST CALLVALUE PUSH2 0x19D JUMPI PUSH1 0x40 CALLDATASIZE PUSH1 0x3 NOT ADD SLT PUSH2 0x19D JUMPI PUSH2 0x239 PUSH1 0x4 CALLDATALOAD PUSH2 0x219 PUSH2 0x168D JUMP JUMPDEST SWAP1 DUP1 PUSH1 0x0 MSTORE PUSH1 0x0 PUSH1 0x20 MSTORE PUSH2 0x234 PUSH1 0x1 PUSH1 0x40 PUSH1 0x0 KECCAK256 ADD SLOAD PUSH2 0x181F JUMP JUMPDEST PUSH2 0x195E JUMP JUMPDEST STOP JUMPDEST CALLVALUE PUSH2 0x19D JUMPI PUSH1 0xA0 CALLDATASIZE PUSH1 0x3 NOT ADD SLT PUSH2 0x19D JUMPI PUSH1 0x8 PUSH1 0x4 CALLDATALOAD LT ISZERO PUSH2 0x19D JUMPI PUSH1 0x64 CALLDATALOAD PUSH1 0xFF DUP2 AND DUP1 SWAP2 SUB PUSH2 0x19D JUMPI PUSH1 0x84 CALLDATALOAD ISZERO ISZERO PUSH1 0x84 CALLDATALOAD SUB PUSH2 0x19D JUMPI PUSH1 0x2 PUSH1 0x1 SLOAD EQ PUSH2 0x899 JUMPI PUSH1 0x2 PUSH1 0x1 DUP2 SWAP1 SSTORE SLOAD PUSH1 0x40 MLOAD PUSH4 0x1EB30AEB PUSH1 0xE0 SHL DUP2 MSTORE CALLER PUSH1 0x4 DUP3 ADD MSTORE SWAP1 PUSH1 0x20 SWAP1 DUP3 SWAP1 PUSH1 0x24 SWAP1 DUP3 SWAP1 PUSH1 0x1 PUSH1 0x1 PUSH1 0xA0 SHL SUB AND GAS STATICCALL DUP1 ISZERO PUSH2 0x5DE JUMPI PUSH1 0x0 SWAP1 PUSH2 0x85E JUMPI JUMPDEST PUSH2 0x2C5 SWAP2 POP PUSH2 0x19E0 JUMP JUMPDEST PUSH1 0x24 CALLDATALOAD ISZERO PUSH2 0x822 JUMPI PUSH1 0x64 DUP2 GT PUSH2 0x7E5 JUMPI PUSH1 0xA SLOAD PUSH1 0x3 SLOAD PUSH1 0x40 MLOAD PUSH4 0x6E092D11 PUSH1 0xE0 SHL DUP2 MSTORE PUSH1 0x4 DUP2 ADD DUP4 SWAP1 MSTORE SWAP1 PUSH1 0x0 SWAP1 DUP3 SWAP1 PUSH1 0x24 SWAP1 DUP3 SWAP1 PUSH1 0x1 PUSH1 0x1 PUSH1 0xA0 SHL SUB AND GAS STATICCALL DUP1 ISZERO PUSH2 0x5DE JUMPI PUSH1 0x0 SWAP1 PUSH2 0x66B JUMPI JUMPDEST PUSH1 0xC0 SWAP2 POP ADD PUSH1 0x1 DUP2 MLOAD PUSH2 0x325 DUP2 PUSH2 0x1648 JUMP JUMPDEST PUSH2 0x32E DUP2 PUSH2 0x1648 JUMP JUMPDEST EQ SWAP1 DUP2 ISZERO PUSH2 0x64F JUMPI JUMPDEST POP ISZERO PUSH2 0x600 JUMPI PUSH2 0x346 SWAP1 PUSH2 0x1A54 JUMP JUMPDEST SWAP1 DUP2 PUSH1 0xA SSTORE PUSH1 0x40 MLOAD SWAP1 PUSH2 0x358 DUP3 PUSH2 0x1700 JUMP JUMPDEST DUP3 DUP3 MSTORE CALLER PUSH1 0x20 DUP4 ADD MSTORE PUSH2 0x370 PUSH1 0x4 CALLDATALOAD PUSH1 0x40 DUP5 ADD PUSH2 0x1A79 JUMP JUMPDEST PUSH1 0x24 CALLDATALOAD PUSH1 0x60 DUP4 ADD MSTORE PUSH1 0x44 CALLDATALOAD PUSH1 0x80 DUP4 ADD MSTORE PUSH1 0xA0 DUP3 ADD MSTORE PUSH1 0x0 PUSH1 0xC0 DUP3 ADD MSTORE TIMESTAMP PUSH1 0xE0 DUP3 ADD MSTORE PUSH1 0x84 CALLDATALOAD ISZERO ISZERO PUSH2 0x100 DUP3 ADD MSTORE PUSH1 0x44 CALLDATALOAD ISZERO ISZERO PUSH2 0x120 DUP3 ADD MSTORE PUSH1 0x0 PUSH2 0x140 DUP3 ADD MSTORE PUSH1 0x0 PUSH2 0x160 DUP3 ADD MSTORE PUSH1 0x0 PUSH2 0x180 DUP3 ADD MSTORE DUP2 PUSH1 0x0 MSTORE PUSH1 0x5 PUSH1 0x20 MSTORE PUSH1 0x40 PUSH1 0x0 KECCAK256 DUP2 MLOAD DUP2 SSTORE PUSH1 0x1 DUP1 PUSH1 0xA0 SHL SUB PUSH1 0x20 DUP4 ADD MLOAD AND PUSH1 0x1 DUP3 ADD SLOAD SWAP3 PUSH1 0x40 DUP2 ADD MLOAD SWAP1 PUSH1 0x8 DUP3 LT ISZERO PUSH2 0x5EA JUMPI PUSH2 0x4D4 SWAP5 PUSH1 0x9 SWAP4 PUSH2 0x180 SWAP4 PUSH1 0xFF PUSH1 0xA0 SHL SWAP1 PUSH1 0xA0 SHL AND SWAP2 PUSH11 0xFFFFFFFFFFFFFFFFFFFFFF PUSH1 0xA8 SHL AND OR OR PUSH1 0x1 DUP6 ADD SSTORE PUSH1 0x60 DUP2 ADD MLOAD PUSH1 0x2 DUP6 ADD SSTORE PUSH1 0x80 DUP2 ADD MLOAD PUSH1 0x3 DUP6 ADD SSTORE PUSH2 0x461 PUSH1 0x4 DUP6 ADD PUSH1 0xFF PUSH1 0xA0 DUP5 ADD MLOAD AND PUSH1 0xFF NOT DUP3 SLOAD AND OR DUP2 SSTORE PUSH1 0xC0 DUP4 ADD MLOAD SWAP1 PUSH2 0x45C DUP3 PUSH2 0x1648 JUMP JUMPDEST PUSH2 0x1A85 JUMP JUMPDEST PUSH1 0xE0 DUP2 ADD MLOAD PUSH1 0x5 DUP6 ADD SSTORE PUSH1 0x6 DUP5 ADD PUSH2 0x48C PUSH2 0x100 DUP4 ADD MLOAD ISZERO ISZERO DUP3 SWAP1 PUSH1 0xFF DUP1 NOT DUP4 SLOAD AND SWAP2 ISZERO ISZERO AND OR SWAP1 SSTORE JUMP JUMPDEST PUSH2 0x120 DUP3 ADD MLOAD ISZERO ISZERO PUSH2 0xFF00 DUP3 SLOAD SWAP2 PUSH1 0x8 SHL AND SWAP1 PUSH2 0xFF00 NOT AND OR SWAP1 SSTORE PUSH2 0x140 DUP2 ADD MLOAD PUSH1 0x7 DUP6 ADD SSTORE PUSH2 0x160 DUP2 ADD MLOAD PUSH1 0x8 DUP6 ADD SSTORE ADD MLOAD ISZERO ISZERO SWAP2 ADD SWAP1 PUSH1 0xFF DUP1 NOT DUP4 SLOAD AND SWAP2 ISZERO ISZERO AND OR SWAP1 SSTORE JUMP JUMPDEST CALLER PUSH1 0x0 MSTORE PUSH1 0x6 PUSH1 0x20 MSTORE PUSH2 0x4EB DUP2 PUSH1 0x40 PUSH1 0x0 KECCAK256 PUSH2 0x1AA4 JUMP JUMPDEST PUSH2 0x4FF DUP2 PUSH2 0x4FA PUSH1 0x4 CALLDATALOAD PUSH2 0x16B9 JUMP JUMPDEST PUSH2 0x1AA4 JUMP JUMPDEST PUSH2 0x50A PUSH1 0xB SLOAD PUSH2 0x1A54 JUMP JUMPDEST PUSH1 0xB SSTORE PUSH1 0x84 CALLDATALOAD PUSH2 0x569 JUMPI JUMPDEST PUSH1 0x20 SWAP1 PUSH1 0x40 MLOAD PUSH2 0x527 DUP2 PUSH1 0x4 CALLDATALOAD PUSH2 0x163B JUMP JUMPDEST PUSH1 0x84 CALLDATALOAD ISZERO ISZERO DUP4 DUP3 ADD MSTORE TIMESTAMP PUSH1 0x40 DUP3 ADD MSTORE DUP2 PUSH32 0x6FC41427AAFB0414BFF3A6253E6BA26D29CCB2DB195C950C4A2BE9F7F5E16BB3 PUSH1 0x60 CALLER SWAP4 LOG3 PUSH1 0x1 DUP1 SSTORE PUSH1 0x40 MLOAD SWAP1 DUP2 MSTORE RETURN JUMPDEST PUSH1 0x4 SLOAD PUSH1 0x1 PUSH1 0x1 PUSH1 0xA0 SHL SUB AND SWAP1 DUP2 EXTCODESIZE ISZERO PUSH2 0x19D JUMPI PUSH1 0x0 DUP1 SWAP3 PUSH1 0x24 PUSH1 0x40 MLOAD DUP1 SWAP6 DUP2 SWAP4 PUSH4 0x7BE98B91 PUSH1 0xE0 SHL DUP4 MSTORE DUP7 PUSH1 0x4 DUP5 ADD MSTORE GAS CALL DUP1 ISZERO PUSH2 0x5DE JUMPI PUSH2 0x5AE JUMPI JUMPDEST SWAP1 POP PUSH2 0x515 JUMP JUMPDEST PUSH8 0xFFFFFFFFFFFFFFFF DUP3 GT PUSH2 0x5C8 JUMPI PUSH1 0x20 SWAP2 PUSH1 0x40 MSTORE PUSH2 0x5A7 JUMP JUMPDEST PUSH4 0x4E487B71 PUSH1 0xE0 SHL PUSH1 0x0 MSTORE PUSH1 0x41 PUSH1 0x4 MSTORE PUSH1 0x24 PUSH1 0x0 REVERT JUMPDEST PUSH1 0x40 MLOAD RETURNDATASIZE PUSH1 0x0 DUP3 RETURNDATACOPY RETURNDATASIZE SWAP1 REVERT JUMPDEST PUSH4 0x4E487B71 PUSH1 0xE0 SHL PUSH1 0x0 MSTORE PUSH1 0x21 PUSH1 0x4 MSTORE PUSH1 0x24 PUSH1 0x0 REVERT JUMPDEST PUSH1 0x40 MLOAD PUSH3 0x461BCD PUSH1 0xE5 SHL DUP2 MSTORE PUSH1 0x20 PUSH1 0x4 DUP3 ADD MSTORE PUSH1 0x21 PUSH1 0x24 DUP3 ADD MSTORE PUSH32 0x436F6E74656E742072656A6563746564206279204149206D6F6465726174696F PUSH1 0x44 DUP3 ADD MSTORE PUSH1 0x37 PUSH1 0xF9 SHL PUSH1 0x64 DUP3 ADD MSTORE PUSH1 0x84 SWAP1 REVERT JUMPDEST SWAP1 POP MLOAD PUSH2 0x65B DUP2 PUSH2 0x1648 JUMP JUMPDEST PUSH2 0x664 DUP2 PUSH2 0x1648 JUMP JUMPDEST ISZERO DUP4 PUSH2 0x337 JUMP JUMPDEST POP RETURNDATASIZE DUP1 PUSH1 0x0 DUP4 RETURNDATACOPY PUSH2 0x67C DUP2 DUP4 PUSH2 0x171D JUMP JUMPDEST PUSH1 0x20 DUP3 DUP3 DUP2 ADD SUB SLT PUSH2 0x19D JUMPI DUP2 MLOAD PUSH8 0xFFFFFFFFFFFFFFFF DUP2 GT PUSH2 0x19D JUMPI PUSH2 0x140 SWAP2 DUP3 DUP3 DUP6 ADD DUP3 DUP7 ADD SUB SLT PUSH2 0x19D JUMPI PUSH1 0x40 MLOAD SWAP3 DUP4 DUP2 DUP2 ADD LT PUSH8 0xFFFFFFFFFFFFFFFF DUP3 DUP7 ADD GT OR PUSH2 0x5C8 JUMPI DUP4 ADD PUSH1 0x40 MSTORE DUP4 DUP3 ADD DUP1 MLOAD DUP5 MSTORE PUSH1 0x20 ADD MLOAD PUSH1 0x1 PUSH1 0x1 PUSH1 0xA0 SHL SUB DUP2 AND DUP2 SUB PUSH2 0x19D JUMPI PUSH1 0x20 DUP5 ADD MSTORE PUSH2 0x6F8 PUSH1 0x40 DUP4 DUP7 ADD ADD PUSH2 0x1A23 JUMP JUMPDEST PUSH1 0x40 DUP5 ADD MSTORE PUSH2 0x70B PUSH1 0x60 DUP4 DUP7 ADD ADD PUSH2 0x1A23 JUMP JUMPDEST PUSH1 0x60 DUP5 ADD MSTORE PUSH2 0x71E PUSH1 0x80 DUP4 DUP7 ADD ADD PUSH2 0x1A23 JUMP JUMPDEST PUSH1 0x80 DUP5 ADD MSTORE PUSH2 0x731 PUSH1 0xA0 DUP4 DUP7 ADD ADD PUSH2 0x1A23 JUMP JUMPDEST PUSH1 0xA0 DUP5 ADD MSTORE PUSH1 0xC0 DUP3 DUP6 ADD ADD MLOAD PUSH1 0x5 DUP2 LT ISZERO PUSH2 0x19D JUMPI PUSH1 0xC0 DUP5 ADD MSTORE DUP4 DUP3 ADD PUSH1 0xE0 DUP2 DUP2 ADD MLOAD SWAP1 DUP6 ADD MSTORE PUSH2 0x100 ADD MLOAD SWAP4 PUSH8 0xFFFFFFFFFFFFFFFF DUP6 GT PUSH2 0x19D JUMPI DUP2 DUP2 ADD PUSH1 0x1F DUP7 DUP6 DUP5 ADD ADD ADD SLT ISZERO PUSH2 0x19D JUMPI DUP5 DUP4 DUP3 ADD ADD MLOAD SWAP2 PUSH2 0x78E DUP4 PUSH2 0x173F JUMP JUMPDEST SWAP1 PUSH2 0x79C PUSH1 0x40 MLOAD SWAP3 DUP4 PUSH2 0x171D JUMP JUMPDEST DUP4 DUP3 MSTORE DUP3 ADD PUSH1 0x20 DUP5 DUP9 DUP8 DUP7 ADD ADD ADD ADD GT PUSH2 0x19D JUMPI PUSH2 0x7CA PUSH2 0x7DC SWAP4 PUSH1 0xC0 SWAP8 PUSH1 0x20 DUP1 DUP6 ADD SWAP2 DUP9 DUP8 ADD ADD ADD PUSH2 0x1A31 JUMP JUMPDEST PUSH2 0x100 DUP6 ADD MSTORE PUSH2 0x120 SWAP3 ADD DUP3 ADD PUSH2 0x19D3 JUMP JUMPDEST SWAP1 DUP3 ADD MSTORE PUSH2 0x313 JUMP JUMPDEST PUSH1 0x40 MLOAD PUSH3 0x461BCD PUSH1 0xE5 SHL DUP2 MSTORE PUSH1 0x20 PUSH1 0x4 DUP3 ADD MSTORE PUSH1 0x15 PUSH1 0x24 DUP3 ADD MSTORE PUSH21 0x496E76616C6964207175616C6974792073636F7265 PUSH1 0x58 SHL PUSH1 0x44 DUP3 ADD MSTORE PUSH1 0x64 SWAP1 REVERT JUMPDEST PUSH1 0x40 MLOAD PUSH3 0x461BCD PUSH1 0xE5 SHL DUP2 MSTORE PUSH1 0x20 PUSH1 0x4 DUP3 ADD MSTORE PUSH1 0x14 PUSH1 0x24 DUP3 ADD MSTORE PUSH20 0x92DCECC2D8D2C840C6DEDCE8CADCE840D0C2E6D PUSH1 0x63 SHL PUSH1 0x44 DUP3 ADD MSTORE PUSH1 0x64 SWAP1 REVERT JUMPDEST POP PUSH1 0x20 DUP2 RETURNDATASIZE PUSH1 0x20 GT PUSH2 0x891 JUMPI JUMPDEST DUP2 PUSH2 0x878 PUSH1 0x20 SWAP4 DUP4 PUSH2 0x171D JUMP JUMPDEST DUP2 ADD SUB SLT PUSH2 0x19D JUMPI PUSH2 0x88C PUSH2 0x2C5 SWAP2 PUSH2 0x19D3 JUMP JUMPDEST PUSH2 0x2BB JUMP JUMPDEST RETURNDATASIZE SWAP2 POP PUSH2 0x86B JUMP JUMPDEST PUSH1 0x40 MLOAD PUSH4 0x3EE5AEB5 PUSH1 0xE0 SHL DUP2 MSTORE PUSH1 0x4 SWAP1 REVERT JUMPDEST CALLVALUE PUSH2 0x19D JUMPI PUSH1 0x40 CALLDATASIZE PUSH1 0x3 NOT ADD SLT PUSH2 0x19D JUMPI PUSH1 0x4 CALLDATALOAD PUSH1 0x24 CALLDATALOAD SWAP1 DUP2 ISZERO ISZERO SWAP2 DUP3 DUP2 SUB PUSH2 0x19D JUMPI DUP2 PUSH1 0x0 MSTORE PUSH1 0x20 SWAP1 PUSH1 0x5 DUP3 MSTORE PUSH2 0x8E9 PUSH1 0x40 PUSH1 0x0 KECCAK256 SLOAD ISZERO ISZERO PUSH2 0x1ADE JUMP JUMPDEST PUSH1 0x2 SLOAD PUSH1 0x40 MLOAD PUSH4 0x1EB30AEB PUSH1 0xE0 SHL DUP2 MSTORE CALLER PUSH1 0x4 DUP3 ADD MSTORE SWAP1 DUP4 SWAP1 DUP3 SWAP1 PUSH1 0x24 SWAP1 DUP3 SWAP1 PUSH1 0x1 PUSH1 0x1 PUSH1 0xA0 SHL SUB AND GAS STATICCALL DUP1 ISZERO PUSH2 0x5DE JUMPI PUSH1 0x0 SWAP1 PUSH2 0xA6D JUMPI JUMPDEST PUSH2 0x92C SWAP2 POP PUSH2 0x19E0 JUMP JUMPDEST DUP3 PUSH1 0x0 MSTORE PUSH1 0x8 DUP3 MSTORE PUSH1 0x40 PUSH1 0x0 KECCAK256 CALLER PUSH1 0x0 MSTORE DUP3 MSTORE PUSH1 0xFF PUSH1 0x40 PUSH1 0x0 KECCAK256 SLOAD AND PUSH2 0xA38 JUMPI SWAP1 PUSH32 0x54B940565350152EE27400157B7FCC52C60B4349A9113EFCF29872413DCCCE0 SWAP2 DUP4 PUSH1 0x0 MSTORE PUSH1 0x5 DUP3 MSTORE PUSH2 0x99A PUSH1 0x1 PUSH1 0xFF PUSH1 0x4 PUSH1 0x40 PUSH1 0x0 KECCAK256 ADD SLOAD PUSH1 0x8 SHR AND PUSH2 0x994 DUP2 PUSH2 0x1648 JUMP JUMPDEST EQ PUSH2 0x1B62 JUMP JUMPDEST DUP4 PUSH1 0x0 MSTORE PUSH1 0x8 DUP3 MSTORE PUSH1 0x40 PUSH1 0x0 KECCAK256 CALLER PUSH1 0x0 MSTORE DUP3 MSTORE PUSH1 0x40 PUSH1 0x0 KECCAK256 PUSH1 0x1 PUSH1 0xFF NOT DUP3 SLOAD AND OR SWAP1 SSTORE DUP4 PUSH1 0x0 MSTORE PUSH1 0x9 DUP3 MSTORE PUSH1 0x40 PUSH1 0x0 KECCAK256 CALLER PUSH1 0x0 MSTORE DUP3 MSTORE PUSH2 0x9EA DUP2 PUSH1 0x40 PUSH1 0x0 KECCAK256 SWAP1 PUSH1 0xFF DUP1 NOT DUP4 SLOAD AND SWAP2 ISZERO ISZERO AND OR SWAP1 SSTORE JUMP JUMPDEST ISZERO PUSH2 0xA17 JUMPI DUP3 PUSH1 0x0 MSTORE PUSH1 0x5 DUP2 MSTORE PUSH1 0x7 PUSH1 0x40 PUSH1 0x0 KECCAK256 ADD PUSH2 0xA09 DUP2 SLOAD PUSH2 0x1A54 JUMP JUMPDEST SWAP1 SSTORE JUMPDEST PUSH1 0x40 MLOAD SWAP4 DUP5 MSTORE CALLER SWAP4 LOG3 STOP JUMPDEST DUP3 PUSH1 0x0 MSTORE PUSH1 0x5 DUP2 MSTORE PUSH1 0x8 PUSH1 0x40 PUSH1 0x0 KECCAK256 ADD PUSH2 0xA31 DUP2 SLOAD PUSH2 0x1A54 JUMP JUMPDEST SWAP1 SSTORE PUSH2 0xA0C JUMP JUMPDEST PUSH1 0x40 MLOAD PUSH3 0x461BCD PUSH1 0xE5 SHL DUP2 MSTORE PUSH1 0x4 DUP2 ADD DUP4 SWAP1 MSTORE PUSH1 0xD PUSH1 0x24 DUP3 ADD MSTORE PUSH13 0x105B1C9958591E481D9BDD1959 PUSH1 0x9A SHL PUSH1 0x44 DUP3 ADD MSTORE PUSH1 0x64 SWAP1 REVERT JUMPDEST POP DUP3 DUP2 DUP2 RETURNDATASIZE DUP4 GT PUSH2 0xA9C JUMPI JUMPDEST PUSH2 0xA83 DUP2 DUP4 PUSH2 0x171D JUMP JUMPDEST DUP2 ADD SUB SLT PUSH2 0x19D JUMPI PUSH2 0xA97 PUSH2 0x92C SWAP2 PUSH2 0x19D3 JUMP JUMPDEST PUSH2 0x922 JUMP JUMPDEST POP RETURNDATASIZE PUSH2 0xA79 JUMP JUMPDEST CALLVALUE PUSH2 0x19D JUMPI PUSH1 0x40 CALLDATASIZE PUSH1 0x3 NOT ADD SLT PUSH2 0x19D JUMPI PUSH1 0x4 CALLDATALOAD PUSH1 0x24 CALLDATALOAD PUSH8 0xFFFFFFFFFFFFFFFF DUP2 GT PUSH2 0x19D JUMPI CALLDATASIZE PUSH1 0x23 DUP3 ADD SLT ISZERO PUSH2 0x19D JUMPI DUP1 PUSH1 0x4 ADD CALLDATALOAD SWAP1 PUSH2 0xAE3 DUP3 PUSH2 0x173F JUMP JUMPDEST SWAP2 PUSH2 0xAF1 PUSH1 0x40 MLOAD SWAP4 DUP5 PUSH2 0x171D JUMP JUMPDEST DUP1 DUP4 MSTORE PUSH1 0x20 SWAP1 DUP2 DUP5 ADD SWAP3 CALLDATASIZE PUSH1 0x24 DUP4 DUP4 ADD ADD GT PUSH2 0x19D JUMPI DUP2 PUSH1 0x0 SWAP3 PUSH1 0x24 DUP6 SWAP4 ADD DUP7 CALLDATACOPY DUP6 ADD ADD MSTORE PUSH2 0xB1E PUSH2 0x175B JUMP JUMPDEST DUP4 PUSH1 0x0 MSTORE PUSH1 0x5 DUP2 MSTORE PUSH2 0xB36 PUSH1 0x40 PUSH1 0x0 KECCAK256 SLOAD ISZERO ISZERO PUSH2 0x1ADE JUMP JUMPDEST DUP4 PUSH1 0x0 MSTORE PUSH1 0x5 DUP2 MSTORE PUSH2 0xB5F PUSH1 0xFF PUSH1 0x4 PUSH1 0x40 PUSH1 0x0 KECCAK256 ADD SLOAD PUSH1 0x8 SHR AND PUSH2 0xB59 DUP2 PUSH2 0x1648 JUMP JUMPDEST ISZERO PUSH2 0x1B1F JUMP JUMPDEST DUP3 MLOAD ISZERO PUSH2 0xBDC JUMPI PUSH32 0x3EB1D1F17EF66298530C31C6628B442533D510A89CC609D7F03E721A69EB51A6 SWAP3 PUSH2 0xBC8 SWAP3 PUSH1 0x60 SWAP3 DUP7 PUSH1 0x0 MSTORE PUSH1 0x5 DUP2 MSTORE PUSH1 0x4 PUSH1 0x40 PUSH1 0x0 KECCAK256 ADD PUSH2 0x200 PUSH2 0xFF00 NOT DUP3 SLOAD AND OR SWAP1 SSTORE PUSH1 0x40 MLOAD SWAP5 DUP6 SWAP4 PUSH1 0x40 DUP6 MSTORE MLOAD DUP1 SWAP4 DUP2 PUSH1 0x40 DUP8 ADD MSTORE DUP7 DUP7 ADD SWAP1 PUSH2 0x1A31 JUMP JUMPDEST TIMESTAMP SWAP1 DUP4 ADD MSTORE PUSH1 0x1F ADD PUSH1 0x1F NOT AND DUP2 ADD SUB ADD SWAP1 LOG2 STOP JUMPDEST PUSH1 0x64 SWAP1 PUSH1 0x40 MLOAD SWAP1 PUSH3 0x461BCD PUSH1 0xE5 SHL DUP3 MSTORE PUSH1 0x4 DUP3 ADD MSTORE PUSH1 0xF PUSH1 0x24 DUP3 ADD MSTORE PUSH15 0x1499585CDBDB881C995C5D5A5C9959 PUSH1 0x8A SHL PUSH1 0x44 DUP3 ADD MSTORE REVERT JUMPDEST CALLVALUE PUSH2 0x19D JUMPI PUSH1 0x20 CALLDATASIZE PUSH1 0x3 NOT ADD SLT PUSH2 0x19D JUMPI PUSH2 0x239 PUSH2 0xC2E PUSH2 0x16A3 JUMP JUMPDEST PUSH2 0xC36 PUSH2 0x17C3 JUMP JUMPDEST PUSH1 0x0 DUP1 MLOAD PUSH1 0x20 PUSH2 0x1BA7 DUP4 CODECOPY DUP2 MLOAD SWAP2 MSTORE PUSH1 0x0 SWAP1 DUP2 MSTORE PUSH1 0x20 MSTORE PUSH32 0xF179AAFCC4FF8137FCA1EF3B9EC4D165F87016BA123E7973FBA770BC55E240E4 SLOAD PUSH2 0xC78 SWAP1 PUSH2 0x181F JUMP JUMPDEST PUSH2 0x1845 JUMP JUMPDEST CALLVALUE PUSH2 0x19D JUMPI PUSH1 0x40 CALLDATASIZE PUSH1 0x3 NOT ADD SLT PUSH2 0x19D JUMPI PUSH2 0xC96 PUSH2 0x168D JUMP JUMPDEST PUSH1 0x4 CALLDATALOAD PUSH1 0x0 MSTORE PUSH1 0x9 PUSH1 0x20 MSTORE PUSH1 0x40 PUSH1 0x0 KECCAK256 SWAP1 PUSH1 0x1 DUP1 PUSH1 0xA0 SHL SUB AND PUSH1 0x0 MSTORE PUSH1 0x20 MSTORE PUSH1 0x20 PUSH1 0xFF PUSH1 0x40 PUSH1 0x0 KECCAK256 SLOAD AND PUSH1 0x40 MLOAD SWAP1 ISZERO ISZERO DUP2 MSTORE RETURN JUMPDEST CALLVALUE PUSH2 0x19D JUMPI PUSH1 0x0 CALLDATASIZE PUSH1 0x3 NOT ADD SLT PUSH2 0x19D JUMPI PUSH1 0x20 PUSH1 0x40 MLOAD PUSH1 0x0 DUP2 MSTORE RETURN JUMPDEST CALLVALUE PUSH2 0x19D JUMPI PUSH1 0x0 CALLDATASIZE PUSH1 0x3 NOT ADD SLT PUSH2 0x19D JUMPI PUSH1 0x3 SLOAD PUSH1 0x40 MLOAD PUSH1 0x1 PUSH1 0x1 PUSH1 0xA0 SHL SUB SWAP1 SWAP2 AND DUP2 MSTORE PUSH1 0x20 SWAP1 RETURN JUMPDEST CALLVALUE PUSH2 0x19D JUMPI PUSH1 0x0 CALLDATASIZE PUSH1 0x3 NOT ADD SLT PUSH2 0x19D JUMPI PUSH1 0x2 SLOAD PUSH1 0x40 MLOAD PUSH1 0x1 PUSH1 0x1 PUSH1 0xA0 SHL SUB SWAP1 SWAP2 AND DUP2 MSTORE PUSH1 0x20 SWAP1 RETURN JUMPDEST CALLVALUE PUSH2 0x19D JUMPI PUSH1 0x40 CALLDATASIZE PUSH1 0x3 NOT ADD SLT PUSH2 0x19D JUMPI PUSH2 0xD51 PUSH2 0x168D JUMP JUMPDEST PUSH1 0x4 CALLDATALOAD PUSH1 0x0 MSTORE PUSH1 0x0 PUSH1 0x20 MSTORE PUSH1 0x40 PUSH1 0x0 KECCAK256 SWAP1 PUSH1 0x1 DUP1 PUSH1 0xA0 SHL SUB AND PUSH1 0x0 MSTORE PUSH1 0x20 MSTORE PUSH1 0x20 PUSH1 0xFF PUSH1 0x40 PUSH1 0x0 KECCAK256 SLOAD AND PUSH1 0x40 MLOAD SWAP1 ISZERO ISZERO DUP2 MSTORE RETURN JUMPDEST CALLVALUE PUSH2 0x19D JUMPI PUSH1 0x40 CALLDATASIZE PUSH1 0x3 NOT ADD SLT PUSH2 0x19D JUMPI PUSH1 0x4 CALLDATALOAD PUSH1 0x8 DUP2 LT ISZERO PUSH2 0x19D JUMPI PUSH2 0xDAE PUSH1 0x24 CALLDATALOAD SWAP2 PUSH2 0x16B9 JUMP JUMPDEST DUP1 SLOAD DUP3 LT ISZERO PUSH2 0x19D JUMPI PUSH1 0x20 SWAP2 PUSH2 0x1EC SWAP2 PUSH2 0x16D2 JUMP JUMPDEST CALLVALUE PUSH2 0x19D JUMPI PUSH1 0x0 CALLDATASIZE PUSH1 0x3 NOT ADD SLT PUSH2 0x19D JUMPI PUSH1 0x20 PUSH1 0x40 MLOAD PUSH1 0x0 DUP1 MLOAD PUSH1 0x20 PUSH2 0x1BA7 DUP4 CODECOPY DUP2 MLOAD SWAP2 MSTORE DUP2 MSTORE RETURN JUMPDEST CALLVALUE PUSH2 0x19D JUMPI PUSH1 0x0 CALLDATASIZE PUSH1 0x3 NOT ADD SLT PUSH2 0x19D JUMPI PUSH1 0x20 PUSH1 0x40 MLOAD PUSH32 0xA49807205CE4D355092EF5A8A18F56E8913CF4A201FBE287825B095693C21775 DUP2 MSTORE RETURN JUMPDEST CALLVALUE PUSH2 0x19D JUMPI PUSH1 0x20 DUP1 PUSH1 0x3 NOT CALLDATASIZE ADD SLT PUSH2 0x19D JUMPI PUSH1 0x4 CALLDATALOAD SWAP1 PUSH2 0xE45 PUSH2 0x17C3 JUMP JUMPDEST DUP2 PUSH1 0x0 MSTORE PUSH1 0x5 DUP2 MSTORE PUSH2 0xE5D PUSH1 0x40 PUSH1 0x0 KECCAK256 SLOAD ISZERO ISZERO PUSH2 0x1ADE JUMP JUMPDEST DUP2 PUSH1 0x0 MSTORE PUSH1 0x5 DUP2 MSTORE PUSH2 0xE82 PUSH1 0x1 PUSH1 0xFF PUSH1 0x4 PUSH1 0x40 PUSH1 0x0 KECCAK256 ADD SLOAD PUSH1 0x8 SHR AND PUSH2 0x994 DUP2 PUSH2 0x1648 JUMP JUMPDEST DUP2 PUSH1 0x0 MSTORE PUSH1 0x5 DUP2 MSTORE PUSH1 0xFF PUSH1 0x9 PUSH1 0x40 PUSH1 0x0 KECCAK256 ADD SLOAD AND PUSH2 0xEFF JUMPI PUSH32 0xEB8653740E8B8186075D3D2D372BD21ED4D59DC87EFF8721710A29C409525254 SWAP1 DUP3 PUSH1 0x0 MSTORE PUSH1 0x5 DUP2 MSTORE PUSH1 0x9 PUSH1 0x40 PUSH1 0x0 KECCAK256 PUSH1 0x4 DUP2 ADD PUSH2 0x300 PUSH2 0xFF00 NOT DUP3 SLOAD AND OR SWAP1 SSTORE ADD PUSH1 0x1 PUSH1 0xFF NOT DUP3 SLOAD AND OR SWAP1 SSTORE PUSH2 0xEF3 PUSH1 0xD SLOAD PUSH2 0x1A54 JUMP JUMPDEST PUSH1 0xD SSTORE PUSH1 0x40 MLOAD TIMESTAMP DUP2 MSTORE LOG2 STOP JUMPDEST PUSH1 0x64 SWAP1 PUSH1 0x40 MLOAD SWAP1 PUSH3 0x461BCD PUSH1 0xE5 SHL DUP3 MSTORE PUSH1 0x4 DUP3 ADD MSTORE PUSH1 0x13 PUSH1 0x24 DUP3 ADD MSTORE PUSH19 0x105B1C9958591E481A5B5C1B195B595B9D1959 PUSH1 0x6A SHL PUSH1 0x44 DUP3 ADD MSTORE REVERT JUMPDEST CALLVALUE PUSH2 0x19D JUMPI PUSH1 0x20 DUP1 PUSH1 0x3 NOT CALLDATASIZE ADD SLT PUSH2 0x19D JUMPI PUSH1 0x1 PUSH1 0x1 PUSH1 0xA0 SHL SUB PUSH2 0xF5B PUSH2 0x16A3 JUMP JUMPDEST AND PUSH1 0x0 MSTORE PUSH1 0x6 DUP2 MSTORE PUSH1 0x40 PUSH1 0x0 KECCAK256 SWAP1 PUSH1 0x40 MLOAD SWAP1 DUP2 DUP2 DUP5 SLOAD SWAP2 DUP3 DUP2 MSTORE ADD SWAP4 PUSH1 0x0 MSTORE DUP2 PUSH1 0x0 KECCAK256 SWAP2 PUSH1 0x0 SWAP1 JUMPDEST DUP3 DUP3 LT PUSH2 0xFAA JUMPI PUSH2 0xFA6 DUP6 PUSH2 0xF9A DUP2 DUP10 SUB DUP3 PUSH2 0x171D JUMP JUMPDEST PUSH1 0x40 MLOAD SWAP2 DUP3 SWAP2 DUP3 PUSH2 0x1652 JUMP JUMPDEST SUB SWAP1 RETURN JUMPDEST DUP4 SLOAD DUP7 MSTORE SWAP5 DUP6 ADD SWAP5 PUSH1 0x1 SWAP4 DUP5 ADD SWAP4 SWAP1 SWAP2 ADD SWAP1 PUSH2 0xF83 JUMP JUMPDEST CALLVALUE PUSH2 0x19D JUMPI PUSH1 0x0 CALLDATASIZE PUSH1 0x3 NOT ADD SLT PUSH2 0x19D JUMPI PUSH1 0x4 SLOAD PUSH1 0x40 MLOAD PUSH1 0x1 PUSH1 0x1 PUSH1 0xA0 SHL SUB SWAP1 SWAP2 AND DUP2 MSTORE PUSH1 0x20 SWAP1 RETURN JUMPDEST CALLVALUE PUSH2 0x19D JUMPI PUSH1 0x40 CALLDATASIZE PUSH1 0x3 NOT ADD SLT PUSH2 0x19D JUMPI PUSH2 0x1003 PUSH2 0x168D JUMP JUMPDEST PUSH1 0x4 CALLDATALOAD PUSH1 0x0 MSTORE PUSH1 0x8 PUSH1 0x20 MSTORE PUSH1 0x40 PUSH1 0x0 KECCAK256 SWAP1 PUSH1 0x1 DUP1 PUSH1 0xA0 SHL SUB AND PUSH1 0x0 MSTORE PUSH1 0x20 MSTORE PUSH1 0x20 PUSH1 0xFF PUSH1 0x40 PUSH1 0x0 KECCAK256 SLOAD AND PUSH1 0x40 MLOAD SWAP1 ISZERO ISZERO DUP2 MSTORE RETURN JUMPDEST CALLVALUE PUSH2 0x19D JUMPI PUSH1 0x0 CALLDATASIZE PUSH1 0x3 NOT ADD SLT PUSH2 0x19D JUMPI PUSH1 0x20 PUSH1 0xB SLOAD PUSH1 0x40 MLOAD SWAP1 DUP2 MSTORE RETURN JUMPDEST CALLVALUE PUSH2 0x19D JUMPI PUSH1 0x40 CALLDATASIZE PUSH1 0x3 NOT ADD SLT PUSH2 0x19D JUMPI PUSH1 0x4 CALLDATALOAD PUSH1 0x24 CALLDATALOAD PUSH1 0x5 DUP2 LT ISZERO PUSH2 0x19D JUMPI PUSH1 0x20 PUSH32 0xC3F79C1FA6B9614427B58CD0784A988A2C068F0CF54905FE3756B50455A33972 SWAP2 PUSH2 0x10A1 PUSH2 0x175B JUMP JUMPDEST DUP4 PUSH1 0x0 MSTORE PUSH1 0x5 DUP3 MSTORE PUSH2 0x10B9 PUSH1 0x40 PUSH1 0x0 KECCAK256 SLOAD ISZERO ISZERO PUSH2 0x1ADE JUMP JUMPDEST DUP4 PUSH1 0x0 MSTORE PUSH1 0x5 DUP3 MSTORE PUSH2 0x10D2 DUP2 PUSH1 0x4 PUSH1 0x40 PUSH1 0x0 KECCAK256 ADD PUSH2 0x1A85 JUMP JUMPDEST PUSH1 0x40 MLOAD SWAP1 PUSH2 0x10DF DUP2 PUSH2 0x1648 JUMP JUMPDEST DUP2 MSTORE LOG2 STOP JUMPDEST CALLVALUE PUSH2 0x19D JUMPI PUSH1 0x0 CALLDATASIZE PUSH1 0x3 NOT ADD SLT PUSH2 0x19D JUMPI PUSH1 0x60 PUSH1 0xB SLOAD PUSH1 0xC SLOAD PUSH1 0xD SLOAD SWAP1 PUSH1 0x40 MLOAD SWAP3 DUP4 MSTORE PUSH1 0x20 DUP4 ADD MSTORE PUSH1 0x40 DUP3 ADD MSTORE RETURN JUMPDEST CALLVALUE PUSH2 0x19D JUMPI PUSH1 0x40 CALLDATASIZE PUSH1 0x3 NOT ADD SLT PUSH2 0x19D JUMPI PUSH2 0x112C PUSH2 0x168D JUMP JUMPDEST CALLER PUSH1 0x1 PUSH1 0x1 PUSH1 0xA0 SHL SUB DUP3 AND SUB PUSH2 0x1148 JUMPI PUSH2 0x239 SWAP1 PUSH1 0x4 CALLDATALOAD PUSH2 0x195E JUMP JUMPDEST PUSH1 0x40 MLOAD PUSH4 0x334BD919 PUSH1 0xE1 SHL DUP2 MSTORE PUSH1 0x4 SWAP1 REVERT JUMPDEST CALLVALUE PUSH2 0x19D JUMPI PUSH1 0x20 CALLDATASIZE PUSH1 0x3 NOT ADD SLT PUSH2 0x19D JUMPI PUSH1 0x4 CALLDATALOAD PUSH2 0x1176 PUSH2 0x175B JUMP JUMPDEST DUP1 PUSH1 0x0 MSTORE PUSH1 0x5 PUSH1 0x20 MSTORE PUSH2 0x118F PUSH1 0x40 PUSH1 0x0 KECCAK256 SLOAD ISZERO ISZERO PUSH2 0x1ADE JUMP JUMPDEST DUP1 PUSH1 0x0 MSTORE PUSH1 0x5 PUSH1 0x20 MSTORE PUSH2 0x11B3 PUSH1 0xFF PUSH1 0x4 PUSH1 0x40 PUSH1 0x0 KECCAK256 ADD SLOAD PUSH1 0x8 SHR AND PUSH2 0xB59 DUP2 PUSH2 0x1648 JUMP JUMPDEST DUP1 PUSH1 0x0 MSTORE PUSH1 0x5 PUSH1 0x20 MSTORE PUSH1 0x4 PUSH1 0x40 PUSH1 0x0 KECCAK256 ADD PUSH2 0x100 PUSH2 0xFF00 NOT DUP3 SLOAD AND OR SWAP1 SSTORE PUSH2 0x11DC PUSH1 0xC SLOAD PUSH2 0x1A54 JUMP JUMPDEST PUSH1 0xC SSTORE PUSH32 0xF3EAFFD6843361DE132EB6E2AE58D34E018178D3575203F32434D800971D70E7 PUSH1 0x20 PUSH1 0x40 MLOAD TIMESTAMP DUP2 MSTORE LOG2 STOP JUMPDEST CALLVALUE PUSH2 0x19D JUMPI PUSH1 0x40 CALLDATASIZE PUSH1 0x3 NOT ADD SLT PUSH2 0x19D JUMPI PUSH2 0x239 PUSH1 0x4 CALLDATALOAD PUSH2 0x122A PUSH2 0x168D JUMP JUMPDEST SWAP1 DUP1 PUSH1 0x0 MSTORE PUSH1 0x0 PUSH1 0x20 MSTORE PUSH2 0x1245 PUSH1 0x1 PUSH1 0x40 PUSH1 0x0 KECCAK256 ADD SLOAD PUSH2 0x181F JUMP JUMPDEST PUSH2 0x18E5 JUMP JUMPDEST CALLVALUE PUSH2 0x19D JUMPI PUSH1 0x20 CALLDATASIZE PUSH1 0x3 NOT ADD SLT PUSH2 0x19D JUMPI PUSH1 0x4 CALLDATALOAD PUSH1 0x0 MSTORE PUSH1 0x5 PUSH1 0x20 MSTORE PUSH2 0x1A0 PUSH1 0x40 PUSH1 0x0 KECCAK256 DUP1 SLOAD SWAP1 PUSH1 0x1 DUP2 ADD SLOAD SWAP1 PUSH1 0x2 DUP2 ADD SLOAD SWAP1 PUSH1 0x9 PUSH1 0x3 DUP3 ADD SLOAD SWAP2 PUSH1 0x4 DUP2 ADD SLOAD SWAP1 PUSH1 0x5 DUP2 ADD SLOAD SWAP1 PUSH1 0x6 DUP2 ADD SLOAD SWAP3 PUSH1 0x7 DUP3 ADD SLOAD SWAP6 PUSH1 0x8 DUP4 ADD SLOAD SWAP8 PUSH2 0x12D3 PUSH1 0xFF DUP1 SWAP9 DUP2 SWAP7 ADD SLOAD AND SWAP11 DUP6 PUSH1 0x40 DUP1 MLOAD SWAP15 DUP16 SWAP1 DUP2 MSTORE PUSH1 0x1 DUP1 PUSH1 0xA0 SHL SUB DUP5 AND PUSH1 0x20 DUP3 ADD MSTORE ADD SWAP2 PUSH1 0xA0 SHR AND PUSH2 0x163B JUMP JUMPDEST PUSH1 0x60 DUP12 ADD MSTORE PUSH1 0x80 DUP11 ADD MSTORE DUP2 DUP2 AND PUSH1 0xA0 DUP11 ADD MSTORE PUSH1 0x8 SHR AND PUSH2 0x12F2 DUP2 PUSH2 0x1648 JUMP JUMPDEST PUSH1 0xC0 DUP9 ADD MSTORE PUSH1 0xE0 DUP8 ADD MSTORE DUP2 DUP2 AND ISZERO ISZERO PUSH2 0x100 DUP8 ADD MSTORE PUSH1 0x8 SHR AND ISZERO ISZERO PUSH2 0x120 DUP6 ADD MSTORE PUSH2 0x140 DUP5 ADD MSTORE PUSH2 0x160 DUP4 ADD MSTORE ISZERO ISZERO PUSH2 0x180 DUP3 ADD MSTORE RETURN JUMPDEST CALLVALUE PUSH2 0x19D JUMPI PUSH1 0x20 DUP1 PUSH1 0x3 NOT CALLDATASIZE ADD SLT PUSH2 0x19D JUMPI PUSH1 0x4 CALLDATALOAD PUSH1 0x8 DUP2 LT ISZERO PUSH2 0x19D JUMPI PUSH2 0x1350 SWAP1 PUSH2 0x16B9 JUMP JUMPDEST SWAP1 PUSH1 0x40 MLOAD SWAP1 DUP2 DUP2 DUP5 SLOAD SWAP2 DUP3 DUP2 MSTORE ADD SWAP4 PUSH1 0x0 MSTORE DUP2 PUSH1 0x0 KECCAK256 SWAP2 PUSH1 0x0 SWAP1 JUMPDEST DUP3 DUP3 LT PUSH2 0x1382 JUMPI PUSH2 0xFA6 DUP6 PUSH2 0xF9A DUP2 DUP10 SUB DUP3 PUSH2 0x171D JUMP JUMPDEST DUP4 SLOAD DUP7 MSTORE SWAP5 DUP6 ADD SWAP5 PUSH1 0x1 SWAP4 DUP5 ADD SWAP4 SWAP1 SWAP2 ADD SWAP1 PUSH2 0x136B JUMP JUMPDEST CALLVALUE PUSH2 0x19D JUMPI PUSH1 0x20 CALLDATASIZE PUSH1 0x3 NOT ADD SLT PUSH2 0x19D JUMPI PUSH1 0x4 CALLDATALOAD PUSH1 0x0 MSTORE PUSH1 0x0 PUSH1 0x20 MSTORE PUSH1 0x20 PUSH1 0x1 PUSH1 0x40 PUSH1 0x0 KECCAK256 ADD SLOAD PUSH1 0x40 MLOAD SWAP1 DUP2 MSTORE RETURN JUMPDEST CALLVALUE PUSH2 0x19D JUMPI PUSH1 0x0 CALLDATASIZE PUSH1 0x3 NOT ADD SLT PUSH2 0x19D JUMPI PUSH1 0x20 PUSH1 0xC SLOAD PUSH1 0x40 MLOAD SWAP1 DUP2 MSTORE RETURN JUMPDEST CALLVALUE PUSH2 0x19D JUMPI PUSH1 0x0 CALLDATASIZE PUSH1 0x3 NOT ADD SLT PUSH2 0x19D JUMPI PUSH1 0x20 PUSH1 0xD SLOAD PUSH1 0x40 MLOAD SWAP1 DUP2 MSTORE RETURN JUMPDEST CALLVALUE PUSH2 0x19D JUMPI PUSH1 0x20 CALLDATASIZE PUSH1 0x3 NOT ADD SLT PUSH2 0x19D JUMPI PUSH1 0x0 PUSH2 0x180 PUSH1 0x40 MLOAD PUSH2 0x1426 DUP2 PUSH2 0x1700 JUMP JUMPDEST DUP3 DUP2 MSTORE DUP3 PUSH1 0x20 DUP3 ADD MSTORE DUP3 PUSH1 0x40 DUP3 ADD MSTORE DUP3 PUSH1 0x60 DUP3 ADD MSTORE DUP3 PUSH1 0x80 DUP3 ADD MSTORE DUP3 PUSH1 0xA0 DUP3 ADD MSTORE DUP3 PUSH1 0xC0 DUP3 ADD MSTORE DUP3 PUSH1 0xE0 DUP3 ADD MSTORE DUP3 PUSH2 0x100 DUP3 ADD MSTORE DUP3 PUSH2 0x120 DUP3 ADD MSTORE DUP3 PUSH2 0x140 DUP3 ADD MSTORE DUP3 PUSH2 0x160 DUP3 ADD MSTORE ADD MSTORE PUSH1 0x4 CALLDATALOAD PUSH1 0x0 MSTORE PUSH1 0x5 PUSH1 0x20 MSTORE PUSH2 0x1A0 PUSH1 0x40 PUSH1 0x0 KECCAK256 PUSH1 0xFF PUSH1 0x9 PUSH1 0x40 MLOAD SWAP3 PUSH2 0x1495 DUP5 PUSH2 0x1700 JUMP JUMPDEST DUP1 SLOAD DUP5 MSTORE PUSH1 0x1 DUP2 ADD SLOAD PUSH1 0x1 PUSH1 0x1 PUSH1 0xA0 SHL SUB DUP2 AND PUSH1 0x20 DUP7 ADD MSTORE PUSH2 0x14BF SWAP1 PUSH1 0xA0 SHR DUP5 AND PUSH1 0x40 DUP7 ADD PUSH2 0x1A79 JUMP JUMPDEST PUSH1 0x2 DUP2 ADD SLOAD PUSH1 0x60 DUP6 ADD MSTORE PUSH1 0x3 DUP2 ADD SLOAD PUSH1 0x80 DUP6 ADD MSTORE DUP3 PUSH1 0x4 DUP3 ADD SLOAD DUP2 DUP2 AND PUSH1 0xA0 DUP8 ADD MSTORE PUSH1 0x8 SHR AND PUSH2 0x14EE DUP2 PUSH2 0x1648 JUMP JUMPDEST PUSH1 0xC0 DUP6 ADD MSTORE PUSH1 0x5 DUP2 ADD SLOAD PUSH1 0xE0 DUP6 ADD MSTORE DUP3 PUSH1 0x6 DUP3 ADD SLOAD DUP2 DUP2 AND ISZERO ISZERO PUSH2 0x100 DUP8 ADD MSTORE PUSH1 0x8 SHR AND ISZERO ISZERO PUSH2 0x120 DUP6 ADD MSTORE PUSH1 0x7 DUP2 ADD SLOAD PUSH2 0x140 DUP6 ADD MSTORE PUSH1 0x8 DUP2 ADD SLOAD PUSH2 0x160 DUP6 ADD MSTORE ADD SLOAD AND ISZERO ISZERO PUSH2 0x180 DUP3 ADD MSTORE PUSH2 0x180 PUSH1 0x40 MLOAD SWAP2 DUP1 MLOAD DUP4 MSTORE PUSH1 0x1 DUP1 PUSH1 0xA0 SHL SUB PUSH1 0x20 DUP3 ADD MLOAD AND PUSH1 0x20 DUP5 ADD MSTORE PUSH2 0x156A PUSH1 0x40 DUP3 ADD MLOAD PUSH1 0x40 DUP6 ADD SWAP1 PUSH2 0x163B JUMP JUMPDEST PUSH1 0x60 DUP2 ADD MLOAD PUSH1 0x60 DUP5 ADD MSTORE PUSH1 0x80 DUP2 ADD MLOAD PUSH1 0x80 DUP5 ADD MSTORE PUSH1 0xFF PUSH1 0xA0 DUP3 ADD MLOAD AND PUSH1 0xA0 DUP5 ADD MSTORE PUSH1 0xC0 DUP2 ADD MLOAD PUSH2 0x1599 DUP2 PUSH2 0x1648 JUMP JUMPDEST PUSH1 0xC0 DUP5 ADD MSTORE PUSH1 0xE0 DUP2 ADD MLOAD PUSH1 0xE0 DUP5 ADD MSTORE PUSH2 0x100 DUP2 ADD MLOAD ISZERO ISZERO PUSH2 0x100 DUP5 ADD MSTORE PUSH2 0x120 DUP2 ADD MLOAD ISZERO ISZERO PUSH2 0x120 DUP5 ADD MSTORE PUSH2 0x140 DUP2 ADD MLOAD PUSH2 0x140 DUP5 ADD MSTORE PUSH2 0x160 DUP2 ADD MLOAD PUSH2 0x160 DUP5 ADD MSTORE ADD MLOAD ISZERO ISZERO PUSH2 0x180 DUP3 ADD MSTORE RETURN JUMPDEST CALLVALUE PUSH2 0x19D JUMPI PUSH1 0x20 CALLDATASIZE PUSH1 0x3 NOT ADD SLT PUSH2 0x19D JUMPI PUSH1 0x4 CALLDATALOAD SWAP1 PUSH4 0xFFFFFFFF PUSH1 0xE0 SHL DUP3 AND DUP1 SWAP3 SUB PUSH2 0x19D JUMPI PUSH1 0x20 SWAP2 PUSH4 0x7965DB0B PUSH1 0xE0 SHL DUP2 EQ SWAP1 DUP2 ISZERO PUSH2 0x162A JUMPI JUMPDEST POP ISZERO ISZERO DUP2 MSTORE RETURN JUMPDEST PUSH4 0x1FFC9A7 PUSH1 0xE0 SHL EQ SWAP1 POP DUP4 PUSH2 0x1623 JUMP JUMPDEST SWAP1 PUSH1 0x8 DUP3 LT ISZERO PUSH2 0x5EA JUMPI MSTORE JUMP JUMPDEST PUSH1 0x5 GT ISZERO PUSH2 0x5EA JUMPI JUMP JUMPDEST PUSH1 0x20 SWAP1 DUP2 PUSH1 0x40 DUP2 DUP4 ADD SWAP3 DUP3 DUP2 MSTORE DUP6 MLOAD DUP1 SWAP5 MSTORE ADD SWAP4 ADD SWAP2 PUSH1 0x0 JUMPDEST DUP3 DUP2 LT PUSH2 0x1679 JUMPI POP POP POP POP SWAP1 JUMP JUMPDEST DUP4 MLOAD DUP6 MSTORE SWAP4 DUP2 ADD SWAP4 SWAP3 DUP2 ADD SWAP3 PUSH1 0x1 ADD PUSH2 0x166B JUMP JUMPDEST PUSH1 0x24 CALLDATALOAD SWAP1 PUSH1 0x1 PUSH1 0x1 PUSH1 0xA0 SHL SUB DUP3 AND DUP3 SUB PUSH2 0x19D JUMPI JUMP JUMPDEST PUSH1 0x4 CALLDATALOAD SWAP1 PUSH1 0x1 PUSH1 0x1 PUSH1 0xA0 SHL SUB DUP3 AND DUP3 SUB PUSH2 0x19D JUMPI JUMP JUMPDEST PUSH1 0x8 DUP2 LT ISZERO PUSH2 0x5EA JUMPI PUSH1 0x0 MSTORE PUSH1 0x7 PUSH1 0x20 MSTORE PUSH1 0x40 PUSH1 0x0 KECCAK256 SWAP1 JUMP JUMPDEST DUP1 SLOAD DUP3 LT ISZERO PUSH2 0x16EA JUMPI PUSH1 0x0 MSTORE PUSH1 0x20 PUSH1 0x0 KECCAK256 ADD SWAP1 PUSH1 0x0 SWAP1 JUMP JUMPDEST PUSH4 0x4E487B71 PUSH1 0xE0 SHL PUSH1 0x0 MSTORE PUSH1 0x32 PUSH1 0x4 MSTORE PUSH1 0x24 PUSH1 0x0 REVERT JUMPDEST PUSH2 0x1A0 DUP2 ADD SWAP1 DUP2 LT PUSH8 0xFFFFFFFFFFFFFFFF DUP3 GT OR PUSH2 0x5C8 JUMPI PUSH1 0x40 MSTORE JUMP JUMPDEST SWAP1 PUSH1 0x1F DUP1 NOT SWAP2 ADD AND DUP2 ADD SWAP1 DUP2 LT PUSH8 0xFFFFFFFFFFFFFFFF DUP3 GT OR PUSH2 0x5C8 JUMPI PUSH1 0x40 MSTORE JUMP JUMPDEST PUSH8 0xFFFFFFFFFFFFFFFF DUP2 GT PUSH2 0x5C8 JUMPI PUSH1 0x1F ADD PUSH1 0x1F NOT AND PUSH1 0x20 ADD SWAP1 JUMP JUMPDEST CALLER PUSH1 0x0 SWAP1 DUP2 MSTORE PUSH32 0xF179AAFCC4FF8137FCA1EF3B9EC4D165F87016BA123E7973FBA770BC55E240E3 PUSH1 0x20 MSTORE PUSH1 0x40 SWAP1 KECCAK256 SLOAD PUSH1 0x0 DUP1 MLOAD PUSH1 0x20 PUSH2 0x1BA7 DUP4 CODECOPY DUP2 MLOAD SWAP2 MSTORE SWAP1 PUSH1 0xFF AND ISZERO PUSH2 0x17A5 JUMPI POP JUMP JUMPDEST PUSH1 0x44 SWAP1 PUSH1 0x40 MLOAD SWAP1 PUSH4 0xE2517D3F PUSH1 0xE0 SHL DUP3 MSTORE CALLER PUSH1 0x4 DUP4 ADD MSTORE PUSH1 0x24 DUP3 ADD MSTORE REVERT JUMPDEST CALLER PUSH1 0x0 SWAP1 DUP2 MSTORE PUSH32 0x7D7FFB7A348E1C6A02869081A26547B49160DD3DF72D1D75A570EB9B698292EC PUSH1 0x20 MSTORE PUSH1 0x40 SWAP1 KECCAK256 SLOAD PUSH32 0xA49807205CE4D355092EF5A8A18F56E8913CF4A201FBE287825B095693C21775 SWAP1 PUSH1 0xFF AND ISZERO PUSH2 0x17A5 JUMPI POP JUMP JUMPDEST DUP1 PUSH1 0x0 MSTORE PUSH1 0x0 PUSH1 0x20 MSTORE PUSH1 0x40 PUSH1 0x0 KECCAK256 CALLER PUSH1 0x0 MSTORE PUSH1 0x20 MSTORE PUSH1 0xFF PUSH1 0x40 PUSH1 0x0 KECCAK256 SLOAD AND ISZERO PUSH2 0x17A5 JUMPI POP JUMP JUMPDEST PUSH1 0x1 PUSH1 0x1 PUSH1 0xA0 SHL SUB AND PUSH1 0x0 DUP2 DUP2 MSTORE PUSH32 0xF179AAFCC4FF8137FCA1EF3B9EC4D165F87016BA123E7973FBA770BC55E240E3 PUSH1 0x20 MSTORE PUSH1 0x40 DUP2 KECCAK256 SLOAD SWAP1 SWAP2 SWAP1 PUSH1 0x0 DUP1 MLOAD PUSH1 0x20 PUSH2 0x1BA7 DUP4 CODECOPY DUP2 MLOAD SWAP2 MSTORE SWAP1 PUSH1 0xFF AND PUSH2 0x18E0 JUMPI DUP1 DUP4 MSTORE DUP3 PUSH1 0x20 MSTORE PUSH1 0x40 DUP4 KECCAK256 DUP3 DUP5 MSTORE PUSH1 0x20 MSTORE PUSH1 0x40 DUP4 KECCAK256 PUSH1 0x1 PUSH1 0xFF NOT DUP3 SLOAD AND OR SWAP1 SSTORE PUSH32 0x2F8788117E7EFF1D82E926EC794901D17C78024A50270940304540A733656F0D CALLER SWAP4 DUP1 LOG4 PUSH1 0x1 SWAP1 JUMP JUMPDEST POP POP SWAP1 JUMP JUMPDEST SWAP1 PUSH1 0x0 SWAP2 DUP1 DUP4 MSTORE DUP3 PUSH1 0x20 MSTORE PUSH1 0x40 DUP4 KECCAK256 SWAP2 PUSH1 0x1 DUP1 PUSH1 0xA0 SHL SUB AND SWAP2 DUP3 DUP5 MSTORE PUSH1 0x20 MSTORE PUSH1 0xFF PUSH1 0x40 DUP5 KECCAK256 SLOAD AND ISZERO PUSH1 0x0 EQ PUSH2 0x18E0 JUMPI DUP1 DUP4 MSTORE DUP3 PUSH1 0x20 MSTORE PUSH1 0x40 DUP4 KECCAK256 DUP3 DUP5 MSTORE PUSH1 0x20 MSTORE PUSH1 0x40 DUP4 KECCAK256 PUSH1 0x1 PUSH1 0xFF NOT DUP3 SLOAD AND OR SWAP1 SSTORE PUSH32 0x2F8788117E7EFF1D82E926EC794901D17C78024A50270940304540A733656F0D CALLER SWAP4 DUP1 LOG4 PUSH1 0x1 SWAP1 JUMP JUMPDEST SWAP1 PUSH1 0x0 SWAP2 DUP1 DUP4 MSTORE DUP3 PUSH1 0x20 MSTORE PUSH1 0x40 DUP4 KECCAK256 SWAP2 PUSH1 0x1 DUP1 PUSH1 0xA0 SHL SUB AND SWAP2 DUP3 DUP5 MSTORE PUSH1 0x20 MSTORE PUSH1 0xFF PUSH1 0x40 DUP5 KECCAK256 SLOAD AND PUSH1 0x0 EQ PUSH2 0x18E0 JUMPI DUP1 DUP4 MSTORE DUP3 PUSH1 0x20 MSTORE PUSH1 0x40 DUP4 KECCAK256 DUP3 DUP5 MSTORE PUSH1 0x20 MSTORE PUSH1 0x40 DUP4 KECCAK256 PUSH1 0xFF NOT DUP2 SLOAD AND SWAP1 SSTORE PUSH32 0xF6391F5C32D9C69D2A47EA670B442974B53935D1EDC7FD64EB21E047A839171B CALLER SWAP4 DUP1 LOG4 PUSH1 0x1 SWAP1 JUMP JUMPDEST MLOAD SWAP1 DUP2 ISZERO ISZERO DUP3 SUB PUSH2 0x19D JUMPI JUMP JUMPDEST ISZERO PUSH2 0x19E7 JUMPI JUMP JUMPDEST PUSH1 0x40 MLOAD PUSH3 0x461BCD PUSH1 0xE5 SHL DUP2 MSTORE PUSH1 0x20 PUSH1 0x4 DUP3 ADD MSTORE PUSH1 0x14 PUSH1 0x24 DUP3 ADD MSTORE PUSH20 0x139BDD081D995C9A599A5959081CDD1D59195B9D PUSH1 0x62 SHL PUSH1 0x44 DUP3 ADD MSTORE PUSH1 0x64 SWAP1 REVERT JUMPDEST MLOAD SWAP1 PUSH1 0xFF DUP3 AND DUP3 SUB PUSH2 0x19D JUMPI JUMP JUMPDEST PUSH1 0x0 JUMPDEST DUP4 DUP2 LT PUSH2 0x1A44 JUMPI POP POP PUSH1 0x0 SWAP2 ADD MSTORE JUMP JUMPDEST DUP2 DUP2 ADD MLOAD DUP4 DUP3 ADD MSTORE PUSH1 0x20 ADD PUSH2 0x1A34 JUMP JUMPDEST PUSH1 0x0 NOT DUP2 EQ PUSH2 0x1A63 JUMPI PUSH1 0x1 ADD SWAP1 JUMP JUMPDEST PUSH4 0x4E487B71 PUSH1 0xE0 SHL PUSH1 0x0 MSTORE PUSH1 0x11 PUSH1 0x4 MSTORE PUSH1 0x24 PUSH1 0x0 REVERT JUMPDEST PUSH1 0x8 DUP3 LT ISZERO PUSH2 0x5EA JUMPI MSTORE JUMP JUMPDEST SWAP1 PUSH2 0x1A8F DUP2 PUSH2 0x1648 JUMP JUMPDEST PUSH2 0xFF00 DUP3 SLOAD SWAP2 PUSH1 0x8 SHL AND SWAP1 PUSH2 0xFF00 NOT AND OR SWAP1 SSTORE JUMP JUMPDEST DUP1 SLOAD PUSH9 0x10000000000000000 DUP2 LT ISZERO PUSH2 0x5C8 JUMPI PUSH2 0x1AC6 SWAP2 PUSH1 0x1 DUP3 ADD DUP2 SSTORE PUSH2 0x16D2 JUMP JUMPDEST DUP2 SWAP3 SWAP2 SLOAD SWAP1 PUSH1 0x3 SHL SWAP2 DUP3 SHL SWAP2 PUSH1 0x0 NOT SWAP1 SHL NOT AND OR SWAP1 SSTORE JUMP JUMPDEST ISZERO PUSH2 0x1AE5 JUMPI JUMP JUMPDEST PUSH1 0x40 MLOAD PUSH3 0x461BCD PUSH1 0xE5 SHL DUP2 MSTORE PUSH1 0x20 PUSH1 0x4 DUP3 ADD MSTORE PUSH1 0x12 PUSH1 0x24 DUP3 ADD MSTORE PUSH18 0x11995959189858DAC81B9BDD08199BDD5B99 PUSH1 0x72 SHL PUSH1 0x44 DUP3 ADD MSTORE PUSH1 0x64 SWAP1 REVERT JUMPDEST ISZERO PUSH2 0x1B26 JUMPI JUMP JUMPDEST PUSH1 0x40 MLOAD PUSH3 0x461BCD PUSH1 0xE5 SHL DUP2 MSTORE PUSH1 0x20 PUSH1 0x4 DUP3 ADD MSTORE PUSH1 0x14 PUSH1 0x24 DUP3 ADD MSTORE PUSH20 0x466565646261636B206E6F742070656E64696E67 PUSH1 0x60 SHL PUSH1 0x44 DUP3 ADD MSTORE PUSH1 0x64 SWAP1 REVERT JUMPDEST ISZERO PUSH2 0x1B69 JUMPI JUMP JUMPDEST PUSH1 0x40 MLOAD PUSH3 0x461BCD PUSH1 0xE5 SHL DUP2 MSTORE PUSH1 0x20 PUSH1 0x4 DUP3 ADD MSTORE PUSH1 0x15 PUSH1 0x24 DUP3 ADD MSTORE PUSH21 0x11995959189858DAC81B9BDD08185C1C1C9BDD9959 PUSH1 0x5A SHL PUSH1 0x44 DUP3 ADD MSTORE PUSH1 0x64 SWAP1 REVERT INVALID PUSH18 0xF3D55856E4058ED06EE057D79ADA615F65CD CREATE2 0xF9 0xEE DUP9 XOR SHL SWAP2 TIMESTAMP 0x25 ADDMOD DUP16 DUP4 0x4F LOG2 PUSH5 0x6970667358 0x22 SLT KECCAK256 PUSH31 0x2223F3FCD9C802926ACE3A4318F2177F7A23948FC620F8926124DAB6FB1E47 PUSH5 0x736F6C6343 STOP ADDMOD EQ STOP CALLER 0x2F DUP8 DUP9 GT PUSH31 0x7EFF1D82E926EC794901D17C78024A50270940304540A733656F0D00000000 "},"methodIdentifiers":{"ADMIN_ROLE()":"75b238fc","DEFAULT_ADMIN_ROLE()":"a217fddf","MODERATOR_ROLE()":"797669c9","aiModeration()":"9cd6fb3d","approveFeedback(uint256)":"355ea59d","approvedFeedbacks()":"1fcc6c59","categoryFeedbacks(uint8,uint256)":"7d5c6076","feedbackCounter()":"dd91fdfa","feedbacks(uint256)":"2bb8b0dc","getFeedback(uint256)":"1106a382","getFeedbacksByCategory(uint8)":"28beb0b7","getRoleAdmin(bytes32)":"248a9ca3","getStatistics()":"372d6b27","getUserFeedbacks(address)":"623bb59a","grantModeratorRole(address)":"aa232dc2","grantRole(bytes32,address)":"2f2ff15d","hasRole(bytes32,address)":"91d14854","hasUpvoted(uint256,address)":"a52c8658","hasVoted(uint256,address)":"43859632","implementedFeedbacks()":"12d9b1ff","markAsImplemented(uint256)":"7319e282","privacyContract()":"45206879","rejectFeedback(uint256,string)":"ac6401d5","renounceRole(bytes32,address)":"36568abe","revokeRole(bytes32,address)":"d547741f","studentRegistry()":"92c16fb5","submitFeedback(uint8,bytes32,bytes32,uint8,bool)":"d4c26710","supportsInterface(bytes4)":"01ffc9a7","totalFeedbacks()":"43778462","updateStatus(uint256,uint8)":"3a1b3d31","userFeedbacks(address,uint256)":"d5fdf3aa","voteFeedback(uint256,bool)":"c952b7d3"}}}}}