{
  "_format": "hh-sol-artifact-1",
  "contractName": "SocialNetworkContract",
  "sourceName": "contracts/features/SocialNetworkContract.sol",
  "abi": [
    {
      "inputs": [
        {
          "internalType": "address",
          "name": "_studentRegistry",
          "type": "address"
        }
      ],
      "stateMutability": "nonpayable",
      "type": "constructor"
    },
    {
      "inputs": [],
      "name": "AccessControlBadConfirmation",
      "type": "error"
    },
    {
      "inputs": [
        {
          "internalType": "address",
          "name": "account",
          "type": "address"
        },
        {
          "internalType": "bytes32",
          "name": "neededRole",
          "type": "bytes32"
        }
      ],
      "name": "AccessControlUnauthorizedAccount",
      "type": "error"
    },
    {
      "inputs": [],
      "name": "ReentrancyGuardReentrantCall",
      "type": "error"
    },
    {
      "anonymous": false,
      "inputs": [
        {
          "indexed": true,
          "internalType": "uint256",
          "name": "communityId",
          "type": "uint256"
        },
        {
          "indexed": false,
          "internalType": "string",
          "name": "name",
          "type": "string"
        },
        {
          "indexed": true,
          "internalType": "address",
          "name": "creator",
          "type": "address"
        }
      ],
      "name": "CommunityCreated",
      "type": "event"
    },
    {
      "anonymous": false,
      "inputs": [
        {
          "indexed": true,
          "internalType": "uint256",
          "name": "communityId",
          "type": "uint256"
        },
        {
          "indexed": true,
          "internalType": "address",
          "name": "member",
          "type": "address"
        }
      ],
      "name": "CommunityJoined",
      "type": "event"
    },
    {
      "anonymous": false,
      "inputs": [
        {
          "indexed": true,
          "internalType": "uint256",
          "name": "communityId",
          "type": "uint256"
        },
        {
          "indexed": true,
          "internalType": "address",
          "name": "member",
          "type": "address"
        }
      ],
      "name": "CommunityLeft",
      "type": "event"
    },
    {
      "anonymous": false,
      "inputs": [
        {
          "indexed": true,
          "internalType": "address",
          "name": "user",
          "type": "address"
        },
        {
          "indexed": false,
          "internalType": "string",
          "name": "bio",
          "type": "string"
        }
      ],
      "name": "ProfileUpdated",
      "type": "event"
    },
    {
      "anonymous": false,
      "inputs": [
        {
          "indexed": true,
          "internalType": "bytes32",
          "name": "role",
          "type": "bytes32"
        },
        {
          "indexed": true,
          "internalType": "bytes32",
          "name": "previousAdminRole",
          "type": "bytes32"
        },
        {
          "indexed": true,
          "internalType": "bytes32",
          "name": "newAdminRole",
          "type": "bytes32"
        }
      ],
      "name": "RoleAdminChanged",
      "type": "event"
    },
    {
      "anonymous": false,
      "inputs": [
        {
          "indexed": true,
          "internalType": "bytes32",
          "name": "role",
          "type": "bytes32"
        },
        {
          "indexed": true,
          "internalType": "address",
          "name": "account",
          "type": "address"
        },
        {
          "indexed": true,
          "internalType": "address",
          "name": "sender",
          "type": "address"
        }
      ],
      "name": "RoleGranted",
      "type": "event"
    },
    {
      "anonymous": false,
      "inputs": [
        {
          "indexed": true,
          "internalType": "bytes32",
          "name": "role",
          "type": "bytes32"
        },
        {
          "indexed": true,
          "internalType": "address",
          "name": "account",
          "type": "address"
        },
        {
          "indexed": true,
          "internalType": "address",
          "name": "sender",
          "type": "address"
        }
      ],
      "name": "RoleRevoked",
      "type": "event"
    },
    {
      "anonymous": false,
      "inputs": [
        {
          "indexed": true,
          "internalType": "address",
          "name": "follower",
          "type": "address"
        },
        {
          "indexed": true,
          "internalType": "address",
          "name": "followed",
          "type": "address"
        },
        {
          "indexed": false,
          "internalType": "uint256",
          "name": "timestamp",
          "type": "uint256"
        }
      ],
      "name": "UserFollowed",
      "type": "event"
    },
    {
      "anonymous": false,
      "inputs": [
        {
          "indexed": true,
          "internalType": "address",
          "name": "follower",
          "type": "address"
        },
        {
          "indexed": true,
          "internalType": "address",
          "name": "unfollowed",
          "type": "address"
        },
        {
          "indexed": false,
          "internalType": "uint256",
          "name": "timestamp",
          "type": "uint256"
        }
      ],
      "name": "UserUnfollowed",
      "type": "event"
    },
    {
      "inputs": [],
      "name": "ADMIN_ROLE",
      "outputs": [
        {
          "internalType": "bytes32",
          "name": "",
          "type": "bytes32"
        }
      ],
      "stateMutability": "view",
      "type": "function"
    },
    {
      "inputs": [],
      "name": "DEFAULT_ADMIN_ROLE",
      "outputs": [
        {
          "internalType": "bytes32",
          "name": "",
          "type": "bytes32"
        }
      ],
      "stateMutability": "view",
      "type": "function"
    },
    {
      "inputs": [],
      "name": "MODERATOR_ROLE",
      "outputs": [
        {
          "internalType": "bytes32",
          "name": "",
          "type": "bytes32"
        }
      ],
      "stateMutability": "view",
      "type": "function"
    },
    {
      "inputs": [
        {
          "internalType": "uint256",
          "name": "",
          "type": "uint256"
        }
      ],
      "name": "communities",
      "outputs": [
        {
          "internalType": "uint256",
          "name": "id",
          "type": "uint256"
        },
        {
          "internalType": "string",
          "name": "name",
          "type": "string"
        },
        {
          "internalType": "string",
          "name": "description",
          "type": "string"
        },
        {
          "internalType": "address",
          "name": "creator",
          "type": "address"
        },
        {
          "internalType": "uint256",
          "name": "createdAt",
          "type": "uint256"
        },
        {
          "internalType": "uint256",
          "name": "memberCount",
          "type": "uint256"
        },
        {
          "internalType": "bool",
          "name": "isActive",
          "type": "bool"
        }
      ],
      "stateMutability": "view",
      "type": "function"
    },
    {
      "inputs": [],
      "name": "communityCounter",
      "outputs": [
        {
          "internalType": "uint256",
          "name": "",
          "type": "uint256"
        }
      ],
      "stateMutability": "view",
      "type": "function"
    },
    {
      "inputs": [
        {
          "internalType": "uint256",
          "name": "",
          "type": "uint256"
        },
        {
          "internalType": "uint256",
          "name": "",
          "type": "uint256"
        }
      ],
      "name": "communityMembers",
      "outputs": [
        {
          "internalType": "address",
          "name": "",
          "type": "address"
        }
      ],
      "stateMutability": "view",
      "type": "function"
    },
    {
      "inputs": [
        {
          "internalType": "string",
          "name": "name",
          "type": "string"
        },
        {
          "internalType": "string",
          "name": "description",
          "type": "string"
        }
      ],
      "name": "createCommunity",
      "outputs": [
        {
          "internalType": "uint256",
          "name": "",
          "type": "uint256"
        }
      ],
      "stateMutability": "nonpayable",
      "type": "function"
    },
    {
      "inputs": [
        {
          "internalType": "address",
          "name": "userToFollow",
          "type": "address"
        }
      ],
      "name": "followUser",
      "outputs": [],
      "stateMutability": "nonpayable",
      "type": "function"
    },
    {
      "inputs": [
        {
          "internalType": "address",
          "name": "",
          "type": "address"
        },
        {
          "internalType": "uint256",
          "name": "",
          "type": "uint256"
        }
      ],
      "name": "followers",
      "outputs": [
        {
          "internalType": "address",
          "name": "",
          "type": "address"
        }
      ],
      "stateMutability": "view",
      "type": "function"
    },
    {
      "inputs": [
        {
          "internalType": "address",
          "name": "",
          "type": "address"
        },
        {
          "internalType": "uint256",
          "name": "",
          "type": "uint256"
        }
      ],
      "name": "following",
      "outputs": [
        {
          "internalType": "address",
          "name": "",
          "type": "address"
        }
      ],
      "stateMutability": "view",
      "type": "function"
    },
    {
      "inputs": [
        {
          "internalType": "uint256",
          "name": "communityId",
          "type": "uint256"
        }
      ],
      "name": "getCommunityMembers",
      "outputs": [
        {
          "internalType": "address[]",
          "name": "",
          "type": "address[]"
        }
      ],
      "stateMutability": "view",
      "type": "function"
    },
    {
      "inputs": [
        {
          "internalType": "address",
          "name": "user",
          "type": "address"
        }
      ],
      "name": "getFollowers",
      "outputs": [
        {
          "internalType": "address[]",
          "name": "",
          "type": "address[]"
        }
      ],
      "stateMutability": "view",
      "type": "function"
    },
    {
      "inputs": [
        {
          "internalType": "address",
          "name": "user",
          "type": "address"
        }
      ],
      "name": "getFollowing",
      "outputs": [
        {
          "internalType": "address[]",
          "name": "",
          "type": "address[]"
        }
      ],
      "stateMutability": "view",
      "type": "function"
    },
    {
      "inputs": [
        {
          "internalType": "bytes32",
          "name": "role",
          "type": "bytes32"
        }
      ],
      "name": "getRoleAdmin",
      "outputs": [
        {
          "internalType": "bytes32",
          "name": "",
          "type": "bytes32"
        }
      ],
      "stateMutability": "view",
      "type": "function"
    },
    {
      "inputs": [
        {
          "internalType": "address",
          "name": "user",
          "type": "address"
        }
      ],
      "name": "getUserCommunities",
      "outputs": [
        {
          "internalType": "uint256[]",
          "name": "",
          "type": "uint256[]"
        }
      ],
      "stateMutability": "view",
      "type": "function"
    },
    {
      "inputs": [
        {
          "internalType": "address",
          "name": "user",
          "type": "address"
        }
      ],
      "name": "getUserProfile",
      "outputs": [
        {
          "components": [
            {
              "internalType": "address",
              "name": "userAddress",
              "type": "address"
            },
            {
              "internalType": "string",
              "name": "bio",
              "type": "string"
            },
            {
              "internalType": "uint256",
              "name": "followerCount",
              "type": "uint256"
            },
            {
              "internalType": "uint256",
              "name": "followingCount",
              "type": "uint256"
            },
            {
              "internalType": "uint256",
              "name": "communityCount",
              "type": "uint256"
            },
            {
              "internalType": "bool",
              "name": "isPublic",
              "type": "bool"
            }
          ],
          "internalType": "struct SocialNetworkContract.UserProfile",
          "name": "",
          "type": "tuple"
        }
      ],
      "stateMutability": "view",
      "type": "function"
    },
    {
      "inputs": [
        {
          "internalType": "address",
          "name": "moderator",
          "type": "address"
        }
      ],
      "name": "grantModeratorRole",
      "outputs": [],
      "stateMutability": "nonpayable",
      "type": "function"
    },
    {
      "inputs": [
        {
          "internalType": "bytes32",
          "name": "role",
          "type": "bytes32"
        },
        {
          "internalType": "address",
          "name": "account",
          "type": "address"
        }
      ],
      "name": "grantRole",
      "outputs": [],
      "stateMutability": "nonpayable",
      "type": "function"
    },
    {
      "inputs": [
        {
          "internalType": "bytes32",
          "name": "role",
          "type": "bytes32"
        },
        {
          "internalType": "address",
          "name": "account",
          "type": "address"
        }
      ],
      "name": "hasRole",
      "outputs": [
        {
          "internalType": "bool",
          "name": "",
          "type": "bool"
        }
      ],
      "stateMutability": "view",
      "type": "function"
    },
    {
      "inputs": [
        {
          "internalType": "uint256",
          "name": "",
          "type": "uint256"
        },
        {
          "internalType": "address",
          "name": "",
          "type": "address"
        }
      ],
      "name": "isCommunityMember",
      "outputs": [
        {
          "internalType": "bool",
          "name": "",
          "type": "bool"
        }
      ],
      "stateMutability": "view",
      "type": "function"
    },
    {
      "inputs": [
        {
          "internalType": "address",
          "name": "",
          "type": "address"
        },
        {
          "internalType": "address",
          "name": "",
          "type": "address"
        }
      ],
      "name": "isFollowing",
      "outputs": [
        {
          "internalType": "bool",
          "name": "",
          "type": "bool"
        }
      ],
      "stateMutability": "view",
      "type": "function"
    },
    {
      "inputs": [
        {
          "internalType": "uint256",
          "name": "communityId",
          "type": "uint256"
        }
      ],
      "name": "joinCommunity",
      "outputs": [],
      "stateMutability": "nonpayable",
      "type": "function"
    },
    {
      "inputs": [
        {
          "internalType": "uint256",
          "name": "communityId",
          "type": "uint256"
        }
      ],
      "name": "leaveCommunity",
      "outputs": [],
      "stateMutability": "nonpayable",
      "type": "function"
    },
    {
      "inputs": [
        {
          "internalType": "bytes32",
          "name": "role",
          "type": "bytes32"
        },
        {
          "internalType": "address",
          "name": "callerConfirmation",
          "type": "address"
        }
      ],
      "name": "renounceRole",
      "outputs": [],
      "stateMutability": "nonpayable",
      "type": "function"
    },
    {
      "inputs": [
        {
          "internalType": "bytes32",
          "name": "role",
          "type": "bytes32"
        },
        {
          "internalType": "address",
          "name": "account",
          "type": "address"
        }
      ],
      "name": "revokeRole",
      "outputs": [],
      "stateMutability": "nonpayable",
      "type": "function"
    },
    {
      "inputs": [],
      "name": "studentRegistry",
      "outputs": [
        {
          "internalType": "contract StudentRegistryContract",
          "name": "",
          "type": "address"
        }
      ],
      "stateMutability": "view",
      "type": "function"
    },
    {
      "inputs": [
        {
          "internalType": "bytes4",
          "name": "interfaceId",
          "type": "bytes4"
        }
      ],
      "name": "supportsInterface",
      "outputs": [
        {
          "internalType": "bool",
          "name": "",
          "type": "bool"
        }
      ],
      "stateMutability": "view",
      "type": "function"
    },
    {
      "inputs": [],
      "name": "totalConnections",
      "outputs": [
        {
          "internalType": "uint256",
          "name": "",
          "type": "uint256"
        }
      ],
      "stateMutability": "view",
      "type": "function"
    },
    {
      "inputs": [
        {
          "internalType": "address",
          "name": "userToUnfollow",
          "type": "address"
        }
      ],
      "name": "unfollowUser",
      "outputs": [],
      "stateMutability": "nonpayable",
      "type": "function"
    },
    {
      "inputs": [
        {
          "internalType": "string",
          "name": "bio",
          "type": "string"
        },
        {
          "internalType": "bool",
          "name": "isPublic",
          "type": "bool"
        }
      ],
      "name": "updateProfile",
      "outputs": [],
      "stateMutability": "nonpayable",
      "type": "function"
    },
    {
      "inputs": [
        {
          "internalType": "address",
          "name": "",
          "type": "address"
        },
        {
          "internalType": "uint256",
          "name": "",
          "type": "uint256"
        }
      ],
      "name": "userCommunities",
      "outputs": [
        {
          "internalType": "uint256",
          "name": "",
          "type": "uint256"
        }
      ],
      "stateMutability": "view",
      "type": "function"
    },
    {
      "inputs": [
        {
          "internalType": "address",
          "name": "",
          "type": "address"
        }
      ],
      "name": "userProfiles",
      "outputs": [
        {
          "internalType": "address",
          "name": "userAddress",
          "type": "address"
        },
        {
          "internalType": "string",
          "name": "bio",
          "type": "string"
        },
        {
          "internalType": "uint256",
          "name": "followerCount",
          "type": "uint256"
        },
        {
          "internalType": "uint256",
          "name": "followingCount",
          "type": "uint256"
        },
        {
          "internalType": "uint256",
          "name": "communityCount",
          "type": "uint256"
        },
        {
          "internalType": "bool",
          "name": "isPublic",
          "type": "bool"
        }
      ],
      "stateMutability": "view",
      "type": "function"
    }
  ],
  "bytecode": "0x608034620000e257601f6200224938819003918201601f19168301916001600160401b03831184841017620000e757808492602094604052833981010312620000e257516001600160a01b03811690819003620000e2576001805580156200009d57600280546001600160a01b0319169190911790556200008033620000fd565b506200008c336200017d565b506040516120099081620002208239f35b60405162461bcd60e51b815260206004820152601860248201527f496e76616c69642073747564656e7420726567697374727900000000000000006044820152606490fd5b600080fd5b634e487b7160e01b600052604160045260246000fd5b6001600160a01b031660008181527fad3228b676f7d3cd4284a5443f17f1962b36e491b30a40b2405849e597ba5fb5602052604081205490919060ff166200017957818052816020526040822081835260205260408220600160ff198254161790553391600080516020620022298339815191528180a4600190565b5090565b6001600160a01b031660008181527f7d7ffb7a348e1c6a02869081a26547b49160dd3df72d1d75a570eb9b698292ec60205260408120549091907fa49807205ce4d355092ef5a8a18f56e8913cf4a201fbe287825b095693c217759060ff166200021a57808352826020526040832082845260205260408320600160ff1982541617905560008051602062002229833981519152339380a4600190565b50509056fe608080604052600436101561001357600080fd5b60003560e01c90816301ffc9a7146119e75750806303b28c331461150d578063122afc04146112cf578063248a9ca3146112a05780632f2ff15d14611261578063332d56d7146111cf578063337d9367146111b157806336568abe1461116a5780634520748d14610efd57806354d00c0414610eab5780636543286f14610df75780637199ee4814610d8457806375b238fc14610d49578063797669c914610d0e5780637a5b730b14610cf05780639139cda514610ca757806391d1485414610c5a57806392c16fb514610c31578063987ee15614610b3257806399ec3a4214610adc578063a217fddf14610ac0578063a70806f714610861578063aa232dc21461078e578063b122a0ef146105a5578063c2fe20221461052a578063d547741f146104e9578063d8236dff1461045e578063dd44600114610406578063e590b56a14610361578063e95a390514610314578063ebd009d3146102bb5763f107cfcb1461017f57600080fd5b346102b6576020806003193601126102b657610199611ae5565b90336000526004815260406000209160018060a01b0381169283600052825260ff60406000205416156102815761020e9033600052600483526040600020846000528352604060002060ff198154169055600583526101fc336040600020611f2f565b33600052600683526040600020611f2f565b336000526003815260036040600020016102288154611eff565b9055816000526003815260026040600020016102448154611eff565b9055610251600c54611eff565b600c557f594a48474c36e0d85b16b86393fc3d3a2ed770e7b4f0915b2972d5fbdaa99329604051914283523392a3005b60405162461bcd60e51b815260048101839052600d60248201526c4e6f7420666f6c6c6f77696e6760981b6044820152606490fd5b600080fd5b346102b65760403660031901126102b6576102d4611ae5565b6024359060018060a01b038091166000526005602052604060002080548310156102b65760209261030491611c1b565b9190546040519260031b1c168152f35b346102b65760403660031901126102b65761032d611acf565b600435600052600960205260406000209060018060a01b0316600052602052602060ff604060002054166040519015158152f35b346102b65760203660031901126102b65760043560005260076020526040600020805461039060018301611b35565b9161039d60028201611b35565b60018060a01b036003830154169160048101546103eb60ff6006600585015494015416936103dd604051988998895260e060208a015260e0890190611bdb565b908782036040890152611bdb565b936060860152608085015260a0840152151560c08301520390f35b346102b65760403660031901126102b65761041f611ae5565b6001600160a01b03166000908152600a60205260409020805460243591908210156102b65760209161045091611c1b565b90546040519160031b1c8152f35b346102b6576020806003193601126102b6576001600160a01b0380610481611ae5565b1660005260068252604060002091604051809282855492838152019460005282600020926000915b8383106104d0576104cc866104c0818a0382611a56565b60405191829182611c49565b0390f35b84548116875295810195600194850194909201916104a9565b346102b65760403660031901126102b657610528600435610508611acf565b90806000526000602052610523600160406000200154611c8d565b611dde565b005b346102b6576020806003193601126102b6576001600160a01b038061054d611ae5565b1660005260058252604060002091604051809282855492838152019460005282600020926000915b83831061058c576104cc866104c0818a0382611a56565b8454811687529581019560019485019490920191610575565b346102b6576020806003193601126102b6576004359060248160018060a01b036002541660405192838092631eb30aeb60e01b82523360048301525afa8015610782576105fa91600091610755575b50611e6b565b816000526007815260ff600660406000200154161561071a578160005260098152604060002033600052815260ff604060002054166106e357600390826000526009815260406000203360005281526040600020600160ff19825416179055826000526008815261066f336040600020611eae565b33600052600a8152610685836040600020611f0c565b8260005260078152600560406000200161069f8154611ef0565b9055336000525260046040600020016106b88154611ef0565b905533907fd873197dfe57397eab48d3c120c62ed968cac2a00b06b67ab9b66fc80d63dfd1600080a3005b6064906040519062461bcd60e51b82526004820152601060248201526f20b63932b0b23c90309036b2b6b132b960811b6044820152fd5b6064906040519062461bcd60e51b825260048201526014602482015273436f6d6d756e697479206e6f742061637469766560601b6044820152fd5b6107759150833d851161077b575b61076d8183611a56565b810190611e53565b846105f4565b503d610763565b6040513d6000823e3d90fd5b346102b65760203660031901126102b6576107a7611ae5565b3360009081527f7d7ffb7a348e1c6a02869081a26547b49160dd3df72d1d75a570eb9b698292ec60205260409020547fa49807205ce4d355092ef5a8a18f56e8913cf4a201fbe287825b095693c217759060ff161561084357610528827f71f3d55856e4058ed06ee057d79ada615f65cdf5f9ee88181b914225088f834f600052600060205261083e600160406000200154611c8d565b611cb3565b6044906040519063e2517d3f60e01b82523360048301526024820152fd5b346102b6576020806003193601126102b65761087b611ae5565b600254604051631eb30aeb60e01b8082523360048301526001600160a01b0392831694939291908482602481895afa9182156107825785926108c491600091610aa35750611e6b565b60246040518094819382528616978860048301525afa90811561078257600091610a86575b5015610a4b57823314610a0d573360005260048252604060002083600052825260ff604060002054166109d45761096190336000526004835260406000208460005283526040600020600160ff198254161790556005835261094f336040600020611eae565b33600052600683526040600020611eae565b3360005260038152600360406000200161097b8154611ef0565b9055816000526003815260026040600020016109978154611ef0565b90556109a4600c54611ef0565b600c557f53e62c84b456cda6228f6c0acd671088271c8bb9627a72d3f8c3d631c8473724604051914283523392a3005b60405162461bcd60e51b8152600481018390526011602482015270416c726561647920666f6c6c6f77696e6760781b6044820152606490fd5b60405162461bcd60e51b815260048101839052601660248201527521b0b73737ba103337b63637bb903cb7bab939b2b63360511b6044820152606490fd5b60405162461bcd60e51b815260048101839052601360248201527215185c99d95d081b9bdd081d995c9a599a5959606a1b6044820152606490fd5b610a9d9150833d851161077b5761076d8183611a56565b846108e9565b610aba9150843d861161077b5761076d8183611a56565b886105f4565b346102b65760003660031901126102b657602060405160008152f35b346102b65760403660031901126102b657610af5611ae5565b610afd611acf565b9060018060a01b03809116600052600460205260406000209116600052602052602060ff604060002054166040519015158152f35b346102b6576020806003193601126102b657610b4c611ae5565b90600060a0604051610b5d81611a3a565b828152606084820152826040820152826060820152826080820152015260018060a01b0380921660005260038152604060002060405191610b9d83611a3a565b838254168352610baf60018301611b35565b9181840192835260028101549260408501938452610c126003830154916060870192835260ff600560048601549560808a019687520154169460a088019515158652604051988998828a525116908801525160c0604088015260e0870190611bdb565b935160608601525160808501525160a084015251151560c08301520390f35b346102b65760003660031901126102b6576002546040516001600160a01b039091168152602090f35b346102b65760403660031901126102b657610c73611acf565b600435600052600060205260406000209060018060a01b0316600052602052602060ff604060002054166040519015158152f35b346102b65760403660031901126102b657610cc0611ae5565b6024359060018060a01b038091166000526006602052604060002080548310156102b65760209261030491611c1b565b346102b65760003660031901126102b6576020600b54604051908152f35b346102b65760003660031901126102b65760206040517f71f3d55856e4058ed06ee057d79ada615f65cdf5f9ee88181b914225088f834f8152f35b346102b65760003660031901126102b65760206040517fa49807205ce4d355092ef5a8a18f56e8913cf4a201fbe287825b095693c217758152f35b346102b6576020806003193601126102b65760043560005260088152604060002090604051908181845491828152019360005281600020916000905b828210610dd7576104cc856104c081890382611a56565b83546001600160a01b031686529485019460019384019390910190610dc0565b346102b6576020806003193601126102b6576001600160a01b03610e19611ae5565b16600052600a8152604060002060405190818382549182815201908192600052846000209060005b86828210610e97578686610e5782880383611a56565b604051928392818401908285525180915260408401929160005b828110610e8057505050500390f35b835185528695509381019392810192600101610e71565b835485529093019260019283019201610e41565b346102b65760403660031901126102b6576024356004356000526008602052604060002080548210156102b657602091610ee491611c1b565b905460405160039290921b1c6001600160a01b03168152f35b346102b65760403660031901126102b65767ffffffffffffffff6004358181116102b657610f2f903690600401611a78565b60243580151581036102b657600254604051631eb30aeb60e01b8152336004820152602094918590829060249082906001600160a01b03165afa801561078257610f809160009161114d5750611e6b565b3360005260038452604060002090336bffffffffffffffffffffffff60a01b835416178255600180920191845191821161113757610fbe8354611afb565b601f81116110ee575b5085601f83116001146110605792828061103d9461105097947fdd635a4cd84864e37e4479dbfc2ec667acfa473c83c8422a8ac9d9d07599b01c9997600093611055575b501b916000199060031b1c19161790555b336000526003865260056040600020019060ff801983541691151516179055565b6040519182918583523395830190611bdb565b0390a2005b88015192508b61100b565b601f9291921982169084600052876000209160005b898282106110da575050927fdd635a4cd84864e37e4479dbfc2ec667acfa473c83c8422a8ac9d9d07599b01c97959261103d9592826110509996106110c1575b5050811b01905561101c565b87015160001960f88460031b161c1916905589806110b5565b898401518555938601939283019201611075565b8360005286600020601f840160051c81019188851061112d575b601f0160051c019082905b828110611121575050610fc7565b60008155018290611113565b9091508190611108565b634e487b7160e01b600052604160045260246000fd5b6111649150863d881161077b5761076d8183611a56565b866105f4565b346102b65760403660031901126102b657611183611acf565b336001600160a01b0382160361119f5761052890600435611dde565b60405163334bd91960e11b8152600490fd5b346102b65760003660031901126102b6576020600c54604051908152f35b346102b65760203660031901126102b6576001600160a01b03806111f1611ae5565b16600052600360205260406000209081541661120f60018301611b35565b9160028101549060038101549060ff600560048301549201541691611246604051968796875260c0602088015260c0870190611bdb565b93604086015260608501526080840152151560a08301520390f35b346102b65760403660031901126102b657610528600435611280611acf565b9080600052600060205261129b600160406000200154611c8d565b611d65565b346102b65760203660031901126102b65760043560005260006020526020600160406000200154604051908152f35b346102b6576020806003193601126102b657600435908160005260098152604060002033600052815260ff60406000205416156114da57600082815260078252604090206003908101546001600160a01b0316331461149e5782600052600982526040600020336000528252604060002060ff198154169055826000526008825261135e336040600020611f2f565b33600052600a825260406000209160005b83548082101561149457856113848387611c1b565b905490861b1c1461139e575061139990611ef0565b61136f565b92939192600019929181840191821161147e576113ce6113c16113e79385611c1b565b905490881b1c9184611c1b565b90919082549060031b91821b91600019901b1916179055565b80548015611468578201916113fc8383611c1b565b9091825491871b1b19169055555b826000526007815260056040600020016114248154611eff565b90553360005252600460406000200161143d8154611eff565b905533907fb4fed4d84fd49c06522e8199e83f6f3c24ec553d522ee5f4d534a9f5ad46fe98600080a3005b634e487b7160e01b600052603160045260246000fd5b634e487b7160e01b600052601160045260246000fd5b505090915061140a565b60405162461bcd60e51b815260048101839052601460248201527343726561746f722063616e6e6f74206c6561766560601b6044820152606490fd5b6064906040519062461bcd60e51b82526004820152600c60248201526b2737ba10309036b2b6b132b960a11b6044820152fd5b346102b65760403660031901126102b65760043567ffffffffffffffff81116102b65761153e903690600401611a78565b60243567ffffffffffffffff81116102b65761155e903690600401611a78565b600254604051631eb30aeb60e01b815233600482015291929190602090829060249082906001600160a01b03165afa8015610782576115a4916000916119ce5750611e6b565b805115611999576115b6600b54611ef0565b9081600b556040519260e0840184811067ffffffffffffffff8211176111375760405282845260208401908282526040850152336060850152426080850152600160a0850152600160c0850152826000526007602052604060002090845182555180519067ffffffffffffffff82116111375781906116386001850154611afb565b601f8111611946575b50602090601f83116001146118d4576000926118c9575b50508160011b916000199060031b1c19161760018201555b604084015193845167ffffffffffffffff8111611137576116946002840154611afb565b95601f8711611882575b602096508690601f831160011461180d57928260069360c09361172e9796600092611802575b50508160011b916000199060031b1c19161760028501555b6003840160018060a01b036060830151166bffffffffffffffffffffffff60a01b8254161790556080810151600485015560a081015160058501550151151591019060ff801983541691151516179055565b816000526009835260406000203360005283526040600020600160ff198254161790558160005260088352611767336040600020611eae565b33600052600a835261177d826040600020611f0c565b336000526003835260046040600020016117978154611ef0565b9055817f4df3410150bc135fb5a7782051351442aaa4dc2b49b9180723c871b74e0a2201604051858152806117d0339588830190611bdb565b0390a36040519033817fd873197dfe57397eab48d3c120c62ed968cac2a00b06b67ab9b66fc80d63dfd1600080a38152f35b015190508a806116c4565b90601f1983169160028601600052886000209260005b81811061186b57509360c09361172e9796936001938360069810611852575b505050811b0160028501556116dc565b015160001960f88460031b161c191690558a8080611842565b92938a600181928786015181550195019301611823565b600284016000526020600020601f830160051c8101602084106118c2575b601f890160051c820181106118b657505061169e565b600081556001016118a0565b50806118a0565b015190508680611658565b9250600184016000526020600020906000935b601f198416851061192b576001945083601f19811610611912575b505050811b016001820155611670565b015160001960f88460031b161c19169055868080611902565b818101518355602094850194600190930192909101906118e7565b909150600184016000526020600020601f840160051c810160208510611992575b90849392915b601f830160051c82018110611983575050611641565b6000815585945060010161196d565b5080611967565b60405162461bcd60e51b815260206004820152600d60248201526c13985b59481c995c5d5a5c9959609a1b6044820152606490fd5b610775915060203d60201161077b5761076d8183611a56565b346102b65760203660031901126102b6576004359063ffffffff60e01b82168092036102b657602091637965db0b60e01b8114908115611a29575b5015158152f35b6301ffc9a760e01b14905083611a22565b60c0810190811067ffffffffffffffff82111761113757604052565b90601f8019910116810190811067ffffffffffffffff82111761113757604052565b81601f820112156102b65780359067ffffffffffffffff82116111375760405192611aad601f8401601f191660200185611a56565b828452602083830101116102b657816000926020809301838601378301015290565b602435906001600160a01b03821682036102b657565b600435906001600160a01b03821682036102b657565b90600182811c92168015611b2b575b6020831014611b1557565b634e487b7160e01b600052602260045260246000fd5b91607f1691611b0a565b9060405191826000825492611b4984611afb565b908184526001948581169081600014611bb85750600114611b75575b5050611b7392500383611a56565b565b9093915060005260209081600020936000915b818310611ba0575050611b7393508201013880611b65565b85548884018501529485019487945091830191611b88565b915050611b7394506020925060ff191682840152151560051b8201013880611b65565b919082519283825260005b848110611c07575050826000602080949584010152601f8019910116010190565b602081830181015184830182015201611be6565b8054821015611c335760005260206000200190600090565b634e487b7160e01b600052603260045260246000fd5b6020908160408183019282815285518094520193019160005b828110611c70575050505090565b83516001600160a01b031685529381019392810192600101611c62565b80600052600060205260406000203360005260205260ff60406000205416156108435750565b6001600160a01b031660008181527ff179aafcc4ff8137fca1ef3b9ec4d165f87016ba123e7973fba770bc55e240e360205260408120549091907f71f3d55856e4058ed06ee057d79ada615f65cdf5f9ee88181b914225088f834f9060ff16611d6057808352826020526040832082845260205260408320600160ff198254161790557f2f8788117e7eff1d82e926ec794901d17c78024a50270940304540a733656f0d339380a4600190565b505090565b9060009180835282602052604083209160018060a01b03169182845260205260ff60408420541615600014611d6057808352826020526040832082845260205260408320600160ff198254161790557f2f8788117e7eff1d82e926ec794901d17c78024a50270940304540a733656f0d339380a4600190565b9060009180835282602052604083209160018060a01b03169182845260205260ff604084205416600014611d605780835282602052604083208284526020526040832060ff1981541690557ff6391f5c32d9c69d2a47ea670b442974b53935d1edc7fd64eb21e047a839171b339380a4600190565b908160209103126102b6575180151581036102b65790565b15611e7257565b60405162461bcd60e51b8152602060048201526014602482015273139bdd081d995c9a599a5959081cdd1d59195b9d60621b6044820152606490fd5b90815491600160401b8310156111375782611ed1916001611b7395018155611c1b565b90919082549060031b9160018060a01b03809116831b921b1916179055565b600019811461147e5760010190565b801561147e576000190190565b90815491600160401b83101561113757826113ce916001611b7395018155611c1b565b6000915b81549283811015611fcd57611f488184611c1b565b90546003956001600160a01b0392909190871b1c821684831614611f7b575050611f7491929350611ef0565b9190611f33565b9092506000199182820191821161147e57611ed184611f9d611fab9488611c1b565b905490891b1c169186611c1b565b82548015611468570192611fbf8484611c1b565b81939154921b1b1916905555565b5050505056fea264697066735822122073a659863c297377d2a50452fa9a36cdc3019b65646e5f2dc803daab58558f1d64736f6c634300081400332f8788117e7eff1d82e926ec794901d17c78024a50270940304540a733656f0d",
  "linkReferences": {},
  "deployedLinkReferences": {}
}