{
  "_format": "hh-sol-artifact-1",
  "contractName": "ReputationContract",
  "sourceName": "contracts/features/ReputationContract.sol",
  "abi": [
    {
      "inputs": [
        {
          "internalType": "address",
          "name": "_studentRegistry",
          "type": "address"
        }
      ],
      "stateMutability": "nonpayable",
      "type": "constructor"
    },
    {
      "inputs": [],
      "name": "AccessControlBadConfirmation",
      "type": "error"
    },
    {
      "inputs": [
        {
          "internalType": "address",
          "name": "account",
          "type": "address"
        },
        {
          "internalType": "bytes32",
          "name": "neededRole",
          "type": "bytes32"
        }
      ],
      "name": "AccessControlUnauthorizedAccount",
      "type": "error"
    },
    {
      "inputs": [],
      "name": "ReentrancyGuardReentrantCall",
      "type": "error"
    },
    {
      "anonymous": false,
      "inputs": [
        {
          "indexed": true,
          "internalType": "address",
          "name": "user",
          "type": "address"
        },
        {
          "indexed": false,
          "internalType": "uint256",
          "name": "newScore",
          "type": "uint256"
        },
        {
          "indexed": false,
          "internalType": "int256",
          "name": "change",
          "type": "int256"
        },
        {
          "indexed": false,
          "internalType": "string",
          "name": "reason",
          "type": "string"
        }
      ],
      "name": "ReputationUpdated",
      "type": "event"
    },
    {
      "anonymous": false,
      "inputs": [
        {
          "indexed": true,
          "internalType": "bytes32",
          "name": "role",
          "type": "bytes32"
        },
        {
          "indexed": true,
          "internalType": "bytes32",
          "name": "previousAdminRole",
          "type": "bytes32"
        },
        {
          "indexed": true,
          "internalType": "bytes32",
          "name": "newAdminRole",
          "type": "bytes32"
        }
      ],
      "name": "RoleAdminChanged",
      "type": "event"
    },
    {
      "anonymous": false,
      "inputs": [
        {
          "indexed": true,
          "internalType": "bytes32",
          "name": "role",
          "type": "bytes32"
        },
        {
          "indexed": true,
          "internalType": "address",
          "name": "account",
          "type": "address"
        },
        {
          "indexed": true,
          "internalType": "address",
          "name": "sender",
          "type": "address"
        }
      ],
      "name": "RoleGranted",
      "type": "event"
    },
    {
      "anonymous": false,
      "inputs": [
        {
          "indexed": true,
          "internalType": "bytes32",
          "name": "role",
          "type": "bytes32"
        },
        {
          "indexed": true,
          "internalType": "address",
          "name": "account",
          "type": "address"
        },
        {
          "indexed": true,
          "internalType": "address",
          "name": "sender",
          "type": "address"
        }
      ],
      "name": "RoleRevoked",
      "type": "event"
    },
    {
      "anonymous": false,
      "inputs": [
        {
          "indexed": true,
          "internalType": "address",
          "name": "user",
          "type": "address"
        },
        {
          "indexed": false,
          "internalType": "uint256",
          "name": "newLevel",
          "type": "uint256"
        }
      ],
      "name": "TrustLevelChanged",
      "type": "event"
    },
    {
      "inputs": [],
      "name": "ADMIN_ROLE",
      "outputs": [
        {
          "internalType": "bytes32",
          "name": "",
          "type": "bytes32"
        }
      ],
      "stateMutability": "view",
      "type": "function"
    },
    {
      "inputs": [],
      "name": "DEFAULT_ADMIN_ROLE",
      "outputs": [
        {
          "internalType": "bytes32",
          "name": "",
          "type": "bytes32"
        }
      ],
      "stateMutability": "view",
      "type": "function"
    },
    {
      "inputs": [],
      "name": "INITIAL_REPUTATION",
      "outputs": [
        {
          "internalType": "uint256",
          "name": "",
          "type": "uint256"
        }
      ],
      "stateMutability": "view",
      "type": "function"
    },
    {
      "inputs": [],
      "name": "MAX_REPUTATION",
      "outputs": [
        {
          "internalType": "uint256",
          "name": "",
          "type": "uint256"
        }
      ],
      "stateMutability": "view",
      "type": "function"
    },
    {
      "inputs": [],
      "name": "REPUTATION_MANAGER_ROLE",
      "outputs": [
        {
          "internalType": "bytes32",
          "name": "",
          "type": "bytes32"
        }
      ],
      "stateMutability": "view",
      "type": "function"
    },
    {
      "inputs": [
        {
          "internalType": "address",
          "name": "user",
          "type": "address"
        }
      ],
      "name": "getReputationHistory",
      "outputs": [
        {
          "components": [
            {
              "internalType": "uint256",
              "name": "timestamp",
              "type": "uint256"
            },
            {
              "internalType": "int256",
              "name": "change",
              "type": "int256"
            },
            {
              "internalType": "string",
              "name": "reason",
              "type": "string"
            }
          ],
          "internalType": "struct ReputationContract.ReputationHistory[]",
          "name": "",
          "type": "tuple[]"
        }
      ],
      "stateMutability": "view",
      "type": "function"
    },
    {
      "inputs": [
        {
          "internalType": "address",
          "name": "user",
          "type": "address"
        }
      ],
      "name": "getReputationScore",
      "outputs": [
        {
          "components": [
            {
              "internalType": "uint256",
              "name": "totalScore",
              "type": "uint256"
            },
            {
              "internalType": "uint256",
              "name": "feedbackQuality",
              "type": "uint256"
            },
            {
              "internalType": "uint256",
              "name": "communityEngagement",
              "type": "uint256"
            },
            {
              "internalType": "uint256",
              "name": "consistency",
              "type": "uint256"
            },
            {
              "internalType": "uint256",
              "name": "helpfulness",
              "type": "uint256"
            },
            {
              "internalType": "uint256",
              "name": "lastUpdated",
              "type": "uint256"
            }
          ],
          "internalType": "struct ReputationContract.ReputationScore",
          "name": "",
          "type": "tuple"
        }
      ],
      "stateMutability": "view",
      "type": "function"
    },
    {
      "inputs": [
        {
          "internalType": "bytes32",
          "name": "role",
          "type": "bytes32"
        }
      ],
      "name": "getRoleAdmin",
      "outputs": [
        {
          "internalType": "bytes32",
          "name": "",
          "type": "bytes32"
        }
      ],
      "stateMutability": "view",
      "type": "function"
    },
    {
      "inputs": [
        {
          "internalType": "address",
          "name": "user",
          "type": "address"
        }
      ],
      "name": "getTrustLevel",
      "outputs": [
        {
          "internalType": "uint256",
          "name": "",
          "type": "uint256"
        }
      ],
      "stateMutability": "view",
      "type": "function"
    },
    {
      "inputs": [
        {
          "internalType": "address",
          "name": "manager",
          "type": "address"
        }
      ],
      "name": "grantReputationManagerRole",
      "outputs": [],
      "stateMutability": "nonpayable",
      "type": "function"
    },
    {
      "inputs": [
        {
          "internalType": "bytes32",
          "name": "role",
          "type": "bytes32"
        },
        {
          "internalType": "address",
          "name": "account",
          "type": "address"
        }
      ],
      "name": "grantRole",
      "outputs": [],
      "stateMutability": "nonpayable",
      "type": "function"
    },
    {
      "inputs": [
        {
          "internalType": "bytes32",
          "name": "role",
          "type": "bytes32"
        },
        {
          "internalType": "address",
          "name": "account",
          "type": "address"
        }
      ],
      "name": "hasRole",
      "outputs": [
        {
          "internalType": "bool",
          "name": "",
          "type": "bool"
        }
      ],
      "stateMutability": "view",
      "type": "function"
    },
    {
      "inputs": [
        {
          "internalType": "address",
          "name": "user",
          "type": "address"
        }
      ],
      "name": "initializeReputation",
      "outputs": [],
      "stateMutability": "nonpayable",
      "type": "function"
    },
    {
      "inputs": [
        {
          "internalType": "address",
          "name": "user",
          "type": "address"
        }
      ],
      "name": "isTrustedUser",
      "outputs": [
        {
          "internalType": "bool",
          "name": "",
          "type": "bool"
        }
      ],
      "stateMutability": "view",
      "type": "function"
    },
    {
      "inputs": [
        {
          "internalType": "bytes32",
          "name": "role",
          "type": "bytes32"
        },
        {
          "internalType": "address",
          "name": "callerConfirmation",
          "type": "address"
        }
      ],
      "name": "renounceRole",
      "outputs": [],
      "stateMutability": "nonpayable",
      "type": "function"
    },
    {
      "inputs": [
        {
          "internalType": "address",
          "name": "",
          "type": "address"
        },
        {
          "internalType": "uint256",
          "name": "",
          "type": "uint256"
        }
      ],
      "name": "reputationHistory",
      "outputs": [
        {
          "internalType": "uint256",
          "name": "timestamp",
          "type": "uint256"
        },
        {
          "internalType": "int256",
          "name": "change",
          "type": "int256"
        },
        {
          "internalType": "string",
          "name": "reason",
          "type": "string"
        }
      ],
      "stateMutability": "view",
      "type": "function"
    },
    {
      "inputs": [
        {
          "internalType": "address",
          "name": "",
          "type": "address"
        }
      ],
      "name": "reputationScores",
      "outputs": [
        {
          "internalType": "uint256",
          "name": "totalScore",
          "type": "uint256"
        },
        {
          "internalType": "uint256",
          "name": "feedbackQuality",
          "type": "uint256"
        },
        {
          "internalType": "uint256",
          "name": "communityEngagement",
          "type": "uint256"
        },
        {
          "internalType": "uint256",
          "name": "consistency",
          "type": "uint256"
        },
        {
          "internalType": "uint256",
          "name": "helpfulness",
          "type": "uint256"
        },
        {
          "internalType": "uint256",
          "name": "lastUpdated",
          "type": "uint256"
        }
      ],
      "stateMutability": "view",
      "type": "function"
    },
    {
      "inputs": [
        {
          "internalType": "bytes32",
          "name": "role",
          "type": "bytes32"
        },
        {
          "internalType": "address",
          "name": "account",
          "type": "address"
        }
      ],
      "name": "revokeRole",
      "outputs": [],
      "stateMutability": "nonpayable",
      "type": "function"
    },
    {
      "inputs": [],
      "name": "studentRegistry",
      "outputs": [
        {
          "internalType": "contract StudentRegistryContract",
          "name": "",
          "type": "address"
        }
      ],
      "stateMutability": "view",
      "type": "function"
    },
    {
      "inputs": [
        {
          "internalType": "bytes4",
          "name": "interfaceId",
          "type": "bytes4"
        }
      ],
      "name": "supportsInterface",
      "outputs": [
        {
          "internalType": "bool",
          "name": "",
          "type": "bool"
        }
      ],
      "stateMutability": "view",
      "type": "function"
    },
    {
      "inputs": [
        {
          "internalType": "address",
          "name": "",
          "type": "address"
        }
      ],
      "name": "trustLevel",
      "outputs": [
        {
          "internalType": "uint256",
          "name": "",
          "type": "uint256"
        }
      ],
      "stateMutability": "view",
      "type": "function"
    },
    {
      "inputs": [
        {
          "internalType": "address",
          "name": "user",
          "type": "address"
        },
        {
          "internalType": "uint256",
          "name": "engagementPoints",
          "type": "uint256"
        }
      ],
      "name": "updateCommunityEngagement",
      "outputs": [],
      "stateMutability": "nonpayable",
      "type": "function"
    },
    {
      "inputs": [
        {
          "internalType": "address",
          "name": "user",
          "type": "address"
        },
        {
          "internalType": "uint256",
          "name": "consecutiveDays",
          "type": "uint256"
        }
      ],
      "name": "updateConsistency",
      "outputs": [],
      "stateMutability": "nonpayable",
      "type": "function"
    },
    {
      "inputs": [
        {
          "internalType": "address",
          "name": "user",
          "type": "address"
        },
        {
          "internalType": "uint256",
          "name": "qualityScore",
          "type": "uint256"
        }
      ],
      "name": "updateFeedbackQuality",
      "outputs": [],
      "stateMutability": "nonpayable",
      "type": "function"
    },
    {
      "inputs": [
        {
          "internalType": "address",
          "name": "user",
          "type": "address"
        },
        {
          "internalType": "uint256",
          "name": "helpfulActions",
          "type": "uint256"
        }
      ],
      "name": "updateHelpfulness",
      "outputs": [],
      "stateMutability": "nonpayable",
      "type": "function"
    }
  ],
  "bytecode": "0x608034620000ee57601f6200177538819003918201601f19168301916001600160401b03831184841017620000f357808492602094604052833981010312620000ee57516001600160a01b03811690819003620000ee57600180558015620000a957600280546001600160a01b031916919091179055620000803362000109565b506200008c3362000189565b5062000098336200022b565b5060405161148c9081620002c98239f35b60405162461bcd60e51b815260206004820152601860248201527f496e76616c69642073747564656e7420726567697374727900000000000000006044820152606490fd5b600080fd5b634e487b7160e01b600052604160045260246000fd5b6001600160a01b031660008181527fad3228b676f7d3cd4284a5443f17f1962b36e491b30a40b2405849e597ba5fb5602052604081205490919060ff166200018557818052816020526040822081835260205260408220600160ff198254161790553391600080516020620017558339815191528180a4600190565b5090565b6001600160a01b031660008181527f7d7ffb7a348e1c6a02869081a26547b49160dd3df72d1d75a570eb9b698292ec60205260408120549091907fa49807205ce4d355092ef5a8a18f56e8913cf4a201fbe287825b095693c217759060ff166200022657808352826020526040832082845260205260408320600160ff1982541617905560008051602062001755833981519152339380a4600190565b505090565b6001600160a01b031660008181527fb470f2a4bcdb3397bb37cd2aed079057563c5c8c028f1abedb6d2e5f62946ce560205260408120549091907fa5df84d05f94c8e589750a34f9631c6df369aabc0811ccbbd233872ff60aec669060ff166200022657808352826020526040832082845260205260408320600160ff1982541617905560008051602062001755833981519152339380a460019056fe608060408181526004908136101561001657600080fd5b600092833560e01c90816301ffc9a714610bf15750806302cd2671146107355780630d84353614610b705780631b13767f14610b33578063225f312f14610a6c578063248a9ca314610a425780632a370262146109bb5780632f2ff15d1461099357806336568abe1461094c57806348bb0fe41461081257806357b264141461076d5780636a4b783d1461073557806375a67d5c1461066b57806375b238fc146106305780637b057258146106145780637bb27c111461042057806391d14854146103da57806392c16fb5146103b1578063a1c4eadb146102b7578063a217fddf1461029c578063bb32a7bd1461022d578063d213c0f214610210578063d547741f146101d3578063eb0fd86a146101a65763fe0438b21461013757600080fd5b346101a25760203660031901126101a25760c09281906001600160a01b0361015d610c45565b168152600360205220805492600182015492600283015490600560038501549385015494015494815196875260208701528501526060840152608083015260a0820152f35b8280fd5b8382346101cf57816003193601126101cf57602090516000805160206114378339815191528152f35b5080fd5b50346101a257806003193601126101a25761020c913561020760016101f6610c60565b938387528660205286200154610edb565b61101a565b5080f35b8382346101cf57816003193601126101cf57602090516127108152f35b5090346101a257816003193601126101a257610247610c45565b6001600160a01b0316835260205280822080546024359190821015610298579061027091610cb6565b5090610294825491610289600260018601549501610dae565b905193849384610e54565b0390f35b8380fd5b8382346101cf57816003193601126101cf5751908152602090f35b50346101a257806003193601126101a2576102d0610c45565b602435926102dc610e73565b6064841161037657506001600160a01b038116845260036020528184206103469260019261033d916050871061034e57600a905b519161031b83610d70565b601083526f466565646261636b207175616c69747960801b60208401526110b2565b0191825461108f565b60011c905580f35b603c871061035e57600590610310565b6028871061036d578790610310565b60041990610310565b606490602084519162461bcd60e51b83528201526015602482015274496e76616c6964207175616c6974792073636f726560581b6044820152fd5b8382346101cf57816003193601126101cf5760025490516001600160a01b039091168152602090f35b5090346101a257816003193601126101a2578160209360ff926103fb610c60565b903582528186528282206001600160a01b039091168252855220549151911615158152f35b50346101a257602090816003193601126102985761043c610c45565b92610445610e73565b6002548251631eb30aeb60e01b81526001600160a01b03958616838201819052959091859183916024918391165afa90811561060a5786916105d0575b501561059857838552600383526005828620015461056157916060827f9b1e893e493285a3405a5c07cc303ac6bd19e9ffcb22b5f6e2050457e45833db9460058760a09651926104d184610d54565b606484528a87850160148152868601601481528887019160148352886080890194601486528d8a0197428952815260038d522097518855516001880155516002870155516003860155519084015551910155600583526001818820556064815193818552840152820152601260608201527124b734ba34b0b6103932b83aba30ba34b7b760711b6080820152a280f35b82606492519162461bcd60e51b83528201526013602482015272105b1c9958591e481a5b9a5d1a585b1a5e9959606a1b6044820152fd5b82606492519162461bcd60e51b83528201526014602482015273139bdd081d995c9a599a5959081cdd1d59195b9d60621b6044820152fd5b90508381813d8311610603575b6105e78183610d8c565b810103126105ff575180151581036105ff5738610482565b8580fd5b503d6105dd565b83513d88823e3d90fd5b8382346101cf57816003193601126101cf576020905160648152f35b8382346101cf57816003193601126101cf57602090517fa49807205ce4d355092ef5a8a18f56e8913cf4a201fbe287825b095693c217758152f35b5090346101a25760203660031901126101a2578160c09361068a610c45565b8160a0845161069881610d54565b8281528260208201528286820152826060820152826080820152015260018060a01b031681526003602052208251916106d083610d54565b81549384845260018301546020850190815260028401549082860191825260a0600560038701549560608901968752870154966080890197885201549601958652825196875251602087015251908501525160608401525160808301525160a0820152f35b8382346101cf5760203660031901126101cf5760209181906001600160a01b0361075d610c45565b1681526005845220549051908152f35b509190346101cf5760203660031901126101cf57610789610c45565b907fa49807205ce4d355092ef5a8a18f56e8913cf4a201fbe287825b095693c217758084528360205284842033855260205260ff8585205416156107f5578361020c846107f060018960008051602061143783398151915286528560205285200154610edb565b610f01565b6044925084519163e2517d3f60e01b835233908301526024820152fd5b509190346101cf57602090816003193601126101a2576001600160a01b03610838610c45565b1683528082528383209182549167ffffffffffffffff831161093957509290845190610869858260051b0183610d8c565b8082528482018094845285842084915b8383106108f657505050508451938085019181865251809252858501868360051b8701019493965b8388106108ae5786860387f35b909192939483806108e5600193603f198b8203018752858a5180518352848101518584015201519060609081888201520190610c76565b9701930197019690939291936108a1565b6003886001928b9a97989a5161090b81610d22565b85548152848601548382015261092360028701610dae565b8d82015281520192019201919096949396610879565b634e487b7160e01b855260419052602484fd5b508290346101cf57806003193601126101cf57610967610c60565b90336001600160a01b03831603610984575061020c91923561101a565b5163334bd91960e11b81528390fd5b50346101a257806003193601126101a25761020c91356109b660016101f6610c60565b610fa1565b8382346101cf57806003193601126101cf57610a3d60026109da610c45565b92602435936109e7610e73565b610a2082516109f581610d70565b601481527310dbdb5b5d5b9a5d1e48195b99d859d95b595b9d60621b6020820152600a8704836110b2565b6001600160a01b031685526003602052842001805490929061108f565b905580f35b5090346101a25760203660031901126101a257816020936001923581528085522001549051908152f35b8382346101cf57806003193601126101cf57610a86610c45565b90602435610a92610e73565b8390601e8110610b0d5750506014915b838313610aad578380f35b81600391610ae7610b049451610ac281610d70565b6011815270436f6e73697374656e637920626f6e757360781b602082015286836110b2565b6001600160a01b031685526020829052842001805490929061108f565b90558180808380f35b600e8110610b1f575050600a91610aa2565b60079093919310610aa25760059250610aa2565b8382346101cf5760203660031901126101cf5760209160039082906001600160a01b03610b5e610c45565b16815260058552205410159051908152f35b508290346101cf57806003193601126101cf57610b8b610c45565b9260243591610b98610e73565b600383029483860460031484151715610bde57610a20610a3d949596835190610bc082610d70565b600b82526a48656c7066756c6e65737360a81b6020830152836110b2565b634e487b7160e01b855260118352602485fd5b849084346101a25760203660031901126101a2573563ffffffff60e01b81168091036101a25760209250637965db0b60e01b8114908115610c34575b5015158152f35b6301ffc9a760e01b14905083610c2d565b600435906001600160a01b0382168203610c5b57565b600080fd5b602435906001600160a01b0382168203610c5b57565b919082519283825260005b848110610ca2575050826000602080949584010152601f8019910116010190565b602081830181015184830182015201610c81565b8054821015610cd2576000526003602060002091020190600090565b634e487b7160e01b600052603260045260246000fd5b90600182811c92168015610d18575b6020831014610d0257565b634e487b7160e01b600052602260045260246000fd5b91607f1691610cf7565b6060810190811067ffffffffffffffff821117610d3e57604052565b634e487b7160e01b600052604160045260246000fd5b60c0810190811067ffffffffffffffff821117610d3e57604052565b6040810190811067ffffffffffffffff821117610d3e57604052565b90601f8019910116810190811067ffffffffffffffff821117610d3e57604052565b9060405191826000825492610dc284610ce8565b908184526001948581169081600014610e315750600114610dee575b5050610dec92500383610d8c565b565b9093915060005260209081600020936000915b818310610e19575050610dec93508201013880610dde565b85548884018501529485019487945091830191610e01565b915050610dec94506020925060ff191682840152151560051b8201013880610dde565b610e709392606092825260208201528160408201520190610c76565b90565b3360009081527fb470f2a4bcdb3397bb37cd2aed079057563c5c8c028f1abedb6d2e5f62946ce560205260409020546000805160206114378339815191529060ff1615610ebd5750565b6044906040519063e2517d3f60e01b82523360048301526024820152fd5b80600052600060205260406000203360005260205260ff6040600020541615610ebd5750565b6001600160a01b031660008181527fb470f2a4bcdb3397bb37cd2aed079057563c5c8c028f1abedb6d2e5f62946ce560205260408120549091906000805160206114378339815191529060ff16610f9c57808352826020526040832082845260205260408320600160ff198254161790557f2f8788117e7eff1d82e926ec794901d17c78024a50270940304540a733656f0d339380a4600190565b505090565b9060009180835282602052604083209160018060a01b03169182845260205260ff60408420541615600014610f9c57808352826020526040832082845260205260408320600160ff198254161790557f2f8788117e7eff1d82e926ec794901d17c78024a50270940304540a733656f0d339380a4600190565b9060009180835282602052604083209160018060a01b03169182845260205260ff604084205416600014610f9c5780835282602052604083208284526020526040832060ff1981541690557ff6391f5c32d9c69d2a47ea670b442974b53935d1edc7fd64eb21e047a839171b339380a4600190565b9190820180921161109c57565b634e487b7160e01b600052601160045260246000fd5b60018060a01b031691600090838252602060038152604092838120918186136000146113d3576110e386845461108f565b8084556127108091116113cb575b505b4260058401558682526004815284822091855161110f81610d22565b42815282810190888252878101918783528554680100000000000000008110156113b757611144906001978882018155610cb6565b9290926113a3579060029291518255518682015501905180519067ffffffffffffffff821161138f5790829161117e8c9796959454610ce8565b601f8111611338575b508490601f83116001146112a05791807f9b1e893e493285a3405a5c07cc303ac6bd19e9ffcb22b5f6e2050457e45833db9c9b9a9896949286946112209b999792611295575b5050600019600383901b1c191690851b1790555b8381526003825287812054600583529088902080549093909161138881106112585750506005905b8103611225575b5050505054925193849384610e54565b0390a2565b807f1335d4939950a807ce3264d6ab223ac056f238cf4fd0450f4f88ffa6e1532be293558751908152a286388080611210565b6107d0811061126b575050600490611209565b6103e8811061127e575050600390611209565b6101f41161128f5750600290611209565b90611209565b0151905038806111cd565b838552858520919b9a99989796959493929190601f198316855b8181106113205750917f9b1e893e493285a3405a5c07cc303ac6bd19e9ffcb22b5f6e2050457e45833db9d849289989796956112209d9c9b9a9510611307575b505050811b0190556111e1565b015160001960f88460031b161c191690553880806112fa565b828f015184559d87019d8f99509288019287016112ba565b9091928481959697985052858520601f840160051c810191878510611385575b90601f8e99989796959493920160051c01905b8181106113785750611187565b8581558d9850870161136b565b9091508190611358565b634e487b7160e01b84526041600452602484fd5b634e487b7160e01b85526004859052602485fd5b634e487b7160e01b85526041600452602485fd5b8355386110f1565b818612156110f357600160ff1b86146114225785820383541160001461141a5782548681019081116114065783556110f3565b634e487b7160e01b83526011600452602483fd5b8183556110f3565b634e487b7160e01b82526011600452602482fdfea5df84d05f94c8e589750a34f9631c6df369aabc0811ccbbd233872ff60aec66a26469706673582212206fa96b48d3953576dfeca090515b18c5fcacac9868816c2789e8ac06ac803e5c64736f6c634300081400332f8788117e7eff1d82e926ec794901d17c78024a50270940304540a733656f0d",
  "linkReferences": {},
  "deployedLinkReferences": {}
}