{
  "_format": "hh-sol-artifact-1",
  "contractName": "RatingContract",
  "sourceName": "contracts/core/RatingContract.sol",
  "abi": [
    {
      "inputs": [
        {
          "internalType": "address",
          "name": "_studentRegistry",
          "type": "address"
        },
        {
          "internalType": "address",
          "name": "_aiModeration",
          "type": "address"
        }
      ],
      "stateMutability": "nonpayable",
      "type": "constructor"
    },
    {
      "inputs": [],
      "name": "AccessControlBadConfirmation",
      "type": "error"
    },
    {
      "inputs": [
        {
          "internalType": "address",
          "name": "account",
          "type": "address"
        },
        {
          "internalType": "bytes32",
          "name": "neededRole",
          "type": "bytes32"
        }
      ],
      "name": "AccessControlUnauthorizedAccount",
      "type": "error"
    },
    {
      "inputs": [],
      "name": "ReentrancyGuardReentrantCall",
      "type": "error"
    },
    {
      "anonymous": false,
      "inputs": [
        {
          "indexed": true,
          "internalType": "uint256",
          "name": "ratingId",
          "type": "uint256"
        },
        {
          "indexed": true,
          "internalType": "address",
          "name": "rater",
          "type": "address"
        },
        {
          "indexed": true,
          "internalType": "address",
          "name": "faculty",
          "type": "address"
        },
        {
          "indexed": false,
          "internalType": "uint8[5]",
          "name": "dimensions",
          "type": "uint8[5]"
        },
        {
          "indexed": false,
          "internalType": "uint256",
          "name": "timestamp",
          "type": "uint256"
        }
      ],
      "name": "FacultyRated",
      "type": "event"
    },
    {
      "anonymous": false,
      "inputs": [
        {
          "indexed": true,
          "internalType": "uint256",
          "name": "ratingId",
          "type": "uint256"
        },
        {
          "indexed": true,
          "internalType": "address",
          "name": "rater",
          "type": "address"
        },
        {
          "indexed": false,
          "internalType": "string",
          "name": "location",
          "type": "string"
        },
        {
          "indexed": false,
          "internalType": "uint256",
          "name": "timestamp",
          "type": "uint256"
        }
      ],
      "name": "InfrastructureRated",
      "type": "event"
    },
    {
      "anonymous": false,
      "inputs": [
        {
          "indexed": true,
          "internalType": "uint256",
          "name": "ratingId",
          "type": "uint256"
        },
        {
          "indexed": false,
          "internalType": "enum RatingContract.RatingType",
          "name": "ratingType",
          "type": "uint8"
        }
      ],
      "name": "RatingVerified",
      "type": "event"
    },
    {
      "anonymous": false,
      "inputs": [
        {
          "indexed": true,
          "internalType": "bytes32",
          "name": "role",
          "type": "bytes32"
        },
        {
          "indexed": true,
          "internalType": "bytes32",
          "name": "previousAdminRole",
          "type": "bytes32"
        },
        {
          "indexed": true,
          "internalType": "bytes32",
          "name": "newAdminRole",
          "type": "bytes32"
        }
      ],
      "name": "RoleAdminChanged",
      "type": "event"
    },
    {
      "anonymous": false,
      "inputs": [
        {
          "indexed": true,
          "internalType": "bytes32",
          "name": "role",
          "type": "bytes32"
        },
        {
          "indexed": true,
          "internalType": "address",
          "name": "account",
          "type": "address"
        },
        {
          "indexed": true,
          "internalType": "address",
          "name": "sender",
          "type": "address"
        }
      ],
      "name": "RoleGranted",
      "type": "event"
    },
    {
      "anonymous": false,
      "inputs": [
        {
          "indexed": true,
          "internalType": "bytes32",
          "name": "role",
          "type": "bytes32"
        },
        {
          "indexed": true,
          "internalType": "address",
          "name": "account",
          "type": "address"
        },
        {
          "indexed": true,
          "internalType": "address",
          "name": "sender",
          "type": "address"
        }
      ],
      "name": "RoleRevoked",
      "type": "event"
    },
    {
      "anonymous": false,
      "inputs": [
        {
          "indexed": true,
          "internalType": "uint256",
          "name": "ratingId",
          "type": "uint256"
        },
        {
          "indexed": true,
          "internalType": "address",
          "name": "rater",
          "type": "address"
        },
        {
          "indexed": false,
          "internalType": "enum RatingContract.RatingType",
          "name": "serviceType",
          "type": "uint8"
        },
        {
          "indexed": false,
          "internalType": "uint256",
          "name": "timestamp",
          "type": "uint256"
        }
      ],
      "name": "ServiceRated",
      "type": "event"
    },
    {
      "inputs": [],
      "name": "ADMIN_ROLE",
      "outputs": [
        {
          "internalType": "bytes32",
          "name": "",
          "type": "bytes32"
        }
      ],
      "stateMutability": "view",
      "type": "function"
    },
    {
      "inputs": [],
      "name": "DEFAULT_ADMIN_ROLE",
      "outputs": [
        {
          "internalType": "bytes32",
          "name": "",
          "type": "bytes32"
        }
      ],
      "stateMutability": "view",
      "type": "function"
    },
    {
      "inputs": [],
      "name": "MODERATOR_ROLE",
      "outputs": [
        {
          "internalType": "bytes32",
          "name": "",
          "type": "bytes32"
        }
      ],
      "stateMutability": "view",
      "type": "function"
    },
    {
      "inputs": [],
      "name": "aiModeration",
      "outputs": [
        {
          "internalType": "contract AIModerationContract",
          "name": "",
          "type": "address"
        }
      ],
      "stateMutability": "view",
      "type": "function"
    },
    {
      "inputs": [
        {
          "internalType": "address",
          "name": "",
          "type": "address"
        }
      ],
      "name": "facultyAggregates",
      "outputs": [
        {
          "internalType": "uint256",
          "name": "totalRatings",
          "type": "uint256"
        },
        {
          "internalType": "uint256",
          "name": "sumTeachingEffectiveness",
          "type": "uint256"
        },
        {
          "internalType": "uint256",
          "name": "sumAccessibilitySupport",
          "type": "uint256"
        },
        {
          "internalType": "uint256",
          "name": "sumInnovationAdaptability",
          "type": "uint256"
        },
        {
          "internalType": "uint256",
          "name": "sumAssessmentFairness",
          "type": "uint256"
        },
        {
          "internalType": "uint256",
          "name": "sumProfessionalDevelopment",
          "type": "uint256"
        },
        {
          "internalType": "uint256",
          "name": "lastUpdated",
          "type": "uint256"
        }
      ],
      "stateMutability": "view",
      "type": "function"
    },
    {
      "inputs": [],
      "name": "facultyRatingCounter",
      "outputs": [
        {
          "internalType": "uint256",
          "name": "",
          "type": "uint256"
        }
      ],
      "stateMutability": "view",
      "type": "function"
    },
    {
      "inputs": [
        {
          "internalType": "address",
          "name": "",
          "type": "address"
        },
        {
          "internalType": "uint256",
          "name": "",
          "type": "uint256"
        }
      ],
      "name": "facultyRatingIds",
      "outputs": [
        {
          "internalType": "uint256",
          "name": "",
          "type": "uint256"
        }
      ],
      "stateMutability": "view",
      "type": "function"
    },
    {
      "inputs": [
        {
          "internalType": "uint256",
          "name": "",
          "type": "uint256"
        }
      ],
      "name": "facultyRatings",
      "outputs": [
        {
          "internalType": "uint256",
          "name": "id",
          "type": "uint256"
        },
        {
          "internalType": "address",
          "name": "rater",
          "type": "address"
        },
        {
          "internalType": "address",
          "name": "faculty",
          "type": "address"
        },
        {
          "internalType": "uint8",
          "name": "teachingEffectiveness",
          "type": "uint8"
        },
        {
          "internalType": "uint8",
          "name": "accessibilitySupport",
          "type": "uint8"
        },
        {
          "internalType": "uint8",
          "name": "innovationAdaptability",
          "type": "uint8"
        },
        {
          "internalType": "uint8",
          "name": "assessmentFairness",
          "type": "uint8"
        },
        {
          "internalType": "uint8",
          "name": "professionalDevelopment",
          "type": "uint8"
        },
        {
          "internalType": "bytes32",
          "name": "commentHash",
          "type": "bytes32"
        },
        {
          "internalType": "uint256",
          "name": "timestamp",
          "type": "uint256"
        },
        {
          "internalType": "bool",
          "name": "isAnonymous",
          "type": "bool"
        },
        {
          "internalType": "bool",
          "name": "isVerified",
          "type": "bool"
        }
      ],
      "stateMutability": "view",
      "type": "function"
    },
    {
      "inputs": [
        {
          "internalType": "address",
          "name": "faculty",
          "type": "address"
        }
      ],
      "name": "getAverageRating",
      "outputs": [
        {
          "internalType": "uint8[5]",
          "name": "averages",
          "type": "uint8[5]"
        }
      ],
      "stateMutability": "view",
      "type": "function"
    },
    {
      "inputs": [
        {
          "internalType": "uint256",
          "name": "ratingId",
          "type": "uint256"
        }
      ],
      "name": "getFacultyRating",
      "outputs": [
        {
          "components": [
            {
              "internalType": "uint256",
              "name": "id",
              "type": "uint256"
            },
            {
              "internalType": "address",
              "name": "rater",
              "type": "address"
            },
            {
              "internalType": "address",
              "name": "faculty",
              "type": "address"
            },
            {
              "internalType": "uint8",
              "name": "teachingEffectiveness",
              "type": "uint8"
            },
            {
              "internalType": "uint8",
              "name": "accessibilitySupport",
              "type": "uint8"
            },
            {
              "internalType": "uint8",
              "name": "innovationAdaptability",
              "type": "uint8"
            },
            {
              "internalType": "uint8",
              "name": "assessmentFairness",
              "type": "uint8"
            },
            {
              "internalType": "uint8",
              "name": "professionalDevelopment",
              "type": "uint8"
            },
            {
              "internalType": "bytes32",
              "name": "commentHash",
              "type": "bytes32"
            },
            {
              "internalType": "uint256",
              "name": "timestamp",
              "type": "uint256"
            },
            {
              "internalType": "bool",
              "name": "isAnonymous",
              "type": "bool"
            },
            {
              "internalType": "bool",
              "name": "isVerified",
              "type": "bool"
            }
          ],
          "internalType": "struct RatingContract.FacultyRating",
          "name": "",
          "type": "tuple"
        }
      ],
      "stateMutability": "view",
      "type": "function"
    },
    {
      "inputs": [
        {
          "internalType": "uint256",
          "name": "ratingId",
          "type": "uint256"
        }
      ],
      "name": "getInfrastructureRating",
      "outputs": [
        {
          "components": [
            {
              "internalType": "uint256",
              "name": "id",
              "type": "uint256"
            },
            {
              "internalType": "address",
              "name": "rater",
              "type": "address"
            },
            {
              "internalType": "string",
              "name": "location",
              "type": "string"
            },
            {
              "internalType": "uint8",
              "name": "physicalCondition",
              "type": "uint8"
            },
            {
              "internalType": "uint8",
              "name": "technologySystems",
              "type": "uint8"
            },
            {
              "internalType": "uint8",
              "name": "learningEnvironment",
              "type": "uint8"
            },
            {
              "internalType": "uint8",
              "name": "recreationalFacilities",
              "type": "uint8"
            },
            {
              "internalType": "bytes32",
              "name": "commentHash",
              "type": "bytes32"
            },
            {
              "internalType": "bytes32",
              "name": "imageHash",
              "type": "bytes32"
            },
            {
              "internalType": "uint256",
              "name": "timestamp",
              "type": "uint256"
            },
            {
              "internalType": "bool",
              "name": "isAnonymous",
              "type": "bool"
            },
            {
              "internalType": "bool",
              "name": "isVerified",
              "type": "bool"
            }
          ],
          "internalType": "struct RatingContract.InfrastructureRating",
          "name": "",
          "type": "tuple"
        }
      ],
      "stateMutability": "view",
      "type": "function"
    },
    {
      "inputs": [
        {
          "internalType": "string",
          "name": "location",
          "type": "string"
        }
      ],
      "name": "getLocationRatings",
      "outputs": [
        {
          "internalType": "uint256[]",
          "name": "",
          "type": "uint256[]"
        }
      ],
      "stateMutability": "view",
      "type": "function"
    },
    {
      "inputs": [
        {
          "internalType": "address",
          "name": "faculty",
          "type": "address"
        }
      ],
      "name": "getRatingHistory",
      "outputs": [
        {
          "internalType": "uint256[]",
          "name": "",
          "type": "uint256[]"
        }
      ],
      "stateMutability": "view",
      "type": "function"
    },
    {
      "inputs": [
        {
          "internalType": "bytes32",
          "name": "role",
          "type": "bytes32"
        }
      ],
      "name": "getRoleAdmin",
      "outputs": [
        {
          "internalType": "bytes32",
          "name": "",
          "type": "bytes32"
        }
      ],
      "stateMutability": "view",
      "type": "function"
    },
    {
      "inputs": [
        {
          "internalType": "uint256",
          "name": "ratingId",
          "type": "uint256"
        }
      ],
      "name": "getServiceRating",
      "outputs": [
        {
          "components": [
            {
              "internalType": "uint256",
              "name": "id",
              "type": "uint256"
            },
            {
              "internalType": "address",
              "name": "rater",
              "type": "address"
            },
            {
              "internalType": "enum RatingContract.RatingType",
              "name": "serviceType",
              "type": "uint8"
            },
            {
              "internalType": "uint8",
              "name": "quality",
              "type": "uint8"
            },
            {
              "internalType": "uint8",
              "name": "efficiency",
              "type": "uint8"
            },
            {
              "internalType": "uint8",
              "name": "responsiveness",
              "type": "uint8"
            },
            {
              "internalType": "uint8",
              "name": "satisfaction",
              "type": "uint8"
            },
            {
              "internalType": "bytes32",
              "name": "commentHash",
              "type": "bytes32"
            },
            {
              "internalType": "uint256",
              "name": "timestamp",
              "type": "uint256"
            },
            {
              "internalType": "bool",
              "name": "isAnonymous",
              "type": "bool"
            }
          ],
          "internalType": "struct RatingContract.ServiceRating",
          "name": "",
          "type": "tuple"
        }
      ],
      "stateMutability": "view",
      "type": "function"
    },
    {
      "inputs": [],
      "name": "getStatistics",
      "outputs": [
        {
          "internalType": "uint256",
          "name": "faculty",
          "type": "uint256"
        },
        {
          "internalType": "uint256",
          "name": "infrastructure",
          "type": "uint256"
        },
        {
          "internalType": "uint256",
          "name": "service",
          "type": "uint256"
        }
      ],
      "stateMutability": "view",
      "type": "function"
    },
    {
      "inputs": [
        {
          "internalType": "address",
          "name": "moderator",
          "type": "address"
        }
      ],
      "name": "grantModeratorRole",
      "outputs": [],
      "stateMutability": "nonpayable",
      "type": "function"
    },
    {
      "inputs": [
        {
          "internalType": "bytes32",
          "name": "role",
          "type": "bytes32"
        },
        {
          "internalType": "address",
          "name": "account",
          "type": "address"
        }
      ],
      "name": "grantRole",
      "outputs": [],
      "stateMutability": "nonpayable",
      "type": "function"
    },
    {
      "inputs": [
        {
          "internalType": "address",
          "name": "",
          "type": "address"
        },
        {
          "internalType": "address",
          "name": "",
          "type": "address"
        }
      ],
      "name": "hasRatedFaculty",
      "outputs": [
        {
          "internalType": "bool",
          "name": "",
          "type": "bool"
        }
      ],
      "stateMutability": "view",
      "type": "function"
    },
    {
      "inputs": [
        {
          "internalType": "bytes32",
          "name": "role",
          "type": "bytes32"
        },
        {
          "internalType": "address",
          "name": "account",
          "type": "address"
        }
      ],
      "name": "hasRole",
      "outputs": [
        {
          "internalType": "bool",
          "name": "",
          "type": "bool"
        }
      ],
      "stateMutability": "view",
      "type": "function"
    },
    {
      "inputs": [],
      "name": "infrastructureRatingCounter",
      "outputs": [
        {
          "internalType": "uint256",
          "name": "",
          "type": "uint256"
        }
      ],
      "stateMutability": "view",
      "type": "function"
    },
    {
      "inputs": [
        {
          "internalType": "uint256",
          "name": "",
          "type": "uint256"
        }
      ],
      "name": "infrastructureRatings",
      "outputs": [
        {
          "internalType": "uint256",
          "name": "id",
          "type": "uint256"
        },
        {
          "internalType": "address",
          "name": "rater",
          "type": "address"
        },
        {
          "internalType": "string",
          "name": "location",
          "type": "string"
        },
        {
          "internalType": "uint8",
          "name": "physicalCondition",
          "type": "uint8"
        },
        {
          "internalType": "uint8",
          "name": "technologySystems",
          "type": "uint8"
        },
        {
          "internalType": "uint8",
          "name": "learningEnvironment",
          "type": "uint8"
        },
        {
          "internalType": "uint8",
          "name": "recreationalFacilities",
          "type": "uint8"
        },
        {
          "internalType": "bytes32",
          "name": "commentHash",
          "type": "bytes32"
        },
        {
          "internalType": "bytes32",
          "name": "imageHash",
          "type": "bytes32"
        },
        {
          "internalType": "uint256",
          "name": "timestamp",
          "type": "uint256"
        },
        {
          "internalType": "bool",
          "name": "isAnonymous",
          "type": "bool"
        },
        {
          "internalType": "bool",
          "name": "isVerified",
          "type": "bool"
        }
      ],
      "stateMutability": "view",
      "type": "function"
    },
    {
      "inputs": [
        {
          "internalType": "string",
          "name": "",
          "type": "string"
        },
        {
          "internalType": "uint256",
          "name": "",
          "type": "uint256"
        }
      ],
      "name": "locationRatingIds",
      "outputs": [
        {
          "internalType": "uint256",
          "name": "",
          "type": "uint256"
        }
      ],
      "stateMutability": "view",
      "type": "function"
    },
    {
      "inputs": [
        {
          "internalType": "bytes32",
          "name": "role",
          "type": "bytes32"
        },
        {
          "internalType": "address",
          "name": "callerConfirmation",
          "type": "address"
        }
      ],
      "name": "renounceRole",
      "outputs": [],
      "stateMutability": "nonpayable",
      "type": "function"
    },
    {
      "inputs": [
        {
          "internalType": "bytes32",
          "name": "role",
          "type": "bytes32"
        },
        {
          "internalType": "address",
          "name": "account",
          "type": "address"
        }
      ],
      "name": "revokeRole",
      "outputs": [],
      "stateMutability": "nonpayable",
      "type": "function"
    },
    {
      "inputs": [],
      "name": "serviceRatingCounter",
      "outputs": [
        {
          "internalType": "uint256",
          "name": "",
          "type": "uint256"
        }
      ],
      "stateMutability": "view",
      "type": "function"
    },
    {
      "inputs": [
        {
          "internalType": "uint256",
          "name": "",
          "type": "uint256"
        }
      ],
      "name": "serviceRatings",
      "outputs": [
        {
          "internalType": "uint256",
          "name": "id",
          "type": "uint256"
        },
        {
          "internalType": "address",
          "name": "rater",
          "type": "address"
        },
        {
          "internalType": "enum RatingContract.RatingType",
          "name": "serviceType",
          "type": "uint8"
        },
        {
          "internalType": "uint8",
          "name": "quality",
          "type": "uint8"
        },
        {
          "internalType": "uint8",
          "name": "efficiency",
          "type": "uint8"
        },
        {
          "internalType": "uint8",
          "name": "responsiveness",
          "type": "uint8"
        },
        {
          "internalType": "uint8",
          "name": "satisfaction",
          "type": "uint8"
        },
        {
          "internalType": "bytes32",
          "name": "commentHash",
          "type": "bytes32"
        },
        {
          "internalType": "uint256",
          "name": "timestamp",
          "type": "uint256"
        },
        {
          "internalType": "bool",
          "name": "isAnonymous",
          "type": "bool"
        }
      ],
      "stateMutability": "view",
      "type": "function"
    },
    {
      "inputs": [],
      "name": "studentRegistry",
      "outputs": [
        {
          "internalType": "contract StudentRegistryContract",
          "name": "",
          "type": "address"
        }
      ],
      "stateMutability": "view",
      "type": "function"
    },
    {
      "inputs": [
        {
          "internalType": "address",
          "name": "faculty",
          "type": "address"
        },
        {
          "internalType": "uint8[5]",
          "name": "dimensions",
          "type": "uint8[5]"
        },
        {
          "internalType": "bytes32",
          "name": "commentHash",
          "type": "bytes32"
        },
        {
          "internalType": "bool",
          "name": "isAnonymous",
          "type": "bool"
        }
      ],
      "name": "submitFacultyRating",
      "outputs": [
        {
          "internalType": "uint256",
          "name": "",
          "type": "uint256"
        }
      ],
      "stateMutability": "nonpayable",
      "type": "function"
    },
    {
      "inputs": [
        {
          "internalType": "string",
          "name": "location",
          "type": "string"
        },
        {
          "internalType": "uint8[4]",
          "name": "dimensions",
          "type": "uint8[4]"
        },
        {
          "internalType": "bytes32",
          "name": "commentHash",
          "type": "bytes32"
        },
        {
          "internalType": "bytes32",
          "name": "imageHash",
          "type": "bytes32"
        },
        {
          "internalType": "bool",
          "name": "isAnonymous",
          "type": "bool"
        }
      ],
      "name": "submitInfrastructureRating",
      "outputs": [
        {
          "internalType": "uint256",
          "name": "",
          "type": "uint256"
        }
      ],
      "stateMutability": "nonpayable",
      "type": "function"
    },
    {
      "inputs": [
        {
          "internalType": "enum RatingContract.RatingType",
          "name": "serviceType",
          "type": "uint8"
        },
        {
          "internalType": "uint8[4]",
          "name": "dimensions",
          "type": "uint8[4]"
        },
        {
          "internalType": "bytes32",
          "name": "commentHash",
          "type": "bytes32"
        },
        {
          "internalType": "bool",
          "name": "isAnonymous",
          "type": "bool"
        }
      ],
      "name": "submitServiceRating",
      "outputs": [
        {
          "internalType": "uint256",
          "name": "",
          "type": "uint256"
        }
      ],
      "stateMutability": "nonpayable",
      "type": "function"
    },
    {
      "inputs": [
        {
          "internalType": "bytes4",
          "name": "interfaceId",
          "type": "bytes4"
        }
      ],
      "name": "supportsInterface",
      "outputs": [
        {
          "internalType": "bool",
          "name": "",
          "type": "bool"
        }
      ],
      "stateMutability": "view",
      "type": "function"
    },
    {
      "inputs": [
        {
          "internalType": "uint256",
          "name": "ratingId",
          "type": "uint256"
        },
        {
          "internalType": "enum RatingContract.RatingType",
          "name": "ratingType",
          "type": "uint8"
        }
      ],
      "name": "verifyRating",
      "outputs": [],
      "stateMutability": "nonpayable",
      "type": "function"
    }
  ],
  "bytecode": "0x6080346200014757601f6200280138819003918201601f19168301916001600160401b038311848410176200014c57808492604094855283398101031262000147576200005a6020620000528362000162565b920162000162565b600180556001600160a01b0391821691908215620001025716908115620000bd5760018060a01b0319908160025416176002556003541617600355620000a03362000177565b50620000ac33620001f7565b5060405161254790816200029a8239f35b60405162461bcd60e51b815260206004820152601560248201527f496e76616c6964204149206d6f6465726174696f6e00000000000000000000006044820152606490fd5b60405162461bcd60e51b815260206004820152601860248201527f496e76616c69642073747564656e7420726567697374727900000000000000006044820152606490fd5b600080fd5b634e487b7160e01b600052604160045260246000fd5b51906001600160a01b03821682036200014757565b6001600160a01b031660008181527fad3228b676f7d3cd4284a5443f17f1962b36e491b30a40b2405849e597ba5fb5602052604081205490919060ff16620001f357818052816020526040822081835260205260408220600160ff198254161790553391600080516020620027e18339815191528180a4600190565b5090565b6001600160a01b031660008181527f7d7ffb7a348e1c6a02869081a26547b49160dd3df72d1d75a570eb9b698292ec60205260408120549091907fa49807205ce4d355092ef5a8a18f56e8913cf4a201fbe287825b095693c217759060ff166200029457808352826020526040832082845260205260408320600160ff19825416179055600080516020620027e1833981519152339380a4600190565b50509056fe608080604052600436101561001357600080fd5b60003560e01c90816301ffc9a714611c895750806305d2e83414611bed578063162c3f8414611b975780631b679a37146119e05780631b7d2b5e14611996578063248a9ca3146119675780632f2ff15d1461192857806336568abe146118e1578063372d6b27146118b25780635346e3ac146113b257806356b1ac78146113945780635da7b93e1461131957806364c3e3661461129f57806375b238fc1461126457806376e82bd2146110ec578063797669c9146110c3578063810bb5d614610c685780638797bf0914610be057806391d1485414610b9357806392c16fb514610b6a5780639661129f14610ac25780639cd6fb3d14610a99578063a217fddf14610a7d578063a6d0f16b14610a5f578063aa232dc21461099e578063aca5b376146108e0578063be4665e7146107a6578063c6327d4e146106d2578063c8b67522146106a0578063d547741f1461065f578063e62dfe9014610375578063e70ceb17146101ad5763f9040ab51461018a57600080fd5b346101a85760003660031901126101a8576020600d54604051908152f35b600080fd5b346101a85760203660031901126101a85760006101606040516101cf81611cdc565b828152826020820152606060408201528260608201528260808201528260a08201528260c08201528260e082015282610100820152826101208201528261014082015201526004356000526005602052604060002060ff60076040519261023584611cdc565b8054845260018101546001600160a01b0316602085015261025860028201611f21565b60408501528260038201548181166060870152818160081c166080870152818160101c1660a087015260181c1660c0850152600481015460e0850152600581015461010085015260068101546101208501520154818116151561014084015260081c1615156101608201526040518091602082528051602083015260018060a01b036020820151166040830152610160610303604083015161018060608601526101a0850190611fc7565b9160ff606082015116608085015260ff60808201511660a085015260ff60a08201511660c085015260ff60c08201511660e085015260e0810151610100850152610100810151610120850152610120810151610140850152610140810151151582850152015115156101808301520390f35b346101a85760e03660031901126101a85760043560068110156101a85761039b36611e8d565b9060c435908115158092036101a8576103b26122d9565b600254604051631eb30aeb60e01b81523360048201526020946001600160a01b039290919086908290602490829087165afa8015610653576103fc91600091610626575b506121e3565b60005b600481106105dd575082610414600d54612226565b9485600d5560ff9386858551169589818188015116918060608160408b0151169901511660405198899661044788611cf9565b86885260068589019533875261046160408b019c8d61231a565b60608a019d8e5260808a0197885260a08a0193845260c08a0194855260e08a019860a4358a526101206101008c019b428d52019b8c526000525260406000209a518b5560018b0194511690845499519060068210156105c75761052c85610560986105829f8260049f916105129261054699839960ff60a01b9060a01b16916affffffffffffffffffffff60a81b1617178c5551168a9081549060ff60a81b9060a81b169060ff60a81b1916179055565b51885460ff60b01b1916911660b01b60ff60b01b16178755565b51855460ff60b81b1916911660b81b60ff60b81b16178455565b51825460ff60c01b1916911660c01b60ff60c01b16179055565b51600285015551600384015551151591019060ff801983541691151516179055565b61058f6040518092611e80565b4283820152817f67ef85ee7572a0deb3cc97bf5bd1ab1cedf7c3c162a95051ebac8f880f76480760403393a360018055604051908152f35b634e487b7160e01b600052602160045260246000fd5b6106099061060460ff6001816105f38588612309565b51161015908161060e575b5061225c565b612226565b6103ff565b600a915061061c8487612309565b51161115896105fe565b6106469150873d891161064c575b61063e8183611d32565b8101906121cb565b876103f6565b503d610634565b6040513d6000823e3d90fd5b346101a85760403660031901126101a85761069e60043561067e611dfc565b90806000526000602052610699600160406000200154612017565b612156565b005b346101a85760203660031901126101a85760a06106c36106be611de6565b612346565b6106d06040518092611fec565bf35b346101a85760203660031901126101a8576004356000908152600560205260409020805460018201546001600160a01b03169161071160028201611f21565b600382015490600483015492600581015461074e6007600684015493015493604051988998895260208901526101808060408a0152880190611fc7565b9460ff858180971660608a0152818160081c1660808a0152818160101c1660a08a015260181c1660c088015260e0870152610100860152610120850152818116151561014085015260081c1615156101608301520390f35b346101a85760403660031901126101a85760243560043560068210156101a8573360009081527ff179aafcc4ff8137fca1ef3b9ec4d165f87016ba123e7973fba770bc55e240e360209081526040909120546000805160206124f2833981519152939060ff16156108c1577f684a26583534ed99a49caebeeec9d89557aa34503a9adf64d878c00348a4eccd91908061087f57836000526004825261085160406000205415156124b2565b8360005260048252600560406000200161010061ff00198254161790555b61087c6040518092611e80565ba2005b6001810361086f57836000526005825261089f60406000205415156124b2565b8360005260058252600760406000200161010061ff001982541617905561086f565b60405163e2517d3f60e01b815233600482015260248101859052604490fd5b346101a85760203660031901126101a8576004356000526004602052610180604060002080549060018060a01b03908160018201541690600281015492600382015490600560048401549301549360405196875260208701528416604086015260ff8481809660a01c166060880152818160a81c166080880152818160b01c1660a0880152818160b81c1660c088015260c01c1660e0860152610100850152610120840152818116151561014084015260081c161515610160820152f35b346101a85760203660031901126101a8576109b7611de6565b3360009081527f7d7ffb7a348e1c6a02869081a26547b49160dd3df72d1d75a570eb9b698292ec60205260409020547fa49807205ce4d355092ef5a8a18f56e8913cf4a201fbe287825b095693c217759060ff1615610a415761069e826000805160206124f28339815191526000526000602052610a3c600160406000200154612017565b61203d565b6044906040519063e2517d3f60e01b82523360048301526024820152fd5b346101a85760003660031901126101a8576020600b54604051908152f35b346101a85760003660031901126101a857602060405160008152f35b346101a85760003660031901126101a8576003546040516001600160a01b039091168152602090f35b346101a85760203660031901126101a857600435600052600660205261014060406000208054906001810154906002810154600460038301549260ff9182910154169360405195865260018060a01b0381166020870152610b2b60408701838360a01c16611e80565b818160a81c166060870152818160b01c166080870152818160b81c1660a087015260c01c1660c085015260e08401526101008301521515610120820152f35b346101a85760003660031901126101a8576002546040516001600160a01b039091168152602090f35b346101a85760403660031901126101a857610bac611dfc565b600435600052600060205260406000209060018060a01b0316600052602052602060ff604060002054166040519015158152f35b346101a8576020806003193601126101a8576001600160a01b03610c02611de6565b1660005260088152604060002090604051908181845491828152019360005281600020916000905b828210610c5157610c4d85610c4181890382611d32565b60405191829182611dab565b0390f35b835486529485019460019384019390910190610c2a565b346101a857610100806003193601126101a85760043567ffffffffffffffff81116101a857610c9b903690600401611d54565b610ca436611e8d565b90610cad611e4e565b91610cb66122d9565b600254604051631eb30aeb60e01b815233600482015290602090829060249082906001600160a01b03165afa801561065357610cf9916000916110a457506121e3565b81511561106b5760005b600481106110285750610d17600c54612226565b9283600c5560ff8251169160ff6020820151169060ff606081604084015116920151169160405194610d4886611cdc565b8786523360208701528660408701526060860152608085015260a084015260c083015260a43560e083015260c4358583015242610120830152151561014082015260006101608201528260005260056020526040600020815181556001810160018060a01b036020840151166bffffffffffffffffffffffff60a01b825416179055604082015194855167ffffffffffffffff811161101257610dee6002840154611ee7565b96601f8811610fcb575b602097508790601f8311600114610f52579282600793610ed197969361016096600092610f47575b50508160011b916000199060031b1c19161760028301555b6003820160ff60608701511681549061ff00608089015160081b1662ff000060a08a015160101b169163ff00000060c08b015160181b169363ffffffff191617171717905560e08501516004830155840151600582015561012084015160068201550191610eb96101408201511515849060ff801983541691151516179055565b0151815461ff00191690151560081b61ff0016179055565b610ef88260405185818551610ee98183858a01611e5d565b8101600981520301902061229f565b817f2a5a4b49b316919133ed3d16a798a0f888312f13deaa93e00f12cf03ed18e51e610f2f60405193604085526040850190611fc7565b9242868201528033940390a360018055604051908152f35b015190508b80610e20565b9060028501600052886000209160005b601f1985168110610fb4575083610ed19796936101609693600193600797601f19811610610f9b575b505050811b016002830155610e38565b015160001960f88460031b161c191690558b8080610f8b565b91928a600181928685015181550194019201610f62565b600284016000526020600020601f830160051c81016020841061100b575b601f8a0160051c82018110610fff575050610df8565b60008155600101610fe9565b5080610fe9565b634e487b7160e01b600052604160045260246000fd5b61104e9061060460ff60018161103e8588612309565b511610159081611053575061225c565b610d03565b600a91506110618487612309565b51161115886105fe565b60405162461bcd60e51b8152602060048201526011602482015270131bd8d85d1a5bdb881c995c5d5a5c9959607a1b6044820152606490fd5b6110bd915060203d60201161064c5761063e8183611d32565b866103f6565b346101a85760003660031901126101a85760206040516000805160206124f28339815191528152f35b346101a85760203660031901126101a857600061012060405161110e81611cf9565b8281528260208201528260408201528260608201528260808201528260a08201528260c08201528260e08201528261010082015201526004356000526006602052610140604060002060ff60046040519261116884611cf9565b8054845260018101546001600160a01b0381166020860152839061119560a082901c83166040880161231a565b818160a81c166060870152818160b01c166080870152818160b81c1660a087015260c01c1660c0850152600281015460e085015260038101546101008501520154161515610120820152610120604051918051835260018060a01b03602082015116602084015261120e60408201516040850190611e80565b60ff606082015116606084015260ff608082015116608084015260ff60a08201511660a084015260ff60c08201511660c084015260e081015160e084015261010081015161010084015201511515610120820152f35b346101a85760003660031901126101a85760206040517fa49807205ce4d355092ef5a8a18f56e8913cf4a201fbe287825b095693c217758152f35b346101a85760403660031901126101a85760043567ffffffffffffffff81116101a8576112d0903690600401611d54565b6112ec6020602435928160405193828580945193849201611e5d565b8101600981520301902080548210156101a85760209161130b91611e12565b90546040519160031b1c8152f35b346101a85760203660031901126101a8576001600160a01b0361133a611de6565b16600052600760205260e06040600020805490600181015490600281015460038201546004830154916006600585015494015494604051968752602087015260408601526060850152608084015260a083015260c0820152f35b346101a85760003660031901126101a8576020600c54604051908152f35b346101a8576101003660031901126101a8576113cc611de6565b36604312156101a857604051906113e282611d16565b813660c4116101a8576024905b60c4821061189a575050611401611e4e565b9061140a6122d9565b600254604051631eb30aeb60e01b8152336004820152906001600160a01b0316602082602481845afa9081156106535761145060209260249460009161187d57506121e3565b604051636153c38160e11b81526001600160a01b038516600482015292839182905afa9081156106535760009161185e575b50156118225733600052600a602052604060002060018060a01b03821660005260205260ff604060002054166117dd5760005b600581106117965750916020926116686114d0600b54612226565b9384600b5560ff8451169060ff878601511660ff60408701511660ff6060880151169060ff608089015116926040519561150987611cdc565b8a8752338c88019081526001600160a01b038a81166040808b0191825260608b0194855260808b0195865260a0808c019790975260c08b019790975260e08a019790975260c4356101008a0152426101208a01529615156101408901526000610160808a018290528d825260048f529590208851815590516001820180546001600160a01b0319169189169190911790559451600286018054925193516001600160b01b031990931691909716179190921b60ff60a01b161760a89190911b60ff60a81b1617835591600591906116339060a0860151815460ff60b01b191660b09190911b60ff60b01b1617815560c0860151815460ff60b81b191660b89190911b60ff60b81b1617815560e0860151815460ff60c01b191660c09190911b60ff60c01b16179055565b610100840151600382015561012084015160048201550191610eb96101408201511515849060ff801983541691151516179055565b60018060a01b0381166000526008845261168683604060002061229f565b336000908152600a855260408082206001600160a01b03841683528652808220805460ff1916600117905560078652902080546116c290612226565b815560ff8351166116d8600183019182546122fc565b905560ff85840151166116f0600283019182546122fc565b905560ff604084015116611709600383019182546122fc565b905560ff606084015116611722600483019182546122fc565b905560ff60808401511661173b600583019182546122fc565b90556006429101556117506040518093611fec565b4260a08301526001600160a01b031690339083907ffaf360560dce0f4463d8d819c9e0d207f8138ccc759f786734333a195f9df7bc9060c090a460018055604051908152f35b80600160ff6117a86117bb948861224b565b51161015806117c0575b6106049061225c565b6114b5565b50610604600a60ff6117d2848961224b565b5116111590506117b2565b60405162461bcd60e51b815260206004820152601a60248201527f416c7265616479207261746564207468697320666163756c74790000000000006044820152606490fd5b60405162461bcd60e51b81526020600482015260146024820152732737ba1030903330b1bab63a3c9036b2b6b132b960611b6044820152606490fd5b611877915060203d60201161064c5761063e8183611d32565b84611482565b6118949150843d861161064c5761063e8183611d32565b886103f6565b602080916118a784611e40565b8152019101906113ef565b346101a85760003660031901126101a8576060600b54600c54600d549060405192835260208301526040820152f35b346101a85760403660031901126101a8576118fa611dfc565b336001600160a01b038216036119165761069e90600435612156565b60405163334bd91960e11b8152600490fd5b346101a85760403660031901126101a85761069e600435611947611dfc565b90806000526000602052611962600160406000200154612017565b6120dd565b346101a85760203660031901126101a85760043560005260006020526020600160406000200154604051908152f35b346101a85760403660031901126101a8576119af611de6565b6001600160a01b03166000908152600860205260409020805460243591908210156101a85760209161130b91611e12565b346101a85760203660031901126101a8576000610160604051611a0281611cdc565b8281528260208201528260408201528260608201528260808201528260a08201528260c08201528260e0820152826101008201528261012082015282610140820152015260043560005260046020526101806040600020610160604051611a6881611cdc565b60ff600584549485845260018060a01b03600182015416602085015282600282015460018060a01b0381166040870152818160a01c166060870152818160a81c166080870152818160b01c1660a0870152818160b81c1660c087015260c01c1660e0850152600381015461010085015260048101546101208501520154818116151561014084015260081c1615158282015260405192835260018060a01b03602082015116602084015260018060a01b03604082015116604084015260ff606082015116606084015260ff608082015116608084015260ff60a08201511660a084015260ff60c08201511660c084015260ff60e08201511660e0840152610100810151610100840152610120810151610120840152610140810151151561014084015201511515610160820152f35b346101a85760403660031901126101a857611bb0611de6565b611bb8611dfc565b9060018060a01b03809116600052600a60205260406000209116600052602052602060ff604060002054166040519015158152f35b346101a8576020806003193601126101a85760043567ffffffffffffffff81116101a85781611c23611c36923690600401611d54565b8160405193828580945193849201611e5d565b8101600981520301902090604051908181845491828152019360005281600020916000905b828210611c7257610c4d85610c4181890382611d32565b835486529485019460019384019390910190611c5b565b346101a85760203660031901126101a8576004359063ffffffff60e01b82168092036101a857602091637965db0b60e01b8114908115611ccb575b5015158152f35b6301ffc9a760e01b14905083611cc4565b610180810190811067ffffffffffffffff82111761101257604052565b610140810190811067ffffffffffffffff82111761101257604052565b60a0810190811067ffffffffffffffff82111761101257604052565b90601f8019910116810190811067ffffffffffffffff82111761101257604052565b81601f820112156101a85780359067ffffffffffffffff82116110125760405192611d89601f8401601f191660200185611d32565b828452602083830101116101a857816000926020809301838601378301015290565b6020908160408183019282815285518094520193019160005b828110611dd2575050505090565b835185529381019392810192600101611dc4565b600435906001600160a01b03821682036101a857565b602435906001600160a01b03821682036101a857565b8054821015611e2a5760005260206000200190600090565b634e487b7160e01b600052603260045260246000fd5b359060ff821682036101a857565b60e4359081151582036101a857565b60005b838110611e705750506000910152565b8181015183820152602001611e60565b9060068210156105c75752565b80604312156101a857604051906080820182811067ffffffffffffffff821117611012576040528160a49182116101a8576024905b828210611ecf5750505090565b60208091611edc84611e40565b815201910190611ec2565b90600182811c92168015611f17575b6020831014611f0157565b634e487b7160e01b600052602260045260246000fd5b91607f1691611ef6565b9060405191826000825492611f3584611ee7565b908184526001948581169081600014611fa45750600114611f61575b5050611f5f92500383611d32565b565b9093915060005260209081600020936000915b818310611f8c575050611f5f93508201013880611f51565b85548884018501529485019487945091830191611f74565b915050611f5f94506020925060ff191682840152151560051b8201013880611f51565b90602091611fe081518092818552858086019101611e5d565b601f01601f1916010190565b6000915b60058310611ffd57505050565b60019060ff83511681526020809101920192019190611ff0565b80600052600060205260406000203360005260205260ff6040600020541615610a415750565b6001600160a01b031660008181527ff179aafcc4ff8137fca1ef3b9ec4d165f87016ba123e7973fba770bc55e240e360205260408120549091906000805160206124f28339815191529060ff166120d857808352826020526040832082845260205260408320600160ff198254161790557f2f8788117e7eff1d82e926ec794901d17c78024a50270940304540a733656f0d339380a4600190565b505090565b9060009180835282602052604083209160018060a01b03169182845260205260ff604084205416156000146120d857808352826020526040832082845260205260408320600160ff198254161790557f2f8788117e7eff1d82e926ec794901d17c78024a50270940304540a733656f0d339380a4600190565b9060009180835282602052604083209160018060a01b03169182845260205260ff6040842054166000146120d85780835282602052604083208284526020526040832060ff1981541690557ff6391f5c32d9c69d2a47ea670b442974b53935d1edc7fd64eb21e047a839171b339380a4600190565b908160209103126101a8575180151581036101a85790565b156121ea57565b60405162461bcd60e51b8152602060048201526014602482015273139bdd081d995c9a599a5959081cdd1d59195b9d60621b6044820152606490fd5b60001981146122355760010190565b634e487b7160e01b600052601160045260246000fd5b906005811015611e2a5760051b0190565b1561226357565b60405162461bcd60e51b8152602060048201526014602482015273496e76616c696420726174696e672076616c756560601b6044820152606490fd5b805468010000000000000000811015611012576122c191600182018155611e12565b819291549060031b91821b91600019901b1916179055565b6002600154146122ea576002600155565b604051633ee5aeb560e01b8152600490fd5b9190820180921161223557565b906004811015611e2a5760051b0190565b60068210156105c75752565b8115612330570490565b634e487b7160e01b600052601260045260246000fd5b6040805161235381611d16565b60a03682376001600160a01b0390921660009081526007602052818120825192909167ffffffffffffffff919060e085018381118682101761249e5782528354928386526001850154602087019081526002860154918488019283526003870154936060890194855260048801549660808a01978852600660058a01549960a08c019a8b52015460c08b01521561244f57505093612446959360ff612429819997958261241a612437978e8361240e8e829d51905190612326565b169052518b5190612326565b1660208d015251885190612326565b169089015251845190612326565b16606086015251905190612326565b16608082015290565b8551995097509395505060a087019350505081118482101761248a579082918152818452816020850152830152806060830152608082015290565b634e487b7160e01b83526041600452602483fd5b634e487b7160e01b82526041600452602482fd5b156124b957565b60405162461bcd60e51b815260206004820152601060248201526f14985d1a5b99c81b9bdd08199bdd5b9960821b6044820152606490fdfe71f3d55856e4058ed06ee057d79ada615f65cdf5f9ee88181b914225088f834fa264697066735822122013bb721d856fe076c96503ed177719ad27886d18fc6372915ab23e57d35deb4164736f6c634300081400332f8788117e7eff1d82e926ec794901d17c78024a50270940304540a733656f0d",
  "linkReferences": {},
  "deployedLinkReferences": {}
}